:040000034000033581
:020000040002F8
:1060000000000120350304005D0304005F03040069
:106010006103040063030400650304000000000042
:106020000000000000000000000000006703040002
:1060300069030400000000006B0304006D0304000A
:106040007D0504006F030400EDE603006F03040008
:106050006F0304006F0304000DEE03006F030400E0
:106060006F030400F5F3030009F403006F03040059
:106070006F030400490404006F0304006F0304006D
:1060800021F40300E5F003006F0304006F03040034
:106090006F0304006F03040015FD03006F03040089
:1060A0006F0304006F0304006F0304006F03040018
:1060B0006F0304006F0304000000000000000000F4
:1060C0006F0304006F0304006F0304006F030400F8
:1060D0006F0304006F0304006F030400000000005E
:1060E00000000000000000000000000000000000B0
:1060F00000000000000000000000000000000000A0
:10610000000000000000000000000000000000008F
:10611000000000000000000000000000000000007F
:10612000000000000000000000000000000000006F
:10613000000000000000000000000000000000005F
:10614000000000000000000000000000000000004F
:10615000000000000000000000000000000000003F
:10616000000000000000000000000000000000002F
:10617000000000000000000000000000000000001F
:10618000000000000000000000000000000000000F
:1061900000000000000000000000000000000000FF
:1061A00000000000000000000000000000000000EF
:1061B00000000000000000000000000000000000DF
:1061C00000000000000000000000000000000000CF
:1061D00000000000000000000000000000000000BF
:1061E00000000000000000000000000000000000AF
:1061F000000000000000000000000000000000009F
:1062000010B5054C237833B9044B13B10448AFF3F0
:1062100000800123237010BDFC2C00200000000032
:10622000AC3D040008B5034B1BB103490348AFF371
:10623000008008BD00000000002D0020AC3D0400DF
:10624000154B002B08BF134B9D46A3F5803A002148
:106250008B460F461348144A121A00F063F80F4B8E
:10626000002B00D098470E4B002B00D09847002001
:10627000002104000D000D48002802D00C48AFF3A7
:10628000008000F02BF82000290002F0D1FC00F083
:1062900011F800BF0000080000000120000000000D
:1062A00000000000FC2C0020E89D00200000000001
:1062B0000000000008B5074B044613B10021AFF3FE
:1062C0000080054B1868836A03B19847204600F0A8
:1062D00031F800BF00000000A42C040070B50D4E82
:1062E0000D4CA41BA4100025A54209D10B4E0C4C4B
:1062F0001CF0CCFCA41BA4100025A54205D170BD48
:1063000056F8253098470135EEE756F8253098477E
:106310000135F2E7F42C0020F42C0020F42C0020AE
:10632000F82C002002440346934200D1704703F842
:10633000011BF9E7FEE700BF084B1A78062A07D8C9
:106340000123934013F06C0F03D113F0120F02D10D
:1063500070470BF0D3BB0BF0C3BB00BFDC2A00209F
:10636000012940F2C7822DE9F04FDFF87496DFF87B
:106370007486DFF874A68DB00F4683460C469BF8F2
:106380000160023CA4B27EB3B2B2A24230D89BF804
:106390000050A41A142DA4B200F0CD812DD8092DDF
:1063A00000F003826AD90E2D00F05A8240F2F58087
:1063B0000F2D00F00E81122D16D1032E14D90BF1E2
:1063C000020529460422092004F0A0FE9BF80130B2
:1063D00041F2A861052BADF8081000F2B082284602
:1063E00012F0F6FB9BF801600236012CB344C6D8CC
:1063F0003C1BA0B20DB0BDE8F08F522D00F04682DC
:1064000029D8322D00F079815CD9352D00F0268114
:10641000372DE9D1012E00F07282302EE4D89BF89E
:1064200002000BF1020106F1FF3E8E448C46A0F102
:10643000300520F02003092DA3F1410305D9192BC4
:10644000A0F12D0001D90128CED8E64500F08B82BD
:106450001CF8010FEBE7C92D00F03C8140F2898068
:10646000D32D00F0C380F92DBED19BF80230012B53
:10647000BAD113F0F5F99BF80160B5E7012D00F0F2
:106480004A81C0F0CF80022D00F01A81082DABD1D7
:1064900099F80030032BA7D004A820220021FFF791
:1064A00041FF032E00F03C82192E00F03382012EB2
:1064B0009AD19BF80230049304A801F091FC9BF858
:1064C000016091E7162D00F0E080202D8CD1032E85
:1064D0008AD99BF805209BF804308DF810208DF8A0
:1064E00011309BF803209BF802308DF812208DF8B4
:1064F00013300499002900F042820B2E7FF674AF0E
:106500009BF809209BF808308DF808208DF8093099
:106510009BF807209BF806308DF80A208DF80B3089
:106520009BF80D20029B8DF808209BF80C208DF81D
:1065300009209BF80B208DF80A209BF80A208DF883
:106540000B20029A059302A802230E2E06928DF8C4
:106550001C30089000F01D82132E00F22C820023C4
:106560008DF81C30089304A805F06AFB9BF80160C5
:106570003AE7532D49D0542D7FF436AF31460BF115
:106580000200002201F0F0FC9BF80160012C06F1F2
:106590000206B3443FF6F3AE2AE70B2D00F08380EA
:1065A0000C2D7FF421AF9BF802008DF8100003F052
:1065B00045FD03F0B3FD9DF81030834200F0D98112
:1065C0009BF80160012C06F10206B3443FF6D7AEFA
:1065D0000EE79BF8020012F043FA9BF80160012CD1
:1065E00006F10206B3443FF6CAAE01E7012E6AD9AE
:1065F0009BF80230002B7FF4F7AE9BF80330002BA2
:106600007FF4F2AE0FF0B6F9DAE799F80030032B19
:106610003FF4EAAE31460BF1020001F07DFD9BF83C
:106620000160E1E6032E9BF8023000F23C8143EA70
:10663000032043EA002043EA0020049011F0CEF842
:10664000042204A9072004F061FD9BF80160012CDD
:1066500006F10206B3443FF692AEC9E69BF802305B
:106660008DF810301B0600F147810BF047FA01222C
:1066700004A90F2004F04AFD9BF80160012C06F1EB
:106680000206B3443FF67BAEB2E631460BF10200A0
:106690000FF020FA9BF80160012C06F10206B344CA
:1066A0003FF66DAEA4E69BF8020011F0D3FF9BF815
:1066B0000160012C06F10206B3443FF660AE97E696
:1066C000012E00F2008101260236012CB3443FF670
:1066D00056AE8DE6D8F80050BE48C8F800A000219C
:1066E0000FF0F0FFC8F800509BF80160012C06F194
:1066F0000206B3443FF643AE7AE631460BF10200A0
:106700000BF05EFA9BF80160012C06F10206B3441F
:106710003FF635AE6CE69BF8020011F083F80028D6
:106720003FF44EAF2A460BF10201062004F0EEFCC6
:1067300001F006FD44E7052E7FF656AE9BF80220D9
:106740009BF803308DF808208DF809309BF8042061
:106750009BF80510BDF808308DF808108DF8092059
:10676000BDF80820ADF810300023CDE90533ADF8B1
:106770001220ADF81C309BF806209BF807308DF8EE
:106780001620072E8DF81A3009D99BF808209BF89F
:10679000093012011B01ADF81420ADF8183004A81F
:1067A0000EF0B2FD9BF801601EE6112E7FF61CAEC6
:1067B0009BF809209BF808308DF808208DF80930E7
:1067C0009BF807209BF806308DF80B308DF80A20D7
:1067D0009BF80D30029A8DF808309BF80C308DF83C
:1067E00009309BF80B308DF80A309BF80A308DF891
:1067F0000B30029B059206939BF805209BF8043012
:106800008DF810208DF811309BF803209BF8023092
:106810008DF812208DF813309BF811209BF8103062
:106820008DF809308DF808209BF80F209BF80E306A
:106830008DF80B308DF80A209BF81330029A8DF8F2
:1068400008309BF812308DF80930BDF808300792F7
:1068500004A8ADF820300AF035FC9BF80160C3E5D0
:1068600012F0F8F800283FF4ABAE9BF80230002B92
:1068700062D09BF80160012E7FF6B6AD9BF8033025
:10688000002B7FF4B1AD544A1370ADE599F8003098
:10689000032B3FF4A9AD31460BF1020001F028FCB7
:1068A0009BF80160A0E58DF813309BF805109BF86C
:1068B00004209BF803308DF810108DF811208DF80E
:1068C00012300498BAE69BF803209BF802308DF84A
:1068D00010208DF811300CADBDF8100045F8200DDA
:1068E00010F006FF29460422012004F00FFC9BF85B
:1068F000016079E500207047FFF71EFDB7E69BF8C1
:10690000020000287FF48DAD142004F063FD9BF895
:10691000016069E516220BF1050106A81BF0AFF82E
:106920009BF803309BF804208DF808208DF809307F
:10693000BDF808300593BCE5284A137099E79BF829
:1069400007209BF806308DF810200CA98DF8113027
:10695000BDF8103021F8283D02220A2004F0D6FBB1
:10696000BDF808103BE5142004F0D0FB9BF8016053
:106970003AE5012204A9082004F0C8FB20E614220D
:1069800004A8FFF7CFFC04A805F05AF99BF80160B2
:106990002AE59BF80E209BF80F308DF806208DF825
:1069A0000730BDF8061059B14FF6FF7399420BD06E
:1069B00000230893D7E50BF10E010BF0F1FAD2E5B5
:1069C0000822FFF7AFFCCEE50822FF21FFF7AAFC63
:1069D000C9E500BF2C2D0020F17F00201C81002084
:1069E000DC2A0020607700206C28002001B170476D
:1069F00008B503F0E3FC014B186008BD68280020CF
:106A0000062810B527D80123834013F01A0F08BFBA
:106A10000320174C237883421CD020700BF0AEF972
:106A20000FF052F82378062B05D8012202FA03F35F
:106A300013F06C0F11D112F00DF858B12378062B1A
:106A400008D8012202FA03F313F0660F08D113F0FD
:106A5000180F09D110BD0320DBE70BF04FF8EAE770
:106A6000BDE8104012F076B8BDE8104012F06AB8E8
:106A7000DC2A00202DE9F04F93B00F460092064625
:106A800008F042FC08F0CAFB81460BF0C7FB0E225F
:106A90000023ADF80C00ADF80E200493002F00F099
:106AA000378109F10708013F37444546013E40F26E
:106AB000F124023CA4B216F8013F2B70FF2CA24631
:106AC0004FF0000228BF4FF0FF0A5FFA8AFB6A709E
:106AD000F92B00F22081DFE813F08A029D02A70261
:106AE000B3021E01BD021E014A01500165019F0152
:106AF000FA00BF01C901D001DC015A023D02440283
:106B00001E01E601ED0105021E011E011E011E010E
:106B10001E011E011E010B021E012A013C0144013F
:106B20001E011E011E011E011E01FD021E011E018D
:106B30001E011E011E011E011E011E011E01180361
:106B40001E011E01EF0260031E031E011E011E0135
:106B50001E011E011E011E011E011E011E011E013D
:106B60001E011E011E011E011E011E011E011E012D
:106B70001E011E011E011E011E011E011E011E011D
:106B80001E011E011E011E011E011E011E011E010D
:106B90001E011E011E011E011E011E011E011E01FD
:106BA0001E011E011E011E011E011E011E011E01ED
:106BB0001E011E011E011E011E011E011E011E01DD
:106BC0001E011E011E011E011E011E011E011E01CD
:106BD0001E011E011E011E011E011E011E011E01BD
:106BE0001E011E011E011E011E011E011E011E01AD
:106BF0001E011E011E011E011E011E011E011E019D
:106C00001E011E011E011E011E011E011E011E018C
:106C10001E011E011E011E011E011E011E011E017C
:106C20001E011E011E011E011E011E011E011E016C
:106C30001E011E011E011E011E011E011E011E015C
:106C40001E011E011E011E011E011E011E011E014C
:106C50001E011E011E011E011E011E011E011E013C
:106C60001E011E011E011E011E0130037102780269
:106C70001E011E011E011E011E011E011E011E011C
:106C80007F021E011E011E011E011E011E011E01AA
:106C90001E011E011E011E011E011E011E011E01FC
:106CA0001E011E011E011E011E011E011E011E01EC
:106CB0001E011E011E011E011E011E011E011E01DC
:106CC0001E011E011E011E011E011E016C0311F09A
:106CD000B3FC002843D001236B70002C40F00083EC
:106CE000A5EB0805ADB2ADF814508DB1484603AA26
:106CF0004FF43E710BF0D6FC50B108F089FA009BBE
:106D0000002B00F0F5820022184611460BF0D8FE49
:106D100013B0BDE8F08F0020241ABE4200F102003B
:106D2000A4B20544DCD0012C3FF6C3AED8E704F092
:106D300027FF002840F08C820423032C6B7040F264
:106D4000498168712871E870A87018468345E3D2BC
:106D5000C6E7C7481AF018FF504540F26C826878C1
:106D6000F4E75946A81C05F061F96870EEE759464A
:106D7000A81C0EF077FF6870E8E71920182C6870DF
:106D8000E4D906A801F05AF8069BAB70079B2B715B
:106D9000C3F30723EB70162208A9681D1AF06FFED3
:106DA0006878D3E71220112C6870CFD90AF086F9E1
:106DB0000246687813686B71C3F307212971C3F326
:106DC0000741C3F30763E970AB7053686B72C3F399
:106DD00007212972C3F30741C3F30763E971AB715C
:106DE00093686B73C3F307212973C3F30741C3F39C
:106DF0000763E972AB72D3686B74C3F3072129741C
:106E0000C3F30741C3F30763E973AB73138AEB74EE
:106E1000C3F30723AB7499E70A20092C687095D94E
:106E200007234FF0010AAB7085F803A001F0EEFED6
:106E3000C0F3072359212B7130225F23AB71687196
:106E400085F807A069722A7201F0D2FCC0F307230B
:106E5000E872AB72687879E701236B70002C3FF41D
:106E60003FAF03F05BF9A87068786FE701206870A6
:106E7000002C3FF435AFA87068E70220012C687041
:106E800040F2A1807B4A7C4B12781B78AA70EB7091
:106E90005CE701236B70002C3FF422AF12F0B0FCD2
:106EA000A870687852E70823072C6B7000F2A48161
:106EB00008204BE70823072C6B70F9D906A80EF0C1
:106EC00025FB9DF82330AB709DF82430EB700EF05D
:106ED0005BFB002328716B71AB71EB712B726B72D2
:106EE000687833E75946A81C0EF06CFE68702DE7F1
:106EF0000E200D2C68707FF629AF06A804F048FE1E
:106F0000069B6B71C3F30721C3F30742C3F3076307
:106F10002971EA70AB70079B6B72C3F30721C3F34F
:106F20000742C3F307632972EA71AB71BDF82030E1
:106F3000EB72C3F30723AB72BDF822306B73C3F35C
:106F400007232B73BDF82430EB73C3F30723AB7314
:106F50006878FBE60623052C6B7000F2468106205C
:106F6000F4E60623052C6B70F9D911F053FE0346A5
:106F700068781A78AA705A78EA709A782A71DA785A
:106F80006A719B88EB71C3F30723AB71DEE60C20BB
:106F90000B2C68707FF6DAAE11F05CFDAB1C00289C
:106FA00000F09781184611F0E9FDA81D11F0F4FDDD
:106FB00005F10A0011F0FEFD6878C7E60223012CF6
:106FC0006B7000F203810220C0E60423032C6B7077
:106FD00000F23B810420B9E60223012C6B70F2D948
:106FE0000EF0CEFCC0F30723E870AB70B7E60420C8
:106FF000032C68707FF6AAAE10F0EAFBC0F30722FC
:10700000C0F307436871C0F30760A8702A71EB7082
:1070100068789BE601236B70002C3FF461AE10F0A2
:10702000FBFBA870687891E60223012C6B70CAD92B
:1070300010F058FBC0F30723E870AB70687885E662
:1070400001236B70002C3FF44BAE01F0DFFDA87004
:1070500068787BE60CF008FA00283FF447AF032C71
:1070600040F25181AA1D019492465C4608E000BF9F
:10707000802F04001C810020F17F0020032C14D9F4
:1070800003880AF8043CC3F307230AF8033C437956
:107090000AF8023C03790AF8013C221FD4B20CF032
:1070A000F3F90AF1040A0028E8D1A246ABEB0A0082
:1070B000C0B2019C687049E601236B70002C3FF45C
:1070C0000FAE0AF007FD00280CBF00238023AB7031
:1070D00068783BE60823072C6B707FF6E9AE4FF02B
:1070E000000A3423AB7085F803A002F0A3FFC0F3BD
:1070F000072368712B7185F807A085F806A085F82D
:1071000009A085F808A0687820E65946A81C0AF06E
:1071100069FD68701AE606A93022142004F038F9D7
:10712000002851D0C3B29B456B70FFF418AE0246E5
:1071300006A9A81C1AF0A3FC11E60520042C68700F
:107140007FF604AE0BF0A8FEA8700AF007FEE87008
:107150000AF00CFE28710CF087F9002800F0DA80A4
:107160004FF0000A0CF090F90AF1010A0028F9D159
:107170005FFA8AF301930CF06FFA48B14FF0000AFE
:107180000CF07AFA0AF1010A0028F9D15FFA8AF0C4
:10719000019BA8716B716878D8E50220012C68709A
:1071A0007FF611AF5C4B1B88AB70C3F30723EB700A
:1071B000CCE512F04BFB83456870FFF491ADA81C41
:1071C00012F046FB6878C1E56870C8E503F0F6F890
:1071D000524B1B68C01A4FF6FE7398427FF602AFFF
:1071E000FF23EB70AB706878B0E511F02DFC002840
:1071F00068D011F013FDBAE606A80EF087F9BDF8C5
:107200001830AB70C3F30723EB70BDF81A306B7105
:10721000C3F307232B719DF81E30AB719DF822300C
:10722000EB71BDF81C3068781B092B72BDF820305B
:107230001B096B728AE5024601903949A81C1AF0B5
:107240001EFC019BD8B2687080E503F0B7F8D5E664
:1072500006A804F0A1FD9DF82420012A45D04FD3B3
:10726000022A4AD06B789B45FFF479AD069B6B717F
:10727000C3F30720C3F30741C3F307632871E97021
:10728000AB70079B6B72C3F30720C3F30741C3F3D3
:1072900007632872E971AB71089B6B73C3F3072016
:1072A000C3F30741012AC3F307632873E972AB7282
:1072B0002CD0022A7FF453AD0A9905F10E000AF092
:1072C0007DFE4CE501466A78A81CFFF72BF868782C
:1072D0003CE501466A781846FFF724F8687835E5FA
:1072E00011F040FAA870687830E50E236B70BAE7A9
:1072F000009908460BF018FC0AE514236B70B2E7FE
:107300000C236B70AFE7002068701FE50023AB73A0
:10731000EB7324E501902EE7B66200206828002078
:10732000802F04002DE9F047A4B00A46014602A8C8
:107330000BF086F9002863D0BDF80A40B4F5004F81
:1073400061D0062C00F0A0800E2C61D00F2C00F034
:1073500014811E2C00F0D681CF2C00F0B98040F2B1
:1073600001339C4200F0FF80012C00F00381102CBF
:1073700000F0BA80112C00F0BD81412C40F04B820E
:10738000B04B1B78012B01D0042B39D1BDF8103044
:10739000022B35D9039A1178012202EB41029A425D
:1073A0002ED10AF03BFFBDF81030ADF82C000233AF
:1073B00040220025ADF83430ADF82E200C9507F0B2
:1073C000A3FF07F02BFF0BAA4FF43E7104460BF00E
:1073D0000BF90646A0B19C4B1B88E371C3F307234E
:1073E00023720399BDF8102004F109001AF047FB3D
:1073F000304607F00DFF954B29469B682846984775
:1074000024B0BDE8F08701F0B7FBBDF80A40A3E760
:10741000BDF810100129F3D9039E3046FEF7A0FFF6
:10742000012888BF00252CD931786DB19DF82C300A
:107430008B420ED00BAA002303E012F8014F8C42BE
:1074400007D00133AB42F8D124AB2B44013503F80C
:10745000641C737802339AB2824200F26581801A0A
:1074600080B201281E4440F25F81642DDCD10BF014
:10747000EFF9002840F0B281024629460BA8FFF739
:10748000F9FABDF80A4067E7BDF81030012BB7D90B
:107490006D4B039A1B88ADF82C300023CDF83230A9
:1074A000CDF82E30CDF836301378694803F0030359
:1074B0000D2130F81330ADF82E308DF8321053789E
:1074C0008DF836300BA80DF01FFFBDF80A4043E7DA
:1074D000604B1C68002C00F0C3805F4B5F480322A8
:1074E0001A700FF01FF98BE7BDF810200B2A87D90F
:1074F000039BD9788DF82C1099788DF82D10597838
:107500008DF82E1019788DF82F10D9790B9E8DF8E3
:107510002C1099798DF82D1059798DF82E10197934
:107520008DF82F10597A0B9F8DF82C10197A8DF841
:107530002D10D97ABDF82C508DF82C10997A8DF831
:107540002D100C2ABDF82C8000F0FA800B3AAA42CC
:107550007FF756AF0C3300932A46434639463046F0
:1075600004F058FC4CE70122BDF81010039800F01D
:10757000FBFC45E702F0E6FF42E7374B1A78022AA8
:1075800000F0B280BDF810100398FEF7E9FEBDF8D8
:1075900010300399012B1AD94E78B01C834216D3B0
:1075A0000A78352A00F0A9801A4604460D4609E0FB
:1075B0006F78BC1C94420AD895F800C0BCF1350F16
:1075C00000F09C80121B92B2012A2544F0D80BAC2B
:1075D000214601220F2003F0DBFE002800F0A880E6
:1075E0009DF82C30FF2B00F0A3801B0600F1A58036
:1075F0000AF084FABDF810300399012B14D94E78A3
:10760000B01C834209D20FE01B1A9BB2012B01442C
:1076100009D94E78B01C984205D80A780C2AF3D1C3
:10762000002E7FF42EAF0BAC21460122082003F080
:10763000AFFE00283FF425AF9DF82C0002F0FEFCC1
:107640001FE700BFDC2A0020B6620020483104009A
:10765000B82C04003C2D0020182D00201C2D0020EB
:10766000BDF8102003990BA80AF044FF00283FF44E
:10767000C7AE2146BDF844000AF034FD00283FF4AF
:10768000BFAE9D4C9DF82E002578FFF7B9F9237801
:107690009A4A9DF82C101170022BBDF8302000F092
:1076A000A180052B00F09E80DDE90E0610990D9B50
:1076B000059005A80893ADF82420CDE9066109F0EE
:1076C00001FD2378032B00F091808D4B1B78002B5C
:1076D0007FF496AE8B4B24A81B6840F87C3D0022BB
:1076E0000421FFF7C7F98BE6032287481A700FF0D1
:1076F00019F847E704F078FC82E63746002F3FF49C
:1077000066AF8AE70398BDF810204378023399B238
:107710008A42FFF475AE1844521A4378023392B28B
:1077200099B29142F7D96BE6002D3FF4AAAE9EE6DE
:10773000714B1B78042B7FF45DAFFEF7FDFD59E71D
:107740000AF06CFD4FF0000905F10C03ADF8343080
:10775000ADF82C00ADF82E40CDF8309007F0D4FDF8
:1077600007F05CFD0BAA4FF43E7104460AF03CFFA3
:10777000824600283FF444AECDF800802B463A46BE
:10778000314604F1130004F0D9FB00283FF438AE71
:10779000C5F30723C8F30722E373C6F30723C6F331
:1077A0000741A672A77362746372C7F30722C7F317
:1077B0000743C6F30766C7F3076750462172237372
:1077C000257484F81280E6716273E77207F020FD79
:1077D0004E4B49469B684846984711E60BF03EF8E9
:1077E00002464AE6002A3FF46DAF5DE7052D07D05B
:1077F000434B1A78002A7FF403AE01221A7069E71E
:1078000000F02AFB3E4B1A78002A7FF4F9AD22786B
:10781000032AF2D05EE7402C7FF4F2AD364B1B78A2
:10782000012B02D0042B7FF4EBADBDF81020042A0D
:107830007FF6E6AD039B9978032000EB4100904270
:107840007FF4DEAD00293FF4DBADDA788DF82C2033
:107850001A792F4D8DF82D20BDF82C202C889442BC
:1078600018BF00220CD10FE058798DF82C009879C0
:107870008DF82D00BDF82C00A04203F1020303D0C7
:1078800001328A42F0D1BBE5032007F0ADFD039B36
:107890001A788DF82C205B788DF82D308046BDF855
:1078A0002C700AF0BBFC002642220523ADF82E20E6
:1078B000ADF82C00ADF834300C9607F025FD07F03C
:1078C000ADFC0BAA4FF43E7104460AF0EBFE002813
:1078D0003FF496AD2B88E371C7F30722C3F3072368
:1078E00023726772A27284F80B8007F091FC314614
:1078F00030460BF019F983E5DC2A002078280020B7
:10790000182D0020A82C04001C2D00204831040054
:10791000B662002030B585B0437802788DF8042037
:107920008DF80530BDF8043040F60E0523F4805381
:10793000AB420AD00A4640F615018B4203D10146FC
:1079400001A80AF0DBFE05B030BDFFF7EBFC05B087
:1079500030BD00BF70B5524C8CB002F02FFD2168D5
:10796000411A02296AD90AF059FC4E4D4E4B2E7825
:1079700019788DF80000002301228DF802308DF86F
:1079800008308DF803608DF801108DF80A200AF098
:10799000DDF92B788DF80900012B47D0042B45D059
:1079A00010F0E6FEB0F57A7F05466CD800238DF81E
:1079B0000B3003A80AF01AFB05A80AF053FF09F0E0
:1079C0007DFB0368099343680A9383680B93C3683C
:1079D0000893038A8DF81C3007F096FC334B1B7814
:1079E000002B3AD102F0EAFCB0F5167F48D8304BB4
:1079F0001B7898005A0700F0080448BF44F02004A0
:107A00001B0748BF44F0020402F0D8FC80B240EAF1
:107A1000046040F40040019007F000FC6A464FF417
:107A20003E710AF047FD18BB0CB070BD10F09AFE15
:107A30000128B5D001238DF80B30BAE7C1EB016105
:107A40001C4C1D4B1D4825682360090201F540713F
:107A50000EF038FE25600CB070BD194B019307F095
:107A6000DDFB6A464FF43E710AF034FD0028DBD09E
:107A700007F0CEFB002113480BF056F80CB070BD98
:107A800002F060FDB3E702F099FC23680E4AC01AC9
:107A9000A2FB0535B0EB951F94BF0123002386E7B9
:107AA00068280020DC2A002078280020182D0020DB
:107AB000283C0020607700206C2800202C2D00201E
:107AC0005930015FED690200D34D621000B583B0FB
:107AD00002A8072300F8013D00220121FEF7CAFF9A
:107AE00003B05DF804FB00BF00B5084B83B05B68D2
:107AF000ADF8043000221B0C032101A88DF80630DC
:107B0000FEF7B8FF03B05DF804FB00BFA82C04002B
:107B100008B50AF023F90C4B1B78062B07D8012275
:107B200002FA03F313F0760F02D11B0708D408BD45
:107B3000002814BF03200220BDE8084001F05AB914
:107B4000BDE8084001F056B9DC2A002070B5048871
:107B500040F66F36B44284B0054600F0868040F6A9
:107B600091339C4215D024B100230380032004B03C
:107B700070BD03F055FC00F01FFE00F061FE8D4B60
:107B80002246186885210EF03BFF01202E8004B0AC
:107B900070BD822963D0884B1B788B4200F09580A2
:107BA000864B1B788B4200F08480854B1B788B4280
:107BB00000F09880834B1B788B4262D088294ED18D
:107BC000814B9A4200F09B80804B9A4247D11846E5
:107BD0000EF096FD002842D00AF0C8F800283ED0EA
:107BE0007B4B1C78022C3AD107F08EFB07F016FB7A
:107BF000784B1B780022012B0646C271027200F0FE
:107C0000CC80042B00F0C980022000F0EBFF40B1D3
:107C1000631C0736DBB20C21002231550234F254CA
:107C2000E4B20AF0FBFA00260F23ADF80400ADF829
:107C30000C40ADF80630029607F0F0FA01AA4FF4B6
:107C40003E710AF02FFD28B107F0E2FA31463046C6
:107C50000AF06AFF4FF420615C480EF033FD40F6F5
:107C6000913301202B8004B070BD852902D0012002
:107C700004B070BD10F0EEFEC0B9574B1B699847B9
:107C8000EDE7544B51481B78032B514B2DD002226A
:107C900000211A700EF016FDFFF73AFF00F04AFBC4
:107CA0004FF4407148480EF00DFDD8E710F04AFF40
:107CB000E3E73AB1002144480EF004FD444B1B7841
:107CC000022B17D000F03CFAC9E70AF04FF8002861
:107CD000C5D004A8142300F80C3D00220121FEF7B2
:107CE000C9FEBCE7FFF714FFB9E701221A700EF0D6
:107CF00019FDD1E7052135480EF0E4FCE2E7104616
:107D00000EF0FEFC0028AAD0314B2F481B78002B28
:107D10000CBF4FF420614FF4F0510EF0D3FC0AF089
:107D200025F800289BD0FFF715FE0A238DF80430B4
:107D300003F026FFC0B11E2220238DF805208DF808
:107D40000630032400F09AF880B1244B002119700A
:107D500004AB2344082203F80C2C013421460022F2
:107D600001A8FEF787FE7AE70124EBE7194B1B78A1
:107D7000022B05D0052B03D0012C3FF470AFEDE7AB
:107D8000164A1378012B11D904AB23440820002193
:107D900003F80C0C01341170E0E7002316213522A2
:107DA0007172B3723373F27206242DE701331370CC
:107DB000E2E700BF607700204362002041620020BC
:107DC00040620020446200202C2D00201C2D002049
:107DD000182D0020DC2A00204831040079280020DA
:107DE00070B5154E026833689A42044616D00FCC1F
:107DF000114D0FC594E80F00346885E80F0034B9C1
:107E0000204609F041F9BDE8704000F04BB8002071
:107E100009F022F9BDE8704000F044B84268736888
:107E20009A42E4D1162206F10801083019F018FE32
:107E30000028DCD070BD00BF402D002030B4054DBF
:107E400004460FCD0FC495E80F0084E80F0030BC46
:107E5000704700BF402D002008B50748036803B9EC
:107E600008BD20220021FEF75DFA002009F00CF980
:107E7000BDE8084000F016B8402D0020024B1868FD
:107E8000003018BF01207047402D0020014B1870B2
:107E9000704700BF602D0020014B1878704700BF6D
:107EA000602D00200B4B1B789B0700D4704700B55A
:107EB00089B06846FFF7C2FF009A074B0749084898
:107EC000002A08BF194602AB03F046FB09B05DF873
:107ED00004FB00BF602D00207C2D0400782D0400E1
:107EE000842D040000B583B068460AF085F8074881
:107EF00003F032FB68460AF015F900F079FC014600
:107F0000034803F029FB03B05DF804FB402D040097
:107F10004C2D040038B505464FF4407009F048F880
:107F2000044640F2011009F043F870B140F201201C
:107F300044F0020409F03CF808B144F0040421467E
:107F40000848BDE8384003F007BB40F2012009F0C3
:107F50002FF80028F1D114B9002DF0D138BD01243B
:107F6000EDE700BFC02C0400F8B52A4B1B785B0777
:107F700007D5B1F5807F04460D4603D9BAB1012A71
:107F80003FD0F8BD62B3012AFBD1234803F0D8FAF1
:107F900045B1013C0026013614F8010F03F090FAB8
:107FA000AE42F8D30A20BDE8F84003F0BDBA1B4842
:107FB00003F0C6FA4FF48075194F013C002606E025
:107FC000222B1AD003F0B0FA0136AE4210D214F8C8
:107FD000013FA3F120025E2A1846F1D93F20F1E7C4
:107FE0000E4803F0ADFA012D11D12378002BE3D117
:107FF0000C48BDE8F84003F0A3BA384603F0A0FAF5
:10800000E2E7054803F09CFA4FF48075C1E7002DC4
:10801000EED0D1E7602D0020342D0400202D040087
:108020002C2D0400302D04002DE9F04391B00028E0
:1080300056D079B942F62553ADF80030022310AA84
:1080400013446846002203F8402C03F079FA11B07B
:10805000BDE8F0830278002AECD001390023044601
:1080600046181D464FF02508204F0DE00DF1400940
:10807000252A994414D003463B2B09F8402C21D8DB
:10808000B4422AD014F8012FA2F121015D2903F195
:10809000010003F102014FEA121E02F00F0CE5D9B4
:1080A00010AA02EB030910441144033317F80EE041
:1080B00017F80C2009F8408C3B2B00F840EC01F835
:1080C000402CDDD910AA1344684603F8405C03F045
:1080D00037FAB4424FF00003D4D1002BAFD1B6E74A
:1080E00042F22513ADF800300223A8E77C320400E9
:1080F00038B504460D46064803F02EFA20462946B8
:10810000FFF792FF0348BDE8384003F025BA00BFEF
:10811000DC2C04006830040038B504460D460648DF
:1081200003F01AFA20462946FFF77EFF0348BDE810
:10813000384003F011BA00BFD02C040068300400AE
:1081400008B509F013FE50B9084803F005FA0FF01E
:1081500063FBBDE808400146054803F0FDB94AF657
:10816000CD31044803F0F8F9F1E700BF042D040015
:10817000142D0400E82C0400704700BF044B1A784B
:1081800002B17047012203481A7008F037BF00BFE0
:10819000612D00207C28002010B5054C237803B900
:1081A00010BD044808F040FF0023237010BD00BF3D
:1081B000612D00207C280020014B1878704700BFFB
:1081C000612D002008B508F05BFD00B908BDBDE8D1
:1081D0000840FFF787BE00BF08B508F051FD00B9A1
:1081E00008BDBDE80840FFF7ABBF00BF08B508F009
:1081F00047FD00B908BD0120BDE80840FFF78ABE71
:1082000010B517488AB003F0A7F903F0B9FCE8B13C
:1082100001A803F0BDFCBDF80E10F9B1BDF8103097
:10822000642404FB03F4B4FBF1F405A803F0B4FDEB
:108230002146079A0B4803F08FF900230A4A0B489E
:108240004FF4F0510EF024F90AB010BD084803F0C5
:1082500083F906480EF060F90AB010BD0C46E4E759
:10826000BC2D0400CC2D040075820200642D00207A
:10827000E82D0400FFF7C4BFFFF7C2BF10B50C49DB
:10828000044608F015FD28B920460A4908F010FDFB
:1082900020B910BDBDE81040FFF7B2BF03F070FC7D
:1082A0000028F7D003F098FEBDE81040FFF71CBC93
:1082B000F02D0400FC2D040030B51749C5B008F0BE
:1082C0002FFD30B104A94FF4807208F00FFE044670
:1082D00008B945B030BD07F017F806F09FFF054616
:1082E00009F09CFF04A940F20133ADF804000291AB
:1082F000284601AA4FF43E71ADF80C40ADF80630A7
:108300000AF0D0F90028E4D006F082FF00210846E8
:108310000AF00AFCDDE700BFC82E040010B50446D1
:1083200008F0AEFC00B110BD2046BDE81040FFF7DC
:10833000C3BF00BF10B50D4B1B78023BDBB2042B53
:1083400096BF0B4A4FF0004452F8234001F0E6FE7E
:1083500008B144F08054FFF72FFF08B144F4003413
:1083600021460448BDE8104003F0F6B8DC2A00209E
:10837000A82D0400BC2E0400F0B583B0044608F01C
:108380007FFC18B1FFF7D6FF03B0F0BDB949204616
:1083900008F08EFCE8B1204608F07CFCB6490546A2
:1083A00008F0BEFC044600F023FA4FF6FF73984233
:1083B0007CD034B1204601A908F020FD002840F00F
:1083C000FF8000F015FA0146AC4803F0C5F803B091
:1083D000F0BDAB49204608F06BFC002844D0204695
:1083E00008F058FC044608F04BFC002840F0D08010
:1083F0002378652BC8D163786E2BC5D1A3783D2B2C
:10840000C2D1023414F8013F092B00F07681202BF1
:1084100000F07381002B00F07081413B0F2BF1D8ED
:1084200001A252F823F000BF8B85020005840200F0
:108430000584020005840200058402000584020010
:1084400005840200858502007F8502000584020004
:10845000058402000584020079850200058402007B
:1084600005840200738502008649204608F020FC3E
:1084700030B3204608F00EFC044608F001FC054627
:1084800000285BD123786D2B7FF47EAF63783D2B82
:108490007FF47AAF023420467B4908F009FC0028BB
:1084A00000F05081284610F0D5F86DE7002C81D1FE
:1084B0002846764908F034FC0446002881D079E744
:1084C0007349204608F0F4FBE8B1204608F0E2FBCF
:1084D000044608F0D5FB0546002840F0B480237818
:1084E0006D2B7FF451AF63783D2B7FF44DAF023499
:1084F0002046654908F0DCFB002800F02C81284666
:1085000001F09CFD40E76349204608F0D1FB0028BC
:1085100077D0204608F0BEFB044608F0B1FB0028E7
:1085200000F0CC805C4C5D4803F016F82378002BFB
:1085300000F0D7805A4803F00FF825E710F012F941
:108540000446584803F008F8032C06D8DFE804F086
:10855000020D09094C4802F0FFFF0A2002F0E4FF77
:1085600012E7514802F0F8FFF7E7504802F0F4FF35
:10857000F3E740F0010045E740F0040042E740F037
:1085800008003FE740F010003CE740F0020039E708
:10859000FFF782FC0446464802F0DEFFE0073CD4C9
:1085A000210704F0040704F0020604F0100511D4BA
:1085B000BFB9EEB9002DD0D0482002F0B5FFCCE70E
:1085C000BDF8040000F02CF900F03AF9F9E62C208F
:1085D00002F0AAFF492002F0A7FF7FB32C2002F08F
:1085E000A3FF4D2002F0A0FF2EB32C2002F09CFF31
:1085F000412002F099FF002DAFD02C2002F094FF13
:10860000DAE701A9204608F0BFFB002870D0019BE3
:108610009B036AD5FFF7B2FDB4E6502002F084FF59
:10862000220704F0040704F0020604F01005CED47B
:10863000002FD3D1D8E7002DDFD18EE7002ED4D183
:10864000002D8AD0D9E701F069FD0446194802F0EF
:1086500083FF042C3FF47EAF52D9F02C3FF47AAF65
:10866000FF2C3FF477AF072C7FF477AF124802F06E
:1086700073FF72E7082E04000C2E04001C2E040069
:10868000302E0400442E0400542E0400182E040042
:10869000602E0400802E0400622D0020982E04001D
:1086A000A82E0400482E04005C2E0400582E04005E
:1086B000342E0400642E0400742E04003249204637
:1086C00008F0F6FA30B3314C2378002B7FF42BAF4F
:1086D00001232F48237003F025FA2E4802F0BAFE3A
:1086E00021E72D4802F038FF4EE6FFF755FD49E639
:1086F00021462A4802F030FF46E6FFF7C7FB43E673
:10870000012C7FF627AF022C7FF427AF244802F01C
:1087100023FF22E72046234908F0CAFA00283FF445
:1087200033AE1A4C2378002B3FF4FDAE00231E48D5
:1087300023700DF0F1FE164803F00AFA154802F016
:10874000A5FEF0E61949204608F0B2FA60B1012012
:108750000FF080FF18E61249204608F0A9FA70B120
:10876000022001F06BFC0FE62046114908F0A0FA48
:1087700000283FF409AE02200FF06CFF04E620460B
:108780000C4908F095FAFFE5842E0400622D0020C4
:10879000842800208C280020E82D0400AC2E040042
:1087A000702E04008C2E0400642D0020582E04002E
:1087B0005C2E04007C2E040008B5084802F04AFE36
:1087C000074802F047FE074802F044FE064802F060
:1087D00041FE0648BDE8084002F03CBE9C2800204F
:1087E000DC280020CC280020AC280020BC28002059
:1087F00000B583B0022201A9132002F0C9FD0228AE
:1088000009D19DF804309DF8050000EB032080B2EB
:1088100003B05DF804FB4FF6FF7003B05DF804FB96
:1088200010B582B00346040A022201A913208DF874
:1088300005308DF8044002F069FC02B010BD00BFA5
:10884000704700BF2DE9F04F048885B0064644B359
:10885000AB2C20D1882959D0AB230120338005B01F
:10886000BDE8F08F994609F0D9FC0024ADF804006A
:108870003023504601AA4FF43E71ADF80C90ADF88C
:108880000630029409F00EFF28B106F0C1FC214623
:1088900020460AF049F900230320338005B0BDE8E3
:1088A000F08FAB4D2B68002B40F0A480A94F002423
:1088B0003C700AF0D9FDE8B13B78A74D018803EB85
:1088C0004302013305EB8202DBB2322B3B70118194
:1088D00094720FD00AF0D8FD60B13B78018803EBA9
:1088E0004302013305EB8202DBB2322B3B70118174
:1088F0009472EFD199499A4C9A4A9B4800230B7085
:108900001946237013700DF0DDFEA5E7964B9A42D1
:10891000A2D110460DF0F4FE00289DD08C4D8F4C56
:108920008C492A6823780F78002A00F09780BB4290
:1089300019D2894903EB430201EB8202927A0F2A92
:1089400068D90133DAB202EB420301EB830105E09F
:10895000887A0F2801F10C015BD91A46531CBA42E0
:10896000DBB2F5D1227001232B6006F0CDFC06F0BE
:1089700055FC23788246C71D002B3FF473AF4FF0A0
:108980000009754DC84640F2D92B08E02378984578
:1089900005F10C05BFF467AFD9453FF664AFA87A7F
:1089A0000F2808F10108F1D96B68B3FBF0F008F06B
:1089B000CBF82B893B700001C3F307234FF6FF72FE
:1089C0007B7090422B687B7128BF1046C0F3072153
:1089D000C3F3072CB97109F10809C3F30741C3F3C5
:1089E0000763F87187F804C0F970BB701FFA89F942
:1089F0000837CBE701F0E2FC5C4B1B68C01AB0F50E
:108A0000967F01D92C6051E72B68002B7FF472AF61
:108A10004CE7227001F0D8FC05460CF00BFE281A3A
:108A20000E2822D940F6B8300CF00AFE054660B395
:108A3000B0F5C07F75D20EF02FF94D49494BA1FB1F
:108A40000021890801EB81011B78411A15FA81F197
:108A500003B90C3144480DF035FEFDE6BB42D9D3D5
:108A600001F0ACFC414B18607DE70EF015F9414B6D
:108A70000246A3FB0213DB08C3EB0313D31A99B21C
:108A8000394807310DF01EFEE6E62378324F354AAD
:108A900003EB430307EB83034FF0010C997A82F851
:108AA00000C06A391889C9B201AA0FF03DFBD8BBD2
:108AB00094F8008002994FF00C0C0CFB08FC07EBBB
:108AC0000C0E9EF80A200132D2B2012A8EF80A203A
:108AD00038D057F80C50491B81EAE173A3EBE173DE
:108AE0001B114FFA82FA91FBFAF12944DEF8045087
:108AF00047F80C1003FB03F302F1FF3903FB09F302
:108B00001F2AB3FBF2F32B44CEF8043004D9144AE5
:108B100008F1010323701070002113480DF0D2FDFD
:108B20009AE64FF4C07195E70128F5D00C4A137806
:108B30000133DBB2042B1370EED9237815700133A7
:108B40002370E9E747F80C10CEF80400E4E700BF13
:108B5000982D0020F52F00209C2D0020F42F0020C0
:108B6000942D0020FC2F0020842D0020F82F0020C1
:108B7000CDCCCCCC8988888808B505480DF07AFF23
:108B800000B108BD0146BDE8084001480DF084BEB3
:108B9000EC2800204BDF704710B5114C84B001A8C1
:108BA000FFF7F8FFA8B9214602A817F0ADFB039B19
:108BB000002BF4D0D3E900210198904702A817F0C8
:108BC000ADFB039B002BF5D101A8FFF7E3FF0028C5
:108BD000E9D0052801D016F02BFE04B010BD00BF6F
:108BE000742F0400023805280ED8DFE800F00305D2
:108BF000070D090B012070470FF01EBD0FF02ABFB3
:108C000001F052BB01F04ABB0020704738B5082480
:108C10000025013CE0B26D00FFF7E4FF08B145F02C
:108C20000105002CF5D1E8B238BD00BF41DF704727
:108C300070B500F0CBF801F08DFC01F029FC0FF0CD
:108C400021FF00F0E9F81448144D0DF087FB402691
:108C50000DF064FE044601F01BFC002CF8D10DF071
:108C6000C5FE0028F4D1D5F804315B0609D5F1EE34
:108C7000103A23F09F03E1EE103AF1EE103AC5F8F6
:108C8000846117F02BF818B9BFF34F8F30BFDFE7BF
:108C9000FFF7CCFFDCE700BFB02C040000E100E0F0
:108CA00021490B88C3B1214A5B080B8012780BB3B2
:108CB00013F0010F4FF0A0434FF0805114BFC3F8E1
:108CC0000C15C3F80815002A14BF30211021002309
:108CD000174A18480DF0DCBB174A144B12781A706B
:108CE000072A16D0062A05D8144B33F812300B8009
:108CF000002BDDD14FF0A043002A4FF08052C3F883
:108D0000082514BFC02160210023094A09480DF03D
:108D1000BFBB10B507480DF0FFFB4FF0A0434FF06D
:108D20008052C3F80C2510BD22300020FD2F0020FA
:108D3000A18C020000300020FE2F0020942F0400A0
:108D400030B4054D054A0648002423462C80C02136
:108D500030BC0DF09DBB00BF22300020A18C020072
:108D60000030002030B583B0054607F089FF08B118
:108D700003B030BD04461249284607F099FF002889
:108D8000F6D0284607F086FF8DF80740054607F025
:108D900077FF0028ECD128460DF1070108F066F8AE
:108DA0000028E5D0074B08491A789DF807300B706A
:108DB000072ADDD1072BDBD0FFF7C2FFD8E700BFC2
:108DC000A42F0400FD2F0020FE2F00204FF0A04311
:108DD000074910B44FF0805203240120C3F87047B4
:108DE000C3F80825C3F80C2508705DF8044B7047DC
:108DF00020300020704700BF054B064A1B781070DA
:108E0000072B00D070470728FCD0FFF799BF00BFA1
:108E1000FD2F0020FE2F002038B50E4B1A780AB126
:108E200000221A704FF0A043002403214FF080521B
:108E3000094DC3F870170948C3F808252146234691
:108E4000074A2C800DF024FB0648BDE8384002F0AC
:108E500001BB00BF20300020223000200030002065
:108E6000A18C0200F828002070B400B1C9B9EAB1A1
:108E7000E3B12349234C002002252570C1F84405A5
:108E8000C1F84805C1F83425C1F83835C1F81001DA
:108E90001B4B01220021C3F804111A61104670BC5B
:108EA000704700F06044B4F1005F02D0002070BC55
:108EB0007047AAB1A3B102F06044B4F1005FF5D1EC
:108EC000104D0F4C03262E700025C4F84405C4F83D
:108ED0004815C4F83425C4F83835C4F81851D7E714
:108EE000074B084C002201252570C3F84405C3F840
:108EF0004815C3F83425C3F83825C3F82021C7E73F
:108F0000003000402830002011490B78032B08D88E
:108F1000DFE803F0100217110E4AD2F82031002BBF
:108F2000FBD00C4A01235361D2F80431002BFBD053
:108F300000230B707047074AD2F81831002BFBD082
:108F4000EFE7044AD2F81031002BFBD0E9E700BF6D
:108F5000283000200030004038B5084B1B781BB18A
:108F6000074B01221A7038BD064D03F0FF040123A0
:108F70002B700EF029FE2C7038BD00BF273000206A
:108F800024300020263000200449054B00220A70BE
:108F9000197801B970471A700EF016BE27300020FC
:108FA0002430002030B50F4C237883B00BB103B0D0
:108FB00030BD03F0FF0141F00203ADF804100125BC
:108FC000094A8DF8063001A91F208DF8045015F0CC
:108FD000C3FD0028EBD129461F20257015F044FE63
:108FE00003B030BD25300020598F020010B5054C6C
:108FF000237803B910BD1F2015F0CAFE002323708B
:1090000010BD00BF253000201A4BD3F8002512F008
:1090100007022ED130B40B200C25C3F808054FF001
:10902000A041C3F80C550D204FF00055C3F81005B2
:10903000C3F82455FF204FF00075C3F8C005C1F8F0
:10904000085503204FF40065C1F86407C1F80C55BA
:109050004FF48055C1F82C07074CC1F80C55072573
:10906000C1F83007C1F83427C3F80055227030BC6E
:109070007047704700300040283000200E49D1F87A
:1090800000355B0717D030B44FF0A0430B480C4DB0
:1090900002220024C1F80045C3F86427C3F82C2736
:1090A000C3F83027C3F834272C700123046002680A
:1090B000036030BC7047704700300040FC3F004008
:1090C00028300020054BD3F82425B2F1005F1CBFE7
:1090D0004FF00052C3F82425704700BF0030004015
:1090E000054BD3F82425B2F1004F1CBF4FF00042CE
:1090F000C3F82425704700BF003000401D4B2DE908
:10910000F0414FF0A0440027C3F8007503254FF04D
:1091100000724FF40063184EC4F80825C4F8645771
:109120004FF48052C4F80C354FF08063C4F82C57CC
:1091300046F00106C4F80C254FF42070C4F83057EF
:10914000C4F83477C4F80C35C4F86857B0474FF00A
:109150000063C4F868772246C4F80835C4F86C5731
:10916000D2F810355B01FBD533464FF42070BDE8D3
:10917000F041184700300040D02F04004FF0A042CB
:10918000D2F810355B01FBD5024B4FF4207043F051
:1091900001031847D02F04002A4BD3F800355B0792
:1091A00040D0F0B583B031BB8DF80000022301251B
:1091B000254C227812B9254A012111704FF0A046A2
:1091C0004FF00077224AC6F80C751278FAB901AA56
:1091D00029466846FFF748FEC8B1FFF795FEC6F876
:1091E000087523780BB9FFF7CFFE02AB1D4415F8C5
:1091F000040C03B0F0BD40F040007F298DF8000062
:10920000CBB211D88DF8013002250323D0E74FF0FF
:10921000A0434FF00072C3F80825237873B1FF20F4
:1092200003B0F0BDFF20704763F07F03C9098DF8DC
:1092300001308DF8021004230325B9E7FFF7A4FEDF
:10924000EDE700BF0030004026300020273000202E
:10925000283000202D4BD3F800355B0745D0F0B502
:1092600085B051BB8DF8040003230125284C2278DA
:1092700012B9284A012111704FF0A0464FF0007733
:10928000254AC6F80C7512781ABB02AA294601A80D
:10929000FFF7EAFDE8B1FFF737FEC6F80875237857
:1092A0000BB9FFF771FE04AB1D4415F8073C15F828
:1092B000080C40EA032005B0F0BD40F040007F29D3
:1092C0008DF80400CBB213D88DF8053002250423A5
:1092D000CCE74FF0A0434FF00072C3F80825237885
:1092E00083B14FF6FF7005B0F0BD4FF6FF707047C9
:1092F00063F07F03C9098DF805308DF8061005234A
:109300000325B3E7FFF740FEEBE700BF0030004066
:10931000263000202730002028300020314BD3F8A1
:1093200000355B074DD0F0B585B091BB8DF80400DA
:10933000052301242C4D2A7812B92C4A01211170E1
:109340004FF0A0464FF00077294AC6F80C75127806
:109350005ABB02AA214601A8FFF786FD28B3FFF7F2
:10936000D3FDC6F808752B780BB9FFF70DFE04ABDB
:109370001C4414F8060C14F8071C14F8082C14F8F4
:10938000053C000440EA0120104340EA036005B0B8
:10939000F0BD40F040007F298DF80400CBB213D817
:1093A0008DF8053002240623C4E74FF0A0434FF0A8
:1093B0000072C3F808252B7883B14FF0FF3005B059
:1093C000F0BD4FF0FF30704763F07F03C9098DF89F
:1093D00005308DF8061007230324ABE7FFF7D4FD13
:1093E000EBE700BF0030004026300020273000208F
:1093F000283000202DE9F04F4E4CD4F800451E4691
:1094000063078BB07FD09146002953D101248DF89A
:109410000000A046484F3B7813B9484B01221A7010
:109420004C444FF0A043A4B24FF00072232CC3F879
:109430000C255BD8E5B2DFF80CA19AF80030002BC0
:1094400044D101AA2B4641466846FFF70DFD00288E
:109450003CD0641BA4B2A5EB080506EB050B44B990
:109460001EE0FFF701FDA4EB0903A0B19CB2CB44C1
:10947000B4B1FFF749FD9AF800C0FF2CA1460CF0EB
:10948000FF0128BF4FF0FF095A4608465FFA89F3EB
:10949000BCF1000FE5D022465846FF21FCF742FF01
:1094A000FFF732FD01AB2A4603EB0801304618F006
:1094B000E6FA10E040F040007F298DF80000CBB2C2
:1094C0002DD802248DF80130A046A3E74A46304645
:1094D000FF21FCF727FF4FF0A0434FF00072C3F8C5
:1094E00008253B78B3B10BB0BDE8F08F144DA5FB58
:1094F000043504EBD51505F0FF05A5F11303102B7A
:1095000088BF132597E73046FF21FCF70BFF0BB010
:10951000BDE8F08FFFF738FD0BB0BDE8F08F63F0CA
:109520007F03C90903248DF801308DF80210A0468D
:1095300070E700BF003000402630002027300020B8
:109540008180808028300020284BD3F800355B07CD
:1095500027D010B582B029BB60F07F008DF80400E1
:1095600002210123224C02A80344207803F8042C92
:1095700010B9204B01221A704FF0A0421E4B4FF041
:109580000070C2F80C051A7802F0FF03FAB14FF030
:10959000A0434FF00072C3F8082523789BB102B0B6
:1095A00010BD704760F03F007F298DF80400CBB2FA
:1095B00016D963F07F03C9098DF805308DF80610C0
:1095C00003230421CEE7FFF7DFFC02B010BD1A46EB
:1095D00001A8FFF749FC0028D9D0FFF795FCD6E792
:1095E0008DF8053003210223BCE700BF00300040A6
:1095F0002630002027300020283000202B4BD3F8C5
:1096000000355B072CD030B583B051BB60F07F00D4
:109610008DF8000003210223012002AD244C2844D0
:109620002B44257800F8082C120A03F8082C15B9E9
:10963000204B01221A704FF0A0421F4B4FF00070D8
:10964000C2F80C051A7802F0FF0302B34FF0A043F2
:109650004FF00072C3F808252378A3B103B030BDE2
:10966000704760F03F007F298DF80000CBB217D91A
:1096700063F07F03C9098DF801308DF802100423CF
:1096800005210320C9E7FFF77FFC03B030BD1A4670
:109690006846FFF7E9FB0028D8D0FFF735FCD5E78F
:1096A0008DF80130042103230220B6E7003000408A
:1096B000263000202730002028300020334BD3F8FC
:1096C00000355B0737D070B582B0A9BB60F07F0072
:1096D0008DF80000052104230320022401260DF14A
:1096E000080C664464442A4D06F8082C160A04F84F
:1096F000086C604463442C78160C120E00F8086C59
:1097000003F8082C14B9234B01221A704FF0A04221
:10971000214B4FF00070C2F80C051A7802F0FF03DD
:1097200012B34FF0A0434FF00072C3F808252B7816
:10973000B3B102B070BD704760F03F007F298DF873
:109740000000CBB219D963F07F03C9098DF801304D
:109750008DF8021006230721052004240326BEE706
:10976000FFF712FC02B070BD1A466846FFF77CFB9B
:109770000028D6D0FFF7C8FBD3E78DF801300621CB
:109780000523042003240226A9E700BF003000407F
:109790002630002027300020283000202DE9F0431B
:1097A000454CD4F8004564078BB031D0002946D130
:1097B00060F07F0401208DF80440014605463F4FCC
:1097C0003E7816B93E4C012626701544ADB24FF0D6
:1097D000A0424FF00074232DC2F80C451BD8ECB208
:1097E0002E469846761A01ABDFF8DC9032461844D4
:1097F000414618F044F999F8002002F0FF0382B3C3
:109800004FF0A0434FF00072C3F808253B788BB1AE
:109810000BB0BDE8F0832B4CA4FB052405EBD4145E
:1098200004F0FF04A4F11302102A8ABF132626466F
:109830003446D6E7FFF7A8FB0BB0BDE8F08360F035
:109840003F007F298DF80400CCB22FD9C90903202D
:1098500064F07F048DF806108DF80540014605463A
:10986000ADE701A81A462146FFF7FEFA0028C7D047
:109870002C1BA4B2B0443CB915E0FFF7F5FA641B09
:10988000A4B280B1A84474B1FFF73EFB99F8006020
:10989000FF2C254606F0FF0328BFFF2540461A4649
:1098A000E9B2002EE9D0FFF72FFBA9E702208DF8DF
:1098B00005400146054682E7003000402630002082
:1098C00027300020818080802830002072DF7047A0
:1098D00073DF704774DF704775DF704776DF70475E
:1098E0007ADF70477CDF70478ADF70478BDF704715
:1098F000A8DF7047AADF7047AEDF7047B1DF70475F
:1099000062DF7047038853B1B3F5AD7F03D182297D
:109910000AD00120704700230380032070474FF4D2
:10992000AD7303800120704710B40B4A0B4C2178B3
:109930001378994209D013781378013303F00703A1
:109940001370217813789942F5D14FF4AD730380E9
:109950005DF8044B01207047333900203439002072
:109960002DE9F047018886B00746002969D040F20A
:109970000123994258D13E4EDFF8F880B6F80248EC
:10998000B6F80038DFF8F4A0DFF8F490A34244D032
:1099900052D2C4F50062142A4CDC6542EDB2002DAF
:1099A000F4D0ADB2B8F80020ADF806504FF6FF7312
:1099B0009A4232D09AF800307BB36B1E132B2CD80E
:1099C0001022002102A8FCF7ADFC3444B9F800C015
:1099D000B8F8000005940DF10602012302A9ADF8C4
:1099E00008C004928DF80A30FFF786FFA8B9B6F8D0
:1099F0000248B6F804382C44A4B2B4F5006FA3EBC7
:109A00000505B6F80038A6F8024804BF0446A6F8D3
:109A10000208A342A6F80458BAD140F201233B80C1
:109A2000012006B0BDE8F08700230380032006B0C4
:109A3000BDE8F0871425B5E71D1B142DFADCEDB247
:109A4000ADE7082202A8FCF76DFC0A4A0A4B039313
:109A500010884FF0061302A90293FFF73DFF00287C
:109A6000DBD015F0E5FE40F201233B800120D8E772
:109A70002C310020222900200000FFFF003B0020A5
:109A80004039002070B51B4E3378834284B015D026
:109A90000546D3B9184B0FCB6C4607C423807DB164
:109AA000012D0BD1154B164A1A606846FF22194644
:109AB0009A80FFF719FF70B115F0BAFE04B070BDBF
:109AC00010480CF00BFF04B070BDFFF70FFF68B932
:109AD00000233370DEE70B4835700CF0CBFF002815
:109AE000ECD1014607480CF0D7FEE7E715F0A0FEE1
:109AF000EEE700BF033C0020D82F0400F03A00201E
:109B0000043B0020082900202DE9F043CE4D2B789E
:109B1000834299B00FD004465BB1CC4B18884FF606
:109B2000FF7398420AD01321FFF7D8FE60B90023D3
:109B30002B70012C0DD019B0BDE8F083C44B187800
:109B4000FFF7C8FE0028F2D015F072FE00232B703C
:109B5000EFE7C04C218809B3BF4C182200212046F2
:109B6000FCF7E0FB0121A02000232170A060224629
:109B7000BA49B7482375A381FFF7A8FE002840F033
:109B80004D81B34B01211878FFF7A2FE002840F069
:109B9000428101232B7019B0BDE8F083082206A88A
:109BA000FCF7C0FB4FF006124FF4202306A8CDE9C6
:109BB0000623FFF795FE002840F04281012341F67D
:109BC0000A061846A34A8DF80E3003A9ADF80C60BA
:109BD000FFF78EFE002840F0308142F6292301274E
:109BE000082200219E48ADF810308DF81270FCF765
:109BF00099FB1C22002111A8FCF794FB9DF844302E
:109C0000984E0DF1040843F0020303220021404660
:109C10008DF84430FCF786FB9DF80630142267F37C
:109C2000420300210CA811278DF80630ADF804700E
:109C3000FCF778FB04AB3046CDE90C3817F0A4FFF5
:109C40000023ADF838003046ADF83A3017F09CFFED
:109C50000CAAADF83C0011A9814B20881096FFF7A3
:109C600049FE002840F0E6807F4B0FCB18AF01265D
:109C700007F85D6D08AE86E80F0030463946FFF7FD
:109C80003FFE002840F0D380DFF8E8919DF80330D4
:109C900089F802309C236F4AA9F800304946012018
:109CA000FFF726FE002840F0BF8008220DEB0207D8
:109CB00000216E48FCF736FB384603220021FCF7F2
:109CC00031FB9DF80A30012666F3420341F2111C74
:109CD0001C22002111A88DF80A30ADF808C0FCF74D
:109CE00021FB9DF8443099F802001697002743F0B5
:109CF0001003394640F66C0C03228DF816004046DE
:109D00008DF844301297CDE914771797ADF814C049
:109D1000FCF708FB9DF804009DF806309DF805C08F
:109D200066F3030066F3420366F3071066F3030C61
:109D300003F0E703394666F3071C334314228DF81A
:109D400004000CA80DEB02078DF805C08DF8063055
:109D5000FCF7E8FA4FF0140C444B20880E960CAA3E
:109D600011A9CDE90C78ADF83CC0FFF7C3FD002880
:109D700057D11C22002111A8FCF7D4FA9DF84430D9
:109D800099F802208DF81620002643F00C0340F2CB
:109D90003A3C3146032240468DF84430ADF814C0B9
:109DA0001296CDE91466CDE91666FCF7BBFA9DF86C
:109DB00004209DF805009DF806304FF0010969F375
:109DC000030269F3030069F3420369F3071269F3BD
:109DD000071003F0E70343EA090331468DF8042036
:109DE0008DF8050014220CA88DF80630FCF79AFABD
:109DF00020881F4BCDF8389014240CAA11A9CDE966
:109E00000C78ADF83C40FFF775FD00283FF4A4AE98
:109E100015F00EFDA0E615F00BFD8CE615F008FD23
:109E2000AFE615F005FDA4E715F002FD3DE715F0DE
:109E3000FFFC29E715F0FCFC16E715F0F9FCCCE671
:109E400015F0F6FCBAE600BF3239002022290020C6
:109E500020290020043C00205839002048390020E7
:109E6000F83A0020F82F0400E82F040040390020C1
:109E7000383900202429002038B503881D2B76D0DE
:109E800006D9522B1ED0572B65D0502B27D038BD6A
:109E9000102B51D0112BFAD14C4B4D4C18784D4909
:109EA0004FF6FF750022012825800A7000F0878098
:109EB00049480CF0DFFD0028E9D04748BDE83840AC
:109EC0000CF00CBD424A0023108819461A46FFF7D1
:109ED00015FD0028DBD0BDE8384015F0A9BC3F4A8D
:109EE000C38892889A4259D03D4A12889A42CED16C
:109EF000048AE4B13B4DB5F8FE20F92A17D8144482
:109F0000A4B21130B5F8FA3001E0FA2A0BD010F8FB
:109F1000011FE95401339BB20132FA2B92B228BFE0
:109F20000023A242F1D1A5F8FA30A5F8FE202E4870
:109F3000BDE838400CF090BD254B81882B4A198034
:109F40000023C2F80038A2F8043819462248BDE8B8
:109F500038400CF0A1BC254BB3F80228B3F8003808
:109F60009A4294D01C48BDE838400CF075BD037A85
:109F70001B070DD41E4A1F4913780978013303F0DB
:109F800007038B4204D01C48117813700CF064FD59
:109F90001A490020BDE83840FFF7A6BC028A022A11
:109FA000A2D1123016F0ACF968B1104B0949002269
:109FB0000120C3F80028A3F80428087038BD1A70DF
:109FC000FFF7A2FD74E7034B187038BD323900204B
:109FD00022290020003B00201429002040390020C5
:109FE000383900202C300020782900202C31002026
:109FF000343900203339002008290020F03A0020AD
:10A000000B4BB3F8FE2082B1B3F8FC00411C89B2BF
:10A01000013AFA29A3F8FE2008BF0022185C14BFF9
:10A02000A3F8FC10A3F8FC2070474FF0FF307047F6
:10A030002C30002043F20C031888704730B50228FA
:10A04000A1B014D00428044609D008B121B030BD15
:10A05000FFF75AFD2046FFF715FD21B030BD002067
:10A06000FFF752FD0120FFF70DFD21B030BD0020AC
:10A0700020ACFFF707FD002304F87C3D214817F0D2
:10A0800083FD204982B22046FFF72CFC002836D100
:10A090001D4C3C22002102A8FCF744F922467F23F4
:10A0A00022F8043F022319498DF8083006250023C1
:10A0B00002A821608DF80B508DF80A3015F044FF8E
:10A0C000D0B93C22002111A8FCF72CF9012310493A
:10A0D000104DADF85430104AA160FF2311A8169519
:10A0E000A38115F031FF20B90120FFF70DFD21B04C
:10A0F00030BD15F09DFBF7E715F09AFBE1E715F091
:10A1000097FBC5E710300400483900207039002063
:10A11000F03900202429002054390020064B1B78F8
:10A12000012B06D0054B1B78012B0CBF0220002011
:10A1300070470420704700BF033C002032390020E4
:10A14000184B1B7853B351B3F0B4174CB4F8042830
:10A1500040F2FE739A421DD80144013901380027AC
:10A1600040F2FF7601E0B24214D0B4F8003810F8A3
:10A17000015FE55401339BB2B3F5006F02F10102B8
:10A1800092B2A4F8003828BFA4F800788142A4F85D
:10A190000428E8D10548F0BC0CF05EBC70470348C9
:10A1A0000CF05ABC003B00202C3100201429002068
:10A1B000F8B5294B294DD3F804452B68284A294F77
:10A1C00016682949DFF8B8C0E31A23F07F43C3EBD0
:10A1D000431003EB80003044106010681668C6F32B
:10A1E000080616603E68400A06443E600F681F4E2F
:10A1F000384408600A680F68ACFB020292094FF409
:10A200007A7000FB1270086031681948194F0A44CF
:10A210003260026818491344036002683B6803EB2C
:10A2200012133B60036803F00F03036022461032F1
:10A230000A40131B23F07F43012BF8D9012300218F
:10A240000E482C6014F000FF0CF064FA00B9F8BD61
:10A25000BDE8F8400CF030BA00100140083C002086
:10A26000183C0020143C0020203C00201C3C002016
:10A27000103C00200C3C0020F0FFFF0038300400B0
:10A28000D34D621000B1704710B50446FFF790FF40
:10A29000014B1C7010BD00BF243C0020014B1878FE
:10A2A000704700BF063C002015F030BA70B500239F
:10A2B0000E4E0F4D3370184615F034FAD5F804459C
:10A2C0002834A4B204E0D5F804351B1B1B0405D5C3
:10A2D00015F090FA0028F6D001233370044BBDE846
:10A2E0007040D3F8043515F059BA00BF063C002081
:10A2F0000010014070B52148214E224D224C2349C7
:10A30000234A002382B033602B60236003600B601C
:10A31000136015F06DF950B3002015F079F91D4B5D
:10A320001D4C1E4A93E8030000230090ADF8041072
:10A330001B482370694614F035FE08B115F078FA11
:10A34000184C1949194A164801232360D1F80415FD
:10A3500011601268103222F07F42002114F074FE66
:10A360000F4814F065FEFFF7A1FF02B070BD15F0B5
:10A3700045F90028D0D015F05BFACDE7143C002059
:10A38000103C00200C3C0020183C0020203C002009
:10A390001C3C002020300400243C002085A2020048
:10A3A000383004000810014000100140083C002033
:10A3B000014B1868704700BF0C3C0020014B186827
:10A3C000704700BF1C3C002010B483B0EFF3108333
:10A3D000B3FA83F35B09019372B60D4B0D490E4836
:10A3E0000E4AD3F80435096800681268019C04B16C
:10A3F00062B65B1A23F07F43C3EB431103EB810387
:10A40000134400EB532003B05DF8044B704700BFCA
:10A4100000100140083C0020143C0020183C0020A3
:10A4200020B1034B800143F001031847704700BF80
:10A4300030300400024BD3F8040580B2704700BFEF
:10A4400000100140704700BF08B50949094815F0E0
:10A4500001F848B9084815F03BF808B115F0E8F9DB
:10A46000064B01221A7008BD15F0E2F9F2E700BFB1
:10A4700045A4020040300400253C0020263C00207A
:10A48000024B1B7803B9704715F014B8263C002026
:10A49000034B1B7803B97047024B187815F044B88A
:10A4A000263C0020253C0020BFF34F8F0549064B7A
:10A4B000CA6802F4E0621343CB60BFF34F8F00BF62
:10A4C000FDE700BF00ED00E00400FA0534DF70474F
:10A4D00035DF704700B583B00023019315F0FEFB14
:10A4E00020BB4FF080434FF0FF31D3F80024C3F876
:10A4F000001413490B785AB943F0010362F3410386
:10A5000062F3820362F3C3030B7003B05DF804FBD4
:10A51000500803F0FE0360F34103900860F38203E8
:10A5200062F3C3030B7003B05DF804FB01A8FFF7EF
:10A53000CDFF4FF0FF30FFF7CBFF019AD9E700BF07
:10A54000283C002008B515F0C9FBFFF7ADFF00BFA0
:10A550006CDF7047F0B54FF08043012285B0C3F83F
:10A56000782515F035FB002840F0918004AC0023DD
:10A5700044F8083D0120214615F000FC002840F079
:10A580008380204615F056FC08B115F051F9FFF70D
:10A59000A1FF00F089F93F4AD2F8883043F47003F4
:10A5A000C2F88830BFF34F8FBFF36F8F14F0CAFA31
:10A5B000002866D0FFF79EFEFFF746FF0CF094F9E7
:10A5C000002135480CF068F90BF04EFFFFF758FFFB
:10A5D00000200CF07BFB0BF0E5FEFFF72BFF2F4A72
:10A5E0002F4B108001221A7000F070FD00F09EF8D1
:10A5F00007F08AFD00283DD015F070FB70B904F01B
:10A60000B9FA04F00BFF0EF01DF80EF015F818B9AA
:10A6100040F2012006F0A6FC05B0F0BD002568461A
:10A6200002950095C4F80350ADF8045007F0E4FC1F
:10A630009DF808309DF805209DF804709DF8036092
:10A640008DF8092065F347039DF802109DF801205D
:10A650008DF8083020469DF800308DF80A708DF88E
:10A660000B608DF80C108DF80D208DF80E30FFF773
:10A670006FFFC4E74FF08053D3F8A40007F0CCFC81
:10A68000BAE714F019FA95E715F0D2F879E715F062
:10A69000CFF86BE700ED00E0FC2A0020549C00207E
:10A6A000489C002030B583B000F036F9013036D038
:10A6B00000F032F9054600F035F91A4C28444838C4
:10A6C0000135206004D00422174917F0C9F940B1C0
:10A6D000002340F20230236003B0BDE8304006F0B2
:10A6E00041BC23681A79122AF2D15A79012AEFD192
:10A6F000D87C997C5A7C1B7C8DF804008DF8051061
:10A700008DF806208DF80730019D00F00BF9A84266
:10A71000DED123685B6C002BDAD003B030BD00F0D3
:10A72000C3F8C5E72C3C00204C30040070B5264C23
:10A73000236882B0002B3FD000F0EEF8054600F011
:10A74000F1F8064606F0CCFC311F0246284606F01A
:10A75000CBFC06F0DFFC236893F8474093F84610E3
:10A7600093F8452093F844308DF804408DF8051097
:10A770008DF806208DF80730019B834203D040F20C
:10A78000023006F0EFFB00F0BBF8044600F0BEF824
:10A79000054606F0A5FC29460246204606F0A4FC24
:10A7A00006F0B8FC094B98420BD040F2013002B0E1
:10A7B000BDE8704006F0D6BBFFF774FF2368002B9E
:10A7C000BAD102B070BD00BF2C3C0020FCB2B4E492
:10A7D00029DF704728DF704738B5FFF72BFE00F5FB
:10A7E000005084B2064D04E0FFF724FE001B030472
:10A7F00004D52B78002BF7D1012038BD002038BDBF
:10A80000393C002002280BD0032808D1094B1A78C4
:10A8100022B109490220002208701A70704770475F
:10A82000044B1A78002AF9D0034900220A701A70E2
:10A83000704700BF393C002034290020F8B5054698
:10A840000E46174615F04AFA88B1154B3A4631467E
:10A85000284601241C70FFF7BBFF0938082816D8CA
:10A86000DFE800F00D1515151515110D1100044642
:10A870003A462846314615F02FF92046F8BD002209
:10A880001A700120F8BD00221A700220F8BDFFF7EF
:10A89000A3FF10B1034B1878F8BD0320F8BD00BF2B
:10A8A000393C0020342900200D4A1178B9B90D4BEC
:10A8B0000D4870B40D4D0E4C0E4E1B0B2B6000F668
:10A8C000FF7503EB153323600B4D0C4C30600123F7
:10A8D0004FF4183029602060137070BC70477047C7
:10A8E000383C0020006002008CE301002829002091
:10A8F00030290020303C00202C290020343C00204E
:10A90000014B1868704700BF2C290020014B1868C4
:10A91000704700BF343C0020014B186800037047AB
:10A9200028290020014B1868704700BF303C0020E8
:10A93000034A044B10681B68C01A0003704700BF2D
:10A940003029002028290020014B18680003704797
:10A9500030290020034B1868C0EB0050000300F5BD
:10A96000FC2070473029002038B51C4B1B688342FF
:10A9700001D87F2801D9012038BD044615F0AEF971
:10A980000546A0B1164B1A78B2B9012220461A70BA
:10A99000FFF720FF03380E2818D8DFE800F00F1764
:10A9A000171717171717171717170F130F0020036D
:10A9B00015F07AF8284638BD022038BD00221A70FA
:10A9C000022038BD00221A70012038BDFFF704FFB5
:10A9D00010B1044B187838BD032038BD3029002051
:10A9E000393C00203429002010B50D4B1B6882B083
:10A9F000B0EB033F019110D30A4B98420DD80446A7
:10AA000015F06CF910B1084B1B7833B920460122C0
:10AA100001A9FFF713FF02B010BD022002B010BD64
:10AA200030290020FCFF0700393C0020531EB3F5FD
:10AA3000805F13D22DE9F041444B1B68B0EB033F1C
:10AA4000ADF5806D054604D31318B3F5002F1446F9
:10AA500006D901200DF5806DBDE8F0810120704719
:10AA60000E4615F03BF920B1394B1B780BB1022093
:10AA7000F0E715F003032DD1B20701D1A3074AD0A7
:10AA80006F4613E031464FF48062384616F0F7FF08
:10AA900028464FF480723946FFF7D0FEA4F5806453
:10AAA00006F5806605F580650028D3D1B4F5806F82
:10AAB000E8D8A308314655F8232047F82320384624
:10AAC000224616F0DCFFE21C920839462846FFF7C2
:10AAD000B5FEBFE703F1030825F00305A0446F4668
:10AAE0004FEA98082A683A60B8F5807F07EB0300C0
:10AAF00017D805EB880C08F1FF33224631465CF885
:10AB0000044C47F8234016F0BAFF4246394628461F
:10AB1000FFF794FE9EE7A20831462846FFF78EFE17
:10AB200098E7C3F580684246314616F0A8FF4FF417
:10AB3000807239462846FFF781FE00288AD1B4EB9F
:10AB40000804464405F58065B0D190E7302900201F
:10AB5000393C002008B58B18B3F5002F01D901202E
:10AB600008BD16F08CFF002008BD00BFA1B101395F
:10AB700038B589B2051D044605EB810501E0AC42FC
:10AB800008D020460021FFF72FFF04340028F6D01C
:10AB9000002038BD012038BD0120704738B56FF066
:10ABA0007F4399420C46054603D0FF2910D0002070
:10ABB00038BD006803680133F9D1FFF715FF00289D
:10ABC000F5D12B681868001BB0FA80F0400938BD39
:10ABD0000068FFF709FFB0FA80F0400938BD00BFF8
:10ABE00030B40B78DB43DBB2082203F001045B08CE
:10ABF0000CB183F01D03013A12F0FF02F5D18C78FD
:10AC00000822634003F00104013A5B0814B183F0A9
:10AC10001D03DBB212F0FF02F4D1CC7808226340AE
:10AC200003F00104013A5B0814B183F01D03DBB2A9
:10AC300012F0FF02F4D14D880468EA1C921001EB77
:10AC4000820294421AD2806820F003000444A24297
:10AC500014D20C1D2544AC4210D014F8010B08226C
:10AC6000434003F00100013A5B0810B183F01D037B
:10AC7000DBB212F0FF02F4D1AC42EED14878C01A38
:10AC8000B0FA80F0400930BC704700BF002838D0CF
:10AC900070B58368D0E900649A08013A23F0030391
:10ACA0000546C46002611E44B4422146284615D2BE
:10ACB00023685A1C19D09BB1FFF792FF98B16388A3
:10ACC0002A6903339B10013304EB8304B442A2EBE3
:10ACD0000303C5E9034321462846E9D3012070BD9B
:10ACE0000434EC60E0E7002070BD043402E01B682F
:10ACF0000133F8D1A642234604F10404F7D8012019
:10AD0000EDE70020704700BF2DE9F04F40F203301F
:10AD100083B006F027F9FFF7BBFB674B674918685C
:10AD2000DFF89CA100220A600268FF2A00F09E80E2
:10AD3000DAF80070D3F808C03968FF2900F09E8067
:10AD40005FEA9C0E63D0002319461C461D4601E0B5
:10AD500050F82320AE00013A0332BA5998BF0134AB
:10AD600002F1FF3203F1010398BFA4B203329BB298
:10AD70009CBF013189B273451D46E9D38C4246D947
:10AD8000DAF808C0DFF83081DFF834A13846B0FBCC
:10AD9000FCF0FFF7E9FDDAF80820DAF8003022F0DD
:10ADA00003021A4493420CD2196801312CD10433A6
:10ADB00002E00968013127D19342194603F10403E7
:10ADC000F7D3FFF765FBD8E90145DAF80490D8F826
:10ADD000002025F0030553199C420ED227687B1EE4
:10ADE000033306D8214640460192FFF7F9FE019A47
:10ADF00090B9043453199C42F0D3FFF749FB5046F5
:10AE0000FFF744FF002844D103B0BDE8F08FDFF81E
:10AE1000B080DFF8A4A0BAE7B4F802B00BF1030BDE
:10AE20004FEAAB0B0BF101030193261D4FF0000B12
:10AE300001E056F8047B48463946FFF7D5FD0BF193
:10AE4000010B344609F104090028DDD1D8F8085077
:10AE5000019BD8F8002025F003055B4502EB0501B6
:10AE6000B9D98E42E5D303B0BDE8F08FDAF80070AF
:10AE70003968013108D0D3F808C061E7511C7FF46C
:10AE80005FAFD0469A4682E738469846DAF808C05F
:10AE90007DE76FF07F415046FFF780FE0028B3D07A
:10AEA000D8F80830D8F80000B0FBF3F0FFF75CFDED
:10AEB000024BC3F800A0A7E7382900203C3C002043
:10AEC0004C29002030B370B48468D0E9005224F0DB
:10AED00003042C440020944214D913685E1C11D042
:10AEE00093B15388167803339B10013302EB83032D
:10AEF0008E4208BF10469D4208D29C4206D91A468F
:10AF00009442EAD870BC70470432E4E79C42E2D134
:10AF100070BC7047704700BF38B5184D18482C6892
:10AF20000268236811686FF07F4293421DD09142FE
:10AF30001AD001331BD1013119D1A86820F00301C7
:10AF400021448C4209D2231D02E01268013210D143
:10AF500099421A4603F10403F7D86FF07F4107487E
:10AF6000FFF71CFE18B1054838BD9942FBD10020FF
:10AF700038BDB4FBF0F0FFF7F7FCEEE7382900200E
:10AF80004C29002010B50A4C23680BB1012010BDDC
:10AF9000FFF7C2FF206018B1FFF778FE0028F5D157
:10AFA000FFF7B2FE2068003018BF012010BD00BFBF
:10AFB0003C3C0020424B98422DE9F0476BD0414A7F
:10AFC000904203D000242046BDE8F087984607460B
:10AFD000FF210068FFF708FD0028F3D1D8F80850DA
:10AFE000D8F8000025F003010144884216D2036816
:10AFF000013353D1031D1A4602E0246801344DD1B8
:10B000009142144602F10402F7D802E012680132BC
:10B01000D8D18B421A4603F10403F7D3D8F8045071
:10B020004FF0000A5FFA8AF13846FFF74BFFA0B1F4
:10B03000B0F8029009F103094FEAA90909F10109E1
:10B04000061F0024284656F8041FFFF7CDFC0134E4
:10B0500004350028B6D1A145F4D80AF1010ABAF5A1
:10B06000807FDFD1184D002340462B60FFF70EFE96
:10B070000028A7D06FF07F414046FFF78FFD0446C0
:10B0800000289FD03868BB68B0FBF3F0FFF76CFC7A
:10B09000C5F8008097E7DFF82C8098E7B0FBF5F063
:10B0A000FFF762FCD8F80810D8F8000021F003017F
:10B0B00001448842B2D20368013383D1031DA8E75B
:10B0C000382900204C2900203C3C002038B50D4C8C
:10B0D000FFF758FF237873B10B4B186858B183689A
:10B0E0000268D0E9035123F0030313445B1BA1EB77
:10B0F000A301994200D838BDFFF75CFF00232370FD
:10B1000038BD00BF352900203C3C00202DE9F04F20
:10B110009E4F3B6887B0002B00F0D9801646002A6E
:10B1200000F0D5808146D01C0C46801091084FF06D
:10B13000000A013A0130890092B2DB68019055465D
:10B1400002910392B0460093002D40F0CE80D7F8D4
:10B1500000B049465846FFF7B5FE0135EDB28246CC
:10B1600018B14388434500F0DE80DBF80820DBF8A7
:10B170000030DBF80C0022F003021344019A1B1A82
:10B18000B2EBA30F16D9DBF810309A4200F29F8081
:10B19000022D00F09C805846FFF70CFF002800F0BD
:10B1A0009680D7F800B049465846FFF78BFE824696
:10B1B000DBF80C006FEA0903DBB2082203F001019F
:10B1C0005B0809B183F01D03013A12F0FF02F5D1CB
:10B1D00083EA0803DBB2082203F001015B0809B12E
:10B1E00083F01D03013A12F0FF02F5D183EA182320
:10B1F000082203F001015B0809B183F01D03013A45
:10B2000012F0FF02F5D104EB080C2146614510D085
:10B2100011F8012B5340082203F00106013A5B08A4
:10B2200016B183F01D03DBB212F0FF02F4D16145C9
:10B23000EED18DF814908DF81530ADF81680059983
:10B24000FFF7D2FB002846D13B68D3E90312043153
:10B25000013AC3E90312029B04EB030B5C4510D0D7
:10B260003B682168D868FFF7BFFB0028F8D13B682E
:10B27000D3E9031204340431013A5C45C3E90312F3
:10B28000EED108F00303022B7AD0032B61D0012BFF
:10B2900074D0BAF1000F0CD0BAF802400334A410F5
:10B2A000013450462146FFF761FC3A681369234494
:10B2B0001361012007B0BDE8F08FD7F800B0DBF8CC
:10B2C0000C30022D03F10403CBF80C305AD10020CE
:10B2D00007B0BDE8F08F3B68002BF8D0DB68DDF8E5
:10B2E00000A00093002D3FF432AF009BA3EB0A03B4
:10B2F0009B109AB24FF6FF718A42DED00AF1040623
:10B3000006EB8206D34601E05E45D6D058460021C2
:10B31000FFF76AFB0BF1040B0028F5D00020386022
:10B3200007B0BDE8F08F21780379994200F104025B
:10B330007FF41BAF0399234601EB040C06E013F8DE
:10B34000010F12F8011F88427FF40FAF9C45F6D120
:10B35000AFE7A3781B04627843EA022321783A68B6
:10B360001943D068FFF740FB0028B4D13B68D3E90C
:10B3700003120431013AC3E903128AE70023EDE71F
:10B380000023E8E7CDF800A0E3E600BF3C3C002046
:10B3900038B50F4B1B68CBB10C4601461846154615
:10B3A000FFF790FD034688B14088A84228BF284691
:10B3B00058B11D1D421E611E033315FA82F413F8A5
:10B3C000012F01F8012FA342F9D138BD184638BD2D
:10B3D0003C3C002070B50D4E3368ABB105462946A4
:10B3E0001846FFF76FFD78B144880334A410013488
:10B3F0002146FFF7BBFB306803691C440461294602
:10B40000FFF760FD0028EFD170BD00BF3C3C00207D
:10B4100008B5084611460EF0F9FC002008BD00BF33
:10B4200008B509480BF026FB50B9084B1A6842B121
:10B43000002105480BF030FABDE808400EF0E4BCEE
:10B4400008BD034A1A60F3E778290020A43E0020D3
:10B45000682900200B4B1A688AB178B11A689042AB
:10B460000CD013681BB905E01A6822B11346984244
:10B47000FAD1704713460022186002607047024AF2
:10B480001A60EAE7A43E0020682900200B490A68F8
:10B4900052B1824213680CD033B19842196804D07B
:10B4A0001A460B46002BF8D1704700231160036049
:10B4B000704700200B601060704700BFA43E002062
:10B4C00030B5030983B00A4D044602A8EB5C00F8CE
:10B4D000013D012104F00F040EF098FC02A82B5D41
:10B4E00000F8023D01210EF091FC03B030BD00BF19
:10B4F0008C32040030B5030983B00A4D044602A81B
:10B50000EB5C00F8013D012104F00F040EF07EFC1D
:10B5100002A82B5D00F8023D01210EF077FC03B07C
:10B5200030BD00BF7C32040000B583B002AB012106
:10B5300003F8010D18460EF069FC03B05DF804FB3A
:10B5400010B5044616F020FB00B910BD0146204698
:10B55000BDE810400EF05ABC0FB400B583B004AA89
:10B56000054852F8041B019204F0AAFB03B05DF8F1
:10B5700004EB04B0704700BF6029002030B5184BC1
:10B580001A7883B0044602BB204605F07FFB03789F
:10B59000054633B1134B1C6844B929461248FFF7DE
:10B5A000DBFF03B030BD2468002CF6D0616828466C
:10B5B00005F07EFB0028F6D0E468002CF1D0284688
:10B5C00005F068FBA04703B030BD02A80A2200F8CE
:10B5D000012D012100221A700EF018FCD4E700BFE3
:10B5E000403C0020A43E0020743004002DE9F041CE
:10B5F0000388B3F5907F044625D040F2271293428A
:10B6000019D023B1002303800320BDE8F081384D19
:10B61000384A394939482B60394D13700B701A4636
:10B62000852100682B700BF0EBF94FF490732380A9
:10B630000120BDE8F08182290AD040F2271323803F
:10B640000120BDE8F0818529F7D00120BDE8F08117
:10B65000284D294FDFF8B8800EF0D2FB0028ECDB34
:10B660002B781BB100230A282B70F5D00A283B78D1
:10B670000FD023DD0D280AD07F2821D1002BEBD15C
:10B680001B4E3368002BE7D0013B3360E4E7012217
:10B690002A700BB31B48164EFFF75EFF00233B706A
:10B6A00098F800300022032B3260D5D0414616486E
:10B6B000FFF752FF124B01221A70CDE70028E8D0A5
:10B6C000002BC9D10A4E3368B3F5167F0CD20F494F
:10B6D0005A1CC8543260BFE7054E0C493268084610
:10B6E0008B54FFF74BFFDBE701233B70B4E700BF50
:10B6F000A03E0020A83E0020A93E00206077002048
:10B70000403C0020503004006C300400443C0020D9
:10B710008429002030B5134883B0FFF71DFF124B7A
:10B720001C68D4B109256068FFF70AFFA3680121EE
:10B730000DF1060033B18DF806500EF067FBA068DE
:10B74000FFF7FEFE0A2301210DF107008DF80730F7
:10B750000EF05CFB2468002CE5D10448FFF7FCFEEA
:10B7600003B030BD8C300400A43E0020D83004006B
:10B770000FB400B583B004AA054852F8041B019227
:10B7800004F09EFA03B05DF804EB04B0704700BF0C
:10B7900060290020114B1A6802F2FF12C2F34F22F7
:10B7A000D2B10F490B78FF2B4FF0000004D007E017
:10B7B00011F8013FFF2B03D108308242F8D87047BF
:10B7C000D90707D501E0D90705D5013082424FEAF4
:10B7D0005303F8D87047704710467047803F0020E9
:10B7E000C83E002008B5102200210548FAF79AFD4E
:10B7F000802200210348BDE80840FAF793BD00BF4E
:10B80000AC3E0020C83E0020F0B5ADF5017D0D46F0
:10B81000064605F065FC074635B919E0684605F0AF
:10B8200063FC264407469DB1B5F5007F2C4628BF32
:10B830004FF40074224631466846FFF78BF92D1B02
:10B840003A4621460028E9D000200DF5017DF0BDE3
:10B85000384605F05FFC0DF5017DF0BD70B5314C4B
:10B860002378062B05D8012202FA03F313F07B0F8D
:10B8700018D12D4DFFF78EFF2B6803F2FF13C3F392
:10B880004F2398420FD2294B1B780BB3284D2968C0
:10B89000A9BB032525700023264A2748BDE8704030
:10B8A0000AF0F6BD70BDFFF74FF8296819BB234BAE
:10B8B0001B688B4216D005232370FFF793FF0023EC
:10B8C0001C4A1D484FF42061BDE870400AF0E0BDFD
:10B8D00004212170174A18484FF47051BDE8704098
:10B8E0000AF0D6BD0623144823700AF015FEBDE801
:10B8F0007040FCF7F9B8FFF787FF0146D7E70BF078
:10B90000CBF92B68032B00F00701C2D9082B02D812
:10B9100001F58071BDE70D2B94BF01F5407101F574
:10B920002061B6E7513F0020803F0020503F0020BB
:10B93000743F002041B90200543F0020783F0020AE
:10B940002DE9F0414C4C2278062A86B011D801230B
:10B95000934013F0430510D113F0280F10D1DB06EC
:10B9600007D5464A13684FF6FE718B4201D8013362
:10B97000136002232370FFF771FF06B0BDE8F0816A
:10B980003F4E3378002BF4D0FFF704FF3D4B1B688C
:10B9900003F2FF13C3F34F2387B29F428046E8D2DE
:10B9A00003F0B2FC384B394A1B68126831788DF8C5
:10B9B0000330C3F30724C3F30740C3F307638DF8D1
:10B9C00000300223C7F307278DF80240C2F3072691
:10B9D0008DF80100C2F30744C2F3076099428DF865
:10B9E0000B808DF80A708DF807208DF806608DF8B1
:10B9F00005408DF80400ADF808301BD006F00EFCB1
:10BA000010220C23ADF80E20ADF80C00CDF810D0AC
:10BA1000ADF8143003F002FC03AA4FF43E7106F0B7
:10BA200041FE0028A9D003F0F3FB2946184807F08F
:10BA30007BF8A2E706F0F2FB10220C23ADF80E20F3
:10BA4000ADF80C00CDF810D0ADF8143003F0E6FBE3
:10BA500003AA4FF43E7106F0C7FD00288DD003F015
:10BA6000D7FB0C491B2003F0C5FC0B4B08489B6817
:10BA70002946984781E700BF513F0020743F0020CE
:10BA8000503F0020803F00207C3F0020783F002076
:10BA90009DBA0200483F00204831040010B40F4C0A
:10BAA0002278062A05D8012303FA02F212F0430F86
:10BAB00010D129B1022323705DF8044BFFF7CEBEED
:10BAC0000B4604212170064A06485DF8044B4021CC
