:0400000340004C115C
:020000040002F8
:1060000000000120114C0400394C04003B4C0400FA
:106010003D4C04003F4C0400414C040000000000D3
:10602000000000000000000000000000434C0400DD
:10603000454C040000000000474C0400494C04009B
:10604000B14E0400712B04002DF903004B4C0400E9
:10605000B54804004B4C040051320400E5390400FB
:106060004B4C040099380400AD3804004B4C04003C
:106070004B4C0400254D04004B4C04004B4C0400D9
:10608000C5380400893504004B4C04004B4C040017
:106090004B4C04004B4C0400E14B04004B4C0400FF
:1060A0004B4C04004B4C04004B4C04004B4C040084
:1060B0004B4C04004B4C04000000000000000000AA
:1060C0004B4C04004B4C04004B4C04004B4C040064
:1060D0004B4C04004B4C04004B4C040000000000EF
:1060E00000000000000000000000000000000000B0
:1060F00000000000000000000000000000000000A0
:10610000000000000000000000000000000000008F
:10611000000000000000000000000000000000007F
:10612000000000000000000000000000000000006F
:10613000000000000000000000000000000000005F
:10614000000000000000000000000000000000004F
:10615000000000000000000000000000000000003F
:10616000000000000000000000000000000000002F
:10617000000000000000000000000000000000001F
:10618000000000000000000000000000000000000F
:1061900000000000000000000000000000000000FF
:1061A00000000000000000000000000000000000EF
:1061B00000000000000000000000000000000000DF
:1061C00000000000000000000000000000000000CF
:1061D00000000000000000000000000000000000BF
:1061E00000000000000000000000000000000000AF
:1061F000000000000000000000000000000000009F
:1062000010B5054C237833B9044B13B10448AFF3F0
:1062100000800123237010BD082E00200000000024
:106220006C88040008B5034B1BB103490348AFF366
:10623000008008BD000000000C2E00206C880400C7
:10624000154B002B08BF134B9D46A3F5803A002148
:106250008B460F461348144A121A00F063F80F4B8E
:10626000002B00D098470E4B002B00D09847002001
:10627000002104000D000D48002802D00C48AFF3A7
:10628000008000F02BF82000290004F035FB00F01E
:1062900011F800BF0000080000000120000000000D
:1062A00000000000082E0020F493002000000000F1
:1062B0000000000008B5074B044613B10021AFF3FE
:1062C0000080054B1868836A03B19847204600F0A8
:1062D00031F800BF000000003471040070B50D4EAD
:1062E0000D4CA41BA4100025A54209D10B4E0C4C4B
:1062F00020F014FFA41BA4100025A54205D170BDF9
:1063000056F8253098470135EEE756F8253098477E
:106310000135F2E7FC2D0020FC2D0020FC2D002093
:10632000002E002002440346934200D1704703F838
:10633000011BF9E7FEE700BF38B50D4B1B78062BB4
:106340000FD00C4B197859B14FF47053B3FBF1F1E6
:10635000094C0A4B25680A48236015F003FF2560A5
:1063600038BD084B1B881902002BF1D138BD00BF86
:10637000F42B0020562E0020247A002070280020C4
:106380006C2E0020582E002008B512F08BFE0C4B0E
:106390001B78062B07D8012202FA03F313F0760FBD
:1063A00002D11B0708D408BD002814BF0320022017
:1063B000BDE8084004F01ABCBDE8084004F016BC73
:1063C000F42B002038B5074B1B78062B00D038BDC6
:1063D000054C064B256806482360002115F0C2FED7
:1063E000256038BDF42B0020247A0020702800207E
:1063F0005C2E002001B1704708B505F04BFC014B45
:10640000186008BD6828002010B5244B1B78062BA7
:10641000044602D0437C9B0639D41222002120205E
:1064200012F02CFF00B910BD10F0C0FA236883727F
:10643000C3F30721C3F30742C3F307634172027238
:10644000C37163688373C3F30721C3F30742C3F3C4
:10645000076341730273C372A3688374C3F3072194
:10646000C3F30742C3F3076341740274C373A38980
:10647000C374237E0375002181754175237CC37528
:10648000637C0376BDE81040054813F047B900204F
:1064900012F08AF90028C0D110BD00BFF42B0020F3
:1064A000C563020008B5124B1B78013B052B11D8C0
:1064B000DFE803F00B08030B08030120BDE80840E8
:1064C00018F054BD12F0B0F928B10020BDE8084022
:1064D00018F04CBD08BD074818F0F0FD18F0CCFDD1
:1064E0000228F7D00320BDE8084018F03FBD00BFE8
:1064F000F42B002055CE0200012940F2B4832DE98F
:10650000F04FDFF8F094DFF8F084DFF8F0A48FB0FC
:106510000F4606460C467578023CA4B2002D00F0EA
:106520005D81A8B2A04200F25E813378241AA4B241
:10653000D32B00F25381DFE813F0670181018F0153
:1065400051015101510151015101EB0199015101D9
:10655000E00151015101510151015101510151011C
:106560000502170251019B025101510151015101D4
:1065700051015101510151015101A7025101510134
:10658000510151015101510151015101510151017B
:10659000D4005101630284028F0251015101510163
:1065A000510151015101510151015101510151015B
:1065B0005101480251015101510151015101510153
:1065C0005101510151015101510157035101510133
:1065D00051015101510151015101510151012B034F
:1065E0004303ED025101510151015101510151018A
:1065F0005101510103031E03510151015101510188
:1066000051015101510151015101510151015101FA
:1066100051015101510151015101510151015101EA
:1066200051015101510151015101510151015101DA
:1066300051015101510151015101510151015101CA
:1066400051015101510151015101510151015101BA
:1066500051015101510151015101510151015101AA
:10666000510151015101510151015101510151019A
:10667000510151015101510151015101510151018A
:10668000510151015101510151015101510151017A
:10669000510151015101510151015101510151016A
:1066A000510151015101510151015101510151015A
:1066B000510151015101510151015101510151014A
:1066C0005101510151015101510151016203510127
:1066D000510151015101510151015101510151012A
:1066E0005B01012DB07800F0C082002876D0042D27
:1066F00000F0EE82022871D10A2D6FD9F2798DF85F
:106700001820327AB3798DF819305A2A98BFB74DCC
:10671000BDF81830307B9CBFA5FB02129508AAFB80
:106720000313727AB17A8DF818108DF81920F17A66
:10673000BDF818208DF818008DF81910BDF818B0A4
:106740000092C3F347134FF00200019388BF002566
:10675000AAFB0B3B07F09EFC019BCBF3471B5B4561
:1067600011D3009AAAFB0212C2F3471293420AD82D
:106770001846009207F0AAFC009A104607F0BAFCEF
:10678000584607F0CBFC284607F0DCFC012007F058
:10679000E1FCF37803F00C03042B00F0C682082B15
:1067A00040F0BF82022007F0EDFCF078C0F300104B
:1067B00007F0F0FCF078C0F3401007F0DBFC7279D2
:1067C00033798DF818208DF81930BDF8180007F0CE
:1067D000C9FC07F031FD02F0F5FA75780235012C9D
:1067E0002E443FF698AE3C1BA0B20FB0BDE8F08F30
:1067F000012D34D9B378002BF0D1F378002BEDD1F3
:1068000014F0F0FB7578E9E7032DB37800F20A8203
:1068100043EA032043EA002043EA0020069017F0F1
:1068200011FA042206A9072006F020F97578012C38
:1068300005F102052E443FF66EAED4E7B07817F0AE
:1068400025FA002840F02B827578012C05F102050D
:106850002E443FF660AEC6E7012D00F2F08101251F
:106860000235012C2E443FF656AEBCE7112DB5D9AA
:10687000727A337A8DF810208DF81130F279B3796D
:106880008DF813308DF81220737B049A8DF8103038
:10689000337B8DF81130F37A8DF81230B37A8DF89E
:1068A0001330049B07920893727933798DF818207E
:1068B0008DF81930F278B3788DF81A208DF81B30E6
:1068C000727C337C8DF811308DF81020F27BB37B15
:1068D0008DF813308DF81220F37C049A8DF8103067
:1068E000B37C8DF81130BDF81030099206A8ADF8D0
:1068F000283011F08BFF757870E7B07818F036FB10
:106900007578012C05F102052E443FF604AE6AE7C6
:10691000374B1B78032B3FF461AF06A820220021E0
:10692000FFF700FD032D00F0B081192D00F0A881C4
:10693000012D7FF453AFB378069306A801F036FF1C
:1069400075784BE7B3780EA903F0010301F8203DF9
:106950000122642006F08AF87578012C05F1020501
:106960002E443FF6D8AD3EE7052D7FF637AFB2781F
:10697000F3788DF810208DF8113032797179BDF8E7
:1069800010308DF810108DF81120BDF81020ADF8E2
:1069900018300023CDE90733ADF81A20ADF82430C4
:1069A000B279F3798DF81E20072D8DF8223007D9A2
:1069B000327A737A12011B01ADF81C20ADF8203039
:1069C00006A813F091FE757808E702F037FD757898
:1069D00000283FF403AF002D3FF400AFB378012B44
:1069E0007FF4FCAE02F05EFD7578F7E6CDCCCCCC42
:1069F000F42B0020802F0020802E00201F85EB51DB
:106A00000D2D7FF6EBAEB37BF27B8DF818208DF861
:106A10001930BDF818309B077FF5E0AE73793179F6
:106A20008DF81830F278B3788DF819108DF81A2097
:106A30008DF81B30069806F1080102F04BFE7578C0
:106A4000CCE6B0780AF09EF87578012C05F10205C5
:106A50002E443FF660ADC6E62946B01C0AF0CEF8DB
:106A60007578012C05F102052E443FF654ADBAE6C7
:106A70002946B01C14F0DAFC7578012C05F10205EA
:106A80002E443FF648ADAEE6032D7FF6A7AE7279F1
:106A900033798DF818208DF81930F278B3788DF8A5
:106AA0001A208DF81B300699002900F01C810B2D4F
:106AB0007FF694AE727A337A8DF810208DF811300B
:106AC000F279B3798DF812208DF81330727B049B24
:106AD0008DF81020327B8DF81120F27A8DF812207B
:106AE000B27A8DF81320049A079304A802230E2D7E
:106AF00008928DF824300A9000F0FE80132D00F2E9
:106B00000B8100238DF824300A9306A80BF08AFB32
:106B1000757863E606F1020B2A465946894820F04B
:106B2000AEFA002209F805205846717802F0A8F85C
:106B30007578012C05F102052E443FF6ECAC52E6C7
:106B4000814B1B78022B03D0053B012B3FF646AE51
:106B5000B57811F069FE0346002800F0A880002DEA
:106B60007FF472AE284611F065FEFFF79BFCFFF73D
:106B7000E3FB757832E6B07812F0F6FC12F01CFDFB
:106B80007578012C05F102052E443FF6C4AC2AE6C7
:106B9000DFF8D0B1B31C19462A465846009320F0BE
:106BA0006EFA694A009B12780021032A0BF805103F
:106BB0003FF44AAE1846717802F00CFA75780DE68B
:106BC00006F1020B2A465946604820F058FA5E4BFF
:106BD0001B780022032B08F805203FF435AE5846F9
:106BE000717802F00BFA2FE6B378012B7FF4F6AD43
:106BF00003F04AFE002002F015FA7578EEE5544DD8
:106C0000544BD5F800B054482B60002115F0AAFA77
:106C1000C5F800B07578012C05F102052E443FF649
:106C20007AACE0E58DF81B3071793279F3788DF824
:106C300018108DF819208DF81A300698EFE5F278C3
:106C4000B3788DF818208DF819300EADBDF8180006
:106C500045F8200D16F044FF29460422012005F0D6
:106C600005FF7578BAE50020704700287FF4B6ADBF
:106C700007F010FA07F0E0FA02F0A4F87578ADE535
:106C80001622711D08A820F0FAF9F37832798DF8F0
:106C900010208DF81130BDF8103007934BE601221B
:106CA000B11C062005F0E2FE02F0D2F9CCE5002D81
:106CB0003FF4CAAD294A2A48137015F07FFA0EF046
:106CC0002FF8012011F0B6FDFFF7ECFB757885E594
:106CD00001287FF483AD07F0DDF9F07800F00100C2
:106CE00007F038FA55E5142206A8FFF71BFB06A8A3
:106CF0000BF098FA757871E5B27BF37B8DF80E2076
:106D00008DF80F30BDF80E1099B14FF6FF73994210
:106D100013D000230A93F8E606F10E0112F048FBA7
:106D2000F3E6002007F02EFA3FE5012007F02AFAEB
:106D30003BE50822FFF7F6FAE7E60822FF21FFF716
:106D4000F1FAE2E6802F0020F42B0020802E0020B4
:106D5000247A002070280020402E00207C2E002065
:106D60006C2E00208030002008B5054B054800221D
:106D70001A7015F023FABDE808400DF0D1BF00BF2E
:106D80007C2E00206C2E0020062870B52ED8012302
:106D9000834013F06C0F044614BF04460324194DBE
:106DA0002E782C70FFF7F0FA02F020FEA64227D0D2
:106DB00012F088F90DF0B4FF2B78023BDBB2042B04
:106DC00096BF114A0020D05C0DF0A2FF01F04AFDF1
:106DD00002F028FB002011F02DFD2B78052B07D0A9
:106DE000022B05D0BDE87040FFF75CBB0324D6E75B
:106DF00001F032FD02F010FBBDE87040FFF752BB1E
:106E000070BD00BFF42B00204071040070B586B047
:106E100011F00AFD08B106B070BD0DF0EDFF04469B
:106E200007C86D4685E80700B4F90E10A3686269CB
:106E30005B1A0393A389ADF810302846059211F030
:106E4000E5FC204601F01EFD1D4B1B781BB31D4EBB
:106E5000337823B31C4B1B78062B03D11B4B1B78B9
:106E6000032B25D02046FFF7CFFA194A00233370B1
:106E70001370667C0DF098FF0028CCD006F0070652
:106E8000033E022E02D9637C9B06C4D5284607F038
:106E90006BFD06B070BD0F4B1B88002BD7D10C4B80
:106EA00001221A70667C0DF07FFF0028E6D1B2E760
:106EB000094A13780133DBB2042B1370D2D8F1E7FF
:106EC000562E00207C2E0020F42B0020262E0020A1
:106ED000552E0020582E0020252E0020054B1A7814
:106EE000824205D0187008B9FFF73EBFFFF724BAF9
:106EF000704700BF562E002010B5094B82B00446E3
:106F000018800DF065FFC4F30723022201A91620A3
:106F10008DF804408DF8053005F0A8FD02B010BDD5
:106F200082310020014BB3F900007047823100200C
:106F30002DE9F04F8FB00F46009206460FF09EFDF0
:106F40000FF034FD814611F0F3FC0E220023ADF862
:106F50000C00ADF80E200493002F00F00D8109F114
:106F60000708013F37444546013E40F2F124023C08
:106F7000A4B216F8013F2B70FF2CA3464FF000027D
:106F800028BF4FF0FF0B5FFA8BFA6A70D32B00F229
:106F9000F680DFE813F08A02AD01B701BE01C80137
:106FA000DD01F400080256036C03EE020D03F40049
:106FB0001C03F400F400F400F400F400260337038B
:106FC0003E03A703F400F400F400F400F400F4001E
:106FD000F400AD03F400FF00110119011F01F400DA
:106FE000F400F400F400F400F400F4002601F400CE
:106FF0009C01A301D400F400F400F400F400F400B8
:10700000E6029C02F400F400F400F400F400B9027B
:10701000F400F400F400F400F400F400F400F400D0
:10702000F400F400F400C802F400F400F400F400EA
:10703000F400F400F400F400F400D7020E021D0284
:10704000F400F400F400F400F400F400F400F400A0
:107050002C023702F400F400F400F400F400F40011
:10706000F400F400F400F400F400F400F400F40080
:10707000F400F400F400F400F400F400F400F40070
:10708000F400F400F400F400F400F400F400F40060
:10709000F400F400F400F400F400F400F400F40050
:1070A000F400F400F400F400F400F400F400F40040
:1070B000F400F400F400F400F400F400F400F40030
:1070C000F400F400F400F400F400F400F400F40020
:1070D000F400F400F400F400F400F400F400F40010
:1070E000F400F400F400F400F400F400F400F40000
:1070F000F400F400F400F400F400F400F400F400F0
:10710000F400F400F400F400F400F400F400F400DF
:10711000F400F400F400F400F400F400F400F400CF
:10712000F400F400F40040026F028302F400F40063
:10713000F400F400F400F400F400F400DE03002C8A
:1071400040F0258301236B70A5EB0805ADB2ADF8C7
:1071500014508DB1484603AA4FF43E7111F020FE41
:1071600050B10FF01DFC009B002B00F0B3830022F8
:107170001846114612F09EFA0FB0BDE8F08F0020BD
:10718000241AA4B20230B7420544DDD0012C3FF6E8
:10719000EEAED9E70AF0DCFF002840F01E8304239E
:1071A000032C6B7040F27F8168712871E870A870C1
:1071B00018468245E4D2C7E7CB481FF084FF584504
:1071C00040F276836878F4E75146A81C0BF0A6FAE3
:1071D0006870EEE7C54B51465B69A81C984768701C
:1071E000E7E706F061FF012800F07983C0F07A83B9
:1071F000022800F067836B789A45A5D306F054FF08
:10720000012800F06283C0F07083022800F05D83E3
:1072100068780328CDD906F0F3FF012800F07583C4
:1072200002280CBF4FF0080B4FF0000B06F0D8FF00
:107230004BEA000B4FFA8BFB06F0F6FF08B14BF060
:10724000100B06F0D5FF08B14BF0200B85F803B00A
:1072500006F0B4FF034668786B710A28C3F307236E
:107260002B71A6D906F09EFF00EB800000EB80009A
:107270004FEA800B06F09CFF00EB800000EB8000E3
:1072800083009BB2019306F09FFF1FFA8BFBCBF3A9
:10729000072200EB800000EB800085F807B0AA71A0
:1072A0004FEA800B06F096FF1FFA8BFB019B00282C
:1072B00040F02E83B422C3F307212A72CBF30722B6
:1072C000AB72697285F80CB0EA72687871E70E23C8
:1072D0000D2C6B7000F2BF820E206AE701236B70E9
:1072E000002C3FF431AF09F041FCA870687860E7EA
:1072F00001236B70002C3FF427AF16F0C1FCA8707F
:10730000687856E70223012C6B7000F23882022065
:107310004FE701236B70002C3FF416AF03F00EFA19
:10732000A870687845E715F013FE00283FF44AAFCF
:107330000320022C68707FF63CAF15F011FEC0F3FD
:107340000723E870AB7015F015FE2871687830E7F8
:1073500012F01EFD00283FF43BAF032C40F2CE821A
:10736000AA1D01949346544601E0032C14D90388C6
:107370000BF8043CC3F307230BF8033C43790BF8E9
:10738000023C03790BF8013C221FD4B212F010FD2D
:107390000BF1040B0028E8D1A346AAEB0B00C0B206
:1073A000019C687005E75146A81C14F007F9687045
:1073B000FFE64F481FF087FE834528BF83465A46A5
:1073C0004B49A81C1FF05BFE5FFA8BF06870F0E67B
:1073D00048481FF078FE834528BF83465A464549F2
:1073E000A81C1FF04CFE5FFA8BF06870E1E6424B80
:1073F0001B78022B00F0B981053B012B40F2B581CF
:107400000220C0E601206870002C3FF49DAE3B4B8B
:107410001B78AB70CDE60520042C68707FF6C9AEF2
:107420004FF0000B85F802B011F03CFEE87011F04F
:1074300041FE287112F0ACFC002800F0708212F0BE
:10744000B7FC0BF1010B0028F9D15FFA8BF3019324
:1074500012F096FD48B14FF0000B12F0A1FD0BF1B8
:10746000010B0028F9D15FFA8BF0019BA8716B71B9
:1074700068789EE60223012C6B707FF648AF04F01B
:1074800009FC1F4B1B68C01A4FF6FE73984240F26E
:107490006781FF23EB70AB7068788AE60423032CC6
:1074A0006B7000F2D581042083E60420032C687001
:1074B0007FF67FAE16F0C0FBC0F30722C0F3074390
:1074C0006871C0F307602A71EB70A8707AE6022039
:1074D000012C68707FF61BAF0A4B1B88AB70C3F39F
:1074E0000723EB7065E600BF74760400F87C0400A7
:1074F000802E0020802F0020F42B00201673002007
:10750000682800201473002001F098FF00283FF441
:1075100059AE01206870002C3FF416AE11F044F90A
:10752000A870687845E601236B70002C3FF40CAE20
:1075300003F090F9A0F10300B0FA80F04009A870C0
:10754000687836E6D9481FF0BEFD834528BF8346DC
:107550005A46D649A81C1FF092FD5FFA8BF068705E
:1075600027E601206870002C3FF4EEAD0023AB70DD
:107570001FE60A20092C68707FF61BAE0722002345
:10758000AA70EB7003F0DAF8C0F3072393222B7193
:10759000FC236A722B7209222423AB716871EA7191
:1075A00002F05CFFC0F30723E872AB72687800E674
:1075B00017F0A4FC00283FF405AE01236B70002CEB
:1075C0003FF4C2AD17F058FDA8706878F1E50123CB
:1075D0006B70002C3FF4B8AD15F0AEFCA870687865
:1075E000E7E501226A70002C3FF4AEAD0EA900233E
:1075F00001F8203D642005F07BFB9DF81830AB704E
:107600006878D6E50823072C6B7000F2C780082045
:10761000CFE50823072C6B70F9D906A813F066F89C
:107620009DF82330AB709DF82430EB7013F09CF87C
:10763000002328716B71AB71EB712B726B726878E0
:10764000B7E51920182C68707FF6B3AD06A801F0D5
:10765000EDF8069BAB70079B2B71C3F30723EB7010
:10766000162208A9681D1FF00AFD6878A1E51220FE
:10767000112C68707FF69DAD11F0C4F80246687851
:1076800013686B71C3F307212971C3F30741C3F377
:107690000763E970AB7053686B72C3F307212972FB
:1076A000C3F30741C3F30763E971AB7193686B736D
:1076B000C3F307212973C3F30741C3F30763E972D7
:1076C000AB72D3686B74C3F307212974C3F307410A
:1076D000C3F30763E973AB73138AEB74C3F3072334
:1076E000AB7466E55146A81C13F018FF687060E59E
:1076F0000E230D2C6B707FF6EFAD06A80AF032FD5D
:10770000069B6B71C3F30721C3F30742C3F30763FF
:107710002971EA70AB70079B6B72C3F30721C3F347
:107720000742C3F307632972EA71AB71BDF82030D9
:10773000EB72C3F30723AB72BDF822306B73C3F354
:1077400007232B73BDF82430EB73C3F30723AB730C
:1077500038E50223012C6B707FF6D9AD13F048FC9D
:10776000C0F30723E870AB702CE501236B70002C8D
:107770003FF4EAAC11F058F8A870687819E516F0F3
:10778000A9F9C0F30723E870AB70687811E5594692
:10779000A81C09F009FAC0B268700AE506A812F040
:1077A000A5FFBDF81830AB70C3F30723EB70BDF82D
:1077B0001A306B71C3F307232B719DF81E30AB7128
:1077C0009DF82230EB71BDF81C3068781B092B72D4
:1077D000BDF820301B096B72EBE406A80AF00EFE20
:1077E0009DF82430012B72D0C0F08580022B7FD011
:1077F0006A789245FFF4E6AC069A6A71C2F30720F4
:10780000C2F30741C2F307622871E970AA70079AB0
:107810006A72C2F30720C2F30741C2F307622872FB
:10782000E971AA71089A6A73C2F30720C2F307418B
:10783000012BC2F307622873E972AA7261D0022B8E
:107840007FF4C0AC0A9905F10E0011F0BBFDB9E45C
:1078500004F020FA30E601F055FF90F80CB0437BBD
:10786000ABF1010BBBFA8BFB4FEA5B1B0BB14BF08F
:10787000020B03686B71C3F30721C3F30742C3F321
:1078800007632971EA70AB708388EB71C3F3072338
:10789000AB71811D062205F108001FF0F0FBCBF350
:1078A000072385F80FB0AB73687882E4803000203E
:1078B000024601901B49A81C1FF0E1FB019BD8B2B6
:1078C000687076E40B236B7096E4A870A0E40E2237
:1078D0006A708EE70099084611F020FF4CE40423FB
:1078E0006B7089E401236B7086E40023AB708FE436
:1078F00014226A707DE70C226A707AE700206870B3
:1079000057E40023AB73EB735CE44FF0040B8DE49E
:1079100006F060FC00EB8000C2B2019BCBE401905A
:1079200096E500BF7476040010B582B015F010FB28
:1079300080B9154B1A68541C17D04FF0FF3402A8B9
:10794000042200F8042D012100221C60FFF7F0FA48
:1079500002B010BD15F00EFB0B4B1A680446501C0C
:10796000EDD0642C07D1642AE9D1084909780429AB
:10797000EED11446E3E7101DA042E0DB043AA24238
:10798000DDDC2246F1E700BF6C280020262E002017
:107990002DE9F047A4B00A46014602A811F0CEF93D
:1079A000D8B1BDF80A30062B1AD00E2B00F0A480F7
:1079B0000F2B00F094801E2B35D10398BDF81020BA
:1079C0004378023399B28A4207D31844521A437853
:1079D000023392B299B29142F7D924B0BDE8F08750
:1079E000BDF81030012BF8D9BF4B039A1B88ADF8B6
:1079F0002C300023CDF83230CDF82E30CDF8363093
:107A00001378BA4803F003030D2130F81330ADF8B2
:107A10002E308DF8321053788DF836300BA812F0D6
:107A200063FEBDF80A30CF2B00F0AE8040F20112A9
:107A3000934200F0B380B3F5807F00F09880B3F5F7
:107A4000817F00F00F8140F20132934200F01081FB
:107A5000AC2B00F02081012B00F02981102B40F08D
:107A6000D581BDF810200B2AB7D9039BD9788DF8A2
:107A70002C1099788DF82D1059788DF82E101978D2
:107A80008DF82F10D9790B9D8DF82C1099798DF8E0
:107A90002D1059798DF82E1019798DF82F10597AEB
:107AA0000B9E8DF82C10197A8DF82D10D97ABDF80F
:107AB0002C408DF82C10997A8DF82D100C2ABDF8D9
:107AC0002C7000F02F810B3AA24286DD0C3300931C
:107AD00022463B46314628460AF0CCFC7DE7844CE2
:107AE0002378022B00F0E680BDF810100398FEF713
:107AF00003FDBDF80A3096E7BDF8101001297FF6A6
:107B00006CAF039E3046FEF7F7FC012888BF0025C6
:107B1000EFD931786DB19DF82C308B420ED00BAA85
:107B2000002303E012F8014F8C4207D00133AB422F
:107B3000F8D124AB2B44013503F8641C737802336D
:107B40009AB2824200F2A380801A80B201281E44B9
:107B500040F29D80642DDCD111F098FD002840F0AA
:107B6000BE80024629460BA8FFF7E2F9C1E7604B49
:107B70001A78032A00F09580BDF81010039816F0CB
:107B8000D5FD24B0BDE8F0875A4B1C6864B1584B52
:107B9000594804221A7014F011FB1EE7BDF81010AA
:107BA000039816F091FD18E7BDF8102003990BA873
:107BB00011F02AF800283FF410AF2146BDF8440028
:107BC00011F0C0FC00283FF408AF4C4C9DF82E008B
:107BD000FFF7DAF823784A484A4A9DF82C509DF876
:107BE0002D100570022B117000F09680591F01298D
:107BF000BDF8302040F29280DDE90E650D9B1099B2
:107C0000ADF8242005A8CDE90713CDE9056510F0EE
:107C1000FDFD2378062B00F0DE803B4B1A88002AFE
:107C200040F0EF809DF82D00FFF758F90D98109B5C
:107C30001B1A03F30F0000B2FFF75EF92C4B1A7802
:107C4000002A7FF4CAAE2278032A04BF01221A70E8
:107C50002E4B24A81B6840F87C3D00220421FFF72E
:107C600067F9BAE6BDF81010039816F091FDB4E676
:107C7000BDF81010039807F027FE00287FF4ADAE82
:107C80000122BDF81010039800F0FAFFA5E6002DC0
:107C90003FF42FAF60E7BDF81010039809F0B0F97A
:107CA0009BE6042214481A7014F088FA64E704F082
:107CB000FDF892E616F0D8FC58B1154D154B2E681C
:107CC0000D482B6000210323237014F04BFA2E6023
:107CD0000AE704230848237014F070FA04E711F04F
:107CE000DBFC02463EE700BF147300205071040025
:107CF0002D2E0020502E0020302E0020F42B0020AE
:107D00007C280020542E0020582E002038710400BA
:107D1000247A002070280020BDF83020002A3FF48B
:107D200079AF69E710F004FE4FF00009102204F16A
:107D30000C03ADF82E20ADF83430ADF82C00CDF8A2
:107D400030900EF09BFE0EF031FE0BAA4FF43E7108
:107D5000804610F0C7FF824600283FF43EAE0097F1
:107D600023463246294608F113000AF01DFC00287C
:107D70003FF433AEC4F30723C7F3072288F80F306C
:107D8000C5F30723C5F3074188F80A5088F80E6049
:107D900088F8112088F80930C6F30722C6F3074394
:107DA000C5F30765C6F30766504688F8081088F8DB
:107DB0000C3088F8104088F8127088F8075088F85E
:107DC0000D2088F80B600EF0EBFD134B49469B68C5
:107DD0004846984701E6114B11491A78012008706E
:107DE0001AB100221A70FEF7BFFF0E4B1A880F2A35
:107DF00003D00F221A80FEF79FFA0B4B01221A7054
:107E000014E700221A80FEF7AFFF0BE7112B7FF477
:107E1000E4AD0AF037FCE0E5447D0400562E002076
:107E2000262E0020582E00207C2E002030B585B054
:107E3000437802788DF804208DF80530BDF80430C1
:107E400040F60E0523F48053AB421DD00A4640F69F
:107E500015018B4216D10446014601A810F0CCFF53
:107E600080B1BDF80C30022B0CD9029A52B1917836
:107E700041B1023B8B4205DD13781BB9217AA07911
:107E800001F03AFB05B030BDFFF782FD05B030BD13
:107E900030B5564C8DB003F0FDFE2168411A022921
:107EA00071D9534D10F044FD2B78524A8DF80330B0
:107EB000062B0CBF504B514B12788DF801208DF8DA
:107EC00000001B788DF8023015F05EF88DF8080080
:107ED00015F032F88DF80A0011F0DCF82B788DF8E7
:107EE0000900012B47D0042B45D017F0CBF8B0F593
:107EF0007A7F05466CD800238DF80B3003A811F06B
:107F000079FA05A811F0CCFB10F07CFC036809930A
:107F100043680A9383680B93C3680893038A8DF8B8
:107F20001C300EF0ABFD364B1B78002B3AD103F022
:107F3000B1FEB0F5167F48D8324B1B7898005A072F
:107F400000F0080448BF44F020041B0748BF44F079
:107F5000020403F09FFE80B240EA046040F4004057
:107F600001900EF023FD6A464FF43E7110F02CFE96
:107F700018BB0DB030BD17F07FF80128B5D0012334
:107F80008DF80B30BAE7C1EB01611F4C1F4B204845
:107F900025682360090201F5407114F0E3F82560BB
:107FA0000DB030BD1B4B01930EF000FD6A464FF43F
:107FB0003E7110F019FE0028DBD00EF0F1FC00211C
:107FC000154811F0ABFB0DB030BD03F06FFFB3E708
:107FD00003F060FE2368114AC01AA2FB0535B0EB1E
:107FE000951F94BF0123002386E700BF6828002067
:107FF000F42B00207C280020542E0020562E002038
:108000002D2E0020FC320020247A00207028002031
:10801000402E002093FC0924F5630200D34D62102A
:10802000F0B5038887B00446002B38D040F60850DE
:1080300083422FD1822927D0AE4B1B788B4200F090
:108040008880AD4B1B788B4200F0A080AB4B1B7837
:108050008B4200F01D81AA4B1B788B4200F0FE8002
:10806000882900F0C480A74B1B788B420CD1D10625
:1080700000F12E81530707D514F094FF20B114F0BE
:108080005BFF08B902F07EFC40F608532380012014
:1080900007B0F0BD00230320238007B0F0BD02F03D
:1080A000CDFB02F003FA14F09DFE14F07BFF0028D4
:1080B0005CD102F001FB012853D009F007F80BF066
:1080C0001DF902F097F905F069FF022202A91620B6
:1080D00004F00EFE002838D09DF809309DF80820E5
:1080E0008DF80D308DF80C20874BBDF90C001880F1
:1080F0004FF0A0450CF06CFE4FF080420323C5F812
:108100000C25C5F8783702F0DDFA00280CBF0420F2
:10811000802003F0F1FD0223C5F8783702F0CCFA95
:1081200002282AD011F058FA784B1B69984714F0AE
:108130007BFF774B01219B688120984709F0E6FF80
:1081400040F6085323800120A2E76F4BB3F90000EB
:10815000CEE7704B1B78032B39D16F4B01221A707D
:1081600092E714F0E9FE0028A7D1A8E714F0E4FE96
:1081700000289ED102F006FC9BE70A2009F052F885
:1081800000F03CFD002000F051FDCBE7BAB1614B9F
:108190001B78062B75D1614B1B78012B71D0604B7E
:1081A0001978002940F08D805E4B1B78023B012B33
:1081B00005D805215C48019213F0D4FF019A101CE8
:1081C00018BF012007F012FA00F042FF5CE710F040
:1081D00071FF0028C1D006A8142300F80C3D4E4DB5
:1081E00000231A4601212B70FEF7A2FE4CE74F4BED
:1081F0009A4200F0A5804E4B9A4200F001814D4B0F
:108200009A4200F03381484B9A427FF43DAF1046CA
:1082100013F0C6FF00283FF437AF10F04BFF0028E3
:108220003FF432AF3F4B1D78022D00F0FB81032D50
:108230007FF42AAF06A9002521F80C5D022240F246
:10824000011011F01BF818B12946284611F066FA02
:108250004FF42061344813F085FF15E72D4B1B7850
:10826000032B27D0062B30482E4B14D0022200219E
:108270001A7013F077FF4FF440712C4813F072FF1F
:1082800002E700212948019213F06CFF019A8BE765
:10829000FEF77AF8F8E604221A7013F08FFF1F4BEE
:1082A00001251D7003F0F6FC234A244B15703C3069
:1082B0001860E0E71B4B1C4801221A7013F07EFF88
:1082C000D9E7002101921970FFF72EFB019A6BE7A5
:1082D000019202F0F1F90128019A7FF4CBAE14F07B
:1082E0002BFE019A002800F0528108F0EFFE019A5F
:1082F000C0E600BFE4720020E3720020E2720020BA
:10830000E5720020467A002082310020447D04007E
:1083100088760400F42B002080310020262E0020D7
:10832000242E00202D2E0020302E0020402E002054
:108330006C2E00205C2E00202C2E0020282E0020E9
:10834000104613F02DFF00283FF49EAEA44B1B787F
:10835000002B00F0A280A34B1B78062B14BF4FF418
:10836000F0514FF42061A04813F0FCFE10F0A2FE83
:1083700000283FF489AEFFF78BFD0A238DF80C30FF
:1083800009F0E6FE002800F007811E2220238DF868
:108390000D208DF80E30032500F056FA002800F06D
:1083A000FD8006AB2B44914900200822087001355E
:1083B00003F80C2C14F0CCFD002840F001818C4A0D
:1083C0008C4E4FF0FF3006AB2B4410600420327807
:1083D00003F80C0C5E20A91C03F80B0C5AB1814B5E
:1083E0001B78032B07D006AB0B441420002203F8A4
:1083F0000C0C01313270002203A8FEF799FD43E610
:10840000184613F0CDFE00283FF43EAE754F3B7882
:10841000062B45D0784B1B78002B3FF435AE10F07F
:1084200003FA054600287FF42FAE09F091FE734E43
:1084300080F001037248337013F0A8FE3378002BEC
:108440003FF422AE3B78022B00F06981053B012B03
:108450003FF61AAE6B4F3B78002B3FF415AE0CF095
:10846000CBFCFDF7D1FF35703D700DE6104613F0E3
:1084700097FE00283FF408AE5A4B634A1B78002051
:10848000062B10707FF400AE604B1B78012B7FF63B
:10849000FBAD5F4B5B699847F6E54FF4206162E7FF
:1084A0005A4D2B78013B032B0BD8DFE803F05044E7
:1084B000026704232B7003F0EDFB564B00F561506F
:1084C00018602B78002B3FF4DFAD4D4813F05EFEB3
:1084D0002B78013B032B3FF6D7ADDFE803F0250FE8
:1084E00014024C4D03F0D6FB2B68C31A002BFFF689
:1084F000CBAD03F0CFFB00F5615028604FF4A061D5
:10850000454813F02FFE424B1B6998473D4A3B4BB1
:108510000021012511701D7010F0CCFD002840F0E5
:10852000C080394B1D70AFE53649344B0020012225
:1085300008701A70A8E516F0A5FD43F69723984237
:10854000BFD9364A0021032311702B70BDE7314E8D
:10855000376803F09FFB381A0028B2DA304F3B78B7
:10856000002B00F0DF8009F0F3FD002800F0DA8036
:1085700033687833336000233B70A2E716F082FD46
:1085800043F6972398429CD802232B709DE70192D3
:1085900008F0BAFD019A6DE50125FDE6114B1B7847
:1085A000022B69D0053B012B66D914F0D1FC38B9F8
:1085B000012D00F08F800E4A0E4E4FF0FF3002E783
:1085C00014F0D8FC012D0A4A07D113685E1C04D0B0
:1085D00064286CD1642B00F09F80064EF3E600BF48
:1085E0002D2E0020F42B0020402E00207D2800207E
:1085F0006C28002080310020562E00207C2E002088
:108600006C2E0020552E0020242E0020262E002027
:10861000447D0400282E00205C2E0020252E002002
:108620002C2E00200EF02AFA0EF0C0F9414B1B78D8
:108630000022022BC271027253D0053B012B50D98C
:1086400010F076F900260F23ADF80C00ADF81450A9
:10865000ADF80E3004960EF0A9F903AA4FF43E715E
:1086600010F09EFB00283FF4F3AD0EF099F931466F
:10867000304611F053F8EBE52F4A1378012B13D94C
:1086800006AB591908200023013501F80C0C1370B2
:1086900014F05EFC00288BD014F06CFC274E284AA6
:1086A00091E6FFF741F9EFE4013313707DE7191DFF
:1086B000814292DB214E043B834231783FF783AE07
:1086C00000293FF4E1AC1B4B1B78032B3FF4DCACDF
:1086D000012188E61A4A13685F1C1DD04FF0FF3055
:1086E0007BE700235D2509215E2245725226532532
:1086F00083720373837303748374037583750376C2
:10870000C17242732B212E222F234574C673C1746C
:108710004275C375122593E718461368CAE70CF033
:108720006FFBB1E409F0FAFC064813F047FD0223A1
:108730002B7020E7F42B00207D28002080310020C2
:108740006C280020402E002000B583B002A82D2305
:1087500000F8013D00220121FEF7EAFB03B05DF8BD
:1087600004FB00BF00B5084B83B05B68ADF8043074
:1087700000221B0C032101A88DF80630FEF7D8FB60
:1087800003B05DF804FB00BF3871040008B5202277
:1087900000210548FDF7C6FD00200FF0E7FFBDE80A
:1087A000084000F02DB900BF88310020F8B51D4EFB
:1087B000026833689A4204461BD00FCC194E1A4FF8
:1087C00035460FC594E80F00346885E80F003B7804
:1087D0003CB91BBB00200FF0C9FFBDE8F84000F01A
:1087E0000FB99BB100200FF0A1FFBDE8F84000F0E9
:1087F00007B9426873689A42DFD106F10801162270
:1088000008301EF02DFC0028D7D0F8BD02F028F863
:1088100001233B703368002BE4D1DBE702F028F83A
:108820003C70F7E788310020A831002030B4054DB6
:1088300004460FCD0FC495E80F0084E80F0030BC4C
:10884000704700BF88310020024B1868003018BF05
:108850000120704788310020014B01221A707047B7
:1088600084310020054B1A7822B1054A1268002194
:10887000197002B97047FFF789BF00BF843100202B
:10888000883100202DE9F041437C4F4A03F0070670
:10889000072E8AB012780FD0D10702D40AB0BDE8F3
:1088A000F0814421721E8DF81510042AF6D8DFE8F5
:1088B00002F07B736B688300D406EFD544228DF8F9
:1088C00015200225002713F0800F0CBF322233221F
:1088D0008DF814204FF000085A060BD56A1C0AA91F
:1088E0000A4429444FF02C0C452401F814CC0235DD
:1088F00002F8144C9B060AD56B1C0AAA13442A449E
:108900002C24492102F8144C023503F8141C0446A7
:1089100010F0C0FB50B16B1C0AAA13442A442C204F
:10892000532102F8140C023503F8141C274B284A73
:1089300021680AA80544072E14BF1E4616460020CB
:10894000D4E90123029605F8140CA089656900900A
:1089500005A8039001951F4808F07CFC67B9B8F1A1
:10896000000F03D0618A1C4808F074FC0A2008F04C
:1089700059FC0AB0BDE8F081217E184808F06AFC75
:10898000EDE7022501279EE731228DF8142002250C
:108990004FF0010800279FE730228DF814200225B0
:1089A0004FF00108002797E750224FF000088DF89C
:1089B0001420474602258FE744F22C12ADF816200A
:1089C000042501277FE700BFA93100202872040099
:1089D000247204002C720400647204005C720400AF
:1089E000034A0346C0F34010137008F037B900BFC4
:1089F000A9310020014B1878704700BFA931002031
:108A00000B4B1B789B0700D4704700B589B06846B4
:108A1000FFF70CFF009A074B07490848002A08BFD8
:108A2000194602AB08F016FC09B05DF804FB00BF64
:108A3000A9310020C8730400C4730400D07304007B
:108A40000A4B1B789B0700D4704710B588B00446CA
:108A50006846FFF7EBFE064B06490748002C08BFA7
:108A6000194608F0F7FB08B010BD00BFA93100207F
:108A7000C8730400C47304007071040038B5194B46
:108A80001B789B0700D438BD04468168164808F05F
:108A9000E1FB206810F0BAFD607B05F00BFB05469A
:108AA000207B10F06FFD29460246104808F0D2FBEB
:108AB000A3684BB9217E11B10D4808F0CBFB0A2009
:108AC000BDE8384008F0AEBBA2880A490A48A1FBBD
:108AD0000231C90801EB8103A2EB430292B208F014
:108AE000B9FBE7E7A93100206C720400847204002E
:108AF0009C720400CDCCCCCC907204002B4B1B7824
:108B00009B0700D4704730B504468168284887B079
:108B100008F0A0FB206810F079FD607B05F0CAFA30
:108B20000546207B10F02EFD29460246214808F01C
:108B300091FBA3683BBB217E11B11F4808F08AFB63
:108B4000B4F9061011F5004F03D01C4B1B78022B13
:108B500027D0206988B164697CB1258A0168D0E991
:108B600001230495A568039565680295246801941E
:108B7000008A0090124808F06DFB0A2007B0BDE89B
:108B8000304008F04FBBA2880E490F48A1FB0231CC
:108B9000C90801EB8103A2EB430292B208F05AFB31
:108BA000C9E70A4808F056FBD3E700BFA931002007
:108BB0006C720400847204009C720400167300201E
:108BC000C4720400CDCCCCCC90720400BC72040002
:108BD000084B1B789B0700D4704710B50446064825
:108BE00008F038FB204610F011FD0A20BDE81040C7
:108BF00008F018BBA9310020A472040000B583B0AE
:108C0000684610F0FDFB074808F024FB684610F0AA
:108C1000FDFC01F023FC0146034808F01BFB03B0F8
:108C20005DF804FB907304009C73040038B505469E
:108C30004FF440700FF026FD044640F201100FF093
:108C400021FD70B140F2012044F002040FF01AFD42
:108C500008B144F0040421460848BDE8384008F053
:108C6000F9BA40F201200FF00DFD0028F1D114B93E
:108C7000002DF0D138BD0124EDE700BF8471040060
:108C8000F8B52A4B1B785B0707D5B1F5807F044602
:108C90000D4603D9BAB1012A3FD0F8BD62B3012A0B
:108CA000FBD1234808F0CAFA45B1013C0026013641
:108CB00014F8010F08F082FAAE42F8D30A20BDE89A
:108CC000F84008F0AFBA1B4808F0B8FA4FF48075C6
:108CD000194F013C002606E0222B1AD008F0A2FA18
:108CE0000136AE4210D214F8013FA3F120025E2AF1
:108CF0001846F1D93F20F1E70E4808F09FFA012D00
:108D000011D12378002BE3D10C48BDE8F84008F0DE
:108D100095BA384608F092FAE2E7054808F08EFA6C
:108D20004FF48075C1E7002DEED0D1E7A9310020C6
:108D3000847304007473040080730400A47B040033
:108D40001E4B1B781B0700D4704770B586B01546C4
:108D50000E46044616F090F903282AD0D4ED037A83
:108D600094ED025AD4ED056A94ED047AD4ED015ADB
:108D700094ED006A12480496FDEEE77AFDEEE66A8D
:108D8000CDED007AFDEEC57ABDEEC77A17EE903ACA
:108D9000FDEEE57A039517EE902AFDEEC67ACDED4D
:108DA000026A8DED017A17EE901A08F053FA06B0B8
:108DB00070BD022016F0DAF8D0E700BFA93100201C
:108DC000A071040038B505F06FF905F073F901469C
:108DD0003D4808F03FFA05F067F9022849D005F050
:108DE00063F9F8B1394B1B78022B28D105F008FA4A
:108DF00005F00EFA01463648364D374C08F02AFA8F
:108E000005F012FA002814BF29462146334808F01D
:108E100021FA05F0EDF9002814BF29462146304813
:108E200008F018FA05F040F9012835D005F03CF9B2
:108E300002280BD00A20BDE8384008F0F3B905F04D
:108E4000BDF90146274808F005FACFE71F4B1B780C
:108E5000022BEFD105F0BEF90446234808F0FAF9D9
:108E60006CB324B204EB84046100204808F0F2F9EA
:108E7000E0E7164B1B78022B19D01D4808F0EAF9E1
:108E800005F090F908F0F8F91A4808F0E3F905F050
:108E90008FF908F0F1F9A2E705F0A2F9164B17498E
:108EA000002808BF1946164808F0D4F9BEE715484F
:108EB00008F0D0F905F088F908F0DEF9DDE712488E
:108EC00008F0C8F9B6E700BF10730400167300205D
:108ED0004073040028760400FC7204004873040008
:108EE00050730400387304006C730400F07B0400BA
:108EF0002873040030730400087304000073040036
:108F00005C73040020730400707304002DE9F043C7
:108F100091B0002856D079B942F62553ADF800300B
:108F2000022310AA13446846002203F8402C08F0DC
:108F300085F911B0BDE8F0830278002AECD0013940
:108F40000023044646181D464FF02508204F0DE02B
:108F50000DF14009252A994414D003463B2B09F80A
:108F6000402C21D8B4422AD014F8012FA2F12101BB
:108F70005D2903F1010003F102014FEA121E02F024
:108F80000F0CE5D910AA02EB030910441144033376
:108F900017F80EE017F80C2009F8408C3B2B00F86E
:108FA00040EC01F8402CDDD910AA1344684603F8C0
:108FB000405C08F043F9B4424FF00003D4D1002BD9
:108FC000AFD1B6E742F22513ADF800300223A8E78F
:108FD000747E040038B504460D46064808F03AF998
:108FE00020462946FFF792FF0348BDE8384008F0C5
:108FF00031B900BFE0710400347C040038B5044688
:109000000D46064808F026F920462946FFF77EFF60
:109010000348BDE8384008F01DB900BF9471040052
:10902000347C040010B50446064808F013F924B94E
:109030000548BDE8104008F00DB90448BDE81040EF
:1090400008F008B9587104006871040064710400E4
:1090500008B510F02FF850B9084808F0FBF814F0E4
:109060000FFEBDE808400146054808F0F3B84AF68F
:10907000CD31044808F0EEF8F1E700BF08720400B3
:1090800018720400EC710400F8B506200FF08CFB98
:1090900098B13F4D3F4A2C683F480023192104F006
:1090A000010412F027FF2B6801332B604FF0A0431F
:1090B00004BB0222C3F81427F8BD064607200FF0B0
:1090C00073FB0746E8B1324D2C68052C35D8334B7D
:1090D000304A3148A3FB04135B0803EB4301641AD5
:1090E000012C33464FF055018CBF0024012412F0AF
:1090F00001FFD8E720210322C3F80C15C3F8142779
:10910000F8BD08200FF050FB0646D8B1204D2C6862
:10911000072C2CD8214B1F4A1F48A3FB04135B08C4
:1091200003EB4301641A012C3B464FF02A018CBF2C
:109130000024012412F0DEFEB5E70720BDE8F84068
:109140000FF014BB03200FF02FFB0746A0B904203B
:109150000FF02AFB0028AFD00D4D0E4A2C680E48A8
:109160003B46402104F0010412F0C4FE9BE70820B6
:10917000BDE8F8400FF0FABA054D064A2C680648DB
:109180003346802104F0010412F0B4FE8BE700BFE7
:10919000AC31002089900200B0310020ABAAAAAA0D
:1091A00010B50FF00BFBB8B107200FF0FDFA20B996
:1091B00008200FF0F9FA0446C0B14FF0A043022294
:1091C000C3F814272448254A0023332112F092FEC5
:1091D000234B00221A6010BD4FF0A0430222C3F8B7
:1091E00014271D48BDE8104012F0C8BE06200FF03D
:1091F000DBFAB0B903200FF0D7FA18B904200FF04A
:10920000D3FAE0B14FF0A04200230221C2F81417B4
:109210001148124A194612F06DFE114B00221A60D5
:1092200010BD4FF0A0430222C3F814270A480B4A8E
:109230002346214612F05EFE094B1C6010BD4FF024
:10924000A04320210322C3F80C15C3F814270248B9
:10925000BDE8104012F092BEB031002089900200AB
:10926000AC310020334B1A7802B1704710B501229F
:109270001A700FF0A3FAD8B107200FF095FA20B9B1
:1092800008200FF091FA0446F8B14FF0A0430222F3
:10929000C3F814272848294A0023332112F02AFE54
:1092A000274B284800221A60BDE810400FF010BA82
:1092B0004FF0A0430222C3F814271F4812F05EFEAD
:1092C0002048BDE810400FF003BA06200FF06CFAFA
:1092D000B0B903200FF068FA18B904200FF064FA4F
:1092E000E0B14FF0A04200230221C2F81417124847
:1092F000124A194612F0FEFD114B00221A60DFE7F8
:109300004FF0A0430222C3F814270B480B4A234610
:10931000214612F0EFFD0A4B1C60D1E74FF0A0434D
:1093200020210322C3F80C150348C3F8142712F0B8
:1093300025FEC5E7AA310020B03100208990020047
:10934000AC3100208028002010B5074C237803B9E9
:1093500010BD06480FF0D2F94FF0A04202210023C1
:10936000C2F81417237010BDAA31002080280020F5
:10937000014B1878704700BFAA31002038B50DF0B6
:109380007DFB0DF013FB044601200FF00DFA05469E
:109390000FF0CEFA2B4602464FF43E7120460FF0F6
:1093A00053FD00B938BD0DF0FBFA00210846BDE8B9
:1093B000384010F0B3B900BF10B5074C236803B9AB
:1093C00010BD064812F0BAFD2368013B2360BDE8DA
:1093D0001040FFF7D3BF00BFD4310020D8310020A8
:1093E00008B501200FF0E0F950B9094B1A6802B92D
:1093F00008BD00221A600748BDE8084012F0BEBD53
:1094000001200FF0B3F90020FFF71AFBEDE700BFD2
:10941000D4310020D8310020014B01221A7070474E
:10942000D031002010B5044C23780BB1FFF7D8FFE2
:109430000023237010BD00BFD0310020014B1878ED
:10944000704700BFD031002038B5124B1B7803B9EC
:1094500038BD01200FF0A8F9A0B901200FF066F97E
:109460000120FFF7EDFA0C4C256845B9FFF786FFA0
:109470002B460A4A0A484FF4007112F03BFD96232E
:10948000236038BD01200FF071F90020FFF7D8FAF2
:10949000E9E700BFD0310020D4310020B9930200A9
:1094A000D83100200D4B1B7803B9704710B501204F
:1094B0000FF07AF9044600B110BD01200FF036F923
:1094C0000120FFF7BDFA064B1A68002AF4D01C6091
:1094D0000448BDE8104012F051BD00BFD03100205B
:1094E000D4310020D8310020024B1B7803B97047DB
:1094F000FFF776BFD03100200D4B1B780BB1C307AF
:1095000000D4704710B501200C460FF04DF904F05F
:109510000101814200D010BD064B1A68002AFAD022
:1095200000221A600448BDE8104012F027BD00BFB9
:10953000D0310020D4310020D831002010B503886C
:1095400004468BB14B2B0BD11C4B1B788B4227D085
:109550001B4B1B788B420DD0832907D1FFF7C4FF2B
:1095600000232380032010BD164A13704B23238051
:10957000012010BD144B9A42EED153680020984749
:10958000A0B9104B1A78002AF0D0187002F07CFBBA
:109590000E4B1B68C31A722BE8D9FFF755FFE5E79E
:1095A000D2B2032AE2D1FFF79FFFDFE702F06CFBA4
:1095B000064A044B106001221A70D7E7E5720020BA
:1095C000DC920020FC31002088760400F831002075
:1095D00008B5054812F08EFF00B108BD0146BDE890
:1095E0000840014812F0A4BE8828002008B50548AC
:1095F00012F080FF00B908BD0248BDE8084012F033
:10960000B9BE00BF8828002008B5FFF79DF80248C2
:10961000BDE8084012F092BC1432002070B5164C20
:10962000257B05B170BD06220146A0181DF027FD5F
:109630000123A580A38113F02FF9054602F030FB2A
:1096400080B250EA0540657B08BF0120206025B14B
:109650000A48BDE8704012F091BC02F01BFB084BB9
:109660001860FFF771F82B46064A04484FF4206152
:10967000BDE8704012F03EBC0032002014320020E1
:10968000103200200996020070B50E4C237B012B8E
:1096900005D006220146A0181DF0E2FC88B900257D
:1096A000A580A58102F0F6FA074B1860FFF74CF889
:1096B0002B46064A06484FF42061BDE8704012F080
:1096C00019BC70BD00320020103200200996020043
:1096D0001432002010B5094C2368834200D010BD1D
:1096E00006220846A1181DF0BBFC0028F7D1012373
:1096F00063730348BDE8104012F040BC0032002004
:109700001432002010B5084C236853B102F0C2FA9D
:10971000064B1B684FF6FF72C01A904228BF1046D6
:10972000A080014810BD00BF003200201032002090
:1097300008B50EF0CDFC00B908BDBDE80840FFF744
:109740005DBA00BF08B50EF0C3FC00B908BDBDE8A6
:109750000840FFF77DBC00BF08B50EF0B9FC00B9AA
:1097600008BD0120BDE80840FFF760BA30B52348C6
:109770008BB007F06FFD08F0EBFCE8B101A808F032
:10978000F1FCBDF80E1059B3BDF81030642404FB91
:1097900003F4B4FBF1F405A808F030FE079A214663
:1097A000174807F057FD0023164A17484FF4F051A9
:1097B00012F0A0FB0BB030BD09F082FD40B109F002
:1097C0007FFD78B9044609F08DFD21460246E7E7A2
:1097D0000E4807F03FFD0C4812F0D0FB0BB030BD37
:1097E0000C46D8E709F084FD054609F07BFD6424AA
:1097F00004FB05F4B4FBF0F4E5E700BF08740400D3
:1098000018740400119802003832002068710400B6
:10981000FFF7ACBFFFF7AABF10B50E4904460EF024
:109820006FFC68B920460C490EF06AFC00B910BD07
:1098300008F08EFC40B909F043FD08B109F04AFD7B
:10984000BDE81040FFF792BF08F006FFBDE81040EA
:10985000FEF788BF347404004074040070B51A49E0
:10986000C4B00EF085FC68B104A94FF480720EF00C
:10987000A7FE044630B1154B01469B6904A89847E2
:10988000054608B144B070BD0DF0F8F80DF08EF843
:1098900006460FF04DF804A940F20133ADF804007C
:1098A0000291304601AA4FF43E71ADF80C40ADF87C
:1098B00006300FF075FA0028E4D00DF071F8294653
:1098C00028460FF02BFFDDE794750400F87C0400B8
:1098D00010B504460EF0FCFB00B110BD2046BDE8FB
:1098E0001040FFF7BBBF00BF08B5074B0748012278
:1098F0001A7008F0DDFB064809F004F90548BDE8D8
:10990000084007F011BC00BF343200209C28002022
:1099100094280020A428002008B5084B08480022FD
:109920001A7012F02BFB074808F0D8FB064809F024
:10993000FFF80648BDE8084007F012BC34320020AA
:10994000383200209C28002094280020A4280020E1
:10995000FFF70CBF30B583B005460EF0B9FB00BB76
:109960000446174928460EF003FC054640B18DF821
:10997000074013F01DFB012804D0124807F06AFCD1
:1099800003B030BD28460DF107010EF097FD002809
:10999000F3D09DF90700431CDBB2652BEDD813F023
:1099A0000DFB13F0D5FA30B94FF0FF31064807F040
:1099B00051FC03B030BD13F0DDFA0146F6E700BFFD
:1099C0005C740400607404004C740400024B1B7847
:1099D00003B17047FFF788BF34320020024B1B7879
:1099E00003B97047FFF798BF3432002010B50D4B14
:1099F0001B78023BDBB2042B96BF0B4A4FF00044AE
:109A000052F8234010F0AAFF08B144F00054FFF7C9
:109A1000AFFC08B144F4003421460448BDE81040CE
:109A200007F018BCF42B0020F473040088750400C0
:109A30002DE9F04F89B004460EF04AFB20B1FFF744
:109A4000D5FF09B0BDE8F08FB94920460EF058FBAC
:109A5000F8B120460EF046FBB64905460EF088FBED
:109A6000044600F0FBFC4FF6FF73984200F08A803A
:109A700034B1204607A90EF033FC002840F01D81C8
:109A800000F0ECFC0146AC4807F0E4FB09B0BDE88F
:109A9000F08FAA4920460EF033FB002850D0204614
:109AA0000EF020FB04460EF013FB002840F0E0808F
:109AB0002378652BC5D163786E2BC2D1A3783D2B5B
:109AC000BFD1023414F8013F092B00F09A82202BF9
:109AD00000F09782002B00F09482413B152BF1D8C7
:109AE00001A252F823F000BF6B9C0200C59A02004D
:109AF000C59A0200C59A0200C59A0200C59A0200E2
:109B0000C59A0200659C02005F9C0200C59A020093
:109B1000C59A0200C59A0200599C0200C59A02002B
:109B2000C59A0200539C0200C59A0200C59A020021
:109B3000C59A0200C59A0200C59A02004D9C020017
:109B40007F4920460EF0DCFA40B320460EF0CAFAF8
:109B500004460EF0BDFA054600285CD123786D2B33
:109B60007FF46FAF63783D2B7FF46BAF02342046F8
:109B700074490EF0C5FA002800F0BD82284615F0A1
:109B8000F5F95EE7002C7FF474AF28466E490EF0BD
:109B9000EFFA044600283FF473AF6AE76B492046AA
:109BA0000EF0AEFAD8B96A4920460EF0A9FA00289C
:109BB00000F0E28020460EF095FA04460EF088FA96
:109BC000002800F00482634C634807F043FB2378CD
:109BD000002B00F00A82614807F03CFB31E7204689
:109BE0000EF080FA04460EF073FA002800F0DF80D1
:109BF00000F062FD02280CBF012300238DF81C3009
:109C000040F0F781564A4F495648002B18BF11467D
:109C100007F020FB15E715F02FFA0446524807F02D
:109C200019FB032C06D8DFE804F00D0902024F48A7
:109C300007F010FB0A2007F0F5FA02E74C4807F09E
:109C400009FBF7E73F4807F005FBF3E740F020008A
:109C500038E740F0010035E740F0040032E740F01B
:109C600008002FE740F010002CE740F0020029E741
:109C7000FEF7C0FE04463F4807F0ECFAE5073FD484
:109C8000200704F0040804F0020704F0100604F0B2
:109C900020051CD4B8F1000F23D14FBB002E00F0DB
:109CA0005E82482007F0BEFA002DC3D02C2007F0BA
:109CB000B9FA562007F0B6FABCE7BDF81C0000F070
:109CC000E5FB00F0F3FBDBE62C2007F0ABFA4920C4
:109CD00007F0A8FAB8F1000F00F096802C2007F0EA
:109CE000A1FA4D2007F09EFAE7B12C2007F09AFA6E
:109CF000412007F097FABEB12C2007F093FAD0E785
:109D0000502007F08FFA210704F0040804F002073E
:109D100004F0100604F02005D6D4B8F1000FDDD110
:109D2000002FE2D1002EE7D1002D83D0BEE700BF87
:109D30006C74040070740400807404009474040053
:109D400024720400FC7204007C740400BC740400DF
:109D5000DC74040034320020F474040064710400E4
:109D600028760400C4740400A8740400B8740400C5
:109D7000B474040098740400B84920460EF0C0F989
:109D8000054600284AD020460EF0ACF904460EF0F5
:109D90009FF930B9B24920460EF0B2F9002800F020
:109DA000B98100F091FD2846FFF73CF949E62046CD
:109DB000AC490EF0DDF9054600283FF442AEFF2322
:109DC000A9498DF81C300EF09BF90446002800F0DC
:109DD0003C8101238DF81C30012207A9642002F088
:109DE00045FE9DF81C30002B7FF42BAE00F064FC88
:109DF00038B101287FF425AE13F09EF800287FF4D7
:109E000020AE07F081F91CE6002F7FF46EAF002E24
:109E10007FF472AF002D7FF449AF0BE793492046E2
:109E20000EF06EF9002800F0EF8020460EF05AF98F
:109E300004460EF04DF9002840F05A818C49204626
:109E40000EF096F98B49804620460EF091F98A492A
:109E5000814620460EF08CF98849019020460EF08C
:109E600087F98346B8F1000F0CD0002004F022F9E6
:109E7000014640460EF044F9002800F0EE81002033
:109E800004F008F904F010F9022840F04E817C4FEC
:109E90003B78022B00F060820025AA4679492046D3
:109EA0000EF066F97849029020460EF061F93B7891
:109EB000022B06464FF0000740F04B813C46BAF1BA
:109EC000000F06D006A950460EF026FB002840F0F1
:109ED0000682029B2BB106A918460EF01DFB002836
:109EE00057D12EB106A930460EF016FB002855D1E9
:109EF00095B107A928460EF02BFA68B1BDF81C30C1
:109F0000A3F10A02502A40F2EF81B42B00F0EC8159
:109F1000B3F5B47F00F039822CB107A920460EF0CA
:109F200017FA00284ED1B9F1000F0CD0012004F02F
:109F30006FF9014648460EF0E3F8002800F09A81D8
:109F4000012004F01FF9019B4BB1474918460EF060
:109F5000D7F8002800F09A81012004F01BF9BBF12A
:109F6000000F09D0404958460EF0CAF8002800F00A
:109F70009A81012004F0FEF804F096F8012812D02E
:109F8000B8F1000F00F0FA80FEF71CFF04F054F95E
:109F900057E59DF8180004F099F8A2E79DF818001D
:109FA00004F0A8F8A4E70390002FE9D03749384619
:109FB0000EF0A6F8002800F0AF81039B184604F0CD
:109FC000C9F8DDE7BDF81C0004F0CCF8ABE7304978
:109FD00020460EF095F800286AD02E4C2378002BEE
:109FE0007FF4F2ADFFF780FCEEE52B4807F032F985
:109FF00027E5012207A9642002F07AFE9DF81C30B3
:10A0000000E6FEF7EDFC1CE5244920460EF078F84A
:10A0100000285CD020460EF065F804460EF058F893
:10A02000002800F0D7801E4807F014F9144B187868
:10A030000FF0A8FA01461B4807F00CF9FCF772FF75
:10A040000146194807F006F9F4E5284617490EF0CD
:10A0500057F8002858D08DF81C40BDE60475040060
:10A0600008750400D87404002876040018750400EC
:10A070001C75040020750400247504002875040074
:10A0800016730020387504003C750400007304004A
:10A09000E07404003432002068710400507504003C
:10A0A00074750400807504005C750400FC72040083
:10A0B0002046B8490EF024F800283FF4C2ACB64C54
:10A0C0002378002B3FF480ADFFF726FC7CE507A941
:10A0D00020460EF0CBF8002877D0079B9A0071D568
:10A0E00010F024FC079B9B0369D5FFF7BBF8A6E49F
:10A0F000FEF768FEA5E4A94920460EF001F890B3EA
:10A10000012014F033FF9CE49DF81C30FF2B3FF43A
:10A1100098AC61E62046A2490DF0F2FF00283FF41A
:10A1200090AC00F0B1FB00253DE603F0BDFF012837
:10A1300000F00C8100279B4B1B78022B05D10026D9
:10A14000344602963546B246EDE600252E46029587
:10A15000AA46204694490EF00BF80446AFE6002DBF
:10A160007FF4A7AD66E5204690490DF0C9FF0028B1
:10A170003FF467AC022014F0F9FE62E4BAF1000F7C
:10A180007FF402AF029B002B7FF4FEAE002E7FF423
:10A19000FBAE002C7FF4F8AEB9F1000F7FF4F4AE03
:10A1A000002F7FF4F1AE002D7FF4EEAE019B002B6B
:10A1B0007FF4EAAEBBF1000F7FF4E6AE41E4FFF7B7
:10A1C000C3F83CE410F0BAFB8CE72146784807F06E
:10A1D00041F836E4002306AA764906932046079301
:10A1E0000DF0FAFF07AA0646734920460DF0F4FF6A
:10A1F000069D044675B102200FF0C4F901462846B9
:10A200000DF07EFF002800F0948002200FF0ACF9E2
:10A210000FF0D2F9079820B10DF116010EF020F9D8
:10A2200038B95EB9002C3FF40CAC644807F012F862
:10A2300004E7BDF91600FCF75FFEF2E75F4807F0A0
:10A2400009F8584B18780FF09DF901465C4807F063
:10A2500001F8002C3FF4EEACF0E6022003F02AFFF8
:10A26000014640460DF04CFF002847D0022003F085
:10A2700011FF07E6022003F0CBFF014648460DF030
:10A280003FFFE8B1022003F07DFF5CE603904D49FB
:10A2900001980DF035FF039B00283FF460AE18468F
:10A2A00003F078FF5BE60390464958460DF028FF1F
:10A2B000039B00283FF460AE184603F05BFF5BE6AB
:10A2C000039003F0A5FF014648460DF019FF039BDC
:10A2D00000283FF438AE184603F054FF33E69DF8EB
:10A2E000180003F01BFFF4E50A22053393FBF2F399
:10A2F000D8B2ADF81C3003F025FF0DE6012003F0C5
:10A30000D9FE014640460DF0FBFE00283FF4BAADF1
:10A31000012003F0BFFEB5E503902B4938460DF050
:10A32000EFFE039A00283FF42BAE104603F012FF15
:10A3300026E60120069D0FF025F9014628460DF07E
:10A34000DFFEA0B101200FF00FF961E71F492046A1
:10A350000DF00EFF0746EEE61D4920460DF008FF02
:10A360001C49824620460DF003FF054696E5032072
:10A37000069D0FF007F9014628460DF0C1FE05467F
:10A3800050B303200FF0F0F842E7002003F0DAFEAC
:10A39000C2E500BFE874040034320020B474040045
:10A3A00010750400167300204C750400B874040086
:10A3B0006475040054750400587504007475040035
:10A3C00080750400FC7204000873040040750400EA
:10A3D0003075040034750400069F0FF0D3F8014671
:10A3E00038460DF08DFE00283FF412AF28460FF0DE
:10A3F000BBF80DE708B50A4806F096FE094806F0D6
:10A4000093FE094806F090FE084806F08DFE0848C5
:10A4100006F08AFE0748BDE8084006F085BE00BF8A
:10A42000C428002004290020F4280020D42800207B
:10A43000E4280020B428002000B583B002A900233E
:10A4400001F8013D0122642002F052FC9DF8073022
:10A450000BB906F059FE03B05DF804FB00B583B0FC
:10A46000022201A9132002F043FC022809D19DF821
:10A4700004309DF8050000EB032080B203B05DF8C6
:10A4800004FB4FF6FF7003B05DF804FB10B582B01B
:10A490000346040A022201A913208DF805308DF825
:10A4A000044002F0E3FA02B010BD00BF70B582B004
:10A4B000FFF7D4FF7C4E7D4C33680546984741F248
:10A4C000883262604BF60862002301219542E172F6
:10A4D0002370A37023726372A37263702373637318
:10A4E0002CD040F285804BF65D639D4226D016D974
:10A4F0004BF6C2639D4200F0BF8000F29F804BF696
:10A5000062639D4204D04BF664639D4240F09E809E
:10A5100002234EF660222370A370626016E04BF6B1
:10A5200031639D4276D040F2BA804BF651639D4232
:10A5300004D04BF65B639D4240F088800123237278
:10A540006372A3722370002014F084F802A9002320
:10A5500001F8013D0122642002F0CAFB9DF807309A
:10A560005BB302235248237011F008FD6078FEF7B8
:10A5700037FAA07803F09EF8606814F019FAA3780F
:10A58000012B0CBF05200A200AF08CFB237A63B351
:10A59000FEF768FE637A1BB300F0DEFAFFF718F8E7
:10A5A000E07A06F0A9F8237B8BB1FFF70FFA637B03
:10A5B00093B9B368984702B070BD25783C4811F054
:10A5C000DDFC9DB3032DD1D114F05EF8CEE7FFF78B
:10A5D00005FA637B002BECD07368984702B070BD1E
:10A5E00000F0C4FAFFF702F8DAE7FEF7ADFED1E7B4
:10A5F00043F658639D42A1D02BD943F661639D4237
:10A600009CD046D943F667639D4297D043F6C16319
:10A610009D421BD101230222002024212270A2701E
:10A62000237223736373E07261708FE72B46214AB4
:10A630001F484FF4F05111F05DFC97E74BF6C463EF
:10A640009D4219D04BF6CE639D42E3D00023E372C6
:10A6500079E743F60B639D423FF470AF08D943F6A8
:10A660000D639D4208D043F63E639D42D2D0EDE794
:10A6700043F601639D42E9D10123022000212422F7
:10A680002070A3702372637223736373E17262702C
:10A690005CE743F65E639D423FF43AAFD6E74BF684
:10A6A0000E639D42E8D0D1E7F87C040058320020C8
:10A6B0006832002039A40200014B1878704700BFAF
:10A6C00058320020014B987A704700BF5832002062
:10A6D0004BDF704710B5114C84B001A8FFF7F8FFAD
:10A6E000A8B9214602A81AF07DFA039B002BF4D0EA
:10A6F000D3E900210198904702A81AF07DFA039B44
:10A70000002BF5D101A8FFF7E3FF0028E9D00528C9
:10A7100001D019F0E3FB04B010BD00BF687604005F
:10A72000062809D0072805D0032801D0002070474B
:10A7300014F0E4BB01F00EBA01F012BA38B50824E7
:10A740000025013CE0B26D00FFF7EAFF08B145F0DB
:10A750000105002CF5D1E8B238BD00BF08B512F0F4
:10A76000EBFB064B1A7820B1012A01D001221A70A6
:10A7700008BD022A1CBF02221A7008BDA0320020A8
:10A7800070B503880446B3B1E12B10D1254D2B7869
:10A79000032B1ED02448007888422CD0234E3278D8
:10A7A0009A421DD11BB1E1232380012070BD0023FB
:10A7B0002380032070BD1D4A1D48137011F0FEFC5C
:10A7C000FFF7CCFF1B4811F087FEE1232380012017
:10A7D000ECE7194B1B68DBB1144E3378032BE2D046
:10A7E000144A8621002011F057FE50B92B7833709F
:10A7F000002BD8D1DBE7D206D0D5FFF7AFFF2B78FF
:10A80000CCE70C4811F068FE2B78002BCBD1CEE7BB
:10A81000074811F0C5FC0028F1D000F0B3F82B7800
:10A82000BCE700BFA0320020467A0020983200200A
:10A8300088320020142900209C320020034B197814
:10A8400001B17047024811F073BD00BFA032002073
:10A8500014290020014B1878704700BFA032002057
:10A86000024A136801331360704700BF9C32002016
:10A87000034A13680BB1013B1360024811F02CBE70
:10A880009C320020142900200B4A1378013B012B35
:10A8900000D9704770B5094C094D266809482560F4
:10A8A00003234FF48071137011F05CFC284626607E
:10A8B000BDE8704011F010BEA0320020247A0020C4
:10A8C000142900208832002008B5074B1B78032B81
:10A8D00000D008BD054811F071FCFFF73FFF0448A8
:10A8E000BDE8084011F0F8BDA032002088320020F9
:10A8F0001429002041DF704770B502F01BFA01F007
:10A90000DDFA00F059FF14F02FFC12F00FFA0021CD
:10A9100019481A4D11F00CFD194811F069FA40263A
:10A9200011F048FD044601F067FA002CF8D11AF046
:10A930003BF900B972B611F0A5FD28B11AF034F94F
:10A940000028EDD162B6EBE7D5F804315B0609D5F6
:10A95000F1EE103A23F09F03E1EE103AF1EE103AD7
:10A96000C5F884611AF020F918B9BFF34F8F30BFD2
:10A97000E4E7FFF7BFFFE1E7202C002000E100E063
:10A980004871040008B513F071FC002014F0EEFAD1
:10A99000074B00219B688120984712F03DFB12F085
:10A9A0007FFA12F0C1FABDE8084002F0E3B900BF37
:10A9B00088760400024B187808B1024B187870476B
:10A9C000B5320020B6320020813801289ABF024BF0
:10A9D00018780020704700BFB532002010B50388FA
:10A9E00004463BB1952B09D182291FD0882909D073
:10A9F000832903D095232380012010BD00232380C9
:10AA0000032010BD134B9A42F4D1104611F0C8FB3D
:10AA10000028EFD000F0E0F80F4B19788142024691
:10AA2000E8D00E481A7011F039FEE3E7094811F03A
:10AA3000B7FB50B100F0D0F8074B1B788342D9D058
:10AA40000D21044811F08EFBD4E7024811F0B6FB4B
:10AA5000F0E700BFA4320020B63200208876040060
:10AA600008B501F09DF90248BDE8084011F034BD79
:10AA70002829002008B50D4811F03CFD28B90C4BE1
:10AA80001B7813B10B4B1B7803B908BD014607486F
:10AA900011F04EFC00F076F800F09EF8064B1870AE
:10AAA000BDE80840014811F017BD00BF282900206B
:10AAB000B5320020B4320020B632002008B50F486D
:10AAC00011F018FD80B10E4B1B7813B10D4B1B78A4
:10AAD00053B900F077F80C4811F062FB28B1074831
:10AAE000BDE8084011F046BC08BD074811F066FB00
:10AAF0000248BDE8084011F03DBC00BF28290020F5
:10AB0000B5320020B4320020A4320020812838B5AC
:10AB10000CD0822807D0802801D0002038BD0D4BF2
:10AB20000020187038BD0B4B187838BD094B0D4606
:10AB30001C7811B94CB9204638BD002CEDD101224A
:10AB40001A70FFF797FF204638BD1970FFF7B6FF60
:10AB5000284638BDB5320020034B1A7802B1704741
:10AB600001221A70FFF786BFB4320020034B1A7817
:10AB700002B9704700221A70FFF7A0BFB43200205C
:10AB8000FFF76EBF10B582B018F0AEF9A8B103237D
:10AB900002240B4A8DF8043001A91C208DF80530E1
:10ABA0008DF8064018F0DCF908B119F097F9012189
:10ABB0001C2018F05DFA02B010BD18F04FF9E6E75E
:10ABC00081AB020008B51C2018F0B4FA1C20BDE8C7
:10ABD000084018F0E1BA00BF4FF0A043D3F81005C9
:10ABE0006FEA107000F00100704700BF704700BFAF
:10ABF00070B400B1C9B9EAB1E3B12349234C0020D4
:10AC000002252570C1F84405C1F84805C1F834256E
:10AC1000C1F83835C1F810011B4B01220021C3F8DF
:10AC200004111A61104670BC704700F06044B4F122
:10AC3000005F02D0002070BC7047AAB1A3B102F03F
:10AC40006044B4F1005FF5D1104D0F4C03262E7017
:10AC50000025C4F84405C4F84815C4F83425C4F8E0
:10AC60003835C4F81851D7E7074B084C00220125A6
:10AC70002570C3F84405C3F84815C3F83425C3F854
:10AC80003825C3F82021C7E700300040BB32002040
:10AC900011490B78032B08D8DFE803F010021711D5
:10ACA0000E4AD2F82031002BFBD00C4A012353610D
:10ACB000D2F80431002BFBD000230B707047074AF9
:10ACC000D2F81831002BFBD0EFE7044AD2F810314C
:10ACD000002BFBD0E9E700BFBB3200200030004072
:10ACE00038B5084B1B781BB1074B01221A7038BDD1
:10ACF000064D03F0FF0401232B7013F09BF92C7019
:10AD000038BD00BFBA320020B7320020B93200206F
:10AD10000449054B00220A70197801B970471A706E
:10AD200013F088B9BA320020B732002030B50F4C8A
:10AD3000237883B00BB103B030BD03F0FF0141F0C5
:10AD40000203ADF804100125094A8DF8063001A967
:10AD50001F208DF8045018F003F90028EBD1294684
:10AD60001F20257018F084F903B030BDB8320020E0
:10AD7000E1AC020010B5054C237803B910BD1F20CB
:10AD800018F00AFA0023237010BD00BFB83200206B
:10AD90001A4BD3F8002512F007022ED130B40B2045
:10ADA0000C25C3F808054FF0A041C3F80C550D2041
:10ADB0004FF00055C3F81005C3F82455FF204FF09D
:10ADC0000075C3F8C005C1F8085503204FF40065AD
:10ADD000C1F86407C1F80C554FF48055C1F82C0731
:10ADE000074CC1F80C550725C1F83007C1F83427C6
:10ADF000C3F80055227030BC7047704700300040E7
:10AE0000BB3200200E49D1F800355B0717D030B4B3
:10AE10004FF0A0430B480C4D02220024C1F800451E
:10AE2000C3F86427C3F82C27C3F83027C3F83427A6
:10AE30002C70012304600268036030BC70477047C7
:10AE400000300040FC3F0040BB320020054BD3F8EF
:10AE50002425B2F1005F1CBF4FF00052C3F8242537
:10AE6000704700BF00300040054BD3F82425B2F1F5
:10AE7000004F1CBF4FF00042C3F82425704700BFAD
:10AE8000003000401D4B2DE9F0414FF0A044002759
:10AE9000C3F8007503254FF000724FF40063184E9D
:10AEA000C4F80825C4F864574FF48052C4F80C3530
:10AEB0004FF08063C4F82C5746F00106C4F80C2507
:10AEC0004FF42070C4F83057C4F83477C4F80C3508
:10AED000C4F86857B0474FF00063C4F8687722465B
:10AEE000C4F80835C4F86C57D2F810355B01FBD5AF
:10AEF00033464FF42070BDE8F04118470030004061
:10AF0000A07604004FF0A042D2F810355B01FBD5CB
:10AF1000024B4FF4207043F001031847A076040061
:10AF20002A4BD3F800355B0740D0F0B583B031BB76
:10AF30008DF8000002230125254C227812B9254AFC
:10AF4000012111704FF0A0464FF00077224AC6F859
:10AF50000C751278FAB901AA29466846FFF748FE2F
:10AF6000C8B1FFF795FEC6F8087523780BB9FFF74F
:10AF7000CFFE02AB1D4415F8040C03B0F0BD40F049
:10AF800040007F298DF80000CBB211D88DF8013038
:10AF900002250323D0E74FF0A0434FF00072C3F81F
:10AFA0000825237873B1FF2003B0F0BDFF20704760
:10AFB00063F07F03C9098DF801308DF80210042376
:10AFC0000325B9E7FFF7A4FEEDE700BF003000401E
:10AFD000B9320020BA320020BB3200202D4BD3F80A
:10AFE00000355B0745D0F0B585B051BB8DF8040046
:10AFF00003230125284C227812B9284A0121117017
:10B000004FF0A0464FF00077254AC6F80C7512782D
:10B010001ABB02AA294601A8FFF7EAFDE8B1FFF72B
:10B0200037FEC6F8087523780BB9FFF771FE04AB3D
:10B030001D4415F8073C15F8080C40EA032005B03C
:10B04000F0BD40F040007F298DF80400CBB213D84A
:10B050008DF8053002250423CCE74FF0A0434FF0D4
:10B060000072C3F80825237883B14FF6FF7005B04E
:10B07000F0BD4FF6FF70704763F07F03C9098DF88C
:10B0800005308DF8061005230325B3E7FFF740FED2
:10B09000EBE700BF00300040B9320020BA32002098
:10B0A000BB320020314BD3F800355B074DD0F0B5F3
:10B0B00085B091BB8DF80400052301242C4D2A781E
:10B0C00012B92C4A012111704FF0A0464FF00077C1
:10B0D000294AC6F80C7512785ABB02AA214601A863
:10B0E000FFF786FD28B3FFF7D3FDC6F808752B7868
:10B0F0000BB9FFF70DFE04AB1C4414F8060C14F852
:10B10000071C14F8082C14F8053C000440EA012040
:10B11000104340EA036005B0F0BD40F040007F29D5
:10B120008DF80400CBB213D88DF805300224062325
:10B13000C4E74FF0A0434FF00072C3F808252B7806
:10B1400083B14FF0FF3005B0F0BD4FF0FF307047D6
:10B1500063F07F03C9098DF805308DF806100723C9
:10B160000324ABE7FFF7D4FDEBE700BF003000405E
:10B17000B9320020BA320020BB3200202DE9F04F56
:10B180004E4CD4F800451E4663078BB07FD09146E5
:10B19000002953D101248DF80000A046484F3B7888
:10B1A00013B9484B01221A704C444FF0A043A4B28B
:10B1B0004FF00072232CC3F80C255BD8E5B2DFF802
:10B1C0000CA19AF80030002B44D101AA2B4641462D
:10B1D0006846FFF70DFD00283CD0641BA4B2A5EB28
:10B1E000080506EB050B44B91EE0FFF701FDA4EBD3
:10B1F0000903A0B19CB2CB44B4B1FFF749FD9AF862
:10B2000000C0FF2CA1460CF0FF0128BF4FF0FF0942
:10B210005A4608465FFA89F3BCF1000FE5D0224692
:10B220005846FF21FBF77EF8FFF732FD01AB2A46B7
:10B2300003EB080130461BF022FF10E040F0400015
:10B240007F298DF80000CBB22DD802248DF8013073
:10B25000A046A3E74A463046FF21FBF763F84FF0CC
:10B26000A0434FF00072C3F808253B78B3B10BB090
:10B27000BDE8F08F144DA5FB043504EBD51505F0A2
:10B28000FF05A5F11303102B88BF132597E7304660
:10B29000FF21FBF747F80BB0BDE8F08FFFF738FD53
:10B2A0000BB0BDE8F08F63F07F03C90903248DF86C
:10B2B00001308DF80210A04670E700BF003000405A
:10B2C000B9320020BA32002081808080BB32002059
:10B2D000284BD3F800355B0727D010B582B029BBC7
:10B2E00060F07F008DF8040002210123224C02A8A7
:10B2F0000344207803F8042C10B9204B01221A7063
:10B300004FF0A0421E4B4FF00070C2F80C051A78A7
:10B3100002F0FF03FAB14FF0A0434FF00072C3F800
:10B32000082523789BB102B010BD704760F03F0044
:10B330007F298DF80400CBB216D963F07F03C909C9
:10B340008DF805308DF8061003230421CEE7FFF7B2
:10B35000DFFC02B010BD1A4601A8FFF749FC002827
:10B36000D9D0FFF795FCD6E78DF8053003210223ED
:10B37000BCE700BF00300040B9320020BA320020E4
:10B38000BB3200202B4BD3F800355B072CD030B5F7
:10B3900083B051BB60F07F008DF8000003210223D1
:10B3A000012002AD244C28442B44257800F8082CB9
:10B3B000120A03F8082C15B9204B01221A704FF01D
:10B3C000A0421F4B4FF00070C2F80C051A7802F033
:10B3D000FF0302B34FF0A0434FF00072C3F80825FB
:10B3E0002378A3B103B030BD704760F03F007F29E0
:10B3F0008DF80000CBB217D963F07F03C9098DF82F
:10B4000001308DF80210042305210320C9E7FFF75E
:10B410007FFC03B030BD1A466846FFF7E9FB002801
:10B42000D8D0FFF735FCD5E78DF801300421032390
:10B430000220B6E700300040B9320020BA320020C6
:10B44000BB320020334BD3F800355B0737D070B5E3
:10B4500082B0A9BB60F07F008DF8000005210423B5
:10B460000320022401260DF1080C664464442A4D91
:10B4700006F8082C160A04F8086C604463442C781B
:10B48000160C120E00F8086C03F8082C14B9234BA4
:10B4900001221A704FF0A042214B4FF00070C2F809
:10B4A0000C051A7802F0FF0312B34FF0A0434FF0DF
:10B4B0000072C3F808252B78B3B102B070BD704795
:10B4C00060F03F007F298DF80000CBB219D963F0FE
:10B4D0007F03C9098DF801308DF80210062307217A
:10B4E000052004240326BEE7FFF712FC02B070BD5E
:10B4F0001A466846FFF77CFB0028D6D0FFF7C8FB4A
:10B50000D3E78DF801300621052304200324022609
:10B51000A9E700BF00300040B9320020BA32002055
:10B52000BB3200202DE9F043454CD4F800456407B8
:10B530008BB031D0002946D160F07F0401208DF816
:10B540000440014605463F4F3E7816B93E4C012661
:10B5500026701544ADB24FF0A0424FF00074232D79
:10B56000C2F80C451BD8ECB22E469846761A01ABB1
:10B57000DFF8DC903246184441461BF080FD99F814
:10B58000002002F0FF0382B34FF0A0434FF000729F
:10B59000C3F808253B788BB10BB0BDE8F0832B4C8A
:10B5A000A4FB052405EBD41404F0FF04A4F113025A
:10B5B000102A8ABF132626463446D6E7FFF7A8FB93
:10B5C0000BB0BDE8F08360F03F007F298DF80400E8
:10B5D000CCB22FD9C909032064F07F048DF806107E
:10B5E0008DF8054001460546ADE701A81A462146FB
:10B5F000FFF7FEFA0028C7D02C1BA4B2B0443CB918
:10B6000015E0FFF7F5FA641BA4B280B1A84474B149
:10B61000FFF73EFB99F80060FF2C254606F0FF037C
:10B6200028BFFF2540461A46E9B2002EE9D0FFF7B1
:10B630002FFBA9E702208DF805400146054682E769
:10B6400000300040B9320020BA3200208180808072
:10B65000BB32002041DF704710B50388044623B198
:10B66000B3F5997F09D182290BD00D4B1B7823B1FB
:10B670004FF499732380012010BD00232380032001
:10B6800010BD084B1B68002BEFD0074A1178032927
:10B6900002D110789847E8E711780229E5D1F8E758
:10B6A000C0320020BC320020C2320020F8B5354D37
:10B6B0002A684FF0A04602F5E073042146F82310F3
:10B6C000142404E000F046FB013C2A6806D0D6F8BA
:10B6D0001035D340DF074FF00A00F3D54FF0A046F6
:10B6E000D6F81005D04010F0010038D0696801F597
:10B6F000E074042346F82430D6F8103523FA01F11B
:10B70000C90734D4012702F5E07307FA02F040F2CA
:10B710000161C6F80805102446F8231001E0013C39
:10B720002CD007FA02F2C6F80C25052000F012FB17
:10B730002B6807FA03F3C6F80835042000F00AFB6B
:10B740006968D6F810352A68CB40DB07E7D501F5E4
:10B75000E0744FF0A043022143F82410012002F5C9
:10B76000E0724FF0A043022143F82210F8BD0120FF
:10B770004FF0A043022143F82410F0E7204601F5E2
:10B78000E074F5E740290020064B1A7842B10278B0
:10B790000548002A0CBF032202221A7010F09CBE3A
:10B7A000704700BFC232002034290020014B1878B6
:10B7B000704700BFC232002008B50C4803684FF044
:10B7C000A04203F5E073042142F82310436803F517
:10B7D000E073142042F8231000F0BCFAFFF766FF74
:10B7E000034A044B107000221A7008BD4029002043
:10B7F000C1320020C23200202DE9F0411A4B1B78E3
:10B8000023B1DFF8808098F800701FB10024204633
:10B81000BDE8F0810E460546FFF748FF04460028C4
:10B82000F4D0012D1149124A12480CBF4FF0C865DF
:10B830004FF0CC753B468D6018F08CFC0028E5D1AC
:10B840000D4B0E4A1E600123107088F800303EB187
:10B850000B4810F04FFE18B90146094810F068FD7A
:10B86000044818F033FDD2E7C132002040290020FF
:10B8700089B70200A8760400BC320020C232002042
:10B8800034290020C032002038B5124B1B7813B188
:10B89000114C237803B938BD1048114D18F026FD1E
:10B8A0000E4818F0C1FC0F4A0F49002323700120F5
:10B8B00013601468106028460B7010F01BFE0028FF
:10B8C000E9D00A4B1B68AB42E5D02846BDE83840BA
:10B8D00010F050BDC1320020C0320020A876040014
:10B8E00034290020FC4F0040C2320020247A00207E
:10B8F000F8B5054600F0C8F9184E194C0544402724
:10B9000007E0BFF34F8F30BF00F0BEF9281A0028C0
:10B910001BDB3378012B1AD1D4F804315B0609D52F
:10B92000F1EE103A23F09F03E1EE103AF1EE103AF7
:10B93000C4F8847119F038F90028E2D0FFF78AFEC4
:10B9400000F0A2F9281A0028E3DA0020F8BD3078C8
:10B95000A0F10300B0FA80F04009F8BDC232002027
:10B9600000E100E038B50D4B1C788CB10C4B1C7815
:10B9700074B10C4C2378012B0CD0134601250A46D8
:10B9800001460948257018F0EBFEB0FA80F464090E
:10B99000204638BD0024204638BD00BFC1320020FB
:10B9A000C0320020C2320020A8760400F8B5124C44
:10B9B0002478DCB1114C2478C4B1114E3478012CB8
:10B9C00016D0104D6A60069A2B610C460146C5E9F7
:10B9D0000224697001240C48347002272946002291
:10B9E0002F7018F0A1FCB0FA80F464092046F8BD6D
:10B9F00000242046F8BD00BFC1320020C032002024
:10BA0000C2320020C4320020A876040030B50F4CAA
:10BA1000247883B09CB10E4C247884B10D4D2C78E1
:10BA2000012C0FD01C460094134601240A460146FF
:10BA300009482C7018F0D2FDB0FA80F46409204651
:10BA400003B030BD0024204603B030BDC132002019
:10BA5000C0320020C2320020A876040041DF7047C7
:10BA6000F8B5294B294DD3F804452B68284A294FAE
:10BA700016682949DFF8B8C0E31A23F07F43C3EB07
:10BA8000431003EB80003044106010681668C6F362
:10BA9000080616603E68400A06443E600F681F4E66
:10BAA000384408600A680F68ACFB020292094FF440
:10BAB0007A7000FB1270086031681948194F0A4407
:10BAC0003260026818491344036002683B6803EB64
