:10000000A8460020550300005103000051030000E2
:1000100000000000000000000000000000000000E0
:10002000000000000000000000000000510300007C
:100030000000000000000000510300005103000018
:1000400051030000510300007908000089060000F8
:10005000AD030000510300005103000051030000F4
:100060005103000051030000510300005103000040
:1000700051030000D115000051030000510300009E
:1000800045B70000510300005103000000000000CC
:1000900000000000E90C00005103000051030000C3
:1000A000510300007FB50588040016005C2D0FD0B9
:1000B0007E2D30D0002D47D100F030F9244B2A009E
:1000C0001868852107F01AF95C232380012002E0DB
:1000D0000120852901D004B070BD1E4B01219B6811
:1000E0008120019398471C4802F09EF91B4802F0BA
:1000F0009BF900F0EFF802ABD91D0A230122002082
:100100000B7000F00FFD09F0DDFD154B1B6901932D
:1001100098477E23D9E78229FBD0124B1B788B426C
:10012000F7D10C4B9A42F4D102F012FA0E4802F0C9
:100130007BF9736800209847002803D00B4802F031
:1001400073F9E6E70A48FAE7002303800320C2E7D1
:100150009C20002084030100C4010100C8010100AB
:10016000A4050100AD200020F90101000D020100ED
:10017000130201007047704710B503F0EDFF10BD8A
:1001800007B56B46D91D0A23012200200B7000F031
:10019000C9FC07BD73B56B4600269D1D00232E804C
:1001A000C356B34213D101AC022221001320238095
:1001B00001F032FF022802D001235B4223806278E3
:1001C0002178134802F030F9FFF7DAFF73BD2900F8
:1001D00002F014FB002817D001AC022221001320EA
:1001E000268001F019FF0228E9D02B8821001A0A85
:1001F000227013200222637001F0B0FF0028DED1CC
:10020000023002F0B3F9DAE7012002F0AFF9DDE7DE
:100210001702010010B500240457002C3FD12248DA
:1002200002F002F902F03AFCFFF7AAFF1F4802F0C1
:10023000FBF804F0ABF9FFF7A3FF1D4802F0F4F858
:1002400000F01FF9FFF79CFF1A4802F0EDF81A4A78
:100250001A4B12689A4221D12100200001F0BEFB06
:100260000100174802F0E0F807F07AFE0100154897
:1002700002F0DAF80E212B2001F09EFB010012485B
:1002800002F0D2F807F08CFE0100104802F0CCF822
:1002900007F0A6FE01000E4802F0C6F810BD0120CE
:1002A00002F064F9FAE7C04647020100500201007B
:1002B0005602010060020100980100203001CADEF0
:1002C000710201001B0901007C0201009002010083
:1002D000CA08010010B5084802F0A6F809F0D8FBDA
:1002E0000100064802F0A0F801F020FD01000448DA
:1002F00002F09AF810BDC046270201003602010044
:100300003F020100002310B5C356002B02D1FFF7B6
:10031000E1FF10BD012002F029F9FAE710B502F063
:1003200005F9074802F0EAF8064802F0E7F806483F
:1003300002F0E4F802F074FB044802F0DFF810BDAC
:100340002C0000201C0000200C0000204401002094
:10035000FEE700000E480F4910B5002388420FD178
:1003600000210D4B0D4A93420FD3FF220C4B9343B8
:100370000C4A936000F040FCFEE7C458043314605C
:10038000094CCA18A242F8D3EAE702C3EBE7C04619
:100390008819010000000020D8020020A4260020B7
:1003A0000000000000ED00E0D8020020F7B56A462A
:1003B0008027274C01AE2369951D9BB23380E368EB
:1003C0003F019BB22B802B889BB2A36033883B42BA
:1003D00005D02B883B4202D001F03AFD27618027EF
:1003E00033887F013B4205D02B883B4202D001F08D
:1003F0004BFD276180273388FF003B4205D02B88C7
:100400003B4202D008F018F82761102733883B429E
:1004100005D02B883B4202D009F022FA276104273D
:1004200033883B4205D02B883B4202D001F070F864
:10043000276133888026B601334205D02B883342AA
:1004400002D000F0F5FE26612B889BB2E360F7BD79
:1004500000180040023810B5052810D80FF074F8C5
:1004600003060F0F090C0AF04FF910BD09F022FB2B
:10047000FBE700F0ABF9F8E700F0AAF9F5E7002098
:10048000F3E713B50824013CE0B2FFF7E3FF431E96
:1004900098416B463030D91D08700122002000F0D1
:1004A00041FB002CEFD113BD024A937A5BB2002BC3
:1004B000FBDB704700140040002382B00648074A67
:1004C0000193C368DB0704D4019B591C019193423B
:1004D000F7D902B07047C04600080040FEFF000098
:1004E000F7B5FFF7E1FF424D424F2B693C6800939F
:1004F0001C1B414B197802394B4259413F4B494231
:1005000019403F4BC918A14214D820000FF0ACF895
:100510003C4A0C0013681B181360FA239B003A4AEC
:10052000434311685B181360FA23384A5843116833
:1005300040181060304B1B78022B02D1304B5C43CB
:10054000A40A334E334833682D49604301930FF0BA
:1005500005F8FA21019B8900C018306030680EF060
:10056000FDFFFA229200424333689B1A264A336009
:100570001368294E1B1813603368181830603268EE
:10058000264B9A420ED9FA21306889000EF0E6FF18
:10059000FA239B0043433268D31A1A4A3360136824
:1005A000181810601E4E192133681C193460306809
:1005B0000EF0D4FF154A13681B181360192250431C
:1005C0003368181A009B30601C003B60FFF76CFF1B
:1005D0000123094A1834AC611370C1222A72EB71ED
:1005E00006F0D2FC002801D006F03AFCF7BDC04668
:1005F00000140040DC0200203C00002096EBFFFFCE
:100600006A180000F0020020E8020020E00200204A
:10061000EC02002040420F00F4020020E70300003B
:10062000E40200202023154A10B591690B43936121
:100630000F2318403133184372B6114B1A00597802
:10064000C909FCD102240F490C705B881B0A62B6F1
:1006500040218B431B021B199BB272B65178C9090A
:10066000FCD1538053885B04FCD4000202305378E1
:10067000DB09FCD1508062B610BDC04600040040CA
:10068000000C0040020C0040012310B5064C227AF9
:100690001A4206D0A371054B1B78012B01D1FFF73D
:1006A0001FFFC123237210BD001400403C00002036
:1006B00000231B4A70B513601A4A1B4E13601B4A75
:1006C00013601B4A13601B4A13601B4A13601B4ACA
:1006D00013603378002B19D10125194C0120FFF745
:1006E000A1FFFFF7E1FE2580FFF7DEFE1823A361DF
:1006F000144B1D70C1232372E571FFF7D5FE08224C
:10070000114B2380114B1A60E5713570FFF7D4FE51
:100710000F4B104ADB68DB07DB0F137070BDC04660
:10072000E4020020E0020020D9020020EC020020B8
:10073000E8020020F4020020F0020020DC02002089
:10074000001400403C0000200208000000E100E02E
:1007500000080040D8020020014B18687047C046CE
:10076000E0020020014B18687047C046F0020020EC
:1007700010B500F0B6F810BD70B5EFF3108672B684
:10078000FFF792FE0B4B0C4A18690C4B1B68146860
:100790000B4A156886F31088C31A0A480A49584359
:1007A0000EF0DCFEFA21401989000EF0D7FE001988
:1007B00070BDC04600140040E8020020DC020020AA
:1007C000EC02002040420F006A1800000120704730
:1007D000014B18787047C046D8020020044BDA79E4
:1007E00052B2002AFBDB02211A788A431A70704742
:1007F0000010004007B5012103200AF0BFFC011ED4
:1008000014D1052268460EF08DFD6A460923137047
:10081000013B9370FFF7E2FF01227D21044B9A71A7
:100820001A788A43FCD168460AF0D6FC07BDC04658
:1008300000100040044BDA7952B2002AFBDB02229E
:1008400019780A431A70704700100040084BDA7993
:1008500052B2002A03DA01229A715A717047A52216
:1008600000211A72034A118001221A71F6E7C0466C
:1008700000100040F802002001220B4B987919006B
:100880009A7110420DD0094A1388012B0AD8CB79EE
:100890005BB2002BFBDBA5230B72138801339BB2E9
:1008A00013807047FEE7C04600100040F8020020A9
:1008B00003231840064B04221969032802D10A4376
:1008C0001A61704791431961024B5870F9E7C046AD
:1008D00000ED00E00004004010B50120FFF7E8FF44
:1008E00010BD80B582B000AF78600138BFF35F8F74
:1008F000BFF35F8FBFF35F8FBFF35F8FC046F4D14D
:10090000C046BD4602B080BD0369C268934201D8AB
:1009100080681B18013B981A7047F7B5C36814002C
:100920000193019A836805009E1A43680F00981886
:10093000A64206D922000EF0ECFC019B1C19EC60CB
:10094000F7BD3200A41B0EF0E4FCB9192200686860
:100950000EF0DFFCF3E70023F7B506001700C568CB
:10096000019100933369B4689D421FD2013B5B1B28
:10097000641BBC4200D93C009C4200D91C00736837
:100980002200581901990EF0C4FC009B2D191B1967
:100990000093019B3F1B1B190193B368AB4200D12D
:1009A0000025F560002FDDD10098FEBD1B19DDE7A5
:1009B000032310B5104C114923616361104BA161F1
:1009C000E361802321660F49DB0002222362616616
:1009D00000231021A36263622367E366E262A166DB
:1009E0006267094909480EF005FD094920000EF02B
:1009F00001FD2023A37110BDFC020020DE020100D6
:100A0000B4030020A4030020E70201000303002038
:100A1000EB020100F0B5274B85B01B7801905BB26B
:100A200002911500002B01D1FFF7C2FF1823019A94
:100A3000002653431F4AD318DA6E1C6F0392944268
:100A400019D99B6E2E001B1B9D4200D91E00182732
:100A5000019B32005F43174B0298DF197B6EAD1B81
:100A600019190EF056FC029BA4199B190293BB6E38
:100A7000A34200D10024039B1B1B9D4200D91D00F3
:100A8000002D0CD01823019A02985343094A761975
:100A9000D318596E2A0009190EF03BFC6419002E78
:100AA00005D01822019B5A43024B9B181C6730004B
:100AB00005B0F0BDFC020020F8B516001822451C58
:100AC00055434243164B0F00ED189B18DC6A012C6E
:100AD00012D0002C03D0022C1BD000240AE02800E6
:100AE000FFF712FF864205D8320039002800FFF7D1
:100AF00014FF34002000F8BD2800FFF705FF340084
:100B0000864200D90400220039002800FFF705FFC3
:100B1000F0E732002800FFF71EFF0400EAE7C046B6
:100B2000FC020020F8B50B4B05001B780E005BB2F1
:100B30001700002B01D1FFF73BFFEFF310840121D9
:100B400081F310883A0031002800FFF7B5FF84F3E5
:100B50001088F8BDFC02002004231D4A10B5D1699D
:100B600086B00B43D36120221A4BFF321A8303A8AD
:100B700009F006FF03991848184A0840184B90429C
:100B800006D104980190019C1648204098421CD040
:100B9000154801400A430392049A03A80192FC22DB
:100BA000019912020A401343049309F0BFFE002882
:100BB0000BD00E48FFF7DCFDBFF34F8F0C4B0D4AF7
:100BC000DA60BFF34F8FC046FDE706B010BDC046E8
:100BD000000400400040004177FF01FE378700D845
:100BE0005A00FFFFFF03FFFF8800FE0150C3000013
:100BF00000ED00E00400FA0510B5264C01F072F992
:100C0000FFF7AAFFFFF768FE0AF00AFB0AF08CFB69
:100C1000FFF74EFDFFF7EEFD06F0FAFA00211E4841
:100C200006F094FB06F016FAFFF704FE208806F0A3
:100C3000FBFC01F0EDF903F09BFC002802D12068D9
:100C400003F02EFC01F038FF02F048F908F038FFFD
:100C500008F030FF01F03CF81048002106F076FB68
:100C60000F4806F0CFF806F0EBFA0400FFF7EEFDB0
:100C700001F080FB002CF6D1EFF3108472B606F081
:100C800033FB002802D1BFF34F8F30BF84F31088AD
:100C9000E9E7C0460CA08000680100208001002028
:100CA000BC010100024A537E5BB2002BFBDB7047A4
:100CB00000400042034B00201B78022B01D1024B65
:100CC00018887047B8070020520000200300813BBD
:100CD0000020012B04D8034B1878023843425841B6
:100CE0007047C046B80700200122014B9A75704733
:100CF00000400042184B70B51E780020022E26D10D
:100D0000164CFFF7CFFF23780125334323700F23C1
:100D10002376E575FFF7C6FF2673237E2B4217D097
:100D20000F232376FFF7BEFF658BFFF7BBFF022281
:100D300023780B48934323702423ADB26843FF33D9
:100D4000000B584364210EF009FC000980B270BD0D
:100D5000BFF34F8F30BFE0E7B807002000400042EC
:100D6000DC05000013B50F4B00205B68019398472A
:100D70000D4C002813D00D4B22889A420CD8FFF757
:100D8000F1FC0B4B07211B68C01A0EF0E7FB094B67
:100D90001B88C018208001E0074B238013BDFFF79C
:100DA000A9FFF7E79C030100520000203510000066
:100DB000BC0700207000002036100000F0B50C00C9
:100DC00085B0812853D0822800D16DE080284CD195
:100DD000012100200AF0F6F80026B04240D110248C
:100DE0003100220068460EF09DFA6B4607225B78C0
:100DF000012593436A462B43537013783022934363
:100E00006A462343137013791F22694693432B4389
:100E10000B714B790F2793431A00182313434B711F
:100E20002823CB7002238A786846BA4313438B7019
:100E3000204B0A7B0B81F623FF334B810423BA43FB
:100E400013430B730AF028F908211B4A1B4B167039
:100E50002E0059601A490B783B401C430C701570EA
:100E6000184B19481E7001F049FB002411E0154B86
:100E70001A78002910D00024012A0AD10132210059
:100E800012481A7006F062FAFFF76CFF104806F07D
:100E900013FB200005B0F0BD022AFAD1013A0B483D
:100EA0001A7006F0ADF9F1E7064B1C78023C63427C
:100EB0005C41EEE71A0A000043440041004400414F
:100EC00031440041B8070020600000205400002099
:100ED000F4020100002337B5C3560400002B0BD0E9
:100EE000184901F039FC051E1DD0174801F09CFA85
:100EF00001218120FFF762FF144801F095FA144B9D
:100F000014481B78012B03D01348022B00D113483F
:100F100001F08AFA6B46D91D0A23012200200B70CA
:100F2000FFF700FE37BD0E49200001F015FC002838
:100F300004D00C4801F078FA2900DAE7012001F02A
:100F400015FBD9E798030100040301002B030100FE
:100F5000B80700203E0301003703010047030100EA
:100F6000150301001903010010B50020FFF7A2FED0
:100F7000084B020000209A420BD96423064918004E
:100F80008A4206D853431800044B0549C0180EF096
:100F9000E5FA10BD1C0C0000351000001045FBFFE9
:100FA0001A040000038870B504001500002B0AD055
:100FB0008622520093424DD1822909D186230120F5
:100FC0005B00238070BD2549254805F0C9FFF5E782
:100FD000244B1B788B4210D1234B9D420DD16B6863
:100FE000002098470028E9D0FFF7BCFB1F4B186092
:100FF000FFF780FE1E4B1880E0E788291FD1184BB1
:101000009D42DBD1280005F0BBFF0028D6D0280088
:1010100005F0AEFFFFF7A6FEFFF7A6FF0023272887
:1010200004D9633383429B415B420133114A1178F7
:101030009942C3D01048137006F03EFABEE78329E8
:10104000BCD1074D280005F09BFF002802D12800E5
:1010500005F0A2FF002303202380B3E7E204000091
:10106000C0070020AD2000209C030100BC07002029
:101070007000002050000020F40201000020034B0B
:101080001B78834201D0024B18787047E10700209B
:10109000E20700200300813B0020012B01D8014B17
:1010A00018787047E1070020038870B50400002B12
:1010B00017D0AE2B33D1822919D11B4D280005F052
:1010C0005FFF002802D1280005F066FF174B184A81
:1010D0001B7812789A4206D00721280005F040FFBD
:1010E00001E0134A1370AE230120238070BD8829CC
:1010F00013D10D4B9A42F6D1100005F041FF0028A4
:10110000F1D00A4B0A4A1B781178DBB29942EAD037
:101110000848137006F0D0F9E5E78329E3D10023EE
:1011200003202380E2E7C046D0070020E00700202C
:10113000E20700208403010073B50C00812812D05F
:1011400082285FD0002480280BD102222F4B200060
:101150001C702F4B1A7080222E4B92019A6009F05E
:10116000F9FA200076BD294E3578002926D00024D2
:10117000A542F6D1013429002748347006F0E6F87C
:101180000F21264A0D2013780B401370244B01A920
:101190001D701F4B1C7045230B7009F015FB1D4B78
:1011A0005A78D209012AFBD00222197800240A4376
:1011B0001A70802292011A61DA60D2E7002DD0D035
:1011C00001A90D200C7009F0FFFA8022114B920149
:1011D0001A61144D9A600E4B28001C7005F0D0FE69
:1011E000002802D1280005F0D7FE0B4806F008F8C9
:1011F0000D4B1B78002B02D00C4806F05DF9002344
:101200003370AEE7014B1C78ABE7C046E107002026
:101210004D44004100180040740000203644004155
:10122000E0070020D0070020E2070020840301002F
:101230000B4B10B5DB690B4C5B025B0F052B09D127
:1012400004210D2009F0EAFA01230748237006F073
:1012500095F810BD05210D2009F0E0FA0023F4E710
:1012600000180040E0070020740000200020034B1D
:101270001B78834201D0024B18787047F507002095
:10128000F60700200300813B0020012B01D8014B11
:1012900018787047F5070020038870B50400002B0C
:1012A00017D0BB2B33D1822919D11B4D280005F053
:1012B00067FE002802D1280005F06EFE174B184A81
:1012C0001B7812789A4206D03221280005F048FE99
:1012D00001E0134A1370BB230120238070BD8829CD
:1012E00013D10D4B9A42F6D1100005F049FE0028AB
:1012F000F1D00A4B0A4A1B781178DBB29942EAD046
:101300000848137006F0D8F8E5E78329E3D10023F5
:1013100003202380E2E7C046E4070020F407002012
:10132000F60700209C03010073B50C00812814D03F
:1013300082285FD0002480280DD102222F4B20006C
:101340001C702F4B1A702F4B92189A6009F002FAFA
:101350002D4801F0D3F8200076BD284E35780029BD
:1013600025D00024A542F6D1013429002748347045
:1013700005F0ECFF0F21264A022013788B431370EF
:10138000244B01A91D701E4B1C7044230B7009F0E7
:101390001BFA1C4B5A78D209012AFBD00222197879
:1013A00000240A431A7004221A61DA60D3E7002D80
:1013B000D1D001A902200C7009F006FA0422114BC9
:1013C000154D1A619A600E4B28001C7005F0D8FD6F
:1013D000002802D1280005F0DFFD0C4805F010FFC1
:1013E0000E4B1B78002B02D00D4806F065F8002349
:1013F0003370B0E7014B1C78ADE7C046F50700201D
:1014000042440041001800408C0000208000002071
:1014100031440041F4070020E4070020F6070020D3
:101420009C030100002373B5C3560400002B0BD0AE
:101430002A4901F091F9061E1FD0294800F0F4FF57
:1014400001218120FFF770FF264800F0EDFF264BB9
:1014500026481B78002B05D0254B26481B78002BEF
:1014600000D1254800F0E0FF6B46D91D0A23012278
:1014700000200B70FFF756FB73BD2049200001F0E0
:101480006BF9051E04D01E4800F0CEFF3100D8E7EE
:101490003021200001F052F900280BD0194800F04B
:1014A000C3FF134B1A78002ACED01D70164806F0E1
:1014B00003F8C9E73121200001F040F9002809D0E4
:1014C000124800F0B1FF0A4B1A78002ABCD1013251
:1014D0001A70EBE7012001F049F8B5E79803010025
:1014E000B9030100F4030100F50700200004010026
:1014F000F6070020AF030100AC0301001503010053
:10150000CA030100DC0301009C030100E8030100A1
:101510000B4B10B59B690B4C5B055B0F042B09D182
:101520000521022009F07AF901230748237005F00C
:1015300025FF10BD0421022009F070F90023F4E713
:1015400000180040F40700208000002030B501247E
:10155000054A411805780130937B1C42FCD0158365
:101560008142F7D830BDC04600080042002A05D1AC
:1015700080235B42194301700120704740235B4286
:1015800019430170D1B27F2A06D9DB180B43D20967
:10159000437082700320F0E741700220EDE7000005
:1015A000094BDA7B52B2002AFBDB08219A7B0A4006
:1015B0009A731A8806398A431A8001221A73002204
:1015C000024B1A707047C04600200042FC200020E9
:1015D00010B50124054B9B7B234205D0FFF7E0FFAC
:1015E000034B1C7006F05CFF10BDC046002000429B
:1015F000FC20002010B50400FFF7D2FF002C21D002
:101600000A204443A02120000DF0A8FFA02381B2AE
:101610005843241A502C01D9013189B23B230A4C7A
:10162000A373200009F07AFC01236373E37B5BB2B0
:10163000002BFBDB0822A37B1340A3730223228829
:101640001343238010BDC046002000420A4B1A8A73
:1016500012B2002AFBDB02211A688A431A600023B7
:10166000064A1370064A1370064A1370064A13702E
:101670002022064B5A607047000800424744004150
:101680004444004146440041454400410044004177
:1016900010B501000023072804D808200DF05EFFD4
:1016A0000138C3B20C4908680A00800711D5118AB5
:1016B00009B20029FBDB022011688143116093729B
:1016C000138A1BB2002BFBDB022311680B43136050
:1016D00010BD8B72FCE7C0460008004201230D4993
:1016E00010B50B700C490D4A0B700D4902200B70A0
:1016F00000210C4B1970202393619360FFF7C8FF02
:10170000094B1A8A12B2002AFBDB022219680A432B
:101710001A6010BD47440041464400410044004166
:1017200044440041454400410008004200224B4B24
:1017300073B51A7080234A4C4A4D01329B00FF3228
:10174000A3602800636101216261A260A36109F0C6
:101750004DF92B0001AD002834D180220190524276
:10176000000E10436A46D0710122AA701A689207CF
:1017700007D51A8A12B2002AFBDB02211A688A43B3
:101780001A602900374809F0ABF90F203023364A98
:10179000364E117801400B43032113703378834395
:1017A0000B43337013788343194300231170304A7D
:1017B0001370304A1370304A1370304A137020335C
:1017C000A361A360802302222D4E5B006360002092
:1017D0003270636108F0BEFF00230F20294A2A49B6
:1017E00013700B7883430B700123290013700538A5
:1017F00043332B7008F0E8FF244B5A78D209012AB2
:10180000FBD00222197822480A431A70012109F0FC
:101810005FFA002819D19F220190030A10407F3AF5
:101820001043D8321A400623287013430121184868
:101830006B7009F04DFA2900154809F0F7FA0028F5
:1018400003D10121124809F0ADFA80235B00226A1E
:101850001A42FCD00023337073BDC0464944004196
:10186000004400410008004233440041324400413A
:10187000474400414644004144440041454400413E
:10188000484400414A4400413544004100180040AA
:1018900000200042F0B5454C83B02468A40700D472
:1018A00078E08024424DE400EE68AC602640B44607
:1018B00000295FD101310F0001AE307020243D4876
:1018C0003A494461887B400704D51C3C088B887BDF
:1018D0000442FBD13500F61904273448012407825D
:1018E0000227010087732F780135887B0442FCD0E2
:1018F0000F83AE42F7D8897B890705D402242B4990
:10190000088B887B0442FBD0042028490C8B08827A
:10191000002A27D0FB300883012A1CD90124023A6F
:101920009A18887B0442FCD0FF20088393423AD265
:1019300004251E4CA17B0D42FCD0218B2083197005
:1019400001339A42F6D1042018498B7B1842FCD00F
:10195000098B531C1170042014498A7B1042FCD05F
:101960000A8B1A702021134A114B91616246DA608A
:1019700003B0F0BD402401AE20433070CCB27F29CB
:101980000DD98020C909B1700321404220437070F5
:101990000F0093E7FF2118000DF0C4FCE8E70221D7
:1019A00074700F008AE71A00CDE7C04600080042B5
:1019B000001800400044004113B56B46DC1D2300B5
:1019C0000122FFF767FF207816BD13B56B469C1DFB
:1019D00023000222FFF75EFF208816BD07B5042210
:1019E00001ABFFF757FF01980EBD0000F0B52F4C7B
:1019F00083B02468A40742D580242D4DE400EE680E
:101A0000AC602640B44600293BD1803149420843AE
:101A100001210F0001AD287020242648234944618C
:101A2000887B400704D51C3C088B887B0442FBD193
:101A30002C00ED1904271D4E0120378202273100AA
:101A4000B773277801348E7B3042FCD00F83A542D8
:101A5000F7D8012415489A181D780133817B0C4270
:101A6000FCD005839A42F7D8022210498B7B1A4298
:101A7000FCD020210F4A0E4B91616246DA6003B020
:101A8000F0BD40246442204301AD2870CCB27F29D0
:101A900008D98020C909A9700321404220436870F9
:101AA0000F00B9E702216C700F00B5E70008004293
:101AB0000018004000440041F0B5184C85B0236880
:101AC00015009B0726D58023154EDB00F26803AF77
:101AD0001A400092B3600A0001003800FFF746FD8B
:101AE00020233D540F4D81B26B6101961C3BA27BBC
:101AF0001A4211D102260131238289B2A67338001D
:101B0000FFF724FDA37B3342FCD02023009AAB6176
:101B1000019BDA6005B0F0BD228BE8E700080042C7
:101B20000018004000440041F0B5194C85B023680E
:101B300016009B0727D58023164DDB00EA681A4064
:101B40000192AB600A00010002A8FFF70FFD02AB93
:101B50001E5481B2C0182023360A46700E4E73619F
:101B60001C3BA27B1A4210D10227C919238289B2D9
:101B7000A77302A8FFF7EAFCA37B3B42FCD020231B
:101B8000B361019BEB6005B0F0BD228BE9E7C04675
:101B9000000800420018004000440041F0B51B4C12
:101BA00085B0236816009B072BD58023184DDB00DA
:101BB000EA681A400192AB600A00010002A8FFF730
:101BC000D5FC02AB1E5481B2C018330A4370330CEB
:101BD00083702023360EC6700E4E73611C3BA27BB1
:101BE0001A4210D102270431238289B2A77302A8B6
:101BF000FFF7ACFCA37B3B42FCD02023B361019BED
:101C0000EB6005B0F0BD228BE9E7C046000800425A
:101C1000001800400044004173B5002008F09AFD10
:101C2000802300210F26174A174D184C1B01184816
:101C3000A360117029700178164A314001700221A9
:101C4000536029705361126A13406278D209012AE5
:101C5000FBD0022221780B200A4322705A1E9341A6
:101C60000722043313403932134301A90B7008F0E3
:101C7000ABFD01232A7813432B7080231B012361C2
:101C8000E36073BDF70700204B440041001800409B
:101C9000354400410044004173B580250026094CBD
:101CA0002D01094BA56001A90B201E700E7008F0D4
:101CB0008BFD0121054B1E701A788A431A7025612D
:101CC00073BDC04600180040F70700204B44004198
:101CD00010B508F01FFC10BD10B50024054B1C709A
:101CE000FFF7DAFF044B1A004A3214708022D20048
:101CF0005A6010BD4C4400418044004113B50400BB
:101D0000684602F0BDFB6B465B7923706B461B791E
:101D100063706B46DB78A3706B469B78E3706B4611
:101D20005B7823716B461B78637113BD10B508F0A7
:101D3000EBFC034B002800D1024B180010BDC0463D
:101D4000320401003804010073B5002008F002FDE0
:101D5000802300210F26164D164C5B011648A36008
:101D600029700178154AB14301700221536029702E
:101D70005361126A13406278D209012AFBD0022211
:101D800021780C200A4322705A425341072204331F
:101D900013403932134301A90B7008F015FD0123DC
:101DA0002A7813432B7080235B012361E36073BDAA
:101DB0004C440041001800403644004100440041BA
:101DC00070B50B4C002523004B331D7080231B0185
:101DD0006360FFF7B9FFFFF71FFF23004A331D7051
:101DE0008023DB00A361A36008F0C6FE70BDC0467F
:101DF00080440041014B1878C0B27047F8070020BA
:101E0000014B1878C0B27047F80700200022054B3C
:101E100010B51A708022044BD2009A61012008F09C
:101E200047FF10BDF80700208044004110B508F0BE
:101E30006BFC002802D00122014B1A7010BDC04675
:101E4000F70700200022014B1A707047F7070020A7
:101E50000B4B10B5DB695B045B0F052B0AD104212A
:101E60000B2008F0DBFC074B1B78002B01D008F09F
:101E700043FC10BD05210B2008F0D0FCF9E7C0465B
:101E800000180040F70700200A4B10B5DB690A4C28
:101E90005B035B0F042B06D105210C2008F0BEFC70
:101EA0000123237010BD04210C2008F0B7FC00238F
:101EB000F7E7C04600180040F807002010B5084CAE
:101EC00022006378DB09FCD14B881B021B18A3603E
:101ED0005378DB09FCD10B881B021818506010BD29
:101EE000000C0040434BF7B51A6A43491140822267
:101EF0000A431A62DA681207FCD540490A78D20709
:101F0000FCD500201E243E4A10723E4A5168A1436F
:101F10005160C0215468890021435160C2220221CE
:101F2000D2009A605A6B8A435A63374A37491A82F9
:101F30000190DA68D20704D4019A501C01908A42B9
:101F4000F7D902246B46002201251A8023006A4635
:101F50002B4353700A23280069465380FFF7AEFFD6
:101F60006A461F210327684612786B468A433A4324
:101F7000027010220420202669465B784D802B4396
:101F80009343234383433343083A934320004B70E6
:101F9000FFF794FF69460A781F2168466B468A431B
:101FA0003A4302701022042069465B784E802B432E
:101FB000934323438343B343083A38006F46934324
:101FC0004B70FFF77BFF1F213A786B468A433A70CC
:101FD000102204205B7869462B4393431C438443BF
:101FE000B443083A944300207D807C70FFF766FF7D
:101FF000F7BDC046000800400000FFCF3604004097
:102000000004004000400041060B0000FEFF0000FD
:1020100010B500F025F910BD70B50D00132800D9DA
:1020200092E00DF091FA0A1922282E3740464F55BA
:102030005E677079918279919188141C082A00D981
:102040000824A4B222002900002000F029F9200071
:10205000002800D07AE070BD141C042A00D90424A2
:10206000A4B2220029000820EFE7531E9A41D2B201
:1020700094B20C20E9E7531E9A41D2B294B20D20DB
:10208000E3E7141C062A00D90624A4B22200290082
:102090000F20DAE7141C102A00D91024A4B2220061
:1020A00029001520D1E7531E9A41D2B294B23320B1
:1020B000CBE7141C042A00D90424A4B2220029006E
:1020C0003420C2E7531E9A41D2B294B23820BCE702
:1020D000141C042A00D90424A4B2220029003920A7
:1020E000B3E7141C022A00D90224A4B2220029005A
:1020F0003D20AAE7141C042A00D90424A4B222001B
:1021000029003F20A1E7141C042A00D90424A4B20A
:1021100022002900432098E7141C042A00D9042433
:10212000A4B22200290047208FE7531E9A41D2B261
:1021300094B24C2089E7141C022A00D90224A4B2CC
:10214000220029004E2080E7002480E7013880B279
:102150002B5CFF2B00D17BE720007CE7F7B5060066
:1021600000AF0D001400132800D977E00DF0ECF952
:102170000A20252A2F34393E43484D52575C766158
:102180005C7676660020082A66D100F0A5F86B46DA
:102190006A467B60E31DDB08DB00D31A9D46220004
:1021A00069463000FFF738FFA0424CD0002051E0D4
:1021B0000020042A50D10830E7E70020012A4BD143
:1021C0000C30E2E70020012A46D10D30DDE7002087
:1021D000062A41D10F30D8E70020102A3CD1153013
:1021E000D3E70020012A37D13330CEE70020042A7C
:1021F00032D13430C9E70020012A2DD13830C4E76C
:102200000020042A28D13930BFE70020022A23D138
:102210003D30BAE70020042A1ED13F30B5E7002048
:10222000042A19D14330B0E70020042A14D14730E2
:10223000ABE70020012A0FD14C30A6E70020022A8C
:102240000AD14E30A1E72200694628000DF052F86D
:10225000434258417B689D46BD46FEBD0020FBE7DA
:1022600004220C4810B5C369134211D11E210A4B38
:102270005C682140C4692243C2612022FF321A8374
:102280001F3AFF3A187D1042FCD0044A0A405A60B7
:1022900010BDC04600040040004000419E030700FE
:1022A00010B50C00002A0FD08021131849008B4272
:1022B0000AD800230749091AC81A9A4200D110BD4A
:1022C0000078E0540133F7E7FF2120000DF02AF8F1
:1022D000F5E7C046FFFF030070B50600C0B00D0073
:1022E000141E27D0131880225200934222D812497C
:1022F000684609F0D9F800281CD122000123FF30DC
:10230000801B001B68442978845C8C4201D0002328
:102310008154013A0135002AF5D1002B0AD1074832
:1023200009F02CF8002805D18022694652000248A5
:1023300009F048F840B070BD00FF0300FF03000043
:1023400010B5002A02D00020FEF7ECFB002010BDE3
:10235000054B1A78002A05D1044A1168044A116015
:1023600001221A707047C046F907002000090020BA
:10237000FC08002070B5154BC0B01B78002B22D094
:10238000134BDA6E1B6F9A421DD0FF25114B124C76
:102390001A682368013AD21A2A4069460020FEF7DB
:1023A00039FB00280FD000220C496E462368B65C2A
:1023B0000132CE54236801332B4023609042F4D184
:1023C000074804F0DBFF40B070BDC046F9070020AD
:1023D000FC020020FC08002000090020FA07002071
:1023E000B400002037B50D4C0D4D22682B689A4281
:1023F0000BD023680B4AD35C6A46D3712368013340
:10240000DBB22360D079C0B23EBDFFF7B3FF2268D4
:102410002B689A42EDD101204042F5E7FC080020EC
:1024200000090020FA0700200FB4074B07B51B78FE
:10243000002B05D005AA04990448019200F07EFF04
:1024400003B008BC04B01847F90700209C00002026
:1024500010B504000CF0D6FF210002000020FEF7AA
:1024600061FB10BD092805D0202803D0002801D029
:10247000002070470120FCE70023C356092B01D040
:10248000202B01D10130F7E7704710B50400002080
:102490002056FFF7E7FF002801D0200010BD0134CF
:1024A000F5E707B56B46D91D087001220020FEF73D
:1024B00039FB07BD10B50E48FFF7B6FF0D4B1C6882
:1024C000002C03D10C48FFF7AFFF10BD6068FFF789
:1024D000BFFFA368002B05D00920FFF7E2FFA0682B
:1024E000FFF7B6FF0A20FFF7DCFF2468E8E7C046E5
:1024F00075040100640B0020BE040100094B1A683A
:10250000002A01D1084A1A60002807D01B688342BC
:1025100004D01A68002A02D11860026070471300C4
:10252000F5E7C046640B0020A400002070B5074DFD
:10253000280004F031FF041E07D1FFF7DFFF210060
:10254000280004F003FFFFF703FF70BDB400002074
:10255000054B10B51A78002A04D000220A201A7000
:10256000FFF79FFF10BDC0460409002010B5010011
:102570000148FFF759FF10BD0605010070B5064D73
:1025800003090400E856FFF78CFF0F231C4028576F
:10259000FFF787FF70BDC0462806010070B5064DE5
:1025A00003090400E856FFF77CFF0F231C4028575F
:1025B000FFF777FF70BDC04618060100024B0028E8
:1025C00000D1024B180070473D0401004104010096
:1025D00070B50400FFF7BCFF2000FFF74DFF0600B9
:1025E000FFF753FF0023C3560400002B05D0002340
:1025F00003700130FFF740FF04000023F356002B67
:1026000012D00B4B1D683100002D03D10948FFF794
:102610000BFF09E068680CF0E3FE002805D1EB68C9
:10262000002B01D02000984770BD2D68EBE7C04615
:10263000640B00205E040100F8B50288334D0400ED
:10264000AA4215D0AE239B009A4218D0002A59D135
:102650002F4B85211A602F4B1A702F4B1A702F4B5E
:102660001A702F4B186804F049FE25800120F8BD30
:1026700001208529FBD1AE239B002380F6E7822928
:10268000F9D10126FFF7AEFE0028F4DB214A1378CA
:10269000002B1ED1204D2B780A2820D00CDC0028DE
:1026A0001DD0002BEED11A4A1E4913688B4227D841
:1026B0001D49C85401330AE00D280FD07F28F0D1FE
:1026C000002BDFD1124A1368002BDBD0013B1360D3
:1026D000D8E7002313700A28DCD1D3E716700C4F1B
:1026E000002B07D01148FFF79FFE00232B7000231B
:1026F0003B60C7E70C483A688354FFF769FFF6E789
:102700002E70BFE7002303800320B0E7B102000072
:10271000600B0020680B0020690B002004090020DA
:102720009C200020570200000509002044040100FD
:1027300010B5FFF7AAFEFFF79FFE10BD002210B5EF
:102740008256030000208A4203D101201856FFF769
:1027500089FE0123184010BD030010B5002200209F
:102760008A561856002A0BD0002802D1012318409F
:1027700010BD824202D101330131EFE70020F7E7BB
:10278000FFF770FEF2E70300303BDBB2092B05D9FF
:102790000300613B052B03D85738C3B218007047BC
:1027A0000200413AFF23052AF8D83738F5E7F7B594
:1027B0000500002028560191FFF754FE0300002079
:1027C000834201D0FEBD01350023EB56302BFAD0F9
:1027D00000242600285DE7B2FFF7D5FF0F2805D8B3
:1027E000360101348619082CF4D12700E857FFF789
:1027F00039FE0028E6D0019B1E60E3E7F7B506002E
:10280000002030560191FFF72DFE03000020834287
:1028100001D0FEBD01360023F356302BFAD000253F
:102820002C00705DEFB2FFF7AEFF0F2806D8240131
:1028300024180135A4B2042DF3D12F00F057FFF76F
:1028400011FE0028E5D0019B1C80E2E770B5050071
:10285000002028560E00FFF705FE030000208342EB
:1028600001D070BD0135002028563028FAD0C0B202
:10287000FFF789FF04000F2810D86878FFF783FF5F
:1028800001230F2803D824010419E4B2DB18E85609
:10289000FFF7E8FD0028E4D03470E2E700242300CD
:1028A000F5E70000F7B50600002030560191FFF76C
:1028B000D9FD03000020834201D0FEBD0136002374
:1028C000F356302BFAD000252C00705DEFB2FFF7E5
:1028D0005AFF09280FD80C4B9C420CD80A235C43A2
:1028E0000A4BA4B21B1A9C4205DC24180135A4B281
:1028F000052DEAD12F00F057FFF7B4FD0028DCD0FA
:10290000019B1C80D9E7C04699190000FFFF000019
:10291000F7B50600002030560191FFF7A3FD030034
:102920000020834201D0FEBD01360023F356302B38
:10293000FAD000252C00705DEFB2FFF724FF0928C4
:102940000ED8192C0CD80A235C43F533E4B21B1AB9
:102950009C4205DC04190135E4B2032DEBD12F00B4
:10296000F057FFF77FFD0028DDD0019B1C70DAE7F0
:10297000002310B5C356002B02D108F07BFC10BD1C
:102980000120FFF7F3FDFAE713B530210400FFF74C
:10299000D5FE002808D00C4B00205B6901939847B6
:1029A0000A48FFF741FD13BD31212000FFF7C6FEA5
:1029B000002805D0044B1B69019398470448F0E7B1
:1029C0000120FFF7D3FDEEE7A4050100300501006B
:1029D00043050100002307B5C356002B0BD001A906
:1029E000FFF7E5FE002814D0019801F059FD0028FA
:1029F0000FD001F0B3FD0948FFF716FD01F0C6FD49
:102A00006B46D91C0A23012200200B70FEF78AF8BE
:102A100002E00120FFF7AAFD07BDC0462205010024
:102A200010B51248FFF76AFD1148FFF767FD11481E
:102A3000FFF764FD1048FFF761FD1048FFF75EFDEA
:102A40000F48FFF75BFD0F48FFF758FD0E48FFF7F3
:102A500055FD0E48FFF752FD0D48FFF74FFD0D489D
:102A6000FFF74CFD0C48FFF749FD10BDD0000020DA
:102A7000BC010020AC0100209C010020CC01002002
:102A8000FC010020EC010020DC010020E00000201F
:102A90000C02002044020020C00000201FB5684640
:102AA00008F0F6FB00246B46185D0134FFF766FD65
:102AB000102CF8D11FBD000010B5054804F064FDCE
:102AC000044804F061FD044804F05EFD10BDC046FA
:102AD000FC000020F00000200801002070B500F08C
:102AE00015F9002813D0194804F05DFD041E0CD020
:102AF00000F01EF9208000F015F960602000083019
:102B000000F09CF8230038331870200070BD104E80
:102B1000300004F048FD041EF7D00E4804F043FDD9
:102B2000051E206005D12100300004F054FD2C006A
:102B3000EBE700F093F880239B00E852064BE9187E
:102B4000064BE81800F086F9DFE7C04608010020D0
:102B5000F0000020FC00002036020000020200000D
:102B6000006810B5034BC118034BC01800F072F990
:102B700010BDC046360200000202000070B50C4DC8
:102B800004000100280004F041FD002808D021685D
:102B9000084804F020FD2100280004F01CFD06E098
:102BA000054D2100280004F031FD0028F3D170BD4F
:102BB000F0000020FC0000200801002070B501009A
:102BC0000400164804F022FD00280DD0802324685C
:102BD0009B00E15A200000F021F9114BE118114B44
:102BE000E01800F047F970BD21000F4804F00EFD19
:102BF0000028F8D0250000F0F7F838352188606803
:102C000000F00CF9287800F0B3F800F075F8210016
:102C10002A7808310CF07DFBE5E7C046F000002083
:102C200036020000020200000801002001310368A2
:102C3000FF314900591848887047000010B530240A
:102C4000044B1978044B641A2200C9180CF061FB7C
:102C5000200010BD2015002044150020F8B53024B8
:102C60000D4B070019780D4B641A1E880C4B351953
:102C70009D420FDC0B4B2200C9180CF04AFB0A4A9C
:102C80000A4B11681B883819C91832000CF041FB37
:102C90002800F8BD0025FBE7201500201C150020AA
:102CA000FF01000044150020A81700201E15002079
:102CB00010B5074C83B222880020934206D80548FD
:102CC0000188591801800120D31A238010BDC04605
:102CD0001C1500201E150020014B18807047C046AF
:102CE0001C150020024B1888024B3030C01870476A
:102CF0001E15002044150020024B1878024BC01806
:102D00007047C0462015002044150020034B18686A
:102D1000034BC01A431E98417047C046A8170020B5
:102D200074150020014B18687047C046A817002092
:102D3000014B18887047C0461C1500203020044BFA
:102D40001B78C01AC0B2002801D1024B1878704716
:102D5000201500201E15002010B5FFF7EFFF03001F
:102D6000024A1088C01880B210BDC0461C15002051
:102D7000F8B5084E050034780027844208DBFFF7D9
:102D8000EBFF054B4019984202DC641B347001379D
:102D90003800F8BD20150020FF01000000231800B6
:102DA00070B50E4A5900013388521A2BFAD10C4DD6
:102DB0000C4C2900200000F0A7F820002900083062
:102DC00000F0A2F820002900103000F09DF820004B
:102DD0002900183000F098F870BDC0467417002024
:102DE0009C050100211500200023074A10B513801F
:102DF000064A13803022064B1A70064B064A1A60A8
:102E0000FFF7CCFF10BDC0461E1500201C1500208A
:102E100020150020A81700207415002070B50D00A3
:102E20000600FFF7E1FF084B2C1C9D4200D91C1C3B
:102E3000064BA5B22A00310018680CF06AFA044B60
:102E400028001C8070BDC046FF010000A8170020AC
:102E50001C15002010B50C00342204490CF059FA5E
:102E60002022034920000CF054FA10BD74170020F2
:102E70002115002010B50C003422010004480CF08C
:102E800048FA2022210003480CF043FA10BDC04646
:102E90007417002021150020024B4000C152012070
:102EA0007047C04674170020014B4000185A704705
:102EB0007417002010B5044B1A38C000181800F021
:102EC00023F8012010BDC04621150020024B1A38FE
:102ED000C00018187047C04621150020064B10B5D9
:102EE0001B689847054B5B689847054B5B6898479C
:102EF000044B5B68984710BD300801004007010093
:102F0000A40501003806010010B508220CF001FAF2
:102F100010BD10B508220CF0EDF94342584110BD28
:102F200010B501000148FFF7EFFF10BDAC170020FE
:102F300010B5024B9B68984710BDC046380601008B
:102F400010B5024B5B69984710BDC04640070100B1
:102F500010B5024B9B69984710BDC0464007010061
:102F6000034B10B5DB69181E00D0984710BDC04652
:102F70004007010010B5054804F006FB044804F0C2
:102F800003FB044804F000FB10BDC0462C010020E8
:102F9000140100202001002013B5041E0AD0406B4C
:102FA00004F0ADFA021E05D0034B2100DB68034894
:102FB0000193984713BDC046400701004930000007
:102FC00037B504000D1E25D0406B04F0A3FA6868E5
:102FD000FFF7D4FDA968164804F0FDFA290015484A
:102FE00004F0F9FA606B250004F089FA0C3500282A
:102FF00011D0220000232E32A38513700E4BDB6903
:1030000001939847011E00D1033123000B4A280089
:1030100004F032F837BD280004F054F821000848C5
:1030200004F078FA2100074804F0D5FAF2E7C04628
:10303000140100202C01002040070100992F0000FE
:10304000F017002020010020F0B5040087B00E002A
:10305000002810D0032909D8080021000CF074FAC8
:10306000020D020F2C310B789A180A70606B04F075
:1030700046FA051E05D107B0F0BD2D31F3E72E311C
:10308000F1E70A216868FFF7D1FD07000A20FFF782
:103090000BFF87420ED0280004F072FAE9E72900FE
:1030A0002000FFF78DFF029B3200049903980BF07C
:1030B000F9FFE0E7AB680193002BDCD0019B1B68B4
:1030C0000393019B5B68049323002C331B780293CA
:1030D000731E022BE3D8154BDB6905939847071E37
:1030E00000D1033704F0A4FA029B032B00DD032375
:1030F000390099400CF0B8FACF19032E03D10C48CF
:1031000002F09AFE3F18230020002C331A78019B0E
:103110000C301B7A9A42C2D22300064A390003F0CF
:10312000ABFF6868FFF71CFDA5E7C046400701003C
:10313000DC050000992F000070B50D4804F0DFF9A0
:10314000041E00D170BD2000103004F042F919288F
:103150000AD925000C35280003F0B4FF2300054AE6
:103160000021280003F088FF200004F009FAE7E7B7
:10317000F0170020992F0000F7B501901B200F00D9
:10318000FFF7A4FE594B05001A78594C002A04D1C8
:1031900001321A7004F04CFA20802388002B01D1F0
:1031A0000133238021880A204B1C2380FFF774FE03
:1031B000504E300004F0A3F9041E09D14E4804F02B
:1031C000F2F9041E0ED14D4A5379013353717FE059
:1031D000201D2900FFF79DFE002816D1200004F0D5
:1031E000CFF9E9E72900201DFFF78EFE220020001D
:1031F000002330302E32A38513706063236304F004
:103200007BF92100300004F09AF9606B04F0B0F90A
:10321000032866DC3A4804F0C6F9051E43D0394855
:1032200004F0C1F9A860002835D0FFF757FC6860AA
:10323000002828D00920AE68FFF736FE002819D1F3
:1032400003233372019B0E2088C6FFF72DFE290051
:10325000012814D1606B04F082F9606B04F04FF91F
:10326000A84206D1200023000C30274A002103F099
:1032700003FFF7BD0920FFF717FE3072E2E7606B2E
:1032800004F05DF9E9E7A9681E4804F0A4F91B4AB7
:103290001378013313702900194804F09CF9174A78
:1032A000537801335370606B04F062F900280BD13E
:1032B0002100300004F02EF921000F4804F08BF9B2
:1032C0000E4A9378013393700C4A137901331371CA
:1032D00001230422390001980BF0E4FEFFF72CFFD4
:1032E000C7E7064AD3780133D370EDE7BA17002059
:1032F0000C190020F017002020010020B417002036
:103300002C01002014010020992F000070B5050049
:103310000C00102C07D8201E04D02B682200064970
:103320006868984770BD1022034968682B68984701
:103330000028F7D1103CECE7C5050100F0B50023EB
:10334000070095B00D9101920493B5E0013400237C
:10335000E356002B01D0252BF8D10D9B9C420ED0BB
:10336000E51A19002A0078683B689847002803D0BE
:103370000120404215B0F0BD049B5B19049300236B
:10338000E356002B01D10498F4E70122A256631CF6
:10339000002AF8D0002401211020022500229A568C
:1033A0002B2A16D00CDC202A16D0232A16D0110086
:1033B0003139C9B208292FD800220A20059215E018
:1033C0002D2A03D0302AF2D1044300E00C4301330C
:1033D000E4E706221443FAE72C43F8E70822F9E76A
:1033E000059D01334543303D4A1905920021595648
:1033F0000A00303AD2B2092AF2D900229A562E2A6D
:103400006DD1012018565A1C01003039C9B2092962
:103410005AD800230A2514E0002105912A2AECD16C
:10342000019A12680592019A04320192059A8A4221
:1034300001DA012214430133DFE76B43303BC31849
:1034400001320020105601003039C9B20929F4D9DF
:103450000993130000229A566C2A48D101229A56E9
:103460006C2A40D114321443023300229A56642A43
:1034700066D05BDC462A00D181E049DC252A00D1F8
:103480008DE03FDC002A00D17DE70133E0220D937F
:1034900080212300D2001340C9008B4200D159E2A1
:1034A00000D97EE080225200934200D1BCE0C022CD
:1034B0009200934200D189E20D9B1B785BB2002BF6
:1034C00000D160E70D9C42E72A2807D1019A023318
:1034D00012680992019A04320192BBE7130001229B
:1034E00052420992B6E7602201331443BDE7682ACD
:1034F000BBD101229A56682A01D1483AB3E7013379
:103500004022F2E7412A44D0452ABED1C22239E006
:10351000582A2ED003DC472AB7D1A12235E0612AF0
:1035200035D0632AB1D1A022D2000BE06E2A34D06C
:103530000ADC662A20D024DB672A25D0692AA4D198
:10354000A42292011443A0E7732A24D005DC6F2A39
:103550000CD0702A99D1C0220FE0752A03D0782AA6
:1035600093D1C82203E090221201EBE78822520196
:10357000E8E7B222D201E5E780229200E2E7842266
:10358000F8E782221202DDE781225202DAE7C12245
:10359000FBE7E122F9E78022C6E7E022C4E7C02288
:1035A000C2E7C021C9008B4233D0934200D162E20E
:1035B000A022D200934200D07EE7019B019A1B68B3
:1035C0000432059D01920EAA13700123002D00D133
:1035D0001D006E1E1C4009D131003800FFF796FE19
:1035E000002800D0C4E6049B9B19049301220EA975
:1035F00078683B689847002800D0B9E6002C06D0D0
:1036000031003800FFF782FE002800D0B0E6049BAE
:1036100070E10122C04978683B689847002800D0D3
:10362000A6E6049B01338FE6099B002B1BDB1023CE
:103630009C4380239B0123400893E023089A234066
:10364000002A58D0402B4FD010D8002B50D0202B20
:103650001CD00022002306920793069A079B029231
:103660000393002326E001230993E2E7602B3FD078
:10367000802BEED10722019B073393431A000832B7
:1036800001921A685B680692079308E0019B1B7819
:103690005BB2019A06930432DB1701920793079BF2
:1036A000002BDADA06980799002342428B410292F6
:1036B000039301230C93C022230080215201134065
:1036C00049018B4200D198E0934200D19DE08022D5
:1036D0001201934200D0AFE0029B0EAA0A93162378
:1036E0009B18039D1E004EE0019B00229B5ED0E7CD
:1036F000019B1B68CDE7402B26D00AD8002B2AD08F
:10370000202B17D0002300220C9300230292039356
:10371000D1E7602B1FD0802BF4D10722019B073308
:1037200093431A00083201921A685B68029203936D
:10373000089BBFE7019B019A1B6804320192DBB230
:103740000293089B0393B5E7019B019A1B6804321F
:1037500001929BB2F4E7019B1B680293019B043327
:103760000193EEE70A9829000A2200230CF08AF858
:10377000013E303232700A9829000A2200230CF0F0
:1037800081F80D000A900A9B2B43EBD116330EAA49
:103790009B189B1B0A9300230A9A0B93099B934245
:1037A00001D99B1A0B9321005C4A5D48114081426C
:1037B00004D10B9B002B01D101330B930A9B0B9877
:1037C00000251B1891423DD1029D039A154339D023
:1037D0000225620400D48FE0524A099233E01900B6
:1037E00001403031013E3170DB0851070B43D208F4
:1037F00019001143F3D11623C9E716210EA80918A1
:10380000029B039A0E000720F2E74749630400D5A4
:10381000464916260F250EA8029B039A3618180053
:103820001043E8D018002840085C013E30701B09A6
:10383000100703431209F2E716230EAA9B181E0075
:103840000023A7E70995089A002A0BD00C9A002AB2
:1038500054D106322240022A53D0062A02D1012531
:10386000334A099200220892059AEB189A4201D92C
:10387000D31A089301232340059308D1E30643D5C7
:10388000089A0B9B944663440B93059B08933B68F3
:103890007868002D05D02A0009999847002800D0A3
:1038A00066E50A9A049B94460B9C634404933B6828
:1038B0007868102C46D8002C05D022001D49984766
:1038C000002800D054E5049B0A9AED18310078686E
:1038D0003B689847002800D04AE50B9B5D19059B83
:1038E000002B06D008993800FFF710FD002800D003
:1038F0003EE5089B5B1927E50F4A6EE701250F4A55
:10390000AFE701250E4AACE708993800FFF7FEFC47
:103910000028BCD02CE5C04616060100081800009F
:10392000081000000A060100F6050100E505010087
:103930000D060100D5050100070601000B0201007C
:103940006D150100102250499847002800D00FE55E
:10395000103CACE7019B1D68043301932E1E2FD150
:1039600006264A4D099B002B02DB9E4200D91E0011
:1039700000230893059BB34201D99B1B08930123A5
:103980001C4006D108993800FFF7C0FC002800D081
:10399000EEE43200290078683B689847002800D0A0
:1039A000E6E4049B9E19002C06D008993800FFF726
:1039B000ADFC002800D0DBE4089B9B19C4E4013671
:1039C0000023F356002BFAD1761BCBE7019A019B1B
:1039D000043201921B6800222D4D610400D52D4D4B
:1039E00013200EA940181E00411E164338D113366D
:1039F0000EABF618361A03D1302308000B700136CF
:103A00007822431E1A70831E483A1A70C31E089308
:103A10002323089A03361370059B0025B34200D96F
:103A20009D1B01231C4006D129003800FFF76EFCC6
:103A3000002800D09CE43200089978683B689847D9
:103A4000002800D094E4049B9E19002C06D0290085
:103A50003800FFF75BFC002800D089E4AB1973E461
:103A600008000F2619003140695C1B09017011071D
:103A70000B431209B7E7019A019B04321B680192BC
:103A8000049A1A6018E5C046D50501000F0601002A
:103A9000F6050100E505010010B501F063F810BD61
:103AA00010B500F0BCFF03F0A3FB094B187003F046
:103AB0009FFB084B187003F09BFB074B187003F03B
:103AC00097FB064B00211870054803F03FFC10BD22
:103AD00011190020101900200E1900200F190020C4
:103AE00038010020074B70B51B785B0708D4064CE3
:103AF000064B256806490748236003F031FA256024
:103B000070BDC046281900209C20002038010020EC
:103B1000E204000014190020F0B5C424038887B023
:103B20000500E400A3420FD05848834216D0002B72
:103B300000D0A7E01A00564B8521186803F0DEFB81
:103B40002C80012007B0F0BD01208529FAD1514910
:103B5000514803F005FA4D4B2B80F2E7822948D1FA
:103B600004224E4C237813420AD0934323704C4BCB
:103B700000201A784B4B9207D20F197803F0BEFB46
:103B800008222378134213D0454E93432370337891
:103B900041485B0729D50022434B1A7003F0FCF91A
:103BA0003278424B5207D20F1978002003F0A6FB5F
:103BB0000222237813420AD093432370384B00200B
:103BC0001A783B4BD207D20F197803F097FB0122EA
:103BD00023781342BFD093432370364B1A78364B69
:103BE0001978002003F08AFBB5E72A4903F0B8F9F9
:103BF000D6E788292AD1284B9A42ACD1100003F08D
:103C0000BFF90028A7D00027274A03AE13783772E0
:103C10000133DBB2137033700497FFF7E5F8FFF759
:103C200061F832002549040000F080FE0600B84229
:103C300091D0E01C00F024FC3000FFF74DF8204B41
:103C400039009B681F480193984784E7832982D1F4
:103C50000024154B10481C7003F09EF9104B2200F5
:103C60001C600E4B20001C60114B197803F046FBC2
:103C70000C4B22001978200003F040FB0B4B220074
:103C80001978AEE7002303202B805BE727060000AE
:103C90009C200020E20400001419002024190020B8
:103CA000281900200E190020121900200F190020D9
:103CB000101900205401002011190020FF010000FC
:103CC000A4050100E53A00000C4910B50B7801226B
:103CD0001C001440002803D01343002C03D010BD57
:103CE000002CFCD093430B700223054A0548117841
:103CF0000B43137003F042FBF1E7C0462819002084
:103D0000241900203801002010B501F007F90B4AF2
:103D10000223117800280CD1194209D0994311705F
:103D20000423074A074811780B43137003F026FB5E
:103D300010BD1942FCD10B431370F1E72819002084
:103D4000241900203801002010B501F0BFF90B4AFA
:103D50000423117800280CD0194209D10B431370A9
:103D60000823074A074811780B43137003F006FB3A
:103D700010BD1942FCD099431170F1E728190020B9
:103D80002419002038010020002370B5074A51880B
:103D900014785578994203D050680BF0DFFB03008C
:103DA0002A0021000248FEF73FFB70BD2C190020BD
:103DB0000007010043685B184360438801339BB2EE
:103DC0004380012B02D10170417006E003788B42E1
:103DD00000D9017043788B42F6D37047002907D190
:103DE000044B1B78002B03D1034A13880133138043
:103DF0007047C046341900204019002010B50B1E32
:103E0000064A074807D107490C8801340C80022173
:103E100003F032F910BD00231900F9E7B93F0000A3
:103E2000441900203E190020F0B500241D4F87B032
:103E30003B8802AA13801C4B1C4E1B8804945380A1
:103E40001B4B1B88938033889381FEF7CDFF0521A0
:103E50000920FFF721F8FEF745FF02AA154900F0F7
:103E6000D3FC0500A04217D0FEF73CFF23003F78AB
:103E70003188FA18D2B299420AD82800FEF72CFFEE
:103E80000D4B00219B680D480193984707B0F0BD8A
:103E9000C41822720133ECE701220521FFF7AEFFBF
:103EA000F4E7C0463A1900203619002038190020DE
:103EB0006C190020FF010000A4050100FD3D000079
:103EC000F0B52D4885B0FEF7AFFA2C4B2C4C1B7883
:103ED0002C4F2D4E2D4D012B38D12D4B1988238879
:103EE0008B422FD92B48FEF79FFA288832882188E9
:103EF0003B8800902848FEF797FA284B28481B88F3
:103F000019021B0A194389B2FEF78EFA0023254ACB
:103F1000518814785578994203D050680BF01EFBF5
:103F2000030021002A002048FEF77EFAFFF72CFF4D
:103F30000E210A2369440B7001220020FCF7F2FDD8
:103F400005B0F0BD1948FEF76FFACEE72888328831
:103F50003B88218800901648FEF766FA0F4B1548FB
:103F60001B8819021B0A194389B2FEF75DFAFFF795
:103F70000BFF0F21DDE7C046510601003419002078
:103F80003C1900203E19002038190020401900205B
:103F90003A19002058060100A90601003619002030
:103FA0007106010064190020810601006806010005
:103FB000A3060100C9060100074A084913880988B9
:103FC00010B5994204D901331380FFF72DFF10BDBE
:103FD000FFF776FFFBE7C0463A1900203C190020A6
:103FE00010B5431E164C9BB2A34227D80124154B93
:103FF0001C70154B1880FB20131C4000824200D916
:10400000031C124A1380124A0B1C914200D9131C44
:10401000104A0024138001220F4B21001A800F4BFD
:1040200007321C800E4B0F481C800BF07BF90822D6
:1040300021000D480BF076F9FFF7F6FE10BDC046E3
:10404000FDFF000034190020361900203819002027
:10405000102700003C1900203A1900203E190020CA
:10406000401900202C19002064190020064B10B5BF
:104070001B78012B06D1054803F024F8044B1A885D
:10408000044B1A8010BDC04634190020441900208A
:104090003A1900203C1900200023F7B5C35606004A
:1040A000002B02D1FFF70CFFF7BD2849FEF754FBA8
:1040B000002802D0FFF7DAFFF4E76B469D1C2900C9
:1040C0003000FEF79BFB00283ED02B88204A013BA6
:1040D0009BB2934238D8012301AC23806B469F1DCD
:1040E000802330003B80FEF723FB0023C3560600ED
:1040F000002B19D02100FEF7D5FB002812D0238811
:10410000002B0FD03000FEF713FB0023C356002B0B
:104110000AD03900FEF7C6FB002805D10330FEF7B0
:1041200025FAC1E70220FAE73B8822882988094856
:10413000FEF77AF92B883A8818021B0A184321885F
:1041400080B2FFF74DFFAFE70120E8E7D906010095
:10415000FDFF0000DE060100F0B56D4C0A00A5442D
:1041600001780AAC217041780300617025886949A3
:104170000D40E02109018D4200D0A0E0010002A81D
:1041800000F069FB00285FD002AB5A88624B1B88A5
:104190009A4259D102AA928902AB9B88019202AA43
:1041A00015885E4A5E4F1178002900D063E05D4AB1
:1041B000118899424DD13988A9424AD25A4A138866
:1041C00001331380594B019A3D801A80584B1D8052
:1041D00000F026FC01005748FFF7ECFD02AA564B01
:1041E00092899A4201D902AA938102AB9A89049BCF
:1041F0002000190001930BF08CF802AB1B8806AD70
:104200002B8002AB5B886B8002AB9B88AB8000F09D
:1042100007FCAC60A87102AB9B89AB81FEF7E4FDA3
:1042200001210920FEF738FEFEF75CFD2A00424915
:1042300000F031FB002807D0FEF74EFD3F4B002178
:104240009B683F480193984701208B239B009D4426
:10425000F0BD138001220026334B31001A80394B08
:10426000073234481E800BF05DF8082231003648D2
:104270000BF058F8A6E72E49388809888842ADD354
:1042800000261670274A3D801380284B019A310082
:104290001A800122264B1D80234B264D1A80294B64
:1042A000073228001E800BF03DF831000822264816
:1042B0000BF038F800F0B4FB010028008CE78E21E9
:1042C000002009028D42C0D1144909780129BBD1CF
:1042D0001900200000F008FB0028B5D00E4BA28882
:1042E0001B889A42B0D10F4B62881B889A42ABD18F
:1042F000144A13880133138000F092FB0100124826
:10430000FFF758FDA1790B48FFF754FD9CE7C04625
:10431000D4FDFFFFFFEFFFFF6C19002034190020D0
:104320003A190020361900203E19002038190020C3
:104330003C1900202C190020FF010000A4050100F9
:10434000DD3D0000401900206419002000220121F9
:104350000E4B1A709A70DA701A715A719A71DA717A
:104360000B4A5970107849184140197251785972A6
:1043700091789972FF21D972013919735179597362
:1043800091799973D279DA737047C0466E1900201B
:10439000801900200123002808D003000833027888
:1043A000002A05D101309842F9D101231800704745
:1043B0000023FBE70123002808D00300083302781C
:1043C000002A05D101309842F9D101231800704725
:1043D0000023FBE702780023FF2A0FD14278FF2A4F
:1043E0000CD1030082780833002A09D10330027807
:1043F000002A0DD101308342F9D101231800704702
:1044000002300278FF2A03D101308342F9D1F4E768
:104410000023F3E770B5040008000D00FFF7CAFFA2
:104420000822002804D0002120000AF07BFF70BD84
:10443000290020000AF06DFFF9E7000010B50029FF
:1044400003D10449FEF760FD10BD08220AF061FFA8
:10445000FAE7C0469C05010070B5040008000D0095
:10446000FFF798FF0822002804D0002120000AF05E
:1044700059FF70BD290020000AF04BFFF9E700004A
:10448000064B1A7802705A7842709A7882705A797C
:10449000C2709A790271DB794371704780190020EC
:1044A00007B5030082B20020824226D013498A4217
:1044B00023D0A0211A030904120B0A431049E43047
:1044C00008704F384870273888709130C8700138AC
:1044D0000871100C4871100A887118029BB2CA71D9
:1044E0001B0A084A034368461380FFF793FF684698
:1044F000FEF716FDFFF72AFF01200EBDFFFF0000AB
:10450000801900206C19002037B56A46C379010074
:10451000137083790020537014880D4A631E9BB278
:10452000934213D80B4D082228000AF0F2FE230212
:10453000240A1C43084B290068461C80FFF76AFFC9
:104540006846FEF7EDFCFFF701FF01203EBDC046C7
:10455000FDFF0000801900206C19002010B5082212
:1045600002490020FDF7FAFD10BDC0468019002069
:1045700007B5082269460020FDF74EFD0300002024
:10458000834202D06846FFF7BFFF0EBD13B56846F1
:10459000FFF776FF00246B46185D0134FDF7FEFF40
:1045A000062CF8D113BD82B06B4642789A7102781E
:1045B000DA71D88802B0704782B06B4602789A717F
:1045C0004278DA71D88802B070470000044B1A783C
:1045D000002A01D101321A701878421C1A707047F3
:1045E0008819002070B505000C0001291DD9FFF7BE
:1045F000E3FF654B654A0340934248DC644A9342BB
:1046000000DBB3E087225200934200D1A2E01ADC23
:104610000C3A934200D1A9E009DC023A934200D15E
:104620007BE00222FF32934264D05A4C41E00422E4
:10463000FF32934200D17DE001329342F5D1262C26
:1046400036D9272435E0544A934207D00CDC102297
:10465000FF329342F3D007329342E6D1042C27D99C
:10466000E81CFFF7A9FF70E08322920093425DD01F
:10467000802212019342D8D1042C19D90335280085
:10468000FFF79AFF631F98423CD1A4B211E0A02229
:104690001201934241D013DC404A934260D00ADCBD
:1046A0003F4A93424AD002329342BED1022C68D193
:1046B0000024200070BD3B4A9B18012BCED9B4E7E3
:1046C000F0221201934255D00ADCD022120193420B
:1046D00053D00132FF329342A7D1072CE9D8E7E744
:1046E000314A93420AD08E22120293429DD1082C65
:1046F000DFD8DDE70A2CDBD90B24DAE7042CD7D985
:104700000524D6E72800FFF74EFF0C2CD0D90C3C2F
:10471000A042CDDA0D3084B2CBE7042CC8D9E81C16
:10472000FFF74AFF631F9842EFD1AEE7122CBFD9C3
:104730001324BEE70D2CBBD90E24BAE7042CB7D93D
:10474000E81CFFF730FF0128B2D9043C8442AFDDFA
:104750000530E0E7042CABD9E81CFFF72DFFF2E7AA
:10476000042CA5D9E81CFFF71EFFEEE7032C9FD908
:1047700004249EE7052C9CD89AE7092C98D90A2492
:1047800097E7032495E7C046FFEFFFFF0C08000002
:104790000B080000FFFF00000502000015080000E4
:1047A0000E08000000F7FFFF028100000170C370D7
:1047B000090A1B0A417082700371704710B50C0022
:1047C000042905D90330FFF7F7FE053CA04200D0CD
:1047D000004810BDFFFF000070B50C0004290ED981
:1047E000C51C2800FFF7E8FE631F984208D0280088
:1047F000FFF7D9FE0C2C02D90C3C844200DC0148A6
:1048000070BDC046FFFF000070B514000022130009
:1048100007291ED9A5890739A9421ADD0E3302706E
:1048200043702388C3701B0A8370638803711B0A5B
:104830004371A38883711B0AC371A168914205D09B
:10484000A289002A02D008300AF063FDA389083348
:104850009BB2180070BD70B504000D001600072A49
:1048600017D9881CFFF79FFE2080281DFFF7A4FEA4
:104870006080A81DFFF7A0FEA080082E04D10023B1
:10488000A360A381300070BD33000835A560083BEC
:10489000F7E70026F6E770B5140000221300082998
:1048A00020D9A5890839A9421CDD8E3302704370D6
:1048B0002388C3701B0A8370638803711B0A4371CA
:1048C000A38883711B0AC371A3790372A168914203
:1048D00005D0A289002A02D009300AF01AFDA38966
:1048E00009339BB2180070BD70B504000D001600AE
:1048F000082A19D9881CFFF756FE2080281DFFF7CB
:104900005BFE6080A81DFFF757FEA0802B7AA37185
:10491000092E04D10023A360A381300070BD3300B1
:104920000935A560093BF7E70026F6E7002370B5D7
:1049300004001500180009290ED923700D33637087
:104940001378A3705168814203D0E01C06220AF05C
:10495000E0FC0A202B7A637270BD10B500231400AE
:1049600006291FD91289063991421BDD0E330370C7
:104970000D3B437023888370238902339BB2C3703D
:104980001B0A0371638883711B0A437161680029E4
:1049900005D02289002A02D007300AF0BAFC238908
:1049A00007339BB2180010BD70B5164C0E00A5441D
:1049B000451DFFF711FF431D0400B34207D101005D
:1049C0002800FBF7D9FB84239B009D4470BD0300A6
:1049D0000C339E42F7DD291802A8FFF72FFD2200B5
:1049E000290004A80AF095FC8021230004AA0901EB
:1049F00002A80AF0CAFB0021034B08009B68019340
:104A00009847E0E7F0FDFFFFA4050100030010B5A3
:104A100008001100002B01D00122984710BD7047FB
:104A2000014B18787047C04692190020F0B587B046
:104A30000F000600FEF760F90500FEF78DF9039000
:104A400000F026FB0290002844D000230093039B33
:104A5000012B07D92A7804AB9A716A7806335A7009
:104A60001B88009380241C4B009A64001A4001921A
:104A7000A2421DD0A0231B019A4219D00520FEF7A7
:104A800077F9002820D0009BDB0406D56B468824EC
:104A90009B8864012B701B0A6B70FEF72DF90500D3
:104AA000FFF794FD039B020021002800FFF77EFE24
:104AB00002991B20FEF7FEF9084B39009B68300075
:104AC0000093984707B0F0BD052239003000FFF78A
:104AD0009DFFF7E70422F8E7FFEFFFFFA4050100C1
:104AE00071B5FFB005000C00FFF768FE1B4B984244
:104AF00027D0E823FF339C4223D8431DA34222D171
:104B0000174E3000FFF746FC00281AD12000310074
:104B10006844FFF7A1FC220008342900A4B26846CB
:104B20000AF0F7FBFEF760F9FEF7DCF869462200B1
:104B30000AF0EFFB2000FEF7CFF800210800FFF796
:104B400075FF7FB071BD0C308442FADD9CB220004D
:104B50002919684408220AF0DCFBDCE7FFFF0000AB
:104B60008A190020F7B5FEF7BDF80400FEF7E0F85B
:104B700001002000FFF736FD354B05000026984266
:104B800055D00136002852D00320FEF78DF9314B65
:104B900018701A20FEF79AF92F4F01003800FEF71F
:104BA000B3F96B469A1D237813706378537011889C
:104BB0002A4B0B402A498B4231D023DC29498B42B6
:104BC0000FDC294A934207DA80225200934235D003
:104BD0008022120193422CD029002000FBF7CCFA4E
:104BE0001DE0902109018B42F6D1E3781F4D13702F
:104BF0002379601D537011882E70FBF7BDFA0023D6
:104C00002B700CE0E02212019342E5D0E4DCA022FC
:104C10001201934217D0D02212019342DCD11449E1
:104C20003800FEF771F9002301260A4A137030009C
:104C3000FEBD29002000FFF7B7FEF0E729002000A5
:104C4000FFF7BCFDEBE729002000FFF749FFE6E78F
:104C5000FFFF0000921900208A190020FFEFFFFFDC
:104C6000010900000C0800000B0800008919002051
:104C70009C050100F7B500240C2725000E4E336873
:104C80000193019B9C4200D1F7BD390061430B4861
:104C900009180B790D2B0AD8A54205D03B006B43B0
:104CA0003A00C0180AF035FB01350134E9E73368F2
:104CB000013B3360F9E7C046F01B00209819002043
:104CC000F7B500240A2725000E4E33680193019B97
:104CD0009C4200D1F7BD390061430B4841184B7A23
:104CE0000D2B0AD8A54205D03B006B433A00C018F3
:104CF0000AF00FFB01350134E9E73368013B33600B
:104D0000F9E7C0461C1C0020FC1B002010B5FFF773
:104D10001BF8FEF7F9FF10BD154B70B51B78154C4D
:104D2000002B03D1144D2B68002B03D1FBF71AFD88
:104D3000206070BDFBF716FD2368C11AF9D0206012
:104D40000E4B28680C220D2908D94243D2189342F1
:104D5000EFD019780E3119700C33F8E74243C9B21D
:104D6000D2189342E5D01878081818700C33F8E779
:104D70009319002094190020F01B00209C1900209A
:104D8000164B70B51B78164C002B03D1154D2B68B4
:104D9000002B03D1FBF7E6FC206070BDFBF7E2FCC3
:104DA0002368C11AF9D020600F4B28680A220D2908
:104DB00009D942430933D2189342EED019780E3103
:104DC00019700A33F8E742430933C9B2D218934243
:104DD000E3D01878081818700A33F8E7F41B00209D
:104DE000F81B00201C1C0020FC1B0020F7B5002530
:104DF0000B002C00344A354E12680192019A9542FC
:104E000004D1002C3ED1312D2DD848E00C2169432E
:104E10008A19178887422AD10027D07A14001118DE
:104E20008B71411C1771C9B2032800D939000C23BA
:104E30006B43F3189879D97201004B1E99410123F5
:104E4000D718BF79002F01D0C01901310133052BCC
:104E5000F6D10023994202D00AF080FBC3B20C22A3
:104E6000554376197371FFF705FF2000FEBD1279D7
:104E7000092A05D9002C02D02779974200D274184C
:104E80000135BBE7227900210D2A06D920806180F7
:104E900021716371A371E01D10E0312DF6D80C2251
:104EA00009496A4301350D600021084E9419905359
:104EB0000732618021716371A371901904220AF095
:104EC00031FA0123E372CEE7F01B0020981900208D
:104ED00070B504000D001600002915D0431E0B4AC2
:104EE0009BB2934208D8FFF717FF29002000FFF775
:104EF0007DFF002800D04680FEF706FF0023044A0D
:104F00000449054802F0B8F870BDC046FDFF000036
:104F10000D4D0000AC0D0000201C002010B5FFF767
:104F2000FBFEFFF7A7FE044B04481B685A1E934183
:104F30005B42184010BDC046F01B002098190020AD
:104F4000094B10B51C680022012C0AD90749884278
:104F500007D30C23020063430C325B189A429B4137
:104F60001A40100010BDC046F01B00209819002008
:104F7000F0B585B01C000AAB03900D0001921E88AD
:104F8000002A76D04B1E3C4A9BB293420AD8FFF7C8
:104F9000C3FE01992800FFF729FF002802D04379BA
:104FA00046800193FEF7B0FEFFF7EAFE00231D00E6
:104FB0000293324F029A3B6893420ED80026FF2C90
:104FC0004DD0019B4F2B21D8FE2C22D00234E4B2CD
:104FD000002E20D03472002340E00A23029A284E8B
:104FE0005343F61831000398FDF793FF002832D1A0
:104FF000737A092B04D9002D03D06A7A9A4200D320
:105000002E00029B350001330293D2E7019B772BE0
:10501000DED80134DBE7002D09D06B7A0D2B06D9E1
:1050200003992800FDF770FF2C726E7217E03B6841
:10503000022B0DD80A255A1C6B43114D3A60ED180E
:1050400003992800FDF760FF00232C726B7206E0C5
:10505000002DF5D103E0FF2CB3D10E237372FFF7BF
:105060002FFEFEF771FE0023064A0749074802F0AB
:1050700003F805B0F0BDC046FDFF00001C1C002079
:10508000FC1B00200D4D0000AC0D0000201C00207A
:10509000F8B5FFF775FEFFF713FE0A4B1968081EF7
:1050A00005D00948012304000A25994200D1F8BD22
:1050B0002A005A43A218177A067AB74200D2100083
:1050C0000133F2E71C1C0020FC1B002010B5FFF789
:1050D00057FEFFF7F5FD044B04481B685A1E934129
:1050E0005B42184010BDC0461C1C0020FC1B002069
:1050F0000020704770B5054C0500200005F028FF22
:10510000401981B2200005F03BFF70BD002C004229
:10511000084B10B51A68012A08D90748013A01005E
:105120001A600831D2000AF0F4F810BD00221A60AB
:10513000FBE7C046841C0020641C002010B5044C12
:1051400002000121200005F0BAFE2023637310BD88
:10515000002C004270B5064D04000121280005F026
:105160008DFE01212218280005F0A9FE70BDC04661
:10517000002C004210B506F0B5FA0023034A04489B
:105180001360044A136001F007FF10BD841C002067
:10519000901C00208C1C002010B5054C200002F053
:1051A000FBF8011E02D1200002F0D0F8002010BD53
:1051B000580100203B2370B505000C4C0021A3735F
:1051C000200005F0DDFE2900200005F0A7FE0123E8
:1051D0006373E37B5BB2002BFBDB0822A37B1340F2
:1051E000A373022322881343238070BD002C004246
:1051F00010B5EFF3108472B6034805F0A9FE84F3EE
:10520000108880B210BDC046002C0042294B70B5FA
:105210001B68002B03D1284B1B68002B31D0274E75
:10522000300001F0ADFE00282BD0254B1A78002A63
:1052300027D01B78012B36D9FFF7DAFF214B224A02
:105240001B8898421ED21488181AF53C85B2FF3C80
:10525000E41AA4B202F0ECF91C4B211C9C4200D9C8
:10526000191C89B20AF000FA4819FA210AF076F9F5
:105270000100174C174B25683000236001F070FEC9
:10528000256070BD118802000C00F532F53CFF3C32
:10529000FF32A4B200258A42DCD30F4A15885D197B
:1052A0002D1AADB2D4E702F0C3F90C210AF0DCF9F3
:1052B00089B2DEE7841C00208C1C0020901C00209A
:1052C000B81C00204C1C00204E1C0020350C000097
:1052D0009C20002058010020A01C002070B50E4C1E
:1052E0002378012B13D100290FD10C4B1B78DB063F
:1052F0000BD5022323700A4C0A4B256805310A4856
:10530000236001F02DFE256070BDFFF701FF002333
:105310002370FFF77BFFF7E7881C0020581C002054
:105320009C20002058010020901C00203B22074BAD
:105330001A73DA7B52B2002AFBDB08219A7B0A40FF
:105340009A731A8806398A431A807047002C0042E3
:1053500013B50400084801F053FF002C06D00120CB
:1053600002F0E8FC03F00EFA002016BD034B5B6A66
:1053700001939847F9E7C046580100203008010022
:10538000F0B55E4B87B01A7802900391002A06D0E0
:105390001B78012B0CD95A4B1B78032B08D0029891
:1053A00001230322039909F07DFE002007B0F0BD20
:1053B00054491A20FDF77EFD01210B20FDF76CFDFD
:1053C000514B05245B6800939847002849DBFDF7A3
:1053D00093FC8378043C049302F072FC4440E4B2F2
:1053E00003F0D0F9002C06D0002002F073FCFA2064
:1053F0008000FCF7FFF8454D6B680093FDF77CFCDF
:105400000600FDF7A9FC009B0100300098471B2017
:10541000FDF75CFD3E49FDF77CFDAB6907001E0012
:105420009847002803D0FCF7BBF8012419E0EB698A
:10543000009398470028F6D1002C22D1FDF78CFC70
:1054400014230193F92801D90B330193AB68059319
:10545000FDF782FC059B9847041E17D00228E4D074
:105460000424220002980123039909F01BFE6042E4
:1054700060419BE7B0470028D5D1009B98470028A2
:10548000D1D1244B1B78002BF4D0D7E7002FE8D1E3
:105490000B20FDF709FD0028E3D0200002F01AFCE4
:1054A0001D4B1E009A7A52B2002AFBDB1F69019B3A
:1054B000FF18009B9847002817D0184E2B6903212E
:1054C00030000093984780B2032808D10722337830
:1054D0001340022B03D1B378049A9342C1D0104AEF
:1054E0000224936901339361BBE7B37A5BB2002B6B
:1054F000FBDB3369DB1BDCD4F1E7C046B81C0020C2
:10550000AE1C0020AC170020381601003008010046
:105510009C050100FC20002000140040581C0020C5
:10552000DC200020F7B5050013480E00140001F040
:1055300033FF002806D1012305223100280009F09D
:10554000B1FDF7BD02F0B4FF0190002C0DD020009A
:1055500002F016F807006068FDF730FB3100280004
:10556000FFF70EFF3C000028EFD1019B002BE8D095
:1055700002F0A8FFE5E7C0465801002070B504001E
:105580000C480D0001F008FF002806D10123052278
:105590002900200009F086FD70BD02F089FF290076
:1055A00006002000FFF7ECFE002EF5D002F08AFF87
:1055B000F2E7C046580100200C4B10B51B78012BB8
:1055C0000FD900240A4A136801331360094B1C7079
:1055D000094B1C60094B186880B2FFF7AFFD084B00
:1055E0001C60084801F0CAFE10BDC046B81C00206F
:1055F000A41C0020AE1C0020B41C0020441C002071
:10560000601C002058010020F8B54C4C2078C0B236
:10561000032800D98EE009F097FF02606D8B484A9D
:10562000136801331360474A1268934205D2464B10
:10563000186880B2FFF78EFD46E001230E2023702C
:10564000FFF788FD414D424E2978002913D00023F1
:10565000F05E00280FD00AF00BF83E4B00B21B683A
:10566000002B05D03C4B1A683C4B1B689A4200D378
:105670004010FFF73FFD3A4F3A4A3B78032B14D0D6
:10568000394B1988394B1B88994224D02B78002B31
:105690000BD0374B1B78012B01D0042B1BD12E4B89
:1056A00019682E4B1B68994215D31368032B02D837
:1056B0000133136005E0FFF739FE01233B7000233F
:1056C0002370002333802B702378012B02D02948CC
:1056D00001F054FEF8BD0023EBE7274B1B68002BBD
:1056E00008D0022323700023154A1360234A136055
:1056F000234B9DE7214B124A196800290ED0002147
:10570000196011680131116011681B4A12689142D9
:1057100007D21B68002BEBD01A4B89E701211960D7
:10572000F2E703232370184B1888FFF707FDCBE738
:10573000042323702022154B1A73C5E7AE1C0020EA
:10574000B41C0020481C0020441C0020501C0020D9
:10575000521C0020601C00205C1C0020A81C0020A3
:10576000B81C0020C01C0020AC1C00207E190020AA
:105770005401002058010020D81C0020BC1C00202F
:10578000D01C0020D41C00204E1C0020002C004205
:10579000044B00201B78012B02D9034B1868C0B2C0
:1057A0007047C046B81C0020A41C00200120034BF9
:1057B0001B789842804140427047C046B81C002088
:1057C000F0B589B006AE040030000D0002F053F8C9
:1057D000EFF31083039372B61F4805F0B9FB04AFD3
:1057E0000190380002F03FF8039B83F31088FA2100
:1057F000049B38791B0A00060343069A3079120A83
:1058000000061043181A090109F0A8FE0F34019B85
:1058100024090019C01A80B203000A339BB2142B6A
:1058200009D80E4A13689D4207D2156001220C4B1D
:1058300018800C4B1A7009B0F0BD0B4A1268002A90
:1058400001D09D42F7D1064B064A1C8800191880EA
:10585000137801331370EEE7002C00425C1C00202B
:10586000521C0020501C0020601C0020F0B5BB48DA
:1058700093B001F091FD00280BD0FDF759FA0328F1
:1058800007D9FDF72FFA0378DB435B0703D100F05C
:1058900001FE13B0F0BDB24B9B68039398470028FC
:1058A000F7DB1A20FDF712FBFEF794FD0028F0D17C
:1058B0001B30FDF70BFBAB49FDF72BFB051E00D1A1
:1058C00036E11320FDF7F0FA002800D005E21A2097
:1058D000FDF7FCFA03900320FDF7E6FA06000398B3
:1058E000FEF758FD0028D4D10398FEF773FD051E7E
:1058F000CFD1FDF7F7F90400FDF71AFA23781F223C
:1059000019001140049161780B901140049A07919D
:10591000521802329042BCD3F6B25B09012B16D169
:10592000049B052B00D00CE1E27810AB1A702279B1
:105930005A7061791A881970A17959701988002AEA
:1059400005D0A378039800923200FFF711FB63782B
:105950005B09012B9DD1079B0F2B9AD9049B023326
:10596000E31858781A7800020243987819790004ED
:105970001043DA781206024308925A7912020A4357
:105980000692002E00D1AAE0089A002A00D1A6E0D3
:10599000DA7A5E7A0592744A9D7B1278012A00D9E0
:1059A00018E1DF799A793F0217431A7A9B7A0D2022
:1059B0000A920993FDF778FA6C4B6D4918602B0039
:1059C000FF3B5A1E9341ED180023FF200D60694DE7
:1059D000694A2B60694D106028600425684803807F
:1059E0006848037068480360684803606848056059
:1059F0006848069D05806848078068480088A84276
:105A000001D10B6013600A9A654B664D1A60099BC1
:105A1000654A5B081360099A2E60D31A634A059998
:105A20001360059A624B1A607D230A9A5F435643BE
:105A3000604A0E36B6B21680099A7F084A43B618F5
:105A40005D4ABBB25D4F16805D4A10AE3B803000B0
:105A5000FA3B138001F00FFFEFF310830C9372B643
:105A600038880EAFFFF7A6FB380001F0FCFE0C9B58
:105A700083F31088FA210E9B38791B0A0006034332
:105A8000109A3079120A00061043181A090109F019
:105A900065FD089B0F331B09C01880B2EFF310831C
:105AA0000D9372B600B2FFF725FB0D9B83F31088B0
:105AB000022201262C4B1A70424B2A681E70424B60
:105AC0001A600022414B1A603A4B1888FFF736FBE8
:105AD0003F4B30001E60FEF7F7F8FFF797FB2D4BAA
