:10000000B84B00209D1C00009B1C00009B1C0000A6
:1000100000000000000000000000000000000000E0
:100020000000000000000000000000009B1C000019
:1000300000000000000000009B1C00009B1C000052
:100040009B1C00009B1C0000E52300003D210000DC
:10005000F51C00009B1C00009B1C00009B1C00006A
:100060009B1C00009B1C00009B1C00009B1C0000B4
:100070009B1C0000410B01009B1C00009B1C00000E
:10008000B91E01009B1C00009B1C0000000000002A
:10009000000000007D2700009B1C00009B1C00004E
:1000A0009B1C000082B0C27801AB1A7082785A7033
:1000B00042789A700278DA70019802B0704782B084
:1000C000C27801AB1A7082785A7042789A700278BE
:1000D000DA70019802B0704770B5084B19780029A2
:1000E0000BD0074C074B25680748236013F022FF0D
:1000F000010006480DF07EF8256070BD1D0200204D
:10010000D82A002008000020983A00002002002091
:1001100010B5437C04009B0636D412220021202017
:1001200009F06EFF002834D008F0A4FE2268030016
:100130001104090E417211028272090E120E01722F
:10014000C27162681104090E417311028273090EB3
:10015000120E0173C272A2681104090E41741102D9
:100160008274090E120E0174C273A289C274227EB7
:100170000275002098755875227C0100DA75627C42
:100180001A760AF009F904E0002009F069FA00285B
:10019000C3D110BD10B5002903D102F06DF8014B99
:1001A000186010BD00000020F0B504000F008FB0F3
:1001B0000191012F04D8019BDF1BB8B20FB0F0BD35
:1001C0006678023FBFB2002E18D0B0B2B842F2D863
:1001D00025783F1ABFB2202D00D176E126D8092D0F
:1001E00000D1C9E00ED8012D00D187E0002D6DD0DF
:1001F000022D00D18CE0082D00D199E06378023304
:10020000E418D6E70C2D00D1D7E005D80B2DF5D199
:10021000A0780EF097FFF1E7142D00D12FE1162DF5
:10022000ECD1A01C31000CF045F9E7E7532D00D1CB
:10023000A2E130D82C2D00D1DEE01FD82B2DDDD14E
:10024000C64B1B78022B01D0052BD7D1A0780128F3
:1002500000D1C9E0002800D1C3E00228CED1042E8D
:10026000CCD9E378DB07C9D5627906AB1A7022795D
:100270005A701888A17905F0A1F8BFE7482D00D180
:1002800065E1522DBAD1A01C310003F0B5FB01206D
:1002900003F0DCFEB2E75D2D00D1BDE006D8542DA1
:1002A000ACD1A01C310004F08FF9A7E7C92D00D113
:1002B000DBE0D32DA2D1012EA0D9A378002B9DD1B4
:1002C000E378002B9AD10BF0B3FD97E7032E10D8FB
:1002D000A278130213431B0213431B02134306931A
:1002E00006980EF051F80422072006A904F018FE23
:1002F00084E7A01CFFF7D6FE0690F1E7A0780EF089
:1003000063F8002800D179E7A11C2A000620EDE758
:10031000012E00D872E7E37806AD2B70A3786B70DE
:10032000288806900EF010F8042229000120DDE74D
:100330008A4B1B78032B00D160E72022002106A8FE
:1003400012F0CDFC032E0FD0192E08D0012E00D0B4
:1003500054E7A37806A8069301F088FB4EE7611DD9
:10036000162208A812F0B2FC227904AB1A70E278C7
:100370005A701B880793ECE7112E00D83EE7A01CAB
:10038000FFF79DFE0690A01DFFF799FE06AD686081
:1003900020000A30FFF793FEA86020000E30FFF720
:1003A0008EFEE860E27C04AB1A70A27C28005A70D2
:1003B0001B882B8209F06AF920E70FF00BFD00285B
:1003C00000D11BE7A07806AD28700FF043FB0FF0BB
:1003D0000DFB2B78834200D010E701222900082072
:1003E00084E705F027F809E7012E00D806E7E3784F
:1003F000184005F005F801E7012E06D1A378002B7F
:1004000000D0FBE604F0C2FFF8E6052E00D8F5E6C2
:10041000A01C04F09BFFF1E6504B1B78022B02D08E
:10042000052B00D0EAE6A67809F03AF9051E0BD0B4
:10043000002E00D0E2E6300009F038F901200EF07D
:1004400081FEFFF749FED9E6002E00D1D6E6444BE7
:10045000187044480CF0F2FE06F0B0FF28000EF0D1
:1004600071FE012009F022F9C8E63F4D3F4B2E688E
:1004700000213F482B600CF0BDFE2E60BEE6052E2D
:1004800000D8BBE606AD0E220021280012F027FCA2
:10049000A27804AB1A70E2785A701A882A806279BE
:1004A0001A7022795A701B886B80A379AB71E3793B
:1004B000AB72072E05D9237A1B01AB80637A1B012F
:1004C0002B8128000AF072FE98E6032E00D895E6EC
:1004D000A01CFFF7E7FD06AD011E069007D1142210
:1004E000280012F0FCFB280005F00CFC86E663787F
:1004F0000B2B00D882E6A01DFFF7D4FD686020001A
:100500000A30FFF7CFFD0223A86004A82B732861EF
:1005100063780E2B11D1A27B02AB9A71E27BDA7168
:10052000D98808220029DCD0124B994202D1082236
:10053000FF21D6E700232B61D5E7132B04D9210037
:100540000E3109F0F5FDCEE700232B73F3E7A37816
:10055000012B00D052E601F07BFA4FE6F0000020BC
:100560003002002020020020D82A002008000020AD
:100570000C020020FFFF0000A01C310003F080FAF5
:10058000022085E673B506282ED801236C2283400D
:10059000134229D0154C2378834224D0002601AD84
:1005A000207009F07DFC06F009FF01F0A3FA01F0CC
:1005B00043FB04F03FFF04F0E9FE012128002E7008
:1005C00003F01AFA0121280003F05AFA300009F06A
:1005D0006DF82378022B01D0052B04D101F0E8FA45
:1005E00001200EF0AFFD73BD0320D3E7F000002023
:1005F00070B586B009F054F800282ED106F036FF09
:10060000040068462200030062CA62C30E22A35E91
:10061000A268D31AC360A38903826369436109F0A6
:1006200035F80722637C99061340013BDBB2C90F02
:10063000062B14D80C4AD05604F00EFF0B4B0C4D71
:100640001B78002B0ED00B4E3378002B0AD02000E5
:10065000FFF75EFD002333702B7006B070BD0120E4
:100660004042E9E70123F7E7BF6001001D020020D7
:100670001C0200203002002010B5094B1A7882427B
:1006800004D01870002802D0FFF726FD10BD054BDE
:10069000187005480CF0D2FD06F090FEF6E7C04653
:1006A0001D0200203002002020020020F0B595B08D
:1006B0000C000500029208F05FFC08F0DBFB0490E0
:1006C00009F084F80E2209AB18805A80049B00219F
:1006D000073303932B190693FC23039C0A9101957E
:1006E0005B000592069A01998A423AD0012B38D9CB
:1006F000023B9FB23D1CFF2F00D9FF250026ADB263
:10070000EBB20093019B1B78667023701E2B00D107
:100710004EE200D970E0082B00D12DE13BD8032B2D
:1007200000D1ECE00DD8012B00D1E0E000D8CEE004
:1007300002236370012F0CD90DF000FEE07000045D
:10074000D3E0052B00D1F8E000D2E0E0072B00D188
:100750000DE1019B627801330193009B934200D32A
:10076000EEE2039B09AAE41AA4B21481002C10D073
:10077000BE49049809F00BFA00280AD008F074FB6F
:10078000029B002B00D1D2E200221800110009F0D8
:10079000D7FD15B0F0BD0C2B00D136E10FD80A2BD8
:1007A00000D1E9E100D8FCE00EF09EFC0028D0D09A
:1007B00001236370002FCCD00EF042FD9DE0142B7E
:1007C00000D1A7E10DD80D2BC3D101236370002FF9
:1007D000BFD0A74B00205B6807939847431E984102
:1007E0008BE0152B00D1B1E1162BB2D1A01C0099E2
:1007F0000BF0BAFE6070ACE7362B00D180E12ED84A
:10080000282B00D10EE116D8212B00D143E2222B58
:1008100000D13BE2202B9CD105F002F9002800D04A
:10082000F0E104236370032F00D892E70023637183
:100830002371E37037E12C2B00D14CE1352B00D133
:1008400057E12B2B00D084E704F06EFD032800D97C
:1008500016E113F0DBFA1301230123012501542BC8
:1008600000D12FE20FD8522B00D121E200D924E28F
:10087000482B00D06DE701236370002F00D168E79B
:1008800001F0ECF839E0C82B00D120E211D85D2B43
:1008900000D05EE7774B1B78022B02D0052B00D0EF
:1008A0004AE201236370002F00D152E708F0F8FEFE
:1008B00023E0C92B00D12AE2D32B00D049E7022341
:1008C0006370012F00D844E70BF0B8FA36E7042331
:1008D0006370032F00D83CE70DF050FD03041B0E9E
:1008E000237103021B0E6071E370000E05E063705C
:1008F000002F00D12DE70DF061FDA07029E7012345
:100900006370002F00D124E701F05FFAF5E75A4B3E
:1009100003205D68A847002800D11AE7032363700D
:10092000022F00D815E70020A847E0700004000E51
:10093000A0700220A84720710BE70AF005F8009D7F
:10094000A61C002801D0032D03D8009B5D1B6570F9
:10095000FFE60388043D33701B0A73704379EDB2E0
:10096000B3700379F37004360AF000F8E9E7A01CCD
:1009700000990BF04DFE3DE719236370182F00D846
:10098000E7E60CA801F0AAF80C9B601DA3700D9B74
:10099000162223711B041B0EE3700EA912F096F9A8
:1009A000D7E612236370112F00D8D2E608F06AFE52
:1009B00003681A04120E22711A026371120E1B0EC2
:1009C000E270A37043681A04120E22721A02637254
:1009D000120E1B0EE271A37183681A04120E2273A9
:1009E0001A026373120E1B0EE272A372C3681A041A
:1009F000120E22741A026374120E1B0EE273A3739A
:100A0000038AE3741B0AA374A3E60FF0E3F900283A
:100A100000D19EE601236370002F00D199E60EF00D
:100A2000E5FF6AE70FF0D6F9002800D191E6082328
:100A30006370072F00D88CE60FF0E0F9E070000437
:100A4000000EA0700FF0E6F960710004000E207136
:100A50000FF0E6F9E0710004000EA0710FF0E6F966
:100A600060720004000E207273E6C046FF010000B1
:100A70002C610100F0000020E4600100012363709C
:100A80006378009A934200D96BE604F04DFC03288A
:100A900000D95EE613F0A6F906090D110223EEE770
:100AA0000523ECE70023A37053E60123A370E37052
:100AB0004FE60123A3700023F9E70223A370013B53
:100AC000E37004F037FC60710004000E207104F044
:100AD00037FCA0713DE604F063FC002800D138E645
:100AE00006236370052F00D833E6A01C04F03EFCFB
:100AF0002FE601236370002F00D12AE6A67028E6B6
:100B000002236370012F00D823E6904B1B88A3704B
:100B10001B0ACCE708236370072F00D819E60CAD39
:100B200028000AF045FB2B88A3701B0AE3706B8832
:100B300063711B0A2371AB79A371AB7AE371AB8844
:100B40001B0923722B891B09637202E60823637059
:100B5000072F00D8FDE50CAD28000AF029FBEB7A41
:100B6000A3702B7BE3700AF05FFB0023207163719D
:100B7000A371E3712372E7E76370092F00D8E8E5FA
:100B80000623A370023BE37001F01FF900232371D9
:100B900072336372333B2372BB33E3710B3B60717F
:100BA000A37101F065F8E0720004000EA072D0E5B8
:100BB000059B63700D2F00D8CBE50CAD280004F029
:100BC00037FF0C9B1A04120E22711A026371120E67
:100BD0001B0EE270A3706B681A04120E22721A02C6
:100BE0006372120E1B0EE271A3712B89E3721B0A52
:100BF000A3726B8963731B0A2373AB89E3731B0AAC
:100C0000A373A6E50CAD280004F062FF2A7B012A3D
:100C100034D0002A2FD0022A32D0637800998B4238
:100C200000D996E50C9B1904090E21711902637114
:100C3000090E1B0EE170A3700D9B1904090E2172A1
:100C400019026372090E1B0EE171A3710E9B190448
:100C5000090E217319026373090E1B0EE172A37250
:100C6000012A0FD0022A00D073E5200010990E301F
:100C700009F06CFA6DE50C236370CEE7059BFBE78A
:100C80001423F9E70023A373E37362E5A01C009922
:100C900005F0EAF8AEE52E4812F0B2F80600A842D8
:100CA0004AD8A01C32002A4912F010F8667050E5AC
:100CB000A01C009902F0C8FE9CE5A01C009902F05F
:100CC00005FF97E5A01C009903F0B0FC92E5052311
:100CD0006370042F00D83CE5A67009F0D1F8E070ED
:100CE00009F0D6F8207109F02FFE051E06D109F093
:100CF00003FF002807D16671A5712AE52800013697
:100D000009F034FEF1E7013509F008FFF1E70223AD
:100D10006370012F00D81CE501F0AEFA0D4B1B6883
:100D2000C01A0D4B984200D808E5FF2381E50299CF
:100D3000080009F031FB2CE5019B62780133019337
:100D4000BB1A02329BB2A418CCE4C0468623002012
:100D5000DC60010000000020FEFF0000F0B5A9B03B
:100D600006AC0A000100200008F0EFFE002800D1C8
:100D7000F0E06388062B00D07DE02389012B00D8AA
:100D8000E8E02E2004AB0C220021C01811F0A7FFD0
:100D90000321B64B0FAD1B8862682B8013782800A7
:100DA0000B40B3495B005B5A6B800D23AB715378EA
:100DB000AB720AF0FBF96788CF2F00D0D0E00FADFF
:100DC00022896168280008F03FFE002800D1C1E0B8
:100DD000288B002109F044FA002800D1BAE0A54C84
:100DE000A8782678FFF7CEFBA34B2A781A702378D1
:100DF000022B01D0052B02D1AB88002B0CD0EB6865
:100E000009A809932B6943606B698360AB68C36071
:100E1000AB88038208F03AFC6878FFF72DFCAB68DA
:100E20006869C01A954B984200DA1800944B9842B2
:100E300000DD180000B206F003FB2378032B05D178
:100E4000052E03D100F0EAFE00F054FE8D4B1A7817
:100E5000002A00D07EE02278032A01D1023A1A70DB
:100E60000422894909A811F031FF0022042109A8B0
:100E7000FFF71CFC6EE00E2B31D12189012969D9C5
:100E8000002566683000FFF78FF90FA9012822D9E5
:100E9000632D1ED909F040FA0022904202D009F0D9
:100EA00041FA020029000FA8FFF700FC83E7CF5C9E
:100EB000974205D0013332789D42F8D14A55013529
:100EC000737802339AB2904205D3801A80B2F61832
:100ED000DCE70023EFE7002D00D16CE7DAE70F2B0A
:100EE0002ED1684B1A78022A04D1013267481A7051
:100EF0000CF0A4F921896068FFF756F90EF06AFF3B
:100F0000002800D157E762682389012B0CD80FAD68
:100F100001222900082003F061FF002800D14AE7E0
:100F200028780EF097FD46E75078811C9942EED85C
:100F300015780C2D00D195E05B1A9BB25218E4E7AE
:100F40001E2B00D037E7616823894A78023290B2BD
:100F5000834201D229B0F0BD1B1A9BB28918F4E775
:100F60004B4B9F42F6D0012F02D101F0DFFAF1E79F
:100F7000102F71D123890B2BECD96068FFF792F801
:100F800063680600181DFFF78DF863680FAD5A7A85
:100F900003902A701A7A6A702A880492DA7A2A7080
:100FA0009A7A6A702A88059222890C2A46D108F01A
:100FB0000DFC6F800027049B28800C332B816F6011
:100FC00007F0DAFF07F056FF2A003249040008F064
:100FD00095FD0500B842BDD02000059B039A009303
:100FE0003100049B133004F025FEB842B2D0330424
:100FF0001B0E637233021B0E2372039BA672A37334
:101000001B041B0E6373039B360E1B021B0E237304
:10101000039B28001B0EE372049BE67123741B0ADA
:10102000E373059BA3741B0A637407F01DFF1A4B3F
:1010300039009B683800039398478BE704990B3A73
:101040008A4200DC86E70C3300930A00059B039973
:10105000300004F073FD7DE7112F00D07AE704F033
:10106000E7FE77E7002800D151E7A4E686230020B9
:10107000D4600100F0000020140000200080FFFF79
:10108000FF7F0000F8010020B8600100FC01002093
:1010900001030000FF010000F874010030B503787F
:1010A00085B001AD2B704378154A6B702B88040016
:1010B0001340144A934204D0134A934204D005B01B
:1010C00030BDFFF74BFEFAE70A000100280008F0E8
:1010D0009EFD0028F3D02B89022BF0D96A68002AE4
:1010E000EDD091780029EAD0023B8B42E7DD1378FE
:1010F000002BE4D1217AA07900F0A8FDDFE7C046FB
:10110000FFEFFFFF0E08000015080000F0B58FB0DC
:1011100001F0B2F8554D2B68C01A02280ED8FA21FA
:101120004942534C534B414325682360524B53482B
:10113000C9180CF05FF825600FB0F0BD08F046FB51
:101140004F4C02AB1870237802AAD3704D4B042089
:101150001B7853704C4B1B7893704C4B5B6801931E
:101160009847431E984102AB1872494B00205B68B8
:1011700001939847431E984102AB987208F078FE9D
:1011800002AB58722378012B01D0042B4DD10EF005
:1011900057F8012849D0012302AAD37205A808F004
:1011A000E9FF07A809F0C2F808F06CFA036802AA80
:1011B0000B9343680C9383680D93C3680A93038A67
:1011C000137707F0D9FE334B1B78002B44D101F085
:1011D00053F896239B00984201D901F0A7F92E4BB2
:1011E0001A78082394001C40510701D520210C4394
:1011F0001A4201D002231C4301F03EF8240680B2BB
:101200000443802000020443039407F033FE02AA43
:10121000224908F0F9FB002800D18DE707F024FEF1
:1012200000211F4809F0B8F886E70EF00FF8FA27FA
:101230000600BF000024B8420BD901F01DF83900A8
:101240000190300012F0ECFD2B68019AD31A9842FD
:10125000644102ABDC72A1E7124B039307F00AFE74
:1012600002AA0E4908F0E0FBD5E7C04600000020C6
:10127000D82A002008000020EE0200000C02002006
:10128000F0000020140000201D020020E460010096
:101290002C610100F8010020CC020020FF010000B9
:1012A00095010000723FFAEF07B56B46D81D072382
:1012B000002201210370FFF7F9F907BD13B50324DC
:1012C00005492200043101A811F000FD002221008F
:1012D00001A8FFF7EBF913BDB860010010B508F0E5
:1012E000CFFD094B1A78062A08D8012393407622AD
:1012F000134204D11B0701D503F044F910BD431E6E
:1013000098410230F8E7C046F0000020F0B50488AC
:10131000BC4D87B00700AC4210D0BB4B9C422DD0D7
:10132000002C00D06AE100F0B7FCB84B2200852108
:1013300018680CF073F93D80012002E00120852936
:1013400001D007B0F0BDB24B1B6901939847B14B78
:1013500001219B68812001939847AF4B01219B6835
:10136000812001939847AD4B01219B688120019317
:10137000984703F073FCA44B3B80DDE78229FAD049
:10138000A74B1B788B420BD108F082FD0028F2D0CE
:1013900014230022012103A80370FFF787F9EAE76D
:1013A000A04B1B788B420CD1002AE4D000219E4830
:1013B0000BF020FF9D4B05211B78022BDBD19C48B5
:1013C00018E09C4B1B788B4202D1FFF787FFD2E7D6
:1013D000994B1B788B4216D1984B95481A78934BB2
:1013E000032A0AD1023A1A700BF028FFFFF776FFA2
:1013F00093498D480BF0FEFEBDE7022200211A70D2
:101400000BF0F8FEF2E78829B5D1874CA2425CD1F7
:1014100020000BF007FF0028ADD0844B2000197886
:101420004B1E9941874B49421940874BC9180BF015
:10143000E1FE08F02DFD00289DD0FFF767FE0A238E
:1014400003AD2B7004F0ECFA0124002804D01E2315
:101450006B700233AB70023400F05CFB002806D0E6
:1014600000227A4B1A7008232B5501340BE0734B82
:101470001B78022B01D0052B05D1744A1378012B60
:1014800016D801331370644B02205B6801939847B0
:101490006F4A012C12D11368411C0DD1591C0DD17A
:1014A000191D88420ADC043B984200DB63E705E033
:1014B000002313700833D7E7591CF1D104231060BF
:1014C0002B55611C0022280067E7624DAA4232D1E9
:1014D00028000BF0A7FE002800D14CE75E4B1B78DC
:1014E000002B00D147E708F0DBF8041E00D042E7EC
:1014F00004F096FA0123594E5840307028000BF042
:1015000089FE3378002B00D135E74C4B1B78022B3A
:1015100002D105F0AFFF2EE7052B00D02BE7504D91
:101520002B78002B00D126E705F0A0FFFEF7F0FD99
:1015300034702C701FE73E4B9A4200D01BE7180016
:101540000BF070FE002800D115E708F0A1FC002880
:1015500000D110E7354B1C78022C00D00BE707F0C8
:101560000BFD07F087FC0023344AC51D1278C371B8
:101570000372022A01D0052A0CD15D220A2442728C
:10158000543AC272223242730132837203738373FC
:10159000C2730374022000F001FC002807D00C2263
:1015A0002A550022A31C0134E4B22A55DCB252238E
:1015B000002653222B55631CDBB2EE54A31CDBB276
:1015C000EA54E31CDBB2EE5408F000F90F230434B4
:1015D00003ADE4B228806B8004962C8107F04AFCAE
:1015E0002A00204908F0D3FAB04205D007F03CFCAD
:1015F0003100300008F0D0FE1349E0E600230380FC
:1016000003209EE65B0A00007B0A0000D82A002027
:10161000F87401002C610100E46001001461010014
:1016200058230020572300200C020020F80100203E
:10163000FC0100205623002059230020F000002048
:10164000EE02000088130000C4090000150000200D
:1016500004000020200200201D0200203002002093
:101660001C020020FF010000094A01201368002B22
:1016700008D098402C210A30FF31884205D8013328
:101680001360704710600A20FBE796204000F8E7DF
:101690003402002010B5024B00209B69984710BD12
:1016A0003875010070B5054C054B256801000548EB
:1016B00023600BF09FFD256070BDC046D82A002036
:1016C000180000203C02002013B50138334B0728D6
:1016D00005D812F087FB0B17191F2F35465500222E
:1016E00003201A7000F0CAFB2D4820E001241C7072
:1016F000FFF7BAFF2B4A2C4900F0E6FB012000F06F
:10170000BDFB13BD0222EBE7032227491A700A2012
:10171000244AF1E704221A70244B00205B680193ED
:101720009847431E9841023000F0A8FB2048FFF77D
:10173000B9FFE6E705221C491A703C20194ADBE78D
:1017400006221A70194B00205B6801939847431ECC
:101750009841023000F092FB164B5B690193984769
:10176000C2E707221A70134B00209B690193984728
:10177000022000F083FBFFF777FFFA235843D6E7F8
:1017800008221A70094B00205B6801939847431E9A
:101790009841023000F072FBFA20C8E738020020BE
:1017A000D60600001D1A0000951600002C610100ED
:1017B000983A00003875010073B599261400028824
:1017C00005007600B2420ED04623FF339A4225D060
:1017D000002A00D008E1864B852118680BF01EFF17
:1017E0002E80012076BD01208529FBD10024814B6C
:1017F0001C60814B1B78032B1FD108F041FBA042DA
:1018000005D008F045FB0234002800D00234200047
:10181000FFF75AFF4623FF332B80E2E7774B1B7815
:101820008B4222D1764B1B78002C08D00021714AC4
:101830001160012B40D9072BECD10620E8E7022BE1
:10184000E8D3052B0FD9062BE4D16E480BF0EAFC48
:101850000028DFD06C4B20005B680193984700287C
:10186000D8D10720D4E70020D2E7684B1B788B4201
:101870000CD1634B1B78002C03D0032BCAD8042057
:10188000C6E7043B012BC5D80220C1E7604B1B789B
:101890008B421CD1584A5A4B12781B78032A13D119
:1018A000062B04D0072BB5D10620FFF70DFF08F05B
:1018B000E7FA0023984205D008F0EAFA022300284C
:1018C00000D0DB181800A3E7052BA3D8B5E78829BB
:1018D0002FD14C4B9C429DD120000BF0A3FC002843
:1018E00098D0474E3378082B08D14A4B00205B69CB
:1018F00001939847002000F0C1FA8BE7072B9CD09A
:10190000414B00205C68A047002883D1307806282E
:1019100080D812F071FA45007FFF4D007FFF540020
:101920007FFF070008F0ACFA002800D072E7A0475C
:1019300095E7394B1B788B424FD1334B9C4200D0FB
:1019400068E76368002098472D4B002815D0187869
:101950000138072800D95DE712F04EFA85FF5CFFD9
:1019600096FF0D0091FF0D006FFF080000F080FA58
:10197000002800D14EE70320BDE71878062800D9DB
:1019800048E712F039FA070047FF0F0047FF17003A
:1019900047FF1E001B480BF045FC002800D139E72B
:1019A000012035E717480BF03DFC002800D131E756
:1019B00003202DE713480BF035FC00280BD0052041
:1019C00026E710480BF02EFC002804D008F058FA47
:1019D000002800D145E702208DE7832900D019E7D0
:1019E000002303800220FDE6002303800320F9E6A4
:1019F000D82A002034020020F000002056230020C6
:101A0000380200203C0200202C61010057230020F6
:101A100059230020F8740100E92A002007B508F0D6
:101A20008DFA08F06BFA08F02BFA0023984205D0E3
:101A300008F02EFA0423002800D1023B1800FFF71B
:101A400043FE024B5B690193984707BD387501005F
:101A500010B50820FFF738FE10BD0000024B1878C3
:101A600008384342584170473802002070B5194D7C
:101A700006682B6804009E420BD143686A68934253
:101A800007D1290016220831083011F010F900287A
:101A900016D12B0007CC07C307CC07C306CC06C35F
:101AA0000D4C2378002E0CD0002B03D100F01AFA35
:101AB000012323702868002809D0002007F0B2FD18
:101AC00070BD002BF6D000F015FA2670F2E707F093
:101AD000B7FDF5E74C0200206C020020020010B5B3
:101AE000034B13CB13C213CB13C203CB03C210BDE2
:101AF0004C020020064810B50368002B06D02022B7
:101B0000002111F0ECF8002007F09AFD10BDC0464E
:101B10004C020020024B1868431E9841C0B2704727
:101B20004C02002070B507F027FA07F0A3F9040073
:101B3000012007F095FD050007F048FE2B0002008C
:101B40000649200008F067F8002805D007F08CF956
:101B50000021080008F020FC70BDC046FF01000015
:101B6000084B10B51A68002A01D000221A60064CF2
:101B700020000BF031FC002802D120000BF016FCF5
:101B800010BDC046700200207402002010B5064C43
:101B90002368002B07D005480BF0E6FB2368013BC8
:101BA0002360FFF7BFFF10BD700200207402002009
:101BB0000122014B1A7070476D020020014B18780A
:101BC0007047C0466D020020104B70B51B78002B8B
:101BD00016D0012007F044FD002812D0012007F0A4
:101BE0002FFD0B4C2568002D08D1FFF79BFFFA2134
:101BF0002B00084A490008480BF090FB962323600D
:101C000070BD012007F00EFDEBE7C0466D0200201D
:101C1000700200208D1B000074020020054B10B5DF
:101C20001B78002B04D0012007F00AFDFFF798FF76
:101C300010BDC0466D02002010B5FFF7EFFF002277
:101C4000014B1A7010BDC0466D020020074B10B545
:101C50001B78002B06D00123184203D0194202D072
:101C6000FFF77EFF10BDFFF7D9FFFBE76D020020F5
:101C700013B501AC02222100132003F0AFF80228B3
:101C800005D1237860781B02C01880B216BD0148C8
:101C9000FCE7C046FFFF00007047FEE70E480F4913
:101CA00010B5002388420FD100210D4B0D4A9342FD
:101CB0000FD3FF220C4B93430C4A936000F094FC2B
:101CC000FEE7C45804331460094CCA18A242F8D382
:101CD000EAE702C3EBE7C046287A010000000020D3
:101CE000F8010020B42B00200000000000ED00E00F
:101CF000F8010020F7B56A468027274C01AE23691A
:101D0000951D9BB23380E3683F019BB22B802B88EB
:101D10009BB2A36033883B4205D02B883B4202D064
:101D200002F0A4FD2761802733887F013B4205D064
:101D30002B883B4202D002F0B5FD27618027338813
:101D4000FF003B4205D02B883B4202D00CF076FCD2
:101D50002761102733883B4205D02B883B4202D0B5
:101D60000DF0A6F82761042733883B4205D02B8865
:101D70003B4202D001F046F9276133888026B60144
:101D8000334205D02B88334202D001F037F8266168
:101D90002B889BB2E360F7BD00180040023810B5F5
:101DA000052810D812F01EF803060F0F090C0EF0CC
:101DB00011F810BD0DF098F9FBE700F091FAF8E783
:101DC00000F090FAF5E70020F3E770B5082500244D
:101DD0000126013DE8B26400FFF7E0FF002800D0D3
:101DE0003443002DF5D1E0B270BD0000074B10B5B3
:101DF0001B68002B00D09847054B186801F046F986
:101E0000044B1B68002B00D0984710BD980200209F
:101E1000A402002094020020002805D0074A13687D
:101E2000002B03D110600360704713008342FBD086
:101E30001A68002AF9D118600260F5E7A0020020B4
:101E4000002809D0094A1368002B05D0834205D128
:101E50001968116000221A60704713001A68002A7E
:101E6000FAD08242F9D10268F5E7C046A00200200C
:101E7000014B18787047C0462400002070B50F4C05
:101E8000237883420DD00E4B20701D68002D09D1A0
:101E90000C4B1B68002B04D12378002B07D0012B9F
:101EA00008D070BD6B68207898472D68EEE701F088
:101EB000C7F8F6E7FFF79AFFF3E7C04624000020D3
:101EC000A00200209C020020034B1860034B196005
:101ED000034B1A607047C046A402002098020020FD
:101EE00094020020024A1368013313607047C04611
:101EF0009C0200200B4A10B51368002B01D0013B57
:101F000013601368002B05D1074B1B78002B02D000
:101F1000012B03D010BD01F093F8FBE7FFF766FF3C
:101F2000F8E7C0469C02002024000020024A937A71
:101F30005BB2002BFBDB704700140040002382B033
:101F40000648074A0193C368DB0704D4019B591C68
:101F500001919342F7D902B07047C0460008004093
:101F6000FEFF0000F7B5082507000B4C0191231D6B
:101F7000DD67FFF7DBFF094E019B0120B36100F035
:101F80008BFA074B1F70C1233372C03BF371803350
:101F9000FF33E5502560F7BD00E100E0001400408C
:101FA00025000020F7B5FFF7C1FF3E4B3E4F3F4DE8
:101FB0001B693C682978009302391C1B4B4259412C
:101FC0003B4B494219403B4B3B4EC918A14213D8E9
:101FD000200011F0ABFF394A0C0013681B18136086
:101FE000FA239B00434332689B183360FA23344A38
:101FF00058431168401810602B78022B02D12D4BEA
:102000005C43A40A2F4D30482B682A496043019352
:1020100011F006FFFA21019B8900C018286028688A
:1020200011F0FEFEFA22920042432B689B1A2B60AD
:102030003368264D1B1833602B68181828602A68EF
:10204000234B9A420ED9FA212868890011F0E8FE44
:10205000FA239B0043432A68D31A184A2B6013685B
:10206000181810601B4D19212B681C192C6028684A
:1020700011F0D6FE124A13681B1813601922504340
:102080002B68181A009B28601900012018313B604A
:10209000FFF768FF0BF0CAF8002801D00BF02AF810
:1020A000F7BDC04600140040AC020020250000200F
:1020B00096EBFFFF6A180000B8020020C002002063
:1020C000B0020020BC02002040420F00C4020020E9
:1020D000E7030000B40200202023154A10B59169DF
:1020E0000B4393610F2318403133184372B6114BE1
:1020F0001A005978C909FCD102240F490C705B8879
:102100001B0A62B640218B431B021B199BB272B69D
:102110005178C909FCD1538053885B04FCD4000278
:1021200002305378DB09FCD1508062B610BDC04646
:1021300000040040000C0040020C0040012310B5D8
:10214000064C227A1A4206D0A371054B1B78012B4C
:1021500001D1FFF727FFC123237210BD00140040F7
:102160002500002010B5FFF7E1FE0023044C0120FC
:102170002380FFF7B1FFFFF7D9FE024B238010BD8C
:10218000001400400208000010B5FFF7CFFE002346
:10219000044C02202380FFF79FFFFFF7C7FE024B8E
:1021A000238010BD00140040020500000023184ADF
:1021B00070B51360174A184E1360184A1360184A16
:1021C0001360184A1360184A1360184A1360337872
:1021D000002B14D10124164D0120FFF77DFFFFF7DE
:1021E000A5FE182120002C80FFF7BCFEFFF79EFE05
:1021F0000822104B2B80104B1A60EC713470FFF7E3
:102200009DFE0E4B0E4ADB68DB07DB0F137070BDC3
:10221000B4020020B0020020A9020020BC0200206D
:10222000B8020020C4020020C0020020AC0200203E
:10223000001400400208000000E100E00008004037
:10224000A80200200822064B10B5DA67FFF76EFEE1
:102250000122044B1A800022034B1A7010BDC046A5
:1022600004E100E000140040A9020020014B1868BE
:102270007047C046B0020020014B18687047C04646
:10228000C002002010B500F007F910BD70B5EFF3E3
:10229000108672B6FFF74AFE0B4B0C4A18690C4BBE
:1022A0001B6814680B4A156886F31088C31A0A481D
:1022B0000A49584311F0B4FDFA214019890011F080
:1022C000AFFD001970BDC04600140040B8020020E8
:1022D000AC020020BC02002040420F006A1800003F
:1022E00001207047014B18787047C046A8020020B3
:1022F00010B5040000F05CF8032000F08FF80F4BDD
:10230000A4021968022001396118FFF72BFEFFF7BC
:102310003BFFBFF34F8F30BFEFF3108472B6FFF770
:1023200021FFFFF73FFE84F31088FFF707FE01202F
:1023300000F074F800F030F810BDC046AC02002088
:10234000044BDA7952B2002AFBDB02211A788A4365
:102350001A7070470010004007B5012103200EF0ED
:102360004FFA011E14D10522684610F0B8FC6A46E7
:1023700009231370013B9370FFF7E2FF01227D21D7
:10238000044B9A711A788A43FCD168460EF066FABB
:1023900007BDC04600100040044BDA7952B2002A53
:1023A000FBDB022219780A431A70704700100040C4
:1023B00010B5FFF7C5FF10BD084BDA7952B2002AFD
:1023C00003DA01229A715A717047A52200211A720C
:1023D000034A118001221A71F6E7C046001000403E
:1023E000C802002001220B4B987919009A71104203
:1023F0000DD0094A1388012B0AD8CB795BB2002B88
:10240000FBDBA5230B72138801339BB2138070474B
:10241000FEE7C04600100040C80200200323184019
:10242000064B04221969032802D10A431A61704736
:1024300091431961024B5870F9E7C04600ED00E086
:102440000004004010B50120FFF7E8FF10BD0000B8
:1024500010B5FFF7F7FE72B60C4B01211A00187D7C
:102460000842FCD00A495B680B400121107D0842FC
:10247000FCD0084903200B405360FFF7CFFFFFF764
:1024800097FFBFF34F8F30BFFBE7C04600400041CE
:10249000FFFCFFFF9E03070080B582B000AF7860AD
:1024A0000138BFF35F8FBFF35F8FBFF35F8FBFF361
:1024B0005F8FC046F4D1C046BD4602B080BD70B546
:1024C000FA2605000024B600AC4200D170BD3000F1
:1024D000FFF7E2FF0134F7E7012030B5114B124A54
:1024E000197814788143044021431970117802252A
:1024F0004909014081401C78AC432143197011788F
:102500001C7889090140A9406D19AC432143197019
:102510001278C9B2EA40024007308143D2000A4330
:102520001A7030BDCC02002038040040BFF34F8F3A
:10253000034B044ADA60BFF34F8FC046FDE7C04645
:1025400000ED00E00400FA0504231D4A10B5D1692E
:1025500086B00B43D36120221A4BFF321A8303A8A3
:102560000DF0CAFD03991848184A0840184B9042CC
:1025700006D104980190019C1648204098421CD036
:10258000154801400A430392049A03A80192FC22D1
:10259000019912020A40134304930DF083FD0028B1
:1025A0000BD00E48FFF76EFEBFF34F8F0C4B0D4A5A
:1025B000DA60BFF34F8FC046FDE706B010BDC046DE
:1025C000000400400040004177FF01FE378700D83B
:1025D0005A00FFFFFF03FFFF8800FE0150C3000009
:1025E00000ED00E00400FA0510B5284C02F05CFB99
:1025F00002F054FAFFF7A8FFFFF724FFFFF76CFF84
:102600000EF066F9FFF7D2FDFFF7A6FE0AF090FF85
:1026100000211F480BF02AF80AF06EFEFFF7BCFEFF
:1026200020880BF095F902F0D5FB07F02BFE00286F
:1026300002D1206807F0B6FD06F006FB06F016FD95
:102640000CF058FD0CF050FD02F076F801F0E8FCBB
:1026500001F09EFF0F4800210BF008F80E480AF029
:102660001BFD0AF07DFF0400FFF7A6FE002CF8D149
:10267000EFF3108472B60AF0C7FF002802D1BFF34F
:102680004F8F30BF84F31088EBE7C0460CA080006A
:102690001C01002034010020C860010070B50C004E
:1026A00015000A000021060010F0F6FA002801D0FB
:1026B000801BC4B2201CAC4200D9281CC0B270BD23
:1026C000024A537E5BB2002BFBDB704700400042A6
:1026D0000300813B0020012B04D8034B18780238FB
:1026E000434258417047C0460C0300201B4A030078
:1026F000127810B50020022A09D1052B2BD818001A
:1027000011F070FB03290610131E154B188810BD1D
:10271000144B1549186864235843144BC01811F022
:102720007FFBF4E7124B1878F1E7642200200D4B91
:102730001B6853430D4A9B180E4A9A424041E6E7F4
:10274000084B0A4A1868642343430B489B18984275
:1027500080414042DBE70020D9E7C0460C0300205F
:10276000D4020020E002002040420F0020A1070018
:10277000380000207F969800FFE0F5050122014B0C
:102780009A75704700400042184B70B51E780020C3
:10279000022E26D1164CFFF793FF237801253343F1
:1027A00023700F232376E575FFF78AFF2673237EB8
:1027B0002B4217D00F232376FFF782FF658BFFF79D
:1027C0007FFF022223780B48934323702423ADB26A
:1027D0006843FF33000B5843642111F021FB0009CB
:1027E00080B270BDBFF34F8F30BFE0E70C03002015
:1027F00000400042DC050000F0B585B00500FFF7A1
:10280000C3FF8F4B041C984200D91C1CC823A2B2E2
:102810001B019A4200D21C1CA4B28A4A8A49002D8C
:1028200000D1D3E000238948037089480370E30096
:102830001360136800200433DB080B80854B5B6852
:10284000039398471E23002801D050235B42E418CD
:102850000022C823A4B21B0101929C422BD97E4FB7
:102860007E4B01979C4226D87D4B3221E4182000F4
:1028700011F0D6FA7B4B06001B5C642118007843EC
:10288000019311F0CDFA774B02909E197078019B5D
:102890006421C01A784311F0C3FA322106002000E7
:1028A00011F044FB714308003221193011F0B8FADD
:1028B000029BC31801936C4A6C4E002D00D18AE034
:1028C000019B1B0113601368002008331B09336050
:1028D000674B1B780293039B98475C4D5C4C2B78AD
:1028E000002800D180E0002B1CD101272F70FFF7BA
:1028F000C3FC604B019A18605F4B1A605F4B9A42B1
:1029000000D86EE02378002B08D185215C4A116045
:102910005C4A1360FFF7B0FC5B4B18600223237026
:10292000013302932278032A02D0584B3168196090
:102930002B78002B00D17BE0504B0199994239D97B
:10294000504F012A1FD100233B604B4B1B68039360
:10295000FFF792FC4C4B01001860464B484D1B683A
:1029600098425CD9019A0398C91A101A11F058FAC2
:10297000202851D9286085232A685B009A4200D913
:102980002B60022323702378022B0BD1FFF774FCFA
:102990003D4B3B4A1B680A21C31A1068584311F08B
:1029A0003FFA38603A6833682B499B18374A8B42A4
:1029B00037D813602E4B029A1B78934204D02C4BCD
:1029C00033481A700AF00CFF05B0F0BD0B88106890
:1029D000C31A1B192CE7316813685B1A01995B183D
:1029E00070E7277003239CE7002B06D02870FFF7C1
:1029F00043FC284B1860032323702378032B00D05B
:102A000090E7FFF739FC234B1B68C01A3C2800D81D
:102A100088E70023237085E721232B60ABE785231C
:102A2000AEE703231160124A237001331370C1E72C
:102A3000164A1949126891425B4101330293B9E782
:102A400068100000D8020020D4020020F00200200C
:102A5000E80200202C61010040420F0067100000D6
:102A600080F3FFFFF4600100F8020020F402002070
:102A7000380000201403002010030020676B0E00B4
:102A8000E4020020DC02002018030020E002002005
:102A9000E4600100EC020020B7F9020070B5F025F7
:102AA00003880400FF35002B06D0AB422FD18229CA
:102AB00009D10120258070BD174A184918481370A4
:102AC0000AF098FBF5E7174B1B788B4209D1164BA0
:102AD0009A4206D112480AF09DFB0020FFF78CFEB7
:102AE000E7E7882908D10E4B9A42E2D110000AF09C
:102AF00099FB0028DDD0EDE78329DAD1084D2800C5
:102B00000AF090FB002802D128000AF097FB00236E
:102B100003202380CFE7C046F0020020E20400003B
:102B2000FC020020E92A00202C610100F0B50C0015
:102B300085B0812850D0822800D16BE0802849D10F
:102B4000012100200DF080FD0026B04240D110246C
:102B500031002200684610F0C2F86B4607225B780D
:102B6000012593436A462B435370137830229343D5
:102B70006A462343137013791F22694693432B43FC
:102B80000B714B790F2793431A00182313434B7192
:102B90002823CB7002238A786846BA4313438B708C
:102BA0001F4B0A7B0B81F623FF334B810423BA436F
:102BB00013430B730DF0B2FD08211A4A1A4B16701D
:102BC0002E00596019490B783B401C430C7015705E
:102BD000174B1E70002412E0154B1D78002911D0F0
:102BE0000024012D0BD10222124821001A700AF094
:102BF0003DFD2800FFF700FE0F480AF0F1FD200020
:102C000005B0F0BD022DFAD101220A481A700AF06F
:102C100087FCF1E7064B1C78023C63425C41EEE71F
:102C20001A0A00004344004100440041314400417D
:102C30000C0300203C000020E46001000020034B56
:102C40001B78834201D0024B187870472D03002077
:102C50002E0300200300813B0020012B01D8014BF3
:102C6000187870472D030020038870B50400002BEE
:102C700016D0AE2B30D1822916D1194D28000AF07A
:102C8000D1FA002802D128000AF0D8FA154B164ACA
:102C90001B7812789A4203D0082128000AF0AAFA79
:102CA000AE230120238070BD882913D10C4B9A429A
:102CB000F6D110000AF0B6FA0028F1D0094B0A4A02
:102CC0001B781178DBB29942EAD0084813700AF0F9
:102CD00087FDE5E78329E3D1002303202380E2E792
:102CE0001C0300202C0300202E030020146101008F
:102CF00073B50C00812812D082286AD00024802865
:102D00000BD10222344B20001C70344B1A708022ED
:102D1000334B92019A600DF0D9F8200076BD2E4E0B
:102D20003578002938D00024A542F6D101342D4849
:102D3000290034700AF09AFC0F212B4A13780B40BB
:102D40001370264B294A1C70294B01A91B6A0D7070
:102D50005B0B234013701378584243410720043320
:102D60000340393003430B70137833385C401470E0
:102D7000204B12781A700DF0E3F8194B5A78D209EB
:102D8000012AFBD00222197800240A431A708022FB
:102D900092011A61DA60C0E7002DBED001A90D20B2
:102DA0000C700DF0CDF880220D4B92011A61124D7E
:102DB0009A600A4B28001C700AF034FA002802D1ED
:102DC00028000AF03BFA07480AF0AAFB00233370F8
:102DD000A3E7014B1C78A0E72D0300204D440041E0
:102DE0000018004048000020364400412C03002019
:102DF000004400412E0300201C0300200B4B10B5A3
:102E0000DB690B4C5B025B0F052B09D104210D2004
:102E10000DF0C0F80123074823700AF03FFC10BDF5
:102E200005210D200DF0B6F80023F4E7001800404E
:102E30002C030020480000200020034B1B78834215
:102E400001D0024B18787047410300204203002054
:102E50000300813B0020012B01D8014B18787047FB
:102E600041030020038870B50400002B16D0BC2B52
:102E700030D1822916D1194D28000AF0D3F9002843
:102E800002D128000AF0DAF9154B164A1B7812789D
:102E90009A4203D0322128000AF0ACF9BC23012069
:102EA000238070BD882913D10C4B9A42F6D11000B3
:102EB0000AF0B8F90028F1D0094B0A4A1B781178BA
:102EC000DBB29942EAD0084813700AF089FCE5E7C2
:102ED0008329E3D1002303202380E2E7300300208D
:102EE00040030020420300202C61010073B50C0058
:102EF000812812D0822800D16CE0002480280AD1D9
:102F00000222364B20001C70354B1A70354B92183C
:102F10009A600CF0DBFF200076BD304E357800293A
:102F200035D00024A542F6D101342F482900347051
:102F30000AF09CFB0F212D4A13788B4313702C4A07
:102F4000274B15701C702B4B01A91B6A0D709B0839
:102F50002340137013781278581E834107200433DE
:102F60000340393003430B70234B3E381A700CF08A
:102F7000E7FF1C4B5A78D209012AFBD002221978AC
:102F800000240A431A7004221A61DA60C3E7002D94
:102F9000C1D001A902200C700CF0D2FF0422114B09
:102FA000164D1A619A600E4B28001C700AF03AF90F
:102FB000002802D128000AF041F90B480AF0B0FAC3
:102FC0000D4B1B78002B02D00D480AF009FC0023A2
:102FD0003370A0E7014B1C789DE7C04641030020F9
:102FE0004244004100180040540000203144004198
:102FF0004003002000440041420300203003002031
:103000002C6101000B4B10B59B690B4C5B055B0FF2
:10301000042B09D1052102200CF0BCFF0123074835
:1030200023700AF03BFB10BD042102200CF0B2FF1C
:103030000023F4E700180040400300205400002063
:1030400010B50BF041FB00200CF004FD00200CF04B
:1030500079F800F02FFE0A4B00219B6881209847E9
:10306000084B00219B6881209847074B00219B68F3
:103070008120984701F09EFAFFF7EAF910BDC0469B
:1030800014610100E46001002C610100F7B5070044
:103090000BF01AFB0CF0AAFC009000200CF0DAFCFC
:1030A0000CF0CEF8050000200CF04CF80E4C8120FE
:1030B000E3680193984700210600A4688120A04797
:1030C00001F078FA3800FFF713F901F061FA002EE9
:1030D00002D001218120A04728000CF033F800988D
:1030E0000CF0B8FCF7BDC046E46001000B4B0020BB
:1030F0001B78052B10D80A4A1278934203D109494C
:10310000C95C814205D008499B005B580120002B17
:1031100002D10020034B98547047C046F5030020AD
:10312000430300204C03002064610100F0B58FB020
:1031300008910B9301000723194001911340C10826
:1031400005910293591E8B41D2089B189C46082377
:10315000029A0027991AFF2210008840C1B20A91F2
:1031600012210898049241430598019A41188EB2A1
:1031700014999B1A039109930B9BBB4201DC0FB07E
:10318000F0BD089BDB199BB27F2BF8D86346002269
:10319000013B0D936346934206DC039B1236634466
:1031A0000137B6B20393E7E793B20693059B91B25A
:1031B0005D18ABB20793112BEFD80D99049B914288
:1031C00003D10299002900D00A9B14990498002980
:1031D00001D00399885C1449019D71188C5C06919B
:1031E0001900294105008C430C94019C25410C9C3D
:1031F00029402143069CA1540199002911D0079927
:1032000011290ED00999099D8B40A84094B2711CD8
:103210006118054C89B2645C9C4303400248234317
:1032200043540132B6E7C046F8030020F0B51F0052
:103230000B788DB05BB2050003911400002B08D011
:1032400080685168884204D3EB6896680493B3425F
:1032500008D22B683B606B687B600023BB60FB601F
:103260000DB0F0BD0896082901D97300089310F03D
:10327000D7FD6B6807900293029A049B94466344BF
:103280009B1B099300231E0005930493099B029A3C
:10329000934201D216E00136039B9B57002B25D0A9
:1032A000092BF8D0202BF6D0079B31009819012369
:1032B0009B1B00229C46039B5B56002B18D18A1B4C
:1032C000002A19D12B6862683B606B687B60049BA5
:1032D0005343059ABB60A3685A43129BFA60002BC4
:1032E000BED0039B9E19129B1E60B9E73100E6E732
:1032F000814215DB002A2DD0049B934200DA049210
:10330000059B01330593B3180A932B6806930A9B18
:10331000B34221DCA268029B944663440293B5E762
:103320002E2B09DC2C2B0EDA202B03D0212B0AD0DC
:10333000092B0DD18A1B0BE03D2B04D006DC3A3B58
:10334000DBB2012B04D863465A1801E03F2BFAD0B8
:103350000131B0E7079AB3E7039B9B571A00203A65
:10336000D2B25E2A00D92E23A268203B92B29446A4
:103370006268013692B20B926A461189108B089AE4
:1033800053432268D31800930B9A6346FFF7CEFE8F
:103390006268069B94466344B8E70000084B10B58A
:1033A0001B78002B05D0002804D0002101200EF04E
:1033B0003FFA10BD0348862102000AF02FF9F8E712
:1033C000F80C00206000002012230022434370B557
:1033D0000A4E9BB28A4200DB70BD8418A4B27F2CD7
:1033E000FAD81C001234A4B2F55CED43F554013355
:1033F0009BB29C42F8D10132ECE7C046F8030020B2
:10340000F0B58FB00AAC22003E4B23CB23C21B6821
:103410003D4913600023CB56002B5FD0002506AB3F
:1034200020000095394AFFF701FF099B2800991CED
:10343000099189B20293FFF7C7FF0023344DEB5681
:10344000002B49D0334B09991A78002A4ED000231B
:103450000593069B013198B22F4B099100931E23CF
:1034600089B21A00FFF762FE6268099B94461E2229
:10347000029363440C336360069BE260283372322C
:10348000264E0A9305AFD31AA3602900009706AB16
:1034900032002000FFF7CAFE059900291CD0002346
:1034A000CB56002B18D0079B0293099B0393039ADA
:1034B000029B944663446D2B0ED802220133226096
:1034C0007E326360D31AE3608E233200A3600097DC
:1034D00006AB2000FFF7AAFE0FB0F0BD10222100BE
:1034E00006A80FF0F3FB12230993A6E76368C91837
:1034F000802301316160591AE16006AB0092290016
:10350000064AE6E748610100D5030020A0610100FA
:1035100072030020F7030020B761010094610100ED
:10352000F0B5164B85B00293154B02AA93800300A9
:103530000C3301930423010000249C46114E35787E
:103540002A000F271A413A4017003737092A01D8B5
:10355000303217000F70002B0DD1013402AB1B5D10
:10356000F55C6346019A01318A42E9D10023037375
:103570000C2005B0F0BD0023F4E7C04600010205B1
:10358000060700008823002084B0F0B587B00F93B1
:1035900012AB05900D910E92119C1E78002810D050
:1035A0000023C356002B0CD00023802590272160D8
:1035B00003926260A360E3600E9B0393EB1A112BEE
:1035C00004D807B0F0BC08BC04B01847059900291E
:1035D00006D005AB00930DAB174A1800FFF726FE87
:1035E0000D9B2268934204D2A16823605218D21A1C
:1035F000A2600F9AA16803929B1822685218934206
:1036000001D99B1AA3600E9B0393109B0493049A09
:10361000039B9446626863449A1AE260059A1278A2
:1036200052B2002ACDD001330E93EB1A1093BB1B7C
:103630000D960F93C0E7C04694610100F0B593B0BA
:1036400005AD09AC0021102228000FF048FB220034
:10365000174B43CB43C201261F68002117600DA8FA
:1036600011220FF03CFB02960195009709996268C0
:10367000A3681048FFF788FF0DA8FFF751FF6B689C
:10368000EA6809999A18802392199B1AE3600296B6
:1036900001950093A3680DA80A92FFF775FFEB68E8
:1036A000686899B280B2FFF78FFE13B0F0BDC046D4
:1036B00048610100AC610100F0B591B007AD2A008E
:1036C00000261F4B13CB13C21B681E4913608E5775
:1036D00003AC002E21D00023009323001A4A2800B7
:1036E000FFF7A4FD00231949CB56002B13D0E26845
:1036F000636828009B1801336B600023144A009311
:103700002300FFF793FDE3686068991CE16080B2D5
:1037100089B2FFF759FE11B0F0BD23002A0083CA19
:1037200083C31223112231000BA8E3600FF0D7FAF4
:103730000BA8FFF7F5FE00962300034A0BA9CEE77E
:1037400048610100D5030020A06101005203002060
:103750007C610100F0B595B00FAE11220021300060
:103760000FF0BDFA0BAC0021102207A80FF0B7FA3A
:103770002200664B23CB23C21B681360644B19687D
:10378000002923D01A79013AD3B20D2B1ED8122367
:10379000E360083B53439022D31A5B082360D31A9B
:1037A000A3600420002360605A4A0093200007AB06
:1037B000FFF73CFD02230A9A2360089B9B188E2288
:1037C0000433A2600E3A6360D31AE3603000FFF75F
:1037D000A7FE012307AD02930195E2680B990092C1
:1037E000A36862683000FFF7CFFEEA68022791B253
:1037F0006A6890B2FFF7E8FD6A68E968200053182C
:10380000802101336360CB1AE3608E220023A26023
:10381000414900933F4A2B000B97FFF707FD68686B
:10382000AA686060079881189020EA680131431AFD
:10383000E260A3600297019500926A6837480B9195
:10384000FFF7A2FE6A68E96820005318802101335F
:103850006360CB1AE3608E220023A260304900939C
:103860002C4A2B000B97FFF7E1FC06232D4A102171
:1038700030000FF093FA2E2233181A7000225A707B
:103880000F22111A581C274A04230FF087FA9020A0
:103890006B68A9686360079BEA6859180131431A8D
:1038A0008F38E260A3600290019500926A68300050
:1038B0000B91FFF769FE80218E22E8686B68A26099
:1038C0001B1801336360CB1AE360174B0B979B6A9D
:1038D00006A9012005939847144B0F2233803A2301
:1038E000B370069B13401A003732092B01D83033CE
:1038F0001A0000230FA9CA700B71064A00930BA887
:103900002B00FFF793FC15B0F0BDC04648610100E5
:10391000440300209461010058610100DC60010053
:103920005C610100606101007C750100434800009A
:1039300010B50021014809F099FE10BD600000207B
:1039400070B50500013804282BD810F04BFA23304D
:10395000032A2300002925D00C68201E0ED00B79E5
:103960001A1C0F2B00D90F22D2B2002120000FF019
:1039700093F9002819D0001B0130C0B2124B1A680D
:10398000944202D11A79824204D001221C6018713B
:103990000E4BDA700E480F4B020086211D7009F0A5
:1039A0003DFE70BD08000C00E8E70400E6E70B1ED2
:1039B00000D00B78084A11789942EBD0137001229D
:1039C000024B9A70E6E7C046440300204C030020F7
:1039D00060000020F5030020F703002010B5FFF77A
:1039E00085FB002804D003488621020009F016FE5A
:1039F00010BDC0466000002070B51F220600FEF713
:103A00004DFE0E4D04000200310028000FF04FF96A
:103A1000002802D12B57002B0ED0220031002800A5
:103A20000FF054F900232B55054B1B785A1E012A21
:103A300002D80121034AD15470BDC046D5030020ED
:103A4000430300204C03002070B505000C1E08D075
:103A50000A4E30000FF0D4F9C0B2002803D101247F
:103A60002870200070BD231C844200D9031CDCB2E6
:103A70002200310028000FF029F9F2E7D5030020D9
:103A800070B51F220600FEF709FE0D4D040002006E
:103A9000310028000FF00BF9002802D12B57002B22
:103AA0000CD02200310028000FF010F900232B5514
:103AB000044B1B78012B01D1034A537070BDC046E3
:103AC00052030020430300204C03002070B5050082
:103AD0000C1E08D00A4E30000FF092F9C0B2002838
:103AE00003D101242870200070BD231C844200D91A
:103AF000031CDCB22200310028000FF0E7F8F2E7E7
:103B00005203002070B562220600FEF7C7FD0C4D7F
:103B100004000200310028000FF0C9F8002802D18B
:103B20002B57002B0BD02200310028000FF0CEF8CD
:103B3000002301212B55034B034A1B78D15470BD40
:103B400072030020430300204C030020F8B52E4BE5
:103B5000187809281DD810F045F9461C1C1C1C3B80
:103B60001C051C33FFF7C2FA284C002805D000239F
:103B70002370274B1A78274B1A7025782648002D7A
:103B800008D001230100254A02200DF0E9FD0023A1
:103B90002370F8BD1F4E224A3378FF219B009F58A7
:103BA000902212010FF09BF8B84733781D4A1E4847
:103BB000D554012302008621237009F02FFDE8E788
:103BC000FFF794FA002803D114490DF031FEE0E725
:103BD0000F4B11491A780F4B1A7001230F4A180026
:103BE0000DF0BEFDD5E7FFF781FA104B002808D095
:103BF00001221A700EF018F8084940B20DF0EEFDDF
:103C0000C7E71870C5E7C046752B0020F6030020F3
:103C1000F503002043030020F80300209D3300003B
:103C2000646101004C03002060000020F80C0020BB
:103C300070B504880500164E002C0BD0B44222D17A
:103C400086291ED1002A19D0124B9A4216D1FFF7AD
:103C50007DFF13E00DF07CFD9022FF2112010E4844
:103C60000FF03DF80D4B1C700D4B1C700D4B1C7074
:103C70000D4B1C700D4B1C700D4B1C7001202E80C9
:103C800070BD8329FAD1002303202B80F8E7C046BA
:103C90004404000060000020F8030020D503002049
:103CA000520300207203002043030020F80C002080
:103CB000F603002010B5FEF77FFB0DF0B5FF40B214
:103CC0000DF0D8FDFEF778FB0DF004FE002821D0A2
:103CD000FEF772FB9022114C1201FF2120000EF022
:103CE000FEFF210001200DF0B1FEFEF765FB0C4B3D
:103CF0000C4AFF211A600B221A7190222000120137
:103D00000EF0EDFFFFF726FD210002200DF09EFED4
:103D1000FEF752FB0DF060FE10BDC046F803002018
:103D2000440300208861010007B5074B03205B684E
:103D30000193984702380023022801D8034B1B5CEB
:103D4000034A137007BDC046E46001008B6F010099
:103D5000790D0020024B1878431E9841C0B270477D
:103D6000760D0020034B1878013843425841C0B209
:103D70007047C046780D0020034B18780238434244
:103D80005841C0B27047C046780D0020034B1878E8
:103D9000033843425841C0B27047C046780D0020F6
:103DA000024B187843425841C0B270479D0D002025
:103DB000034B1878013843425841C0B27047C0469F
:103DC0009D0D0020034B1878033843425841C0B280
:103DD0007047C0469D0D0020034B187802384342BF
:103DE0005841C0B27047C0469D0D002010B5024832
:103DF00009F054FC10BDC0466C00002010B5010055
:103E00000023024A024809F089FA10BD313F000040
:103E10007C0D002073B50400052828D80FF0E2FFC0
:103E2000252A032F3D40204B1A78204B082A1FD10A
:103E3000073A1F4D1A70297800291CD001391D4BF3
:103E4000C900C858002810D05918097900290CD089
:103E50006B46DE1D01233370FFF754FE3100022054
:103E6000FFF76EFD2A78144B1A70144B1C7073BD4B
:103E70000222DEE700210120FFF762FDF5E70025C1
:103E800001220F4B1D700F4B1A700F4B19791868D8
:103E9000FFF738FE29000220EEE700210320EBE7C0
:103EA00000210520E8E7C046550D0020770D0020D1
:103EB000A40D0020080D0020540D0020560D0020F8
:103EC000040D00209C0D0020FC0C002010B500F01B
:103ED000C5FE10BD074B1A78074B002A02D00322FB
:103EE0001A707047054A1278002A01D00122F7E7BC
:103EF0000522F5E7040D0020A50D00209E0D0020F1
:103F0000094B0A4A1878002808D01378002B08D0EB
:103F10000133DBB213700020042B01D90020107094
:103F2000704701231370FBE79C0D0020740D0020E7
:103F3000F7B5324C22685078117803000F221340F5
:103F40001B020B431FD00300934317D0000900F05E
:103F500091FD00F02FFE2A4B1B78002B01D000F0C2
:103F6000A9FD23681A7858780F23184000021043DF
:103F7000FFF744FF236802332360F7BD00F0D2FD52
:103F800000F0B2FDEDE71F4B1F4A1B781F4D137069
:103F90001F4B1A781F4B1A702B781F4A9B009F5893
:103FA0003E78F3000193002E09D01C4B019A9B58D8
:103FB000002B01D10137F3E798470028FAD0174AC0
:103FC000019B944663445B6800202360FFF716FF63
:103FD0000B4B012E0CD10C4A1278022A0AD1012275
:103FE0001A702B780133DBB2032B05D82B70C4E792
:103FF000092EF4D00022F3E70023F7E7700D00202C
:10400000280D0020770D0020760D0020750D002072
:10401000790D0020780D00207470010008700100F7
:1040200010B50021014809F021FB10BD6C000020F3
:1040300010B5044A106011710348862109F0EEFAA8
:1040400010BDC046FC0C00206C00002010B5034AD7
:1040500086211070024809F0E1FA10BDA60D00207B
:104060006C000020F7B50190019B10001C88002C0B
:1040700035D0BA239B009C4200D049E2822900D06F
:10408000A2E0FDF747FD0124AC4D002802D1040059
:1040900028602871012005F0E3FA002840D00223AF
:1040A0001C43A74BAB6011232B73022005F0D8FAF9
:1040B000A44FA54E002836D008231C43A34B200054
:1040C0001B78022B05D12200A14B1B789A4330D0DC
:1040D000100010F059F82023181A30702FE09D4B73
:1040E0001C609D4B1C609D4B1C60964B1C70974B3D
:1040F0001C709B4B1C70FFF71BFC0522994B1A7020
:10410000994B1C70FFF710FE984809F0C7FA9848C1
:1041100005F05CFABA230120019A9B001380FEBDD2
:10412000A8602873C1E7A8612877002CC6D1347035
:1041300005E03B78002BCCD033782342C9D08D4AA0
:1041400031781378994201D001233B70804B854D23
:104150001C707E4B18780223002C0AD1022809D14A
:10416000814B1978844B002918D01B78002B13D071
:1041700003232B702B78834220D00023032810D0F8
:10418000042811D0022803D17C4913700B703370BE
:104190002878FFF73FFE14E00123EAE71C700523AF
:1041A000E7E7774A1370F3E7764C200009F03AF816
:1041B0000028EDD1200009F041F8E9E73B78002B19
:1041C000E7D100233B70A5E7862900D0A9E06E4A1D
:1041D00090426ED15D4B016818780138002931D1C9
:1041E000032897D801230FF0FDFD02110E28674B1D
:1041F0001B78012B03D000210120FFF7A1FB5B48B6
:1042000009F04CFA86E7574A1370F8E7504A1278DB
:10421000134008D00022494B1A601A71554B1B7885
:10422000012BECD1E7E75207E9D5444A1361137536
:10423000504B1B78042BE2D1DDE70023504A13706A
:104240004D4AE1E7032800D964E701230FF0C0FDE0
:10425000020C06F60322434B1A70D0E70322414BAF
:104260001A70384B023AF7E739480078184219D0EB
:10427000354C2370334C2370304B196014791C710A
:1042800000243D4B1C7004231842B8D02E48037004
:1042900001202C4B1870294B196112791A75364B75
:1042A0000022D9E70028EED0354C2370324C237021
:1042B000E9E7374CA04200D02CE72378002B00D14F
:1042C00028E7224A1278042B0DD1042A05D00122B6
:1042D000244B26481A7009F0E1F90122224B1A708A
:1042E0000023237016E7042A00D116E1012B02D126
:1042F000FFF774FBF4E7012A01D1022BF8D0032B5E
:10430000EED10522174B1A70FDF788FCFDF7F2FB82
:10431000164809F0C3F90023174A1370124A1370A4
:10432000DEE71C4B1B788B4236D1D0B20338421EDD
:1043300090410330FFF78AFEECE6C046080D0020EE
:104340008E6F01006C0D0020A40D0020560D002082
:10435000550D0020A00D0020A80D0020580D0020B4
:10436000300D0020A50D00209E0D00206C000020C7
:1043700078000020540D0020040D0020770D00204F
:104380009C0D00205C0D0020FC0C0020430300204D
:10439000A60D002059230020624B1B788B4200D0D1
:1043A0009DE0614B9A4200D08EE053680020984710
:1043B0005E4C002817D0FDF759FF5D4B5D4A186031
:1043C000012312782370042A00D9A3E69340162211
:1043D000134200D19EE6FA210023574A490057486C
:1043E00008F09CFF96E62378002B00D192E620701F
:1043F000524808F0DBFFFDF739FF4D4B1B68C01A30
:10440000F423FF33984227D8042800D882E60022FC
:104410004B4B1A604B4A136801331360494B1A68BF
:10442000002A48D048498A7A52B2002AFBDB414A26
:104430000C691278012A02D0111F012928D843499A
:10444000434D0868201AA84201D901201860186855
:10445000012806D10C605DE600223A4B1A60384A0A
:10446000D9E7032800D855E6002008601860042A20
:1044700009D00422374B1A7000F0F0FB3649374858
:1044800008F0B8FEBBE600F0E9FBFFF723FDB6E657
:10449000022A05D100221A60314B01321A7039E626
:1044A000032A00D036E600221A602E4B1A601A71D9
:1044B000284B0132D0E6224B1968002900D129E6A9
:1044C0001A60FDF781FB25E6274B9A4202D1FFF7E0
:1044D0002BFC1FE6254B9A4200D01BE6F7E7882904
:1044E0000ED11E4B9A4200D014E608F09BFE002825
:1044F00000D10FE60F4B1B78042B00D00AE6C4E76F
:10450000832900D006E6FDF759FB002800D001E61C
:104510000023019A0320138001E6032B00D0DFE67D
:10452000F9E6C046E92A002014610100300D0020A0
:104530002C0D0020560D0020CD3E0000340D002033
:10454000A00D0020A80D002000140040580D0020F0
:10455000D4300000A50D0020983A00005C0D00202A
:10456000770D0020FC0C0020E46001002C610100AC
:10457000034B1878043843425841C0B27047C046D4
:10458000560D0020014B18707047C0469D0D00204D
:1045900010B500F0AFF90020034B044A1870044B2B
:1045A0001A60FFF72BFC10BD750D0020D76F0100BE
:1045B000700D002010B5034808F0F8FE00F0E8FA8E
:1045C00010BDC0467C0D0020F8B5051E0ED0154B61
:1045D00001290CD100228256202A08D119701F7897
:1045E000002F07D000210800FFF722FDF8BD0022B0
:1045F0001A70F4E7FE222800FEF750F8041EF5D0EA
:10460000094E0200290030000EF051FB002805D0B1
:104610002200290030000EF059FB375521003000F0
:10462000E2E7C046AC0D0020AD0D002070B50500DE
:104630000C1E08D000281CD00F4B1B78002B04D078
:10464000202303700124200070BD0C4E30000EF0BA
:10465000D7FBC0B2002801D12870F3E7231C8442A5
:1046600000D9031CDCB22200310028000EF02EFB22
:10467000E9E70400E7E7C046AC0D0020AD0D0020DF
:1046800073B500200BF022FC802300210F26174A6F
:10469000174D184C1B011848A36011702970017840
:1046A000164A314001700221536029705361126A29
:1046B00013406278D209012AFBD0022221780B2014
:1046C0000A4322705A1E93410722043313403932A1
:1046D000134301A90B700BF033FC01232A78134319
:1046E0002B7080231B012361E36073BDAC0E00209F
:1046F0004B44004100180040354400410044004153
:1047000073B580250026094C2D01094BA56001A930
:104710000B201E700E700BF013FC0121054B1E7058
:104720001A788A431A70256173BDC046001800408C
:10473000AC0E00204B44004110B50BF00DF910BD3C
:1047400010B50024054B1C70FFF7DAFF044B1A006C
:104750004A3214708022D2005A6010BD4C4400418D
:104760008044004173B500200BF0B0FB8023002192
:104770000F26164D164C5B011648A3602970017870
:10478000154AB14301700221536029705361126AC6
:1047900013406278D209012AFBD0022221780C2032
:1047A0000A4322705A4253410722043313403932DC
:1047B000134301A90B700BF0C3FB01232A781343A9
:1047C0002B7080235B012361E36073BD4C44004187
:1047D00000180040364400410044004170B50B4CC5
:1047E000002523004B331D7080231B016360FFF7FE
:1047F000B9FFFFF745FF23004A331D708023DB001C
:10480000A361A3600BF0FAFC70BDC0468044004178
:10481000014B1878C0B27047AD0E0020014B1878DC
:10482000C0B27047AD0E00200022054B10B51A70C3
:104830008022044BD2009A6101200BF07BFD10BD59
:10484000AD0E00208044004110B50BF0C3FA0028E3
:1048500002D00122014B1A7010BDC046AC0E0020E0
:104860000022014B1A707047AC0E00200B4B10B5A4
:10487000DB695B045B0F052B0AD104210B200BF0D5
:1048800089FB074B1B78002B01D00BF09BFA10BD66
:1048900005210B200BF07EFBF9E7C0460018004015
:1048A000AC0E00200A4B10B5DB690A4C5B035B0FB2
:1048B000042B06D105210C200BF06CFB0123237087
:1048C00010BD04210C200BF065FB0023F7E7C04668
:1048D00000180040AD0E0020C37B5BB2002BFBDB59
:1048E0000822837B134083730388063A9343038033
:1048F00070470000F7B53E4F3D78002D75D13D4B18
:104900000F221D70802305263B4C3C485B00A361B1
:10491000A36003785021934333430370384B1D70D9
:1049200080239B00A361A3600124037813400B4301
:1049300003703448344B057034489C619C600178A6
:1049400091433143017032494B360D7001780A4072
:104950001643022206702F4E9A6021005A613000E1
:104960000BF0F8FC002840D121002B480BF0F2FCA2
:1049700000283AD13000FFF7AFFF3388234333805C
:1049800033882342FCD1244E3000FFF7A5FF338843
:104990001C433480330001261A883240FCD10423A2
:1049A00001AC01921A4363703C331A432100194849
:1049B0002270E6700BF07CFD002816D1FF2115480F
:1049C0000BF0EEFD0121802212480BF0BAFD03230B
:1049D00021001148E3700BF06BFD002805D1012583
:1049E000FF210D480BF0DCFD3E702800FEBDC046E7
:1049F000AF0E0020C844004180440041B44400414F
:104A0000C944004140440041004400413044004159
:104A1000414400410028004200300042064B002083
:104A20001A7801231A4206D0044A12781A4202D098
:104A3000034A107818407047C9440041C8440041F7
:104A40004044004170B50E001500084C02000121E1
:104A500020000BF076FD3200002105480BF071FDBF
:104A60002A00002120000BF06CFD70BD00300042D8
:104A70000028004210B5040009280AD80323634324
:104A80000448C1188A78185C4978FFF7DBFF024BAD
:104A90001C7010BD9C700100AE0E0020044B002164
:104AA0001A0049321170802292005A619A60704750
:104AB0008044004141220A4B10B51A70FFF7AEFF47
:104AC00000280CD1074BDA7B52B2002AFBDB08210D
:104AD0009A7B0A409A73022219880A431A8010BDF1
:104AE00041440041002800420222074B10B55A61A0
:104AF000064B3E321A70FFF791FF002802D104489E
:104B0000FFF7EAFE10BDC0460044004141440041A9
:104B100000280042024B1878012318407047C04615
:104B20004144004180220121124B920010B59A614C
:104B3000114A9161802252009A6100230F4A13703A
:104B40000F4A13700F4A13700F4BDA7B52B2002AD0
:104B5000FBDB08219A7B0A409A731A8806398A433C
:104B60001A80FFF7D7FF002802D10848FFF7B4FEEC
:104B700010BDC0468044004100440041C94400418A
:104B800040440041C8440041003000420028004237
:104B900010B5064C2378002B07D0FFF7C3FFFFF7B3
:104BA000A3FF0023024A1370237010BDAF0E002034
:104BB000414400410123134A10B51370124A137087
:104BC000124A1370FFF7A6FF00280CD1104BDA7BB6
:104BD00052B2002AFBDB08219A7B0A409A73022218
:104BE00019880A431A800B4BDA7B52B2002AFBDB8E
:104BF00008219A7B0A409A73022219880A431A8074
:104C000010BDC046C944004140440041C844004171
:104C100000280042003000420022014B1A70704709
:104C2000D00E002010B50023034A1921034808F0D4
:104C300075FBFFF73FFF10BD414C0000B00E002098
:104C400010B5FFF751FF0023024A3221024808F055
:104C500065FB10BD194C0000B00E0020012210B5FC
:104C6000044B32211A7004480023044A08F056FB12
:104C700010BDC046D00E0020B00E0020254C000014
:104C800010B5084C22006378DB09FCD14B881B026D
:104C90001B18A3605378DB09FCD10B881B02181882
:104CA000506010BD000C0040434BF7B51A6A4349F1
:104CB000114082220A431A62DA681207FCD5404981
:104CC0000A78D207FCD500201E243E4A10723E4AC4
:104CD0005168A1435160C02154688900214351604B
:104CE000C2220221D2009A605A6B8A435A63374A21
:104CF00037491A820190DA68D20704D4019A501C0D
:104D000001908A42F7D902246B46002201251A80BD
:104D100023006A462B4353700A23280069465380B8
:104D2000FFF7AEFF6A461F210327684612786B46DD
:104D30008A433A43027010220420202669465B7899
:104D40004D802B439343234383433343083A934398
:104D500020004B70FFF794FF69460A781F216846D0
:104D60006B468A433A4302701022042069465B78FE
:104D70004E802B43934323438343B343083A380085
:104D80006F4693434B70FFF77BFF1F213A786B46CA
:104D90008A433A70102204205B7869462B43934380
:104DA0001C438443B443083A944300207D807C70C4
:104DB000FFF766FFF7BDC046000800400000FFCFC8
:104DC000360400400004004000400041060B000093
:104DD000FEFF000010B500F025F910BD70B50D0004
:104DE000132800D992E00EF0FDFF0A1922282E3771
:104DF00040464F555E677079918279919188141C75
:104E0000082A00D90824A4B222002900002000F0BA
:104E100029F92000002800D07AE070BD141C042A73
:104E200000D90424A4B2220029000820EFE7531E71
:104E30009A41D2B294B20C20E9E7531E9A41D2B201
:104E400094B20D20E3E7141C062A00D90624A4B26C
:104E5000220029000F20DAE7141C102A00D91024A0
:104E6000A4B2220029001520D1E7531E9A41D2B2E4
:104E700094B23320CBE7141C042A00D90424A4B232
:104E8000220029003420C2E7531E9A41D2B294B2C4
:104E90003820BCE7141C042A00D90424A4B2220040
:104EA00029003920B3E7141C022A00D90224A4B235
:104EB000220029003D20AAE7141C042A00D904245A
:104EC000A4B2220029003F20A1E7141C042A00D923
:104ED0000424A4B222002900432098E7141C042AC9
:104EE00000D90424A4B22200290047208FE7531ED2
:104EF0009A41D2B294B24C2089E7141C022A00D9FC
:104F00000224A4B2220029004E2080E7002480E77A
:104F1000013880B22B5CFF2B00D17BE720007CE7BF
:104F2000F7B5060000AF0D001400132800D977E094
:104F30000EF058FF0A20252A2F34393E43484D529F
:104F4000575C76615C7676660020082A66D100F0B0
:104F5000A5F86B466A467B60E31DDB08DB00D31ACD
:104F60009D46220069463000FFF738FFA0424CD032
:104F7000002051E00020042A50D10830E7E700204B
:104F8000012A4BD10C30E2E70020012A46D10D3036
:104F9000DDE70020062A41D10F30D8E70020102A93
:104FA0003CD11530D3E70020012A37D13330CEE78A
:104FB0000020042A32D13430C9E70020012A2DD143
:104FC0003830C4E70020042A28D13930BFE7002058
:104FD000022A23D13D30BAE70020042A1ED13F30F7
:104FE000B5E70020042A19D14330B0E70020042A95
:104FF00014D14730ABE70020012A0FD14C30A6E78F
:105000000020022A0AD14E30A1E72200694628007A
:105010000DF04DFE434258417B689D46BD46FEBDA6
:105020000020FBE704220C4810B5C369134211D1DC
:105030001E210A4B5C682140C4692243C2612022C0
:10504000FF321A831F3AFF3A187D1042FCD0044AFF
:105050000A405A6010BDC0460004004000400041B4
:105060009E03070010B50C00002A0FD080211318F2
:1050700049008B420AD800230749091AC81A9A42E4
:1050800000D110BD0078E0540133F7E7FF21200084
:105090000DF025FEF5E7C046FFFF030070B50600E2
:1050A000C0B00D00141E27D0131880225200934266
:1050B00022D8124968460BF0F5FC00281CD12200CA
:1050C0000123FF30801B001B68442978845C8C42DC
:1050D00001D000238154013A0135002AF5D1002B7B
:1050E0000AD107480BF048FC002805D18022694608
:1050F000520002480BF064FC40B070BD00FF03009A
:10510000FF030000F8231B06994200DA1900054B43
:10511000994200DD19000B1103700B130915437040
:1051200081707047FFFFFF07F0B58FB004F0AAFA57
:105130003B4B1B880493038A0193036805934368E0
:10514000069383680793374B1C7803231C40364B28
:105150001B78032B01D17D331C43344B1B78002B70
:1051600001D040231C43324B1B78002B01D020235D
:105170001C4301272F4B00211E882F4B1D782F4BDE
:1051800000229B5E02932E4B00229B5E0F22039314
:1051900008AB981D0DF0A3FD049A08AB5A80019A44
:1051A000981D05999A801F705C70FFF7ABFF09206E
:1051B00008ABC0180699FFF7A5FF07990BA8FFF7E2
:1051C000A1FF731EC62B1CD808ABDF73132D1FD88D
:1051D000012308AA1374112208ABD2186B461B894D
:1051E000152113701B0A5370132208ABD2186B469B
:1051F0009B8908A813701B0A53700AF01DFE0FB09C
:10520000F0BD642130000EF00BFE08ABD873DDE773
:105210000A2128000EF004FE08AB1874DBE7C04634
:1052200086230020800000201C0F0020100F00208B
:105230001D0F0020120F0020110F0020EC0E002087
:10524000EE0E002000230A4A10B51370094A1370AD
:10525000094B1B78012B05D0032B06D0022004F04C
:10526000EFF910BD0AF004FEF8E7FFF75DFFF5E780
:10527000100F00201D0F00201C0F0020F0B585B07E
:1052800001930AAB1B7806000393019B0D001400E9
:105290000B9F002B02D1002005B0F0BD0B00134383
:1052A000F9D0390004F022F9019B8342F3DD039B1E
:1052B0000120002BF0D03B68326870689B1A019384
:1052C0007B681B1A0198029368436343C0185A23F2
:1052D00000281DD010F07AFD029B06006B431D00D4
:1052E0000F00019B6343E81A10F070FD32003B0091
:1052F0000EF0DCF90022094B0FF05CFF084A094B65
:105300000FF04EFB0EF080F9C21783185340DBB24A
:105310000020039A9A424041C0B2BDE70080664037
:10532000182D4454FB210940014B18787047C046A2
:105330001C0F0020014B18887047C046140F002036
:10534000014B18787047C046110F00204279064B78
:105350001A7002795A70C2789A708278DA7042783C
:105360001A7102785A717047160F0020064B5A794D
:1053700002701A794270DA7882709A78C2705A781C
:1053800002711B7843717047160F002010B506227A
:10539000002102480DF0A3FC10BDC046160F0020EE
:1053A0000023054A985C002803D10133062BF9D16C
:1053B00070470120FCE7C046160F00200D4B10B5CA
:1053C0001A78032A07D10C4A1288824203D10B4A69
:1053D00012788A420DD05A2901D9B42909D1032261
:1053E0001A70054B1880054B19700AF04EFDFFF737
:1053F0009BFE10BD1C0F0020140F0020110F002079
:1054000043425841084B01301A7810B5824209D006
:1054100018700023054A1380054A13700AF035FD01
:105420000AF026FD10BDC0461C0F0020140F0020FE
:10543000110F0020074B10B51A78002A08D000225F
:105440001A700AF015FD0AF032FD022004F0F8F897
:1054500010BDC0461C0F0020F7B5431CDBB2019104
:105460003F4F042B00D8387004F00CF90023FB5692
:1054700004003C4D013302D0068A002E59D0019B16
:10548000002B50D12B8A002B4DD023682A68981A04
:1054900063686A689F1A344B8021090242189A4255
:1054A0003ED87A189A423BD8304B0A2100229B5EA4
:1054B0000922534318180EF03DFD09222B4B06001C
:1054C00018802B4B0A210020185E76435043C019E8
:1054D0000EF030FD264B18804043301810F076FC5B
:1054E0000EF0E8F80EF0BCFE224B80B21880224B82
:1054F0001B78032B08D1214BAF211E8870430EF07F
:1055000019FD1F4B36181E802B0007CC07C307CC94
:1055100007C3194B1B78012B17D0032B1DD0F7BDE8
:1055200040107F10B8E70023104A1380104A138000
:10553000EAE7FF231822310028003B700DF0CFFB73
:105540000A4B1E800A4B1E80E3E70E4B1B78002B94
:1055500003D10D4B1B78002BE1D0FFF7E5FDDEE713
:1055600080000020D40E0020FFFF0000EC0E002081
:10557000EE0E00201E0F00201C0F0020140F002034
:10558000120F0020100F00201D0F00207047000098
:10559000F0B585B004000D00FFF702FF00280AD027
:1055A000002D00D183E00622474928000DF07FFB43
:1055B000002800D17BE0267C04F064F8028A050014
:1055C000002A74D06388002B71D09A426FD13F4B70
:1055D000187800286BD0022858D9032867D13C4B93
:1055E0003C4F0021595E3C4B3F7800229A5E3B4B7A
:1055F0007FB21B88012F01D039480078271D019701
:1056000000902800FFF73AFE0700F3090026B34296
:105610001FD0344B668A1888002805D07043962125
:105620000EF088FC8619B6B21623E25E1423E15E02
:10563000237C03929C4603236246201D1A40012AC4
:1056400000D0637C009301953300039AFFF716FEA8
:105650000600002F01D1002E29D00023224A234921
:10566000234807F05BFE002F26D0224B1A78002A31
:105670001FD101321A70371E1ED1144B1B78012B1B
:1056800001D0032B06D1FFF74FFD03E00027BCE755
:10569000002FF2D1022003F0C5FF211D280027882A
:1056A00003F024FF320001003800FFF76FFF05B060
:1056B000F0BD002EEED000270F4B1A78002AE7D15C
:1056C00001321A70D9E7C046160F00201C0F0020C7
:1056D000EC0E002080000020EE0E0020140F0020B1
:1056E000110F00201E0F002045520000EE020000A6
:1056F000F00E00201D0F0020100F0020044B10B5ED
:105700001C68002C00D110BD636898472468F8E736
:10571000A80F002000210B4B10B51B680A4CFF336B
:105720001B0A9BB2C80098420BD2625CFF2A01D1CF
:105730000131F7E701210A4203D0013052088342C8
:10574000F9D810BD64100020AC0F002010B58024E3
:105750000021220004480DF0C2FA22000021034873
:105760000DF0BDFA10BDC046200F0020AC0F002088
:10577000F0B5012407000D00C1B06442002D02D134
:10578000E04341B0F0BD80232E005B009D4200D974
:105790001E003200390068460BF084F9002810D151
:1057A00003000949BF19AD1B6846C05C220A44408A
:1057B000FF200440A4006458013354409E42F3D1BA
:1057C000DCE70020DDE7C046F0700100F8B52B4CA7
:1057D0002278062A04D8012393407B2213421CD14D
:1057E000FFF798FF264E274D3368FF331B0A9BB205
:1057F00098421ED30BF0AEF83168002902D0FFF7B3
:10580000B7FF0100204B1B688B4207D106232800FD
:10581000237007F0CBFDFBF751FDF8BD0523237086
:10582000FFF794FF0023194A1949280007F076FD75
:10583000F3E7184B154E1B78002B04D104221649B0
:1058400022703200F1E70021144F3B688B4209D0EF
:1058500008F082F807213B680140032B02D9082B8E
:1058600005D8FA310323320023700023DDE70D2B26
:1058700002D80B4BC918F5E7054BFBE735100020A4
:1058800064100020381000205C100020E558000053
:10589000C409000034100020983A0000581000207D
:1058A000EE0200000C4A0B00117810B5062904D84E
:1058B000012088404321084208D1002B07D1042150
:1058C00006481170064A3A3107F028FD10BD022340
:1058D0001370FFF77BFFF9E7351000203810002028
:1058E000E5580000F0B5434B89B01B78062B12D861
:1058F00001273A0043249A401300144060D1282223
:1059000013420ED1DB0606D53B4A3C4913688B4255
:1059100001D8DB1913600223364A1370FFF756FFD4
:105920004EE0374B1B78002BF5D0FFF7F3FE354BDD
:1059300085B21B680600FF331B0A9BB29D42EAD268
:1059400003F01AFB304B02AA1B6802A9D3701A0499
:10595000120E8A701A021B0E0B702C4B120E1B6853
:105960004A701A04120ECB718A711A021B0E0B7147
:10597000234B2D0A1B78120E8D724A710F81CE7245
:1059800005AD022B1ED103F021FF10236B8002AB6B
:105990006B600C2328802B8103F06CFA2A001C49D1
:1059A00004F0ACF800280BD003F05EFA19491B2074
:1059B00003F048FB184B21009B6818480193984757
:1059C00009B0F0BD03F002FF10236B8002AB6B60E7
:1059D0000C2328802B8103F04DFA2A000C4904F097
:1059E000D6F80028ECD003F03FFA21000B4804F071
:1059F000D3FCE5E73510002058100020FEFF000022
:105A00003410002064100020601000205C10002082
:105A1000FF0100002C100020F8740100A5580000C0
:105A2000024B1878431E9841C0B2704735100020D1
:105A300080235B0070B503811D4B04001D78002D91
:105A400007D1056045600AF08BFF000A6081A581DF
:105A500070BD012D0CD1174B0360174B1B684360C1
:105A6000164B1B68FF331B0A9BB243818381EFE710
:105A7000002201251100124B1B680360114B1B68AB
:105A80004360114B1B68FF331B0A43810F48435C83
:105A9000002B02D0FF2B05D1083201318029F6D12D
:105AA000A281D5E71E002E4092195B08FAD1F4E7D7
:105AB00035100020723FFAEFA00F0020A40F002045
:105AC000601000205C10002064100020AC0F00204B
:105AD000114B10B51A78114B0273022A00D0002323
