:100000000020001015010000FD00000001010000AB
:1000100000000000000000000000000000000000E0
:1000200000000000000000000000000005010000CA
:100030000000000000000000090100000D010000A8
:100040001101000011010000110100001101000068
:100050001101000011010000110100001101000058
:10006000110100001101000000000000000000006C
:10007000000000000000000011010000110100005C
:1000800011010000110100003509000011010000FC
:1000900011010000690400000000000000000000E1
:1000A0001101000011010000110100001101000008
:1000B0000000000000000000000000000000000040
:1000C000B0A700000000001048020000B0A7000028
:1000D0000000002000000000B0A700000040002049
:1000E0000000000048020010040F00000000002083
:1000F000000000000040002000000000FEE7C046B5
:10010000FEE7C046FEE7C046FEE7C046FEE7C04643
:10011000FEE7C046C023204A1B05116870B50B439B
:1001200013601E4E1E4BB34210D2186859680C3330
:100130001A1F15680200002DF5D0091A14685450D2
:100140000432141AA542F9D8B342EED315498B42B2
:1001500014D21A000720002608320731891A814379
:1001600089181D685C682A00002C04D016600432CF
:10017000501B8442FAD808339942F2D10A4B0B4AF9
:100180001B681B69196811605A68094B1A6000F0F6
:100190001DF900F0B5F8FEE780800440E40000009F
:1001A000C0000000FC000000F81FFF1F2C10001012
:1001B0002810001010B50300002A06D0091A1C6888
:1001C0005C5004331C1AA242F9D810BD10B50300CC
:1001D000002905D000241C6004331A1A9142FAD871
:1001E00010BDC046FFFFFFFFFFFFFFFFFFFFFFFF48
:1001F000FFFFFFFFFFFFFFFFFFFFFFFFFFFFFFFF0F
:10020000FFFFFFFFFFFFFFFFFFFFFFFFFFFFFFFFFE
:10021000FFFFFFFFFFFFFFFFFFFFFFFFFFFFFFFFEE
:10022000FFFFFFFFFFFFFFFFFFFFFFFFFFFFFFFFDE
:10023000FFFFFFFFFFFFFFFFFFFFFFFFFFFFFFFFCE
:10024000FFFFFFFFFFFFFFFFFFFFFFFFFFFFFFFFBE
:10025000FFFFFFFFFFFFFFFFFFFFFFFFFFFFFFFFAE
:10026000FFFFFFFFFFFFFFFFFFFFFFFFFFFFFFFF9E
:10027000FFFFFFFFFFFFFFFFFFFFFFFFFFFFFFFF8E
:10028000FFFFFFFFFFFFFFFFFFFFFFFFFFFFFFFF7E
:10029000FFFFFFFFFFFFFFFFFFFFFFFFFFFFFFFF6E
:1002A000FFFFFFFFFFFFFFFFFFFFFFFFFFFFFFFF5E
:1002B000FFFFFFFFFFFFFFFFFFFFFFFFFFFFFFFF4E
:1002C000FFFFFFFFFFFFFFFFFFFFFFFFFFFFFFFF3E
:1002D000FFFFFFFFFFFFFFFFFFFFFFFFFFFFFFFF2E
:1002E000FFFFFFFFFFFFFFFFFFFFFFFFFFFFFFFF1E
:1002F000FFFFFFFFFFFFFFFFFFFFFFFFFFFFFFFF0E
:10030000F0B583B002F0B8FF2A4D837E06002B7053
:1003100007F01CFF07F0D8FD0021002007F0AAFD20
:100320000021012007F0A6FD02F0AAFF00F040F92D
:1003300000F064FA00F0A6FA00F02CFB03F012F8CB
:100340001D4F0420390001F00FFA1C481C4A01001F
:1003500000F0AAFB03F010F81A491B4805F018F842
:100360006B46DC1D12E03900042001F0FDF9B37E7C
:10037000002B1BD10A212200002002F035F9217840
:1003800001204B1E9941C9B207F074FD06F0A0FF91
:1003900007F034FBB27E2B789A42E9D02A70002A0B
:1003A000E1D101F0D3F9B37E002BE3D000F0CAFF16
:1003B000E0E7C04648020010D0030010D50300005B
:1003C00065040000301000104410001010B507F054
:1003D0009BFD10BD10B586B002F04EFF6B460400C9
:1003E000981D01F027FA0E236B44180001F02EFA35
:1003F0000A236B44180001F035FA12236B441800ED
:1004000001F03CFA21006846062202F04FFF6B46DD
:10041000A01D991D042202F04DFF0E2320006B4405
:1004200019000A30042202F045FF0A2320006B4421
:1004300019000E30042202F03DFF122320006B440D
:10044000042219001B3002F035FFA37E69465A1EB4
:1004500093416A4601330020937502F0B9F906B062
:1004600010BDC0467047C04610B5034A0349044852
:1004700007F08EFF10BDC046301000104410001071
:1004800000800040F8B50400437801781B020B435C
:10049000817809040B43C17837480906194307F0EE
:1004A00019FF2379072B57D0082B35D10F271F268B
:1004B0000B211B2007250322A379012B04D0022B3B
:1004C0002DD1390030002A006379012B2CD0002B6C
:1004D00002D0022B2AD10200274D9123EA6000218D
:1004E0000722264807F06AFD8123112200212348B4
:1004F00007F064FDE379012B35D0002B23D0022BCC
:1005000017D0032B07D1C2222B6993432B61EB6CCD
:10051000913A1343EB64F8BD08232371C6E7012326
:10052000A3716379012BD2D10A00D5E7002363714F
:10053000D2E7802311220021104807F03FFDA023BD
:100540000022DB055A74C2222B6993432B61EB6CAA
:10055000913A9343EB64DEE70E271E260A211A2008
:1005600006250222A8E73122EB6C9343EB642B694A
:100570008F3213432B61CEE70080004000400440DF
:1005800010B502000B000248024907F0F9FE10BD49
:10059000008000404410001010B502000B0002481B
:1005A000024907F0B3FE10BD00800040301000107B
:1005B000F8B502F061FE0400504807F06BFE1234FB
:1005C00021784E4863781B020B43A17809040B4342
:1005D000E1780906194307F07DFE2379072B00D146
:1005E0007BE0082B59D11F270F261B200B21072545
:1005F0000322A379012B04D0022B51D13800310002
:100600002A006379012B50D0002B02D0022B4ED14F
:1006100002003A4D9123EA6000210722384807F092
:10062000CDFC812311220021354807F0C7FCE37976
:10063000012B59D0002B47D0022B3BD0032B07D1E5
:10064000C2222B6993432B61EB6C913A1343EB6409
:10065000C1232A4C0122A360413B23638023294903
:100660001B01294807F0B0FC802301221B01274908
:10067000274807F0A9FC0522C520636880001343C2
:100680006360244B24491A5811408022D2010A4346
:100690001A50802292031A60F8BD08232371A2E742
:1006A0000123A3716379012BAED10A00B1E70023C6
:1006B0006371AEE7802311220021114807F07EFC10
:1006C000A0230022DB055A74C2222B6993432B61BD
:1006D000EB6C913A9343EB64BAE71E270E261A207F
:1006E0000A210625022284E73122EB6C9343EB6456
:1006F0002B698F3213432B61AAE7C046008000406C
:100700000040044000000020441000100040002081
:100710003010001000E100E0FF00FFFF052270B57F
:10072000154C802163688903934363608023134AD7
:100730002000D15007F0AEFDE1212000490207F072
:10074000C9FD03230E4DE36028008E3307220021EC
:1007500007F034FC280000218123112207F02EFC31
:10076000C2222369200093432361E36C913A9343AF
:10077000E36407F0A3FD70BD0080004000E100E0ED
:1007800000400440A0230022DB059A707047C04659
:10079000A0230122DB059A707047C04610B50A00FD
:1007A0000100024807F0C6FE10BDC046000004402C
:1007B00010B582B06B46DC1D01222100024807F013
:1007C000B9FE207802B010BD0000044010B50A0048
:1007D0000100024807F046FE10BDC046000004407C
:1007E00000B583B06B46D91D08700122024807F09E
:1007F00039FE03B000BDC0460000044010B51E4CD9
:10080000822320000622002107F0D8FB200081234C
:100810000822002107F0D2FB2000812309220021B9
:1008200007F0CCFB200010230222002107F0C6FBBA
:10083000A02280230420D2059B01D1580F4C0143F4
:10084000D1508021D058C9030143D150200007F076
:1008500037FFFF22236820009343F83A13432360B5
:10086000012107F0E1FE0649200007F0E7FE022221
:1008700063681343636010BD0040044000000440FF
:100880008096980070B586B002AC2200224B0126FB
:1008900023CB23C21B68A0251360FA200023ED059B
:1008A000AE708000AB7500F09FF81C491C48AE7517
:1008B00001F050FF1B491C4801F05EFF1B491C481A
:1008C00001F070FF2100012002F0D6F86424431CDF
:1008D00007D11FE0013C6420E4B200F085F8002C51
:1008E0000AD0002002F05EFA0306F3D4B82080019B
:1008F00002F058FA0306EDD56B46D91D01230D20F1
:100900000B7002F0B9F8D8200321400102F07AFA06
:1009100006B070BDFEE7C046409D00009107000094
:1009200085070000E1070000B1070000CD070000C7
:100930009D07000070B502F09FFC0222124B0600DA
:1009400019680A4200D01A60104CFA212368581C1A
:10095000206007F04DFF0D1E00D070BD002007F095
:100960009DFA25600A4C2368581CB37E2060002B3A
:1009700006D13C2107F03CFF0029EED12160ECE7D5
:1009800000F050FF2068F4E7004001404C020010E6
:100990005002001070B5124C200007F033FD07F034
:1009A00033FC0500200007F051FD0822FA2163699D
:1009B000280013436361890007F01AFF1022E061E9
:1009C0006369C0211343636163680F3A1343802254
:1009D0006360044BD20249005A501A6070BDC04691
:1009E0000040014000E100E082B00190019B5A1EEE
:1009F0000192002BFAD102B07047C046F02010B52A
:100A000004220849000102F073FAA02004220649DA
:100A1000C00002F06DFA802004220449400002F078
:100A200067FA10BD5C02001060020010580200104E
:100A300010B58021002002F0E5F9002002F0B2F9A3
:100A4000902006220249000102F052FA10BDC04671
:100A50005810001010B58021002002F0D3F90020BA
:100A600002F0A0F9F02004220B49000102F040FA44
:100A7000A02004220949C00002F03AFA8020042292
:100A80000749400002F034FA90200622054900018F
:100A900002F02EFA10BDC0465C0200106002001089
:100AA000580200105810001070B5094B094D0A4C3F
:100AB0002B600A4B0A4E23600A4B1E60002800D0B0
:100AC0002860002900D02160002A00D01A6070BD83
:100AD000FD090000340000103C000010550A000021
:100AE000310A000038000010902010B582B00622B4
:100AF0006946000102F0B8F9234B1A68234B1360D2
:100B0000234B1B68190E1171190C5171D371190AFD
:100B100080231B049360002391711E49D3600878E1
:100B20001361536193611077487850778878907794
:100B3000C878D07720200C7914544879212150545A
:100B40000131535401315354100053629362D36204
:100B5000136353639363D363136453649364D364E1
:100B6000136553659365D3651366536693661300E7
:100B700000216C33EC3002C39842FCD1EC230649CF
:100B8000D15002B010BDC04668100010010106002F
:100B9000601000105810001063825363F0B5DE46F9
:100BA0004E4657464546E0B58DB0FFF79DFF9D4B3D
:100BB0009D4A1968F023CA5008220433FF32CA52F2
:100BC0009A4B113A18789A4E8854587801328854C2
:100BD000987801328854DA7835789346F922584665
:100BE00088541A799246FA22504688545B7999467D
:100BF000FB234A46CA540C220133CA52002D00D1AD
:100C0000F6E0EA3B00E013001C00C818113CEC3091
:100C1000A4B20570355D5A1C92B2002DF3D1251D8A
:100C20000334E4B204945C1DA4B205949C1DA4B2E8
:100C30000694DC1DA4B207941C00981C80B2804668
:100C4000D81C80B284460834181DA4B280B2451B5B
:100C500008941C001F001E0003951D000C3409376A
:100C60000A360B35A4B20D33BFB2B6B2ADB2099499
:100C70009BB25C468A18EC321470424654468A187D
:100C8000EC32147062464C468A18EC3214706C4692
:100C9000039A247C8A18EC32147037220818EC303E
:100CA000027006208446059A64468A18EC32107059
:100CB0000120069ACF198A18EC321070079A023078
:100CC0008A18EC321070089AEC378A18EC321470DB
:100CD0000F228E193A70EC362B324D193270EC35EA
:100CE00001322A70099A8C18FF22EC3422703822C3
:100CF000FF32934265D81E009C25EC368A19524279
:100D00006D000240ED1AD01CADB2041C04286BD952
:100D10003820FF30C01AA4B280B2844228D8002AFA
:100D200064D00027C818EC305C1C0770A4B2012AFC
:100D30000BD00C19EC3427709C1CA4B2032A04D1EC
:100D40000C19EC34033327709CB2AD1A00209219B1
:100D50000026ADB2AF088A18013083B240C29F426C
:100D6000FAD803232A009A431419A3B2AA4228D01E
:100D700000209C24CA18EC3210705A1C92B26400F5
:100D8000A2421ED08A18EC3210709A1C92B2A24273
:100D900017D08A18EC321070DA1C92B2A24210D02E
:100DA0008A18EC3210701A1D92B2A24209D08A1829
:100DB0000533EC329BB21070A34202D0CB18EC3357
:100DC000187001235B420B931A4B89221878432336
:100DD000920000930BAB01F0BDF90DB03CBC904606
:100DE0009946A246AB46F0BD052491E71C00ACE74E
:100DF0001D220992043A0892013A0792013A06929A
:100E0000013A0592133A04920E3203920332944649
:100E1000013A90461E231C251B261A271520013A4D
:100E200027E7C046681000103501013D581000103A
:100E30002C0000106C100010F0B5DE4657464E46F0
:100E40004546E0B593B0FFF74FFECE4B1B78033B12
:100E5000012B00D87BE101235B421193CA4BFF2297
:100E6000196811AB9946F023C848F624C8500820E9
:100E70000433FF30C852C64B1D780D555D780134E0
:100E80000D559D7801340D55DC78A246F924554660
:100E90000D551C7925000E94FA240D555B791C0024
:100EA0000F93FB23CC54FF2A00D17BE11F230D932A
:100EB000013B0C93013B0B93013B0A93013B0993CC
:100EC000013B0893013B0793013B0693013B0593CC
:100ED000013B0493033B0393013B9C46013B2020D1
:100EE000152514271222984610240C230C19EC34D3
:100EF00023704346CC18EC23984600239B46A0441D
:100F000043465E461E70A34B98461B789B46002BBB
:100F100000D18DE1634658465A1CCB18EC3318704B
:100F200043465878002800D185E18A18EC321070C9
:100F30004246634690780233002800D17DE1CB1809
:100F4000EC33187043466246D8780332002800D14B
:100F500076E18A18EC321070424663461079043309
:100F6000002800D161E1CB18EC331870434662468B
:100F700058790532002800D164E18A18EC321070EB
:100F80004246634690790633002800D15CE1CB18D5
:100F90006246EC33187007200732531CD51C041D21
:100FA0009BB2ADB2160003932B1B9846C31C101DB9
:100FB0009C4683B2501D049383B2901D059383B267
:100FC000D01D069383B20130079383B2013008939A
:100FD00083B20130099383B201300A9383B20130A6
:100FE0000B930D3683B20C93B3B20D934346971C0B
:100FF0000230BFB280B2CC1853468A18EC3213705C
:1010000038266A46039B92191278CB18EC331A7073
:101010003C226B469B181B78CF19EC373B7063461C
:10102000EC342370372306244D19EC352B70049BC8
:10103000343ACB18EC331A70059B073ACB18EC33D3
:101040001A70069B0232CB18EC331A70079B05000E
:10105000CB18EC331C70089B0934CB18EC331C7094
:10106000099B2B34CB18EC331C700A9B0134CB1832
:10107000EC331C700B9B1C3CCB18EC331C700C9B92
:101080000234CB18EC331C700D9BEC35CE18FF23CB
:10109000EC3633709C264B1976005B42361A1340AF
:1010A00012D000240A18EC321470421C012B00D11B
:1010B000B9E08A18EC321470821C032B00D0B2E025
:1010C0008A18EC3214700330F61A00225B190025DE
:1010D000B408CB18013220C3A242FBD30323320051
:1010E0009A431018B24222D09C220B18EC331D7088
:1010F000431C520093421AD0CB18EC331D70831C52
:10110000934214D0CB18EC331D70C31C93420ED005
:10111000CB18EC331D70031D934208D0CB18EC3371
:1011200005301D70904202D00818EC3005701A4B43
:10113000892218784323920000934B4601F00AF865
:1011400013B03CBC90469946A246AB46F0BD0E4B50
:10115000196800238B72CB72104B1A780A735A7875
:101160004A739A788A73DB78CB7311AB99464846F9
:101170000B4B1A7802705A7842709A788270DA783B
:10118000C27070E669020010681000103501033D5E
:10119000581000102C0000106C1000105C020010A1
:1011A000641000102A4C0133CC52FE24294B202716
:1011B0001D780D555C7821258C549C7801328C5417
:1011C000DA780223FF33CA54234A0133CA528222F7
:1011D000224B52001C788C5406225C78FF328C54CF
:1011E0009C7801328C54DB78E83A0B542B230D9316
:1011F000013B0C93013B0B93013B0A93013B099389
:10120000013B0893013B0793013B0693013B059388
:10121000013B0493033B0393013B9C46013BDB38BA
:1012200098461C2461E610004EE71A000420B4E63C
:1012300003239C46E0E60120AFE61A000220ACE65C
:101240000320AAE60520A8E61A000620A5E6C04667
:10125000320400005C02001036040000641000102C
:1012600030B585B0FFF740FC2E4B082019680023ED
:101270002D4A8B72CB72F033CA50F622FF30043302
:10128000C8522A4B1C788C545C7801328C549C7860
:1012900001328C54DC7801328C541C7901328C542C
:1012A0005A79FB23CA54224A0133CA52FE22214BE7
:1012B0001C788C545C7801328C5480249D786400B6
:1012C0000D55DC780223FF33CC541B4C0133CC5238
:1012D00082241A4B64001D780D5506245D78FF3476
:1012E0000D559D7801340D55DB780B5484235B003C
:1012F000CA500B002632FF32881800220D33FF330C
:1013000004C39842FCD101235B4203930C4B892216
:10131000187843239200009303AB00F01BFF05B045
:1013200030BDC046681000103501043D5810001053
:10133000320400005C02001036040000641000104B
:101340006C100010F0B5DE4657464E464546002369
:10135000E0B5C24C89B0E356062B00D1AAE0C22307
:101360009B009C46BE4D28784001604401F01AFD68
:10137000222821D1287801F067FE002827D10023F8
:10138000E356012B00D1A9E000DC9BE0022B00D04A
:10139000B3E00023B34DEB56012B00DCB2E0FFF7C6
:1013A000FDFB0123237000230A21AF4A2B70136039
:1013B000AE4A116001207EE02878002344220221F9
:1013C00000F068FA287801F03FFE0028D7D02B788B
:1013D0000E269C4602AB9846A54F4644009606ABA7
:1013E00002003968604600F083FF3388432BC6D182
:1013F0003B68A04A1E7F11788E42C0D15E7F517833
:101400008E42BCD19E7F91788E42B8D1DE7FD1785A
:101410008E42B4D120215E5C11798E42AFD1212160
:101420005279595C9142AAD193491A00894693494D
:1014300000278846924980B28A469249F0328C460B
:101440001818904210D91178062900D1C7E000D8A9
:1014500084E0352900D1BFE000D8A8E0362900D1CA
:10146000D6E0FF2900D0CFE00026A657012E00D1FC
:1014700050E100DCDCE0022E00D1DEE0042E99D148
:10148000052F5CD10023774D7F4A2B707F4B10785E
:101490001978884200D179E07D4B1B68984703207A
:1014A00000230A21704A2B701360704A03331160C5
:1014B000237000E0052009B03CBC90469946A24646
:1014C000AB46F0BD002B00D074E700226F4B1A60D2
:1014D000FFF764FB012301202370ECE70023614D3B
:1014E000EB56012B21DD00230A215F4A2370136094
:1014F0005E4A2B7011600020DDE7042B00D148E725
:101500000120D8E7584C594E236832689A4200D3DC
:1015100050E7FFF791FC00232360236801200A3382
:1015200033602B7801332B70C5E74F4C4F4E236847
:1015300032689A4200D33DE7FFF730FBEBE7062F16
:1015400000D026E700230A21474A30001360474AAB
:101550001160444A137001332370ACE7012964D051
:10156000002960D003294FD15178967803914949D9
:101570000E70D6784E7016798E705679B3465E46E8
:10158000CE7003998B465A4402325AE75078597804
:10159000884200D080E790789978884200D07BE735
:1015A000D278DB789A4200D076E7300078E73329AA
:1015B0002AD1564691783160D6780902B346167919
:1015C0005944B346567909025944B346564609026E
:1015D00059443160063234E79778033231E7967820
:1015E0005178B34603914E4659463170D1788B46B7
:1015F00049465E464E7011798B4649465E468E706E
:1016000051798B464946BAE7911C52788A1818E7F7
:10161000464691783170D17871701179B1705179F5
:101620000632F1700DE701320BE791786646F1E77B
:10163000002E00D149E701203DE7052F2CD0062FD1
:1016400000D0A6E600230A21074A01201360074ABA
:101650001160044A1370013323702CE769020010F3
:101660006C100010680200106C02001044000010A2
:101670006810001058100010540200106410001080
:101680004000001060020010640200105C020010B4
:101690003C00001058020010D820400101F082FBED
:1016A0000600D8200321400101F0ACFB1F4B287835
:1016B0001F49009311221F4B00F04CFD0500D8205C
:1016C0003100400101F09EFB0D3514D0FFF7C8FD3D
:1016D000194A116813685B1A012BFBD900251560A4
:1016E0000A22164B1A60164B1D70164B1B68984742
:1016F00025700120DFE6144B1B68984700230A2160
:101700000D4A012013600D4A11600D4A1370033316
:101710002370D0E6022F00D0E0E61A69054B1A606C
:10172000FFF78AFB27703000C5E6C046881300002B
:10173000509D00005C0200106C020010440000107C
:1017400068020010380000103400001010B5044B7F
:10175000187800F089F90622024B1A7010BDC046B5
:101760006C1000106902001070B506009020002374
:10177000234C82B006220D0000012100019301F0EC
:1017800073FB627823781343A2781343E278134300
:1017900022791343627913430DD10822902062709D
:1017A000D432A2702100D63A00012370E370237175
:1017B000637101F09DFBF020124B134A1E70134B16
:1017C00001A91D60124B00011A60042201F090FB78
:1017D000F02001A90422000101F08AFB802001A968
:1017E0000422400001F084FB00230A21094A13600F
:1017F000094A1160094A1370094A137002B070BD9A
:10180000581000106C100010785634126810001038
:10181000601000106C0200104400001068020010FC
:1018200069020010024A1368013313607047C04612
:101830006C020010044B1A7802705A7842709A7841
:101840008270DB78C37070475C020010044B1A781A
:1018500002705A7842709A788270DB78C370704751
:1018600058020010044B1A7802705A7842709A7825
:101870008270DB78C370704760020010044B1A78E6
:1018800002705A7842709A788270DB78C370704721
:1018900054020010F0B54E4657464546DE46E0B5C8
:1018A000884687B0060091469A46082800D9CAE0C3
:1018B000022917D0042915D0012908D0052040425B
:1018C00007B03CBC90469946A246AB46F0BDF0201E
:1018D0000422000105A901F0C7FA0320059B40423C
:1018E000002BEDD053465B0700D59DE05346002BFF
:1018F00000D184E04346012B00D198E0022B00D0B8
:101900008BE0534659B253469B0600D589E05346B7
:10191000DB0600D585E00191770108377C1CFF3498
:101920001021200001F06EFA200001F03BFA00289F
:10193000FAD180239B0005001F21F81801F062FAFC
:101940000123B340DB431AB2404B02929B465946F7
:101950001B8813400B803E4B1B8813403C4A13806E
:101960003C4A7300D552039300233B4A9355C0234E
:101970009B00FD18280001F015FA0028FAD10F236A
:1019800001993800994343461943C9B201F03AFA24
:101990004B46002B35D0190ADBB299468023DB0079
:1019A000F81801F02FFAA023DB00F818494601F0DF
:1019B00029FA0121200001F025FA200001F0F2F9B6
:1019C0000028FAD1012254465B462240B2401B88CF
:1019D00002990B4013435A4613801D4B1C4A1B8827
:1019E0000B4013801B4B039A985200231A4A9355BD
:1019F000280001F0D7F90028FAD070B260E7002182
:101A000089E7164916480A88531C9BB2834214D0B2
:101A10000B80D3B2110A9946C0E753465BB20193DB
:101A20007AE7002900DA76E70620404248E72123DA
:101A300052461342F8D051B26DE70A4B0B80EF23A8
:101A4000FF219946AAE70120404239E770020010C1
:101A5000720200107C020010740200104800001096
:101A6000F0FF000000C0FFFFF8B5070008282FD8DE
:101A7000450108356E1CFF361021300001F0C2F917
:101A8000300001F08FF9041EFAD180239B00E81882
:101A90001F2101F0B7F90123BB40DB430E491BB204
:101AA0000A881A400A800D490A8813400B800C4BA3
:101AB0007A00D45200220B4BDA55C0239B009C467F
:101AC0006544280001F06EF90028FAD10130F8BD14
:101AD00001204042FBE7C046700200107202001075
:101AE0007C02001074020010F0B5C646060000B576
:101AF00008282AD845010835280001F053F90F239A
:101B0000184001281BD1C0239B00EF18380001F0BA
:101B100049F9132816D16C1CFF340221200001F072
:101B200071F9200001F03EF90028FAD1380001F0E7
:101B300039F914280CD1133804BC9046F0BD0520A7
:101B40004042F9E703204042F6E701204042F3E734
:101B50001021200001F056F9200001F023F9804601
:101B60000028F9D180239B00E8181F2101F04AF9D1
:101B70000123B340DB430B491BB20A881A400A8099
:101B800009490A8813400B804146084B7200D15224
:101B90000022074B9A55380001F004F90028FAD1C9
:101BA0000438C9E770020010720200107C020010B5
:101BB00074020010F0B5C646070000B50E0090464E
:101BC00008286BD844010834200001F0EBF80F23FB
:101BD000184001285FD1C0239B00E518280001F0C0
:101BE000E1F813285DD13278737812029A18B3782D
:101BF00012029B18F2781B02013A9B18033356D845
:101C00004346002B50D0C0231B0104223100E018B2
:101C100001F06EF94346190A80235B01E01801F0D8
:101C2000F1F84346D9B28823661C5B01E018FF3601
:101C300001F0E8F80421300001F0E4F8300001F090
:101C4000B1F80028FAD11B4B1B883B41DB0715D4A8
:101C500080239B009C460826644409E0200001F094
:101C6000A1F806420DD1280001F09CF800280FD001
:101C7000280001F097F81728F0D1163804BC9046D8
:101C8000F0BD2000082101F0BDF80D204042F5E72D
:101C900004204042F2E705204042EFE701204042A5
:101CA000ECE703204042E9E70B204042E6E70C2046
:101CB0004042E3E770020010F8B54546DE4657465D
:101CC0004E468046E0B5082800D96EE0440108344D
:101CD000200001F067F80F231840012862D1651C2D
:101CE000FF350821280001F08DF8280001F05AF88E
:101CF0000028FAD10122434616009E402C4BF643A1
:101D00009A4651461B8836B233400B804146294BD8
:101D10009B461B880B411A4216D1C0239B00E71833
:101D2000013BFF3B9C46F93BFF3B6444994605E081
:101D3000200001F037F84B4603420BD1380001F088
:101D400031F80028F4D101303CBC90469946A246B7
:101D5000AB46F8BD1021280001F054F8280001F02E
:101D600021F881460028F9D11F21200001F04AF80E
:101D70005B465A461B8849463340138053461B88AE
:101D80001E4053461E8043465A000B4BD152002240
:101D900041460A4B5A54380001F004F80028FAD1A1
:101DA0000D38D1E705204042CEE701204042CBE785
:101DB00072020010700200107C0200107402001009
:101DC000F0B54546DE4657464E46E0B583B00500C1
:101DD00001911400082800D9CFE00823984640015B
:101DE0008044404600F0DEFF0F231840012800D059
:101DF000C9E0002C00D1C3E0C0239B00434418007D
:101E0000994600F0CFFF172802D01C2800D07CE0B4
:101E10005E4B01279B461B882B411F4237D1AF40A9
:101E2000F8204001404400F0BDFF8002061C80B253
:101E3000A04200D9261C564BB6B29A46280001F0A3
:101E40009DF80400484600F0ADFF172801D01C287B
:101E500032D153461B881F422BD0B44221D3444673
:101E60000134019928003200FF3401F04DF920219E
:101E7000200000F0C7FF200000F094FF0028FAD1F6
:101E80005B461B8830001F435B461F800AE08026AC
:101E9000B6004644300000F085FFC30638D403077F
:101EA00041D4002003B03CBC90469946A246AB46C4
:101EB000F0BDB442C2D3D2E743465E1CFF361021C8
:101EC000300000F09FFF300000F06CFF041EFAD1DC
:101ED0008020800040441F2100F094FF5346FF43C0
:101EE00052461B883FB23B4013805B461B886A000A
:101EF0001F405B461F80274BD4520022264B5A5569
:101F0000484600F04FFF0028FAD107204042C9E7B9
:101F10001021300000F076FF5B46AF405A461B8828
:101F2000BB4313807CE747460137FF371021380059
:101F300000F068FF380000F035FF041EFAD11F21C1
:101F4000300000F05FFF0123AB40DB4310491BB2C0
:101F50000A881A400A805A46128813405A4613804B
:101F60000C4B6A00D45200220B4B5A55484600F0E5
:101F700019FF0028FAD10D3894E70120404291E77B
:101F80000E2040428EE7052040428BE7720200108F
:101F9000700200107C02001074020010F0B54E4672
:101FA000DE4657464546E0B583B006000191140071
:101FB000082800D9BDE045010835280000F0F2FEF0
:101FC0000F231840012800D0B9E0002C00D1B3E065
:101FD000F0235B01E81800F0E5FE8002031C80B2EC
:101FE000A0424ED89BB29A46C0239B009846F82345
:101FF0005B019C46AC44634601270093514BB740BC
:102000009B46A844300001F01FF80400404600F051
:10201000C9FE17280ED01C2835D1002C11D1300054
:1020200000F0ACFF8146009800F0BCFE800280B258
:10203000814552D05B461B881F421FD0002C00D127
:1020400075E0221C544500D9524694B201350199DD
:1020500030002200FF3501F08BF84021280000F00D
:10206000D1FE280000F09EFE0028FAD1200003B027
:102070003CBC90469946A246AB46F0BD002CC1D070
:10208000DFE7231CAEE76B1CFF33102118009946D5
:1020900000F0B8FE484600F085FE041EFAD1802309
:1020A000FF439B00E8181F2100F0ACFE254A3FB219
:1020B00013883B401380244A13881F40234B17800A
:1020C0007200D4520022224B9A55404600F06AFE1C
:1020D0000028FAD107204042C9E76B1CFF331021CA
:1020E0001800994600F08EFE484600F05BFE041E84
:1020F000FAD18023FF439B00E8181F2100F082FEE5
:10210000104A3FB213883B4013800F4A13881F4088
:102110000E4B17807200D45200220D4B9A55404648
:1021200000F040FE0028FAD1072040429FE700203F
:102130009DE7012040429AE70E20404297E70520A4
:10214000404294E770020010720200107C020010FE
:1021500074020010F8B54546DE464E465746E0B5D7
:102160001D000AAB1B8806008B4614009846082801
:1021700000D9B2E047010837380000F013FE0F2302
:102180001840022802D0042800D0A3E0002C00D17F
:10219000A9E02A786B7812029A18AB7812029B1881
:1021A000EA781B02D318002B00D183E04346002BB2
:1021B0006CD0C0239B009946B944484600F0F2FD1C
:1021C000DF232238184200D08AE0C0231B010422FA
:1021D0002900F81800F08CFE4346190A80235B01A1
:1021E000F81800F00FFE4346D9B288235B01F818B7
:1021F00000F008FEF8235B01F81800F0D3FD800220
:10220000051C80B2A04249D80123B3409846374B01
:10221000ADB29A46300000F0B1FE0400484600F02E
:10222000C1FD002843D0534642461B881A422AD09B
:10223000A54235D87C1C594630002A00FF3400F0F6
:1022400063FF2021200000F0DDFD200000F0AAFD4A
:102250000028FAD153461B883341DB0720D4802362
:102260009B009C4610246744082601E006422AD1C0
:10227000380000F097FD0442F8D03800102100F03B
:10228000C1FD28000DE0A542C4D8D3E7380000F016
:1022900089FD43078DD40B20404202E0251CB3E7A3
:1022A00000203CBC90469946A246AB46F8BD0420AF
:1022B0004042F6E7380000F075FD430700D575E7AA
:1022C0000C204042EDE73800082100F09BFD0D2076
:1022D0004042E6E705204042E3E701204042E0E7D4
:1022E00007204042DDE70E204042DAE7700200108E
:1022F000F0B54546DE4657464E46E0B589B0050086
:10230000049101920593082800D9EBE043010833BA
:102310001800029300F046FD0F2303900340022BA8
:1023200002D0042B00D0D9E0019B002B00D1DDE0CE
:10233000734B9B466B009A465B4652469B5A002B5A
:102340005BD1C02292009446029B012763449846C9
:102350006C4BAF4099464346B8461F00280000F03A
:1023600073FE04000600380000F01CFD002800D1B8
:10237000ABE04B4642461B881A4254D0002C00D199
:10238000A7E00723029F039A0137FF371340022B70
:102390004CD0042B00D09FE05B4652469B5A002B4A
:1023A00000D173E0584C019A161C9A4200D91E1CA9
:1023B000B6B232000499280000F0DAFEB04640219F
:1023C000380000F01FFD380000F0ECFC0028FAD1C6
:1023D00052465B469B5A9E1B5B46B6B29E52002EEF
:1023E00002D00123605D18436055404609B03CBCF3
:1023F00090469946A246AB46F0BD0722029F03993C
:102400000137FF370A40022ACCD0042AC7D0002364
:10241000002698463100280000F0DEFE5B4652465A
:10242000394C9E52CBE7002C98D0AAE75B46524627
:102430009B5A354C002BB6D106AC2100280008224F
:1024400000F096FE4021380000F0DCFC380000F07F
:10245000A9FC0028FAD1059A2378514613706378B5
:102460005370A3789370E378D37022796379120262
:102470009B18129A1380A279E37912029B185A468C
:102480009BB253528022204C62558CE706AC21004F
:102490002800022200F06CFE4021380000F0B2FC5F
:1024A000380000F07FFC0028FAD162782378023AE5
:1024B0001B029B1851465A469BB25352134A9342F1
:1024C00018D88022104C62556DE704235B42984671
:1024D0008BE70023984688E7A0469BE705235B42ED
:1024E000984682E701235B4298467EE70E235B42D3
:1024F00098467AE72800FFF7B7FA054B984674E745
:102500007C0200107002001074020010EA05000046
:1025100017FCFFFF10B51400082854D8072955D818
:102520002C4B89005B589F4611781F294ED82A4BA7
:1025300040019C46604400F065FC012010BD264B24
:1025400040019C46604400F02DFC1F231840207081
:102550000120F3E71378012B2ED0002B36D1012276
:1025600082401E4901200B8893430B80E6E71B4BFA
:102570001A8801230241134023700120DEE7184B23
:1025800040019C46604400F00DFC80022080012048
:10259000D4E74001134BF4E711781F2916D88223A2
:1025A0009B009C464001604400F02CFC0120C5E7E4
:1025B000822340019B00C4E78340084A0120118820
:1025C0000B431380BAE701204042B7E70A2040429C
:1025D000B4E7C046649D0000082C000070020010A3
:1025E000081F0000081E000070B504001500082830
:1025F00000D987E00C2900D981E0454B89005B5860
:102600009F46200000F020FD2880012070BDC223DD
:1026100044019B00E01800F0C5FB28700120F5E79D
:102620004001083000F0BEFB0128EAD0394B6400BD
:10263000E35A01202B80E9E74001083000F0B2FBAB
:102640000F231840012860D1334B1B5D2B70DDE751
:1026500044012000083000F0A5FB0F2398432870A8
:102660000120D3E72D4B40019C46604400F09AFBCB
:1026700028700120CAE74001294BF5E79023440167
:102680005B010834E01800F08DFB98235B01E01833
:1026900000F088FB28700120B8E7224B40019C46DF
:1026A00004226044290000F0DFFB0120AEE7802314
:1026B00044015B010834E01800F074FB88235B01DF
:1026C0000600E01800F06EFB36023018288001206A
:1026D0009CE744010834200000F064FB0F231840FD
:1026E000012812D1BC239B01E01800F05BFB28807D
:1026F00001208BE700F042FC2880012086E70220C1
:10270000404283E70120404280E7052040427DE7C8
:10271000849D00007C020010740200100816000066
:1027200008150000080C00007047C0460078C0B2D1
:102730007047C04601707047002070477047C04620
:102740007047C0467047C0467047C0467047C04695
:102750007047C046002805D0002903D0034B5961BB
:102760001861704702490348F8E7C0464C00001062
:10277000512700004D270000074B1A88920500D40E
:10278000FEE7002804D0002902D0D9619861704783
:1027900002490348F9E7C0464C0000103D270000FD
:1027A00039270000074B1A88920500D4FEE700285D
:1027B00004D0002902D059621862704702490348C8
:1027C000F9E7C0464C0000104527000041270000F3
:1027D00070B50C00052800D98BE0474B80001B58D2
:1027E0009F46D8200978400100F00CFBC820618882
:1027F0004001090A00F006FBD020A178400100F05A
:1028000001FB002070BDD820400100F0CBFA207001
:10281000C820400100F0C6FA0500D020400100F0B9
:10282000C1FA2D02281860800020EBE790200622D4
:10283000000100F05DFB210080200E3104224000E9
:1028400000F056FB2100A0200A310422C00000F055
:102850004FFBF02004220001A11D00F049FBA27CE7
:10286000264B00201A70E27C5A70227D9A70627D9D
:10287000DA70A27D224B1A70C4E790200622000174
:1028800000F0F2FA210080200E310422400000F016
:10289000EBFA2100A0200A310422C00000F0E4FA83
:1028A000F02004220001A11D00F0DEFA134B0020ED
:1028B0001A78A2745A78E2749A782275DB78637574
:1028C0000F4B1B78A3759DE70C783A2322009A439F
:1028D0000FD1002000F066FA0443E1B2002000F0BE
:1028E00091FA00208EE7002000F05CFA20700020B2
:1028F00088E70120404285E7B89D00009002001063
:102900008C020010F0B50400902087B00622000170
:102910000D0004A900F0A8FA8020042201A94000BB
:1029200000F0A2FAA020042202A9C00000F09CFA44
:10293000F020042203A9000100F096FA8021002073
:1029400000F060FA002000F02DFA9020062204A981
:10295000000100F0CDFA8020042201A9400000F01F
:10296000C7FAA020042202A9C00000F0C1FAF0209A
:10297000042203A9000100F0BBFA002C37D0237811
:102980005AB2102A00DD6EE062789B18DBB25AB2B0
:10299000102A68DCA2789B18DBB25AB2102A62DCDB
:1029A000E2789B18DBB25AB2102A5CDC22799B18C1
:1029B000DBB25AB2102A56DC62799B18DBB25AB2EB
:1029C000102A50DCA2799B18DBB25AB2102A4ADCDA
:1029D000E2799B185BB2102B45DC244E244F217802
:1029E0003000203600F00EFA0134BE42F7D1002D3F
:1029F00036D02B785AB2102A35DC6A789B18DBB2B5
:102A00005AB2102A2FDCAA789B18DBB25AB2102ACD
:102A100029DCEA789B18DBB25AB2102A23DC2A7927
:102A20009B18DBB25AB2102A1DDC6A799B18DBB204
:102A30005AB2102A17DCAA799B18DBB25AB2102AB4
:102A400011DCEA799B185BB2102B0CDC094C074EA9
:102A500029782000203400F0D5F90135B442F7D1AF
:102A6000002007B0F0BD01204042FAE7081F000037
:102A700008200000081E000070B50C0086B00F286A
:102A800000D94DE1C34B80001B589F460B78012BAA
:102A900000D16EE110220825182638210020637825
:102AA000012B08D0E178A378012900D16CE1110055
:102AB000012B00D00100B820800100F0A3F9B8205C
:102AC000800100F06FF97F210140B820800100F003
:102AD00099F9B820800100F065F98021494201434D
:102AE000B820C9B2800100F08DF9002006B070BD99
:102AF0000020FBE7B82080010D78382400F052F95F
:102B0000A043C1B2012D00D10DE178200143B820CE
:102B1000800100F077F9B820800100F043F97F21AF
:102B20000140B820800100F06DF9B820800100F06C
:102B300039F9802149420143B820C9B2800100F02F
:102B400061F9B820800100F02DF920403838441E8A
:102B5000A0414042CAE7B820800100F023F94306B3
:102B6000DB0F237038231840202800D109E13828D2
:102B700000D106E1002363700200103AD2B20023B4
:102B8000102A06D801339340834A13405A1E9341BA
:102B9000DBB20838C0B2A370182805D80123190089
:102BA00081407E4A114200D10023E37000209DE75E
:102BB0007B4B00209A780A70DA784A701A798A700A
:102BC0005A79CA709B790B7100234B718EE7B8203C
:102BD000800100F0E7F830231840431E9841207030
:102BE000002083E7B820800100F0DCF801231840C2
:102BF000207000207AE79020062204A9000100F04E
:102C000033F98020042201A9400000F02DF9A02012
:102C1000042202A9C00000F027F9F020042203A931
:102C2000000100F021F98021002000F0EBF80020E5
:102C300000F0B8F89020062204A9000100F058F92D
:102C40008020042201A9400000F052F9A0200422B3
:102C500002A9C00000F04CF9F0200422000103A9F1
:102C600000F046F9002041E7002900D187E0083153
:102C70002000FFF747FE39E7A820400100F092F856
:102C80000500B820400100F08DF8F02300021D403F
:102C900040192080002029E70C88A820F02140015D
:102CA000214000F0AFF8B820210A400100F0AAF856
:102CB00000201BE7B0200C884001E1B200F0A2F830
:102CC000C020210A400100F09DF800200EE7B0204E
:102CD000400100F067F80500C020400100F062F8F4
:102CE000000240192080002000E798200988400158
:102CF000090A00F087F8A0202178400100F082F84E
:102D00000020F3E69820400100F04CF80500A020D8
:102D1000400100F047F82D02281820800020E5E649
:102D200001204042E2E670200143B820800100F01B
:102D300069F8B820800100F035F87F210140B82003
:102D4000800100F05FF8B820800100F02BF88021AE
:102D500049420143B820C9B2800100F053F8B820BD
:102D6000800100F01FF820403038441EA04140424E
:102D7000BCE6502248255826782140208FE60021C5
:102D800076E701236370F7E6012B01D0290092E674
:102D9000310090E6D09D0000010101000100010119
:102DA0004C00001070B50500154C82B0A368984720
:102DB00023699847236A280C2E0AC0B2F6B2EDB2F6
:102DC000002B11D1E36998473000E3699847280048
:102DD000E3699847A3699847050063699847E368E2
:102DE0009847280002B070BD626A002AEAD001ABA1
:102DF00018705E709D70032118009047EAE7C04686
:102E00004C000010F0B5174D83B0AB6804000E0005
:102E100098472B69984704236A6A2343180C1F0AB2
:102E2000C0B2FFB2DCB2002A0FD03F023843230405
:102E30000343360633430193042101A890476B698D
:102E40009847EB68984703B0F0BDEB6998473800A6
:102E5000EB6998472000EB6998473000EB69984789
:102E6000EDE7C0464C000010F0B5C646070000B5BF
:102E70001E4D82B0AB680C00160098472B6998472E
:102E80003B0ADBB298462B6A380CC0B2FFB2002B6B
:102E90001BD1EB6998474046EB6998473800EB69CE
:102EA0009847002E09D0013EB6B2A6190136AB698B
:102EB000984720700134B442F9D16B699847EB68A8
:102EC000984702B004BC9046F0BD6A6A002AE0D080
:102ED000414601AB187059709F701800032190474C
:102EE000310020002B6A9847E7E7C0464C000010ED
:102EF000F0B5CE46474680B51F4C83B0A3680500A9
:102F00000E00170098472369984704231D43636AFE
:102F1000290A9946CBB298464B462A0CD2B2EDB25A
:102F2000002B13D0434601A8437002708570032123
:102F3000C84739003000636A984763699847E36877
:102F4000984703B00CBC90469946F0BD1000E36969
:102F500098474046E36998472800E3699847002F5F
:102F6000EBD0013FBFB2F71901373078E369013682
:102F70009847B742F9D1E0E74C00001080239B014D
:102F8000F0B5DE469B464001083083445B461B0A91
:102F900057469A465B46DBB24E46994684234546E1
:102FA0009B019846E0B5002683B0264D804401AFD2
:102FB000AB6898472B6998472B6A002B35D10020C6
:102FC000EB6998475046EB6998474846EB69984744
:102FD000AB6998476B6904009847EB68984740468F
:102FE000FFF7E0FE2402A4B22418A4B2002C09D1F9
:102FF000002EDDD1300003B03CBC90469946A2467D
:10300000AB46F0BD5846FFF7CDFE000286B2404603
:10301000FFF7C8FE3618B6B2B442EBD0AB6898479B
:103020002B6998472B6A002BC9D06B6A002BC6D03E
:1030300000223A7052467A704A460321BA7038002C
:103040009847C5E74C00001098239C22F0B55746DE
:103050004E46DE464546400108309B0192019946A6
:1030600094460300E0B5634485B01A0A0193DBB2CD
:1030700093469A460026234D814403AF4846FFF706
:1030800091FEAB68000284B298472B6998472B6A7F
:10309000002B2AD10020EB6998475846EB699847E6
:1030A0005046EB699847AB69984780466B69444442
:1030B0009847A4B2EB689847002C09D1002EDDD1C7
:1030C000300005B03CBC90469946A246AB46F0BDE8
:1030D0004846FFF767FE000286B20198FFF762FEDE
:1030E0003618B6B2B442C9D1EAE76B6A002BD1D028
:1030F00000223A705A467A7052460321BA7038005C
:103100009847D0E74C000010F8B5CE4647468946B0
:1031100080B5141E27D0902385006E1C9B01F600FD
:10312000F7183800FFF73EFE94239B019C4680462B
:1031300066443000FFF736FE43461B02181883B280
:103140009846A81C22001D02C0004444401949466C
:10315000A4B2FFF7CDFE210A3800FFF753FEE1B21B
:103160003000FFF74FFE0CBC90469946F8BDC046B4
:10317000F8B5CE464746894680B5141E27D0A02311
:1031800085006E1C9B01F600F7183800FFF70AFE59
:10319000A4239B019C46804666443000FFF702FE54
:1031A00043461B02181883B29846E81C22001D02F1
:1031B000C000444440194946A4B2FFF755FE210A15
:1031C0003800FFF71FFEE1B23000FFF71BFE0CBC1A
:1031D00090469946F8BDC046F0B5CE464746A02376
:1031E00080B5400108309B01C71883B00500380046
:1031F0000C00FFF7D7FDA4239B019C466544060005
:103200002800FFF7CFFD360224183419A4B2194E56
:10321000230A9946B3689847336998470420736A2C
:103220003843C2B2070A9046002B16D0002201A8EC
:103230000270424682704A464770C2700421984725
:1032400073699847F3689847E1B22800FFF7DAFD01
:1032500003B00CBC90469946F0BDF3690020984736
:103260003800F36998474046F36998474846F36940
:103270009847E5E74C0000100048704794020010A2
:1032800010B5084C1F220021200005F01AFB064B48
:1032900063820123A3820733E3820223FF33238364
:1032A00010BDC0469402001000C2FFFF10B505F02B
:1032B000FFFA10BD10B505F0FBFA10BD70B50500A2
:1032C000124C01000622200005F0F2FAA91DA01DF3
:1032D000042205F0EDFA290020000E3104220A3004
:1032E00005F0E6FA290020000A3104220E3005F02C
:1032F000DFFA29002000042212311B3005F0D8FA31
:10330000AB7D013B5A1E9341A37670BD9402001021
:1033100070B50400124D0622290005F0C9FAA91D56
:10332000A01D042205F0C4FA290020000A3104225D
:103330000E3005F0BDFA290020000E3104220A30BB
:1033400005F0B6FA2900200004221B31123005F0E6
:10335000AFFAAB7E5A1E93410133A37570BDC046D0
:1033600094020010902010B5062202490001FFF7D8
:10337000BFFD10BD9402001010B5174C86B021009F
:103380000622684605F094FA6B46A11D981D04229A
:1033900005F08EFA21000E200A310422684405F05F
:1033A00087FA21000A200E310422684405F080FAD1
:1033B0002100122004221B31684405F079FAA37E13
:1033C00069465A1E93416A46013300209375FFF700
:1033D000FFF906B010BDC0469402001010B5010000
:1033E0000622024805F064FA10BDC046940200109F
:1033F00070B50A4A4100135CDB0705D50024084B71
:10340000084D5C528300EC5000231354064A53527B
:103410007F2104F0E3FA002070BDC046C402001012
:10342000D8020010C8020010BC02001070B588B0AD
:1034300002AC050000211722200005F042FA21000D
:103440000120FFF7C5F9012D4ED006DDEDB2062DA6
:1034500052D84E4BAD005B599F46A37D022B56D0F0
:1034600053224B494B4805F009FB617AE379A27975
:103470000191494D494E217A28000091310005F013
:10348000FDFA2800617BE37AA27A0191217B243046
:103490000091310005F0F2FA2800617CE37BA27B09
:1034A0000191217C38300091310005F0E7FA2800C5
:1034B000617DE37CA27C0191217D4C300091310043
:1034C00005F0DCFA01210020494201F0C5FF00238C
:1034D0002022443DAB542432AB542432AB5414323A
:1034E000AB541432AB5410E0A37D022B48D05322CE
:1034F0002749284805F0C2FA01210020494201F07D
:10350000ABFF20230021264AD15408B070BD4422CD
:103510001F49204805F0B2FAA7E7012108204942D7
:10352000404201F099FFF0E7617DE37CA27C0191CC
:10353000217D18480091194905F0A0FADCE7617C6B
:10354000E37BA27B0191217C12480091134905F095
:1035500095FAD1E7617BE37AA27A0191217B0D484C
:1035600000910E4905F08AFAC6E7617AE379A279FB
:103570000191217A07480091084905F07FFABBE7DD
:1035800044220349034805F079FAB5E7109E00008C
:10359000A4A0000090100010B4100010A8A000001B
:1035A00070100010F0B587B00E0007001500002164
:1035B000172268461C0005F084F96846FFF7A8FE4C
:1035C000002E05D06B4604223100981D05F070F9DD
:1035D000002D05D00A2004222900684405F068F96E
:1035E000002C05D00E2004222100684405F060F96B
:1035F0000C9B002B05D0122004221900684405F012
:1036000057F90D9B002B12D1532F21D0442F02D1FB
:1036100002236A4693756846FFF750FEFFF7ACFE3B
:1036200001210020494201F017FF07B0F0BD0A4C0C
:1036300006220A49200005F021FA0121082049420A
:10364000404201F009FF20230022203CE254ECE735
:1036500001236A469375DEE790100010A0A00000D9
:1036600070B588B002AC050000211722200005F0DB
:1036700028F921000120FFF7ABF8012D4ED006DD1F
:10368000EDB2062D52D84E4BAD005B599F46A37D3F
:10369000022B56D053224B494B4805F0EFF9617A83
:1036A000E379A2790191494D494E217A2800009190
:1036B000310005F0E3F92800617BE37AA27A0191F9
:1036C000217B24300091310005F0D8F92800617C7D
:1036D000E37BA27B0191217C38300091310005F021
:1036E000CDF92800617DE37CA27C0191217D4C30E5
:1036F0000091310005F0C2F901210020494201F09A
:10370000ABFE00232022443DAB542432AB54243280
:10371000AB541432AB541432AB5410E0A37D022BE3
:1037200048D053222749284805F0A8F90121002054
:10373000494201F091FE20230021264AD15408B0CD
:1037400070BD44221F49204805F098F9A7E70121E0
:1037500008204942404201F07FFEF0E7617DE37CB2
:10376000A27C0191217D18480091194905F086F944
:10377000DCE7617CE37BA27B0191217C1248009114
:10378000134905F07BF9D1E7617BE37AA27A0191D5
:10379000217B0D4800910E4905F070F9C6E7617A6A
:1037A000E379A2790191217A07480091084905F04F
:1037B00065F9BBE744220349034805F05FF9B5E723
:1037C0002C9E0000A4A0000090100010B410001067
:1037D000A8A000007010001010B58AB004AC172229
:1037E0000021200005F06DF821000120FEF7F0FF18
:1037F0006179637822780391217908480291E17810
:103800000191A1780091064905F038F901210020C5
:10381000494201F021FE0AB010BDC04690100010D0
:10382000AC9F000010B5040086B017220021684646
:1038300005F047F82000FFF7D1FD69460120FEF7AB
:10384000C7FF06222100684605F032F869460020CD
:10385000FEF7BEFF01210020494201F0FDFD06B048
:1038600010BDC0460121082010B54942404201F078
:10387000F3FD10BDF8B54746CE46002480B51F00C5
:10388000654B0D001C571600002C03D0634A1288AC
:103890008A421BD001229A56002A13D1532833D0D2
:1038A000432824D0002C00D185E0002A00D1A3E0D9
:1038B000012114204942404201F0CEFD0CBC90464B
:1038C0009946F8BD55494988A942E7D1544C554914
:1038D0000222200005F0D2F8012116204942404280
:1038E00001F0BAFD20230022203CE254E6E7002C40
:1038F00026D0002ADCD103225A70484B01245D8077
:1039000001239946984622E0002C7DD0002ACFD191
:103910000126012402325A70404B5D8001232A00A7
:1039200001212000FDF7B6FF2000FEF7DDF8012899
:1039300022D0012102204942404201F08DFDBDE725
:1039400003221A70354B1D800023994698460123A7
:103950002A0001214046FDF79DFF3A003100404614
:10396000FEF728F9C0B2012814D9012118204942D4
:10397000404201F071FDA1E72000102104F01EF883
:103980003200274C2749200005F078F8012100205B
:103990004942A5E70421404604F010F801224946B7
:1039A000214B04205A54210001F056FD2023002110
:1039B0001E4AD15482E701221A700022174B0024BC
:1039C0001D8090460023002E09D019480422C018FB
:1039D000310004F06DFF4346164A5B009F522A00F7
:1039E000012302212000FDF755FF2000402103F0B4
:1039F000E5FF0B4C4246C5E701225A70074B0124F4
:103A00005D8090460423DEE702221A70034B0026F5
:103A10001D80002482E7C046C4020010BC020010D2
:103A200090100010A0A00000B8020010701000104C
:103A3000C8020010D8020010F0B5C64600B5244FE9
:103A400043B298463B560400012B3AD0214E3356E0
:103A5000002B07D002251D400CD0FEF72DF9C0B277
:103A600001281FD915204146404201F0F5FC04BC55
:103A70009046F0BDFDF7F8FF335D6200DB0704D52B
:103A8000154B16499D52A300CD5000231449200028
:103A90008B527F21335503F0A1FF4146002001F0F6
:103AA000DBFCE4E72021200003F098FF0821200040
:103AB00003F084FF0123414604203B5501F0CCFC78
:103AC000D5E709204146404201F0C6FCCFE7C04699
:103AD000B8020010C4020010D8020010C802001082
:103AE000BC02001070B582B00E001D0069460023B4
:103AF000CB80504B04001B56012B00D17CE04E4B79
:103B00001B56002B61D0DBB2990712D4002A30D0AB
:103B1000002D25D06B4608219A1D2000FEF764FD7C
:103B20006B46DA8833880025934256D8280002B0C5
:103B300070BD5B0768D5002A41D1002DEAD0042270
:103B40003E493F4804F09AFF052061B2404201F02F
:103B500083FC0125202300213A4A6D42D154E5E738
:103B6000394B6200D35A002B56D0BE2235498B52B6
:103B7000D0E736498300CA5C002A1AD1CA185078A7
:103B8000002816D19078002813D1D278002A10D1BD
:103B900003322A492A4804F071FF052061B24042ED
:103BA00001F05AFC012500212023264A6D42D15400
:103BB000BCE7C9180422264804F07AFEA8E70322CD
:103BC0001E491F4804F05AFFBEE741B215200125E7
:103BD000404201F041FC6D42A8E7194E1749300000
:103BE00004F04CFF092061B2404201F035FC202373
:103BF000203EF554013D99E741B20920012540429C
:103C000001F02AFC6D4291E741B2172001254042A4
:103C100001F022FC6D4289E7094E04220749300079
:103C200004F02CFF052061B2404201F015FC357014
:103C3000013D7BE7B8020010C4020010A0A0000004
:103C40009010001070100010D8020010C802001070
:103C500029110010F0B54746CE461600002280B567
:103C60000A279146002285B06F443A802E4A04000C
:103C7000125C8846920720D5012303AD2A0000215B
:103C80002B70FEF747FC414632002000FEF798F803
:103C90004B4680462A00002120002B70FEF73AFC9C
:103CA0004346002B2BD061B2002B38DB4A461F4B1A
:103CB00000201A5501F0D0FB16E01900042203A8D9
:103CC00004F0F6FD0C9B32001B8841460093200057
:103CD00003ABFEF73FFA00280BDB0121200003F0C5
:103CE0006DFE0122114B1A5505B00CBC9046994649
:103CF000F0BD182061B2404201F0AEFBF4E73A009B
:103D000008212000FEF770FCF8223B88FF32009368
:103D100007493300074804F085FE30BFFDE7172050
:103D2000404201F099FBDFE7C4020010B802001026
:103D3000749F000058A00000F0B54F46D646464696
:103D4000C0B5040084B00F00431C1CD00500644EB5
:103D50007357002B0BD0DBB29A0700D46CE05B07E3
:103D60001ED41720404204E0002800D095E0152022
:103D700040420121494201F06FFB04B01CBC904657
:103D80009946A246F0BD0022564B9A56012A6FD0A2
:103D900001241C570125012CD9D019204042E8E705
:103DA000E3B29A460A236B4498461A00092150460A
:103DB000FEF71AFC43461B88002BEED04A4B5046B8
:103DC0009846C4234246D1583A00FEF7E7F88146A8
:103DD000C42342464946D25800235354414A5355BE
:103DE0007357DAB291073AD091075ED5530757D48B
:103DF0003E4F4A4639003E4804F040FE0323725DC0
:103E00001340012B5AD02100052001F025FB00238F
:103E1000414620220024C4258B5424328B54243262
:103E20008B544B46191B43465B591819FCF7B4FBDE
:103E30002418A145F5D1A0E7E3B29A460A236B44C2
:103E400098461A0009215046FEF7CEFB43461B88D0
:103E5000002BA2D0BB420ED91E20404289E79F22F0
:103E60002B0092002349244804F0DCFD30BFFDE71D
:103E7000002500246BE71C4B50469846C42342465D
:103E8000D15802AB00933A0003ABFEF731FA8146FA
:103E9000002800DC68E787429ADA0220404268E79F
:103EA0004021504603F08AFDA2E7D207F8D4134A16
:103EB0001049134804F0B6FD30BFFDE703A9C878E8
:103EC0004B780A78019089780E4800910E4904F0E9
:103ED000D5FD02AB1A8839000C4804F0CFFD92E7FB
:103EE000C4020010B402001070100010A0A0000066
:103EF00090100010809F0000CC9F00008202000004
:103F000014A00000B4100010A8A00000D8100010E9
:103F100070B51300040040294ED859488A008258D1
:103F200097460021574A1155002B4DD1032256497F
:103F30000B571A40022A00D182E02000FFF758FAFE
:103F400002222100514804F06DFD70BD60B250495D
:103F5000FFF7F2FEF9E7002B5FD08A224D494E4869
:103F600004F060FD30BFFDE70021464A1155002BEB
:103F70004BD080224749484804F054FD30BFFDE74C
:103F80000021404A65B21155002B24D0290010337E
:103F900033D00A20404201F05FFA2000FFF728FAF0
:103FA000D3E70021374A115561B2002B21D00A20F6
:103FB000404201F051FAC8E70B00AA2235493748C0
:103FC00004F030FD30BFFDE7A4223249324804F04E
:103FD00029FD30BFFDE72C4A0433115D20000B435F
:103FE0002021135503F0EAFC4021200003F0E6FCF9
:103FF0002900002001F030FAA7E71720404201F025
:104000002BFA2000FFF7F4F99FE761B2002001F0DE
:1040100023FA2000FFF7ECF997E71B4A0433115D00
:1040200020000B432021135503F0C8FC4021200041
:1040300003F0C4FC00222100144804F0F3FC84E7E0
:10404000023293430B5520007F2103F0C7FC144B31
:104050006200D25A012320001900FDF71BFC20004A
:10406000FDF742FD0500012800D066E71021200081
:1040700003F0A4FC2A002100044804F0D3FC64E708
:10408000489E0000B8020010C402001060A10000A9
:104090002C060000649F000024A100006CA1000019
:1040A000BC020010F0B5DE4657464E464546E0B528
:1040B00004008DB0002830DB012817DCCB4B98467C
:1040C0001B56002B00D126E103221A40012A00D101
:1040D00030E1022A00D127E1032A00D1C4E0C44A1A
:1040E000C449C54804F09EFC30BFFDE7012105200E
:1040F0004942404201F0B0F900222021BF4B5A54FE
:1041000024315A5424315A5414315A540DB03CBC01
:1041100090469946A246AB46F0BDB44B98461B78F4
:104120005BB2002B00D18CE00322DBB21A40012AE3
:1041300000D191E05B0700D493E0002301224146C7
:10414000497849B200290DD00320C9B2084001289E
:1041500000D1A1E0490700D4A3E00132D2B2D118C6
:10416000002973D0D00080181B018000C0180130D6
:1041700004F078FB8346002800D10DE100260025DD
:1041800043469A57F3B20993002A52D05C46002D59
:1041900008D00D216B1C615502359BB2ADB20339BD
:1041A000E15464190323D2B21340012B00D188E0FB
:1041B000023B59424B4110215B42194043238A463E
:1041C0009C46E244530771D50BAF3A000421F0B28C
:1041D000FEF70AFA02AA94462223634499461A007B
:1041E0000521F0B2FEF700FA854A73009A5ABB78AF
:1041F00039789C464B461B8878789946814BFF78E6
:10420000F356012B00D1EEE07F4B06934B4605930E
:104210006346029003930191009204975346320043
:104220007A49200004F02AFC200004F067FC2D18D5
:10423000ADB2012E38D101205946404201F0DEF8DE
:104240005AE743460121595600296AD1012000212D
:10425000404201F0D3F859E76D4B1B88002B00D08A
:104260006BE7012300226AE740326A496A4804F09A
:1042700005FC634B694E6200D25A3100684804F075
:10428000FDFB43461B5D5B0700D58CE00121002050
:10429000494201F0E1F82FE75D494988002900D043
:1042A0005BE70133DBB25AE7012669E7544A730042
:1042B0009B5A5C49009332005346200004F0DEFB19
:1042C000B2E7534A7300985A4E4AB1564C4A9B5A29
:1042D0000993002852D0544BB700FA5CDB1994467E
:1042E0005F789A78DB7891469A46474B012900D14E
:1042F0004E4B0693534604934B46039363460193F8
:10430000099B059000930297552332003F492000F6
:1043100004F0B4FB88E749223E493F4804F0AEFB75
:10432000B4E7002213000FE751323A493A4804F04B
:10433000A5FB9EE754323749374804F09FFB304BCA
:10434000364E6500EA5A3100354804F097FB304F8D
:10435000EB5B002B9AD0344AA4001119C8784B7833
:10436000A25C0190897832480091324904F086FBC2
:10437000EA5B3100304804F081FB87E7224B0129DA
:1043800000D12E4B0193099B320000932C495523F9
:10439000200004F073FB47E701211E204942404200
:1043A00001F05AF8B2E60BADE4B22A000421200075
:1043B000FEF71AF902AB9C46222767443A00052112
:1043C0002000FEF711F9E9782A786B780191A97835
:1043D00017480091174904F051FB3A8831001648FC
:1043E00004F04CFB52E7114B0FE7C046C40200102B
:1043F000F50200008C9F0000F4A000007010001077
:10440000BC020010B402001094A10000C0A0000083
:10441000D8020010A4A0000090100010A0A000007E
:10442000B4100010E8A00000C8020010B4A0000002
:10443000D8100010A8A00000EC100010B8A00000D8
:10444000DCA000007047C0467047C046802210B50F
:104450000E4C82B052000E49200004F00FFB2000E9
:104460000123022200930B490333243004F006FB9E
:1044700001210020494200F0EFFF00232022203CD0
:10448000A3542432A35402B010BDC04690100010B3
:10449000989F0000A09F000070B50400FEF7ECFE9E
:1044A000002C07DDE4B2052C00D973E03D4BA400DD
:1044B0001B599F46827C123043783B4C1B021343AE
:1044C00082783A4E12041343C278050012061A434A
:1044D0003100200004F0D2FA20002A793100243083
:1044E00004F0CCFA20006B79314A3249D25C483072
:1044F00004F0C4FA2000AA7931005C3004F0BEFA5E
:104500002000EA793100703004F0B8FA012100206F
:10451000494200F0A1FF00232022203CA354243272
:10452000A3542432A3541432A3541432A35470BDA0
:10453000427E1E491C4804F0A1FA01210020494294
:1045400000F08AFF202300211B4AD154EFE7C37CEF
:10455000827C1B021343027D144912041343427DE3
:10456000114812061A4304F089FAE6E7827D0F49E2
:104570000D4804F083FAE0E7C37D0D4A0D49D25C93
:10458000094804F07BFAD8E7027E0849064804F09F
:1045900075FAD2E7012108204942404200F05CFF51
:1045A000CBE7C0464C9F000090100010A0A0000078
:1045B00098A10000A4A0000070100010012110B507
:1045C00049420400002000F047FF064BD9681A69F1
:1045D0009142FBD10448FCF707FA2000FBF752FF99
:1045E00010BDC046301000103F420F0030B583B000
:1045F0006B460E20D91DFEF73FFA041E11D16B4603
:1046000007220B4D9A560B4953425A41280004F099
:1046100035FA01210020494200F01EFF2C7003B042
:1046200030BD012108204942404200F015FFF6E765
:1046300090100010A0A0000043425841072300B58D
:10464000404283B098436B463830D91D08700D2026
:10465000FEF712FA01214942002801D00820404209
:1046600000F0FAFE03B000BDF0B54F464646D64610
:104670002023C0B5CC4FCD4DF85624330600FA5652
:104680002433F956731E9E4113005C1EA341F61895
:104690000B005C1EA3419E197C23FB565C1EA341AC
:1046A00090249B193E57741EA641A424F3183E572C
:1046B000741EA641F618BE4B2B80002E3FD02C2333
:1046C000AB70002800D06AE1EB70002A00D0EAE06D
:1046D000062205239046023A2C20A854002900D037
:1046E000CFE02C22EA5443465032BA565C1CE4B266
:1046F000002A36D12C22EA549023FB56002B00D0FE
:10470000ABE02C23A4222B55A31CDBB2BA5698464F
:10471000631CDBB2002A00D197E02C22A54EEA549C
:10472000300004F0EBF9C4B2132C00D82AE1D822EF
:10473000A1495200A14804F075F930BFFDE70028F7
:1047400022D10223002A00D0F7E003329046013A3A
:10475000002900D094E044467C21795600260029A7
:1047600040D02C22EA54964B1800994604F0C6F922
:10477000C3B29846132B1FD9D7228F4952008F48B6
:1047800004F050F930BFFDE7032203239246984618
:10479000013B2C22EA548B4B1800994604F0AEF9E9
:1047A000C4B2232C00D8CBE0AC228349FF3283482B
:1047B00004F038F930BFFDE7FF22494602402819CE
:1047C00004F076F84B461B7D4444013E5BB2E4B2F4
:1047D000F6B2002B41D1002E93D1631CDBB2984678
:1047E000230004E014009022BA56002A34D1A422F7
:1047F000BA56002A91D15D22EA544246002328008D
:10480000AB5404F07BF901002800FBF7C5FE022140
:104810006D48FBF7C1FE1CBC90469946A246F0BD10
:104820000134E4B2C2B24946281904F041F822002A
:104830004244D2B2531CDBB298461300A422BA56AB
:10484000002A00D069E7012ED5D02C22EA54434635
:104850005A1CD2B29046CEE700262C232B555B4B38
:104860001800994604F04AF9C3B29846132BD7D9D9
:10487000B0225149FF32514804F0D4F830BFFDE76F
:1048800000262C22EA54524B1800994604F036F9BF
:10489000C4B2132C1CD9AE224749FF32474804F05A
:1048A000C1F830BFFDE70522042390462C22EA54CC
:1048B000484B1800994604F021F9C4B2232C21D9A1
:1048C000D6223D4952003D4804F0ACF830BFFDE728
:1048D0004346FF2249460240E81803F0E9FF23005F
:1048E0004A464344127DDBB2013E5C1C52B2F6B232
:1048F000E4B2002A00D034E7002E00D0FAE6A04649
:104900001C0070E74346FF2249460240E81803F0C6
:10491000CFFF2200494668204244D2B24439531C9A
:104920000956DBB2013E9846F6B213000029A8D121
:104930004446002E00D10FE7D3E603229046B5E7A8
:104940004346FF2249460240E81803F0B1FF220027
:10495000494644205244D2B22039531C0856DBB297
:10496000013E9846F6B2130000289FD168200956F0
:10497000002E00D1ECE640460232D2B290461A0038
:104980000300A9E64346C2B23100E81803F090FFE5
:1049900023004344DBB25C1CE2B290462BE7283B89
:1049A0009846013BC246F4E6701000105403001014
:1049B0005B530000141100101CA2000034A300007F
:1049C000EC1000109010001004A500000011001061
:1049D000D8100010B4100010F0B54F46D646464629
:1049E0002023C0B5C24FC34EF85624330500FA56F3
:1049F0009A462433F95699466B1E9D4113005C1E5E
:104A0000A341ED180B005C1EA3415D197C23FB56EE
:104A10005C1EA34190245B193D576C1EA541A42444
:104A2000EB183D576C1EA541ED18B34B3360322394
:104A30003371002800D07FE0002D3CD02C2373710F
:104A4000002A63D10723082406222C20B054002911
:104A500000D0B4E02C22F2545032631CBA56DBB2C0
:104A600099462300002A00D0D6E02C22F25490234D
:104A7000FB56002B00D073E04A462C23941CB35401
:104A8000A4224B46BA560133E4B2DBB2002A00D16D
:104A90008EE02C22994FF254380004F02FF8C5B262
:104AA000132D00D81AE1D82295495200954803F0F9
:104AB000B9FF30BFFDE705230624002A28D10532BF
:104AC000002900D07AE07C217956A146002900D047
:104AD000A1E091469022BA56002A40D1A422BA56AB
:104AE000002AD6D15D22F25400233000335504F061
:104AF00005F801003000FBF74FFD02218248FBF76B
:104B00004BFD1CBC90469946A246F0BD0724263BAF
:104B10002C22F2547D4B1800994603F0EFFFC3B2EC
:104B20009846232B00D8C1E0D6227549520075481B
:104B300003F078FF30BFFDE73C002034063B200047
:104B4000737103F0DBFFC3B29846232B76D9AC22F6
:104B50006B49FF326B4803F065FF30BFFDE700256E
:104B60002C234A46B3546A4B18009A4603F0C6FFFA
:104B7000C3B29846132B07D9B0226149FF3261486E
:104B800003F050FF30BFFDE74C460134E4B2C2B23F
:104B90005146301903F08CFE2300A4224344DBB2BB
:104BA000BA565C1CE4B2002A00D072E7012D99D0FD
:104BB0002C22F254621C2300D4B293E700252C224D
:104BC000F254544B18009A4603F098FFC3B298462B
:104BD000132B07D9AE224A49FF324A4803F022FF7D
:104BE00030BFFDE7FF2251460240301903F060FE5E
:104BF00023004344DBB25C1CE2B291465246127D74
:104C0000013D52B2EDB2002A06D1002D00D02CE7B2
:104C10004C4699465EE700252C22F2543E4B180084
:104C2000984603F06BFFC4B2132C26D9D72234491F
:104C30005200344803F0F6FE30BFFDE7FF222100AA
:104C40000240B01D03F034FE434651469A1D79568A
:104C5000DC1DD2B2013DEDB2E4B21300002900D058
:104C600056E749467956002D00D129E742462000F3
:104C70000832D4B21A000300E7E64B46FF224C4448
:104C800002404146F01803F013FEE3B29946434652
:104C90001B7D013D5BB2EDB2002B00D060E7002D23
:104CA00000D0E9E64B465C1CE4B217E7FF22494618
:104CB0000240301903F0FCFD494668204444443961
:104CC000E2B20956013D541CEDB2E4B213000029D2
:104CD00000D074E7002D00D0BCE6F4E6C2B2390083
:104CE000301903F0E5FD2B19DBB25C1CE4B2F9E6E8
:104CF00070100010540300105B462C2C141100108F
:104D00001CA2000034A3000004A50000B410001091
:104D100000110010D8100010EC100010172210B570
:104D2000124B9A56002A11D0002244215A54243999
:104D30005A5484315A5414395A5414395A5414391F
:104D4000DA751A765A54FFF747FE10BDFFF78CFC50
:104D5000074BD9681A699142FBD1BFF34F8F054BBE
:104D6000054ADA60BFF34F8FFEE7C04670100010AF
:104D70003010001000ED00E00400FA05172200B525
:104D8000144B83B09A56002A11D1FFF76DFC124BD9
:104D9000D9681A699142FBD1FBF7C0FC72B639237E
:104DA00001A9009368460D4B984703B000BD00224F
:104DB00044215A5424395A5484315A5414395A5477
:104DC00014395A541439DA751A765A54FFF704FE16
:104DD000EBE7C0467010001030100010F11FFF1FED
:104DE000F0B54F46D64646462023C0B5C24FC34E07
:104DF000F85624330500FA569A462433F956994654
:104E00006B1E9D4113005C1EA341ED180B005C1E40
:104E1000A3415D197C23FB565C1EA34190245B19C2
:104E20003D576C1EA541A424EB183D576C1EA541AF
:104E3000ED18B34B336033233371002800D07FE08B
:104E4000002D3CD02C237371002A63D10723082442
:104E500006222C20B054002900D0B4E02C22F254B9
:104E60005032631CBA56DBB299462300002A00D0A8
:104E7000D6E02C22F2549023FB56002B00D073E096
:104E80004A462C23941CB354A4224B46BA560133F1
:104E9000E4B2DBB2002A00D18EE02C22994FF2540A
:104EA000380003F02BFEC5B2132D00D81AE1D8222A
:104EB00095495200954803F0B5FD30BFFDE7052345
:104EC0000624002A28D10532002900D07AE07C216E
:104ED0007956A146002900D0A1E091469022BA5609
:104EE000002A40D1A422BA56002AD6D15D22F2541B
:104EF00000233000335503F001FE01003000FBF7C2
:104F00004BFB02218248FBF747FB1CBC90469946AD
:104F1000A246F0BD0724263B2C22F2547D4B1800FC
:104F2000994603F0EBFDC3B29846232B00D8C1E0AD
:104F3000D62275495200754803F074FD30BFFDE775
:104F40003C002034073B2000737103F0D7FDC3B24F
:104F50009846232B76D9AC226B49FF326B4803F07D
:104F600061FD30BFFDE700252C234A46B3546A4B50
:104F700018009A4603F0C2FDC3B29846132B07D916
:104F8000B0226149FF32614803F04CFD30BFFDE7BC
:104F90004C460134E4B2C2B25146301903F088FCE9
:104FA0002300A4224344DBB2BA565C1CE4B2002ABC
:104FB00000D072E7012D99D02C22F254621C2300FC
:104FC000D4B293E700252C22F254544B18009A4691
:104FD00003F094FDC3B29846132B07D9AE224A4979
:104FE000FF324A4803F01EFD30BFFDE7FF22514665
:104FF0000240301903F05CFC23004344DBB25C1C2C
:10500000E2B291465246127D013D52B2EDB2002A03
:1050100006D1002D00D02CE74C4699465EE70025CE
:105020002C22F2543E4B1800984603F067FDC4B2A0
:10503000132C26D9D72234495200344803F0F2FC0D
:1050400030BFFDE7FF2221000240B01D03F030FC1D
:10505000434651469A1D7956DC1DD2B2013DEDB250
:10506000E4B21300002900D056E749467956002DD6
:1050700000D129E7424620000832D4B21A000300CA
:10508000E7E64B46FF224C4402404146F01803F04D
:105090000FFCE3B2994643461B7D013D5BB2EDB286
:1050A000002B00D060E7002D00D0E9E64B465C1CE9
:1050B000E4B217E7FF2249460240301903F0F8FB3B
:1050C0004946682044444439E2B20956013D541C23
:1050D000EDB2E4B21300002900D074E7002D00D037
:1050E000BCE6F4E6C2B23900301903F0E1FB2B193B
:1050F000DBB25C1CE4B2F9E670100010540300103F
:105100005B462C2C141100101CA2000034A30000DC
:1051100004A50000B410001000110010D8100010F9
:10512000EC100010F0B5C64600B582B06B46002208
:1051300017279D1C8C4C2A80E7570023002F26D070
:10514000012F24D0022F00D175E0032F00D06AE098
:105150002123E356002B2CD0002344222000A3540B
:10516000243AA3548432A354143AA354143AA354B3
:10517000143AA3547D49673A2030E375237603F04F
:105180007DFCFFF72DFE02B004BC9046F0BD00236D
:105190004422A354243AA3548432A354143AA3546B
:1051A000143AA354143AE3752376A354FEF75AFB3A
:1051B000E9E72023E65603F047FB801942783300E5
:1051C0001740022F48D020225BB2A354532B77D034
:1051D000432B43D0552BBFD16F466548390002F0B1
:1051E00089FD002800D092E06823E356002B72D09E
:1051F0007C23E356002B3BD100234422A354243AC2
:10520000A3548432A354143AA354143AA354143A22
:10521000A3545649653A5748E375237603F02EFCAC
:10522000FFF7DEFDAFE73B00534A5449544803F013
:10523000F9FB30BFFDE74422A354243AA35484323F
:10524000A354143AA354143AA354143AE37523769E
:10525000A354FFF7C1FB96E7203BB4E76F464448F1
:10526000390002F047FD002802D0464B1B883B80E6
:1052700001AE3100444802F0DFFC0028BCD1290017
:10528000424802F037FD3200002829D190216356B0
:10529000002B53D000234422A354243AA354843235
:1052A000A354283AA354143A6354A3542F49633A9D
:1052B0003048E375237603F0E1FBFFF791FD62E7E9
:1052C0006F462B48390002F015FD00281FD16823D6
:1052D000E356002B90D17C23E3560022002BD5D03F
:1052E00000234422A354243AA3548432A354143AEE
:1052F000A354143AA354143AA3541C49643A1D48C5
:10530000E375237603F0BAFBFFF76AFD3BE7002362
:105310004422A354243AA3548432A354143AA354E9
:10532000143AA354143AA3541049663A1148E37549
:10533000237603F0A3FBFFF753FD24E72026A057B5
:1053400063547C2180464420A35563548436143929
:1053500023546354E3752376A35539882B8840463C
:10536000FEF788FA0FE7C04670100010A0A00000FA
:10537000B410001090100010590200004CA2000060
:10538000E0A4000074000010D8100010EC10001011
:1053900010B564220021124803F093FA6422002120
:1053A000104803F08EFA0022B821FF200E4B0F4C5C
:1053B0001A605A600E4B585416315A54D032CD39B7
:1053C00099540C49103A99500B49043299500020D5
:1053D000210002F0E1FA2100012002F0DDFA10BD07
:1053E000F002001054030010E4020010113F00000E
:1053F00070100010D0030010FC09001070B50500FB
:105400000C1E04D0080003F079FB002806D16B1CA9
:1054100010D029000C4803F005FB70BD6B1C0DD0AB
:10542000020023002900094803F0FCFA200003F0E1
:1054300023FAF2E7064803F0F5FAEEE7010022004E
:10544000044803F0EFFAF1E7D4A30000F0A3000052
:10545000C8A30000E0A30000F0B54646D6464F467C
:105460002023C0B5CA4E8846F15624330D00F256AB
:105470006B1E9D4113008246581E8341ED18682320
:10548000F356C44C581E83415D197C23F356581EB5
:10549000834190205B193556681E8541A420EB1886
:1054A0003556681E8541ED185B2323705346002B4B
:1054B00055DB6DD0032B00D1E9E1042B68D0052B1F
:1054C00000D091E14D3363704346013365D1002D27
:1054D00000D1B3E02C23A370002900D0D4E02C200D
:1054E00003310527283B6054002A77D12C22E2544F
:1054F0003C32B2563B000137FFB2002A00D017E120
:105500002C22E2545032B2563B000137FFB2002A3F
:1055100000D0A5E02C22E2549023F356002B00D0BB
:105520004FE12C23E3557B1C0237FAB29046A422AC
:10553000B256DBB2002A00D122E12C22964EE25470
:10554000300003F0DBFAC5B2132D00D8F0E1D82209
:1055500092495200924803F065FA30BFFDE74623B6
:1055600063701A3BA370434601334BD105239C461D
:10557000023B99462C214F46E15551461E31C9B296
:10558000052004221B2956D8864F890079588F465A
:10559000533363704346013399D02C2342468249EA
:1055A000E01CA37003F06AFA0A21404602F016FCE0
:1055B0000330C0B22022B256471C0300FFB2002ABB
:1055C00064D14422B256002D3DD0380019009F1CF2
:1055D00003002C20FFB26054002A87D02C22E25412
:1055E000724B1800984603F089FAC3B29946232BF0
:1055F00000D803E1D62269495200694803F012FA43
:1056000030BFFDE742466849E01C03F037FA0A2143
:10561000404602F0E3FBC31CDBB299462C214F4607
:10562000E1555146021D1E310530C0B2C9B2D2B299
:1056300084461B29A8D93023A354BBE703270223A0
:10564000002923D10220002A00D0D5E06822B256DA
:10565000002A00D06BE07C22B2560025002A28D018
:105660002C22E254524B1800994603F047FAC3B279
:105670009846132B00D8DAE0D72248495200484810
:1056800003F0D0F930BFFDE7042703232C22E254B6
:10569000484B1800984603F031FAC3B29946232BC1
:1056A00028D9AC223D49FF323D4803F0BBF930BF59
:1056B000FDE7B84607009022B256002A00D07FE0EE
:1056C000A422B256002A00D037E75D22E2544246B7
:1056D00000232000A35403F011FA01002000FAF780
:1056E0005BFF02213448FAF757FF1CBC90469946ED
:1056F000A246F0BDFF2241460240E01903F0D8F86F
:105700003800424644214844203AC0B25256013D36
:10571000471CEDB20300FFB2002A00D05EE7002D67
:1057200000D0E3E66822B256002A00D193E70025B4
:105730002C22E254214B1800994603F0DFF9C3B242
:105740009846132B00D889E0AE221449FF32144842
:1057500003F068F930BFFDE70137FFB2C2B2494636
:10576000E01903F0A5F83B004344DBB25F1CFAB23A
:105770009046A422B256002A00D0DEE6012DA4D025
:105780002C22E25443465D1CEAB290469DE7C04697
:105790007010001054030010141100101CA200001F
:1057A00034A300009CA10000A0A00000B4100010D1
:1057B000EC1000109010001004A50000D81000108C
:1057C00000252C23E355614B1800994603F096F908
:1057D000C3B29846132BBFD9B0225D49FF325D4852
:1057E00003F020F930BFFDE7C222594952005A4860
:1057F00003F018F930BFFDE70025EFE6FF22414630
:105800000240E01903F054F8380042466821484449
:10581000443AC0B25256013D471CEDB20300FFB2FC
:10582000002A00D084E7002D00D114E768E6FF22AB
:1058300049460240E01903F03BF84B461B7D4744C4
:10584000013D5BB2FFB2EDB2002BBAD1002D00D00A
:1058500067E67D1CEAB23B00904631E7FF224946ED
:105860000240E01903F024F83B004A464344127D0D
:10587000DBB2013D5F1C52B2EDB2FFB2002A00D094
:10588000EEE6002D00D045E6B8461F0013E7822261
:105890002F49FF32314803F0C5F830BFFDE731230F
:1058A000A35487E63223A35484E63323A35481E62A
:1058B0003423A3547EE63523A3547BE63623A35436
:1058C00078E63723A35475E63823A35472E63121D2
:1058D0000333A154D8B262463023A3546AE603339B
:1058E0003121D8B26346A154E15463E63121033338
:1058F000A154D8B262463223A3545BE6312103336C
:10590000A154D8B262463323A35453E63121033362
:10591000A154D8B262463423A3544BE63121033359
:10592000A154D8B262463523A35443E63221CFE7CF
:105930004346C2B23100E01802F0BAFF2B004344E4
:10594000DBB25D1CEAB29046BFE6C0460011001013
:105950001CA2000034A3000094A3000060A3000078
:10596000F8B517233C4CE356002B40D0012B2CD02C
:10597000022B3CD0032B21D12026A357002B54D03F
:10598000270020373900354802F042FA051E4CD175
:10599000380002F035FF4423E5546033E554143BEE
:1059A000E554143BE554143BA555E5752576E554BF
:1059B00001282ED8C0B2FEF73FFEF8BD284A29497B
:1059C000294803F02FF830BFFDE700234422A354F9
:1059D000243AA3548432A354143AA354143AA3543B
:1059E000143AE3752376A354FEF700FEE5E700239F
:1059F0004422A354243AA3548432A354143AA35403
:105A0000143AA354143AE3752376A354FEF7E4FF43
:105A1000D3E701221549380003F030F801210620B0
:105A200049424042FFF718FDC7E700234422A35430
:105A3000243AA3548432A354143AA354143AA354DA
:105A4000143AA3540949673A0948E375237603F0E9
:105A500015F8FFF7C5F9B0E7701000101F880000B7
:105A6000A6030000A0A20000E0A40000A0A0000087
:105A700090100010F0B5C64600B5FDF7FDFB1723EA
:105A8000C24C0500E356002B32D10133E3752023CD
:105A9000E356002B77D0260020363100BC4802F0B8
:105AA000B7F9002800D0F7E0300002F0A9FE0300AB
:105AB000013BDBB240B2042B67D900234422A3543C
:105AC000243AA3548432A354143AA354143AA3544A
:105AD000143AA354E3752376673AAE49AE4802F010
