:040000030000313D8B
:10000000000004203D310000653100006731000030
:10001000693100006B3100006D310000000000000C
:100020000000000000000000000000006F31000030
:1000300071310000000000007331000075310000D4
:100040009D35000077310000D513000077310000A6
:100050007731000077310000773100007731000000
:1000600077310000773100007731000077310000F0
:1000700077310000773100007731000077310000E0
:1000800069330000B532000077310000773100009D
:1000900077310000773100007731000077310000C0
:1000A00077310000773100007731000077310000B0
:1000B00077310000773100000000000000000000F0
:1000C0007731000077310000773100007731000090
:1000D000773100007731000077310000C14A00001D
:1000E000E5190000773100007731000000000000C2
:1000F00000000000773100000000000077310000B0
:1001000000000000000000000000000000000000EF
:1001100000000000000000000000000000000000DF
:1001200000000000000000000000000000000000CF
:1001300000000000000000000000000000000000BF
:1001400000000000000000000000000000000000AF
:10015000000000000000000000000000000000009F
:10016000000000000000000000000000000000008F
:10017000000000000000000000000000000000007F
:10018000000000000000000000000000000000006F
:10019000000000000000000000000000000000005F
:1001A000000000000000000000000000000000004F
:1001B000000000000000000000000000000000003F
:1001C000000000000000000000000000000000002F
:1001D000000000000000000000000000000000001F
:1001E000000000000000000000000000000000000F
:1001F00000000000000000000000000000000000FF
:1002000010B5054C237833B9044B13B10448AFF350
:1002100000800123237010BD800200200000000038
:10022000205F000008B5034B1BB103490348AFF33F
:10023000008008BD0000000084020020205F000054
:10024000154B002B08BF134B9D46A3F5803A0021A8
:100250008B460F461348144A121A00F063F80F4BEE
:10026000002B00D098470E4B002B00D09847002061
:10027000002104000D000D48002802D00C48AFF307
:10028000008000F02BF82000290000F0FDF900F0BC
:1002900011F800BF0000080000000420000000006A
:1002A0000000000080020020381E00200000000036
:1002B0000000000008B5074B044613B10021AFF35E
:1002C0000080054B1868836A03B19847204600F008
:1002D00031F800BF000000001058000070B50D4E4E
:1002E0000D4CA41BA4100025A54209D10B4E0C4CAB
:1002F00005F082FAA41BA4100025A54205D170BD0B
:1003000056F8253098470135EEE756F825309847DE
:100310000135F2E778020020780200207802002000
:100320007C02002002440346934200D1704703F848
:10033000011BF9E7FEE700BF002001F0EBBE00BFA4
:1003400070B582B0044605F091F91549054620467E
:1003500005F0A9F958B1031BEB1A092B07DD114B66
:100360009A7BD97A1B7B8171C271427203720E4EE5
:1003700029462046F568A84700F00AFC092100F14B
:100380001C040A48A847204605F070F9014620469B
:10039000A847736901930A2002B0BDE8704018476E
:1003A0003458000014590000AC5800003C580000BC
:1003B0002DE9F04180460C46012542F20146002716
:1003C0000DE00D2801D8334213D1D4E90132934214
:1003D00003F101022BBF236862601F701870D8F808
:1003E00000309847421C05FA00F3EAD10020BDE82E
:1003F000F081636800221A700120BDE8F08100BF1F
:1004000070B5184C18482146FFF7D2FF00B970BDEF
:10041000D4E90001154D164B091A2A4602F082FD57
:1004200050B114481449154A0023062505600B6095
:1004300013602368636070BD1149206805F004F9FA
:1004400006460028F5D1EB680E48042198470A4873
:100450000D49084A094B0660082008600621116012
:100460001E60E6E7C0000020BC5800009458000061
:10047000AC5800009C020020A8020020AC02002022
:10048000285800002C580000D806002070B5164CE3
:1004900016482146FFF78CFF00B970BDD4E9000172
:1004A000134B144A091A02F0D3FC28B9124D2068E4
:1004B0002B685BB9606070BD104B1149114A206810
:1004C00006251D6000230B601360F3E705220E492B
:1004D00005F07CF806462068002EEBD1FFF730FFD0
:1004E00020682E60E6E700BFB4000020A45800009A
:1004F000AC58000094580000D80600209C02002050
:10050000A8020020AC0200208000002070B5038803
:1005100082B004466BB1CE2B06D1882932D0CE23CF
:100520000120238002B070BD00230380032002B0AD
:1005300070BD4FF0A043444E4449326803254FF04C
:100540000070C3F80805C3F8645728469047404B2D
:1005500040491B682846984710213F4804F08CFC0E
:100560003E4802F0C5F8304602F034FC02F02CFCA4
:100570000028D4D03A493B4B30204FF40472086035
:100580001A60CCE7344B9A42C9D11046019204F06C
:1005900087FC019A0028C2D0104604F077FC324A4A
:1005A000136813B1013B13601BB32E4A106810B1DE
:1005B0000138106040B32A4D2B6873B12B4AD2F832
:1005C0001025920619D4013B13F0010F28482B6027
:1005D00008BF002001F09EFDA1E7264D264A2968AC
:1005E000106819B1012821D9136098E788B1431E1A
:1005F000FAE72248FFF7A4FED7E7002001F08AFDC2
:1006000000F038FC2B68DEE701F084FD00F032FCDE
:10061000D1E7072313601A4A1368012B0DD9002371
:1006200013604FF47F0001F075FD78E70028DBD1FF
:100630000139072329601360EDE701331149136085
:1006400051F82300EFE700BF945800008D0400002C
:10065000AC58000001040000BC0400203903000075
:10066000A8020020AC020020D806002000030050A1
:10067000FF80FF009C020020A402002080000020D8
:10068000A00200201C58000010B502F065FB00F02D
:1006900097FB094804F062FA04F004FD044600F0F8
:1006A0006BFA002CF8D172B604F04EFD10B9BFF30E
:1006B0004F8F30BF62B6EFE7145800002DE9F041CC
:1006C000D0E902470546E41B406894421646384488
:1006D0000DD8161B8846224604F087FF08EB04015C
:1006E0003246686804F081FFEE60BDE8F0813E4468
:1006F00004F07BFFEE60BDE8F08100BF2DE9F84318
:100700008846D0E90215064617464FF000093369BE
:1007100070689D4203F1FF3426BF03F1FF335B187D
:10072000631BA1EB050428BF5B1BBC4228BF3C46F2
:100730009C4228BF1C4641462844224604F055FFEF
:10074000B1682544A94208BF00253F1BA144A0442D
:10075000F560DCD14846BDE8F88300BF38B5114CE0
:10076000114BE3614FF4006310482362102500230E
:100770000F4AA3620F496066A56663622367E3665A
:10078000E01D01230325E3626367A2612266C4E9D9
:10079000045504F063FF2046074904F05FFF20235F
:1007A000A37138BD881D0020EC060020DC06002067
:1007B0004858000054580000585800002DE9F04FE8
:1007C000DFF8A89099F8003083B080468B469246B7
:1007D000002B47D04FEA480707EB080609EBC6068F
:1007E000356FF36E9D421FD85C1B544528BF54469D
:1007F0001CB9204603B0BDE8F08F002607EB0803C4
:1008000009EBC3032246596E5846294404F0EDFE15
:1008100025443444002CECD0474409EBC70720465C
:100820003D6703B0BDE8F08FD6E91914641B544549
:1008300028BF5446224629445846019304F0D5FE69
:10084000B26E019B2544AA42AAEB040A14BF5B1BAB
:100850000025534528BF5346002BDBD0A344264632
:100860001C46CBE7FFF77AFFB4E700BF881D0020E6
:1008700010B50B46EFF311844FF0200181F311887E
:100880001946FFF79BFF84F3118810BD70B5204D0A
:1008900000EB400305EBC3030130DC6A00EB4000D2
:1008A000012C05EBC0000E46154617D008D3022CCC
:1008B00002D00024204670BDBDE87040FFF71EBF87
:1008C0009A6A596A8A421DD9013A521A9542F1D858
:1008D00031462A46FFF7F2FE2C46EBE79A6A5C6A3D
:1008E000A2420AD9013A141BAC4228BF2C46314619
:1008F0002246FFF7E3FE204670BD1B6A1344013B0E
:100900001C1BF1E71B6A1344013B5A1ADEE700BFC8
:10091000881D002030B50C4B1B7883B00D462BB9D9
:10092000CDE90002FFF71AFFDDE90002EFF31184C1
:100930004FF0200181F311882946FFF7A7FF84F3C8
:10094000118803B030BD00BF881D0020044B00EBB0
:10095000400003EBC003D86E1B6FC01A704700BF86
:10096000881D00200C4BDA6E1B6F9A4211D000B527
:1009700083B001220DF107010020FFF779FF012864
:1009800004D19DF8070003B05DF804FB4FF0FF3081
:10099000F9E74FF0FF307047881D00202DE9F04146
:1009A0000A460D46074601460020FFF7B3FF854281
:1009B000044610D8164E4CB93368012B01DC0133C4
:1009C00033602046BDE8F081002CFAD0002333606C
:1009D0002046BDE8F08100F0EBF900F500600C4E18
:1009E0001FFA80F808E03368012BEDDC00F0E0F935
:1009F000A0EB08000304DED52A1B39190020FFF7FD
:100A000089FF0444A542EED8002CD5D0DEE700BF14
:100A1000300F002009B908467047FFF7BFBF00BF7D
:100A200000B583B002AB012103F8010D1846FFF7B2
:100A3000B5FFA0F10100B0FA80F0400903B05DF805
:100A400004FB00BF38B5054600200C46FFF77EFFCB
:100A5000A04228BF204600B938BD224629460020C2
:100A6000BDE83840FFF704BF10B50F4802F03CFB6B
:100A700003280BD8DFE800F0020B020B0B4C2378A5
:100A800023B10B4804F022F90023237010BD07495D
:100A90000B78002BFAD101240C70064A0448192166
:100AA000BDE8104004F0EAB8100F0020EC0E002062
:100AB000F00E0020ED0A000008B50146034802F0E0
:100AC00001FBBDE80840FFF7CFBF00BF100F0020BB
:100AD00010B50A460146044802F0E0FA044608B19F
:100AE000FFF7C2FF204610BD100F002008B50B4BCA
:100AF0001B788BB10A4BDA6E1B6F9A4204D10948FE
:100B0000BDE8084004F0C6B8074802F007FB0548F6
:100B1000BDE8084004F0BEB808BD00BFEC0E0020E0
:100B2000881D0020F00E0020100F0020704700BF2D
:100B300008B50949094802F02BFC48B9084802F0F9
:100B400061FC08B103F018F8064B01221A7008BDC9
:100B500003F012F8F2E700BF2D0B000078580000F8
:100B6000340F0020350F0020024B1B7803B970476B
:100B700002F03ABC350F0020034B1B7803B97047D5
:100B8000024B187802F062BC350F0020340F0020B1
:100B9000034B186818B90348034A1044186070479B
:100BA000380F0020E4610000B8FFFFFFF8B5294BC3
:100BB000294DD3F804452B68284A294F166829493E
:100BC000DFF8B8C0E31A23F07F43C3EB431003EB15
:100BD00080003044106010681668C6F3080616607E
:100BE0003E68400A06443E600F681F4E3844086065
:100BF0000A680F68ACFB020292094FF47A7000FB9E
:100C00001270086031681948194F0A44326002684E
:100C100018491344036002683B6803EB12133B60FE
:100C2000036803F00F030360224610320A40131BCF
:100C300023F07F43012BF8D9012300210E482C60BB
:100C400002F0EAFA04F032F900B9F8BDBDE8F84064
:100C500004F00CB900100140400F0020500F00209C
:100C60004C0F0020580F0020540F0020480F002088
:100C7000440F0020F0FFFF008C580000D34D62109D
:100C800000B1704710B50446FFF790FF014B1C7090
:100C900010BD00BF5C0F002070B500230E4E0F4D3D
:100CA0003370184602F0E8FDD5F804452834A4B2A4
:100CB00004E0D5F804351B1B1B0405D502F01EFE0D
:100CC0000028F6D001233370044BBDE87040D3F800
:100CD000043502F0FFBD00BF3C0F002000100140B2
:100CE00070B52348234E244D244C2549254A002322
:100CF00082B033602B60236003600B60136002F0EE
:100D000065FD002830D102F075FC002002F07EFD68
:100D100002F0AAFD0028FBD01B4B1C4C1C4A93E898
:100D2000030000230090ADF804101A4823706946B0
:100D300002F022FA08B102F01FFF174C1749184AB7
:100D4000144801232360D1F8041511601268103291
:100D500022F07F42002102F05FFA0E4802F050FAC2
:100D6000FFF79AFF02B070BD02F006FFCBE700BFAD
:100D70004C0F0020480F0020440F0020500F00208F
:100D8000580F0020540F0020845800005C0F0020F2
:100D9000810C00008C580000081001400010014038
:100DA000400F0020014B1868704700BF440F00201F
:100DB000024BD3F8040580B2704700BF0010014019
:100DC000164B012210B5C3F8402500F075FE00F067
:100DD0002DF800F059FF124AD2F8883043F470031E
:100DE000C2F88830BFF34F8FBFF36F8FFFF778FFE4
:100DF000FFF79EFE04F03CF900210A4804F010F9C8
:100E000003F002FFFFF7B0FE002004F03DFA064BAE
:100E100000211B680220BDE81040184700E0014097
:100E200000ED00E000010020605800004FF080431A
:100E30004FF0FF31D3F80024C3F800140C490B78AD
:100E40004AB943F0010362F3410362F3820362F3A0
:100E5000C3030B707047500803F0FE0360F34103B7
:100E6000900860F3820362F3C3030B70704700BF06
:100E7000600F0020BFF34F8F0549064BCA6802F48C
:100E8000E0621343CB60BFF34F8F00BFFDE700BFAD
:100E900000ED00E00400FA05084A094B11681B68E0
:100EA000994208D01168136806480133C3F3080358
:100EB000405C136070474FF0FF30704764110020B2
:100EC00068110020640F00202DE9F843224B234DC8
:100ED0001F682B682C68BB420E461DD9C4F50074F0
:100EE000A1422AD92968DFF87890224649448046F1
:100EF00004F07BFB00232B605FB1361BB74228BF99
:100F00003746494608EB04003A4604F06EFB2F6072
:100F10003C442046BDE8F8833C1BFAD02B681049BE
:100F2000B44228BF34462246194404F05EFB2B68C5
:100F300023442B602046BDE8F8832B6808493246DD
:100F4000194404F052FB2B683344C3F308033446BE
:100F50002B602046BDE8F883681100206411002052
:100F6000640F002010B5038804461BB1B42B05D1D3
:100F7000822907D0B4232380012010BD00230380E1
:100F8000032010BD014802F0C9F8F3E778150020EE
:100F900030B40B490B4B0C4A0425C1F88050002497
:100FA0004FF0FF300221C3F80045C3F80C05C3F829
:100FB0001405C2F82C17C2F8341730BC704700BFB4
:100FC00000E100E00020004000030050144A1378C4
:100FD00003B310B4134B144900244FF48070147001
:100FE000C3F808030A784AB10122DA6002E0D3F8B4
:100FF00020211AB9D3F85821002AF8D00B4B1B78BE
:1010000001220A701BB9074BD3F800351BB95DF8F4
:10101000044B704770475DF8044BFFF7B9BF00BF42
:10102000991500200020004074150020981500201C
:1010300070B41249124B134A0320C1F82C074FF425
:10104000006500202B242D26C1F80855C3F80C4557
:101050004FF0EB75C1F83407C024C3F814650421C0
:10106000C3F86C050820C3F8245582F80243C2F87F
:1010700080111160C3F8000570BC70470003005078
:101080000020004000E100E008B50D4B0D49186854
:101090000D4A08600D4B01211170D3F8003563B182
:1010A0000A4B0B4800224FF480710270C3F82021D4
:1010B000C3F85821C3F8041308BDFFF7B9FFEFE7E1
:1010C000701500206C1500209915002000200040AC
:1010D0007415002070B41D4A1D4913680C68013353
:1010E000C3F309039C422AD015681A4C60551A4D67
:1010F00013602B7803F0FF00FBB90868136898426F
:1011000020D008681368984234BF13680B68134AEC
:1011100038BF1B1A4FF6FF7128BFC3F580634FF627
:10112000FE760444B34288BF0B460121C2F8444511
:101130000846C2F848352970916070BC704700209D
:1011400070BC7047012070BC704700BF7015002054
:101150006C1500206C110020741500200020004048
:101160002DE9F047002962D03B4EDFF8FC90D9F81A
:101170000070336835689F420C4680461DD8C5F51F
:101180008065A94257D93068DFF8D0A02A4650447C
:10119000414604F02AFA0023012F33601FD9791E3B
:1011A000671B8F4228BF0F46504608EB05013A46A1
:1011B00004F01BFA37603D4411E07F1B012F48D932
:1011C000791E8C423368254828BF0C46224641468A
:1011D0001844254604F009FA336823443360204A52
:1011E00013782BBBD9F800103368994220D0D9F876
:1011F0000040336819481B499C4236BF3368D9F810
:1012000000301B1B204428BFC3F580634FF6FE76D9
:101210004FF6FF74B34288BF23460124C1F844054A
:10122000C1F8483514708C602846BDE8F0870D463B
:101230002846BDE8F08733680848414618442246EE
:1012400004F0D3F933682344C3F30903336025461C
:10125000C5E70025C3E700BF701500206C11002012
:1012600074150020002000406C150020124A134B1A
:1012700010B51020002401211C70C2F80803134689
:10128000516002E0D3F810211AB9D3F84421002AA2
:10129000F8D00B4B1B781BB9074BD3F8003523B99B
:1012A0000848BDE8104003F0DDBEFFF771FE0548B9
:1012B000BDE8104003F0D6BE002000409815002085
:1012C00099150020CC00002038B5124C1249206836
:1012D000124A0860124B01211170D3F80035B3B1E6
:1012E0000F4B104A104800211025C3F81011C3F805
:1012F0004411C3F80453246822440124C3F834255C
:10130000C3F838451C60BDE8384003F089BEFFF7DC
:101310008FFEE5E768110020641100209815002079
:1013200000200040640F0020CC00002008B51948C0
:1013300001F0DAFE032808D8DFE800F01A021308EB
:10134000FFF744FE144B1B78E3B108BD124B1B782A
:10135000E3B1124B1B78002BF7D1BDE80840FFF733
:1013600093BE0D4B1B78002BF3D0FFF77FFFF0E708
:10137000094B1B781BB9BDE80840FFF727BEFFF7F4
:1013800075FFF8E7BDE80840FFF79EBFFFF79CFF39
:10139000DFE700BF78150020981500209915002080
:1013A00008B50146034801F08DFEBDE80840FFF78F
:1013B000BDBF00BF7815002010B50A46014604489D
:1013C00001F06CFE044608B1FFF7B0FF204610BDE7
:1013D0007815002038B52A4BD3F81021DAB1294A04
:1013E00029480021C3F810111368284901330968FE
:1013F000C3F30803994218BF13601168244B204AB5
:101400000B440121C2F83435116003F0C7FE214BB3
:10141000186803F0C3FE1A4BD3F8202162B31E4AAA
:101420001E490020C3F82001D3F84C35146823442A
:10143000C3F30903136014680B689C421DD0106845
:101440000B68174C984234BF0B68136815490C4A57
:1014500038BF1B1A014428BFC3F580634FF6FF70E5
:101460004FF6FE75AB4288BF03460120C2F8441513
:10147000C2F848352070906038BD094B187038BDEF
:101480000020004068110020CC00002064110020E2
:10149000640F00209C1500206C15002070150020A2
:1014A000741500206C110020084A094B11681B6854
:1014B000994208D01168136806480133C3F3080342
:1014C000405C136070474FF0FF307047A01700205A
:1014D000A4170020A01500202DE9F843224B234D2E
:1014E0001F682B682C68BB420E461DD9C4F50074DA
:1014F000A1422AD92968DFF87890224649448046DB
:1015000004F073F800232B605FB1361BB74228BF8D
:101510003746494608EB04003A4604F066F82F6067
:101520003C442046BDE8F8833C1BFAD02B681049A8
:10153000B44228BF34462246194404F056F82B68BA
:1015400023442B602046BDE8F8832B6808493246C7
:10155000194404F04AF82B683344C3F308033446B3
:101560002B602046BDE8F883A4170020A0170020B8
:10157000A015002010B5038804461BB1B42B05D17B
:10158000822907D0B4232380012010BD00230380CB
:10159000032010BD014801F0C1FDF3E7B41900209C
:1015A00030B40C490C4B4FF0A0424FF48075C1F899
:1015B000845000244FF0FF300221C3F80045C3F8E7
:1015C0000C05C3F81405C2F83C17C2F8381730BC34
:1015D000704700BF00E100E000800240144A137829
:1015E00003B310B4134B144900244FF480701470EB
:1015F000C3F808030A784AB10122DA6002E0D3F89E
:1016000020211AB9D3F85821002AF8D00B4B1B78A7
:1016100001220A701BB9074BD3F800351BB95DF8DE
:10162000044B704770475DF8044BFFF7B9BF00BF2C
:10163000D519002000800240B0190020D4190020E4
:1016400070B44FF0A041124B124A0320C1F83C077E
:101650004FF4004500200F240E26C1F80855C3F8AA
:101660000C454FF0EB75C1F83807C024C3F814657A
:101670004FF48071C3F86C050820C3F8245582F834
:101680002843C2F884115160C3F8000570BC70474C
:101690000080024000E100E008B50D4B0D491868DC
:1016A0000D4A08600D4B01211170D3F8003563B16C
:1016B0000A4B0B4800224FF480710270C3F82021BE
:1016C000C3F85821C3F8041308BDFFF7B9FFEFE7CB
:1016D000AC190020A8190020D51900200080024074
:1016E000B019002070B41D4A1D4913680C680133FD
:1016F000C3F308039C422AD015681A4C60551A4D52
:1017000013602B7803F0FF00FBB908681368984258
:1017100020D008681368984234BF13680B68134AD6
:1017200038BF1B1A4FF6FF7128BFC3F500734FF681
:10173000FE760444B34288BF0B460121C2F84445FB
:101740000846C2F848352970916070BC7047002087
:1017500070BC7047012070BC704700BFAC190020FE
:10176000A8190020A8170020B0190020008002400E
:101770002DE9F047002962D03B4EDFF8FC90D9F804
:101780000070336835689F420C4680461DD8C5F509
:101790000075A94257D93068DFF8D0A02A465044D6
:1017A000414603F022FF0023012F33601FD9791E29
:1017B000671B8F4228BF0F46504608EB05013A468B
:1017C00003F013FF37603D4411E07F1B012F48D920
:1017D000791E8C423368254828BF0C462246414674
:1017E0001844254603F001FF336823443360204A40
:1017F00013782BBBD9F800103368994220D0D9F860
:101800000040336819481B499C4236BF3368D9F8F9
:1018100000301B1B204428BFC3F500734FF6FE7633
:101820004FF6FF74B34288BF23460124C1F8440534
:10183000C1F8483514708C602846BDE8F0870D4625
:101840002846BDE8F08733680848414618442246D8
:1018500003F0CBFE33682344C3F30803336025460B
:10186000C5E70025C3E700BFAC190020A81700207A
:10187000B019002000800240A8190020124A134B22
:1018800010B51020002401211C70C2F80803134673
:10189000516002E0D3F810211AB9D3F84421002A8C
:1018A000F8D00B4B1B781BB9074BD3F8003523B985
:1018B0000848BDE8104003F0D5BBFFF771FE0548AE
:1018C000BDE8104003F0CEBB00800240D4190020D8
:1018D000D5190020D800002038B5124C12492068D4
:1018E000124A0860124B01211170D3F80035B3B1D0
:1018F0000F4B104A104800211025C3F81011C3F8EF
:101900004411C3F80453246822440124C3F8342545
:10191000C3F838451C60BDE8384003F081BBFFF7D1
:101920008FFEE5E7A4170020A0170020D41900209F
:1019300000800240A0150020D800002008B51948FA
:1019400001F0D2FB032808D8DFE800F01A021308E0
:10195000FFF744FE144B1B78E3B108BD124B1B7814
:10196000E3B1124B1B78002BF7D1BDE80840FFF71D
:1019700093BE0D4B1B78002BF3D0FFF77FFFF0E7F2
:10198000094B1B781BB9BDE80840FFF727BEFFF7DE
:1019900075FFF8E7BDE80840FFF79EBFFFF79CFF23
:1019A000DFE700BFB4190020D4190020D5190020AA
:1019B00008B50146034801F085FBBDE80840FFF784
:1019C000BDBF00BFB419002010B50A460146044847
:1019D00001F064FB044608B1FFF7B0FF204610BDDC
:1019E000B419002038B52A4BD3F81021DAB1294AAE
:1019F00029480021C3F810111368284901330968E8
:101A0000C3F30803994218BF13601168244B204A9E
:101A10000B440121C2F83435116003F0BFFB214BA8
:101A2000186803F0BBFB1A4BD3F8202162B31E4A9F
:101A30001E490020C3F82001D3F84C351468234414
:101A4000C3F30803136014680B689C421DD0106830
:101A50000B68174C984234BF0B68136815490C4A41
:101A600038BF1B1A014428BFC3F500734FF6FF703F
:101A70004FF6FE75AB4288BF03460120C2F84415FD
:101A8000C2F848352070906038BD094B187038BDD9
:101A900000800240A4170020D8000020A0170020DA
:101AA000A0150020D8190020A8190020AC1900208A
:101AB000B0190020A817002008B5002001F02AFF67
:101AC00028B1852803D0BDE8084002F055B808BD0C
:101AD000F0B568490B780871020C000A8A70C8706A
:101AE000002B5ED0644B002518462A4604798E18D8
:101AF0000330013234B1B478013CE4B2FD2C98BF1C
:101B000045F00105042AF1D14E78D5B15B4C002097
:101B10001A790D1802B1AA785D790130033315B135
:101B2000C2F1FF0292B2042824F8022BF0D11EB9B0
:101B3000534B0122C3F80025514A012393604B7097
:101B4000F0BD1EB14E4AC2F800554D704D4E0022F8
:101B50000125187980B188185C79807894B198B1A2
:101B600098791F2886BF00F01F0034464FF0A0442C
:101B700005FA00F0C4F808050132042A03F1030352
:101B8000E7D1F0BD0028EBD098791F2886BF00F080
:101B90001F0034464FF0A04405FA00F0C4F80C05CD
:101BA000EAE7354ADFF8DCC002F10C0513460127ED
:101BB0001879E8B198795E790446002E4BD01F2839
:101BC00087BF00F01F06E64606464FF0A04E07FA14
:101BD00006F6CEF80C6540F203461F288ABF00F0D7
:101BE0001F044FF0A040604604F5E07440F8246004
:101BF0000333AB42DCD1224E00234FF00047107973
:101C000003F5AC7520B3907946F825000133042B19
:101C100002F10302F3D11A4A184D0724C2F80C4509
:101C200000200224C2F80405C2F81045FF24C2F8BF
:101C30001405C2F808450124C2F82435C2F82C0561
:101C4000C2F82055C2F82805C2F800020C7049E716
:101C500046F82570DAE71F2887BF00F01F06E64622
:101C600006464FF0A04E07FA06F6CEF8086540F299
:101C70000366B2E7DC190020C4580000E219002016
:101C800000100240000300500E490B78CBB970B42D
:101C90000D4B0E4D0E4C0F480F4A104E2B44234453
:101CA0001B1A9B1A03F6FF700D4A0E4D0E4C000BCB
:101CB0009B1A3060120B01202B602260087070BCF0
:101CC00070477047F01900202C5F00008002002050
:101CD000745F00002C5F000010000020E80000206E
:101CE00000000000EC190020E400002008B50F4BB4
:101CF0001B68834218D8FF2816D8000300F58051CE
:101D000088420FD20268013200F1040301D007E0DB
:101D10001346994203F1040204D91B680133F7D03A
:101D200001F0E8FC002008BD012008BDE80000200B
:101D3000531EB3F5805F44D22DE9F041404B1B6840
:101D4000B0EB033FADF5806D054635D31318B3F501
:101D5000801F144630D810F0030C0E4633D18B0789
:101D600054D06F46B4F5806F14D931464FF4806279
:101D7000384603F03AFCA4F5806428464FF480729C
:101D8000394601F0CFFCB4F5806F06F5806605F5A5
:101D90008065EAD8A308314655F8232047F8232068
:101DA0003846224603F021FCE21C284692083946B8
:101DB00001F0B8FC002000E001200DF5806DBDE8C9
:101DC000F081012070470CF1030820F003059044D6
:101DD0006F464FEA98082B683B60B8F5807F07EBA9
:101DE0000C001BD9CCF58068424603F0FEFBA4EB47
:101DF000080428464FF480723946464401F092FCAC
:101E000005F58065002CADD10220D6E712F003075E
:101E1000A7D1920801F086FC3846CEE705EB88048E
:101E200008F1FF3354F8044C47F8234003F0DDFB7E
:101E300028464246394601F075FC0020BDE700BF48
:101E4000E80000200021F0B4104C114F0E4602258E
:101E500001E0082918D00A0102F1804303F5F033AC
:101E60003A44C3F80068C3F80448C2F80858D3F8E5
:101E7000000801310028ECD1D3F80438A342E8D19E
:101E8000D2F80838022BE4D1F0BC704700E0000023
:101E900000E0014010B50E4A4FF0FF33C2F8803029
:101EA000C2F88031C2F88430C2F88431D0E90041F0
:101EB000002282F3148882F3108882F3118882F35F
:101EC0001388044A906084F308889E46084710BD32
:101ED00000E100E000ED00E04FF080434FF0804271
:101EE000D3F8000410F0040018BFD3F81C05D2F892
:101EF0001C3523F0070318BF00F00700C2F81C359B
:101F0000704700BF4FF08042D2F81C3523F0070322
:101F10001843C2F81C0570474FF08043D3F83804CB
:101F200000F00100704700BF80B48BB000AFF860D4
:101F3000B9607A60FB70FA68BB689A4280F0908062
:101F40007B68002B00F08C807B6803F6FF731B0B13
:101F50003B61FB687B62BB683B623B69FB616EE097
:101F60000023FB7613E0474BD3F80825FB7E22FACB
:101F700003F303F00103002B06D0424AFB7E03F576
:101F8000C073414942F82310FB7E0133FB76FB7E90
:101F9000072BE8D93D4B0222C3F80425BFF36F8F0E
:101FA000BFF34F8F394A7B6AC2F8083500BF374B01
:101FB000D3F80034002BFAD0344B0122C3F80425A7
:101FC000BFF36F8FBFF34F8F0023BB7613E02D4B12
:101FD000D3F80825BB7E22FA03F303F00103002B9C
:101FE00006D0284ABB7E03F5C073274942F8231068
:101FF000BB7E0133BB76BB7E072BE8D94FF48063F1
:102000007B6113E03A6A131D3B627B6A191D79629A
:1020100012681A6000BF1D4BD3F80034002BFAD0B1
:102020007B68043B7B607B69013B7B617B69002BA8
:1020300002D07B68002BE5D1FB69013BFB61FB69AA
:10204000002B8DD1114B0022C3F80425BFF36F8FF5
:10205000BFF34F8F00BF0D4BD3F80034002BFAD0E5
:10206000FB78002B07D0BFF34F8F094B094ADA608A
:10207000BFF34F8FFEE700BF2C37BD465DF8047BF2
:10208000704700BF000001403546526E00E001403D
:1020900000ED00E00400FA0580B400AF00BFBD46CB
:1020A0005DF8047B704700002DE9F04140EA01042F
:1020B000C4F30B0400AF74B9033222F003046218B6
:1020C000B2F5801F0D4606D88842064603D82BB9C4
:1020D0002246FFF729FFBD46BDE8F0810B490C4AB7
:1020E000521AD31D23F00703E846ADEB030D21F090
:1020F0000101684603F079FA72B6012322462946A7
:102100000DEB03043046A047C546E4E7291F000055
:1021100099200000FFF7DCBC10B40F4B0F4A1B687E
:102120001268934205D303F6FF7222F47F6222F015
:102130000F020B490B48401A841AA34206D903F632
:10214000FF7323F47F6323F00F03C21A06480A4487
:1021500002605DF8044B704700000020641A002004
:1021600000E0000000E00D00601A002038B50C4DC2
:102170000C4C286821680430091A00F0FDFE236821
:1021800029685870C0F3072003F8020B581A021F81
:1021900092B2C2F30725CA708D70236080B238BD39
:1021A000081A0020141A002008B5044B1B6803B15C
:1021B0009847BDE80840FEF75DBE00BF101A00203A
:1021C00038B5064C064905460722206803F00DFA8B
:1021D0002368044ADD710833136038BD081A0020F3
:1021E0000C590000141A0020094B1B6843B1094B1D
:1021F0001B685BB110B59847BDE81040FEF73ABECA
:10220000054A06484FF4705102F038BDFEF732BE61
:10221000F4190020101A0020E92100003C1A0020C7
:1022200010B50446EE20FFF7CBFF044A13681C707C
:1022300001331360BDE81040FFF798BF141A002067
:1022400030B53D4C014683B0206800296BD0CB7B74
:102250008D7B4A7B8DF804300B7B8DF805508DF813
:1022600006208DF80730019BC370C3F30725C3F325
:102270000742C3F3076385704270037091F84730DB
:1022800091F8465091F845208DF8043091F844308B
:102290008DF805508DF806208DF80730019BC3712D
:1022A000C3F30725C3F30742C3F307638571427184
:1022B0000371CD7C8A7C4B7C8DF804508DF8052011
:1022C0008DF806300B7C8DF80730019BC372C3F389
:1022D0000725C3F30742C3F3076385724272037293
:1022E000CB7E8D7E4A7E8DF804300B7E8DF80550B6
:1022F0008DF806208DF80730019BC373C3F30725C3
:10230000C3F307428573C3F3076300F110054273FB
:1023100003731C3128462822256003F0AFF9236897
:102320002833236005E03822FDF7FCFF23683833AB
:10233000236003B030BD00BF141A00202DE9F04126
:10234000054618461E460C46174603F08FF9EB6803
:102350000146304698477FB10A4E274423786A6980
:102360001B09F05C904714F8013B6A6903F00F0306
:10237000F05C9047BC42F1D16B690A20BDE8F041A6
:10238000184700BF1459000010B5074B0122002068
:102390001A70FFF7B7FD0023044A05485521BDE830
:1023A000104002F06BBC00BF681A0020A921000099
:1023B000181A0020F0B4374B37481A780368FF2A00
:1023C0002BD01A7012BB354A354C1168354A21445E
:1023D000521AC2F30721C2F30745C2F307645A73C6
:1023E0001973002203F11201DD729C725A705A7146
:1023F0001A71DA709A705A721A72DA719A715A7482
:102400001A74DA739A730160F0BC704726490A683F
:10241000002AD8D0254C246809E023490A68BAB3B9
:10242000224C2468A2428CBF012502251D70D1E9EF
:102430000165C6F30727C9685E711F71C6F30747B8
:10244000C6F30766DF709E70C5F30727C5F307461E
:102450005D725970C5F30765C2F307215A735C7446
:102460001F72DE71C2F30747C4F307269D7119730B
:10247000C4F30745C2F30762C4F3076403F1120112
:10248000DF729A721E74DD739C730160F0BC70473A
:102490001A7098E7ED000020141A0020641A00203A
:1024A00000E0000000E00D00000000205C1A0020A9
:1024B00008B52120FFF784FEFFF77CFFBDE8084048
:1024C000FFF754BE2DE9F0477D4BDFF810827D4DBC
:1024D0007D4F012282B01A70FEF75AFB08F5007496
:1024E000AC42386000F2EA80784EDFF8009202E0F9
:1024F0000434AC4227D82368B342F9D1A3795A1ED9
:10250000012AF5D8012B4FF004024946204614BF9A
:10251000C2464FF0000A03F059F80028E8D1E27CE7
:10252000A37C8DF804208DF80530627C237C8DF827
:1025300006208DF80730019BC3F14803234453451F
:10254000D6D1386801E038680024614D614BA96834
:10255000D5E9002632441344EA685F4E0B445340E9
:1025600033F00103346070D112F0010F0CBF01236E
:102570000223EB6080B390F847308DF8043090F878
:10258000461090F8452090F844308DF805108DF8ED
:1025900006208DF80730C37CDDF80480817C8DF83F
:1025A0000430427C037C8DF807308DF805108DF8DF
:1025B0000620019C042C88BF043C00F053FD2146FA
:1025C0000246002000F052FD00F066FD804517BF76
:1025D0000023346834683B606CB394F847308DF85E
:1025E000043094F8461094F8452094F844308DF85F
:1025F00005108DF806208DF80730E37C019FA17C43
:10260000627C8DF80430237C8DF807308DF805103E
:102610008DF80620019C042C88BF043C00F022FDAC
:10262000214602462D4800F021FD00F035FD87428D
:102630000ED0002333602A4A2C680023136014BB99
:10264000284B1C6002B0BDE8F08700232B6091E7A7
:102650003368002BEFD05A7CD87C997C1B7C8DF89A
:1026600006208DF804008DF805108DF80730019BC9
:102670001B4A2C6803F6FF7323F47F6323F00F03D8
:102680001360002CDCD0FFF747FD164B042C1E68AE
:1026900088BF043C00F0E6FC21460246304600F0CC
:1026A000E5FC00F0F9FCAB68834208BF2A680E4BDA
:1026B00018BF00221A6002B0BDE8F087002444E78A
:1026C000FC190020E0DE0D00F819002046495300F7
:1026D0000000002078563412F419002000E00000B9
:1026E000641A0020601A00205C1A002008590000BB
:1026F000014B1860704700BF101A00202DE9F04F01
:10270000B44C257885B005BB0E46B349B34D097866
:102710000446002AB24808BF00232B60026081B340
:10272000B04F012E3C6023D92346627813F8021B78
:102730008DF80D108DF80C20BDF80C203B60B2F523
:102740005F4F06D02B680A2B22D8002005B0BDE8C9
:10275000F08F092E0CD9E278A3788DF80D308DF822
:102760000C20BDF80C20331F201D9A42386011D078
:102770002B680A2BE9D9012005B0BDE8F04FFFF71F
:102780004FBD984FFFF79EFE012E3C60CCD8EFE77F
:102790000220F1E7A6F10608414600F0EDFBB31E6A
:1027A000E218E35C52788DF80C208DF80D30BDF8FE
:1027B0000C30984204D02B680A2BC6D90320DBE7E3
:1027C0003A681346907813F8034B51788DF80D4012
:1027D0008DF80C1001283B60BDF80C3002D000F5DC
:1027E0000040B3E74BF6CE62934204D02B680A2B2D
:1027F000ABD90420C0E77C4C7C4A7D4800234FF4D1
:10280000705102F03BFA3B68227893F80090591C13
:10281000FF2A396027D0B9F1120F13D8B9F1110F7F
:1028200080F0A881B9F1000F00F07C81B9F1020FAE
:1028300013D1B8F1040F2B6826D02B680A2B84D94A
:10284000072099E7B9F1300F18D0B9F13F0F00F028
:102850004C81B9F1200F00F0D5802B680A2B7FF650
:1028600074AF062088E7634A1268002AD3D0624911
:1028700009688A4294BF02220122CCE7B8F10C0F0A
:10288000DBD1022A08D02B681B2B7FF65EAF05B088
:10289000BDE8F04FFFF70CBE1979DA788DF80C100F
:1028A0008DF80D2099785A788DF80E108DF80F203C
:1028B000197A039A4F4E8DF80C10D9798DF80D10B6
:1028C00099798DF80E10D6F8008059798DF80F108F
:1028D00009333B60039FB8F1000FAED073689A4292
:1028E000ABD1B3689F42A8D1434B1B689845A4D194
:1028F000DFF80C91B8F1040F88BFA8F10408D9F8EB
:1029000000A000F0AFFB41460246504600F0AEFB8F
:1029100000F0C2FB874214D000233360EC232A6806
:1029200023701B2A0AD800202378032B03D101909F
:10293000FFF72AFD01980023336007E7FFF7B8FD92
:10294000F2E73368D9F800702C491F44483F27F05C
:102950000307384602F078FE10B93B79122B03D0FA
:1029600000233360ED23DAE7BB79F2689342F7D1B5
:1029700039894CF6BE629142F2D1BA7A012AEFD17E
:10298000FA7C797C8DF80C20B87C3A7C8DF80E109E
:102990008DF80D008DF80F20039A31688A42DFD13F
:1029A000F97B787B8DF80C1097F80EC0397B8DF889
:1029B0000F108DF80DC08DF80E00039871688842D5
:1029C000CED1012B00F06881022B00F05E81E02364
:1029D000A5E700BF681A0020FC1900200C1A00208F
:1029E000081A0020001A0020ED000020E921000054
:1029F0003C1A0020000000205C1A0020085900004A
:102A0000601A0020B8F10F0F7FF617AF013A012AC4
:102A10003FF639AF93F804E093F803C098785978FB
:102A2000AF4A8DF80DC08DF80E008DF80F108DF89F
:102A30000CE0187ADDF80CE093F806C059798DF8AF
:102A40000C0093F8078010688DF80F108DF80D803A
:102A50008DF80EC003F10901DDF80CC039600028C3
:102A60003FF4EBAE51688E457FF4E7AE9268944533
:102A70007FF4E3AE1A7B997A8DF80C2093F80BC0A3
:102A80005A7ADFF874928DF80F208DF80DC08DF80A
:102A90000E100399D9F8002003F10D089142A6F118
:102AA0001606C7F800807FF4EEAE002E3FF4EBAEC2
:102AB0008C4B8D4A1B68934231D3471ABE422CD3AC
:102AC000002F3FF4E0AE01EB030A0AF1FF3BBB44E9
:102AD0000AF6FF764FEA1B3B360BB345304610D360
:102AE000FFF704F9D8B90136F7E7B8F1040F7FF41E
:102AF000A4AE7B4A0021FF2311602370FFF744FC42
:102B0000C1E6414650463A46FFF712F938B9D9F8BE
:102B100000303B44C9F80030B5E63746D3E7E02340
:102B20002370B0E6B8F1040F2B687FF486AE8D2BCE
:102B30007FF60BAE6D4D6E4C0120FFF741FB286810
:102B4000FFF77EFB2068FFF77BFB2B680BB193F848
:102B50000B90684923680A6882F8009003B1DB7A19
:102B6000537002320A60FFF725FC05B0BDE8F04F54
:102B7000FFF7FCBAB8F1100F7FF45FAE1E79D8787A
:102B800099785A788DF80C608DF80E108DF80F201A
:102B90008DF80D001A7A039899798DF80C20DE795A
:102BA0005A798DF80E108DF80F20197BDA7A8DF88E
:102BB0000D60DDF80CC08DF80C108DF80D20997AA1
:102BC0005A7A8DF80E108DF80F200D33B9F1110FD0
:102BD0003B60039A2BD04849414E454F00230B6080
:102BE0003360FF213B682170022473B1DF7B997B46
:102BF0008DF80C708DF80D105F7B197B8DF80E70C1
:102C00008DF80F10039988421CD0472A65D93B4B99
:102C1000354F19683A4B39445B1A9A4257D8F460D9
:102C2000C6E90020C6F808C0FFF776FA2BE632495D
:102C30002B4E2E4F00230B60FF21336021703B6829
:102C40000124D2E7DF7C997C8DF80C708DF80D1093
:102C50005F7C197C8DF80E708DF80F1003998A42F5
:102C6000D3D193F8471093F846708DF80C1093F871
:102C7000451093F844308DF80D708DF80E108DF8D6
:102C80000F30039B9C45C0D1FDE5FB7A022B16D08B
:102C900000233360EB2342E6154B1B681BB112483F
:102CA000000BFFF723F80320FFF72CF90123D9F8D5
:102CB000001032680020FFF7F7F9E0232FE6002329
:102CC000D9F800100848FFF7EFF9032327E6112091
:102CD0002B680A2B7FF639AD4EE50720F8E700BFD9
:102CE00000000020601A002000E00000F819002019
:102CF000F4190020141A00205C1A0020641A002025
:102D000000E00D0070B5ADF5007D0D461646694634
:102D10004FF4807200F0A2F920B19DF80030DF2B53
:102D200003D000200DF5007D70BD01464FF4807387
:102D3000684640AAFFF7E2FC030484B200D41CB941
:102D400020460DF5007D70BD2846334640A9224639
:102D5000FFF7F4FA2046F4E708B5154A154B0C21A5
:102D6000C2F814171B7803B3FFF7B6F8124A831E94
:102D7000012B106018D9114B1B68ABB10C4BD3F869
:102D800010359B0602D4FFF7C7F850B9084B022252
:102D9000C3F81427FFF756F80948BDE80840FFF7C5
:102DA00079B8084B01221A7008BDFFF78BFBDBE7EF
:102DB00000030050FC190020381A0020F4190020EC
:102DC00000E00000041A0020014B1878704700BF93
:102DD000041A0020F0B50023044689B0154A1648AD
:102DE0004FF4705101F04AFF5CB1144B14481B685A
:102DF000144A01AD1C21022B0560116015D0032B74
:102E000001D009B0F0BD104F3B70FFF751FBFF231D
:102E100006463B70FFF7B8FA002EF2D0324629463C
:102E200020460A4BFFF78AFAEBE7FFF741FB06461D
:102E3000F2E700BFE92100003C1A0020381A002008
:102E4000081A00200C1A0020ED000020FC58000099
:102E50002DE9F0410F4615462B49092298460446B4
:102E600002F0B4FBE0B909340646284A2046294658
:102E7000FFF748FF03041DD5B0F5004F1AD1EB68EA
:102E8000234808219847A7F10901EB682046984795
:102E90006B690A2098471F4B1E700120BDE8F08126
:102EA00009221D49204602F091FB034628B100206B
:102EB000BDE8F0810120BDE8F081164E174A1848A0
:102EC0004FF4705101F0DAFE33787BB1012B08D159
:102ED000D8F80C30394620469847D8F814300A20E4
:102EE0009847022333700020BDE8F081EB68074863
:102EF00008219847EB68A7F1090104F109009847F8
:102F00006B690A209847ECE7D8580000FC5800008D
:102F1000E4580000EC000020F0580000E921000017
:102F20003C1A0020F8B50F461646104908221D46E7
:102F3000044602F04BFB08B10020F8BD29460C4ABC
:102F400004F10800FFF7DEFE03040DD5B0F5004FD5
:102F50000AD13946F3682046984773690A20984792
:102F6000044B01201870F8BD0120F8BDE4580000A2
:102F7000F0580000EC00002030B410FA81F1044653
:102F80008C424FF6FF7041F2210510D014F8013B3E
:102F900080EA03239BB2082218044CBF85EA43034E
:102FA0005B009BB2013A1846F6D18C42EED130BCA0
:102FB000704700BFA0F14103052B9ABF3738C0B25C
:102FC000FF2070472DE9F04122B190F80080B8F160
:102FD000000F03D100242046BDE8F0811646851C71
:102FE0004F1E00241CE0A0F15703D9B215F8010CC4
:102FF000A0F13003DBB2092B05D9A0F16103052B49
:1030000025D85738C3B20134A4B243EA0113B442FD
:1030100007F8013FDFD015F8028BB8F1000FDAD0C6
:1030200002F0B4FA404443781B07D4D415F8020CDC
:10303000A0F13003D9B20929D8D9A0F16103052B39
:10304000D1D9FFF7B7FF0F280146CFD9C2E7FFF765
:10305000B1FF0F280346D6D9BCE700BF08B1FFF780
:10306000B1BF70474FF0FF30704700BF81B130B43F
:10307000441E084D2144104614F8013F4340DBB282
:10308000A14255F8233083EA1020F5D130BC7047B7
:103090001046704724590000C043704781B110B4F6
:1030A00000F12004037833B10830A042FAD10020A7
:1030B0005DF8044B7047017042605DF8044B704747
:1030C0000846704788420BD000F10803994207D0A8
:1030D00000F11003994203D01830814200D07047AC
:1030E00000230B70704700BF00F1080200F12801B7
:1030F000002012F8083C022B07D0032B07D0012B2D
:1031000007D008328A42F4D17047012803D1032046
:1031100070470228FBD01846F3E700BF38B500F12E
:10312000080400F1280514F8083C1BB154F8043CCD
:1031300003B198470834AC42F5D138BD0649074A77
:10314000074B9B1A03DD043BC858D050FBDC00F052
:10315000F5FBFDF775F800002C5F00001000002063
:1031600080020020FEE7FEE7FEE7FEE7FEE7FEE75F
:10317000FEE7FEE7FEE7FEE770B41D4D43791D4C08
:1031800045F8232003EB4303E35C6BBB8A7890F99B
:1031900004305201002BD2B220DB03F1604303F56F
:1031A000614383F8002390F90430134E012503F0A6
:1031B0001F025B0905FA02F246F8232003680A8819
:1031C000C3F8082543790879C97803EB4303E2186B
:1031D000E55450709170002070BC7047074D03F0AB
:1031E0000F031D442A76DEE7082070BC704700BF3D
:1031F000701A00206C1A002000E100E0FCEC00E0F6
:103200000368044A01211960437903EB4303022157
:10321000D15470476C1A0020F0B44FF48035046824
:10322000234E8D40C4F848530468C4F808534479C9
:1032300004EB4404344482B0647822F07F42F4B159
:10324000046801F5A87744F827200468D4F804C579
:10325000ACEB02076245427902EB4202164488BF9A
:1032600007F1FF17B27888BF07F57F4797421BDB4E
:103270006BB90020C4F8445302B0F0BC7047046836
:1032800001F5A87644F826200468002BF1D05031CF
:10329000890089B200236350625803680192019A41
:1032A000C3F804530468E4E70D2002B0F0BC704793
:1032B0006C1A00202DE9F041284E294FDFF8A48038
:1032C00084B000244FF48035D6F80423E3192A4251
:1032D000E0B24FEA83034FF0000104F101040CD087
:1032E0001A6852B1C6F84853C6F8085319601B68EB
:1032F0000393D8F80030039A9847042C4FEA450509
:10330000E2D1164BD3F80423D1070DD5D3F8002111
:1033100052B10022C3F80021124AD3F800310293BF
:1033200020461368029A98470C4BD3F8042392075F
:1033300010D5D3F804216AB10022C3F80421D3F8D0
:103340000421084B0192019A1B68052004B0BDE8D6
:10335000F041184704B0BDE8F08100BF0010014003
:1033600050440010701A002010B5074C236882B03A
:103370003BB1064B1B6898470023236023680193E9
:10338000019B02B010BD00BF00010140781A00206F
:1033900070B5114B114A1C781160DCB9104E0278DF
:1033A00001211970C6F80C25416805464FF47A7260
:1033B0000023C803490C01F069FFC6F804052B7A05
:1033C000084A5B01DBB24FF4803182F810331160A0
:1033D000204670BD082070BD751A0020781A0020A4
:1033E0000000014000E100E0044B054901220220F9
:1033F000C3F804231A600870704700BF0000014042
:10340000751A002010B50446002000F0DFFB0D4BBC
:103410001A78072A10D8501C0B4922701870D1F85E
:103420000805012393400343C1F808350024002018
:1034300000F0D4FB204610BD0424002000F0CEFB99
:10344000204610BD741A00200000014000F5C07035
:10345000024B034A43F82020704700BF00000140A0
:103460003546526E104A1378DBB910B403780F4911
:103470004FF08044C3F34003C4F88035037803F071
:103480000103C4F878350B68DB0704D4C02001239E
:1034900081F800030B600123137000205DF8044BDA
:1034A00070478520704700BF301E002000E100E01B
:1034B00010B54FF0804386B0D3F80443620705D5BA
:1034C000D3F8082103F58473002A4ED1A30603D54F
:1034D0002A4B1A68002A3FD1600603D5284B1A6888
:1034E000002A2FD1210602D5264B1A680ABBE20515
:1034F00002D5254B1A6892B9A3050ED5234B1A683D
:103500005AB100221A601A68214B0592059A1B686D
:10351000022006B0BDE81040184706B010BD0022DA
:103520001A601B4A1B68049301201368049A984789
:10353000E2E700201860164A1B6803931368039A99
:103540009847D4E700221A60124A1B6802930120B0
:103550001368029A9847C5E7002018600D4A1B6857
:1035600001931368019A9847B6E700221A600A4A45
:103570001B6800931368009A9847A7E7140100405E
:10358000180100401C0100402001004024010040BF
:10359000841A0020801A00207C1A002008B5FFF74A
:1035A00087FFBDE8084000F073B800BF054A1379F3
:1035B0002BB9012110605371184611717047852095
:1035C000704700BF881A0020084B1A68D20704D43D
:1035D000C021012283F800131A604FF08041044A91
:1035E0000123C1F818351370704700BF00E100E0F7
:1035F000311E002010B4094B094A0021196083B024
:103600001B680193019C4FF0804102200123C1F807
:103610000403136003B05DF8044B704704010040DD
:1036200008000040074B00221A6082B01B6801931B
:1036300001994FF080430122C3F804231A6002B0BD
:10364000704700BF0001004010B40E490E484FF013
:10365000804201230024C2F8083383B00C6009685B
:10366000019101990360D2F80C3403F00113B3F116
:10367000011FF8D0054B00225A7103B05DF8044BCE
:10368000704700BF0001004004000040881A00207D
:1036900010B5154B1A6882B07AB10021134A19602F
:1036A0001B68507900934FF080410123009CC1F8C2
:1036B000083310B91168537188470D4B1A6882B1ED
:1036C00000221A601B6801934FF080420221074BD1
:1036D0000198C2F808131B68012002B0BDE8104031
:1036E000184702B010BD00BF00010040881A00203A
:1036F000040100400A4A0223C2F80435BFF36F8F69
:10370000BFF34F8FC2F80805D2F80034002BFBD06E
:103710000023C2F80435BFF36F8FBFF34F8F70479C
:1037200000E00140114B30B40124C3F80445BFF35D
:103730006F8FBFF34F8F72B101EB82050C46401AB9
:103740001A46031954F8041B1960D2F80034002BF0
:10375000FBD0AC42F5D1054B0022C3F80425BFF3E2
:103760006F8FBFF34F8F30BC704700BF00E0014048
:1037700050E8002F02EA010340E8003C9CF0000FF3
:10378000F6D11046704700BF10B570B101280BD1BB
:103790000D4C2369A0703BB1D3E9002301202261C5
:1037A00098472369002BF7D110BD074CA36801226D
:1037B0006270002BF8D0D3E900230020A260984764
:1037C000A368002BF7D1EFE7901A002038B50C4C16
:1037D00023789BB90B486360A3602361E360FFF724
:1037E000E5FE0546FFF7F0FE01232370064BD3F8F4
:1037F00000340BB10123A370284638BD8525F5E7B9
:10380000901A0020893700000000014038B5154C9F
:10381000A378054673B110B1436801209847002092
:1038200000F0D4F9E3680133E3600020BDE83840DC
:1038300000F0D4B903F0FF0000F0C8F965B12269C7
:1038400042B1954208D0134601E09D4204D01B6866
:10385000002BFAD12A602561E368002BE2D1FFF743
:10386000C9FEDFE7901A00204FF08043D3F8180418
:10387000C0F30040704700BF38B5154C637805466B
:1038800073B110B1436800209847002000F09EF902
:103890006368013363600020BDE8384000F09EB9E2
:1038A00003F0FF0000F092F965B1A26842B19542C1
:1038B00008D0134601E09D4204D01B68002BFAD1CA
:1038C0002A60A5606368002BE2D1FFF7ABFEDFE75B
:1038D000901A002038B5084C002000F077F9636892
:1038E000013B6360656815B9FFF7AEFE65700020A7
:1038F000BDE8384000F072B9901A00204FF08043C4
:10390000D3F80C0400F00110A0F10110B0FA80F01F
:103910004009704710B5074C23784BB9064B002877
:1039200008BF1846FFF79EFD08B90123237010BD9C
:10393000852010BDA41A0020245D000030B47E4B09
:103940001B685C1C2DD07D4A082B126800F0B080EB
:10395000794B7A4A1B681268082B7ED0591C00F0FC
:103960008A80764A1268082B78D0754AD2F8883057
:1039700043F47003C2F88830BFF34F8FBFF36F8FEB
:103980004FF01023D3F80022002AC0F2A480D3F80D
:103990000432002BC0F29F806A4B6B4A1A6030BC25
:1039A00070476A4A6A4B12781B68082AC3F30313EC
:1039B00001D1032B7ED9664A644B12681B78C2F38F
:1039C0000312082BC4D1032AC2D84FF08052614B96
:1039D000D2F80414C3F82015D2F80814C3F824153B
:1039E000D2F80C14C3F82815D2F81014C3F82C150B
:1039F000D2F81414C3F83015D2F81814C3F83415DB
:103A0000D2F81C14C3F84015D2F82014C3F844159A
:103A1000D2F82414C3F84815D2F82814C3F84C156A
:103A2000D2F82C14C3F85015D2F83014C3F854153A
:103A3000D2F83414C3F86015D2F83814C3F86415FA
:103A4000D2F83C14C3F86815D2F84014C3F86C15CA
:103A5000D2F84424C3F870257AE79AB1032A84D8AF
:103A60004FF08043D3F80024D20744BF6FF0010227
:103A7000C3F8002479E7364A344B12681B78C2F346
:103A8000031270E7344C3549354D25603548364AC8
:103A9000FB24C1F8184501681268344C21F00F016D
:103AA00002F00F020A434FF400710260216058E7F0
:103AB000032A0DD8204B1B684FF080420021581C70
:103AC000C2F80C11C2F81011C2F838153FF473AFE8
:103AD0001A4A126875E7264B0122C3F80425D3F869
:103AE0000024002AFBD04FF0102312222049C3F8F3
:103AF0000022D1F80034002BFBD04FF0102212210D
:103B00001B4BC2F80412D3F80024002AFBD0002279
:103B10001749C3F80425D1F80034002BFBD0BFF3BC
:103B20004F8F0749134BCA6802F4E0621343CB601E
:103B3000BFF34F8F00BFFDE73001001034010010CC
:103B400000ED00E0F00000200090D003E00F00F056
:103B5000E80F00F000C000408C56004000F000402C
:103B600048810300E40E00405802001040960240D5
:103B700000E001400400FA0500B585B00023039081
:103B8000194601AA44F20100CDE9013300F004F81E
:103B900005B05DF804FB00BF72B6094B1B68DB077C
:103BA00000D500BEBFF34F8F0649074BCA6802F429
:103BB000E0621343CB60BFF34F8F00BFFDE700BF50
:103BC000F0ED00E000ED00E00400FA0572B6024AF4
:103BD0001368013313607047A81A0020034A136862
:103BE000013B136003B962B6704700BFA81A0020FA
:103BF00010B582B002A800230121064A0193064CA9
:103C000000F8041D0549126823700B70904702B03C
:103C100010BD00BFD81B0020AC1A0020DC1B002008
:103C2000704700BF00B583B00D4B0E4900228DF8E0
:103C30000420D3F82025ADF80620D3F8C0040A4AA2
:103C40000968136800280CBF4FF480704FF0012002
:103C5000034301A81360884703B05DF804FB00BF6D
:103C600000700240D81B0020B41A002010B51C4B75
:103C70001B68082B82B011D01A4B1B499A7B00207D
:103C8000032A087012D01C68BCB1184B01221A60BC
:103C9000BFF36F8FBFF34F8F02B010BD144B1B6883
:103CA000032BE9D8134B00221A60E5E76FF480314B
:103CB0001148FFF75DFD02B010BD6FF480310E4872
:103CC000FFF756FD0D4B8DF8064006228DF8074094
:103CD0001B688DF8042001A8984702B010BD00BFF2
:103CE00030010010B81A0020AD1A00204C700240BC
:103CF000340100101C7C0240B01A0020D81B0020A8
:103D000010B5224BD3F80044C3F8004482B0BFF38F
:103D10006F8FBFF34F8FBFF36F8FBFF34F8FE105EF
:103D20000BD5002302A802220193194B00F8042DA1
:103D3000184A1B68012111709847A2050AD502A8EC
:103D400000230322019300F8042D114A114912683F
:103D50000B709047630516D50E4B1A789AB10B4C31
:103D60000D48012100221A70C4F808150160BFF344
:103D70006F8FBFF34F8F064B019202A8042100F80A
:103D8000041D1B68984702B010BD00BF00700240C0
:103D9000D81B0020AC1A002058700240F0B53C4AF5
:103DA0000126136806FA01F52B431360030683B05E
:103DB000044610D4374B1B681D420AD1364B8DF890
:103DC000060006221B688DF807608DF8042001A804
:103DD000984703B0F0BD00F00F01304B33F81130BD
:103DE00003F1804303F51C331A68E2B100221A6024
:103DF000BFF36F8FBFF34F8F294B80281B682BD0E9
:103E0000082B05D1274B1B68032B9CBF264B1A6040
:103E1000264A274E0B01D0180027807B37700328D5
:103E200012D0D35883B11B4B1B681D40D1D11A4B04
:103E30008DF8064006221B688DF807508DF8042087
:103E400001A8984703B0F0BD012303FA01F1C9436B
:103E50001048FFF78DFCE6E7082B11D0154B1449ED
:103E600093F89E200020032A087003D0D3F89030E6
:103E7000002BD8D16FF001010648FFF779FCD2E79B
:103E8000084B1B68032B9CBF074B1A60E6E700BF7B
:103E9000B41A0020B01A0020D81B0020285D0000B2
:103EA00030010010340100101C7C0240481B00202F
:103EB000AD1A0020B81A0020054B187810F0800FBA
:103EC00014BF0021102100F00F031944FFF766BF53
:103ED000DC1B00202DE9F04FDFF82082DFF810B264
:103EE000D8F80030DBF80040234087B079D013F0D9
:103EF000012479D094FAA4F4B4FA84F40F2C86BF88
:103F0000A4F11007FFB244F080074FFA87FA07F0D8
:103F10000F05BAF1000F4FEA0519C0F297806B4BFD
:103F2000072D03EB090600F2A48005F59473684A97
:103F300052F823300193654B716853F80990B289A8
:103F4000019B04A8C8470121049B01FA04F4E14342
:103F50001BB1059B019A9A4260D8002849D05D4B5D
:103F60001B68082B4AD0D8F80040B368059A0C406B
:103F700013445949B360BAF1000F4FF00103C8F878
:103F800000400B70049CC0F28980072D3ED8A80029
:103F90004119890001F1804101F51C312823C1F844
:103FA0000047C1F80427034403F1804303F51C33A1
:103FB00001221A60BFF36F8FBFF34F8F474A484B00
:103FC000484913EA2A0338BF134633F8152002F193
:103FD000804202F51C3201E00B6813B91368002B14
:103FE000FAD007B0BDE8F08F93FAA3F4B4FA84F4E2
:103FF00084E7384B30601B68082BB4D13A4B1B6800
:10400000032BB0D8394B82221A60ACE73049282301
:10401000C1F8A047A800C1F8A427C4E70224B473DC
:104020003348FFF7A5FB334B8DF80F4006221B6882
:104030008DF80E708DF80C2003A89847DBF800303F
:10404000D8F8004023407FF452AFCAE72A4F07EB6D
:10405000090604A87168B28957F809309847012108
:1040600001FA04F4E14300287FF479AF47F809002E
:1040700075E7174BD3F8C0340193DB037FF55BAFD3
:1040800071683768B28904A80023B847012101FA92
:1040900004F4E14300287FF462AFAAE7072D07D9B3
:1040A0000B490423C1F8A046A800C1F8A4267AE76A
:1040B000A8004119890001F1804101F51C31042358
:1040C000C1F80046C1F804266DE700BFB81A002009
:1040D0000070024030010010AD1A00203C5D00006D
:1040E000285D000000710240340100101C7C024079
:1040F000B01A0020D81B0020481B0020B41A002052
:1041000038B5134BD3F86C44C3F86C44BFF36F8FCE
:10411000BFF34F8FA4B1012594FAA4F3B3FA83F34C
:10412000D9B20F2BA1F1100005FA03F3CCBFC0B236
:1041300041F0800024EA0304FFF730FE002CEBD1AD
:10414000044B1B7803B138BDBDE83840FFF7C2BE51
:1041500000700240AD1A002030B51B4B1B68082BC5
:1041600083B017D0194B1A4C93F85E200021032A14
:10417000217005D01D6DADB1FFF7ACFE03B030BDB1
:104180006FF400111348FFF7F3FA2378002BF3D0F4
:1041900003B030BD104B1B68032BE3D80F4B00223C
:1041A0001A60DFE76FF400110A48FFF7E1FA0C4BE1
:1041B0008DF80750062105221B688DF804108DF834
:1041C000062001A89847E0E730010010B81A002047
:1041D000AD1A0020B01A0020340100101C7C0240EF
:1041E000D81B0020174B1B68082B21D0164B1749F2
:1041F00093F88E200020032A087021D010B5D3F840
:10420000804082B00CB102B010BD6FF080711048D8
:10421000FFF7AEFA0F4B8DF80740062108221B6806
:104220008DF804108DF8062001A8984702B010BD43
:10423000094B1B68032BD9D8084B00221A60D5E71D
:10424000704700BF30010010B81A0020AD1A0020DE
:10425000B01A0020D81B0020340100101C7C024042
:1042600010B51A4B1B68082B82B026D0184B194981
:1042700093F81E210020032A087017D0D3F81041AC
:104280000CB102B010BD6FF480711348FFF770FAE3
:10429000124B8DF80740062188221B688DF8041008
:1042A0008DF8062001A8984702B010BD6FF4807108
:1042B0000948FFF75DFA02B010BD094B1B68032BDC
:1042C000D4D8084B00221A60D0E700BF300100109C
:1042D000B81A0020AD1A0020B01A0020D81B002008
:1042E000340100101C7C02400E4B1B68082B10D0C0
:1042F0000D4B0E4993F89E200020032A087003D02E
:10430000D3F8903003B170476FF001010848FFF710
:104310002FBA084B1B68032BEAD8074B00221A6000
:10432000E6E700BF30010010B81A0020AD1A0020E7
:10433000B01A0020340100101C7C02400E4B1B6898
:10434000082B10D00D4B0E4993F8AE200020032A05
:10435000087003D0D3F8A03003B170476FF00201AA
:104360000848FFF705BA084B1B68032BEAD8074B30
:1043700000221A60E6E700BF30010010B81A0020E2
:10438000AD1A0020B01A0020340100101C7C02403D
:104390000E4B1B68082B10D00D4B0E4993F80E21C5
:1043A0000020032A087003D0D3F8003103B170470E
:1043B0006FF080010848FFF7DBB9084B1B68032B3F
:1043C000EAD8074B00221A60E6E700BF3001001070
:1043D000B81A0020AD1A0020B01A002034010010D5
:1043E0001C7C02400E4B1B68082B10D00D4B0E4955
:1043F00093F8CE200020032A087003D0D3F8C030F1
:1044000003B170476FF008010848FFF7B1B9084BD6
:104410001B68032BEAD8074B00221A60E6E700BFAF
:1044200030010010B81A0020AD1A0020B01A002088
:10443000340100101C7C02400E4B1B68082B10D06E
:104440000D4B0E4993F8DE200020032A087003D09C
:10445000D3F8D03003B170476FF010010848FFF770
:1044600087B9084B1B68032BEAD8074B00221A6058
:10447000E6E700BF30010010B81A0020AD1A002096
:10448000B01A0020340100101C7C02400E4B1B6847
:10449000082B10D00D4B0E4993F8EE200020032A74
:1044A000087003D0D3F8E03003B170476FF02001FB
:1044B0000848FFF75DB9084B1B68032BEAD8074B88
:1044C00000221A60E6E700BF30010010B81A002091
:1044D000AD1A0020B01A0020340100101C7C0240EC
:1044E0000E4B1B68082B10D00D4B0E4993F8FE2085
:1044F0000020032A087003D0D3F8F03003B17047CE
:104500006FF040010848FFF733B9084B1B68032BD5
:10451000EAD8074B00221A60E6E700BF300100101E
:10452000B81A0020AD1A0020B01A00203401001083
:104530001C7C02400E4B1B68082B10D00D4B0E4903
:1045400093F8BE200020032A087003D0D3F8B030BF
:1045500003B170476FF004010848FFF709B9084B31
:104560001B68032BEAD8074B00221A60E6E700BF5E
:1045700030010010B81A0020AD1A0020B01A002037
:10458000340100101C7C024030B51B4B1B68082B0B
:1045900083B017D0194B1A4C93F86E200021032AD0
:1045A000217005D01D6EADB1FFF794FC03B030BD96
:1045B0006FF480011348FFF7DBF82378002BF3D06A
:1045C00003B030BD104B1B68032BE3D80F4B002208
:1045D0001A60DFE76FF480010A48FFF7C9F80C4A58
:1045E0008DF80750062312688DF804308DF80630D8
:1045F00001A89047E1E700BF30010010B81A002081
:10460000AD1A0020B01A0020340100101C7C0240BA
:10461000D81B002030B51B4B1B68082B83B017D06C
:10462000194B1A4C93F87E200021032A217005D0E3
:104630001D6FADB1FFF74EFC03B030BD6FF400014C
:104640001348FFF795F82378002BF3D003B030BD63
:10465000104B1B68032BE3D80F4B00221A60DFE7D7
:104660006FF400010A48FFF783F80C4B8DF80750F0
:10467000062107221B688DF804108DF8062001A87A
:104680009847E0E730010010B81A0020AD1A00206A
:10469000B01A0020340100101C7C0240D81B0020FE
:1046A00030B51B4B1B68082B83B016D0194B1A4C26
:1046B0009A7F0021032A217005D01D69ADB1FFF753
:1046C00009FC03B030BD6FF400311448FFF750F817
:1046D0002378002BF3D003B030BD114B1B68032BA4
:1046E000E4D8104B00221A60E0E76FF400310B4869
:1046F000FFF73EF80C4B8DF80750062101221B688E
:104700008DF804108DF8062001A89847E0E700BF57
:1047100030010010B81A0020AD1A0020B01A002095
:10472000340100101C7C0240D81B002030B51B4B0C
:104730001B68082B83B017D0194B1A4C93F82E2006
:104740000021032A217005D01D6AADB1FFF7C2FB1D
:1047500003B030BD6FF480211348FFF709F82378C8
:10476000002BF3D003B030BD104B1B68032BE3D8F4
:104770000F4B00221A60DFE76FF480210A48FEF732
:10478000F7FF0C4B8DF80750062102221B688DF8AD
:1047900004108DF8062001A89847E0E730010010CA
:1047A000B81A0020AD1A0020B01A00203401001001
:1047B0001C7C0240D81B002030B51B4B1B68082B0B
:1047C00083B017D0194B1A4C93F83E200021032ACE
:1047D000217005D01D6BADB1FFF77CFB03B030BD80
:1047E0006FF400211348FEF7C3FF2378002BF3D0AA
:1047F00003B030BD104B1B68032BE3D80F4B0022D6
:104800001A60DFE76FF400210A48FEF7B1FF0C4B96
:104810008DF80750062103221B688DF804108DF8CF
:10482000062001A89847E0E730010010B81A0020E0
:10483000AD1A0020B01A0020340100101C7C024088
:10484000D81B002030B51C4B1B68082B83B017D039
:104850001A4B1B4C93F84E200021032A217005D0DF
:104860001D6CADB1FFF736FB03B030BD6FF48011A6
:104870001448FEF77DFF2378002BF3D003B030BD42
:10488000114B1B68032BE3D8104B00221A60DFE7A3
:104890006FF480110B48FEF76BFF0D4B8DF807503E
:1048A000042206211B688DF804108DF806200DEBFC
:1048B00002009847DFE700BF30010010B81A00205F
:1048C000AD1A0020B01A0020340100101C7C0240F8
:1048D000D81B002038B504460020FFF777F9104DAB
:1048E00014F0800F14BF0022102204F00F00811872
:1048F0002B6801228A4023EA020307282B6009D88B
:1049000000F59470074B002243F82020BFF36F8F0F
:10491000BFF34F8F0020BDE83840FFF75FB900BFFD
:10492000B41A0020007002402DE9F04F5B4CDFF814
:1049300078A12368DFF88491DAF8002099F80070F4
:104940005749DB439BB213433A0683B007F00F0885
:10495000D1F880543ED408F110020126964033422B
:1049600019D1504E01AF05F080056FF001114E488E
:1049700089F80050FEF7FCFE236832680521002507
:1049800043F00103019538468DF8041023609047E9
:1049900003B0BDE8F08F0020FFF718F9DAF8003017
:1049A00042494FEA081836EA030001EB080B5DD1D3
:1049B000226841F80800F64333403240CAF800301C
:1049C00022600323374E8BF80E3001AF0020FFF733
:1049D00005F9C8E74FF0010B0BFA08FB13EA0B0FC0
:1049E000BFD00020FFF7F2F8314A4FEA0811B8F1C2
:1049F000070F02EB010014D8802F3BD0DFF8B8C0BE
:104A00002C4E08F2DA384FEA4803CCF8003033680D
:104A1000D6F800C0DBB243F0020343EA0C03336074
:104A200033682368DAF800C06CEA030616EA0B0F55
:104A300031D01C4E8DF806702CEA0B074FF00008A1
:104A40004FF0030CCAF800704FF0060E01AF42F8A9
:104A5000018043EA0B0380F80EC032688DF807C06E
:104A60008DF804E0384623609047AFE73846FFF7FB
:104A700031FFA6E7104B0F4E40F2B47CC3F800C0E4
:104A80003368D6F800C0DBB243F0040343EA0C03FA
:104A900033603368C5E701AF024E97E7B41A0020D0
:104AA00000700240D81B0020B01A0020B81A002065
:104AB000481B00200478024000780240DC1B0020E4
:104AC000224BD3F80413002939D02DE9F0410025F9
:104AD0002F46012691FAA1F31D4AB3FA83F39800F9
:104AE000024406FA03F014682CB11760BFF36F8F0D
:104AF000BFF34F8F05438143ECD105F4000735F434
:104B000000050DD0DFF85080012695FAA5F4B4FA1F
:104B100084F458F8243006FA04F49847A543F4D1F5
:104B20000C4B1B7833B10FB9BDE8F081BDE8F04103
:104B3000FFF7FABEFFF7CEF9002FF5D0F6E7054BE9
:104B40001B7803B17047FFF7C5B900BF0070024082
:104B500000710240AD1A0020505D000010B50446FF
:104B6000006830B1002100F05BFA54F8040F00280F
:104B7000F8D110BDF0B5038883B005465BB14A2B70
:104B800004D188291BD0012003B0F0BD002303808D
:104B9000032003B0F0BD194800F02EFB044630B1ED
:104BA000A168201D00F068F92468002CF8D1144B8E
:104BB00001221A704A2301202B8003B0F0BD0F4858
:104BC000019200F019FB04460028F3D0019A031D5E
:104BD0009A4205D02468231D002CEBD09A42F9D1CB
:104BE00021460648074E00F031FBD4E9052337681B
:104BF00032600BB1E06998473760DBE7E01B0020CB
:104C0000E41B0020741D002010B5064B064800244C
:104C10001C7000F0EDFA21460448BDE8104000F099
:104C2000FFB900BFE41B0020E01B0020F4000020BF
:104C300070B50E4C049E257846610446C0E90623F3
:104C400035B9A1600A482146BDE8704000F0D6BAE7
:104C5000084D094B2E682B60043000F00DF92E60D2
:104C600021460348BDE8704000F0C8BAE41B0020AC
:104C7000E01B0020741D0020F400002010B5044C3F
:104C800082B024680094FFF7D3FF02B010BD00BFCC
:104C9000741D002070B5094B1B7804463BB1084DCC
:104CA000084B2E682B60043000F0F0F82E6021468F
:104CB0000548BDE8704000F0A1BA00BFE41B002029
:104CC000741D0020F4000020E01B002010B50A4BEA
:104CD0001B7804463BB9C0E9033321460748BDE8C9
:104CE000104000F0B3BA043000F0E8F82146034861
:104CF000BDE8104000F0AABAE41B0020E01B002031
:104D000010B5FCF74FF80B4B1B68D3E900149A68F9
:104D10002144091A4AB1D2E9003423441B1A92688B
:104D2000994228BF1946002AF5D1034B0844186060
:104D300010BD00BFEC1B0020E81B00202DE9F8434C
:104D40000388054673B3592B27D1872930D0822990
:104D50001ED12E4FDFF8BC803C684FF00009BCB17B
:104D6000002603E0A368264693B11C46204600F0C7
:104D700031FA0028F6D022468821E06800F0EEF9EA
:104D800030B3404600F00AFAA3682646002BECD167
:104D900059232B800120BDE8F883002303800320E2
:104DA000BDE8F883194A136059232B800120F2E7EC
:104DB000164F39680029EBD0CB689A4203D014E033
:104DC000CB68934210D189680029F9D13960DFE7B7
:104DD000E060A368BEB1B3603B68C4F808907BB1E3
:104DE000FFF78EFF3C68BAE739608B68002BCFD0A5
:104DF000D3E90204944214BF194688600346F5E7DC
:104E0000034A1360C4E73B60E7E700BFEC1B0020E8
:104E1000E81B00200001002010B50446104800F0F7
:104E2000BDF91049E3680A684BB142B194420FD012
:104E3000134601E09C420BD09B68002BFAD10A4B31
:104E4000A2601B68E3600C60BDE81040FFF758BF2C
:104E5000054B1B68E360BDE81040FFF751BF00BF82
:104E600000010020EC1B0020741D0020014800F010
:104E700095B900BF0001002010B5044600F09CF970
:104E80002046BDE81040FFF7C7BF00BF10B504467D
:104E900000F09AF92046BDE81040FFF7BDBF00BF03
:104EA000C068B0FA80F04009704700BF024B186834
:104EB000003018BF01207047EC1B002010B5114BCB
:104EC0001A688242044613D072B19368984208BFB0
:104ED000134605D043B19A68A24201D01346F9E7C0
:104EE000A2689A60FFF70CFF0023C4E9023310BDEB
:104EF00082681A60002AF5D1034B1A600023C4E9C6
:104F0000023310BDEC1B0020E81B00202DE9F84304
:104F1000254F3D68854208D0002D3BD02B4601E04F
:104F2000002B37D01B689842FAD1002832D01F4E90
:104F3000837AD6F8008089460446E3B10023837261
:104F400075B1AC4209D0AB7A13F0010F2846224666
:104F50004FF0870101D000F02BF82D68002DF0D123
:104F600063683BB14C4505D034600022832104F1D5
:104F7000080098473D68A54212D04DB12B68A34266
:104F80000AD02BB11A68A24207D01346002BF9D1E0
:104F9000C6F80080BDE8F8832B4622681A60F7E760
:104FA0002B683B60F4E700BF781D0020741D0020D3
:104FB00070B546687EB104460A4802230460A372B5
:104FC00004F108000D46B0470238012804D9832DAA
:104FD00002D00123A37270BD21462046BDE8704077
:104FE000FFF794BF741D002038B50B4A0B4B1468B3
:104FF00000221A707CB1012501E024685CB1E37ADB
:10500000002BFAD06581204600228221FFF7D0FFD5
:105010002468002CF3D138BD781D0020731D0020BA
:1050200070B50E4D2C68844206D034B1234600E0A2
:105030001BB11B689842FBD170BD0028FCD0084E04
:1050400004600A46002301218172346803818121B2
:105050002860FFF7ADFF346070BD00BF781D0020F1
:10506000741D0020014B1968FFF750BF741D00200C
:1050700030B4074B07480849084A094C8A251D7077
:10508000002303700B601360237030BC704700BFB7
:10509000711D0020721D0020781D0020741D00204D
:1050A000701D00202DE9F041224D2B780BB1FFF748
:1050B0009BFF214E3378BBB12048214F027802EB91
:1050C000420189007C18013202F01F02013B02708C
:1050D000A0687F5CD4F80480DBB2337040B1812FCC
:1050E0001DD0827AD2071CD428781844BDE8F081FC
:1050F000144A14682CB9F7E7A37AD90709D42468AD
:105100009CB12B78002BF7D0FFF76EFFA37AD9075D
:10511000F5D5424639462046FFF74AFFEFE701231F
:10512000837242463946FFF743FF337828781844A4
:10513000BDE8F081731D0020721D0020701D00204D
:10514000F01B0020781D0020024A034B10781B78CA
:1051500018447047721D0020731D002070B40C4D60
:105160002C78202C11D00B4B0B4E1B78234403F0D2
:105170001F0303EB43039B0001342C70F418C4E9B4
:105180000120F154002070BC7047012070BC7047B2
:10519000721D0020701D0020F01B002018B1837AC2
:1051A000013B012B00D97047024A01231370C372DF
:1051B000704700BF731D002010B541600446FBF727
:1051C000F1FD206010BD00BF10B50446FBF7EAFDFD
:1051D000206010BD10B50446FBF7E4FDD4E90032B1
:1051E000C3F10103184482422CBF0020012010BDEE
:1051F00000230360704700BF0068704710B4046864
:105200005CB1A1421ED023680BB906E01346994257
:1052100014D01A681C46002AF8D100230B600268DB
:105220000AB907E01A461368002BFBD111605DF83C
:10523000044B704701605DF8044B70470B6814B174
:105240002360EAE70B680360E7E700BF10B4046877
:105250005CB18C4213D023680BB906E013468B4235
:105260001A6805D01C46002AF8D15DF8044B704737
:105270003CB1226000221A605DF8044B704722683E
:1052800023460260F6E700BF00F0BAB953B94AB945
:10529000002908BF00281CBF4FF0FF314FF0FF303E
:1052A00000F072B9ADF1080C6DE904CE00F006F81B
:1052B000DDF804E0DDE9022304B070472DE9F04792
:1052C000089E04468846002B4BD18A42154667D972
:1052D000B2FA82F24AB1C2F1200701FA02F320FACF
:1052E00007F7954047EA030894404FEA154E230C10
:1052F000B8FBFEF71FFA85FC0EFB178843EA08434C
:1053000007FB0CF1994209D9EB1807F1FF3080F047
:105310001B81994240F21881023F2B445B1AA4B2D0
:10532000B3FBFEF00EFB103344EA034400FB0CFC1D
:10533000A44509D92C1900F1FF3380F00781A44559
:1053400040F2048102382C4440EA0740A4EB0C04EC
:1053500000271EB1D4400023C6E900433946BDE80A
:10536000F0878B4209D9002E00F0EB800027C6E9B8
:10537000000138463946BDE8F087B3FA83F7002FBD
:1053800047D18B4202D3824200F2FA80841A61EB49
:10539000030301209846002EE0D0C6E90048DDE76F
:1053A00002B9FFDEB2FA82F2002A40F08F80491B78
:1053B0004FEA154E1FFA85F80127B1FBFEFC230CBE
:1053C0000EFB1C1143EA014308FB0CF1994207D97B
:1053D000EB180CF1FF3002D2994200F2CD808446E6
:1053E000591AA3B2B1FBFEF00EFB101443EA0444B9
:1053F00008FB00F8A04507D92C1900F1FF3302D2B1
:10540000A04500F2B6801846A4EB080440EA0C4020
:105410009FE7C7F1200CBB4022FA0CFE4EEA030EB8
:1054200001FA07F420FA0CF521FA0CF34FEA1E48B2
:105430002543B3FBF8F92C0C08FB19331FFA8EFA3D
:1054400044EA034309FB0AF49C4202FA07F200FA19
:1054500007F10BD91EEB030309F1FF3080F08780C1
:105460009C4240F28480A9F1020973441B1BADB237
:10547000B3FBF8F008FB103345EA034400FB0AFADB
:10548000A24508D91EEB040400F1FF336BD2A245FC
:1054900069D90238744440EA0940A0FB0289A4EBB0
:1054A0000A044C45C2464B4654D351D0002E69D015
:1054B000B1EB0A0564EB030404FA0CFCFD40FC406C
:1054C0004CEA0505C6E90054002747E7C2F120036E
:1054D00020FA03F7954001FA02F021FA03F34FEAAC
:1054E000154E3843010CB3FBFEF71FFA85F80EFB8F
:1054F000173341EA034107FB08F38B4204FA02F435
:1055000007D9691807F1FF3C2FD28B422DD9023FF2
:105510002944CB1A81B2B3FBFEF00EFB103341EAF3
:10552000034100FB08F38B4207D9691800F1FF3CE7
:1055300017D28B4215D902382944C91A40EA0747C5
:105540003BE73746304609E70746E7E61846FBE6FD
:105550004145ABD2B8EB020A69EB0E0201381346A3
:10556000A4E76046E9E7184695E76746D1E7814634
:105570007CE702382C4447E7ACF1020C2B442FE7C0
:10558000384608E73746E9E6704700BF044B054A4E
:105590001B681B6A002B08BF1346D3F8EC0070474A
:1055A000100000200C01002082B001B901A942B115
:1055B0004BB113780B601278101C18BF012002B099
:1055C00070471046FBE76FF00100F8E730B50024A4
:1055D000A24201D1002007E0035D01340D1915F846
:1055E000015CAB42F4D0581B30BD10B5431E0A44D9
:1055F000914200D110BD11F8014B03F8014FF7E7BC
:1056000038B50D4B1C68A36B05467BB9182000F01C
:1056100071F80A4A0A4BA063C0E90023094B836072
:105620000B23838101220023C0E90423A36B002202
:105630001D615A6138BD00BF100000200E33CDAB94
:1056400034126DE6ECDE050010F8012B11F8013B79
:10565000012A28BF9A42F7D0D01A7047034611F8A2
:10566000012B03F8012B002AF9D17047034613F8E8
:10567000012B002AFBD1181A0138704770B5013987
:10568000044602B970BD234611F8015F03F8015BBF
:10569000561E2DB91444A342F4D003F8015BFAE777
:1056A0001C463246EDE7F0B503787BB1044623781B
:1056B0002046661C7BB14A1E631E12F8015F4DB185
:1056C00013F8017FAF423446F7D0F0E70B78002B98
:1056D00018BF0020F0BD1846FCE749B1FF2A85BF7E
:1056E0008A2303600A704FF0FF3098BF0120704793
:1056F00008467047024B0146186800F003B800BF27
:105700001000002070B5CD1C25F0030508350C2DC8
:1057100038BF0C25002D064601DBA94203D90C2316
:105720003360002070BD00F057F8214A146821460C
:1057300091B9204C23681BB9304600F03DF8206039
:105740002946304600F038F8431C24D10C2333603E
:10575000304600F042F8E4E70B685B1B18D40B2BD3
:105760000FD90B60CD50CC18304600F036F804F15C
:105770000B00231D20F00700C31AD3D05A42E25079
:10578000D0E78C424B6816BF636013600C46EBE7B2
:105790000C464968CCE7C41C24F00304A04205D0A1
:1057A000211A304600F008F80130CFD02560DBE741
:1057B0007C1D0020801D002038B5064C00230546C6
:1057C0000846236000F00AF8431C02D1236803B1A5
:1057D0002B6038BD341E002070477047044A0549CD
:1057E0001368002B08BF0B4618441060184670471A
:1057F000841D0020381E0020F8B500BFF8BC08BC8E
:105800009E467047F8B500BFF8BC08BC9E4670477E
:105810001400002074000020000000000000FF00C1
:10582000FF00000000800000564552005645520A15
:105830000000000020636269643D000020686F730F
:10584000745F66773D0000005465726D696E616C2F
:105850000000000052545400534547474552000091
:10586000D10A0000B90A0000450A0000150A00002C
:1058700065090000210A000001000000401F00002F
:1058800002000000070006000100000000100140B7
:1058900011000400B9130000A1130000C90E00009C
:1058A00061110000990E0000D5100000C919000018
:1058B000B1190000D914000071170000A9140000EC
:1058C000E51600000010024001001A01000201006C
:1058D0001E000000DC190020234D53472068657826
:1058E0003D000000444655206865783D00000000FA
:1058F00023444655206865783D0000004D534720FD
:105900006865783D0000000046495300DF01000053
:10591000BECE01003031323334353637383941426A
:105920004344454600000000963007772C610EEE98
:10593000BA51099919C46D078FF46A7035A563E9E6
:10594000A395649E3288DB0EA4B8DC791EE9D5E00D
:1059500088D9D2972B4CB609BD7CB17E072DB8E70C
:10596000911DBF906410B71DF220B06A4871B9F361
:10597000DE41BE847DD4DA1AEBE4DD6D51B5D4F49A
:10598000C785D38356986C13C0A86B647AF962FDFF
:10599000ECC9658A4F5C0114D96C0663633D0FFA4C
:1059A000F50D088DC8206E3B5E10694CE44160D552
:1059B000727167A2D1E4033C47D4044BFD850DD23C
:1059C0006BB50AA5FAA8B5356C98B242D6C9BBDB4F
:1059D00040F9BCACE36CD832755CDF45CF0DD6DC4A
:1059E000593DD1ABAC30D9263A00DE518051D7C8F1
:1059F0001661D0BFB5F4B42123C4B3569995BACF7C
:105A00000FA5BDB89EB802280888055FB2D90CC69C
:105A100024E90BB1877C6F2F114C6858AB1D61C115
:105A20003D2D66B69041DC760671DB01BC20D29834
:105A30002A10D5EF8985B1711FB5B606A5E4BF9FC1
:105A400033D4B8E8A2C9077834F9000F8EA80996B4
:105A500018980EE1BB0D6A7F2D3D6D08976C64911F
:105A6000015C63E6F4516B6B62616C1CD830658538
:105A70004E0062F2ED95066C7BA5011BC1F4088215
:105A800057C40FF5C6D9B06550E9B712EAB8BE8B56
:105A90007C88B9FCDF1DDD62492DDA15F37CD38CDF
:105AA000654CD4FB5861B24DCE51B53A7400BCA3DD
:105AB000E230BBD441A5DF4AD795D83D6DC4D1A40F
:105AC000FBF4D6D36AE96943FCD96E34468867ADE6
:105AD000D0B860DA732D0444E51D03335F4C0AAA85
