:04000003000031E5E3
:1000000000000420E53100000D3200000F32000036
:100010001132000013320000153200000000000011
:100020000000000000000000000000001732000087
:1000300019320000000000001B3200001D320000D9
:10004000853600001F320000D91300001F32000067
:100050001F3200001F3200001F3200001F3200005C
:100060001F3200001F3200001F3200001F3200004C
:100070001F3200001F3200001F3200001F3200003C
:10008000113400005D3300001F3200001F320000F9
:100090001F3200001F3200001F3200001F3200001C
:1000A0001F3200001F3200001F3200001F3200000C
:1000B0001F3200001F32000000000000000000009E
:1000C0001F3200001F3200001F3200001F320000EC
:1000D0001F3200001F3200001F3200007953000061
:1000E000D91400001F3200001F3200000000000081
:1000F000000000001F320000000000001F3200005E
:1001000000000000000000000000000000000000EF
:1001100000000000000000000000000000000000DF
:1001200000000000000000000000000000000000CF
:1001300000000000000000000000000000000000BF
:1001400000000000000000000000000000000000AF
:10015000000000000000000000000000000000009F
:10016000000000000000000000000000000000008F
:10017000000000000000000000000000000000007F
:10018000000000000000000000000000000000006F
:10019000000000000000000000000000000000005F
:1001A000000000000000000000000000000000004F
:1001B000000000000000000000000000000000003F
:1001C000000000000000000000000000000000002F
:1001D000000000000000000000000000000000001F
:1001E000000000000000000000000000000000000F
:1001F00000000000000000000000000000000000FF
:1002000010B5054C237833B9044B13B10448AFF350
:1002100000800123237010BD980200200000000020
:1002200014A0000008B5034B1BB103490348AFF30A
:10023000008008BD000000009C02002014A0000007
:10024000154B002B08BF134B9D46A3F5803A0021A8
:100250008B460F461348144A121A00F063F80F4BEE
:10026000002B00D098470E4B002B00D09847002061
:10027000002104000D000D48002802D00C48AFF307
:10028000008000F02BF82000290000F0FFF900F0BA
:1002900011F800BF0000080000000420000000006A
:1002A00000000000980200209829002000000000B3
:1002B0000000000008B5074B044613B10021AFF35E
:1002C0000080054B1868836A03B19847204600F008
:1002D00031F800BF000000006497000070B50D4EBB
:1002E0000D4CA41BA4100025A54209D10B4E0C4CAB
:1002F00009F02CFAA41BA4100025A54205D170BD5D
:1003000056F8253098470135EEE756F825309847DE
:100310000135F2E7900200209002002090020020B8
:100320009402002002440346934200D1704703F830
:10033000011BF9E7FEE700BF002001F03FBF00BF4F
:1003400070B582B0044608F093FD16490546204674
:1003500008F0ABFD60B1031BEB1A092B08DD124B53
:10036000DA78997B82711A785B7BC1710272437271
:100370000E4E29462046F568A84700F00BFC0921DF
:1003800000F11C040A48A847204608F071FD014608
:100390002046A847736901930A2002B0BDE8704067
:1003A000184700BF88970000A89800003C980000FC
:1003B000909700002DE9F04180460C46012542F25D
:1003C000014600270DE00D2801D8334213D1D4E9AE
:1003D0000132934203F101022BBF236862601F7058
:1003E0001870D8F800309847421C05FA00F3EAD19B
:1003F0000020BDE8F081636800221A700120BDE88A
:10040000F08100BF70B5184C18482146FFF7D2FFA5
:1004100000B970BDD4E90001154D164B091A2A46E2
:1004200002F0D4FD50B114481449154A00230625A2
:1004300005600B6013602368636070BD114920681C
:1004400008F004FD06460028F5D1EB680E480421AB
:1004500098470A480D49084A094B06600820086079
:10046000062111601E60E6E7C00000204C980000E5
:10047000E89700003C980000B4020020C002002071
:10048000C40200207C97000080970000F006002046
:1004900070B5164C16482146FFF78CFF00B970BDA9
:1004A000D4E90001134B144A091A02F025FD28B9BA
:1004B000124D20682B685BB9606070BD104B11490C
:1004C000114A206806251D6000230B601360F3E7C6
:1004D00005220E4908F02EFC06462068002EEBD1BE
:1004E000FFF72EFF20682E60E6E700BFB400002073
:1004F000F89700003C980000E8970000F006002004
:10050000B4020020C0020020C402002080000020AD
:1005100070B5038882B004466BB1CE2B06D1882912
:1005200032D0CE230120238002B070BD002303808F
:10053000032002B070BD4FF0A043444E44493268DE
:1005400003254FF00070C3F80805C3F86457284628
:100550009047404B40491B682846984710213F4828
:1005600008F038F83E4802F017F9304602F086FCF1
:1005700002F07EFC0028D4D03A493B4B30204FF4A7
:10058000047208601A60CCE7344B9A42C9D1104615
:10059000019208F033F8019A0028C2D0104608F002
:1005A00023F8324A136813B1013B13601BB32E4A80
:1005B000106810B10138106040B32A4D2B6873B138
:1005C0002B4AD2F81025920619D4013B13F0010FE3
:1005D00028482B6008BF002001F0F0FDA1E7264D60
:1005E000264A2968106819B1012821D9136098E7B3
:1005F00088B1431EFAE72248FFF7A2FED7E70020A2
:1006000001F0DCFD00F038FC2B68DEE701F0D6FDE0
:1006100000F032FCD1E7072313601A4A1368012B5C
:100620000DD9002313604FF47F0001F0C7FD78E778
:100630000028DBD10139072329601360EDE701337E
:100640001149136051F82300EFE700BFE89700005D
:10065000910400003C98000005040000D404002030
:1006600039030000C0020020C4020020F006002070
:1006700000030050FF80FF00B4020020BC020020F5
:1006800080000020B80200207097000010B502F032
:10069000B7FB00F097FB094807F00EFE08F0B0F832
:1006A000044600F06BFA002CF8D172B608F0FAF8A4
:1006B00010B9BFF34F8F30BF62B6EFE76897000005
:1006C0002DE9F041D0E902470546E41B4068944219
:1006D000164638440DD8161B8846224608F039FBCA
:1006E00008EB04013246686808F033FBEE60BDE8B1
:1006F000F0813E4408F02DFBEE60BDE8F08100BFC4
:100700002DE9F8438846D0E90215064617464FF012
:100710000009336970689D4203F1FF3426BF03F17D
:10072000FF335B18631BA1EB050428BF5B1BBC42B6
:1007300028BF3C469C4228BF1C46414628442246CE
:1007400008F007FBB1682544A94208BF00253F1BFC
:10075000A144A044F560DCD14846BDE8F88300BF61
:1007600038B5114C114BE3614FF40063104823621C
:10077000102500230F4AA3620F496066A5666362D5
:100780002367E366E01D01230325E3626367A2613B
:100790002266C4E9045508F063FB2046074908F0C7
:1007A0005FFB2023A37138BD002800200407002030
:1007B000F40600209C970000A8970000AC9700006A
:1007C0002DE9F04FDFF8A89099F8003083B080460B
:1007D0008B469246002B47D04FEA480707EB0806A6
:1007E00009EBC606356FF36E9D421FD85C1B54455E
:1007F00028BF54461CB9204603B0BDE8F08F002640
:1008000007EB080309EBC3032246596E58462944F7
:1008100008F09FFA25443444002CECD0474409EBFF
:10082000C70720463D6703B0BDE8F08FD6E919142D
:10083000641B544528BF5446224629445846019318
:1008400008F087FAB26E019B2544AA42AAEB040A7B
:1008500014BF5B1B0025534528BF5346002BDBD03C
:10086000A34426461C46CBE7FFF77AFFB4E700BF58
:100870000028002010B50B46EFF311844FF0200143
:1008800081F311881946FFF79BFF84F3118810BD8F
:1008900070B5204D00EB400305EBC3030130DC6A6B
:1008A00000EB4000012C05EBC0000E46154617D0AA
:1008B00008D3022C02D00024204670BDBDE8704051
:1008C000FFF71EBF9A6A596A8A421DD9013A521A25
:1008D0009542F1D831462A46FFF7F2FE2C46EBE767
:1008E0009A6A5C6AA2420AD9013A141BAC4228BF38
:1008F0002C4631462246FFF7E3FE204670BD1B6AB8
:100900001344013B1C1BF1E71B6A1344013B5A1AB9
:10091000DEE700BF0028002030B50C4B1B7883B009
:100920000D462BB9CDE90002FFF71AFFDDE9000201
:10093000EFF311844FF0200181F311882946FFF76E
:10094000A7FF84F3118803B030BD00BF002800204A
:10095000044B00EB400003EBC003D86E1B6FC01AC2
:10096000704700BF002800200C4BDA6E1B6F9A42C4
:1009700011D000B583B001220DF107010020FFF76F
:1009800079FF012804D19DF8070003B05DF804FB4E
:100990004FF0FF30F9E74FF0FF307047002800209C
:1009A0002DE9F0410A460D46074601460020FFF7B3
:1009B000B3FF8542044610D8164E4CB93368012B5C
:1009C00001DC013333602046BDE8F081002CFAD011
:1009D000002333602046BDE8F08100F0EBF900F51C
:1009E00000600C4E1FFA80F808E03368012BEDDC44
:1009F00000F0E0F9A0EB08000304DED52A1B39194A
:100A00000020FFF789FF0444A542EED8002CD5D082
:100A1000DEE700BF480F002009B908467047FFF71E
:100A2000BFBF00BF00B583B002AB012103F8010DC9
:100A30001846FFF7B5FFA0F10100B0FA80F04009B9
:100A400003B05DF804FB00BF38B5054600200C4636
:100A5000FFF77EFFA04228BF204600B938BD2246DE
:100A600029460020BDE83840FFF704BF10B50F4805
:100A700002F08EFB03280BD8DFE800F0020B020B1C
:100A80000B4C237823B10B4807F0CEFC00232370D6
:100A900010BD07490B78002BFAD101240C70064ACF
:100AA00004481921BDE8104007F096BC280F00202B
:100AB000040F0020080F0020F10A000008B50146CD
:100AC000034802F053FBBDE80840FFF7CFBF00BF6B
:100AD000280F002010B50A460146044802F032FBF8
:100AE000044608B1FFF7C2FF204610BD280F0020C2
:100AF00008B50B4B1B788BB10A4BDA6E1B6F9A4211
:100B000004D10948BDE8084007F072BC074802F06C
:100B100059FB0548BDE8084007F06ABC08BD00BFA6
:100B2000040F002000280020080F0020280F0020BC
:100B3000704700BF08B50949094802F07DFC48B973
:100B4000084802F0B3FC08B103F0A0F8064B0122FC
:100B50001A7008BD03F09AF8F2E700BF310B0000ED
:100B6000CC9700004C0F00204D0F0020024B1B784B
:100B700003B9704702F08CBC4D0F0020034B1B786B
:100B800003B97047024B187802F0B4BC4D0F002037
:100B90004C0F0020034B186818B90348034A10444F
:100BA00018607047500F0020F0A20000B8FFFFFF50
:100BB000F8B5294B294DD3F804452B68284A294F0D
:100BC00016682949DFF8B8C0E31A23F07F43C3EB66
:100BD000431003EB80003044106010681668C6F3C1
:100BE000080616603E68400A06443E600F681F4EC5
:100BF000384408600A680F68ACFB020292094FF49F
:100C00007A7000FB1270086031681948194F0A4465
:100C10003260026818491344036002683B6803EBC2
:100C200012133B60036803F00F0303602246103287
:100C30000A40131B23F07F43012BF8D90123002125
:100C40000E482C6002F03CFB07F0DEFC00B9F8BD5A
:100C5000BDE8F84007F0B8BC00100140580F002074
:100C6000680F0020640F0020700F00206C0F002020
:100C7000600F00205C0F0020F0FFFF00E0970000F5
:100C8000D34D621000B1704710B50446FFF790FFD6
:100C9000014B1C7010BD00BF740F002070B5002305
:100CA0000E4E0F4D3370184602F05AFED5F804452B
:100CB0002834A4B204E0D5F804351B1B1B0405D569
:100CC00002F090FE0028F6D001233370044BBDE8FB
:100CD0007040D3F8043502F071BE00BF540F0020FD
:100CE0000010014070B52348234E244D244C254963
:100CF000254A002382B033602B60236003600B60C1
:100D0000136002F0D7FD002830D102F0E7FC00208C
:100D100002F0F0FD02F01CFE0028FBD01B4B1C4C27
:100D20001C4A93E8030000230090ADF804101A4811
:100D30002370694602F074FA08B102F0A7FF174C5D
:100D40001749184A144801232360D1F8041511608B
:100D50001268103222F07F42002102F0B1FA0E48F0
:100D600002F0A2FAFFF79AFF02B070BD02F08EFF08
:100D7000CBE700BF640F0020600F00205C0F002055
:100D8000680F0020700F00206C0F0020D897000023
:100D9000740F0020850C0000E0970000081001404F
:100DA00000100140580F0020014B1868704700BF29
:100DB0005C0F0020024BD3F8040580B2704700BFDF
:100DC00000100140164B012210B5C3F8402500F079
:100DD0009DFE00F02DF800F0ABFF124AD2F88830EB
:100DE00043F47003C2F88830BFF34F8FBFF36F8FA7
:100DF000FFF778FFFFF79EFE07F0E8FC00210A48A6
:100E000007F0BCFC07F0AEFAFFF7B0FE002007F0D9
:100E1000EFFD064B00211B680220BDE8104018477B
:100E200000E0014000ED00E018010020B497000050
:100E30004FF080434FF0FF31D3F80024C3F8001483
:100E40000C490B784AB943F0010362F3410362F3A2
:100E5000820362F3C3030B707047500803F0FE0374
:100E600060F34103900860F3820362F3C3030B70E5
:100E7000704700BF780F0020BFF34F8F0549064B26
:100E8000CA6802F4E0621343CB60BFF34F8F00BF28
:100E9000FDE700BF00ED00E00400FA05084A094B39
:100EA00011681B68994208D011681368064801331D
:100EB000C3F30803405C136070474FF0FF30704786
:100EC0007C110020801100207C0F00202DE9F843C8
:100ED000224B234D1F682B682C68BB420E461DD940
:100EE000C4F50074A1422AD92968DFF87890224617
:100EF0004944804607F02DFF00232B605FB1361B6D
:100F0000B74228BF3746494608EB04003A4607F087
:100F100020FF2F603C442046BDE8F8833C1BFAD0FC
:100F20002B681049B44228BF34462246194407F0C2
:100F300010FF2B6823442B602046BDE8F8832B6804
:100F400008493246194407F004FF2B683344C3F3C1
:100F5000080334462B602046BDE8F883801100204A
:100F60007C1100207C0F002010B5038804461BB1C3
:100F7000B42B05D1822907D0B4232380012010BDD2
:100F800000230380032010BD014802F01BF9F3E7A2
:100F90009015002030B40B490B4B0C4A0425C1F8C6
:100FA000805000244FF0FF300221C3F80045C3F801
:100FB0000C05C3F81405C2F82C17C2F8341730BC5E
:100FC000704700BF00E100E0002000400003005037
:100FD000144A137803B310B4134B144900244FF48C
:100FE00080701470C3F808030A784AB10122DA60ED
:100FF00002E0D3F820211AB9D3F85821002AF8D0FA
:101000000B4B1B7801220A701BB9074BD3F8003534
:101010001BB95DF8044B704770475DF8044BFFF750
:10102000B9BF00BFB1150020002000408C15002082
:10103000B015002070B41249124B134A0320C1F8B6
:101040002C074FF4006500202B242D26C1F80855ED
:10105000C3F80C454FF0EB75C1F83407C024C3F852
:1010600014650421C3F86C050820C3F8245582F8E0
:101070000243C2F880111160C3F8000570BC7047CC
:10108000000300500020004000E100E008B50D4BD7
:101090000D4918680D4A08600D4B01211170D3F8F5
:1010A000003563B10A4B0B4800224FF48071027087
:1010B000C3F82021C3F85821C3F8041308BDFFF773
:1010C000B9FFEFE78815002084150020B115002036
:1010D000002000408C15002070B41D4A1D49136883
:1010E0000C680133C3F309039C422AD015681A4CDB
:1010F00060551A4D13602B7803F0FF00FBB90868A8
:101100001368984220D008681368984234BF136867
:101110000B68134A38BF1B1A4FF6FF7128BFC3F57F
:1011200080634FF6FE760444B34288BF0B4601212C
:10113000C2F844450846C2F848352970916070BC31
:101140007047002070BC7047012070BC704700BF22
:101150008815002084150020841100208C150020A3
:10116000002000402DE9F047002962D03B4EDFF817
:10117000FC90D9F80070336835689F420C46804671
:101180001DD8C5F58065A94257D93068DFF8D0A0D1
:101190002A465044414607F0DCFD0023012F33600E
:1011A0001FD9791E671B8F4228BF0F46504608EB98
:1011B00005013A4607F0CDFD37603D4411E07F1B45
:1011C000012F48D9791E8C423368254828BF0C4628
:1011D000224641461844254607F0BBFD33682344A8
:1011E0003360204A13782BBBD9F80010336899423A
:1011F00020D0D9F80040336819481B499C4236BFBB
:101200003368D9F800301B1B204428BFC3F5806326
:101210004FF6FE764FF6FF74B34288BF2346012493
:10122000C1F84405C1F8483514708C602846BDE803
:10123000F0870D462846BDE8F087336808484146E8
:101240001844224607F085FD33682344C3F309039D
:1012500033602546C5E70025C3E700BF8815002099
:10126000841100208C1500200020004084150020EF
:10127000124A134B10B51020002401211C70C2F833
:1012800008031346516002E0D3F810211AB9D3F8CD
:101290004421002AF8D00B4B1B781BB9074BD3F81D
:1012A000003523B90848BDE8104007F089BAFFF7B8
:1012B00071FE0548BDE8104007F082BA00200040EA
:1012C000B0150020B1150020CC00002038B5124C1C
:1012D00012492068124A0860124B01211170D3F89C
:1012E0000035B3B10F4B104A104800211025C3F848
:1012F0001011C3F84411C3F8045324682244012494
:10130000C3F83425C3F838451C60BDE8384007F001
:1013100035BAFFF78FFEE5E7801100207C11002031
:10132000B0150020002000407C0F0020CC000020E1
:1013300008B5194801F02CFF032808D8DFE800F0B1
:101340001A021308FFF744FE144B1B78E3B108BDE3
:10135000124B1B78E3B1124B1B78002BF7D1BDE881
:101360000840FFF793BE0D4B1B78002BF3D0FFF71F
:101370007FFFF0E7094B1B781BB9BDE80840FFF77A
:1013800027BEFFF775FFF8E7BDE80840FFF79EBFEF
:10139000FFF79CFFDFE700BF90150020B01500208D
:1013A000B115002008B50146034801F0DFFEBDE895
:1013B0000840FFF7BDBF00BF9015002010B50A46DA
:1013C0000146044801F0BEFE044608B1FFF7B0FF35
:1013D000204610BD9015002038B52A4BD3F81021B7
:1013E000DAB1294A29480021C3F8101113682849A5
:1013F00001330968C3F30803994218BF13601168E9
:10140000244B204A0B440121C2F83435116007F007
:1014100073FA214B186807F06FFA1A4BD3F82021A2
:1014200062B31E4A1E490020C3F82001D3F84C3590
:1014300014682344C3F30903136014680B689C42C7
:101440001DD010680B68174C984234BF0B681368A6
:1014500015490C4A38BF1B1A014428BFC3F58063E5
:101460004FF6FF704FF6FE75AB4288BF0346012072
:10147000C2F84415C2F848352070906038BD094B59
:10148000187038BD0020004080110020CC000020E2
:101490007C1100207C0F0020B41500208415002052
:1014A000881500208C1500208411002010B50388B9
:1014B00004461BB1B42B05D1822907D0B423238065
:1014C000012010BD00230380032010BD014801F05E
:1014D00079FEF3E7CC19002038B52A4BD3F8102158
:1014E000DAB1294A29480021C3F8101113682849A4
:1014F00001330968C3F30803994218BF13601168E8
:10150000244B204A0B440121C2F83435116007F006
:10151000F3F9214B186807F0EFF91A4BD3F82021A3
:1015200062B31E4A1E490020C3F82001D3F84C358F
:1015300014682344C3F30803136014680B689C42C7
:101540001DD010680B68174C984234BF0B681368A5
:1015500015490C4A38BF1B1A014428BFC3F5007354
:101560004FF6FF704FF6FE75AB4288BF0346012071
:10157000C2F84415C2F848352070906038BD094B58
:10158000187038BD00800240BC170020D800002031
:10159000B8170020B8150020EC190020C019002051
:1015A000C4190020C8190020C017002010B50E4B28
:1015B00084B01C788DF8070014B9204604B010BD23
:1015C00004AA012342F8043D0DF10701074806F083
:1015D000A5FD28B9039B1BB1054807F08DF9ECE781
:1015E0000024204604B010BD841A0020309800006A
:1015F000E8000020032906D8DFE801F002140E08F5
:101600000B4B01221A700B4807F076B90A4B0948B8
:1016100001221A7007F070B9084B064801221A70AF
:1016200007F06AB9064B034801221A7007F064B943
:10163000821A0020E8000020801A0020811A002071
:10164000831A00200F4B1B78C3B110B582B002AAD9
:101650000D4C0E48012342F8043D2146002306F0BC
:101660009BFD40B9019931B1084806F011FE23688D
:10167000187802B010BD4FF0FF30FAE74FF0FF309E
:10168000704700BF841A00207C1A002024980000B4
:101690000E4B1B78BBB100B583B00B4601930146DE
:1016A00053B101AA0A4806F039FD08B9019B1BB9DC
:1016B000002003B05DF804FB064807F01DF901980F
:1016C00003B05DF804FB1846704700BF841A002081
:1016D00030980000E80000200C4B1B783BB100B5AF
:1016E00083B0019129B9084603B05DF804FB1846A0
:1016F0007047014601AA064806F08CFD10B9019911
:101700000029F0D1002003B05DF804FB841A00200A
:101710002498000010B506F0FDFB012801D904F063
:1017200093FA094C204607F0F5F830B1074B1B68D7
:10173000A34202D0204607F043F8002000F00CFA44
:10174000BDE8104004F06ABAE8000020EC27002051
:1017500038B5184C23783BB1174807F0DBF8E8B1EF
:10176000BDE8384004F058BA03F0FF0506F0D8FB96
:10177000284604F0BDF9C8B9104B114A1846136049
:1017800004F070FA08B102F081FA0E4A0A48022306
:101790002370137007F0BEF80028E1D10146064817
:1017A00006F0ECFFBDE8384004F036BA02F06EFAFD
:1017B000E2E700BFA41E0020E8000020009800001F
:1017C000781A0020A51E002008B50B4801F0E0FCA7
:1017D00050B1032800D908BD03F0DCFA0028FAD183
:1017E000BDE80840FFF7B4BF03F0D4FA0028F2D0F8
:1017F000BDE80840FFF78EBFC422002008B50146AF
:10180000034801F0B3FCBDE80840FFF7DDBF00BFAF
:10181000C422002010B50A460146044801F092FC9B
:10182000044608B1FFF7D0FF204610BDC4220020B7
:1018300070B582B00D4C02A90023224641F8043D48
:10184000064601250A48256006F006FC22682AB1F2
:101850003046019905F03EFF02B070BD054B0648C9
:101860001D7007F049F802B070BD00BFA01E002037
:1018700024980000821A0020E80000202DE9F04F93
:101880000446008885B088B1B0F5E37F08D182298D
:101890000FD04FF4E3730120238005B0BDE8F08F33
:1018A00000230320238005B0BDE8F08F00F03AF953
:1018B000EFE7744D744E2A7833789A421BD02B7818
:1018C000013B042B17D8DFE803F0520342164E0009
:1018D0003378022B00F0CD8003F066FA08B104F0F3
:1018E000B3F92B78694ADBB233700021042311600D
:1018F0002B7006F00FFB664B1A78002A40F08880A8
:10190000644E654B1A782AB164486049002202701F
:101910001A700A60624F3B78002B31D1614B3168FD
:101920001A783ABB0029B4D104A900254FF4806786
:1019300041F8045D2B46574A5B48376006F02CFCA3
:101940000746002878D0356002F0A0F9A1E703F03F
:1019500021FA40B104F064F906F0DCFA2B78052294
:10196000DBB233702A702B78DBB23370C3E703F03D
:1019700011FAC0E700224C481A7006F089FCD3E740
:10198000424D4A4B2968D3F800904FF0000887F881
:101990000080002967D1484605F098FE1FFA80FCB8
:1019A000BCF1000F58D00DF1100A002301944AF841
:1019B000043DDFF8D8B0DFF8088164460EE00399F3
:1019C00005F088FE2968404606F08EFB0023484655
:1019D0002B6005F07BFE84B2002C3CD000235A46DD
:1019E000514640462C6006F037FB2B6830481A46BB
:1019F000002BE4D101232F48019C3B7006F07CFFB3
:101A00002D4B186806F078FF2C4801F0DBFB85E7CA
:101A1000224A25481F4E0121002511701D7006F035
:101A20000DFB274806F00AFB204A184B10681D6082
:101A30003560FFF7FDFE64E73268002A3FF429AF06
:101A400003991B4805F01EFE00283FF422AF3760C3
:101A500002F01CF91DE7019C2B68002BD0D14846F1
:101A6000FFF7E6FECCE7164806F03EFBC5F800801F
:101A700091E703F08FF900283FF43BAF04F0CEF874
:101A800037E700BFA41E0020A51E0020A01E0020D6
:101A9000811A0020C0220020801A0020841A002011
:101AA000821A0020831A002030980000781A002043
:101AB00000980000E8000020E4220020C42200205A
:101AC000249800000D4B1A786AB11A780C49D2B2EA
:101AD00001280A7008D00CD3022801D103221A7001
:101AE000084806F009BF7047022206481A7006F03F
:101AF00003BF012203481A7006F0FEBEA41E002098
:101B0000A51E0020E8000020FFF7DCBF08B500207C
:101B100001F074FF28B1852803D0BDE8084002F029
:101B2000B5B808BD38B50A4C2378054623B1012065
:101B3000A8401843207038BD064801F073FF08B173
:101B400002F0A4F823780120A8401843207038BD83
:101B5000E822002054980000064A137833B101218E
:101B600001FA00F023EA0003137003B1704701F09B
:101B700067BF00BFE8220020F0B568490B78087104
:101B8000020C000A8A70C870002B5ED0644B0025DE
:101B900018462A4604798E180330013234B1B478DD
:101BA000013CE4B2FD2C98BF45F00105042AF1D1B7
:101BB0004E78D5B15B4C00201A790D1802B1AA7885
:101BC0005D790130033315B1C2F1FF0292B20428EE
:101BD00024F8022BF0D11EB9534B0122C3F8002583
:101BE000514A012393604B70F0BD1EB14E4AC2F8BA
:101BF00000554D704D4E00220125187980B188188E
:101C00005C79807894B198B198791F2886BF00F0EC
:101C10001F0034464FF0A04405FA00F0C4F8080550
:101C20000132042A03F10303E7D1F0BD0028EBD011
:101C300098791F2886BF00F01F0034464FF0A0445B
:101C400005FA00F0C4F80C05EAE7354ADFF8DCC015
:101C500002F10C05134601271879E8B198795E79ED
:101C60000446002E4BD01F2887BF00F01F06E64613
:101C700006464FF0A04E07FA06F6CEF80C6540F285
:101C800003461F288ABF00F01F044FF0A0406046A3
:101C900004F5E07440F824600333AB42DCD1224EFB
:101CA00000234FF00047107903F5AC7520B390790D
:101CB00046F825000133042B02F10302F3D11A4A3E
:101CC000184D0724C2F80C4500200224C2F8040570
:101CD000C2F81045FF24C2F81405C2F808450124D3
:101CE000C2F82435C2F82C05C2F82055C2F82805E0
:101CF000C2F800020C7049E746F82570DAE71F28A1
:101D000087BF00F01F06E64606464FF0A04E07FAD2
:101D100006F6CEF8086540F20366B2E7EC22002032
:101D200058980000F22200200010024000030050EA
:101D30000E490B78CBB970B40D4B0E4D0E4C0F48BD
:101D40000F4A104E2B4423441B1A9B1A03F6FF70B4
:101D50000D4A0E4D0E4C000B9B1A3060120B0120E9
:101D60002B602260087070BC704770470023002011
:101D700020A000009802002068A0000020A0000021
:101D800010000020F800002000000000FC220020CD
:101D9000F400002008B50F4B1B68834218D8FF28B9
:101DA00016D8000300F5805188420FD20268013234
:101DB00000F1040301D007E01346994203F1040245
:101DC00004D91B680133F7D001F008FD002008BDDD
:101DD000012008BDF8000020531EB3F5805F44D2F7
:101DE0002DE9F041404B1B68B0EB033FADF5806D32
:101DF000054635D31318B3F5801F144630D810F0BC
:101E0000030C0E4633D18B0754D06F46B4F5806F68
:101E100014D931464FF48062384606F09AFFA4F593
:101E2000806428464FF48072394601F0EFFCB4F527
:101E3000806F06F5806605F58065EAD8A30831460F
:101E400055F8232047F823203846224606F081FF24
:101E5000E21C28469208394601F0D8FC002000E038
:101E600001200DF5806DBDE8F081012070470CF177
:101E7000030820F0030590446F464FEA98082B684A
:101E80003B60B8F5807F07EB0C001BD9CCF5806870
:101E9000424606F05EFFA4EB080428464FF4807229
:101EA0003946464401F0B2FC05F58065002CADD101
:101EB0000220D6E712F00307A7D1920801F0A6FC92
:101EC0003846CEE705EB880408F1FF3354F8044C9C
:101ED00047F8234006F03DFF28464246394601F0C8
:101EE00095FC0020BDE700BFF80000200021F0B401
:101EF000104C114F0E46022501E0082918D00A01A6
:101F000002F1804303F5F0333A44C3F80068C3F8A4
:101F10000448C2F80858D3F8000801310028ECD171
:101F2000D3F80438A342E8D1D2F80838022BE4D120
:101F3000F0BC704700E0000000E0014010B50E4A20
:101F40004FF0FF33C2F88030C2F88031C2F88430DD
:101F5000C2F88431D0E90041002282F3148882F370
:101F6000108882F3118882F31388044A906084F306
:101F700008889E46084710BD00E100E000ED00E043
:101F80004FF080434FF08042D3F8000410F004007B
:101F900018BFD3F81C05D2F81C3523F0070318BF6F
:101FA00000F00700C2F81C35704700BF4FF08042B8
:101FB000D2F81C3523F007031843C2F81C057047FC
:101FC0004FF08043D3F8380400F00100704700BFA1
:101FD00080B48BB000AFF860B9607A60FB70FA68CB
:101FE000BB689A4280F090807B68002B00F08C8068
:101FF0007B6803F6FF731B0B3B61FB687B62BB686E
:102000003B623B69FB616EE00023FB7613E0474BCC
:10201000D3F80825FB7E22FA03F303F00103002B1B
:1020200006D0424AFB7E03F5C073414942F82310B3
:10203000FB7E0133FB76FB7E072BE8D93D4B02226A
:10204000C3F80425BFF36F8FBFF34F8F394A7B6A04
:10205000C2F8083500BF374BD3F80034002BFAD054
:10206000344B0122C3F80425BFF36F8FBFF34F8FAA
:102070000023BB7613E02D4BD3F80825BB7E22FA54
:1020800003F303F00103002B06D0284ABB7E03F5BF
:10209000C073274942F82310BB7E0133BB76BB7E59
:1020A000072BE8D94FF480637B6113E03A6A131D74
:1020B0003B627B6A191D796212681A6000BF1D4B72
:1020C000D3F80034002BFAD07B68043B7B607B693B
:1020D000013B7B617B69002B02D07B68002BE5D143
:1020E000FB69013BFB61FB69002B8DD1114B002289
:1020F000C3F80425BFF36F8FBFF34F8F00BF0D4BA5
:10210000D3F80034002BFAD0FB78002B07D0BFF3B4
:102110004F8F094B094ADA60BFF34F8FFEE700BFCC
:102120002C37BD465DF8047B704700BF00000140BE
:102130003546526E00E0014000ED00E00400FA0573
:1021400080B400AF00BFBD465DF8047B704700005F
:102150002DE9F04140EA0104C4F30B0400AF74B967
:10216000033222F003046218B2F5801F0D4606D830
:102170008842064603D82BB92246FFF729FFBD4601
:10218000BDE8F0810B490C4A521AD31D23F0070316
:10219000E846ADEB030D21F00101684606F0D9FDDC
:1021A00072B60123224629460DEB03043046A047B0
:1021B000C546E4E7D11F000041210000FFF7DCBC69
:1021C00010B40F4B0F4A1B681268934205D303F6F5
:1021D000FF7222F47F6222F00F020B490B48401A73
:1021E000841AA34206D903F6FF7323F47F6323F016
:1021F0000F03C21A06480A4402605DF8044B704798
:10220000000000207423002000E0000000E00D002A
:102210007023002038B50C4D0C4C28682168043020
:10222000091A00F0FDFE236829685870C0F30720E2
:1022300003F8020B581A021F92B2C2F30725CA70A4
:102240008D70236080B238BD182300202423002025
:1022500008B5044B1B6803B19847BDE80840FEF77A
:102260000BBE00BF2023002038B5064C06490546AA
:102270000722206806F06DFD2368044ADD710833EB
:10228000136038BD18230020A098000024230020EC
:10229000094B1B6843B1094B1B685BB110B59847EC
:1022A000BDE81040FEF7E8BD054A06484FF47051FE
:1022B00006F092B8FEF7E0BD0423002020230020A2
:1022C000912200004C23002010B50446EE20FFF7B9
:1022D000CBFF044A13681C7001331360BDE8104043
:1022E000FFF798BF2423002030B53D4C014683B052
:1022F000206800296BD0CB7B8D7B4A7B8DF8043026
:102300000B7B8DF805508DF806208DF80730019B6A
:10231000C370C3F30725C3F30742C3F30763857094
:102320004270037091F8473091F8465091F845207B
:102330008DF8043091F844308DF805508DF8062062
:102340008DF80730019BC371C3F30725C3F3074220
:10235000C3F30763857142710371CD7C8A7C4B7C2A
:102360008DF804508DF805208DF806300B7C8DF823
:102370000730019BC372C3F30725C3F30742C3F3BE
:102380000763857242720372CB7E8D7E4A7E8DF822
:1023900004300B7E8DF805508DF806208DF807303F
:1023A000019BC373C3F30725C3F307428573C3F3CC
:1023B000076300F11005427303731C31284628227D
:1023C000256006F05DFD23682833236005E0382290
:1023D000FDF7A8FF23683833236003B030BD00BF8A
:1023E000242300202DE9F041054618461E460C46E0
:1023F000174606F03DFDEB680146304698477FB131
:102400000A4E274423786A691B09F05C904714F848
:10241000013B6A6903F00F03F05C9047BC42F1D1C5
:102420006B690A20BDE8F041184700BFA89800007A
:1024300010B5074B012200201A70FFF7B7FD0023EB
:10244000044A05485521BDE8104005F0C5BF00BF4E
:10245000782300205122000028230020F0B4374BBD
:1024600037481A780368FF2A2BD01A7012BB354AF6
:10247000354C1168354A2144521AC2F30721C2F380
:102480000745C2F307645A731973002203F112015E
:10249000DD729C725A705A711A71DA709A705A729F
:1024A0001A72DA719A715A741A74DA739A73016033
:1024B000F0BC704726490A68002AD8D0254C246809
:1024C00009E023490A68BAB3224C2468A2428CBFAF
:1024D000012502251D70D1E90165C6F30727C968EA
:1024E0005E711F71C6F30747C6F30766DF709E7003
:1024F000C5F30727C5F307465D725970C5F3076535
:10250000C2F307215A735C741F72DE71C2F307476E
:10251000C4F307269D711973C4F30745C2F307621C
:10252000C4F3076403F11201DF729A721E74DD7343
:102530009C730160F0BC70471A7098E7FD000020A2
:10254000242300207423002000E0000000E00D00A0
:10255000000000206C23002008B52120FFF784FE36
:10256000FFF77CFFBDE80840FFF754BE2DE9F047B8
:102570007D4BDFF810827D4D7D4F012282B01A70B5
:10258000FEF708FB08F50074AC42386000F2EA8000
:10259000784EDFF8009202E00434AC4227D823687A
:1025A000B342F9D1A3795A1E012AF5D8012B4FF075
:1025B00004024946204614BFC2464FF0000A06F006
:1025C000B9FB0028E8D1E27CA37C8DF804208DF8CB
:1025D0000530627C237C8DF806208DF80730019B46
:1025E000C3F1480323445345D6D1386801E0386825
:1025F0000024614D614BA968D5E90026324413449B
:10260000EA685F4E0B44534033F00103346070D1ED
:1026100012F0010F0CBF01230223EB6080B390F88E
:1026200047308DF8043090F8461090F8452090F827
:1026300044308DF805108DF806208DF80730C37CE6
:10264000DDF80480817C8DF80430427C037C8DF8B9
:1026500007308DF805108DF80620019C042C88BFEA
:10266000043C00F053FD21460246002000F052FDDC
:1026700000F066FD804517BF0023346834683B6076
:102680006CB394F847308DF8043094F8461094F801
:10269000452094F844308DF805108DF806208DF80B
:1026A0000730E37C019FA17C627C8DF80430237CA1
:1026B0008DF807308DF805108DF80620019C042C4C
:1026C00088BF043C00F022FD214602462D4800F060
:1026D00021FD00F035FD87420ED0002333602A4AE9
:1026E0002C680023136014BB284B1C6002B0BDE8AB
:1026F000F08700232B6091E73368002BEFD05A7CE2
:10270000D87C997C1B7C8DF806208DF804008DF810
:1027100005108DF80730019B1B4A2C6803F6FF73E8
:1027200023F47F6323F00F031360002CDCD0FFF74A
:1027300047FD164B042C1E6888BF043C00F0E6FCE5
:1027400021460246304600F0E5FC00F0F9FCAB689B
:10275000834208BF2A680E4B18BF00221A6002B0DD
:10276000BDE8F087002444E70C230020E0DE0D00E4
:1027700008230020464953000000002078563412F8
:102780000423002000E000007423002070230020B8
:102790006C2300209C980000014B1860704700BF1C
:1027A000202300202DE9F04FB44C257885B005BBDF
:1027B0000E46B349B34D09780446002AB24808BF13
:1027C00000232B60026081B3B04F012E3C6023D9FF
:1027D0002346627813F8021B8DF80D108DF80C203B
:1027E000BDF80C203B60B2F55F4F06D02B680A2B7A
:1027F00022D8002005B0BDE8F08F092E0CD9E27870
:10280000A3788DF80D308DF80C20BDF80C20331F07
:10281000201D9A42386011D02B680A2BE9D901207B
:1028200005B0BDE8F04FFFF74FBD984FFFF79EFE94
:10283000012E3C60CCD8EFE70220F1E7A6F10608B4
:10284000414600F0EDFBB31EE218E35C52788DF8D0
:102850000C208DF80D30BDF80C30984204D02B6858
:102860000A2BC6D90320DBE73A681346907813F8A1
:10287000034B51788DF80D408DF80C1001283B600A
:10288000BDF80C3002D000F50040B3E743F60D620E
:10289000934204D02B680A2BABD90420C0E77C4CB0
:1028A0007C4A7D4800234FF4705105F095FD3B684C
:1028B000227893F80090591CFF2A396027D0B9F18B
:1028C000120F13D8B9F1110F80F0A881B9F1000FE0
:1028D00000F07C81B9F1020F13D1B8F1040F2B681D
:1028E00026D02B680A2B84D9072099E7B9F1300F3D
:1028F00018D0B9F13F0F00F04C81B9F1200F00F072
:10290000D5802B680A2B7FF674AF062088E7634AD0
:102910001268002AD3D0624909688A4294BF022211
:102920000122CCE7B8F10C0FDBD1022A08D02B68CA
:102930001B2B7FF65EAF05B0BDE8F04FFFF70CBE76
:102940001979DA788DF80C108DF80D2099785A786D
:102950008DF80E108DF80F20197A039A4F4E8DF8CE
:102960000C10D9798DF80D1099798DF80E10D6F8D4
:10297000008059798DF80F1009333B60039FB8F13F
:10298000000FAED073689A42ABD1B3689F42A8D112
:10299000434B1B689845A4D1DFF80C91B8F1040FA4
:1029A00088BFA8F10408D9F800A000F0AFFB4146A9
:1029B0000246504600F0AEFB00F0C2FB874214D046
:1029C00000233360EC232A6823701B2A0AD80020D6
:1029D0002378032B03D10190FFF72AFD01980023F0
:1029E000336007E7FFF7B8FDF2E73368D9F8007006
:1029F0002C491F44483F27F00307384606F026FAC3
:102A000010B93B79122B03D000233360ED23DAE7B2
:102A1000BB79F2689342F7D1398940F63E52914230
:102A2000F2D1BA7A012AEFD1FA7C797C8DF80C20A8
:102A3000B87C3A7C8DF80E108DF80D008DF80F20C3
:102A4000039A31688A42DFD1F97B787B8DF80C10CC
:102A500097F80EC0397B8DF80F108DF80DC08DF8EA
:102A60000E00039871688842CED1012B00F0688176
:102A7000022B00F05E81E023A5E700BF7823002051
:102A80000C2300201C2300201823002010230020EA
:102A9000FD000020912200004C23002000000020B7
:102AA0006C2300209C98000070230020B8F10F0FC9
:102AB0007FF617AF013A012A3FF639AF93F804E0E9
:102AC00093F803C098785978AF4A8DF80DC08DF807
:102AD0000E008DF80F108DF80CE0187ADDF80CE080
:102AE00093F806C059798DF80C0093F807801068A8
:102AF0008DF80F108DF80D808DF80EC003F10901CF
:102B0000DDF80CC0396000283FF4EBAE51688E450B
:102B10007FF4E7AE926894457FF4E3AE1A7B997A2E
:102B20008DF80C2093F80BC05A7ADFF874928DF868
:102B30000F208DF80DC08DF80E100399D9F80020E4
:102B400003F10D089142A6F11606C7F800807FF444
:102B5000EEAE002E3FF4EBAE8C4B8D4A1B689342D9
:102B600031D3471ABE422CD3002F3FF4E0AE01EB25
:102B7000030A0AF1FF3BBB440AF6FF764FEA1B3B10
:102B8000360BB345304610D3FFF704F9D8B90136F8
:102B9000F7E7B8F1040F7FF4A4AE7B4A0021FF23CE
:102BA00011602370FFF744FCC1E6414650463A46A7
:102BB000FFF712F938B9D9F800303B44C9F80030B2
:102BC000B5E63746D3E7E0232370B0E6B8F1040F4B
:102BD0002B687FF486AE8D2B7FF60BAE6D4D6E4C61
:102BE0000120FFF741FB2868FFF77EFB2068FFF715
:102BF0007BFB2B680BB193F80B90684923680A683C
:102C000082F8009003B1DB7A537002320A60FFF75A
:102C100025FC05B0BDE8F04FFFF7FCBAB8F1100F86
:102C20007FF45FAE1E79D87899785A788DF80C6069
:102C30008DF80E108DF80F208DF80D001A7A03987C
:102C400099798DF80C20DE795A798DF80E108DF86F
:102C50000F20197BDA7A8DF80D60DDF80CC08DF845
:102C60000C108DF80D20997A5A7A8DF80E108DF887
:102C70000F200D33B9F1110F3B60039A2BD0484957
:102C8000414E454F00230B603360FF213B682170AC
:102C9000022473B1DF7B997B8DF80C708DF80D10D9
:102CA0005F7B197B8DF80E708DF80F1003998842A9
:102CB0001CD0472A65D93B4B354F19683A4B3944EC
:102CC0005B1A9A4257D8F460C6E90020C6F808C0DB
:102CD000FFF776FA2BE632492B4E2E4F00230B607E
:102CE000FF21336021703B680124D2E7DF7C997CAF
:102CF0008DF80C708DF80D105F7C197C8DF80E70BE
:102D00008DF80F1003998A42D3D193F8471093F8A6
:102D100046708DF80C1093F8451093F844308DF8F8
:102D20000D708DF80E108DF80F30039B9C45C0D1AF
:102D3000FDE5FB7A022B16D000233360EB2342E63D
:102D4000154B1B681BB11248000BFFF723F803203B
:102D5000FFF72CF90123D9F8001032680020FFF7A3
:102D6000F7F9E0232FE60023D9F800100848FFF711
:102D7000EFF9032327E611202B680A2B7FF639ADE4
:102D80004EE50720F8E700BF000000207023002078
:102D900000E000000823002004230020242300205A
:102DA0006C2300207423002000E00D0070B5ADF509
:102DB000007D0D46164669464FF4807200F0A2F978
:102DC00020B19DF80030DF2B03D000200DF5007DF1
:102DD00070BD01464FF48073684640AAFFF7E2FCDD
:102DE000030484B200D41CB920460DF5007D70BDEB
:102DF0002846334640A92246FFF7F4FA2046F4E776
:102E000008B5154A154B0C21C2F814171B7803B3EB
:102E1000FFF7B6F8124A831E012B106018D9114B28
:102E20001B68ABB10C4BD3F810359B0602D4FFF7EF
:102E3000C7F850B9084B0222C3F81427FFF756F819
:102E40000948BDE80840FFF779B8084B01221A701D
:102E500008BDFFF78BFBDBE7000300500C230020CD
:102E6000482300200423002000E000001423002059
:102E7000014B1878704700BF14230020F0B50023E1
:102E8000044689B0154A16484FF4705105F0A4FA6B
:102E90005CB1144B14481B68144A01AD1C21022B71
:102EA0000560116015D0032B01D009B0F0BD104FA3
:102EB0003B70FFF751FBFF2306463B70FFF7B8FA64
:102EC000002EF2D03246294620460A4BFFF78AFAF6
:102ED000EBE7FFF741FB0646F2E700BF9122000057
:102EE0004C23002048230020182300201C2300200E
:102EF000FD000020909800002DE9F0410F46154696
:102F00002B4909229846044605F014FFE0B909341C
:102F10000646284A20462946FFF748FF03041DD5E8
:102F2000B0F5004F1AD1EB68234808219847A7F164
:102F30000901EB68204698476B690A2098471F4BA8
:102F40001E700120BDE8F08109221D49204605F0D0
:102F5000F1FE034628B10020BDE8F0810120BDE864
:102F6000F081164E174A18484FF4705105F034FAA4
:102F700033787BB1012B08D1D8F80C303946204684
:102F80009847D8F814300A2098470223337000205D
:102F9000BDE8F081EB68074808219847EB68A7F186
:102FA000090104F1090098476B690A209847ECE78A
:102FB0006C9800009098000078980000FC000020B9
:102FC00084980000912200004C230020F8B50F46A1
:102FD0001646104908221D46044605F0ABFE08B10E
:102FE0000020F8BD29460C4A04F10800FFF7DEFE78
:102FF00003040DD5B0F5004F0AD13946F3682046D9
:10300000984773690A209847044B01201870F8BD4F
:103010000120F8BD7898000084980000FC00002092
:1030200030B410FA81F104468C424FF6FF7041F241
:10303000210510D014F8013B80EA03239BB208223B
:1030400018044CBF85EA43035B009BB2013A184663
:10305000F6D18C42EED130BC704700BFA0F14103E5
:10306000052B9ABF3738C0B2FF2070472DE9F041D9
:1030700022B190F80080B8F1000F03D1002420465F
:10308000BDE8F0811646851C4F1E00241CE0A0F10F
:103090005703D9B215F8010CA0F13003DBB2092BAC
:1030A00005D9A0F16103052B25D85738C3B20134E7
:1030B000A4B243EA0113B44207F8013FDFD015F888
:1030C000028BB8F1000FDAD005F014FE40444378CB
:1030D0001B07D4D415F8020CA0F13003D9B209298A
:1030E000D8D9A0F16103052BD1D9FFF7B7FF0F287D
:1030F0000146CFD9C2E7FFF7B1FF0F280346D6D963
:10310000BCE700BF08B1FFF7B1BF70474FF0FF3019
:10311000704700BF81B130B4441E084D21441046B1
:1031200014F8013F4340DBB2A14255F8233083EA53
:103130001020F5D130BC704710467047B898000099
:10314000C043704781B110B400F12004037833B15B
:103150000830A042FAD100205DF8044B704701709E
:1031600042605DF8044B70470846704788420BD0B8
:1031700000F10803994207D000F11003994203D0EF
:103180001830814200D0704700230B70704700BF99
:1031900000F1080200F12801002012F8083C022B7F
:1031A00007D0032B07D0012B07D008328A42F4D175
:1031B0007047012803D1032070470228FBD018462E
:1031C000F3E700BF38B500F1080400F1280514F852
:1031D000083C1BB154F8043C03B198470834AC4296
:1031E000F5D138BD0649074A074B9B1A03DD043B5E
:1031F000C858D050FBDC00F02BFCFDF721F8000094
:1032000020A000001000002098020020FEE7FEE74A
:10321000FEE7FEE7FEE7FEE7FEE7FEE7FEE7FEE786
:1032200070B41D4D43791D4C45F8232003EB430337
:10323000E35C6BBB8A7890F904305201002BD2B268
:1032400020DB03F1604303F5614383F8002390F929
:103250000430134E012503F01F025B0905FA02F248
:1032600046F8232003680A88C3F8082543790879BB
:10327000C97803EB4303E218E554507091700020C5
:1032800070BC7047074D03F00F031D442A76DEE73C
:10329000082070BC704700BF802300207C230020E2
:1032A00000E100E0FCEC00E00368044A0121196041
:1032B000437903EB43030221D15470477C23002060
:1032C000F0B44FF480350468234E8D40C4F8485361
:1032D0000468C4F80853447904EB4404344482B0CD
:1032E000647822F07F42F4B1046801F5A87744F8CD
:1032F00027200468D4F804C5ACEB02076245427984
:1033000002EB4202164488BF07F1FF17B27888BF6C
:1033100007F57F4797421BDB6BB90020C4F8445385
:1033200002B0F0BC7047046801F5A87644F8262086
:103330000468002BF1D05031890089B2002363501A
:10334000625803680192019AC3F804530468E4E7E1
:103350000D2002B0F0BC70477C2300202DE9F04125
:10336000284E294FDFF8A48084B000244FF4803524
:10337000D6F80423E3192A42E0B24FEA83034FF060
:10338000000104F101040CD01A6852B1C6F8485388
:10339000C6F8085319601B680393D8F80030039AE5
:1033A0009847042C4FEA4505E2D1164BD3F8042385
:1033B000D1070DD5D3F8002152B10022C3F8002166
:1033C000124AD3F80031029320461368029A9847B4
:1033D0000C4BD3F80423920710D5D3F804216AB11B
:1033E0000022C3F80421D3F80421084B0192019A6A
:1033F0001B68052004B0BDE8F041184704B0BDE8E3
:10340000F08100BF001001405044001080230020D4
:1034100010B5074C236882B03BB1064B1B68984738
:103420000023236023680193019B02B010BD00BFFD
:10343000000101408823002070B5114B114A1C780F
:103440001160DCB9104E027801211970C6F80C2504
:10345000416805464FF47A720023C803490C05F011
:10346000C9FAC6F804052B7A084A5B01DBB24FF4AF
:10347000803182F810331160204670BD082070BD85
:1034800085230020882300200000014000E100E0A7
:10349000044B054901220220C3F804231A60087076
:1034A000704700BF000001408523002010B504468E
:1034B000002000F015FC0D4B1A78072A10D8501C7C
:1034C0000B4922701870D1F808050123934003437B
:1034D000C1F808350024002000F00AFC204610BD89
:1034E0000424002000F004FC204610BD84230020AA
:1034F0000000014000F5C070024B034A43F8202051
:10350000704700BF000001403546526E104A1378E4
:10351000DBB910B403780F494FF08044C3F3400384
:10352000C4F88035037803F00103C4F878350B68DC
:10353000DB0704D4C020012381F800030B600123C2
:10354000137000205DF8044B70478520704700BF62
:10355000A828002000E100E0034B02680021196068
:1035600002B11A60704700BF942300204FF08043DF
:103570004FF46072C3F80423704700BF4FF08043DC
:103580004FF46072C3F80823704700BF014B00225C
:103590001A6070479423002010B54FF0804386B026
:1035A000D3F80443620705D5D3F8082103F58473E3
:1035B000002A4ED1A30603D52A4B1A68002A3FD110
:1035C000600603D5284B1A68002A2FD1210602D5A0
:1035D000264B1A680ABBE20502D5254B1A6892B938
:1035E000A3050ED5234B1A685AB100221A601A6837
:1035F000214B0592059A1B68022006B0BDE81040D9
:10360000184706B010BD00221A601B4A1B680493BD
:1036100001201368049A9847E2E700201860164AD0
:103620001B6803931368039A9847D4E700221A6033
:10363000124A1B68029301201368029A9847C5E753
:10364000002018600D4A1B6801931368019A98477F
:10365000B6E700221A600A4A1B6800931368009AB2
:103660009847A7E714010040180100401C010040E2
:1036700020010040240100409423002090230020DA
:103680008C23002008B5FFF787FFBDE8084000F055
:1036900073B800BF054A13792BB90121106053712B
:1036A0001846117170478520704700BF982300208D
:1036B000084B1A68D20704D4C021012283F80013F2
:1036C0001A604FF08041044A0123C1F81835137085
:1036D000704700BF00E100E0A928002010B4094BAA
:1036E000094A0021196083B01B680193019C4FF0C7
:1036F000804102200123C1F80403136003B05DF888
:10370000044B70470401004008000040074B0022B2
:103710001A6082B01B68019301994FF08043012227
:10372000C3F804231A6002B0704700BF00010040D4
:1037300010B40E490E484FF0804201230024C2F815
:10374000083383B00C600968019101990360D2F8D5
:103750000C3403F00113B3F1011FF8D0054B002224
:103760005A7103B05DF8044B704700BF0001004080
:10377000040000409823002010B5154B1A6882B051
:103780007AB10021134A19601B68507900934FF0F9
:1037900080410123009CC1F8083310B911685371AE
:1037A00088470D4B1A6882B100221A601B6801938A
:1037B0004FF080420221074B0198C2F808131B68A2
:1037C000012002B0BDE81040184702B010BD00BF94
:1037D0000001004098230020040100400A4A02230F
:1037E000C2F80435BFF36F8FBFF34F8FC2F80805DF
:1037F000D2F80034002BFBD00023C2F80435BFF30D
:103800006F8FBFF34F8F704700E00140114B30B412
:103810000124C3F80445BFF36F8FBFF34F8F72B11C
:1038200001EB82050C46401A1A46031954F8041B92
:103830001960D2F80034002BFBD0AC42F5D1054B17
:103840000022C3F80425BFF36F8FBFF34F8F30BC46
:10385000704700BF00E0014050E8002F02EA01037A
:1038600040E8003C9CF0000FF6D11046704700BFC6
:1038700010B570B101280BD10D4C2369A0703BB17C
:10388000D3E900230120226198472369002BF7D157
:1038900010BD074CA36801226270002BF8D0D3E959
:1038A00000230020A2609847A368002BF7D1EFE720
:1038B000A023002038B50C4C23789BB90B486360DB
:1038C000A3602361E360FFF7E5FE0546FFF7F0FE26
:1038D00001232370064BD3F800340BB10123A370EE
:1038E000284638BD8525F5E7A02300207138000063
:1038F0000000014038B5154CA378054673B110B1EE
:10390000436801209847002000F0EAF9E36801339A
:10391000E3600020BDE8384000F0EAB903F0FF00A2
:1039200000F0DEF965B1226942B1954208D0134634
:1039300001E09D4204D01B68002BFAD12A6025616A
:10394000E368002BE2D1FFF7C9FEDFE7A0230020E8
:103950004FF08043D3F81804C0F30040704700BF15
:1039600038B5154C6378054673B110B14368002033
:103970009847002000F0B4F96368013363600020C9
:10398000BDE8384000F0B4B903F0FF0000F0A8F93A
:1039900065B1A26842B1954208D0134601E09D424C
:1039A00004D01B68002BFAD12A60A5606368002B45
:1039B000E2D1FFF7ABFEDFE7A023002038B5084CCB
:1039C000002000F08DF96368013B6360656815B9FC
:1039D000FFF7AEFE65700020BDE8384000F088B902
:1039E000A02300204FF08043D3F80C0400F0011016
:1039F000A0F10110B0FA80F04009704710B5074CF3
:103A000023784BB9064B002808BF1846FFF77EFD08
:103A100008B90123237010BD852010BDB4230020F8
:103A2000B89C000010B50446FFF7A8FDFFF7AEFDF7
:103A30002046FFF791FDFFF799FD002010BD00BF64
:103A400008B5FFF79BFDBDE80840FFF79FBD00BF2D
:103A500030B47E4B1B685C1C2DD07D4A082B12684D
:103A600000F0B080794B7A4A1B681268082B7ED030
:103A7000591C00F08A80764A1268082B78D0754A63
:103A8000D2F8883043F47003C2F88830BFF34F8F08
:103A9000BFF36F8F4FF01023D3F80022002AC0F23B
:103AA000A480D3F80432002BC0F29F806A4B6B4A8B
:103AB0001A6030BC70476A4A6A4B12781B68082A41
:103AC000C3F3031301D1032B7ED9664A644B1268FA
:103AD0001B78C2F30312082BC4D1032AC2D84FF0BB
:103AE0008052614BD2F80414C3F82015D2F80814A0
:103AF000C3F82415D2F80C14C3F82815D2F8101402
:103B0000C3F82C15D2F81414C3F83015D2F81814D1
:103B1000C3F83415D2F81C14C3F84015D2F8201499
:103B2000C3F84415D2F82414C3F84815D2F8281461
:103B3000C3F84C15D2F82C14C3F85015D2F8301431
:103B4000C3F85415D2F83414C3F86015D2F83814F9
:103B5000C3F86415D2F83C14C3F86815D2F84014C1
:103B6000C3F86C15D2F84424C3F870257AE79AB1EB
:103B7000032A84D84FF08043D3F80024D20744BFEF
:103B80006FF00102C3F8002479E7364A344B12681B
:103B90001B78C2F3031270E7344C3549354D25606C
:103BA0003548364AFB24C1F8184501681268344C80
:103BB00021F00F0102F00F020A434FF4007102607E
:103BC000216058E7032A0DD8204B1B684FF0804234
:103BD0000021581CC2F80C11C2F81011C2F8381597
:103BE0003FF473AF1A4A126875E7264B0122C3F8F7
:103BF0000425D3F80024002AFBD04FF01023122212
:103C00002049C3F80022D1F80034002BFBD04FF03C
:103C1000102212211B4BC2F80412D3F80024002AF0
:103C2000FBD000221749C3F80425D1F80034002B3B
:103C3000FBD0BFF34F8F0749134BCA6802F4E06211
:103C40001343CB60BFF34F8F00BFFDE7300100107F
:103C50003401001000ED00E0000100200090D003CE
:103C6000E00F00F0E80F00F000C000408C5600406C
:103C700000F0004048810300E40E004058020010AC
:103C80004096024000E001400400FA0500B585B00E
:103C900000230390194601AA44F20100CDE9013343
:103CA00000F004F805B05DF804FB00BF72B6094BE4
:103CB0001B68DB0700D500BEBFF34F8F0649074BDB
:103CC000CA6802F4E0621343CB60BFF34F8F00BFBA
:103CD000FDE700BFF0ED00E000ED00E00400FA05B4
:103CE00072B6024A1368013313607047B82300208C
:103CF000034A1368013B136003B962B6704700BF03
:103D0000B823002030B44C689C4208D2002545609E
:103D10000968016093420CD0002030BC70474360BA
:103D20000D6805600868E41A18449342C1E900046C
:103D3000F2D1201C18BF012030BC704710B4D1E96B
:103D400000439A4228BF1A4604604260D1E900301D
:103D5000801A1344C1E90030003018BF01205DF81B
:103D6000044B70474B689A4228BF1A4662B10B68F1
:103D7000C0E90032D1E90030801A1344C1E90030B3
:103D8000101C18BF012070471346F1E710B582B030
:103D900002A800230121064A0193064C00F8041DE5
:103DA0000549126823700B70904702B010BD00BF28
:103DB000E8240020BC230020EC240020704700BF32
:103DC00000B583B00D4B0E4900228DF80420D3F8C6
:103DD0002025ADF80620D3F8C0040A4A0968136804
:103DE00000280CBF4FF480704FF00120034301A85E
:103DF0001360884703B05DF804FB00BF0070024009
:103E0000E8240020C4230020F8B50C46D1E90015B1
:103E10000A4F954228BF154606462A46384604F002
:103E200098FFC6E90075D4E90030401B2B44C4E973
:103E30000030003018BF0120F8BD00BFF024002082
:103E4000F8B54C68944228BF14460D4606465CB946
:103E500004607460D5E90032121B2344C5E90032C6
:103E6000201C18BF0120F8BD034F096838462246C0
:103E700004F06FFF3760ECE7F024002010B51C4B16
:103E80001B68082B82B011D01A4B1B499A7B00206B
:103E9000032A087012D01C68BCB1184B01221A60AA
:103EA000BFF36F8FBFF34F8F02B010BD144B1B6871
:103EB000032BE9D8134B00221A60E5E76FF4803139
:103EC0001148FFF7C9FC02B010BD6FF480310E48F5
:103ED000FFF7C2FC0D4B8DF8064006228DF8074017
:103EE0001B688DF8042001A8984702B010BD00BFE0
:103EF00030010010C8230020BD2300204C70024078
:103F0000340100101C7C0240C0230020E824002063
:103F100010B5224BD3F80044C3F8004482B0BFF37D
:103F20006F8FBFF34F8FBFF36F8FBFF34F8FE105DD
:103F30000BD5002302A802220193194B00F8042D8F
:103F4000184A1B68012111709847A2050AD502A8DA
:103F500000230322019300F8042D114A114912682D
:103F60000B709047630516D50E4B1A789AB10B4C1F
:103F70000D48012100221A70C4F808150160BFF332
:103F80006F8FBFF34F8F064B019202A8042100F8F8
:103F9000041D1B68984702B010BD00BF00700240AE
:103FA000E8240020BC23002058700240F0B53C4AB1
:103FB0000126136806FA01F52B431360030683B04C
:103FC000044610D4374B1B681D420AD1364B8DF87E
:103FD000060006221B688DF807608DF8042001A8F2
:103FE000984703B0F0BD00F00F01304B33F81130AB
:103FF00003F1804303F51C331A68E2B100221A6012
:10400000BFF36F8FBFF34F8F294B80281B682BD0D6
:10401000082B05D1274B1B68032B9CBF264B1A602E
:10402000264A274E0B01D0180027807B37700328C3
:1040300012D0D35883B11B4B1B681D40D1D11A4BF2
:104040008DF8064006221B688DF807508DF8042075
:1040500001A8984703B0F0BD012303FA01F1C94359
:104060001048FFF7F9FBE6E7082B11D0154B144970
:1040700093F89E200020032A087003D0D3F89030D4
:10408000002BD8D16FF001010648FFF7E5FBD2E71E
:10409000084B1B68032B9CBF074B1A60E6E700BF69
:1040A000C4230020C0230020E8240020C89C000076
:1040B00030010010340100101C7C02405824002004
:1040C000BD230020C8230020054B187810F0800F76
:1040D00014BF0021102100F00F031944FFF766BF41
:1040E000EC2400202DE9F04FDFF82082DFF810B239
:1040F000D8F80030DBF80040234087B079D013F0C7
:10410000012479D094FAA4F4B4FA84F40F2C86BF75
:10411000A4F11007FFB244F080074FFA87FA07F0C6
:104120000F05BAF1000F4FEA0519C0F297806B4BEB
:10413000072D03EB090600F2A48005F59473684A85
:1041400052F823300193654B716853F80990B28996
:10415000019B04A8C8470121049B01FA04F4E14330
:104160001BB1059B019A9A4260D8002849D05D4B4B
:104170001B68082B4AD0D8F80040B368059A0C4059
:1041800013445949B360BAF1000F4FF00103C8F866
:1041900000400B70049CC0F28980072D3ED8A80017
:1041A0004119890001F1804101F51C312823C1F832
:1041B0000047C1F80427034403F1804303F51C338F
:1041C00001221A60BFF36F8FBFF34F8F474A484BEE
:1041D000484913EA2A0338BF134633F8152002F181
:1041E000804202F51C3201E00B6813B91368002B02
:1041F000FAD007B0BDE8F08F93FAA3F4B4FA84F4D0
:1042000084E7384B30601B68082BB4D13A4B1B68ED
:10421000032BB0D8394B82221A60ACE730492823EF
:10422000C1F8A047A800C1F8A427C4E70224B473CA
:104230003348FFF711FB334B8DF80F4006221B6804
:104240008DF80E708DF80C2003A89847DBF800302D
:10425000D8F8004023407FF452AFCAE72A4F07EB5B
:10426000090604A87168B28957F8093098470121F6
:1042700001FA04F4E14300287FF479AF47F809001C
:1042800075E7174BD3F8C0340193DB037FF55BAFC1
:1042900071683768B28904A80023B847012101FA80
:1042A00004F4E14300287FF462AFAAE7072D07D9A1
:1042B0000B490423C1F8A046A800C1F8A4267AE758
:1042C000A8004119890001F1804101F51C31042346
:1042D000C1F80046C1F804266DE700BFC8230020DE
:1042E0000070024030010010BD230020E89C000057
:1042F000C89C000000710240340100101C7C024088
:10430000C0230020E824002058240020C4230020DB
:1043100038B5134BD3F86C44C3F86C44BFF36F8FBC
:10432000BFF34F8FA4B1012594FAA4F3B3FA83F33A
:10433000D9B20F2BA1F1100005FA03F3CCBFC0B224
:1043400041F0800024EA0304FFF730FE002CEBD19B
:10435000044B1B7803B138BDBDE83840FFF7C2BE3F
:1043600000700240BD23002030B51B4B1B68082B9A
:1043700083B017D0194B1A4C93F85E200021032A02
:10438000217005D01D6DADB1FFF7ACFE03B030BD9F
:104390006FF400111348FFF75FFA2378002BF3D076
:1043A00003B030BD104B1B68032BE3D80F4B00222A
:1043B0001A60DFE76FF400110A48FFF74DFA0C4B63
:1043C0008DF80750062105221B688DF804108DF822
:1043D000062001A89847E0E730010010C82300201C
:1043E000BD230020C0230020340100101C7C0240AB
:1043F000E8240020174B1B68082B21D0164B1749C7
:1044000093F88E200020032A087021D010B5D3F82D
:10441000804082B00CB102B010BD6FF080711048C6
:10442000FFF71AFA0F4B8DF80740062108221B6888
:104430008DF804108DF8062001A8984702B010BD31
:10444000094B1B68032BD9D8084B00221A60D5E70B
:10445000704700BF30010010C8230020BD2300209A
:10446000C0230020E8240020340100101C7C0240FE
:1044700010B51A4B1B68082B82B026D0184B19496F
:1044800093F81E210020032A087017D0D3F810419A
:104490000CB102B010BD6FF480711348FFF7DCF966
:1044A000124B8DF80740062188221B688DF80410F6
:1044B0008DF8062001A8984702B010BD6FF48071F6
:1044C0000948FFF7C9F902B010BD094B1B68032B5F
:1044D000D4D8084B00221A60D0E700BF300100108A
:1044E000C8230020BD230020C0230020E824002092
:1044F000340100101C7C02400E4B1B68082B10D0AE
:104500000D4B0E4993F89E200020032A087003D01B
:10451000D3F8903003B170476FF001010848FFF7FE
:104520009BB9084B1B68032BEAD8074B00221A6083
:10453000E6E700BF30010010C8230020BD230020A3
:10454000C0230020340100101C7C02400E4B1B686D
:10455000082B10D00D4B0E4993F8AE200020032AF3
:10456000087003D0D3F8A03003B170476FF0020198
:104570000848FFF771B9084B1B68032BEAD8074BB3
:1045800000221A60E6E700BF30010010C8230020B7
:10459000BD230020C0230020340100101C7C0240F9
:1045A0000E4B1B68082B10D00D4B0E4993F80E21B3
:1045B0000020032A087003D0D3F8003103B17047FC
:1045C0006FF080010848FFF747B9084B1B68032BC1
:1045D000EAD8074B00221A60E6E700BF300100105E
:1045E000C8230020BD230020C02300203401001078
:1045F0001C7C02400E4B1B68082B10D00D4B0E4943
:1046000093F8CE200020032A087003D0D3F8C030DE
:1046100003B170476FF008010848FFF71DB9084B58
:104620001B68032BEAD8074B00221A60E6E700BF9D
:1046300030010010C8230020BD230020C02300202B
:10464000340100101C7C02400E4B1B68082B10D05C
:104650000D4B0E4993F8DE200020032A087003D08A
:10466000D3F8D03003B170476FF010010848FFF75E
:10467000F3B8084B1B68032BEAD8074B00221A60DB
:10468000E6E700BF30010010C8230020BD23002052
:10469000C0230020340100101C7C02400E4B1B681C
:1046A000082B10D00D4B0E4993F8EE200020032A62
:1046B000087003D0D3F8E03003B170476FF02001E9
:1046C0000848FFF7C9B8084B1B68032BEAD8074B0B
:1046D00000221A60E6E700BF30010010C823002066
:1046E000BD230020C0230020340100101C7C0240A8
:1046F0000E4B1B68082B10D00D4B0E4993F8FE2073
:104700000020032A087003D0D3F8F03003B17047BB
:104710006FF040010848FFF79FB8084B1B68032B58
:10472000EAD8074B00221A60E6E700BF300100100C
:10473000C8230020BD230020C02300203401001026
:104740001C7C02400E4B1B68082B10D00D4B0E49F1
:1047500093F8BE200020032A087003D0D3F8B030AD
:1047600003B170476FF004010848FFF775B8084BB4
:104770001B68032BEAD8074B00221A60E6E700BF4C
:1047800030010010C8230020BD230020C0230020DA
:10479000340100101C7C024030B51B4B1B68082BF9
:1047A00083B017D0194B1A4C93F86E200021032ABE
:1047B000217005D01D6EADB1FFF794FC03B030BD84
:1047C0006FF480011348FFF747F82378002BF3D0EC
:1047D00003B030BD104B1B68032BE3D80F4B0022F6
:1047E0001A60DFE76FF480010A48FFF735F80C4ADA
:1047F0008DF80750062312688DF804308DF80630C6
:1048000001A89047E1E700BF30010010C823002055
:10481000BD230020C0230020340100101C7C024076
:10482000E824002030B51B4B1B68082B83B017D041
:10483000194B1A4C93F87E200021032A217005D0D1
:104840001D6FADB1FFF74EFC03B030BD6FF400013A
:104850001348FFF701F82378002BF3D003B030BDE5
:10486000104B1B68032BE3D80F4B00221A60DFE7C5
:104870006FF400010A48FEF7EFFF0C4B8DF807506C
:10488000062107221B688DF804108DF8062001A868
:104890009847E0E730010010C8230020BD23002026
:1048A000C0230020340100101C7C0240E8240020BA
:1048B00030B51B4B1B68082B83B016D0194B1A4C14
:1048C0009A7F0021032A217005D01D69ADB1FFF741
:1048D00009FC03B030BD6FF400311448FEF7BCFF93
:1048E0002378002BF3D003B030BD114B1B68032B92
:1048F000E4D8104B00221A60E0E76FF400310B4857
:10490000FEF7AAFF0C4B8DF80750062101221B6809
:104910008DF804108DF8062001A89847E0E700BF45
:1049200030010010C8230020BD230020C023002038
:10493000340100101C7C0240E824002030B51B4BE1
:104940001B68082B83B017D0194B1A4C93F82E20F4
:104950000021032A217005D01D6AADB1FFF7C2FB0B
:1049600003B030BD6FF480211348FEF775FF237844
:10497000002BF3D003B030BD104B1B68032BE3D8E2
:104980000F4B00221A60DFE76FF480210A48FEF720
:1049900063FF0C4B8DF80750062102221B688DF82F
:1049A00004108DF8062001A89847E0E730010010B8
:1049B000C8230020BD230020C023002034010010A4
:1049C0001C7C0240E824002030B51B4B1B68082BE0
:1049D00083B017D0194B1A4C93F83E200021032ABC
:1049E000217005D01D6BADB1FFF77CFB03B030BD6E
:1049F0006FF400211348FEF72FFF2378002BF3D02C
:104A000003B030BD104B1B68032BE3D80F4B0022C3
:104A10001A60DFE76FF400210A48FEF71DFF0C4B18
:104A20008DF80750062103221B688DF804108DF8BD
:104A3000062001A89847E0E730010010C8230020B5
:104A4000BD230020C0230020340100101C7C024044
:104A5000E824002030B51C4B1B68082B83B017D00E
:104A60001A4B1B4C93F84E200021032A217005D0CD
:104A70001D6CADB1FFF736FB03B030BD6FF4801194
:104A80001448FEF7E9FE2378002BF3D003B030BDC5
:104A9000114B1B68032BE3D8104B00221A60DFE791
:104AA0006FF480110B48FEF7D7FE0D4B8DF80750C1
:104AB000042206211B688DF804108DF806200DEBEA
:104AC00002009847DFE700BF30010010C823002034
:104AD000BD230020C0230020340100101C7C0240B4
:104AE000E824002030B41E4C2378002B35D11D491A
:104AF0001D4A0860012118462170154613464024BE
:104B000008E0082903F1100301F101010CBF4FF483
:104B1000007440240929A3F89C4083F89E00C3F840
:104B20009000C3F89800ECD101204024002300E05D
:104B30000846411C0929948193731360936002F124
:104B40001002F5D10201A9184FF4007088818B730F
:104B5000AB508B60002030BC7047082030BC7047E1
:104B6000BE230020E8240020C82300200249034A75
:104B700000230B6013707047E8240020BE23002040
:104B800038B5634B4FF40062C3F80024BFF36F8F56
:104B9000BFF34F8F5F4B1B68082B7AD05C4A012311
:104BA000C2F80035BFF36F8FBFF34F8FD2F80034D8
:104BB0001B05FBD54FF40063C2F80034BFF36F8FC1
:104BC000BFF34F8F534B1B68082B3AD0504A524DBE
:104BD000524850498024C2F81C45002340F2FF147B
:104BE000C2F830352B6004600A68082A05D14C4AA7
:104BF0001268032A9CBF4B4A13604B4D4B484C4AEA
:104C0000444B002402212C70047011701B68082B87
:104C100000D038BD424B1B68013B8B42F9D820467F
:104C2000FFF75EF8434B1A68002A62D1424849F206
:104C300075311960026019600020BDE83840FFF747
:104C400057B8374B1B68032BC0D80020FFF748F834
:104C5000384B1A68002A57D1384849F27531196023
:104C6000026019600020FFF743F82A4A2C4B1268B3
:104C70001B68082AAAD1032BA8D83149314B40F22E
:104C8000E370402208601A60BFF36F8FBFF34F8F4D
:104C90009CE7234B1B685A1E022A13D9032B3FF6AD
:104CA0007DAF0020FFF71CF8224B1A6842BB234956
:104CB00049F27532C0201A6008601A600020FFF7C0
:104CC00017F86BE70020FFF70BF81A4B1A689AB930
:104CD000194949F2753203201A6008601A600020F1
:104CE000FFF706F80B4A0E4B12681B68082AD5D04E
:104CF00054E7114B1C609FE70F4B03221A60EEE74D
:104D00000E4BC0221A60D9E70C4B00221A60A9E7AB
:104D10000070024030010010C0230020C423002096
:104D2000340100101C7C0240BD230020EC24002034
:104D3000BE23002000EC064014ED064014EC0640B3
:104D4000007802400478024030B40D4B0D4D0E4CFB
:104D50000E4A0F4900280CBF18462846002323702E
:104D6000C02580240123C2F8040381F827534C6036
:104D7000C2F80435BFF36F8FBFF34F8F30BC70475D
:104D80000714C0010714E001BC230020007002409A
:104D900000E100E0034B1878012894BF00200120B7
:104DA000704700BFBE230020044B1B78012B83BF3C
:104DB000034B5868C0F3C01000207047BE2300208A
:104DC00000E100E010B50020FEF78AFF164B1B78CB
:104DD00003F0FF0453B1154BD3F82C255AB1144AF4
:104DE00012680021082AC3F82C150AD00020FEF70B
:104DF0007FFF204610BD14460020FEF779FF2046B5
:104E000010BD0C4B1B68032BF0D80B4B1A681AB162
:104E10000A4BC0221A60E9E7084949F27532C020FE
:104E20001A6008601A60E1E7BC23002000700240AD
:104E3000300100103401001000EC064014EC064074
:104E4000024B034AC3F80823704700BF00700240BA
:104E500004148001024B034AC3F80423704700BFC7
:104E60000070024004148001014B00221A70704748
:104E7000BC230020064B10F0800FA3F1900200F03D
:104E80000F0008BF134603EB00139889704700BF5B
:104E900058240020064A010600F00F034CBFD2F848
:104EA0001005D2F81405D84000F00100704700BF8B
:104EB000007002402DE9F04147B2002F00F00F04CE
:104EC000ACBF10250025804600200E462544FEF785
:104ED00007FF1CB9304B1B78434533D12F4BDFF80C
:104EE000E8E01B68DEF800C0DB439BB2012243EA26
:104EF0000C0302FA05F52B422BD124B204EB440338
:104F0000002F4FEA83034FEA041429DB244F254A7C
:104F1000254939511344274496E807004CEA050512
:104F2000224ECEF800500024802583E80700C7E910
:104F30000134BC730020C6F80451FEF7D9FE2046A8
:104F4000BDE8F08110240020FEF7D2FE2046BDE827
:104F5000F08111240020FEF7CBFE2046BDE8F08151
:104F6000134A3168134801F060411344B268B1F14B
:104F7000005F00EB040702F0010203D032B90E4AD1
:104F80000251C9E72AB90D4A0251C5E70C4A02513C
:104F9000C2E70C4A0251BFE7EC240020C4230020E2
:104FA000C823002018290020053D000000E100E092
:104FB000AC28002058240020093E00003D3D0000A0
:104FC000413E0000653D0000C02300202DE9F04176
:104FD00046B2002E00F00F04B4BF00231023804619
:104FE00000200F46E518FEF77BFE1CB91C4B1B7812
:104FF000434527D11B4B1C4918680A68C04380B23F
:1050000001231043AB40184023D1184DDFF860C096
:10501000A5F1900E15EA260638BF7646240135190B
:105020001343A8603A6832517C686C608022A87390
:105030000B600446CCF804210020FEF759FE204600
:10504000BDE8F08110240020FEF752FE2046BDE8A6
:10505000F08111240020FEF74BFE2046BDE8F081D0
:10506000EC240020C4230020C0230020582400206A
:1050700000E100E000487047F0240020044B40F4B9
:105080008070C3F81805BFF36F8FBFF34F8F704761
:105090000070024000F00F03072B0BD802060BD460
:1050A0000B4A9B001A445068A0F10100B0FA80F04E
:1050B000400970470020704703F58473054A52F891
:1050C0002300A0F10100B0FA80F04009704700BF52
:1050D0004074024000700240064BC3F80C05BFF359
:1050E0004F8F40F48070C3F80C05BFF36F8FBFF390
:1050F0004F8F70470070024010B50822002104460F
:10510000FBF710F90E4BD3F880242270D3F88424D7
:105110006270D3F88824D3F88C1442EA01226280AA
:10512000D3F89024D3F8941442EA0122A280D3F851
:105130009824D3F89C3442EA0323E38010BD00BFD7
:1051400000700240034B01221A60BFF36F8FBFF360
:105150004F8F70474C700240034B01221A60BFF31F
:105160006F8FBFF34F8F704750700240034B012287
:105170001A60BFF36F8FBFF34F8F704754700240B8
:10518000014B1878704700BFEC24002038B5044666
:105190000020FEF7A5FD104D14F0800F14BF002273
:1051A000102204F00F0081182B6801228A4023EAA4
:1051B000020307282B6009D800F59470074B0022E2
:1051C00043F82020BFF36F8FBFF34F8F0020BDE85F
:1051D0003840FEF78DBD00BFC423002000700240A0
:1051E0002DE9F04F5B4CDFF878A12368DFF884915C
:1051F000DAF8002099F800705749DB439BB213435B
:105200003A0683B007F00F08D1F880543ED408F175
:10521000100201269640334219D1504E01AF05F0DD
:1052200080056FF001114E4889F80050FEF714FB1D
:10523000236832680521002543F0010301953846B3
:105240008DF804102360904703B0BDE8F08F002074
:10525000FEF746FDDAF8003042494FEA081836EA10
:10526000030001EB080B5DD1226841F80800F6430A
:1052700033403240CAF8003022600323374E8BF8A7
:105280000E3001AF0020FEF733FDC8E74FF0010BF1
:105290000BFA08FB13EA0B0FBFD00020FEF720FD2E
:1052A000314A4FEA0811B8F1070F02EB010014D898
:1052B000802F3BD0DFF8B8C02C4E08F2DA384FEA26
:1052C0004803CCF800303368D6F800C0DBB243F0B6
:1052D000020343EA0C03336033682368DAF800C042
:1052E0006CEA030616EA0B0F31D01C4E8DF80670DF
:1052F0002CEA0B074FF000084FF0030CCAF80070BF
:105300004FF0060E01AF42F8018043EA0B0380F82C
:105310000EC032688DF807C08DF804E0384623606F
:105320009047AFE73846FFF731FFA6E7104B0F4E27
:1053300040F2B47CC3F800C03368D6F800C0DBB2DA
:1053400043F0040343EA0C0333603368C5E701AF5D
:10535000024E97E7C423002000700240E82400209A
:10536000C0230020C82300205824002004780240D5
:1053700000780240EC240020224BD3F804130029CB
:1053800039D02DE9F04100252F46012691FAA1F3ED
:105390001D4AB3FA83F39800024406FA03F0146836
:1053A0002CB11760BFF36F8FBFF34F8F054381435D
:1053B000ECD105F4000735F400050DD0DFF850807E
:1053C000012695FAA5F4B4FA84F458F8243006FAC4
:1053D00004F49847A543F4D10C4B1B7833B10FB9B3
:1053E000BDE8F081BDE8F041FFF7FABEFEF77AFEB6
:1053F000002FF5D0F6E7054B1B7803B17047FEF799
:1054000071BE00BF0070024000710240BD23002049
:10541000FC9C000038B545B2002D00F00F0430DBD5
:10542000224B234A195D012303FA01F1C2F8041348
:10543000D2F81415E140C90730D4D2F81415A340AE
:105440000B43C2F81435BFF36F8FBFF34F8F631E4A
:10545000062B23D8002D21DB05460020FEF740FC5B
:105460002846FFF793FE134910340B68012202FA15
:1054700004F423EA04030B600020BDE83840FEF783
:1054800037BC0D4B0A4A195D012303FA01F1C2F83A
:105490000413D2F81015E140C90700D538BDD2F881
:1054A0001015A3400B43C2F81035CCE7DC9C00007C
:1054B00000700240C0230020BC9C0000030610B511
:1054C000044609D400F00F03072B05D8084A9B00B7
:1054D0001A445368012B07D0064BC3F81845BFF395
:1054E0006F8FBFF34F8F10BDFFF750FEF4E700BF83
:1054F00040740240007002402DE9F04F514FDFF838
:1055000054813B68D8F800204FEA134B4FEA0B4B0D
:105510005BEA020B85B040D0DFF83C91012604E045
:1055200006FA04F43BEA040B37D09BFAABF4B4FA66
:1055300084F4E5B20F2CC6BF103DEDB245F08005F6
:1055400005F00F0ABAF1070FEAD80020FEF7C8FBF2
:105550002B064FEA0A1026D40AF1100AD8F80010D8
:1055600006FA0AFA3AEA010309EB000254D13D684F
:1055700049F800306FEA0A0A01EA0A0105EA0A035B
:10558000C8F800103B6003239373002006FA04F46C
:10559000FEF7AEFB3BEA040BC7D140F2FF133B60C2
:1055A00005B0BDE8F08F284A802D02EB000C39D001
:1055B00026490AF2DA335B000B604B680431DBB238
:1055C000096843F002030B4321490B600B683968FB
:1055D000D8F8003006FA0AFA63EA010E1EEA0A0F4A
:1055E000D3D023EA0A03DFF874E08DF80E5041EAC5
:1055F0000A010025C8F800304FF0060A03231550B1
:105600008DF80F30DEF800208CF80E308DF80CA0ED
:1056100003A839609047B8E728460192FFF7B6FD26
:10562000019AB0E7094B40F2B471196008490B6860
:105630000968DBB243F004030B4305490B600B68B8
:10564000C5E700BFC4230020582400200078024092
:1056500004780240C0230020C8230020E824002052
:1056600008B5FFF749FF084B0022C3F80425BFF334
:105670006F8FBFF34F8F054980204FF0FF32C1F885
:105680008400C3F8082308BD0070024000E100E078
:10569000044B8022C3F884215B681B0600D470474A
:1056A000FFF7DEBF00E100E008B5134B8022C3F82E
:1056B00084215B681B061CD4104B0022D3F8041312
:1056C000C3F80813C3F80025BFF36F8FBFF34F8FE4
:1056D0000B4B1B68082B05D10A4B1B68032B9CBF87
:1056E000094B1A6009490A4B0020012208701A7000
:1056F00008BDFFF7B5FFDFE700E100E00070024002
:1057000030010010340100101C7C0240BD23002039
:10571000BE23002010B50020FEF7E2FA104B1B78E4
:105720002BB900240020FEF7E3FA204610BD03F059
:10573000FF04FFF7E1FE0B4AD2F8003413F40073C4
:10574000EFD10121C2F82C15D2F80014890544BF0D
:105750001C46C2F82C350020FEF7CAFA204610BDC0
:10576000BC230020007002402DE9F041044682B0C5
:105770000020FEF7B5FA04F00F0322064FEA0310EB
:105780001FD4374E374D316803F110020123934087
:1057900033EA010205EB00070FD1334C2A5022688F
:1057A000DB4319401340316023600323BB730020A7
:1057B000FEF79EFA02B0BDE8F0812046FFF7E6FC56
:1057C000F3E72A49072B01EB00050FD8802C39D0CD
:1057D000274F284E03F2DA3252003A6032683768B7
:1057E000D2B242F002023A4332603268DFF878C047
:1057F000DFF86C80DCF800E0D8F80020012762EACE
:105800000E0607FA03F31E42D1D022EA03021A4E13
:105810008DF80640C8F800200027032206240F5008
:105820004EEA03033168AA738DF8072001A88DF8AA
:105830000440CCF8003088470020FEF759FA02B047
:10584000BDE8F0810A4A0B4E40F2B4771760326827
:105850003768D2B242F004023A4332603268C5E798
:10586000C0230020C8230020C42300205824002087
:105870000078024004780240E82400202DE9F04737
:10588000054600F00F0482B000206EB2FEF728FA41
:10589000002E4FEA04113CDBDFF848C14A48DCF82F
:1058A000002004F110070123BB4033EA020E00EB95
:1058B00001072AD1454D40F801E02968DB431A4031
:1058C0000B40CCF800202B600323BB730020FEF7B5
:1058D0000FFA3F490122D1F81435A24023EA02030E
:1058E000C1F81435BFF36F8FBFF34F8F394B3A4A6E
:1058F000374932EA260228BF1A460123125D934037
:10590000C1F8083302B0BDE8F0872846FFF73EFC37
:10591000DAE7DFF8D4C0072C0CEB010834D9DFF844
:10592000ACE0DFF8C0A0DEF80020DAF800000123C8
:10593000A34060EA020919EA030F6FEA030719D0CE
:105940003840DFF8A890CAF800008DF80650032010
:1059500000254FF0060A13434CF801508DF807005C
:1059600088F80E00D9F800208DF804A001A8CEF820
:10597000003090470020FEF7BBF9154AD2F81035E9
:105980001F40C2F81075ADE7802D0ED01348144AA1
:1059900004F2DA335B00036013681068DBB243F093
:1059A0000203034313601368B9E70C4B0C4A40F23F
:1059B000B470186013681068DBB243F0040303434B
:1059C00013601368ABE700BFC8230020C423002086
:1059D00000700240BC9C0000DC9C0000007802408B
:1059E00004780240C023002058240020E82400202E
:1059F0000378052B02D0094B1B681847084BD3F8D6
:105A00008424D3F8803413F0FF0FF4D1054BD2B2C5
:105A1000052A08BF1846014B1B681847302500208F
:105A200000700240689D0000014B02481B68184747
:105A3000302500206C9D00002DE9F04F87B006AFA7
:105A400000260446894692469B4647F8106D00E0C2
:105A50000136626801235568214600223846A8476E
:105A60000028F5D18DF80600049066B380460546FF
:105A70000AE09DF806306768023B7F68B8479DF8EA
:105A800006301D44AE421ED9626801235768214684
:105A90000DF1060204A8B847626801235768214641
:105AA0000DF1070204A8B8479DF807304B454FF0A9
:105AB0000002214604A8DCD1C24508D008F1010843
:105AC0005FFA88F8D5E7052007B0BDE8F08F109A97
:105AD0009DF8063013608BF800308BF801906168F8
