:040000030000314D7B
:10000000008000204D310000753100007731000084
:10001000793100007B3100007D31000000000000DC
:100020000000000000000000000000007F31000020
:1000300081310000000000008331000085310000A4
:10004000DD35000087310000111400008731000009
:100050008731000000000000873100000000000030
:1000600087310000873100008731000087310000B0
:1000700087310000873100008731000087310000A0
:1000800079330000C532000087310000873100005D
:100090008731000087310000873100008731000080
:1000A0008731000087310000873100000000000028
:1000B0000000000000000000000000000000000040
:1000C0000000000000000000000000000000000030
:1000D000000000000000000000000000054F0000CC
:1000E0000000000000000000000000000000000010
:1000F0000000000000000000000000000000000000
:1001000000000000000000000000000000000000EF
:1001100000000000000000000000000000000000DF
:1001200000000000000000000000000000000000CF
:1001300000000000000000000000000000000000BF
:1001400000000000000000000000000000000000AF
:10015000000000000000000000000000000000009F
:10016000000000000000000000000000000000008F
:10017000000000000000000000000000000000007F
:10018000000000000000000000000000000000006F
:10019000000000000000000000000000000000005F
:1001A000000000000000000000000000000000004F
:1001B000000000000000000000000000000000003F
:1001C000000000000000000000000000000000002F
:1001D000000000000000000000000000000000001F
:1001E000000000000000000000000000000000000F
:1001F00000000000000000000000000000000000FF
:1002000010B5054C237833B9044B13B10448AFF350
:1002100000800123237010BD8C020020000000002C
:10022000749B000008B5034B1BB103490348AFF3AF
:10023000008008BD0000000090020020749B0000B8
:10024000154B002B08BF134B9D46A3F5803A0021A8
:100250008B460F461348144A121A00F063F80F4BEE
:10026000002B00D098470E4B002B00D09847002061
:10027000002104000D000D48002802D00C48AFF307
:10028000008000F02BF82000290000F0FDF900F0BC
:1002900011F800BF000008000080002000000000EE
:1002A000000000008C0200205C25002000000000FF
:1002B0000000000008B5074B044613B10021AFF35E
:1002C0000080054B1868836A03B19847204600F008
:1002D00031F800BF00000000C492000070B50D4E60
:1002E0000D4CA41BA4100025A54209D10B4E0C4CAB
:1002F00008F0DCFFA41BA4100025A54205D170BDA9
:1003000056F8253098470135EEE756F825309847DE
:100310000135F2E7840200208402002084020020DC
:100320008802002002440346934200D1704703F83C
:10033000011BF9E7FEE700BF002001F0F3BE00BF9C
:1003400070B582B0044608F043FB164905462046C6
:1003500008F05BFB60B1031BEB1A092B08DD124BA5
:10036000DA7A997B82711A7B1B7AC17102724372AD
:100370000E4E29462046F568A84700F009FC0921E1
:1003800000F11C040A48A847204608F021FB01465A
:100390002046A847736901930A2002B0BDE8704067
:1003A000184700BFE8920000089400009C930000EA
:1003B000F09200002DE9F04180460C46012542F202
:1003C000014600270DE00D2801D8334213D1D4E9AE
:1003D0000132934203F101022BBF236862601F7058
:1003E0001870D8F800309847421C05FA00F3EAD19B
:1003F0000020BDE8F081636800221A700120BDE88A
:10040000F08100BF70B5184C18482146FFF7D2FFA5
:1004100000B970BDD4E90001154D164B091A2A46E2
:1004200002F08AFD50B114481449154A00230625EC
:1004300005600B6013602368636070BD114920681C
:1004400008F0B4FA06460028F5D1EB680E480421FE
:1004500098470A480D49084A094B06600820086079
:10046000062111601E60E6E7C0000020AC9300008A
:10047000489300009C930000A8020020B4020020D2
:10048000B8020020DC920000E0920000E4060020A8
:1004900070B5164C16482146FFF78CFF00B970BDA9
:1004A000D4E90001134B144A091A02F0DBFC28B905
:1004B000124D20682B685BB9606070BD104B11490C
:1004C000114A206806251D6000230B601360F3E7C6
:1004D00005220E4908F0DEF906462068002EEBD111
:1004E000FFF72EFF20682E60E6E700BFB400002073
:1004F000589300009C93000048930000E4060020FD
:10050000A8020020B4020020B802002080000020D1
:1005100070B5038882B004466BB1CE2B06D1882912
:1005200031D0CE230120238002B070BD0023038090
:10053000032002B070BD4FF0A043444E44493268DE
:1005400003250820C3F80805C3F80C572846904730
:10055000404B41491B682846984710213F4807F007
:10056000EDFD3F4802F0CCF8304602F03DFC02F0D1
:1005700035FC0028D5D03B493B4B30204FF404726A
:1005800008601A60CDE7354B9A42CAD110460192F5
:1005900007F0E8FD019A0028C3D0104607F0D8FD07
:1005A000324A136813B1013B136023B32E4A10681B
:1005B00010B10138106048B32A4D2B687BB14FF061
:1005C000A042D2F81025D20319D4013B13F0010F39
:1005D00027482B6008BF002001F0A4FDA1E7254DAE
:1005E000254A2968106819B1012821D9136098E7B4
:1005F00088B1431EFAE72148FFF7A2FED6E70020A4
:1006000001F090FD00F05AFC2B68DEE701F08AFD56
:1006100000F054FCD0E707231360194A1368012B3C
:100620000DD9002313604FF47F0001F07BFD78E7C4
:100630000028DBD10139072329601360EDE701337E
:100640001049136051F82300EFE700BF4893000002
:10065000910400009C93000005040000C8040020E1
:1006600039030000B4020020B8020020E406002094
:10067000FF80FF00A8020020B002002080000020C0
:10068000AC020020D092000010B502F06DFB00F02B
:1006900097FB094807F0C4FB07F066FE044600F02C
:1006A0006BFA002CF8D172B607F0B0FE10B9BFF3A8
:1006B0004F8F30BF62B6EFE7C89200002DE9F041DE
:1006C000D0E902470546E41B406894421646384488
:1006D0000DD8161B8846224608F0EBF808EB0401FB
:1006E0003246686808F0E5F8EE60BDE8F0813E4407
:1006F00008F0DFF8EE60BDE8F08100BF2DE9F843B7
:100700008846D0E90215064617464FF000093369BE
:1007100070689D4203F1FF3426BF03F1FF335B187D
:10072000631BA1EB050428BF5B1BBC4228BF3C46F2
:100730009C4228BF1C4641462844224608F0B9F88E
:10074000B1682544A94208BF00253F1BA144A0442D
:10075000F560DCD14846BDE8F88300BF38B5114CE0
:10076000114BE3614FF4006310482362102500230E
:100770000F4AA3620F496066A56663622367E3665A
:10078000E01D01230325E3626367A2612266C4E9D9
:10079000045508F015F92046074908F011F92023FF
:1007A000A37138BDC4230020F8060020E80600200D
:1007B000FC920000089300000C9300002DE9F04F1C
:1007C000DFF8A89099F8003083B080468B469246B7
:1007D000002B47D04FEA480707EB080609EBC6068F
:1007E000356FF36E9D421FD85C1B544528BF54469D
:1007F0001CB9204603B0BDE8F08F002607EB0803C4
:1008000009EBC3032246596E5846294408F051F8B3
:1008100025443444002CECD0474409EBC70720465C
:100820003D6703B0BDE8F08FD6E91914641B544549
:1008300028BF5446224629445846019308F039F807
:10084000B26E019B2544AA42AAEB040A14BF5B1BAB
:100850000025534528BF5346002BDBD0A344264632
:100860001C46CBE7FFF77AFFB4E700BFC4230020A4
:1008700010B50B46EFF311844FF0200181F311887E
:100880001946FFF79BFF84F3118810BD70B5204D0A
:1008900000EB400305EBC3030130DC6A00EB4000D2
:1008A000012C05EBC0000E46154617D008D3022CCC
:1008B00002D00024204670BDBDE87040FFF71EBF87
:1008C0009A6A596A8A421DD9013A521A9542F1D858
:1008D00031462A46FFF7F2FE2C46EBE79A6A5C6A3D
:1008E000A2420AD9013A141BAC4228BF2C46314619
:1008F0002246FFF7E3FE204670BD1B6A1344013B0E
:100900001C1BF1E71B6A1344013B5A1ADEE700BFC8
:10091000C423002030B50C4B1B7883B00D462BB997
:10092000CDE90002FFF71AFFDDE90002EFF31184C1
:100930004FF0200181F311882946FFF7A7FF84F3C8
:10094000118803B030BD00BFC4230020044B00EB6E
:10095000400003EBC003D86E1B6FC01A704700BF86
:10096000C42300200C4BDA6E1B6F9A4211D000B5E5
:1009700083B001220DF107010020FFF779FF012864
:1009800004D19DF8070003B05DF804FB4FF0FF3081
:10099000F9E74FF0FF307047C42300202DE9F04104
:1009A0000A460D46074601460020FFF7B3FF854281
:1009B000044610D8164E4CB93368012B01DC0133C4
:1009C00033602046BDE8F081002CFAD0002333606C
:1009D0002046BDE8F08100F0EBF900F500600C4E18
:1009E0001FFA80F808E03368012BEDDC00F0E0F935
:1009F000A0EB08000304DED52A1B39190020FFF7FD
:100A000089FF0444A542EED8002CD5D0DEE700BF14
:100A10003C0F002009B908467047FFF7BFBF00BF71
:100A200000B583B002AB012103F8010D1846FFF7B2
:100A3000B5FFA0F10100B0FA80F0400903B05DF805
:100A400004FB00BF38B5054600200C46FFF77EFFCB
:100A5000A04228BF204600B938BD224629460020C2
:100A6000BDE83840FFF704BF10B50F4802F044FB63
:100A700003280BD8DFE800F0020B020B0B4C2378A5
:100A800023B10B4807F084FA0023237010BD0749F7
:100A90000B78002BFAD101240C70064A0448192166
:100AA000BDE8104007F04CBA1C0F0020F80E0020E3
:100AB000FC0E0020ED0A000008B50146034802F0D4
:100AC00009FBBDE80840FFF7CFBF00BF1C0F0020A7
:100AD00010B50A460146044802F0EAFA044608B195
:100AE000FFF7C2FF204610BD1C0F002008B50B4BBE
:100AF0001B788BB10A4BDA6E1B6F9A4204D10948FE
:100B0000BDE8084007F028BA074802F00FFB054887
:100B1000BDE8084007F020BA08BD00BFF80E00206D
:100B2000C4230020FC0E00201C0F0020704700BFD3
:100B300008B50949094802F033FC48B9084802F0F1
:100B400069FC08B103F05EF8064B01221A7008BD7B
:100B500003F058F8F2E700BF2D0B00002C930000C3
:100B6000400F0020410F0020024B1B7803B9704753
:100B700002F042BC410F0020034B1B7803B97047C1
:100B8000024B187802F06ABC410F0020400F002091
:100B9000034B186818B90348034A1044186070479B
:100BA000440F0020449E0000B8FFFFFFF8B5294B1A
:100BB000294DD3F804452B68284A294F166829493E
:100BC000DFF8B8C0E31A23F07F43C3EB431003EB15
:100BD00080003044106010681668C6F3080616607E
:100BE0003E68400A06443E600F681F4E3844086065
:100BF0000A680F68ACFB020292094FF47A7000FB9E
:100C00001270086031681948194F0A44326002684E
:100C100018491344036002683B6803EB12133B60FE
:100C2000036803F00F030360224610320A40131BCF
:100C300023F07F43012BF8D9012300210E482C60BB
:100C400002F0F2FA07F094FA00B9F8BDBDE8F840F6
:100C500007F06EBA001001404C0F00205C0F00201E
:100C6000580F0020640F0020600F0020540F002058
:100C7000500F0020F0FFFF0040930000D34D6210A2
:100C800000B1704710B50446FFF790FF014B1C7090
:100C900010BD00BF680F002070B500230E4E0F4D31
:100CA0003370184602F006FED5F804452834A4B285
:100CB00004E0D5F804351B1B1B0405D502F07CFEAF
:100CC0000028F6D001233370044BBDE87040D3F800
:100CD000043502F01DBE00BF480F00200010014087
:100CE00070B52348234E244D244C2549254A002322
:100CF00082B033602B60236003600B60136002F0EE
:100D000081FD002830D102F095FC002002F09CFD0E
:100D100002F0C8FD0028FBD01B4B1C4C1C4A93E87A
:100D2000030000230090ADF804101A4823706946B0
:100D300002F02AFA08B102F065FF174C1749184A69
:100D4000144801232360D1F8041511601268103291
:100D500022F07F42002102F067FA0E4802F058FAB2
:100D6000FFF79AFF02B070BD02F04CFFCBE700BF67
:100D7000580F0020540F0020500F00205C0F00205F
:100D8000640F0020600F002038930000680F0020DF
:100D9000810C000040930000081001400010014049
:100DA0004C0F0020014B1868704700BF500F002007
:100DB000024BD3F8040580B2704700BF0010014019
:100DC00010B5264B1C6814F0010482B01FD100F04E
:100DD00039FE00F04FF800F063FFFFF781FFFFF7E7
:100DE000A7FE07F0A7FA21461D4807F07BFA07F097
:100DF0006DF8FFF7B9FE204607F0AAFB194B1B68F8
:100E000001932146022002B0BDE810401847164B5E
:100E10000122C3F80425D3F80024002AFBD00F498F
:100E2000114A0B6823F001030B60D2F80034002B49
:100E3000FBD000230C49C2F80435D1F80034002B54
:100E4000FBD0BFF34F8F0949094BCA6802F4E06237
:100E50001343CB60BFF34F8F00BFFDE70C120010B0
:100E60000C0100201493000000E0014000ED00E0C0
:100E70000400FA054FF080434FF0FF31D3F800240F
:100E8000C3F800140C490B784AB943F0010362F32C
:100E9000410362F3820362F3C3030B70704750088F
:100EA00003F0FE0360F34103900860F3820362F3F2
:100EB000C3030B70704700BF6C0F0020BFF34F8F50
:100EC0000549064BCA6802F4E0621343CB60BFF3E6
:100ED0004F8F00BFFDE700BF00ED00E00400FA0502
:100EE000084A094B11681B68994208D011681368B9
:100EF00006480133C3F30803405C136070474FF0AA
:100F0000FF3070477011002074110020700F002016
:100F10002DE9F843224B234D1F682B682C68BB42F8
:100F20000E461DD9C4F50074A1422AD92968DFF8FC
:100F3000789022464944804607F0BBFC00232B6092
:100F40005FB1361BB74228BF3746494608EB04005D
:100F50003A4607F0AEFC2F603C442046BDE8F883DB
:100F60003C1BFAD02B681049B44228BF34462246B5
:100F7000194407F09EFC2B6823442B602046BDE8F3
:100F8000F8832B6808493246194407F092FC2B6815
:100F90003344C3F3080334462B602046BDE8F8838E
:100FA0007411002070110020700F002010B503880C
:100FB00004461BB1B42B05D1822907D0B42323806A
:100FC000012010BD00230380032010BD014802F062
:100FD000ADF8F3E78415002030B40B490B4B4FF00C
:100FE000A0420425C1F8805000244FF0FF300221B8
:100FF000C3F80045C3F80C05C3F81405C2F8081778
:10100000C2F8141730BC704700E100E00020004037
:10101000134A1378FBB110B4124B134900244FF458
:1010200080701470C3F808030A784AB10122DA60AC
:1010300002E0D3F820211AB9D3F85821002AF8D0B9
:101040000A4B1B7801220A701BB9064BD3F80035F6
:1010500013B910BC7047704710BCFFF7BDBF00BF8D
:10106000A51500200020004080150020A4150020B8
:1010700070B4124B124A4FF0A04004210324022501
:10108000C0F80847C0F808150024C3F80C5505251A
:10109000C0F814474FF0EB76C3F814550820C0256C
:1010A000C3F86C45C3F8246582F80253C2F8801176
:1010B0001160C3F8000570BC704700BF00200040FD
:1010C00000E100E008B50D4B0D4918680D4A0860B5
:1010D0000D4B01211170D3F8003563B10A4B0B4859
:1010E00000224FF480710270C3F82021C3F8582108
:1010F000C3F8041308BDFFF7BBFFEFE77C15002022
:1011000078150020A5150020002000408015002043
:1011100070B41D4A1D4913680C680133C3F30903F9
:101120009C422AD015681A4C60551A4D13602B78D2
:1011300003F0FF00FBB908681368984220D00868E4
:101140001368984234BF13680B68134A38BF1B1AE0
:1011500047F6FF7128BFC3F5806347F6FE76044467
:10116000B34288BF0B460121C2F844450846C2F885
:1011700048352970916070BC7047002070BC704782
:10118000012070BC704700BF7C150020781500203E
:101190007811002080150020002000402DE9F04744
:1011A000002962D03B4EDFF8FC90D9F8007033681C
:1011B00035689F420C4680461DD8C5F58065A9421A
:1011C00057D93068DFF8D0A02A465044414607F08E
:1011D00070FB0023012F33601FD9791E671B8F42DC
:1011E00028BF0F46504608EB05013A4607F061FB61
:1011F00037603D4411E07F1B012F48D9791E8C4296
:101200003368254828BF0C462246414618442546E7
:1012100007F04FFB336823443360204A13782BBB1D
:10122000D9F800103368994220D0D9F800403368CB
:1012300019481B499C4236BF3368D9F800301B1B44
:10124000204428BFC3F5806347F6FE7647F6FF7457
:10125000B34288BF23460124C1F84405C1F848358C
:1012600014708C602846BDE8F0870D462846BDE81E
:10127000F0873368084841461844224607F019FBB6
:1012800033682344C3F3090333602546C5E70025CB
:10129000C3E700BF7C1500207811002080150020D6
:1012A0000020004078150020124A134B10B5102082
:1012B000002401211C70C2F808031346516002E0AB
:1012C000D3F810211AB9D3F84421002AF8D00B4BD7
:1012D0001B781BB9074BD3F8003523B90848BDE884
:1012E000104007F021B8FFF777FE0548BDE8104031
:1012F00007F01AB800200040A4150020A515002012
:10130000CC00002038B5124C12492068124A0860FF
:10131000124B01211170D3F80035B3B10F4B104AB5
:10132000104800211025C3F81011C3F84411C3F868
:101330000453246822440124C3F83425C3F83845F3
:101340001C60BDE8384006F0CDBFFFF791FEE5E731
:101350007411002070110020A4150020002000400E
:10136000700F0020CC00002008B5194801F0C4FE21
:10137000032808D8DFE800F01A021308FFF748FE38
:10138000144B1B78E3B108BD124B1B78E3B1124B31
:101390001B78002BF7D1BDE80840FFF793BE0D4B3B
:1013A0001B78002BF3D0FFF77FFFF0E7094B1B788A
:1013B0001BB9BDE80840FFF72BBEFFF775FFF8E744
:1013C000BDE80840FFF79EBFFFF79CFFDFE700BFC7
:1013D00084150020A4150020A515002008B501469D
:1013E000034801F077FEBDE80840FFF7BDBF00BF2E
:1013F0008415002010B50A460146044801F058FE45
:10140000044608B1FFF7B0FF204610BD8415002048
:1014100038B52A4BD3F81021DAB1294A29480021DE
:10142000C3F810111368284901330968C3F308038E
:10143000994218BF13601168244B204A0B440121C4
:10144000C2F83435116007F00BF8214B186807F02B
:1014500007F81A4BD3F8202162B31E4A1E49002018
:10146000C3F82001D3F84C3514682344C3F30903AF
:10147000136014680B689C421DD010680B68174CF1
:10148000984234BF0B68136815490C4A38BF1B1AC1
:10149000014428BFC3F5806347F6FF7047F6FE7529
:1014A000AB4288BF03460120C2F84415C2F8483554
:1014B0002070906038BD094B187038BD0020004086
:1014C00074110020CC00002070110020700F00204B
:1014D000A8150020781500207C150020801500201C
:1014E0007811002010B50E4B84B01C788DF80700E1
:1014F00014B9204604B010BD04AA012342F8043DEB
:101500000DF10701074806F0BDFB28B9039B1BB18D
:10151000054806F0A5FFECE70024204604B010BD06
:101520004016002090930000DC000020032906D81C
:10153000DFE801F002140E080B4B01221A700B4871
:1015400006F08EBF0A4B094801221A7006F088BFC8
:10155000084B064801221A7006F082BF064B03486A
:1015600001221A7006F07CBF3E160020DC0000202D
:101570003C1600203D1600203F1600200F4B1B7824
:10158000C3B110B582B002AA0D4C0E48012342F837
:10159000043D2146002306F0B3FB40B9019931B167
:1015A000084806F029FC2368187802B010BD4FF0F7
:1015B000FF30FAE74FF0FF30704700BF40160020C1
:1015C00038160020849300000E4B1B78BBB100B589
:1015D00083B00B460193014653B101AA0A4806F0B5
:1015E00051FB08B9019B1BB9002003B05DF804FB57
:1015F000064806F035FF019803B05DF804FB184675
:10160000704700BF4016002090930000DC000020CF
:101610000C4B1B783BB100B583B0019129B908464A
:1016200003B05DF804FB18467047014601AA06485E
:1016300006F0A4FB10B901990029F0D1002003B0F5
:101640005DF804FB401600208493000010B506F0FE
:1016500015FA012801D904F0ABF8094C204606F030
:101660000DFF30B1074B1B68A34202D0204606F0A5
:101670005BFE002000F00CFABDE8104004F082B8D8
:10168000DC000020B023002038B5184C23783BB193
:10169000174806F0F3FEE8B1BDE8384004F070B832
:1016A00003F0FF0506F0F0F9284603F0D5FFC8B9AE
:1016B000104B114A1846136004F088F808B102F084
:1016C000A1FA0E4A0A4802232370137006F0D6FED0
:1016D0000028E1D10146064806F004FEBDE8384086
:1016E00004F04EB802F08EFAE2E700BF601A002064
:1016F000DC0000206093000034160020611A0020F6
:1017000008B50B4801F0F8FC50B1032800D908BD1A
:1017100003F024F90028FAD1BDE80840FFF7B4BF70
:1017200003F01CF90028F2D0BDE80840FFF78EBF97
:10173000801E002008B50146034801F0CBFCBDE83F
:101740000840FFF7DDBF00BF801E002010B50A462D
:101750000146044801F0ACFC044608B1FFF7D0FF95
:10176000204610BD801E002070B582B00D4C02A92D
:101770000023224641F8043D064601250A4825601B
:1017800006F01EFA22682AB13046019905F056FD8E
:1017900002B070BD054B06481D7006F061FE02B038
:1017A00070BD00BF5C1A0020849300003E1600202C
:1017B000DC0000202DE9F04F0446008885B088B198
:1017C000B0F5E37F08D182290FD04FF4E3730120F5
:1017D000238005B0BDE8F08F00230320238005B0EF
:1017E000BDE8F08F00F03AF9EFE7744D744E2A78B7
:1017F00033789A421BD02B78013B042B17D8DFE8B3
:1018000003F0520342164E003378022B00F0CD80D5
:1018100003F0AEF808B103F0CBFF2B78694ADBB2D6
:1018200033700021042311602B7006F027F9664BFA
:101830001A78002A40F08880644E654B1A782AB1E5
:1018400064486049002202701A700A60624F3B7857
:10185000002B31D1614B31681A783ABB0029B4D1E1
:1018600004A900254FF4806741F8045D2B46574AD0
:101870005B48376006F044FA0746002878D03560A8
:1018800002F0C0F9A1E703F069F840B103F07CFF72
:1018900006F0F4F82B780522DBB233702A702B782F
:1018A000DBB23370C3E703F059F8C0E700224C48BD
:1018B0001A7006F0A1FAD3E7424D4A4B2968D3F8D3
:1018C00000904FF0000887F80080002967D1484653
:1018D00005F0B0FC1FFA80FCBCF1000F58D00DF1F0
:1018E000100A002301944AF8043DDFF8D8B0DFF86D
:1018F000088164460EE0039905F0A0FC2968404683
:1019000006F0A6F9002348462B6005F093FC84B24C
:10191000002C3CD000235A46514640462C6006F02D
:101920004FF92B6830481A46002BE4D101232F4889
:10193000019C3B7006F094FD2D4B186806F090FD5D
:101940002C4801F0F3FB85E7224A25481F4E012170
:10195000002511701D7006F025F9274806F022F9C0
:10196000204A184B10681D603560FFF7FDFE64E7E4
:101970003268002A3FF429AF03991B4805F036FC72
:1019800000283FF422AF376002F03CF91DE7019CCC
:101990002B68002BD0D14846FFF7E6FECCE716486F
:1019A00006F056F9C5F8008091E702F0D7FF00284D
:1019B0003FF43BAF03F0E6FE37E700BF601A0020BC
:1019C000611A00205C1A00203D1600207C1E0020B9
:1019D0003C160020401600203E1600203F16002036
:1019E000909300003416002060930000DC0000207B
:1019F000A01E0020801E0020849300000D4B1A784A
:101A00006AB11A780C49D2B201280A7008D00CD3F6
:101A1000022801D103221A70084806F021BD704740
:101A2000022206481A7006F01BBD012203481A70F4
:101A300006F016BD601A0020611A0020DC000020AC
:101A4000FFF7DCBF08B5002001F0C2FF28B18528F0
:101A500003D0BDE8084002F0D5B808BD38B50A4C3F
:101A60002378054623B10120A8401843207038BDD3
:101A7000064801F0C1FF08B102F0C4F82378012044
:101A8000A8401843207038BDA41E0020B493000065
:101A9000064A137833B1012101FA00F023EA00036A
:101AA000137003B1704701F0B5BF00BFA41E002042
:101AB0002DE9F0436F4B1A78C0F30745C0F30724B4
:101AC000C0B29D70DC701871002A68D0691E621E59
:101AD000C9B2D2B2FD2A88BFFD295E7834D9421E30
:101AE000D2B2FD2A8CBF002201226ABB76B1624CC1
:101AF00062496348012565601F24C0F80845C1F8A4
:101B00002025C1F82425C1F828255A705D4A5E4E6B
:101B100000210125907980B15818D7798478107AFE
:101B20007FB384BB1F2886BF00F01F0034464FF0F0
:101B3000A04405FA00F0C4F80C050131032902F1B4
:101B40000302E7D1BDE8F0834B4AC2F84055C2F822
:101B50004445C2F8480586B948494C4DC1F820555E
:101B60004B4C4748C1F82445A5F5A065C1F8285558
:101B70001F240121C0F80445116001225A70BDE8FC
:101B8000F083002CCED11F2886BF00F01F00344602
:101B90004FF0A04405FA00F0C4F80805CDE7394A33
:101BA000DFF8E48002F109074FF0010E9179F9B1F5
:101BB000117A92F807C00E46BCF1000F4BD01F29D6
:101BC00087BF01F01F0CC1468C464FF0A0490EFAAA
:101BD0000CFCC9F80CC540F2034C1F298ABF01F068
:101BE0001F064FF0A041414606F5E07641F826C0B9
:101BF0000332BA42DAD1224A264E274FC2F8106584
:101C0000C2F8147504360437C2F81865C2F81C759A
:101C100004360437C2F82065C2F8247504365837F4
:101C2000C2F828651449C2F82C75DFF870C0C2F8F4
:101C300030650837C2F834C50126C2F81C79002285
:101C40000927C1F80865C1F81075C1F80425C1F865
:101C50004C251E703AE71F2987BF01F01F0CC146B3
:101C60008C464FF0A0490EFA0CFCC9F808C540F2AA
:101C7000036CB2E7A81E0020009000400060004006
:101C800000F00140B893000000030050031411005D
:101C9000030E11004091004010600040746000404D
:101CA0000E490B78CBB970B40D4B0E4D0E4C0F484E
:101CB0000F4A104E2B4423441B1A9B1A03F6FF7045
:101CC0000D4A0E4D0E4C000B9B1A3060120B01207A
:101CD0002B602260087070BC70477047B41E0020F3
:101CE000809B00008C020020C89B0000809B0000AD
:101CF00010000020EC00002000000000B01E0020BA
:101D0000E800002008B50F4B1B68834218D83F2815
:101D100016D8000300F5805188420FD202680132C4
:101D200000F1040301D007E01346994203F10402D5
:101D300004D91B680133F7D001F01AFD002008BD5B
:101D4000012008BDEC000020531EB3F5805F44D293
:101D50002DE9F041404B1B68B0EB033FADF5806DC2
:101D6000054635D31318B3F5802F144630D810F03C
:101D7000030C0E4633D18B0754D06F46B4F5806FF9
:101D800014D931464FF48062384606F092FDA4F52E
:101D9000806428464FF48072394601F001FDB4F5A5
:101DA000806F06F5806605F58065EAD8A3083146A0
:101DB00055F8232047F823203846224606F079FDBF
:101DC000E21C28469208394601F0EAFC002000E0B7
:101DD00001200DF5806DBDE8F081012070470CF108
:101DE000030820F0030590446F464FEA98082B68DB
:101DF0003B60B8F5807F07EB0C001BD9CCF5806801
:101E0000424606F056FDA4EB080428464FF48072C3
:101E10003946464401F0C4FC05F58065002CADD17F
:101E20000220D6E712F00307A7D1920801F0B8FC10
:101E30003846CEE705EB880408F1FF3354F8044C2C
:101E400047F8234006F035FD28464246394601F062
:101E5000A7FC0020BDE700BFEC0000200021F0B48B
:101E6000104C114F0E46022501E0082918D00A0136
:101E700002F1804303F5F0333A44C3F80068C3F835
:101E80000448C2F80858D3F8000801310028ECD102
:101E9000D3F80438A342E8D1D2F80838022BE4D1B1
:101EA000F0BC704700E0000000E0014010B50E4AB1
:101EB0004FF0FF33C2F88030C2F88031C2F884306E
:101EC000C2F88431D0E90041002282F3148882F301
:101ED000108882F3118882F31388044A906084F397
:101EE00008889E46084710BD00E100E000ED00E0D4
:101EF0004FF080434FF08042D3F8000410F004000C
:101F000018BFD3F81C05D2F81C3523F0070318BFFF
:101F100000F00700C2F81C35704700BF4FF0804248
:101F2000D2F81C3523F007031843C2F81C0570478C
:101F30004FF08043D3F8380400F00100704700BF31
:101F400080B48BB000AFF860B9607A60FB70FA685B
:101F5000BB689A4280F090807B68002B00F08C80F8
:101F60007B6803F6FF731B0B3B61FB687B62BB68FE
:101F70003B623B69FB616EE00023FB7613E0464B5E
:101F8000D3F80825FB7E22FA03F303F00103002BAC
:101F900006D0414AFB7E03F5C073404942F8231046
:101FA000FB7E0133FB76FB7E072BE8D93C4B0222FC
:101FB000C3F80425BFF36F8FBFF34F8F384A7B6A96
:101FC000C2F8083500BF364BD3F80034002BFAD0E6
:101FD000334B0122C3F80425BFF36F8FBFF34F8F3C
:101FE0000023BB7613E02C4BD3F80825BB7E22FAE6
:101FF00003F303F00103002B06D0274ABB7E03F551
:10200000C073264942F82310BB7E0133BB76BB7EEA
:10201000072BE8D94FF480637B6113E03A6A131D04
:102020003B627B6A191D796212681A6000BF1C4B03
:10203000D3F80034002BFAD07B68043B7B607B69CB
:10204000013B7B617B69002B02D07B68002BE5D1D3
:10205000FB69013BFB61FB69002B8DD1104B00221A
:10206000C3F80425BFF36F8FBFF34F8F00BF0C4B36
:10207000D3F80034002BFAD0FB78002B07D0BFF345
:102080004F8F084B084ADA60BFF34F8FFEE700BF5F
:102090002C37BD4680BC7047000001403546526E6B
:1020A00000E0014000ED00E00400FA0580B400AF5C
:1020B00000BFBD4680BC70472DE9F04140EA0104F5
:1020C000C4F30B0400AF74B9033222F003046218A6
:1020D000B2F5802F0D4606D88842064603D82BB9A4
:1020E0002246FFF72DFFBD46BDE8F0810B490C4AA3
:1020F000521AD31D23F00703E846ADEB030D21F080
:102100000101684606F0D5FB72B601232246294636
:102110000DEB03043046A047C546E4E7411F00002D
:10212000AD200000FFF7C4BC10B40F4B0F4A1B6872
:102130001268934205D303F6FF7222F47F6222F005
:102140000F020B490B48401A841AA34206D903F622
:10215000FF7323F47F6323F00F03C21A06480A4477
:10216000026010BC704700BF00000020281F002044
:1021700000E0000000D00300241F002038B50C4D03
:102180000C4C286821680430091A00F0FFFE23680F
:1021900029685870C0F3072003F8020B581A021F71
:1021A00092B2C2F30725CA708D70236080B238BD29
:1021B000CC1E0020D81E002008B5044B1B6803B1BC
:1021C0009847BDE80840FEF779BE00BFD41E002046
:1021D00038B5064C064905460722206806F069FB1B
:1021E0002368044ADD710833136038BDCC1E00201B
:1021F00000940000D81E0020094B1B6843B1094B16
:102200001B685BB110B59847BDE81040FEF756BE9D
:10221000054A06484FF4705105F092BEFEF74EBED7
:10222000B81E0020D41E0020F9210000001F00204D
:1022300010B50446EE20FFF7CBFF044A13681C706C
:1022400001331360BDE81040FFF798BFD81E00208F
:1022500030B53D4C014683B0206800296BD0CB7B64
:102260008D7B4A7B8DF804300B7B8DF805508DF803
:1022700006208DF80730019BC370C3F30725C3F315
:102280000742C3F3076385704270037091F84730CB
:1022900091F8465091F845208DF8043091F844307B
:1022A0008DF805508DF806208DF80730019BC3711D
:1022B000C3F30725C3F30742C3F307638571427174
:1022C0000371CD7C8A7C4B7C8DF804508DF8052001
:1022D0008DF806300B7C8DF80730019BC372C3F379
:1022E0000725C3F30742C3F3076385724272037283
:1022F000CB7E8D7E4A7E8DF804300B7E8DF80550A6
:102300008DF806208DF80730019BC373C3F30725B2
:10231000C3F307428573C3F3076300F110054273EB
:1023200003731C3128462822256006F059FB2368D8
:102330002833236005E03822FDF7F4FF23683833A3
:10234000236003B030BD00BFD81E00202DE9F0414E
:10235000054618461E460C46174606F039FBEB6844
:102360000146304698477FB10A4E274423786A6970
:102370001B09F05C904714F8013B6A6903F00F03F6
:10238000F05C9047BC42F1D16B690A20BDE8F04196
:10239000184700BF0894000010B5074B0122002029
:1023A0001A70FFF7BBFD0023044A05485521BDE81C
:1023B000104005F0C5BD00BF2C1F0020B921000052
:1023C000DC1E0020F0B4374B37481A780368FF2A28
:1023D0002BD01A7012BB354A354C1168354A21444E
:1023E000521AC2F30721C2F30745C2F307645A73B6
:1023F0001973002203F11201DD729C725A705A7136
:102400001A71DA709A705A721A72DA719A715A7471
:102410001A74DA739A730160F0BC704726490A682F
:10242000002AD8D0254C246809E023490A68BAB3A9
:10243000224C2468A2428CBF012502251D70D1E9DF
:102440000165C6F30727C9685E711F71C6F30747A8
:10245000C6F30766DF709E70C5F30727C5F307460E
:102460005D725970C5F30765C2F307215A735C7436
:102470001F72DE71C2F30747C4F307269D711973FB
:10248000C4F30745C2F30762C4F3076403F1120102
:10249000DF729A721E74DD739C730160F0BC70472A
:1024A0001A7098E7F1000020D81E0020281F002095
:1024B00000E0000000D0030000000020201F0020EA
:1024C00008B52120FFF784FEFFF77CFFBDE8084038
:1024D000FFF754BE2DE9F0477D4BDFF810827D4DAC
:1024E0007D4F012282B01A70FEF752FB08F500748E
:1024F000AC42386000F2EA80784EDFF8009202E0E9
:102500000434AC4227D82368B342F9D1A3795A1EC8
:10251000012AF5D8012B4FF004024946204614BF8A
:10252000C2464FF0000A06F0B5F90028E8D1E27C77
:10253000A37C8DF804208DF80530627C237C8DF817
:1025400006208DF80730019BC3F14803234453450F
:10255000D6D1386801E038680024614D614BA96824
:10256000D5E9002632441344EA685F4E0B445340D9
:1025700033F00103346070D112F0010F0CBF01235E
:102580000223EB6080B390F847308DF8043090F868
:10259000461090F8452090F844308DF805108DF8DD
:1025A00006208DF80730C37CDDF80480817C8DF82F
:1025B0000430427C037C8DF807308DF805108DF8CF
:1025C0000620019C042C88BF043C00F055FD2146E8
:1025D0000246002000F054FD00F068FD804517BF62
:1025E0000023346834683B606CB394F847308DF84E
:1025F000043094F8461094F8452094F844308DF84F
:1026000005108DF806208DF80730E37C019FA17C32
:10261000627C8DF80430237C8DF807308DF805102E
:102620008DF80620019C042C88BF043C00F024FD9A
:10263000214602462D4800F023FD00F037FD874279
:102640000ED0002333602A4A2C680023136014BB89
:10265000284B1C6002B0BDE8F08700232B6091E797
:102660003368002BEFD05A7CD87C997C1B7C8DF88A
:1026700006208DF804008DF805108DF80730019BB9
:102680001B4A2C6803F6FF7323F47F6323F00F03C8
:102690001360002CDCD0FFF747FD164B042C1E689E
:1026A00088BF043C00F0E8FC21460246304600F0BA
:1026B000E7FC00F0FBFCAB68834208BF2A680E4BC6
:1026C00018BF00221A6002B0BDE8F087002444E77A
:1026D000C01E0020E0CE0300BC1E0020464953006F
:1026E0000000002078563412B81E002000E00000E0
:1026F000281F0020241F0020201F0020FC93000022
:10270000014B1860704700BFD41E00202DE9F04F28
:10271000B44C257885B005BB0E46B349B34D097856
:102720000446002AB24808BF00232B60026081B330
:10273000B04F012E3C6023D92346627813F8021B68
:102740008DF80D108DF80C20BDF80C203B60B2F513
:102750005F4F06D02B680A2B22D8002005B0BDE8B9
:10276000F08F092E0CD9E278A3788DF80D308DF812
:102770000C20BDF80C20331F201D9A42386011D068
:102780002B680A2BE9D9012005B0BDE8F04FFFF70F
:102790004FBD984FFFF79EFE012E3C60CCD8EFE76F
:1027A0000220F1E7A6F10608414600F0EFFBB31E58
:1027B000E218E35C52788DF80C208DF80D30BDF8EE
:1027C0000C30984204D02B680A2BC6D90320DBE7D3
:1027D0003A681346907813F8034B51788DF80D4002
:1027E0008DF80C1001283B60BDF80C3002D000F5CC
:1027F0000040B3E74BF6C862934204D02B680A2B23
:10280000ABD90420C0E77C4C7C4A7D4800234FF4C0
:10281000705105F095FB3B68227893F80090591CA5
:10282000FF2A396027D0B9F1120F13D8B9F1110F6F
:1028300080F0A881B9F1000F00F07C81B9F1020F9E
:1028400013D1B8F1040F2B6826D02B680A2B84D93A
:10285000072099E7B9F1300F18D0B9F13F0F00F018
:102860004C81B9F1200F00F0D5802B680A2B7FF640
:1028700074AF062088E7634A1268002AD3D0624901
:1028800009688A4294BF02220122CCE7B8F10C0FFA
:10289000DBD1022A08D02B681B2B7FF65EAF05B078
:1028A000BDE8F04FFFF70CBE1979DA788DF80C10FF
:1028B0008DF80D2099785A788DF80E108DF80F202C
:1028C000197A039A4F4E8DF80C10D9798DF80D10A6
:1028D00099798DF80E10D6F8008059798DF80F107F
:1028E00009333B60039FB8F1000FAED073689A4282
:1028F000ABD1B3689F42A8D1434B1B689845A4D184
:10290000DFF80C91B8F1040F88BFA8F10408D9F8DA
:1029100000A000F0B1FB41460246504600F0B0FB7B
:1029200000F0C4FB874214D000233360EC232A68F4
:1029300023701B2A0AD800202378032B03D101908F
:10294000FFF72AFD01980023336007E7FFF7B8FD82
:10295000F2E73368D9F800702C491F44483F27F04C
:102960000307384606F022F810B93B79122B03D042
:1029700000233360ED23DAE7BB79F2689342F7D1A5
:1029800039894CF6BE029142F2D1BA7A012AEFD1CE
:10299000FA7C797C8DF80C20B87C3A7C8DF80E108E
:1029A0008DF80D008DF80F20039A31688A42DFD12F
:1029B000F97B787B8DF80C1097F80EC0397B8DF879
:1029C0000F108DF80DC08DF80E00039871688842C5
:1029D000CED1012B00F06881022B00F05E81E02354
:1029E000A5E700BF2C1F0020C01E0020D01E002025
:1029F000CC1E0020C41E0020F1000020F9210000A0
:102A0000001F002000000020201F0020FC93000079
:102A1000241F0020B8F10F0F7FF617AF013A012AEB
:102A20003FF639AF93F804E093F803C098785978EB
:102A3000AF4A8DF80DC08DF80E008DF80F108DF88F
:102A40000CE0187ADDF80CE093F806C059798DF89F
:102A50000C0093F8078010688DF80F108DF80D802A
:102A60008DF80EC003F10901DDF80CC039600028B3
:102A70003FF4EBAE51688E457FF4E7AE9268944523
:102A80007FF4E3AE1A7B997A8DF80C2093F80BC093
:102A90005A7ADFF874928DF80F208DF80DC08DF8FA
:102AA0000E100399D9F8002003F10D089142A6F108
:102AB0001606C7F800807FF4EEAE002E3FF4EBAEB2
:102AC0008C4B8D4A1B68934231D3471ABE422CD39C
:102AD000002F3FF4E0AE01EB030A0AF1FF3BBB44D9
:102AE0000AF6FF764FEA1B3B360BB345304610D350
:102AF000FFF708F9D8B90136F7E7B8F1040F7FF40A
:102B0000A4AE7B4A0021FF2311602370FFF744FC31
:102B1000C1E6414650463A46FFF716F938B9D9F8AA
:102B200000303B44C9F80030B5E63746D3E7E02330
:102B30002370B0E6B8F1040F2B687FF486AE8D2BBE
:102B40007FF60BAE6D4D6E4C0120FFF741FB286800
:102B5000FFF77EFB2068FFF77BFB2B680BB193F838
:102B60000B90684923680A6882F8009003B1DB7A09
:102B7000537002320A60FFF725FC05B0BDE8F04F44
:102B8000FFF7FCBAB8F1100F7FF45FAE1E79D8786A
:102B900099785A788DF80C608DF80E108DF80F200A
:102BA0008DF80D001A7A039899798DF80C20DE794A
:102BB0005A798DF80E108DF80F20197BDA7A8DF87E
:102BC0000D60DDF80CC08DF80C108DF80D20997A91
:102BD0005A7A8DF80E108DF80F200D33B9F1110FC0
:102BE0003B60039A2BD04849414E454F00230B6070
:102BF0003360FF213B682170022473B1DF7B997B36
:102C00008DF80C708DF80D105F7B197B8DF80E70B0
:102C10008DF80F10039988421CD0472A65D93B4B89
:102C2000354F19683A4B39445B1A9A4257D8F460C9
:102C3000C6E90020C6F808C0FFF776FA2BE632494D
:102C40002B4E2E4F00230B60FF21336021703B6819
:102C50000124D2E7DF7C997C8DF80C708DF80D1083
:102C60005F7C197C8DF80E708DF80F1003998A42E5
:102C7000D3D193F8471093F846708DF80C1093F861
:102C8000451093F844308DF80D708DF80E108DF8C6
:102C90000F30039B9C45C0D1FDE5FB7A022B16D07B
:102CA00000233360EB2342E6154B1B681BB112482F
:102CB000000BFFF727F80320FFF730F90123D9F8BD
:102CC000001032680020FFF7F7F9E0232FE6002319
:102CD000D9F800100848FFF7EFF9032327E6112081
:102CE0002B680A2B7FF639AD4EE50720F8E700BFC9
:102CF00000000020241F002000E00000BC1E002077
:102D0000B81E0020D81E0020201F0020281F0020F1
:102D100000D0030070B5ADF5007D0D46164669463E
:102D20004FF4807200F0A4F920B19DF80030DF2B41
:102D300003D000200DF5007D70BD01464FF4807377
:102D4000684640AAFFF7E2FC030484B200D41CB931
:102D500020460DF5007D70BD2846334640A9224629
:102D6000FFF7F4FA2046F4E708B54FF0A0420C2133
:102D7000154BC2F840171B7813B3FFF7B9F8134A85
:102D8000831E012B10601AD9114B1B68BBB14FF089
:102D9000A043D3F81035DB0302D4FFF7C9F858B9C4
:102DA0004FF0A0430222C3F84027FFF757F8094825
:102DB000BDE80840FFF77AB8074B01221A7008BD3A
:102DC000FFF788FBD9E700BFC01E0020FC1E0020D3
:102DD000B81E002000E00000C81E0020014B18783B
:102DE000704700BFC81E0020F0B50023044689B01C
:102DF000154A16484FF4705105F0A2F85CB1144B17
:102E000014481B68144A01AD1C21022B0560116097
:102E100015D0032B01D009B0F0BD104F3B70FFF768
:102E20004FFBFF2306463B70FFF7B6FA002EF2D0A9
:102E30003246294620460A4BFFF788FAEBE7FFF7B0
:102E40003FFB0646F2E700BFF9210000001F00200B
:102E5000FC1E0020CC1E0020D01E0020F10000200F
:102E6000F09300002DE9F0410F4615462B49092249
:102E70009846044605F00EFDE0B909340646284A96
:102E800020462946FFF746FF03041DD5B0F5004F45
:102E90001AD1EB68234808219847A7F10901EB688C
:102EA000204698476B690A2098471F4B1E700120E7
:102EB000BDE8F08109221D49204605F0EBFC0346E0
:102EC00028B10020BDE8F0810120BDE8F081164E58
:102ED000174A18484FF4705105F032F833787BB137
:102EE000012B08D1D8F80C30394620469847D8F83D
:102EF00014300A209847022333700020BDE8F08187
:102F0000EB68074808219847EB68A7F1090104F12D
:102F1000090098476B690A209847ECE7CC930000BA
:102F2000F0930000D8930000F0000020E49300002C
:102F3000F9210000001F0020F8B50F461646104981
:102F400008221D46044605F0A5FC08B10020F8BD86
:102F500029460C4A04F10800FFF7DCFE03040DD5F6
:102F6000B0F5004F0AD13946F36820469847736997
:102F70000A209847044B01201870F8BD0120F8BDC5
:102F8000D8930000E4930000F000002030B410FA61
:102F900081F104468C424FF6FF7041F2210510D0BA
:102FA00014F8013B80EA03239BB2082218044CBFAB
:102FB00085EA43035B009BB2013A1846F6D18C4286
:102FC000EED130BC704700BFA0F14103052B9ABF82
:102FD0003738C0B2FF2070472DE9F04122B190F898
:102FE0000080B8F1000F03D100242046BDE8F08135
:102FF0001646851C4F1E00241CE0A0F15703D9B2D1
:1030000015F8010CA0F13003DBB2092B05D9A0F1B2
:103010006103052B25D85738C3B20134A4B243EA63
:103020000113B44207F8013FDFD015F8028BB8F165
:10303000000FDAD005F00EFC404443781B07D4D4CF
:1030400015F8020CA0F13003D9B20929D8D9A0F1A2
:103050006103052BD1D9FFF7B7FF0F280146CFD960
:10306000C2E7FFF7B1FF0F280346D6D9BCE700BF80
:1030700008B1FFF7B1BF70474FF0FF30704700BF96
:1030800081B130B4441E084D2144104614F8013F6C
:103090004340DBB2A14255F8233083EA1020F5D13A
:1030A00030BC70471046704718940000C04370470A
:1030B00071B110B400F1200403782BB10830A042A4
:1030C000FAD1002010BC70470170426010BC7047FC
:1030D0000846704788420BD000F10803994207D098
:1030E00000F11003994203D01830814200D070479C
:1030F00000230B70704700BF00F1080200F12801A7
:10310000002012F8083C022B07D0032B07D0012B1C
:1031100007D008328A42F4D17047012803D1032036
:1031200070470228FBD01846F3E700BF38B500F11E
:10313000080400F1280514F8083C1BB154F8043CBD
:1031400003B198470834AC42F5D138BD0649074A67
:10315000074B9B1A03DD043BC858D050FBDC00F042
:1031600061FCFDF76DF80000809B0000100000205E
:103170008C020020FEE7FEE7FEE7FEE7FEE7FEE743
:10318000FEE7FEE7FEE7FEE770B41D4D43791D4CF8
:1031900045F8232003EB4303E35C6BBB8A7890F98B
:1031A00004305201002BD2B220DB03F1604303F55F
:1031B000614383F8002390F90430134E012503F096
:1031C0001F025B0905FA02F246F8232003680A8809
:1031D000C3F8082543790879C97803EB4303E2185B
:1031E000E55450709170002070BC7047074D03F09B
:1031F0000F031D442A76DEE7082070BC704700BF2D
:10320000341F0020301F002000E100E0FCEC00E053
:103210000368044A01211960437903EB4303022147
:10322000D1547047301F0020F0B44FF4803504684B
:10323000234E8D40C4F848530468C4F808534479B9
:1032400004EB4404344482B0647822F07F42F4B149
:10325000046801F5A87744F827200468D4F804C569
:10326000ACEB02076245427902EB4202164488BF8A
:1032700007F1FF17B27888BF07F57F4797421BDB3E
:103280006BB90020C4F8445302B0F0BC7047046826
:1032900001F5A87644F826200468002BF1D05031BF
:1032A000890089B200236350625803680192019A31
:1032B000C3F804530468E4E70D2002B0F0BC704783
:1032C000301F00202DE9F041284E294FDFF8A4805F
:1032D00084B000244FF48035D6F80423E3192A4241
:1032E000E0B24FEA83034FF0000104F101040CD077
:1032F0001A6852B1C6F84853C6F8085319601B68DB
:103300000393D8F80030039A9847042C4FEA4505F8
:10331000E2D1164BD3F80423D1070DD5D3F8002101
:1033200052B10022C3F80021124AD3F800310293AF
:1033300020461368029A98470C4BD3F8042392074F
:1033400010D5D3F804216AB10022C3F80421D3F8C0
:103350000421084B0192019A1B68052004B0BDE8C6
:10336000F041184704B0BDE8F08100BF00100140F3
:1033700050440010341F002010B5074C236882B061
:103380003BB1064B1B6898470023236023680193D9
:10339000019B02B010BD00BF000101403C1F002096
:1033A00070B5114B114A1C781160DCB9104E0278CF
:1033B00001211970C6F80C25416805464FF47A7250
:1033C0000023C803490C05F0C5F8C6F804052B7A9C
:1033D000084A5B01DBB24FF4803182F81033116090
:1033E000204670BD082070BD391F00203C1F002002
:1033F0000000014000E100E0044B054901220220E9
:10340000C3F804231A600870704700BF0000014031
:10341000391F002010B50446002000F01DFC0D4BA4
:103420001A78072A10D8501C0B4922701870D1F84E
:103430000805012393400343C1F808350024002008
:1034400000F012FC204610BD0424002000F00CFC0B
:10345000204610BD381F00200000014000F5C0705C
:10346000024B034A43F82020704700BF0000014090
:103470003546526E0C4A13789BB903780B494FF0CE
:10348000804003F00103C0F878350B68DB0704D4F3
:10349000C020012381F800030B600123137000207A
:1034A00070478520704700BF6C24002000E100E0D9
:1034B000034B02680021196002B11A60704700BF17
:1034C000481F00204FF080434FF46072C3F804237C
:1034D000704700BF4FF080434FF46072C3F8082379
:1034E000704700BF014B00221A607047481F002040
:1034F00010B54FF0804386B0D3F80443620705D57A
:10350000D3F8082103F58473002A4ED1A30603D50E
:103510002A4B1A68002A3FD1600603D5284B1A6847
:10352000002A2FD1210602D5264B1A680ABBE205D4
:1035300002D5254B1A6892B9A3050ED5234B1A68FC
:103540005AB100221A601A68214B0592059A1B682D
:10355000022006B0BDE81040184706B010BD00229A
:103560001A601B4A1B68049301201368049A984749
:10357000E2E700201860164A1B6803931368039A59
:103580009847D4E700221A60124A1B680293012070
:103590001368029A9847C5E7002018600D4A1B6817
:1035A00001931368019A9847B6E700221A600A4A05
:1035B0001B6800931368009A9847A7E7140100401E
:1035C000180100401C01004020010040240100407F
:1035D000481F0020441F0020401F002008B5FFF7AF
:1035E00087FFBDE8084000F06DB800BF054A1379B9
:1035F0002BB9012110605371184611717047852055
:10360000704700BF4C1F0020084B1A68D20704D433
:10361000C021012283F800131A604FF08041044B4F
:1036200000200122C1F818051A70704700E100E07F
:103630006D24002010B4094B094A0021196083B0A1
:103640001B680193019C4FF0804102200123C1F8C7
:103650000403136003B010BC704700BF04010040B6
:1036600008000040074B00221A6082B01B680193DB
:1036700001994FF080430122C3F804231A6002B07D
:10368000704700BF0001004010B40C490C484FF0D7
:10369000804201230024C2F8083383B00C6009681B
:1036A000019101990360D2F80C3403F00113B3F1D6
:1036B000011FF8D003B010BC704700BF00010040EC
:1036C0000400004010B5254B1A6884B062B1002098
:1036D00018601B6800934FF080420121204B009C32
:1036E000C2F808131B6898471E4B1A686AB100227B
:1036F0001A601B6801934FF080420221184B019819
:10370000C2F808131B6801209847174B1A686AB162
:1037100000221A601B6802934FF080421021104B68
:103720000298C2F808131B68022098470F4B1A68CA
:103730008AB100221A601B6803934FF08041084B46
:10374000039C0820C1F8080319685A71032004B0CB
:10375000BDE81040084704B010BD00BF00010040A4
:103760004C1F002004010040100100400C010040EB
:103770000A4A0223C2F80435BFF36F8FBFF34F8F9D
:10378000C2F80805D2F80034002BFBD00023C2F8A1
:103790000435BFF36F8FBFF34F8F704700E00140D8
:1037A000114B30B40124C3F80445BFF36F8FBFF34E
:1037B0004F8F72B101EB82050C46401A1A4603196D
:1037C00054F8041B1960D2F80034002BFBD0AC4233
:1037D000F5D1054B0022C3F80425BFF36F8FBFF36B
:1037E0004F8F30BC704700BF00E0014050E8002F11
:1037F00002EA010340E8003C9CF0000FF6D11046BD
:10380000704700BF70B50D4C2578ADB90C486560A8
:10381000A5602561E560FFF7E9FE0646FFF7F4FEC7
:10382000012384F820502370064BD3F800340BB1E9
:103830000123A370304670BD8526F5E7541F002094
:10384000393900000000014038B5154CA378054611
:1038500073B110B1436801209847002000F0FCF9D3
:10386000E3680133E3600020BDE8384000F0FCB9B4
:1038700003F0FF0000F0F0F965B1226942B1954212
:1038800008D0134601E09D4204D01B68002BFAD1FA
:103890002A602561E368002BE2D1FFF7CBFEDFE76A
:1038A000541F00204FF08043D3F81804C0F30040A9
:1038B000704700BF38B5154C6378054673B110B139
:1038C000436800209847002000F0C6F96368013380
:1038D00063600020BDE8384000F0C6B903F0FF0087
:1038E00000F0BAF965B1A26842B1954208D013461A
:1038F00001E09D4204D01B68002BFAD12A60A5602C
:103900006368002BE2D1FFF7ADFEDFE7541F002014
:1039100038B5084C002000F09FF96368013B6360F4
:10392000656815B9FFF7B0FE65700020BDE8384046
:1039300000F09AB9541F002010B570B101281BD1B6
:103940001B4C2369A0703BB11A6822615B6801209F
:1039500098472369002BF7D110BD154CA3680122AD
:103960006270002BF8D01A68A2605B68002098474C
:10397000A368002BF7D1EFE7022814D00328EBD17E
:10398000FFF7C6FF0A4B93F82020D9690020D2B276
:1039900083F820000029DFD0042A0CBF0320022076
:1039A000BDE8104008470348BDE81040FFF782BF5C
:1039B000541F0020681F00204FF08043D3F80C04F0
:1039C00000F00110A0F10110B0FA80F0400970473A
:1039D00010B5074C23784BB9064B002808BF184692
:1039E000FFF748FD08B90123237010BD852010BDE5
:1039F000781F00201898000010B50446FFF76AFDF4
:103A0000FFF770FD2046FFF753FDFFF75BFD002039
:103A100010BD00BF08B5FFF75DFDBDE80840FFF72A
:103A200061BD00BF6D4B1A68531C18D06C4B102A37
:103A30001B6800F08A80694A1268102A30D04FF063
:103A40001023D3F80022002AC0F29480D3F8043265
:103A5000002BC0F28F80634B634A1A607047634A41
:103A6000634B12781B68102AC3F3031310D1012B88
:103A70006DD95E4A5E4B12781B68102AC3F303139C
:103A800006D1012B19D9554B1A68511C40F0A3805F
:103A9000564A574B12781B68102AC3F30313CED132
:103AA000012BCCD84FF08043D3F80024D20744BF79
:103AB0006FF00102C3F80024C1E74FF080524D4B74
:103AC000D2F80414C3F82015D2F80814C3F824154A
:103AD000D2F80C14C3F82815D2F81014C3F82C151A
:103AE000D2F81414C3F83015D2F81814C3F83415EA
:103AF000D2F81C14C3F84015D2F82014C3F84415AA
:103B0000D2F82414C3F84815D2F82814C3F84C1579
:103B1000D2F82C14C3F85015D2F83014C3F8541549
:103B2000D2F83414C3F86015D2F83814C3F8641509
:103B3000D2F83C14C3F86815D2F84014C3F86C15D9
:103B4000D2F84424C3F870259DE7012B0CD8234AF2
:103B500012684FF080430021501CC3F80C11C3F8C9
:103B60001011C3F8381584D01D4B102A1B687FF440
:103B700062AF86E7204B0122C3F80425D3F8002466
:103B8000002AFBD04FF0102312221B49C3F8002259
:103B9000D1F80034002BFBD04FF010221221164B2D
:103BA000C2F80412D3F80024002AFBD000221249E4
:103BB000C3F80425D1F80034002BFBD0BFF34F8F9E
:103BC0000E490F4BCA6802F4E0621343CB60BFF3A7
:103BD0004F8F00BFFDE704331B682EE73001001054
:103BE00034010010F40000200090D003E00F00F03A
:103BF000E80F00F000C0004000E0014000ED00E0F0
:103C00000400FA0500B585B000230390194601AA07
:103C100044F20100CDE9013300F004F805B05DF88D
:103C200004FB00BF72B6094B1B68DB0700D500BE62
:103C3000BFF34F8F0649074BCA6802F4E062134393
:103C4000CB60BFF34F8F00BFFDE700BFF0ED00E09A
:103C500000ED00E00400FA0572B6024A1368013371
:103C6000136070477C1F0020034A1368013B1360F8
:103C700003B962B6704700BF7C1F002030B44C68A7
:103C80009C4208D2002545600968016093420CD02F
:103C9000002030BC704743600D6805600868E41A76
:103CA00018449342C1E90004F2D1201C18BF01203E
:103CB00030BC704710B4D1E900439A4228BF1A467D
:103CC00004604260D1E90030801A1344C1E9003039
:103CD000003018BF012010BC704700BF4B689A42EB
:103CE00028BF1A4662B10B68C0E90032D1E9003042
:103CF000801A1344C1E90030101C18BF012070471E
:103D00001346F1E710B582B002A800230121064A4C
:103D10000193064C00F8041D0549126823700B70CE
:103D2000904702B010BD00BFAC200020801F0020D3
:103D3000B0200020704700BF00B583B00D4B0E4986
:103D400000228DF80420D3F82025ADF80620D3F802
:103D5000C0040A4A0968136800280CBF4FF4807039
:103D60004FF00120034301A81360884703B05DF8BA
:103D700004FB00BF00700240AC200020881F002020
:103D8000F8B50C46D1E900150A4F954228BF1546F3
:103D900006462A46384604F08CFDC6E90075D4E98B
:103DA0000030401B2B44C4E90030003018BF012014
:103DB000F8BD00BFB4200020F8B54C68944228BF7D
:103DC00014460D4606465CB904607460D5E90032BD
:103DD000121B2344C5E90032201C18BF0120F8BD86
:103DE000034F09683846224604F063FD3760ECE76C
:103DF000B420002010B5164B16499A7B0020032AE8
:103E000082B008700AD01C687CB1134B01221A6082
:103E1000BFF36F8FBFF34F8F02B010BD6FF48031CF
:103E20000E48FFF7E3FC02B010BD6FF480310B4881
:103E3000FFF7DCFC0A4B8DF8064006228DF80740A0
:103E40001B688DF8042001A8984702B010BD00BF80
:103E50008C1F0020811F00204C700240841F002016
:103E6000AC20002010B5224BD3F80044C3F8004426
:103E700082B0BFF36F8FBFF34F8FBFF36F8FBFF36E
:103E80004F8FE1050BD5002302A802220193194BA5
:103E900000F8042D184A1B68012111709847A205EB
:103EA0000AD502A800230322019300F8042D114A29
:103EB000114912680B709047630516D50E4B1A789E
:103EC0009AB10B4C0D48012100221A70C4F8081554
:103ED0000160BFF36F8FBFF34F8F064B019202A8B3
:103EE000042100F8041D1B68984702B010BD00BFF4
:103EF00000700240AC200020801F0020587002405B
:103F0000F0B5324A0126136806FA01F52B43136017
:103F1000030683B0044610D42D4B1B681D420AD102
:103F20002C4B8DF8060006221B688DF807608DF873
:103F3000042001A8984703B0F0BD00F00F01264B04
:103F400033F8113003F1804303F51C331A689AB13A
:103F500000221A60BFF36F8FBFF34F8F802823D0EA
:103F60001E48DFF880C00B01C7188CF80020BA7B10
:103F7000032A12D0C35883B1154B1B681D40DAD1F8
:103F8000144B8DF8064006221B688DF807508DF8FB
:103F9000042001A8984703B0F0BD06FA01F1C94317
:103FA0000B48FFF723FCE7E70D4B0E4893F89E10F4
:103FB0000270032903D0D3F89030002BDCD16FF0CE
:103FC00001010348FFF712FCD6E700BF881F00205D
:103FD000841F0020AC200020289800001C20002016
:103FE0008C1F0020811F0020054B187810F0800FD7
:103FF00014BF0021102100F00F031944FFF780BF08
:10400000B02000202DE9F04FDFF8F481DFF8E4B1B3
:10401000D8F80030DBF80040234087B072D013F0AE
:10402000012472D094FAA4F4B4FA84F40F2C86BF5D
:10403000A4F11007FFB244F080074FFA87FA07F0A7
:104040000F05BAF1000F4FEA0519C0F28580634BE6
:10405000072D03EB090600F2918005F59473604A81
:1040600052F8233001935D4BB28953F8099071687F
:10407000019B04A8C8470121049B059A01FA04F496
:10408000E14313B1019B93424ED8002842D0D8F8A7
:104090000040B36853480C4013440121BAF1000FAB
:1040A000C8F80040B3600170049C7DDB072D33D855
:1040B000A8004119890001F1804101F51C31282334
:1040C000C1F80047C1F80427034403F1804303F516
:1040D0001C3301221A60BFF36F8FBFF34F8F424A28
:1040E000424B434913EA2A0338BF134633F81520DD
:1040F00002F1804202F51C3201E00B6813B913682B
:10410000002BFAD007B0BDE8F08F93FAA3F4B4FA0D
:1041100084F48BE73060BAE731492823C1F8A0471F
:10412000A800C1F8A427CFE70224B4733148FFF7F1
:104130005DFB314B8DF80F4006221B688DF80E7029
:104140008DF80C2003A89847DBF80030D8F8004021
:1041500023407FF464AFD5E7284F07EB090604A896
:104160007168B28957F809309847012101FA04F4BF
:10417000E14318BB47F80900059A88E7184BD3F8C4
:10418000C0340193DB037FF56EAFB2897168376885
:1041900004A80023B847012101FA04F4E143059A79
:1041A00000287FF474AFB5E7072D09D90C49042323
:1041B000C1F8A046A800C1F8A42685E7059A66E7DD
:1041C000A8004119890001F1804101F51C31042347
:1041D000C1F80046C1F8042676E700BF8C1F002016
:1041E00000700240811F00204898000028980000BD
:1041F00000710240841F0020AC2000201C20002001
:10420000881F002038B5134BD3F86C44C3F86C44B6
:10421000BFF36F8FBFF34F8FA4B1012594FAA4F3BE
:10422000B3FA83F3D9B20F2BA1F1100005FA03F30F
:10423000CCBFC0B241F0800024EA0304FFF760FE67
:10424000002CEBD1044B1B7803B138BDBDE83840DE
:10425000FFF7D8BE00700240811F002030B5154B1B
:10426000154C93F87E200021032A83B0217005D0DD
:104270001D6F6DB1FFF7C6FE03B030BD6FF40001D6
:104280000E48FFF7B3FA2378002BF3D003B030BD0C
:104290006FF400010948FFF7A9FA094B8DF80750A0
:1042A000062107221B688DF804108DF8062001A84E
:1042B0009847E8E78C1F0020811F0020841F002002
:1042C000AC200020114B124993F88E200020032AC5
:1042D000087019D010B5D3F8804082B00CB102B08C
:1042E00010BD6FF080710B48FFF780FA0A4B8DF814
:1042F0000740062108221B688DF804108DF806205F
:1043000001A8984702B010BD704700BF8C1F002065
:10431000811F0020841F0020AC20002010B5144B0A
:10432000144993F81E210020032A82B0087017D088
:10433000D3F810410CB102B010BD6FF480710E487B
:10434000FFF754FA0D4B8DF80740062188221B68B1
:104350008DF804108DF8062001A8984702B010BD12
:104360006FF480710448FFF741FA02B010BD00BF3E
:104370008C1F0020811F0020841F0020AC20002003
:10438000084B094993F89E200020032A087003D0A7
:10439000D3F8903003B170476FF001010348FFF785
:1043A00025BA00BF8C1F0020811F0020841F002021
:1043B000084B094993F8EE200020032A087003D027
:1043C000D3F8E03003B170476FF020010348FFF7E6
:1043D0000DBA00BF8C1F0020811F0020841F002009
:1043E000084B094993F8FE200020032A087003D0E7
:1043F000D3F8F03003B170476FF040010348FFF786
:10440000F5B900BF8C1F0020811F0020841F0020F1
:10441000084B094993F8AE200020032A087003D006
:10442000D3F8A03003B170476FF002010348FFF7E3
:10443000DDB900BF8C1F0020811F0020841F0020D9
:10444000084B094993F8BE200020032A087003D0C6
:10445000D3F8B03003B170476FF004010348FFF7A1
:10446000C5B900BF8C1F0020811F0020841F0020C1
:10447000084B094993F8CE200020032A087003D086
:10448000D3F8C03003B170476FF008010348FFF75D
:10449000ADB900BF8C1F0020811F0020841F0020A9
:1044A000084B094993F8DE200020032A087003D046
:1044B000D3F8D03003B170476FF010010348FFF715
:1044C00095B900BF8C1F0020811F0020841F002091
:1044D000084B094993F80E210020032A087003D0E5
:1044E000D3F8003103B170476FF080010348FFF744
:1044F0007DB900BF8C1F0020811F0020841F002079
:1045000030B5154B154C9A7F0021032A83B02170DA
:1045100005D01D696DB1FFF775FD03B030BD6FF4B7
:1045200000310F48FFF762F92378002BF3D003B076
:1045300030BD6FF400310A48FFF758F9094B8DF888
:104540000750062101221B688DF804108DF8062003
:1045500001A89847E8E700BF8C1F0020811F0020BA
:10456000841F0020AC20002030B5154B154C93F86B
:104570002E200021032A83B0217005D01D6A6DB161
:10458000FFF740FD03B030BD6FF480210E48FFF708
:104590002DF92378002BF3D003B030BD6FF48021C8
:1045A0000948FFF723F9094B8DF80750062102222D
:1045B0001B688DF804108DF8062001A89847E8E7DD
:1045C0008C1F0020811F0020841F0020AC200020B1
:1045D00030B5154B154C93F83E200021032A83B0CB
:1045E000217005D01D6B6DB1FFF70CFD03B030BD20
:1045F0006FF400210E48FFF7F9F82378002BF3D071
:1046000003B030BD6FF400210948FFF7EFF8094B04
:104610008DF80750062103221B688DF804108DF8D1
:10462000062001A89847E8E78C1F0020811F002082
:10463000841F0020AC20002030B5164B164C93F898
:104640004E200021032A83B0217005D01D6C6DB16E
:10465000FFF7D8FC03B030BD6FF480110F48FFF7AF
:10466000C5F82378002BF3D003B030BD6FF4801170
:104670000A48FFF7BBF80A4B8DF8075004220621C1
:104680001B688DF804108DF806200DEB020098478A
:10469000E7E700BF8C1F0020811F0020841F00203F
:1046A000AC20002030B5154B154C93F85E2000214E
:1046B000032A83B0217005D01D6D6DB1FFF7A2FCF8
:1046C00003B030BD6FF400110E48FFF78FF8237868
:1046D000002BF3D003B030BD6FF400110948FFF791
:1046E00085F8094B8DF80750062105221B688DF8C7
:1046F00004108DF8062001A89847E8E78C1F0020D9
:10470000811F0020841F0020AC20002030B5154BF5
:10471000154C93F86E200021032A83B0217005D038
:104720001D6E6DB1FFF76EFC03B030BD6FF48001FC
:104730000E48FFF75BF82378002BF3D003B030BDB1
:104740006FF480010948FFF751F8094A8DF80750C6
:10475000062312688DF804308DF8063001A89047C2
:10476000E9E700BF8C1F0020811F0020841F00206C
:10477000AC20002030B41E4C2378002B35D11D49CD
:104780001D4A086001211846217015461346402431
:1047900008E0082903F1100301F101010CBF4FF4F7
:1047A000007440240929A3F89C4083F89E00C3F8B4
:1047B0009000C3F89800ECD101204024002300E0D1
:1047C0000846411C0929948193731360936002F198
:1047D0001002F5D10201A9184FF4007088818B7383
:1047E000AB508B60002030BC7047082030BC704755
:1047F000821F0020AC2000208C1F00200249034AA9
:1048000000230B6013707047AC200020821F002033
:10481000354B4FF4006270B5C3F80024BFF36F8FBF
:10482000BFF34F8F314B1B68102B40D02E4B012212
:10483000C3F80025BFF36F8FBFF34F8FD3F8002469
:104840001205FBD54FF40062C3F80024BFF36F8F4D
:10485000BFF34F8F264D2749274E2848284A8024EA
:10486000C3F81C450024C3F830452C600C7040F29E
:10487000FF1502211D4B3470056011701B68102B51
:1048800000D070BD1F4B1B68012BFAD82046FFF7E4
:10489000E3F91D4B1A68FAB91C4849F275311960E1
:1048A000026019600020BDE87040FFF7DDB9154BCC
:1048B0001B68012BBAD80020FFF7CEF9124B1A68FB
:1048C0006AB9124949F2753203201A6008601A6009
:1048D0000020FFF7C9F9A9E70C4B1C60E2E70B4B7E
:1048E00003221A60F4E700BF00700240300100109C
:1048F000841F0020811F0020B0200020881F00207E
:10490000821F00203401001000EC064014ED064028
:1049100030B40D4B0D4D0E4C0E4A0F4900280CBF04
:104920001846284600232370C02580240123C2F89E
:10493000040381F827534C60C2F80435BFF36F8F2E
:10494000BFF34F8F30BC70470714C0010714E0015C
:10495000801F00200070024000E100E0034B187847
:10496000012894BF00200120704700BF821F002053
:10497000044B1B78012B83BF034B5868C0F3C01056
:1049800000207047821F002000E100E010B50020E9
:10499000FFF762F90B4B1B7803F0FF0433B10A4BAE
:1049A000D3F82C253AB10022C3F82C250020FFF7BC
:1049B0005BF9204610BD14460020FFF755F920464C
:1049C00010BD00BF801F002000700240024B034A50
:1049D000C3F80823704700BF007002400414800130
:1049E000024B034AC3F80423704700BF0070024023
:1049F00004148001014B00221A707047801F0020B0
:104A0000064B10F0800FA3F1900200F00F0008BFDA
:104A1000134603EB00139889704700BF1C20002049
:104A2000064A010600F00F034CBFD2F81005D2F879
:104A30001405D84000F00100704700BF007002402C
:104A40002DE9F04147B2002F00F00F04ACBF102554
:104A50000025804600200E462544FFF7FDF81CB9CE
:104A6000304B1B78434533D12F4BDFF8E8E01B6810
:104A7000DEF800C0DB439BB2012243EA0C0302FADA
:104A800005F52B422BD124B204EB4403002F4FEA4F
:104A900083034FEA041429DB244F254A2549395161
:104AA0001344274496E807004CEA0505224ECEF849
:104AB00000500024802583E80700C7E90134BC7357
:104AC0000020C6F80451FFF7CFF82046BDE8F0817A
:104AD00010240020FFF7C8F82046BDE8F08111241B
:104AE0000020FFF7C1F82046BDE8F081134A316885
:104AF000134801F060411344B268B1F1005F00EB6C
:104B0000040702F0010203D032B90E4A0251C9E78C
:104B10002AB90D4A0251C5E70C4A0251C2E70C4AB4
:104B20000251BFE7B0200020881F00208C1F00200A
:104B3000DC2400207D3C000000E100E07024002027
:104B40001C200020813D0000B53C0000B93D000064
:104B5000DD3C0000841F00202DE9F04146B2002E0C
:104B600000F00F04B4BF00231023804600200F463E
:104B7000E518FFF771F81CB91C4B1B78434527D18A
:104B80001B4B1C4918680A68C04380B201231043BC
:104B9000AB40184023D1184DDFF860C0A5F1900E4E
:104BA00015EA260638BF7646240135191343A86056
:104BB0003A6832517C686C608022A8730B600446AE
:104BC000CCF804210020FFF74FF82046BDE8F08123
:104BD00010240020FFF748F82046BDE8F08111249A
:104BE0000020FFF741F82046BDE8F081B02000200A
:104BF000881F0020841F00201C20002000E100E00E
:104C000000487047B4200020044B40F48070C3F883
:104C10001805BFF36F8FBFF34F8F704700700240CE
:104C200000F00F03072B0BD802060BD40B4A9B0096
:104C30001A445068A0F10100B0FA80F040097047B2
:104C40000020704703F58473054A52F82300A0F151
:104C50000100B0FA80F04009704700BF4074024084
:104C600000700240064BC3F80C05BFF34F8F40F4B1
:104C70008070C3F80C05BFF36F8FBFF34F8F704781
:104C80000070024010B5082200210446FBF74AFBE1
:104C90000E4BD3F880242270D3F884246270D3F8AA
:104CA0008824D3F88C1442EA01226280D3F890243D
:104CB000D3F8941442EA0122A280D3F89824D3F8BE
:104CC0009C3442EA0323E38010BD00BF0070024021
:104CD000034B01221A60BFF36F8FBFF34F8F7047F2
:104CE0004C700240034B01221A60BFF36F8FBFF379
:104CF0004F8F704750700240034B01221A60BFF380
:104D00006F8FBFF34F8F704754700240014B18787C
:104D1000704700BFB020002038B504460020FEF7E1
:104D20009BFF104D14F0800F14BF0022102204F0DE
:104D30000F0081182B6801228A4023EA020307280A
:104D40002B6009D800F59470074B002243F820200F
:104D5000BFF36F8FBFF34F8F0020BDE83840FEF7E1
:104D600083BF00BF881F0020007002402DE9F04F74
:104D70005B4CDFF878A12368DFF88491DAF8002033
:104D800099F800705749DB439BB213433A0683B04E
:104D900007F00F08D1F880543ED408F11002012624
:104DA0009640334219D1504E01AF05F080056FF0A7
:104DB00001114E4889F80050FEF718FD236832684B
:104DC0000521002543F00103019538468DF80410B4
:104DD0002360904703B0BDE8F08F0020FEF73CFF52
:104DE000DAF8003042494FEA081836EA030001EBCE
:104DF000080B5DD1226841F80800F6433340324089
:104E0000CAF8003022600323374E8BF80E3001AF12
:104E10000020FEF729FFC8E74FF0010B0BFA08FB53
:104E200013EA0B0FBFD00020FEF716FF314A4FEAFE
:104E30000811B8F1070F02EB010014D8802F3BD006
:104E4000DFF8B8C02C4E08F2DA384FEA4803CCF845
:104E500000303368D6F800C0DBB243F0020343EA07
:104E60000C03336033682368DAF800C06CEA030689
:104E700016EA0B0F31D01C4E8DF806702CEA0B078A
:104E80004FF000084FF0030CCAF800704FF0060E08
:104E900001AF42F8018043EA0B0380F80EC032688C
:104EA0008DF807C08DF804E0384623609047AFE7DF
:104EB0003846FFF731FFA6E7104B0F4E40F2B47CA7
:104EC000C3F800C03368D6F800C0DBB243F0040377
:104ED00043EA0C0333603368C5E701AF024E97E73E
:104EE000881F002000700240AC200020841F00209A
:104EF0008C1F00201C200020047802400078024013
:104F0000B0200020224BD3F80413002939D02DE91A
:104F1000F04100252F46012691FAA1F31D4AB3FA6C
:104F200083F39800024406FA03F014682CB117606A
:104F3000BFF36F8FBFF34F8F05438143ECD105F46F
:104F4000000735F400050DD0DFF85080012695FAF2
:104F5000A5F4B4FA84F458F8243006FA04F4984717
:104F6000A543F4D10C4B1B7833B10FB9BDE8F081E8
:104F7000BDE8F041FFF7FABEFFF744F8002FF5D087
:104F8000F6E7054B1B7803B17047FFF73BB800BF4E
:104F90000070024000710240811F00205C980000F8
:104FA00038B545B2002D00F00F0430DB224B234A08
:104FB000195D012303FA01F1C2F80413D2F81415A4
:104FC000E140C90730D4D2F81415A3400B43C2F80E
:104FD0001435BFF36F8FBFF34F8F631E062B23D89B
:104FE000002D21DB05460020FEF736FE2846FFF7A0
:104FF00093FE134910340B68012202FA04F423EAE9
:1050000004030B600020BDE83840FEF72DBE0D4BB9
:105010000A4A195D012303FA01F1C2F80413D2F818
:105020001015E140C90700D538BDD2F81015A340CE
:105030000B43C2F81035CCE73C98000000700240EA
:10504000841F00201C980000030610B5044609D4F4
:1050500000F00F03072B05D8084A9B001A44536839
:10506000012B07D0064BC3F81845BFF36F8FBFF372
:105070004F8F10BDFFF750FEF4E700BF40740240B1
:10508000007002402DE9F04F514FDFF854813B682A
:10509000D8F800204FEA134B4FEA0B4B5BEA020BA8
:1050A00085B040D0DFF83C91012604E006FA04F414
:1050B0003BEA040B37D09BFAABF4B4FA84F4E5B2C4
:1050C0000F2CC6BF103DEDB245F0800505F00F0A6C
:1050D000BAF1070FEAD80020FEF7BEFD2B064FEA13
:1050E0000A1026D40AF1100AD8F8001006FA0AFAB3
:1050F0003AEA010309EB000254D13D6849F8003057
:105100006FEA0A0A01EA0A0105EA0A03C8F8001070
:105110003B6003239373002006FA04F4FEF7A4FD1A
:105120003BEA040BC7D140F2FF133B6005B0BDE87A
:10513000F08F284A802D02EB000C39D026490AF264
:10514000DA335B000B604B680431DBB2096843F073
:1051500002030B4321490B600B683968D8F8003013
:1051600006FA0AFA63EA010E1EEA0A0FD3D023EA0E
:105170000A03DFF874E08DF80E5041EA0A010025B9
:10518000C8F800304FF0060A032315508DF80F3091
:10519000DEF800208CF80E308DF80CA003A83960E2
:1051A0009047B8E728460192FFF7B6FD019AB0E7AD
:1051B000094B40F2B471196008490B680968DBB209
:1051C00043F004030B4305490B600B68C5E700BFC0
:1051D000881F00201C200020007802400478024034
:1051E000841F00208C1F0020AC20002008B5FFF792
:1051F00049FF084B0022C3F80425BFF36F8FBFF3AC
:105200004F8F054980204FF0FF32C1F88400C3F86A
:10521000082308BD0070024000E100E0044B80223A
:10522000C3F884215B681B0600D47047FFF7DEBF1C
:1052300000E100E008B50D4B8022C3F884215B68D3
:105240001B0601D5FFF7D2FF094B0022D3F8041348
:10525000C3F80813C3F80025BFF36F8FBFF34F8F58
:105260000449054B0A7001221A7008BD00E100E0F4
:1052700000700240811F0020821F002010B5002016
:10528000FEF7EAFC104B1B782BB900240020FEF738
:10529000EBFC204610BD03F0FF04FFF7F3FE0B4AC2
:1052A000D2F8003413F40073EFD10121C2F82C15A9
:1052B000D2F80014890544BF1C46C2F82C350020E2
:1052C000FEF7D2FC204610BD801F00200070024077
:1052D0002DE9F041044682B00020FEF7BDFC04F049
:1052E0000F0322064FEA03101FD4374E374D3168A3
:1052F00003F110020123934033EA010205EB00079A
:105300000FD1334C2A502268DB43194013403160DF
:1053100023600323BB730020FEF7A6FC02B0BDE8A8
:10532000F0812046FFF7F8FCF3E72A49072B01EB51
:1053300000050FD8802C39D0274F284E03F2DA32DF
:1053400052003A6032683768D2B242F002023A4301
:1053500032603268DFF878C0DFF86C80DCF800E09B
:10536000D8F80020012762EA0E0607FA03F31E426E
:10537000D1D022EA03021A4E8DF80640C8F8002068
:105380000027032206240F504EEA03033168AA7354
:105390008DF8072001A88DF80440CCF8003088472C
:1053A0000020FEF761FC02B0BDE8F0810A4A0B4E16
:1053B00040F2B477176032683768D2B242F0040224
:1053C0003A4332603268C5E7841F00208C1F0020FA
:1053D000881F00201C200020007802400478024032
:1053E000AC2000202DE9F047054600F00F0482B004
:1053F00000206EB2FEF730FC002E4FEA04113CDBB9
:10540000DFF848C14A48DCF8002004F11007012306
:10541000BB4033EA020E00EB01072AD1454D40F8AC
:1054200001E02968DB431A400B40CCF800202B60D8
:105430000323BB730020FEF717FC3F490122D1F87C
:105440001435A24023EA0203C1F81435BFF36F8F6D
:10545000BFF34F8F394B3A4A374932EA260228BF09
:105460001A460123125D9340C1F8083302B0BDE82B
:10547000F0872846FFF750FCDAE7DFF8D4C0072CA6
:105480000CEB010834D9DFF8ACE0DFF8C0A0DEF89F
:105490000020DAF800000123A34060EA020919EABB
:1054A000030F6FEA030719D03840DFF8A890CAF855
:1054B00000008DF80650032000254FF0060A134324
:1054C0004CF801508DF8070088F80E00D9F800203C
:1054D0008DF804A001A8CEF8003090470020FEF718
:1054E000C3FB154AD2F810351F40C2F81075ADE75E
:1054F000802D0ED01348144A04F2DA335B000360A7
:1055000013681068DBB243F00203034313601368AF
:10551000B9E70C4B0C4A40F2B4701860136810687D
:10552000DBB243F00403034313601368ABE700BF2F
:105530008C1F0020881F0020007002401C98000073
:105540003C9800000078024004780240841F00204C
:105550001C200020AC2000200378052B02D0094B32
:105560001B681847084BD3F88424D3F8803413F011
:10557000FF0FF4D1054BD2B2052A08BF1846014BE4
:105580001B681847F420002000700240C8980000F3
:10559000014B02481B681847F4200020CC980000FB
:1055A0002DE9F04F87B006AF0026044689469246A3
:1055B0009B4647F8106D00E001366268012355688C
:1055C000214600223846A8470028F5D18DF806006C
:1055D000049066B3804605460AE09DF80630676889
:1055E000023B7F68B8479DF806301D44AE421ED985
:1055F00062680123576821460DF1060204A8B847E6
:1056000062680123576821460DF1070204A8B847D4
:105610009DF807304B454FF00002214604A8DCD12D
:10562000C24508D008F101085FFA88F8D5E70520DF
:1056300007B0BDE8F08F109A9DF8063013608BF824
:1056400000308BF801906168023B4D680BF102025B
:105650002146A8470020EBE72DE9F041054682B03E
:105660003E48FFF787F8044618B1204602B0BDE86F
:10567000F0813B4A3B493C4B14700C604822214668
:105680003A481C60FAF74EFE214648223848FAF79D
:1056900049FE002D57D095E80700364B83E80700F8
:1056A000002848D00020FEF793F900283ED1324E62
:1056B000DFF8BCC0337A7768DFF8B0E006F10901A3
:1056C0004FF0030818FB031888451FD0F1B14D783F
:1056D000CDB18C780B1918BF012202D113E0CB1881
:1056E00011D0187800F00F03DB0000064CBF7344A4
:1056F00063441E6038685860D0B2854202EB0403F0
:1057000002F10102EBD803318845DFD102A90B2356
:1057100001F8043D18483B68984704460028A4D087
:10572000FFF76CF8204602B0BDE8F0818528BED0B6
:10573000FEF768FABBE7114A1A600020FEF748F945
:105740000028B4D0F2E70B4B0C4A5D6000201D72BC
:105750001A60FEF73DF90028A9D0E7E75955000087
:105760009921002090210020942100200021002078
:1057700048210020F4200020F89800000D5B000074
:10578000FFF746B8FFF756BD4FF0804303E0D3F86C
:105790003824D10707D5D3F838249207F7D5024B20
:1057A00002481B6818477047F4200020D09800007A
:1057B00000B583B002A8822300F8043D024B1B68A9
:1057C000984703B05DF804FBF42000202DE9F04178
:1057D000067A374FDFF8E0C000F109044FF0030EFE
:1057E0001EFB064E21468E4582B01AD0D1B14D78AF
:1057F000002211E08B781344D9420FD011F80380B6
:1058000008F00F03DB0018F0800F14BF6344DB19AE
:1058100001321B68002B46D19542EBD103318E45F6
:10582000E4D10021CDB2B542214FDFF88CC028D29F
:1058300005EB4505651924D06B78F3B1AB78EB180F
:1058400018BF4FF0010E05D117E0AB787344EB1889
:1058500012D096461B7803F00F02D2001B064CBFF5
:105860006244D219106043681E6856606E780EF16B
:1058700001037645DAB2E8D8067A0131CDB2B542F5
:10588000D6D30C4A13681BB11A681368002BFBD1DE
:1058900002A910600B2201F8042D43681B68984789
:1058A00002B0BDE8F081112002B0BDE8F08100BF78
:1058B000482100209021002000210020024B187870
:1058C000003018BF012070479821002000F00F031E
:1058D000072B10B5044604D8FFF7C4F92046FFF79C
:1058E000B3FB2046BDE81040FFF75ABBFFF77ABD77
:1058F000014B1868704700BF9021002070B4114B15
:105900001E68A6B1357A75B1737A834206F1090231
:1059100010D0002303E012F8034F84420BD0013370
:10592000DBB29D42F7D133681E68002EEAD13046C3
:1059300070BC704700230029F9D030460B7070BC52
:10594000704700BF90210020436811461B6818472C
:1059500000F00F03082B0AD802064CBF054A064A7E
:10596000DB001344186810B143681B681847102007
:10597000704700BF002100204821002038B5094BA6
:105980001C6864B1054602E023681C683CB163688A
:1059900029461B68204698470628F5D038BD0620C2
:1059A00038BD00BF9021002038B50D460446FFF7F2
:1059B00037F818B1054B1B78022B01D0082038BDF1
:1059C00029462046BDE83840FFF73AB89921002023
:1059D00038B50D460446FFF723F818B1054B1B7880
:1059E000022B01D0082038BD29462046BDE83840AA
:1059F000FFF7B2B899210020F8B543689B680546C7
:105A00000C4616461BB19847062800D0F8BDF6B9DB
:105A10002B7AA34217D9093504EB44042C44677848
:105A20009FB133463A4609E0A378A2190136D05C0B
:105A3000FFF74CFFF3B29F4207D962789342F3D34A
:105A400000231B78FFDE7378FFDE0020F8BD0720FF
:105A5000F8BD00BF70B54368DB6804460D4603B16E
:105A60009847237AAB4219D9093405EB45052544FB
:105A70006E7896B100242346324609E0AB782A19A5
:105A80000134D05CFFF7AEFCE3B29E4205D96A78E0
:105A90009342F3D300231B78FFDE70BD00235B78B5
:105AA000FFDE00BF43681B6903B118471846704703
:105AB00070B50A4B1D687DB12E7A4EB10024214687
:105AC000013400222846FFF797FFE1B2B142F7D335
:105AD0002B681D68002DEFD170BD00BF9021002004
