:04000003100043BDE9
:020000040000FA
:10E0000000000420BD430100E5430100E743010097
:10E01000E9430100EB430100ED4301000000000073
:10E02000000000000000000000000000EF430100BD
:10E03000F143010000000000F3430100F54301003B
:10E04000E14C0100F743010009F70000F74301002C
:10E0500085540100F7430100DD460100F74301004C
:10E06000F7430100F7430100F7430100F7430100C4
:10E07000F7430100F7430100F7430100F7430100B4
:10E080006D4A0100B9490100F7430100F74301005F
:10E09000F7430100F7430100F7430100F743010094
:10E0A000F7430100F7430100F7430100F743010084
:10E0B000F7430100F74301000000000000000000EA
:10E0C000F7430100F7430100F7430100F743010064
:10E0D000F7430100F7430100F7430100C972010053
:10E0E00071FC0000F7430100F7430100000000004D
:10E0F00000000000F743010000000000F7430100AA
:10E10000000000000000000000000000000000000F
:10E1100000000000000000000000000000000000FF
:10E1200000000000000000000000000000000000EF
:10E1300000000000000000000000000000000000DF
:10E1400000000000000000000000000000000000CF
:10E1500000000000000000000000000000000000BF
:10E1600000000000000000000000000000000000AF
:10E17000000000000000000000000000000000009F
:10E18000000000000000000000000000000000008F
:10E19000000000000000000000000000000000007F
:10E1A000000000000000000000000000000000006F
:10E1B000000000000000000000000000000000005F
:10E1C000000000000000000000000000000000004F
:10E1D000000000000000000000000000000000003F
:10E1E000000000000000000000000000000000002F
:10E1F000000000000000000000000000000000001F
:10E2000010B5054C237833B9044B13B10448AFF370
:10E2100000800123237010BDF402002000000000E4
:10E22000C4DA010008B5034B1BB103490348AFF33F
:10E23000008008BD00000000F8020020C4DA0100E0
:10E24000154B002B08BF134B9D46A3F5803A0021C8
:10E250008B460F461348144A121A00F063F80F4B0E
:10E26000002B00D098470E4B002B00D09847002081
:10E27000002104000D000D48002802D00C48AFF327
:10E28000008000F02BF82000290000F075FB00F062
:10E2900011F800BF0000080000000420000000008A
:10E2A00000000000F4020020C83F00200000000031
:10E2B0000000000008B5074B044613B10021AFF37E
:10E2C0000080054B1868836A03B19847204600F028
:10E2D00031F800BF00000000C4C0010070B50D4E51
:10E2E0000D4CA41BA4100025A54209D10B4E0C4CCB
:10E2F0000DF0DCFEA41BA4100025A54205D170BDC5
:10E3000056F8253098470135EEE756F825309847FE
:10E310000135F2E7EC020020EC020020EC020020C4
:10E32000F002002002440346934200D1704703F8F4
:10E33000011BF9E7FEE700BF38B5064D2C69A04781
:10E34000421C05D06D69C0B2A847A047431CFAD152
:10E3500038BD00BF1CC3010010B5038884B004465B
:10E360005BB1732B04D173230120238004B010BD53
:10E3700000230380032004B010BD04F025FE1348E1
:10E3800004F06AFE1249134804F066FE02F04EFEE5
:10E390000146114804F060FE02F0B2FA01460F484F
:10E3A00004F05AFE04F056F90D4803F0C1F803F0EA
:10E3B00099F80C49684603F05DFB0B4800F0C0FA81
:10E3C0000A4B0B491B6803209847CCE7D0C00100DB
:10E3D000ECC00100F0C0010000C1010010C101004B
:10E3E00050C4010020C10100F5E300001CC301007E
:10E3F00039E3000000F080B838B5074B1C69A0472E
:10E40000421C07D0054DC1B2284604F025FEA047A6
:10E41000431CF8D138BD00BFC0C2010030C10100AB
:10E4200070B502F003FE01460B480C4C04F014FEDC
:10E4300002F066FA01460A4804F00EFE094BE6684F
:10E440005D6828460DF0E0F901462846B04763694B
:10E450000A20BDE87040184700C10100C0C2010099
:10E4600010C10100A000002070B5074B074C5D688B
:10E47000E66828460DF0C8F901462846B0476369AA
:10E480000A20BDE870401847B0000020C0C201005B
:10E4900010B5094B09495A68B2B0034668460DF0F9
:10E4A0008BF9074B6846DC680DF0AEF9014668460B
:10E4B000A04732B010BD00BF9000002038C101005D
:10E4C000C0C2010010B5094905F0D6FE60B104468E
:10E4D0000DF09AF9064B074A00F10801A4F1080073
:10E4E000BDE8104004F03CBD10BD00BF34C10100C8
:10E4F00078C20100C0C201000C4B0D491B6810B569
:10E5000004460320984704F05FFD0A4804F07AFDB2
:10E51000094804F077FD094804F074FD04B910BD02
:10E520000748BDE8104004F06DBD00BFC0C2010047
:10E53000F9E30000A00000209000002080000020EF
:10E54000B000002038B54FF4FA744FF47A7000F040
:10E55000B1FD013CF9D1094B1C69A0470130FCD148
:10E56000074C084B0848256823600BF0FDFF02218B
:10E5700006480BF0D7FF256038BD00BFC0C20100C0
:10E580001C350020C00000202403002010030020C0
:10E590002DE9F043A949AA4BAA4EAB4D804603C9C9
:10E5A0008FB06F46944687E803000FCB0AAC07C4D0
:10E5B000238096E80F0002AC07C4237095E80F0093
:10E5C00006AC07C4B8F800202370AAB1532A0CD1B6
:10E5D0009E4B9C451DD09E4B9C4531D05323012022
:10E5E000A8F800300FB0BDE8F0830023A8F8003091
:10E5F00003200FB0BDE8F083964B97491B680320BA
:10E600009847964B4FF48071186090480BF08AFF42
:10E61000E4E760460BF09AFF0028DFD08F4A8D4B6D
:10E6200010685B6898478E4804F016FD8D4B1B6898
:10E630000BB1002098470023A8F800300220D8E74B
:10E6400060460BF083FF0028C8D0DFF8389299F8B5
:10E6500000303BB3012B6BD0022B00F08B80032BDF
:10E6600000F0A080042B00F0B380052BB6D14FF052
:10E67000A04403234FF40025C4F84C370120C4F80C
:10E680000C5500F021FD754A724BC4F808555B68C3
:10E6900010689847734B1B68002BCCD0724A1078D7
:10E6A0009847C8E76B4B714ADE68714C4FF0A04148
:10E6B0000C23C2F818370325C1F85837C1F864375E
:10E6C000C2F804372A460AA920460DF075F82046FC
:10E6D0000DF09AF801462046B0472A4602A9204686
:10E6E0000DF06AF820460DF08FF8013501462046FE
:10E6F000B047072DE6D1032206A95D480DF05CF86E
:10E700005B480DF081F801465948B04739465848F2
:10E710000DF052F856480DF077F801465448B047CE
:10E72000012304214A4889F800300BF0FBFE55E72D
:10E730004E4BD3F810355F060ED54FF0A043D3F8FB
:10E740001025560208D4D3F810359D0104D4474B48
:10E75000D3F810359C0751D5464804F07DFC424A59
:10E760003B48002105231170012189F800300BF08E
:10E77000D9FE33E73D4BD3F81035580610D44FF08F
:10E78000A043D3F8103559020AD54FF0A043D3F86F
:10E7900010359A0104D4354BD3F810359B0773D547
:10E7A0003548DAE7314BD3F810355F060ED44FF019
:10E7B000A043D3F81025560208D4D3F810359D0194
:10E7C00004D52A4BD3F810359C077DD52B48C4E7D8
:10E7D000264BD3F8102550060ED44FF0A042D2F8A5
:10E7E0001015490208D4D2F81025920104D4D3F8A8
:10E7F00010359B0700F188802148AEE702A903226B
:10E800001B480CF0D9FF134B1948DC680CF0FCFFD7
:10E8100001461748A04706A9042215480CF0CCFF72
:10E8200013480CF0F1FF01461148A04702230121D3
:10E83000074889F800300BF075FECFE628C20100CA
:10E8400030C2010040C2010050C201002403002078
:10E8500010030020C0C2010045E50000380400207C
:10E860009CC1010034030020CC00002000030050B4
:10E8700038030020B8C10100D4C10100F0C101007B
:10E880000CC201002003002002A9042229480CF038
:10E8900093FF294B2748DC680CF0B6FF014625485A
:10E8A000A04706A9052223480CF086FF21480CF05A
:10E8B000ABFF01461F48A047032301211F4889F8E9
:10E8C00000300BF02FFE89E602A9052219480CF052
:10E8D00073FF194B1748DC680CF096FF014615488A
:10E8E000A04706A9062213480CF066FF11480CF059
:10E8F0008BFF01460F48A047042301210F4889F8E8
:10E9000000300BF00FFE69E602A9062209480CF060
:10E9100053FF094B0748DC680CF076FF01460548B9
:10E92000A04705230121054889F800300BF0FAFDC6
:10E9300054E600BF38030020C0C2010010030020CD
:10E9400038B50B4A4FF0A04403234FF40025106064
:10E95000C4F84C370120C4F80C5500F0B5FBC4F8DE
:10E96000085500210348BDE838400BF0B7BE00BF92
:10E9700034030020C000002010B500F0B7FB01F008
:10E980003DF803F013FE02F051FE09480BF03CFC89
:10E990000BF0E6FE044600F06BFA002CF8D172B6DC
:10E9A0000BF030FF10B9BFF34F8F30BF62B6EFE707
:10E9B000C8C001002DE9F041D0E902470546E41B3B
:10E9C00040689442164638440DD8161B88462246A5
:10E9D0000CF075FE08EB0401324668680CF06FFE1F
:10E9E000EE60BDE8F0813E440CF069FEEE60BDE8EB
:10E9F000F08100BF2DE9F8438846D0E902150646AC
:10EA000017464FF00009336970689D4203F1FF34E7
:10EA100026BF03F1FF335B18631BA1EB050428BF7E
:10EA20005B1BBC4228BF3C469C4228BF1C4641465B
:10EA3000284422460CF043FEB1682544A94208BF91
:10EA400000253F1BA144A044F560DCD14846BDE849
:10EA5000F88300BF38B5114C114BE3614FF40063EC
:10EA600010482362102500230F4AA3620F496066F5
:10EA7000A56663622367E366E01D01230325E36265
:10EA80006367A2612266C4E904550CF0B5FE204616
:10EA900007490CF0B1FE2023A37138BD30350020AA
:10EAA0004C0400203C04002060C201006CC2010044
:10EAB00070C201002DE9F04FDFF8A89099F80030FE
:10EAC00083B080468B469246002B47D04FEA4807DA
:10EAD00007EB080609EBC606356FF36E9D421FD89B
:10EAE0005C1B544528BF54461CB9204603B0BDE802
:10EAF000F08F002607EB080309EBC3032246596E8B
:10EB0000584629440CF0DBFD25443444002CECD05D
:10EB1000474409EBC70720463D6703B0BDE8F08FC7
:10EB2000D6E91914641B544528BF5446224629448B
:10EB3000584601930CF0C3FDB26E019B2544AA42D6
:10EB4000AAEB040A14BF5B1B0025534528BF53469C
:10EB5000002BDBD0A34426461C46CBE7FFF77AFF09
:10EB6000B4E700BF3035002010B50B46EFF3118439
:10EB70004FF0200181F311881946FFF79BFF84F3C2
:10EB8000118810BD70B5204D00EB400305EBC303A9
:10EB90000130DC6A00EB4000012C05EBC0000E46A2
:10EBA000154617D008D3022C02D00024204670BD91
:10EBB000BDE87040FFF71EBF9A6A596A8A421DD9A4
:10EBC000013A521A9542F1D831462A46FFF7F2FE31
:10EBD0002C46EBE79A6A5C6AA2420AD9013A141BF6
:10EBE000AC4228BF2C4631462246FFF7E3FE2046C2
:10EBF00070BD1B6A1344013B1C1BF1E71B6A1344E5
:10EC0000013B5A1ADEE700BF3035002030B50C4B0F
:10EC10001B7883B00D462BB9CDE90002FFF71AFF30
:10EC2000DDE90002EFF311844FF0200181F3118838
:10EC30002946FFF7A7FF84F3118803B030BD00BF5A
:10EC400030350020044B00EB400003EBC003D86ECE
:10EC50001B6FC01A704700BF303500200C4BDA6EB6
:10EC60001B6F9A4211D000B583B001220DF107014C
:10EC70000020FFF779FF012804D19DF8070003B0B9
:10EC80005DF804FB4FF0FF30F9E74FF0FF307047BD
:10EC9000303500202DE9F0410A460D460746014671
:10ECA0000020FFF7B3FF8542044610D8164E4CB93A
:10ECB0003368012B01DC013333602046BDE8F0816D
:10ECC000002CFAD0002333602046BDE8F08100F02C
:10ECD00005FA00F500600C4E1FFA80F808E0336872
:10ECE000012BEDDC00F0FAF9A0EB08000304DED5FF
:10ECF0002A1B39190020FFF789FF0444A542EED8EA
:10ED0000002CD5D0DEE700BF900C002009B90846E2
:10ED10007047FFF7BFBF00BF00B583B002AB012152
:10ED200003F8010D1846FFF7B5FFA0F10100B0FA96
:10ED300080F0400903B05DF804FB00BF38B505461C
:10ED400000200C46FFF77EFFA04228BF204600B9F6
:10ED500038BD224629460020BDE83840FFF704BFF1
:10ED600010B50F4805F000FB03280BD8DFE800F0D2
:10ED7000020B020B0B4C237823B10B480BF0FCFA6F
:10ED80000023237010BD07490B78002BFAD1012412
:10ED90000C70064A04481921BDE810400BF0C4BAB3
:10EDA000700C00204C0C0020500C0020E5ED000001
:10EDB00008B50146034805F0C5FABDE80840FFF76D
:10EDC000CFBF00BF700C002010B50A4601460448B2
:10EDD00005F0A4FA044608B1FFF7C2FF204610BDB3
:10EDE000700C002008B50B4B1B788BB10A4BDA6E08
:10EDF0001B6F9A4204D10948BDE808400BF0A0BA45
:10EE0000074805F0CBFA0548BDE808400BF098BA72
:10EE100008BD00BF4C0C002030350020500C0020F5
:10EE2000700C0020704700BF08B50949094805F07B
:10EE300031FE48B9084805F067FE08B106F0CEFE7D
:10EE4000064B01221A7008BD06F0C8FEF2E700BFAB
:10EE500025EE000090C20100940C0020950C0020CB
:10EE6000024B1B7803B9704705F040BE950C00209B
:10EE7000034B1B7803B97047024B187805F068BE46
:10EE8000950C0020940C0020034B186818B9034817
:10EE9000034A104418607047980C0020FCFD0000E5
:10EEA000B8DF0000F8B5294B294DD3F804452B688D
:10EEB000284A294F16682949DFF8B8C0E31A23F019
:10EEC0007F43C3EB431003EB8000304410601068B5
:10EED0001668C6F3080616603E68400A06443E609F
:10EEE0000F681F4E384408600A680F68ACFB0202C6
:10EEF00092094FF47A7000FB12700860316819486B
:10EF0000194F0A44326002681849134403600268CA
:10EF10003B6803EB12133B60036803F00F030360CD
:10EF2000224610320A40131B23F07F43012BF8D9ED
:10EF3000012300210E482C6005F0F0FC0BF00CFBC7
:10EF400000B9F8BDBDE8F8400BF0E6BA001001408A
:10EF5000A00C0020B00C0020AC0C0020B80C00204D
:10EF6000B40C0020A80C0020A40C0020F0FFFF002F
:10EF7000B8C20100D34D621000B1704710B504460D
:10EF8000FFF790FF014B1C7010BD00BFBC0C0020B0
:10EF900070B500230E4E0F4D3370184606F088FCF6
:10EFA000D5F804452834A4B204E0D5F804351B1B79
:10EFB0001B0405D506F0BEFC0028F6D001233370F3
:10EFC000044BBDE87040D3F8043506F09FBC00BF89
:10EFD0009C0C00200010014070B52348234E244DA6
:10EFE000244C2549254A002382B033602B602360DE
:10EFF00003600B60136006F005FC002830D106F0BA
:10F0000053FB002006F01EFC06F04AFC0028FBD053
:10F010001B4B1C4C1C4A93E8030000230090ADF8E6
:10F0200004101A482370694605F028FC08B106F060
:10F03000D5FD174C1749184A144801232360D1F80D
:10F04000041511601268103222F07F42002105F091
:10F0500065FC0E4805F056FCFFF79AFF02B070BD44
:10F0600006F0BCFDCBE700BFAC0C0020A80C0020D4
:10F07000A40C0020B00C0020B80C0020B40C002020
:10F080009CC20100BC0C002079EF0000B8C2010056
:10F090000810014000100140A00C0020014B18682E
:10F0A000704700BFA40C0020014B1868704700BFD8
:10F0B000B40C002020B1034B800143F0010318473A
:10F0C000704700BFB0C2010080B220B1024B800186
:10F0D00043F0010318477047B0C20100024BD3F858
:10F0E000040580B2704700BF00100140184B012298
:10F0F00010B5C3F8402501F0A7F900F031F801F090
:10F1000053FB144AD2F8883043F47003C2F88830B5
:10F11000BFF34F8FBFF36F8FFFF75EFFFFF784FEE4
:10F120000BF004FB00210C480BF0D8FA0BF0C2F8EE
:10F13000FFF796FE00200BF00BFC084B1C6800212B
:10F140000220A047234600210220BDE810401847B6
:10F1500000E0014000ED00E07401002078C20100F1
:10F160004FF080434FF0FF31D3F80024C3F8001470
:10F170000C490B784AB943F0010362F3410362F38F
:10F18000820362F3C3030B707047500803F0FE0361
:10F1900060F34103900860F3820362F3C3030B70D2
:10F1A000704700BFC00C0020BFF34F8F0549064BCE
:10F1B000CA6802F4E0621343CB60BFF34F8F00BF15
:10F1C000FDE700BF00ED00E00400FA05084A094B26
:10F1D00011681B68994208D011681368064801330A
:10F1E000C3F30803405C136070474FF0FF30704773
:10F1F000C40E0020C80E0020C40C00202DE9F843E6
:10F20000224B234D1F682B682C68BB420E461DD92C
:10F21000C4F50074A1422AD92968DFF87890224603
:10F22000494480460CF04BFA00232B605FB1361B3B
:10F23000B74228BF3746494608EB04003A460CF06F
:10F240003EFA2F603C442046BDE8F8833C1BFAD0D0
:10F250002B681049B44228BF3446224619440CF0AA
:10F260002EFA2B6823442B602046BDE8F8832B68D8
:10F270000849324619440CF022FA2B683344C3F390
:10F28000080334462B602046BDE8F883C80E0020F2
:10F29000C40E0020C40C002010B5038804461BB126
:10F2A000B42B05D1822907D0B4232380012010BDBF
:10F2B00000230380032010BD014805F06FF8F3E739
:10F2C000D812002030B40B490B4B0C4A0425C1F86E
:10F2D000805000244FF0FF300221C3F80045C3F8EE
:10F2E0000C05C3F81405C2F82C17C2F8341730BC4B
:10F2F000704700BF00E100E0002000400003005024
:10F30000144A137803B310B4134B144900244FF478
:10F3100080701470C3F808030A784AB10122DA60D9
:10F3200002E0D3F820211AB9D3F85821002AF8D0E6
:10F330000B4B1B7801220A701BB9074BD3F8003521
:10F340001BB95DF8044B704770475DF8044BFFF73D
:10F35000B9BF00BFF912002000200040D4120020E5
:10F36000F812002070B41249124B134A0320C1F85E
:10F370002C074FF4006500202B242D26C1F80855DA
:10F38000C3F80C454FF0EB75C1F83407C024C3F83F
:10F3900014650421C3F86C050820C3F8245582F8CD
:10F3A0000243C2F880111160C3F8000570BC7047B9
:10F3B000000300500020004000E100E008B50D4BC4
:10F3C0000D4918680D4A08600D4B01211170D3F8E2
:10F3D000003563B10A4B0B4800224FF48071027074
:10F3E000C3F82021C3F85821C3F8041308BDFFF760
:10F3F000B9FFEFE7D0120020CC120020F912002054
:10F4000000200040D412002070B41D4A1D4913682A
:10F410000C680133C3F309039C422AD015681A4CC7
:10F4200060551A4D13602B7803F0FF00FBB9086894
:10F430001368984220D008681368984234BF136854
:10F440000B68134A38BF1B1A4FF6FF7128BFC3F56C
:10F4500080634FF6FE760444B34288BF0B46012119
:10F46000C2F844450846C2F848352970916070BC1E
:10F470007047002070BC7047012070BC704700BF0F
:10F48000D0120020CC120020CC0E0020D41200207C
:10F49000002000402DE9F047002962D03B4EDFF804
:10F4A000FC90D9F80070336835689F420C4680465E
:10F4B0001DD8C5F58065A94257D93068DFF8D0A0BE
:10F4C0002A46504441460CF0FAF80023012F3360DD
:10F4D0001FD9791E671B8F4228BF0F46504608EB85
:10F4E00005013A460CF0EBF837603D4411E07F1B14
:10F4F000012F48D9791E8C423368254828BF0C4615
:10F5000022464146184425460CF0D9F83368234476
:10F510003360204A13782BBBD9F800103368994226
:10F5200020D0D9F80040336819481B499C4236BFA7
:10F530003368D9F800301B1B204428BFC3F5806313
:10F540004FF6FE764FF6FF74B34288BF2346012480
:10F55000C1F84405C1F8483514708C602846BDE8F0
:10F56000F0870D462846BDE8F087336808484146D5
:10F57000184422460CF0A3F833682344C3F309036C
:10F5800033602546C5E70025C3E700BFD012002041
:10F59000CC0E0020D412002000200040CC1200200D
:10F5A000124A134B10B51020002401211C70C2F820
:10F5B00008031346516002E0D3F810211AB9D3F8BA
:10F5C0004421002AF8D00B4B1B781BB9074BD3F80A
:10F5D000003523B90848BDE810400BF0A1B8FFF78B
:10F5E00071FE0548BDE810400BF09AB800200040BD
:10F5F000F8120020F9120020D000002038B5124C7B
:10F6000012492068124A0860124B01211170D3F888
:10F610000035B3B10F4B104A104800211025C3F834
:10F620001011C3F84411C3F8045324682244012480
:10F63000C3F83425C3F838451C60BDE838400BF0EA
:10F640004DB8FFF78FFEE5E7C80E0020C40E00207E
:10F65000F812002000200040C40C0020D000002040
:10F6600008B5194804F080FE032808D8DFE800F048
:10F670001A021308FFF744FE144B1B78E3B108BDD0
:10F68000124B1B78E3B1124B1B78002BF7D1BDE86E
:10F690000840FFF793BE0D4B1B78002BF3D0FFF70C
:10F6A0007FFFF0E7094B1B781BB9BDE80840FFF767
:10F6B00027BEFFF775FFF8E7BDE80840FFF79EBFDC
:10F6C000FFF79CFFDFE700BFD8120020F8120020F0
:10F6D000F912002008B50146034804F033FEBDE8E6
:10F6E0000840FFF7BDBF00BFD812002010B50A4682
:10F6F0000146044804F012FE044608B1FFF7B0FFCB
:10F70000204610BDD812002038B52A4BD3F810215E
:10F71000DAB1294A29480021C3F810111368284991
:10F7200001330968C3F30803994218BF13601168D5
:10F73000244B204A0B440121C2F8343511600BF0F0
:10F740008BF8214B18680BF087F81A4BD3F820215F
:10F7500062B31E4A1E490020C3F82001D3F84C357D
:10F7600014682344C3F30903136014680B689C42B4
:10F770001DD010680B68174C984234BF0B68136893
:10F7800015490C4A38BF1B1A014428BFC3F58063D2
:10F790004FF6FF704FF6FE75AB4288BF034601205F
:10F7A000C2F84415C2F848352070906038BD094B46
:10F7B000187038BD00200040C80E0020D000002086
:10F7C000C40E0020C40C0020FC120020CC1200202B
:10F7D000D0120020D4120020CC0E002010B50388D7
:10F7E00004462BB140F23512934209D182290BD045
:10F7F0000D4B1B7823B140F235132380012010BD3F
:10F8000000232380032010BD084B1B68002BEFD082
:10F81000074A1178032902D110789847E8E7117850
:10F820000229E5D1F8E700BF0413002000130020EF
:10F8300006130020F8B5634D634E2B681F2B8BBF5A
:10F8400003F01F021A4660484FF0A04002F5E07234
:10F85000042140F82210142404E0FFF72BFC013CA3
:10F860002B680FD01F2B8ABF32464FF0A04203F007
:10F870001F01D2F8102598BF1946CA40D7074FF08C
:10F880000A00EAD51F2B29D94F4CD4F8100503F0F4
:10F890001F07F84010F0010000F084806A681F2AFA
:10F8A0002BD84FF0A04002F5E071042640F821600B
:10F8B000D0F8106526FA02F2D2072BD502460120B5
:10F8C00002241F2B42F8214078D903F01F033E4A3F
:10F8D00003F5E073022142F82310F8BD4FF0A04277
:10F8E000D2F81045DC4014F001045DD1204603F548
:10F8F000E073022142F82310F8BD02F01F0101F568
:10F90000E070314A042642F82060D2F81025CA403F
:10F91000D0074CD407F5E072012606FA07F740F24B
:10F920000161C4F8087544F82210274F102401E043
:10F93000013C35D01F2B8ABF3A464FF0A04203F05E
:10F940001F0306FA03F3C2F80C350520FFF7B2FBDC
:10F950002B681F2B8ABF3A464FF0A04203F01F03CB
:10F9600006FA03F3C2F808350420FFF7A3FB6A6820
:10F970001F2A8ABF3B464FF0A04302F01F00D3F876
:10F9800010152B6898BF1046C140C907D0D501207B
:10F990001F2A0ED902F01F0101F5E0710A4A8FE714
:10F9A0002046F5E73B4692E714461F4676E70120DE
:10F9B000F2E702F5E0714FF0A04281E74FF0A0427C
:10F9C00095E700BFE800002000030050064B1A78BE
:10F9D00042B102780548002A0CBF032202221A70A5
:10F9E0000AF03ABF704700BF06130020DC00002079
:10F9F000014B1878704700BF0613002008B5144962
:10FA00000A684B681F2A88BF02F01F0202F5E072E5
:10FA10008CBF10484FF0A0401F2B88BF03F01F037E
:10FA20004FF0040140F8221003F5E0738CBF094A3F
:10FA30004FF0A042042142F823101420FFF73AFBB4
:10FA4000FFF7F8FE044A054B107000221A7008BD3B
:10FA5000E8000020000300500513002006130020DA
:10FA60002DE9F0411A4B1B7823B1DFF8808098F81C
:10FA700000701FB100242046BDE8F0810E46054607
:10FA8000FFF7D8FE04460028F4D0012D1149124A90
:10FA900012480CBF4FF0C8654FF0CC753B468D60E7
:10FAA00005F05EF90028E5D10D4B0E4A1E600123DA
:10FAB000107088F800303EB10B480AF0DBFE18B930
:10FAC000014609480AF00AFE044805F01DFAD2E78B
:10FAD00005130020E8000020CDF90000D8C2010085
:10FAE0000013002006130020DC0000200413002077
:10FAF00038B5104B1B7813B10F4C237803B938BDC0
:10FB00000E480F4D05F010FA0C4805F09BF90D4A10
:10FB100000232846137023700AF0ACFE0028EED0B4
:10FB2000094B1B68AB42EAD02846BDE838400AF0D2
:10FB3000F7BD00BF0513002004130020D8C2010048
:10FB4000DC000020061300201C35002038B50446D8
:10FB5000FFF7A4FA0B4D044407E0BFF34F8F30BF0B
:10FB6000FFF79CFA201A002809DB2B78012BF4D030
:10FB70002878A0F10300B0FA80F0400938BD0020D9
:10FB800038BD00BF0613002070B5154C247886B030
:10FB9000FCB1144C2478E4B1134C2578012D1BD012
:10FBA0008DF805000A980292CDE90301142201A9FB
:10FBB000012602250D48059326708DF804500BF0A0
:10FBC0007EFD002209490A4805F0CCF9B0FA80F41C
:10FBD0006409204606B070BD0024204606B070BD02
:10FBE0000513002004130020061300200813002032
:10FBF000D8C2010030B50F4C247883B09CB10E4CB4
:10FC0000247884B10D4D2C78012C0FD01C46009423
:10FC1000134601240A46014609482C7005F03AFBB8
:10FC2000B0FA80F46409204603B030BD00242046B9
:10FC300003B030BD0513002004130020061300207C
:10FC4000D8C2010010B5038804461BB1B42B05D1FE
:10FC5000822907D0B4232380012010BD0023038014
:10FC6000032010BD014804F099FBF3E73017002092
:10FC700038B52A4BD3F81021DAB1294A2948002196
:10FC8000C3F810111368284901330968C3F3080346
:10FC9000994218BF13601168244B204A0B4401217C
:10FCA000C2F8343511600AF0D7FD214B18680AF00C
:10FCB000D3FD1A4BD3F8202162B31E4A1E490020FF
:10FCC000C3F82001D3F84C3514682344C3F3080368
:10FCD000136014680B689C421DD010680B68174CA9
:10FCE000984234BF0B68136815490C4A38BF1B1A79
:10FCF000014428BFC3F500734FF6FF704FF6FE7541
:10FD0000AB4288BF03460120C2F84415C2F848350B
:10FD10002070906038BD094B187038BD00800240DB
:10FD200020150020F80000201C1500201C130020C6
:10FD30005017002024170020281700202C1700201F
:10FD40002415002010B50E4B84B01C788DF80700E8
:10FD500014B9204604B010BD04AA012342F8043DA2
:10FD60000DF1070107480AF081F928B9039B1BB17F
:10FD700005480AF071FDECE70024204604B010BDF0
:10FD8000E817002010C3010008010020032906D84D
:10FD9000DFE801F002140E080B4B01221A700B4829
:10FDA0000AF05ABD0A4B094801221A700AF054BDE4
:10FDB000084B064801221A700AF04EBD064B034854
:10FDC00001221A700AF048BDE61700200801002041
:10FDD000E4170020E5170020E71700200F4B1B78E1
:10FDE000C3B110B582B002AA0D4C0E48012342F8EF
:10FDF000043D214600230AF077F940B9019931B159
:10FE000008480AF0EDF92368187802B010BD4FF0E9
:10FE1000FF30FAE74FF0FF30704700BFE8170020CF
:10FE2000E017002004C301000E4B1B78BBB100B5E6
:10FE300083B00B460193014653B101AA0A480AF068
:10FE400015F908B9019B1BB9002003B05DF804FB4C
:10FE500006480AF001FD019803B05DF804FB18465E
:10FE6000704700BFE817002010C301000801002000
:10FE70000C4B1B783BB100B583B0019129B9084602
:10FE800003B05DF804FB18467047014601AA064816
:10FE90000AF068F910B901990029F0D1002003B0E7
:10FEA0005DF804FBE817002004C3010010B509F059
:10FEB000D9FF012801D907F06FFE094C20460AF04E
:10FEC000D9FC30B1074B1B68A34202D020460AF090
:10FED00027FC002000F0DEFABDE8104007F046BE27
:10FEE000080100201C35002038B5184C23783BB1A0
:10FEF00017480AF0BFFCE8B1BDE8384007F034BE4F
:10FF000003F0FF0509F0B4FF284607F099FDC8B9D2
:10FF1000104B114A1846136007F04CFE08B105F06B
:10FF20005DFE0E4A0A480223237013700AF0A2FCF9
:10FF30000028E1D1014606480AF0D0FBBDE8384070
:10FF400007F012BE05F04AFEE2E700BF081C0020E1
:10FF500008010020E0C20100DC170020091C00207D
:10FF600008B50B4804F000FA50B1032800D908BDC9
:10FF700006F0B8FE0028FAD1BDE80840FFF7B4BF8C
:10FF800006F0B0FE0028F2D0BDE80840FFF78EBFB3
:10FF90002820002008B50146034804F0D3F9BDE845
:10FFA0000840FFF7DDBF00BF2820002010B50A463B
:10FFB0000146044804F0B2F9044608B1FFF7D0FF47
:10FFC000204610BD2820002070B582B00D4C02A93B
:10FFD0000023224641F8043D064601250A482560D3
:10FFE00009F0E2FF22682AB13046019909F01AFBB4
:10FFF00002B070BD054B06481D700AF02DFC02B022
:020000040001F9
:1000000070BD00BF041C002004C30100E6170020DF
:10001000080100202DE9F04F0446008885B088B122
:10002000B0F5E37F08D182290FD04FF4E3730120AC
:10003000238005B0BDE8F08F00230320238005B0A6
:10004000BDE8F08F00F00CFAEFE7744D744E2A789B
:1000500033789A421BD02B78013B042B17D8DFE86A
:1000600003F0520342164E003378022B00F0CD808D
:1000700006F042FE08B107F08FFD2B78694ADBB22B
:1000800033700021042311602B7009F0EBFE664BE6
:100090001A78002A40F08880644E654B1A782AB19D
:1000A00064486049002202701A700A60624F3B780F
:1000B000002B31D1614B31681A783ABB0029B4D199
:1000C00004A900254FF4806741F8045D2B46574A88
:1000D0005B4837600AF008F80746002878D035609A
:1000E00005F07CFDA1E706F0FDFD40B107F040FD05
:1000F00009F0B8FE2B780522DBB233702A702B781A
:10010000DBB23370C3E706F0EDFDC0E700224C48D8
:100110001A700AF065F8D3E7424D4A4B2968D3F8C4
:1001200000904FF0000887F80080002967D148460A
:1001300009F074FA1FFA80FCBCF1000F58D00DF1E1
:10014000100A002301944AF8043DDFF8D8B0DFF824
:10015000088164460EE0039909F064FA2968404674
:1001600009F06AFF002348462B6009F057FA84B271
:10017000002C3CD000235A46514640462C6009F0E2
:1001800013FF2B6830481A46002BE4D101232F4877
:10019000019C3B700AF060FB2D4B18680AF05CFB79
:1001A0002C4804F0FBF885E7224A25481F4E012120
:1001B000002511701D7009F0E9FE274809F0E6FEE0
:1001C000204A184B10681D603560FFF7FDFE64E79C
:1001D0003268002A3FF429AF03991B4809F0FAF965
:1001E00000283FF422AF376005F0F8FC1DE7019CC2
:1001F0002B68002BD0D14846FFF7E6FECCE7164827
:1002000009F01AFFC5F8008091E706F06BFD0028A1
:100210003FF43BAF07F0AAFC37E700BF081C002003
:10022000091C0020041C0020E517002024200020C9
:10023000E4170020E8170020E6170020E717002049
:1002400010C30100DC170020E0C2010008010020FB
:10025000482000202820002004C301000D4B1A78FC
:100260006AB11A780C49D2B201280A7008D00CD3AE
:10027000022801D103221A7008480AF0EDBA70472B
:10028000022206481A700AF0E7BA012203481A70DF
:100290000AF0E2BA081C0020091C00200801002016
:1002A000164BD3F8002512F0070226D170B41B2696
:1002B000C3F808654FF0A041062407204FF0004620
:1002C000C3F80C45C3F81005FF24C3F824654FF0AC
:1002D0000066C3F8C0450A4DC1F80C6503244026EA
:1002E000C1F86C47C1F80C65C1F81847C1F81C2764
:1002F000C3F800052A7070BC70477047003000409A
:100300004C2000200B4BD3F80025520711D04FF0A2
:10031000A04210B40221084C0020C3F80005C2F826
:100320006C17C2F81817C2F81C1720705DF8044B40
:1003300070477047003000404C200020F0B4274D3B
:100340002C78D4B900B1D9B9BAB1B3B124490020DD
:1003500002242C70C1F84405C1F84805C1F83425C1
:10036000C1F83835C1F810011D4B01220021C3F836
:1003700004111A611046F0BC70470020F0BC7047B1
:1003800004F0FF0600F06044B4F1005FF5D13AB12B
:1003900033B102F06044B4F1005F10D03046EDE7B5
:1003A0000F4B002201242C70C3F84405C3F84815F4
:1003B000C3F83425C3F83825C3F82021D4E7084C06
:1003C00003272F70C4F84405C4F84815C4F8342531
:1003D000C4F83835C4F81861C6E700BF4C200020C7
:1003E0000030004011490B78032B08D8DFE803F0F8
:1003F000100217110E4AD2F82031002BFBD00C4A04
:1004000001235361D2F80431002BFBD000230B7081
:100410007047074AD2F81831002BFBD0EFE7044AA7
:10042000D2F81031002BFBD0E9E700BF4C200020B0
:100430000030004010B50446FFF710FF2046BDE82D
:10044000104000F037B800BF08B5002005F07EFA74
:1004500028B1852803D0BDE8084005F0BFBB08BD22
:1004600038B50A4C2378054623B10120A84018432B
:10047000207038BD064805F07DFA08B105F0AEFBE6
:1004800023780120A8401843207038BD4D2000205B
:1004900044C30100064A137833B1012101FA00F088
:1004A00023EA0003137003B1704705F071BA00BF6F
:1004B0004D200020012801D802F006B9704700BF86
:1004C0000120FFF7CDBF00BF4FF08043D3F83804C1
:1004D00000F00100704700BF30B4114B11480024F8
:1004E000C3F838474FF0A04203214FF480654FF422
:1004F0008074C3F80855C3F828170825C3F80845C1
:100500004FF08054C3F82017C2F80C55C2F80C17EE
:10051000C2F80C45C2F87017006830BC004700BF35
:100520000003005034C3010008B5094B5B689847CD
:10053000084A4FF0A0410223C1F87037C1F80C37C8
:10054000C2F82037C2F82837C2F8383708BD00BFD4
:1005500034C3010000030050F0B51A4C1A4F85B0A7
:10056000702173224FF4806500238DF809008DF807
:1005700008108DF80420BE68C4F80C551A460221F4
:1005800002A8B047A8B1FF68B8470220C4F80855D0
:10059000FEF790FDC4F80C55022303AA012101A81F
:1005A000B04730B1B847C4F808559DF80D0005B004
:1005B000F0BD044B4FF48062FF20C3F8082505B05E
:1005C000F0BD00BF0003005034C30100F0B583B09C
:1005D000184C194F8DF80100722270204FF480657D
:1005E00000238DF805108DF800008DF80420BE68FA
:1005F000C4F80C551A4602216846B04798B1FF6806
:10060000B8470220C4F80855FEF754FD0023C4F88B
:100610000C551A46022101A8B04720B1B847C4F8CA
:10062000085503B0F0BD034B4FF48062C3F80825B2
:1006300003B0F0BD0003005034C301002DE9F043C6
:1006400083B01A4C1A4F8DF80500702672204FF4B3
:10065000806500238DF804608DF80300884691467C
:10066000BE68C4F80C551A46022101A8B047A0B1D3
:10067000FF68B8470023C4F808551A46C4F80C555B
:1006800001210DF10300B04738B1B84700234946B6
:1006900040461A46B04700B1B847044B4FF4806259
:1006A000C3F8082503B0BDE8F08300BF0003005085
:1006B00034C301004FF0A0430822C3F80825704757
:1006C0004FF0A0430822C3F80C257047024B4FF4AB
:1006D0008072C3F80C25704700030050024B4FF4A2
:1006E0008072C3F808257047000300504FF0A04304
:1006F0004FF08052C3F80C25704700BF4FF0A04365
:100700004FF08052C3F80825704700BF024BD3F862
:100710001005C0F38030704700030050162070476A
:10072000024B53F8203003B1184770475020002087
:10073000F0B583B005460C4617461E4603F0B0FEE2
:1007400038B3012C05D0022C03D0032C0CBF03249A
:1007500000249DF806308DF80440003718BF0127AB
:1007600003F0FE0367F34103DBB243F0040300240C
:10077000094A8DF8063001A928468DF8054003F096
:1007800099FE08B105F02AFA044B43F8256003B03E
:10079000F0BD03F031FED4E7210701005020002016
:1007A000012103F01FBF00BF0E490B78CBB970B415
:1007B0000D4B0E4D0E4C0F480F4A104E2B44234448
:1007C0001B1A9B1A03F6FF700D4A0E4D0E4C000BC0
:1007D0009B1A3060120B01202B602260087070BCE5
:1007E0007047704714210020D0DA0100F402002085
:1007F00018DB0100D0DA01001000002018010020F1
:1008000000E0000010210020140100204FF0804281
:10081000D2F81C3523F007031843C2F81C057047B3
:1008200001F052BF30B50A4B0A4C83B00546009127
:100830000344214601226B202570FFF7A5F908B972
:1008400003B030BD0820FFF781F903B030BD00BF11
:10085000282100201821002038B50A4C0A492046DA
:100860000025082200F8015B0AF029FF2B462146EB
:1008700009226B20FFF7BEF900B938BD0820FFF749
:1008800065F938BD182100202821002038B5164808
:10089000164D4FF0A04300220C2102240270C3F831
:1008A00010170120C3F814271146C5F81047C3F8E4
:1008B0005447FFF7D5F800B938BD01210A20FFF7EA
:1008C000B1FF20B10A4B9C7A6409012C03D0BDE82A
:1008D0003840FFF70DB90749074AC3E90012FFF78F
:1008E000BBFF064B1C70F2E72521002000030050DF
:1008F00028210020324B7D00B21C734B24210020A4
:10090000044B054A1878054B002814BF10461846BA
:10091000704700BF2421002048C3010050C30100DC
:1009200038B50A4C0A4B0122032105200025257009
:10093000FFF7FEFE0520FFF733FF06494FF0A04208
:100940000223C1F81037C2F8543738BD26210020E1
:100950002108010000030050014B1878704700BFC8
:100960002521002038B5002105460120FFF778F841
:1009700098B1214B2149224A012DC3E9001219D017
:1009800028D3022D0CD0FFF767FF044608B11D4B9A
:100990001D70FFF7ADF8204638BD0446204638BD2F
:1009A0004FF0A041184AC1F854571278DAB96B22B7
:1009B0005A70E8E715494FF0A0420220C1F810072D
:1009C0004FF4001403205B21C2F80C45C2F8540711
:1009D0005970D8E70D494FF0A0420223C1F81037F3
:1009E000C2F85437CFE7094A10200321C2F808059E
:1009F000C2F81017DBE700BF28210020324B7D0032
:100A0000B21C734B2521002026210020000300503A
:100A100000B5002183B00120FFF722F810B903B020
:100A20005DF804FB01210820FFF7FCFE30B90190BE
:100A3000FFF75EF8019803B05DF804FB012109207F
:100A4000FFF7F0FEF3E700BF094B5A7A5AB91B7A59
:100A5000C3F301134BB1022B03D9032B05D10220A1
:100A6000704701207047032070470020704700BF87
:100A70002821002008B500210120FEF7F1FF00B970
:100A800008BD09210020FFF7CDFE18B9BDE80840D8
:100A9000FFF72EB801210920FFF7C4FEBDE808408A
:100AA000FFF726B8074B1B6853B10138042807D855
:100AB000DFE800F0030303030300034A12881A80EF
:100AC000704700BF8C2100203421002070B5084CF5
:100AD0002346154603F8010B18460AF0F0FD6A1C80
:100AE000214600235520BDE87040FFF783B800BFC2
:100AF0005C21002010B51020FFF728F8044610B143
:100B00004220FEF7E1FA204610BD00BF084B1A78DC
:100B10006AB1084900200A781870074B022A1B683E
:100B20009CBF01320A7013B16FF001001847704783
:100B3000B0210020842100208821002070B5164CAF
:100B4000237803B970BD0546FEF7D2FF134809F0BC
:100B500013FC032D10D0124A1378022B9CBF0133D3
:100B60001370104B1B6800212170002BEAD04FF04E
:100B7000FF30BDE8704018470B4A094B1078002140
:100B800019702170FFF78EFF064B1B68002BD9D020
:100B90000846BDE870401847B02100209021002091
:100BA00084210020882100208621002070B5284B58
:100BB000284E294D307082B004462A601960BAB1BF
:100BC00026490020FEF74CFF70B1013C244B25491B
:100BD000E4B255201A5D0A7002220092224B0122D3
:100BE000FEF7D2FF0546E8B90025284602B070BDE1
:100BF00011461046FEF734FF0028F5D0631EDBB225
:100C0000174A1849D25C0A7002220092164B012240
:100C10005520FEF7B9FF88B90025FEF769FF284681
:100C200002B070BD1149124A124801240C70002311
:100C3000102109F079FB284602B070BD1020FEF7A4
:100C400085FF05460028E7D02046FFF72BFFE4E7A5
:100C50008C21002086210020882100203D0B0100EE
:100C600058C301005C21002034210020B021002065
:100C70000D0B0100902100201C4B1B780BB90020AC
:100C8000704710B584B00446FEF7B2FE012824D0A8
:100C9000174B1A78CAB900210846FEF7E1FE88B161
:100CA000002C04A90CBF1223112321F8023D0222BB
:100CB0000020FFF70BFFA0B90190FEF719FF019884
:100CC00004B010BD002004B010BD002209481A7005
:100CD00009F052FBFEF70CFFDDE72020FEF736FFA0
:100CE000D6E71020FEF732FFE6E700BF852100209F
:100CF000B02100209021002070B584B004A9002408
:100D0000054621F8024D20460222FFF7DFFE10B90A
:100D1000002004B070BDFFF7EDFE0028F8D00949AF
:100D2000094E0C7002220092334601225520FEF734
:100D30002BFF0028ECD0FFF7DDFE0028E8D0338839
:100D40002B80E6E75C210020342100202DE9F04FC4
:100D5000AD4AAE4CAE4D00238BB013701F46032638
:100D600000210846FEF77CFE20B9013EF8D10BB009
:100D7000BDE8F08F0AA94FF0010821F8108D02227A
:100D80000020FFF7A3FE18B11020FEF7DFFE10B918
:100D9000FEF7AEFEE9E74FF002094246CDF80090BB
:100DA0009B4B9A4927705520FEF7EEFE0028EFD0A6
:100DB0001020FEF7CBFE40F221430028E8D02A881D
:100DC0009A42E5D10AAE26F80E7D3046FFF794FF31
:100DD00068B1BDF81A30990422D50AA94FF400432E
:100DE00021F80A3D4A460020FFF770FE28B9FEF7B9
:100DF0007FFE884B01221A70B9E7FFF77BFE0028BF
:100E0000F5D00AA94FF4004321F80C3D022200203E
:100E1000FFF75CFE0028EAD0FFF76CFE0028E6D062
:100E20003046FFF769FF0028E1D0BDF81A3013F40F
:100E30000050DCD10AA9132321F8083D0222FFF754
:100E400045FE70B90DF124082023414602220020FE
:100E5000ADF82430FFF73AFE0028C8D0FFF74AFE6D
:100E6000C5E7FFF747FE0028ECD0DFF8A491DFF8D4
:100E70009C8105264FF4FA774FF47A70FEF724F937
:100E8000013FF9D1022300934FF0060C4B4601229B
:100E90004146552084F800C0FEF776FE10B9013EA9
:100EA000E8D1CFE7FFF726FE0028F8D02B88DA0636
:100EB000F5D5594EDFF8589103970DF1240802E05B
:100EC000B668002E6CD07778039A3378D6F804A0F1
:100ED00096F802B08DF8162078098DF825000122C9
:100EE0000DF1160161208DF82430FFF7EFFD002889
:100EF000E6D0FFF7FFFD0028E2D0022241463E2067
:100F0000FFF7E4FD0028DBD0FFF7F4FD0028D7D081
:100F1000C820FEF7D9F8202300934FF0400C4B4631
:100F200001223A4984F800C05520FEF72DFE002822
:100F3000C6D0FFF7DFFD0028C2D007F01F072F44FF
:100F400038465A4651460AF0ABFB0028B8D05A46FC
:100F5000384651460AF0B3FBFF270022AB5C013252
:100F6000FF1A202AFFB2F9D149464020FFF7AEFD13
:100F70000028A5D0FFF7BEFD0028A1D00AA90122B4
:100F800001F8117D6020FFF7A1FD002898D0FFF740
:100F9000B1FD002894D042F21070FEF795F88FE76B
:100FA0000AA9422321F8063D30460222FFF78EFDB2
:100FB00000283FF449AFFFF79DFD00283FF444AF00
:100FC000DFF84CA0DFF8449005264FF4FA774FF491
:100FD0007A70FEF779F8013FF9D1022300930627D2
:100FE00053460122494655202770FEF7CDFD10B922
:100FF000013EEAD128E7FFF77DFD0028F8D02B88D5
:10100000DB06F5D420E700BF842100205C2100200E
:10101000342100208521002068C30100014B18788D
:10102000704700BF85210020704700BF044B054A70
:101030001878054B002814BF10461846704700BFAB
:101040008521002060C3010050C30100064B1B78BE
:1010500013B1064B1B780BB1002070470A460146BE
:101060000120FFF7A3BD00BF85210020B021002093
:10107000064B1B7813B1064B1B780BB10020704751
:101080000A4601460220FFF791BD00BF85210020DE
:10109000B0210020064B1B7813B1064B1B780BB117
:1010A000002070470A4601460320FFF77FBD00BFBE
:1010B00085210020B0210020064B1B7813B1064B80
:1010C0001B780BB1002070470A4601460420FFF749
:1010D0006DBD00BF85210020B0210020064B1B788C
:1010E00013B1064B1B780BB1002070470A4601462E
:1010F0000520FFF75BBD00BF85210020B021002047
:101100000020FFF7B9BD00BF2DE9F04FDFF834C272
:10111000DFF834A2DCF80070DAF808E077458DB02B
:1011200080F0C880DCF80450DAF80C60B54280F03A
:10113000C180002800F0BE800378002B00F0BA8048
:10114000002900F0B780002F00F0B780DFF8FC9195
:10115000DAF80440D9F80820CDF810E02C44751BCB
:10116000954201F1FF3104EBC40428BF1546411834
:10117000620083460591029508920BE0059B019F52
:10118000CCF800705B4500F095801BF8013F002B08
:1011900000F09080049A974280F28C80D9F8041075
:1011A000002F07EB01050195E8DB5F4A1278002A62
:1011B00000F09A80A3F12002D9F80030D9F810404D
:1011C0009868DAF80010D3B25E2B88BF0E2204FBB9
:1011D0000202089C7B1803F00700D9F8141004EBF6
:1011E000D303049C0646AC4221FA00F0039004D2DB
:1011F000291B00FA01F1014003910299002973D0E3
:101200004A49D9F80C000C784949CDF82C90123392
:101210000B44CDE9097B0021B34686461EE06ED320
:10122000022CC8F30749C8F3072710D113F8126C32
:1012300013F8115C13F8100C46EA186645EA090524
:10124000384303F8126C03F8115C03F8100C029891
:1012500001318842724403F1120341D0157850786D
:1012600065F31F6860F31748039828FA0BF8012C00
:1012700008EA0008D3D101F001002E4D13F8126CDA
:101280002F5C13F8100C13F8115C07906FEA08003C
:1012900005EA10450695079D07EA186906EA1066F3
:1012A00046EA090605EA102007EA1849069D07EAFA
:1012B0001827C3E70DB0BDE8F08F1F4ADFF88C9008
:1012C0001478002C3FF444AFD9F80420012C02FB21
:1012D00011E704BF07EBD7725710CCF8007037E75F
:1012E000DDE9097BDDF82C90144A1368BB42C8BFC6
:1012F0001760134A1368BB42B8BF17603EE713F884
:10130000126C13F8115C13F8100C6FEA080806EA67
:10131000186605EA184500EA182003F8126C03F86D
:10132000115C03F8100C92E72C010020240100202E
:10133000D8350020CCC30100D4210020E8230020B0
:10134000E4230020D821002030010020B421002017
:10135000F0B40F68D1F808C0002FB4BFFE1D3E46A0
:101360007A4202F0070207F007034FF0FF0458BF6C
:10137000534244FA03F3DBB203738D680A682A44CC
:10138000554205F007050CF1FF32F6103A44AC4027
:10139000C6EBD202E4B2447342607AB1013A026011
:1013A0004A68084902EBC20206EB4206E4430E44D7
:1013B000DB43C47386608373F0BC704723400373C0
:1013C0000260EDE7D835002070B5094D094E286858
:1013D000C0F5FF730133934228BF13461A463044C9
:1013E0001C460AF06CF92B6823442B60002070BD6A
:1013F000E0230020E021002038B5064D0A460024F5
:10140000014605482C6001F007FF2B68034AD454BD
:1014100038BD00BFE02300201C010020E021002097
:1014200010B403460468D968D0E90102224424EAD2
:10143000E4740144902AD4BFC4EB0202C4F19002C8
:1014400020EAE0708029D4BFC0EB0101C0F1800127
:10145000002AC3E9022107DD002905DDC3E90040B8
:1014600001205DF8044B704700200122C3E9000011
:10147000C3E902225DF8044B704700BF012870B534
:1014800016D00BD3022805D14FF41062FF21134868
:10149000FCF748FFBDE8704000F092BE4FF41062C8
:1014A00000210E48FCF73EFFBDE8704000F088BE0A
:1014B0000A4D0B4EAA21002400E0F15C01342846BD
:1014C0001222FCF72FFF802C04F0010305F1120516
:1014D000F3D1BDE8704000F073BE00BFD8350020E6
:1014E000CCC3010010B50D4B0D4C1B78002B0CBF6D
:1014F00002200020FFF7C2FF0A4B0B489B680B49F4
:10150000B3FA83F35B0900225B42C0E90033C1E90F
:1015100000222270BDE8104000F052BE24010020DD
:10152000B121002030010020D8210020CC21002052
:1015300030B4154B1A6812B3F0B1144A44681278EB
:101540003AB113499D684A682A44121B48BF0022D9
:101550004A60186002685A60D11DC9084FF0FF3018
:10156000C2F1200200FA02F204FB01F0C3E9031009
:101570009C605A6130BC7047186030BC704718607E
:101580000028F7D04468E5E7B4210020B12100200D
:10159000D821002010B50B4C20602046C4E9011270
:1015A000E360FFF73DFFA368074A084C0849207035
:1015B000B3FA83F35B095B42C2E900330020087091
:1015C00010BD00BF30010020D82100202C010020D8
:1015D000B121002070B50E480E4D0024FFF7A8FF82
:1015E0002146204680239022C5E90044FFF7D2FF20
:1015F00009480A4A0A4D0B490B4B04700226147025
:1016000001204FF0FF322E7008701A6070BD00BFCD
:1016100050C40100CC210020D42100204001002032
:1016200024010020410100202801002008B50348C2
:1016300000F050FDBDE80840FFF7CCBFD8350020D2
:10164000F0B589B0CDE90112009068460393FFF729
:10165000E7FE08B909B0F0BD694604A8FFF778FEB7
:101660000399002941D0069B344E354D002419E0E2
:101670003FD3022A11D11A789DF81C100A431A7020
:10168000049A002A48D1DDE9052342B3995C9DF80C
:101690001D0001439954069B039901341233A14262
:1016A000069322D93278012AE2D101999DF81C20B3
:1016B0001878214401F001016F5C3A4002431A702E
:1016C000049A002A34D1DDE9052342B19DF81D00BA
:1016D000995C074021EA00010F439F54069B039940
:1016E00001341233A1420693DCD800F069FD09B041
:1016F000F0BD1A789DF81E100A401A70049A8AB933
:10170000DDE90523002AEAD0995C9DF81F0001401D
:101710009954069B0399C0E70698FF210130FCF716
:1017200001FEB0E7069800210130FCF7FBFDE7E77A
:10173000069839460130FCF7F5FDC4E72401002086
:10174000CCC301003B4B1A68002A71D0F0B53A4A6D
:101750003A48996853680478394D0B4400200126B3
:1017600085B0C2E900032E70002C5DD0354CE568D1
:101770000B44AB4258D9A9420F46A3EB050328BF3F
:101780002F469F4228BF1F46A94238BF681A5060A3
:101790002C496846FFF7DCFDE368029A07EBC705B2
:1017A000DE1B02EB450516D12AE0DDE9013263B10B
:1017B000D05CE95C9DF80DE09DF80FC001EA0E01D8
:1017C00000EA0C000143D154029A1232013E029207
:1017D00005F1120513D011789DF80EC02B789DF8F5
:1017E0000C0001EA0C01034019431170009A002A11
:1017F000DBD00298691C013009F061FFD5E7E3688E
:10180000114D61682E78A2682068002EA1EB0701B7
:1018100014BF4FF0000C4FF0020C19443B4685F802
:1018200000C0FFF70DFF2E7000F0CAFC05B0F0BD40
:10183000704700BFB4210020D821002040010020C3
:10184000B121002030010020240100202DE9F04FBB
:10185000DFF81082D8F800309B6883B00546002B73
:101860004DD07B4BDFF800921B78DFF800A2DFF849
:1018700000B2784ED9F80420CBF800600C46012B5A
:1018800047F6FF71CAF80010009200F09A8061D309
:10189000022B40D1704FD8F80410BB68B3FBF1F6AF
:1018A000002E00F0BD80D9F80000002283428CBFDA
:1018B0001B1A00219646204688BFB3FBF1F123781E
:1018C0006BB1002966D00A2B68D0202B00F0B480C1
:1018D0004FF0010E013423780139002BF1D1211A88
:1018E000FFF712FCDBF80060DAF800105B4B012018
:1018F000B142187015DD0024264621461CE01C4626
:101900001E461F4699462846C5E90097C5E9026468
:1019100003B0BDE8F08F504F504B0120B14218701A
:10192000E9DCD8F80030D9F804400098D3E9003257
:10193000241A761A14441E443B68494A7F68127878
:1019400001EB0309009B3B441F46002ADBD000F05B
:1019500037FCD8E721460E4616F8013B3BB10A2B6F
:101960000FD031460E4616F8013B002BF7D1091B6C
:101970002046FFF7C9FB384FDBF80060DAF80010AB
:10198000CAE7091B2046FFF7BFFB3446FFF7DAFE24
:101990003146E7E712B10A2B18BF1446211AFFF7A8
:1019A000B3FBFFF7CFFE2378202B03D114F8013FC0
:1019B000202BFBD00A2B44D00022964620463146ED
:1019C0007DE7254FD8F80430B968B1FBF3F20192F6
:1019D00032B3D9F800602278B1428CBF891B002352
:1019E000264688BFB1FBF3F3311B2046002A3FF4A3
:1019F00077AF5BB10A2A09D072780136013B311BFF
:101A00002046002A3FF46CAF002BF3D1FFF77CFB9C
:101A1000FFF798FE32780A2A09D0019B3446E3E7A3
:101A20000E4B002401221A702646214684E7741CBE
:101A30007278019B2646D7E7BEF1000F18BF2246F9
:101A400048E70134002220469646314637E700BF7A
:101A5000410100200080FFFF30010020B121002063
:101A60002C010020B4210020D8210020E8230020F0
:101A7000E42300200EB410B583B005A9044651F844
:101A8000040B0191FFF7B8FC20460449FFF7DEFE86
:101A9000204603B0BDE8104003B07047E0210020AD
:101AA0002DE9F04F9D4B1B7895B033B99C4B1B68CB
:101AB00003B1984715B0BDE8F08F9A4B9A4D19784D
:101AC00000222A6039B19948994900780C781A7037
:101AD000844200D20870974E3478062C20D8DFE874
:101AE00004F048662F3E040B7900914B1B78002BC5
:101AF00040F09180052333708F4FD7F80080B8F104
:101B0000000F00F01582B8F1010F00F08A80062264
:101B100008F1010394423B60327001D000233B6026
:101B20002968864B864A8748090201F5FA71A3FBAA
:101B300001318909002308F0F7FB15B0BDE8F08FEB
:101B40007D4F3B6805222A60062B5FD8DFE813F043
:101B50004D0052008501CC01C501BE01D301764F75
:101B60003A68032A52D8DFE812F0400175005101AB
:101B7000FD006F4B1B78002B9CD06F4F0023012280
:101B80003B60052332702B60FEF7A6FCFEF792FD4A
:101B9000FEF7A4FD33783A6801323A60A34201D0DF
:101BA00000223A60002BBBD115B0BDE8F08F624F28
:101BB000D7F800800523B8F1010F2B6045D0E3D39F
:101BC000B8F1020F22D1FEF789FD002386F80080CC
:101BD0003B60A5E7584F3B68032B00F2F581DFE837
:101BE00013F0FD00F400ED00E100574A002101234D
:101BF00011603B60FEF78AFD002800F02C81524AFC
:101C000013680133142B136040F2838006220023F3
:101C100032703B6084E7484A00210323116033702F
:101C20007EE780210420FEF7D1FC00210520FEF78D
:101C3000CDFC41460720FEF7C9FC062332229C4218
:101C40002A6033707FF46AAF6AE7FEF73FFD3378AE
:101C50003A68A1E73D4B00933D4ADFF8ECA0002332
:101C6000137002229B463A603A4B009A3A49107828
:101C70000BEBCB0C4FEA4C0C0BF10102032801EBF0
:101C80000C08CAF8002000F24781344B03EB001027
:101C90000DF13C0A08F1FF38514606AB18F8012F48
:101CA0004FEA121C02F00F0210F80CC0825C01F81F
:101CB00001CC01F8022D8B42F0D31022002102A8A2
:101CC000FCF730FB002110225046FCF72BFB009B59
:101CD000234A1B78032B0BF007030CBFAA2100211A
:101CE0001BF0010FD25C8DF84C104FEADB0340F083
:101CF0001A8114A9CB1A03F8052C452202A90A203F
:101D0000FEF79CFC07210220FEF760FC104B01222D
:101D10001A703378A3427FF443AF01E7F023002029
:101D2000F82C0020042D00200C2D00204201002062
:101D3000052D0020062D0020082D0020D34D621017
:101D4000A11A0100102D0020002D0020F1230020F9
:101D5000F42C0020EC230020F4230020D8C3010041
:101D600028C40100BA4A1268002A00F04881009392
:101D70009047009B1A78002A00F04181B54AB64985
:101D800012780A7000211970002A40F05281B34B7A
:101D90001968002900F05481042029601A603A6013
:101DA0003070BDE6FEF7C0FBAB4B3A681B780033E2
:101DB00018BF0123337001323A60ABE7FEF796FC9F
:101DC0000A222A6033783A68F5E7FEF77FFCFEF7CF
:101DD00095FC96222A6033783A68ECE7FEF770FCAF
:101DE0000A222A6033783A68E5E79B4A1378002193
:101DF000022B117000F04881032B00F02581012B8C
:101E000000F04F8106233960337089E6DFF864A261
:101E1000DAF800B0BBF17F0F40F25281904B1B7893
:101E2000002B40F0EF808F4A1378022B49D8013302
:101E3000DBB20121022B137039607FF46AAF8A4A4A
:101E4000854B1168894800221A704FF4106209F01E
:101E500041FC33785EE702233B6040210220FEF71D
:101E6000B5FB0F20FEF778FB02067FF5CFAE02210F
:101E70000B20FEF7ABFB7E4B93E8030002AB83E83D
:101E80000300082219460120FEF7D8FBD1210720C4
:101E9000FEF79CFB02210820FEF798FBC2210920D7
:101EA000FEF794FB03210420FEF790FB01210320A1
:101EB000FEF78CFB00210320FEF788FB6D4B002210
:101EC0001A603A68337801323A6023E70F2105201F
:101ED000FEF77CFB28232B60F3E703210520FEF7A8
:101EE00075FB5A232B60ECE701210520FEF76EFB02
:101EF000A0232B60E5E70F20FEF72EFB430600F141
:101F0000D6805C4A13680133032B13603FF67EAE24
:101F1000032233783A60FDE604284FF0120241466E
:101F200013D05548B4E614A90B4403F8482CE4E652
:101F30000F20FEF711FB10F0400048D106239C4211
:101F400033703FF4EDAD3860EAE51868019300EBBB
:101F50000C09484609F0A4FB70B30DF13C0A09F1E5
:101F6000FF3908F1FF38D44606AB019419F8011F78
:101F700018F8012F414C4A4001F00F004FEA121EA1
:101F800004EB1111204402F00F023D4C91F8301087
:101F900014F80EE0A25C90F8300001EA0E0E024048
:101FA0000CF801EC0CF8022D99F8002088F80020BC
:101FB0006345DBD3019C80E6DAF800B0019BBBF1FE
:101FC0007F0F7FF652AEA4E601333B60A8E54146A1
:101FD0000B20FEF7FBFA01210320FEF7F7FA03219D
:101FE0000520FEF7F3FA01210520FEF7EFFA3A6823
:101FF000337801324FF496713A602960CEE5164B82
:102000001A78C1E6FEF78AFB6FF0090200B290422F
:102010004FF000031B4906DD0133072B0DD031F9CA
:1020200023209042F8DC174A02EB83035B882B6085
:10203000F9E6002233783A606CE64FF4A873F6E7CD
:1020400005233A6033706BE5064B0093197003E685
:10205000F82C002042010020052D0020FC2C00203F
:10206000F42C0020F1230020EC230020F423002096
:10207000D0C30100002D002008C40100D8C3010016
:1020800018C4010030C401000F4B10481968104BF0
:1020900000934FF4106209F01DFB009A03231370A4
:1020A000DAE50B4B00931A4604231370D4E50421A0
:1020B0000220FEF78BFA0322002332703B602FE5EB
:1020C000034B0093D0E500BFEC230020F423002055
:1020D000F123002070B5374D374E28600023337050
:1020E000002849D0FEF7F8F9FEF7E4FAFEF7F6FA11
:1020F00041F28830FCF7DEFFFEF7E8FA41F2883063
:10210000FCF7D8FFFEF7EAFA41F28830FCF7D2FF7D
:10211000142405E04FF4FA60FCF7CCFF013C2CD00E
:10212000FEF7F4FA0028F5D0FEF7CAFA42F2107072
:10213000FCF7C0FFFEF7CAFAFEF7E0FA4CF25030A7
:10214000FCF7B8FF4CF25030FCF7B4FF4CF25030C3
:10215000FCF7B0FFFEF7CAFAFEF7E6F928684FF47D
:1021600010620021FCF7DEF84FF4106200211348E2
:10217000BDE87040FCF7D6B870BD7220FEF7ECF9F0
:1021800000F00F0002280CBF012300233370CBD1D5
:1021900080210420FEF71AFA21460520FEF716FAE0
:1021A00001210720FEF712FA4CF25030FCF782FFB3
:1021B000BAE700BFEC230020F0230020F423002026
:1021C000094A13784BB9094B1B7833B1084B1B787C
:1021D000012113F0FB03117000D070471946054A26
:1021E000054808F0A1B800BF042D002042010020DE
:1021F000062D0020A11A0100102D00202DE9F04F1E
:102200008E4EDFF8748283B0FEF702FC357898F8C2
:102210000090FEF719FC1FFA80FBFEF755F9002825
:1022200040F0958004460746DFF850A29AF8003047
:10223000002B7ED1824B1B78022B50D9814A8248D9
:10224000824900231380824A03801D460B8013803D
:10225000FEF782FB28467F4FFEF784FB3B78A342C4
:10226000337816BF3C7000241024AB4209D0012300
:102270008AF800303570FCF711FF774B44F0010409
:102280001860724A754B1288188898F800109042AE
:102290004AD049451A8044F0020403D088F80090DF
:1022A00044F004046E4B22461978002008F0B4FA7A
:1022B000FEF7E0FB3A786B4C6B496C4B25686C4839
:1022C0002160002A0CBF4FF420614FF40071A3F885
:1022D00000B008F027F9256003B0BDE8F08FD3B94E
:1022E000594A3378128840F647594A458CBF4FF017
:1022F00000094FF00109052B0DD8DFE803F0644712
:102300004D61033DBBF1030F74D04FF0A043D3F8F0
:1023100010359B0635D4FEF71FFB042D9BD8DFE854
:1023200005F08B8B291D27004945B7D1002CBFD064
:10233000B8E7494B1B680193FCF7B0FE019B181AE4
:1023400010F5806F44BF00238AF8003072E7FEF773
:1023500003FB841E18BF0124274665E7394FB7F9F0
:10236000000031284FF00305D4BF0020012072E7A0
:10237000022070E701206EE7002F4BD0BBF1030F66
:1023800051D0FEF7E9FA0125002064E73FB3FEF7DC
:10239000E3FA022501205EE7E7B12C4B1B88642B92
:1023A0003DD0BBF1030F9AF8003025D0002BB2D1FD
:1023B000244FB7F90030312BADDCFEF7CDFACEE774
:1023C000002FA8D1DDE79AF80070002FA3D1B2F555
:1023D000166FA0D3FEF7C0FA012538463BE74FF051
:1023E000A043D3F810359A0695D4FEF7B5FA042524
:1023F000022030E79AF80030002B8CD11B4B1B8851
:10240000032B88D1FCF750FE1A4B05251860FEF708
:10241000A3FA20E7FEF7A0FA0228B2D175E7FEF78B
:102420009BFA084F9BE7FCF73FFE124B1B68C31A51
:102430003B2B7FF670AFA4E700200CE73E2D002079
:102440004C2D0020342D00203A2D0020302D00206E
:10245000382D0020462D0020402D0020322D002058
:102460003C2D00201C35002044010020442D00207C
:10247000542D0020482D0020362D00203F2D002017
:1024800010B5184B184C1B7800222270042B04D86E
:10249000DFE803F00F21151B0700BDE81040FFF730
:1024A000ADBE12491248FEF719FE20700028F4D084
:1024B00010BD0E490F48FEF7C9FD2070F6E70B4925
:1024C0000D48FEF7E7FD2070F0E708490B48FEF7DE
:1024D000F3FD2070EAE705490948FEF7C9FD2070C1
:1024E000E4E700BF502D0020512D00207925010088
:1024F000382D00203A2D00204E2D0020302D0020B8
:10250000342D002070B5038804465BB1B3F5B47F69
:102510000DD182291DD088290DD0832902D11248DE
:1025200008F022F84FF4B4732380012070BD00231B
:102530000380032070BD0C4B9A42F3D1104608F083
:1025400005F80028EED0094B00221A70FFF798FF1B
:10255000E8E7074D074B2E6803482B601A2107F068
:10256000E1FF2E60DEE700BF542D0020502D00203B
:102570001C35002044010020094B00221A7038B19C
:10258000084A1378022B9CBF01331370FFF736BE45
:10259000054A04491378087001331370FFF770BFC0
:1025A000512D00204C2D0020502D00201E481F4989
:1025B0001F4AF8B500231F4C03700B8013801E497F
:1025C0001E4A1F481F4F204E204D238001240B80A0
:1025D00014703B7033702B800380FCF75FFD1C4B45
:1025E0001860FEF753F9FEF7B1FBFEF717FD00B1D7
:1025F000F8BD2046FEF7B6F90425FEF70FFD68B9D1
:10260000FCF736FC4FF4FA744FF47A70FCF752FD85
:10261000013CF9D1FEF79AFB013DEED10020BDE867
:10262000F840FEF79FB900BF3E2D00203A2D002054
:10263000342D0020302D00204E2D00203F2D002075
:10264000382D00203D2D0020462D0020322D002069
:10265000402D002038B5174C237803B138BDFEF764
:10266000DDFC00B3144D15492B78012002220870BF
:102670002270DBB1124808F0FDF818B90146104885
:1026800008F02CF80E4808F0E7F8FDF719FFFDF701
:102690001BFF0C4B1870FEF743F9FEF7C5FCBDE8B5
:1026A0003840FEF72DBD0123237038BD08F00EF829
:1026B0002870DFE73D2D00203C2D00203E2D00201E
:1026C00044010020462D0020014808F0C5B800BF95
:1026D00044010020F0B4334B1A78FF2A08D1324B62
:1026E0001A682AB1314B1B689A4294BF0222012218
:1026F0002F490B681D46084605F8122B92B32A4E47
:1027000032687AB329480D60046870685C74C4F359
:102710000725D6E902171D74C4F30745C4F30764FF
:102720009C73C0F3072458711C71C0F30744C0F3B5
:102730000760C1F307265A73DD73DC70C1F30745E8
:10274000C2F3072498705972C2F30740C1F30761BE
:10275000C2F307625F701E72DD7199711C73D872CB
:102760009A721CE0134A144912680560891AC1F371
:1027700007250022C1F30744C1F3076059731D7395
:10278000DC7298725A705A711A71DA709A705A72B1
:102790001A72DA719A715A741A74DA739A73F0BCF5
:1027A000704700BF5101002000000020A42D002030
:1027B000802D0020A82D002000000D0038B50C4D04
:1027C0000C4C286821680430091A01F067FC236862
:1027D00029685870C0F3072003F8020B581A021F2B
:1027E00092B2C2F30725CA708D70236080B238BDE3
:1027F000742D0020802D002038B5064C0649054672
:102800000722206808F05BFF2368044ADD71083363
:10281000136038BD742D0020E0D10100802D002010
:1028200008B5044B1B6803B19847BDE80840FCF7A6
:10283000BBBC00BF7C2D002008B52120FFF7DCFFCA
:10284000FFF748FFBDE80840FFF7B8BF10B50446E2
:10285000EE20FFF7D1FF044A13681C7001331360A8
:10286000BDE81040FFF7AABF802D002030B53D4CD9
:10287000014683B0206800296BD0CB7B8D7B4A7BDF
:102880008DF804300B7B8DF805508DF806208DF8FF
:102890000730019BC370C3F30725C3F30742C3F39B
:1028A000076385704270037091F8473091F8465085
:1028B00091F845208DF8043091F844308DF805509A
:1028C0008DF806208DF80730019BC371C3F30725EF
:1028D000C3F30742C3F30763857142710371CD7C73
:1028E0008A7C4B7C8DF804508DF805208DF80630DD
:1028F0000B7C8DF80730019BC372C3F30725C3F32C
:102900000742C3F30763857242720372CB7E8D7EEA
:102910004A7E8DF804300B7E8DF805508DF8062028
:102920008DF80730019BC373C3F30725C3F3074238
:102930008573C3F3076300F11005427303731C3101
:1029400028462822256008F067FF23682833236083
:1029500005E03822FBF7E6FC23683833236003B038
:1029600030BD00BF802D00202DE9F04105461846FE
:102970001E460C46174608F047FFEB6801463046F6
:1029800098477FB10A4E274423786A691B09F05C97
:10299000904714F8013B6A6903F00F03F05C90471D
:1029A000BC42F1D16B690A20BDE8F041184700BF75
:1029B000B8D301002DE9F04FDFF8208398F80040EC
:1029C00085B0002C40F0FB808946B749DFF810A3A2
:1029D000B64C0746002A0878226008BF0023CAF8D0
:1029E0000030002840F0D480B14D0123B5F5007FC0
:1029F0000B7033D3AF4EB04B4FF4007405F5907BA2
:102A000002E00434AC4229D82268B242F9D1A2795A
:102A1000511E0129F5D8012A194600934FF00402EE
:102A200014BF5B4600232046019308F039FE009B4B
:102A30000028E6D1E17CA27C8DF80C108DF80D20E9
:102A4000617C227C8DF80E108DF80F20039A01997D
:102A5000C2F1480222448A4201D0D2E70024974EB4
:102A6000974D3460FCF710FA964C336828600022CA
:102A70002260002B31D093F847208DF80C2093F87A
:102A8000451093F8442093F846008DF80E108DF809
:102A90000F208DF80D00DA7CDDF80CB0997C8DF8F4
:102AA0000C205A7C1B7C8DF80F308DF80E208DF891
:102AB0000D100399042988BF0439009101F012FC1C
:102AC00000990246002001F011FC01F025FC83452D
:102AD00017BF002328682868336070B390F8473028
:102AE0008DF80C3090F8461090F8452090F844305E
:102AF0008DF80D108DF80E208DF80F30C37CDDF8A9
:102B00000CB0817C8DF80C30427C037C8DF80F304A
:102B10008DF80D108DF80E20039E042E88BF043E04
:102B200001F0E0FB31460246674801F0DFFB01F0AF
:102B3000F3FB834564D000232B60644B266800229E
:102B40001A602EB306F6FF7323F47F6323F00F039E
:102B50005F4AD11AB14206D206F6FF7323F47F63AF
:102B600023F00F03D31A584D042E1D4488BF043E92
:102B700001F0B8FB31460246284601F0B7FB01F0F0
:102B8000CBFBA3688342534B0CBF226800221A6020
:102B9000514CB9F1010F276026D93B467A7813F8DA
:102BA000021B8DF80D108DF80C20BDF80C20236051
:102BB000B2F55F4F07D0DAF800300A2B1ED800209C
:102BC00005B0BDE8F08FB9F1090F0DD9FA78BB78DF
:102BD0008DF80D308DF80C20BDF80C20A9F1040300
:102BE000381D9A42206029D0DAF800300A2BE6D945
:102BF000012005B0BDE8F04FFFF728BE0220F8E73E
:102C00002B682668002B98D0DA7C997C8DF80C20F4
:102C10005A7C1B7C8DF80E208DF80D108DF80F302E
:102C2000039B2A4A03F6FF7323F47F6323F00F0309
:102C30001360002EACD0B3428AD883E7A9F1060511
:102C40002946A9F1020901F029FA07EB090217F850
:102C5000093052788DF80C208DF80D30BDF80C300D
:102C6000984205D0DAF800300A2BA8D90320C0E733
:102C700023681A46597812F8030B8DF80D009878DE
:102C80008DF80C1001282260BDF80C1002D000F560
:102C9000004095E743F60D62914223D0DAF8003008
:102CA0000A2B8CD90420A4E76C2D0020742D002061
:102CB000E0DE000046495300DCD10100682D002011
:102CC000642D00200000002000E00000A82D00205E
:102CD00000000D00A42D0020702D0020AC2D002040
:102CE000782D0020DA78191D122A21600FD8112AB8
:102CF00050D252B3022A10D1042DDAF8003017D086
:102D0000DAF800300A2B7FF65AAF072071E7302A35
:102D100016D03F2AF0D0202A06D0DAF800300A2B4D
:102D20007FF64DAF062064E70F2DDAF80030E7D9C3
:102D30001B2B7FF644AF05B0BDE8F04FFFF77CBD1D
:102D40000C2DDAF80030DBD1F2E7042DDAF8003090
:102D5000D6D18D2B7FF633AF614C624D0120FFF74A
:102D60004BFD2068FFF782FD2868FFF77FFD226892
:102D700002B1D27A5C482B6801680A7003B1DB7A31
:102D80004B7002310160FFF7A5FC05B0BDE8F04FC4
:102D9000FFF714BD102DB3D1DE799D7958791979DB
:102DA0008DF80C608DF80D508DF80F108DF80E0019
:102DB000D97A03989E7A5D7A8DF80C10197A8DF87D
:102DC0000D608DF80E50DE7B9D7B8DF80F10039902
:102DD0008DF80C608DF80D505E7B1D7B8DF80E60BC
:102DE0008DF80F501033112A2360039D3DD03F4BC7
:102DF0003F4E404C3B4AFF271F7000233360236047
:102E00001368022673B1DF7B9A7B8DF80C708DF806
:102E10000D205F7B1A7B8DF80E708DF80F20039AC2
:102E200090422ED0472D58D9334A344B12689B1A02
:102E30009D424BD8324B6060084403442B4423F03E
:102E40000103022E08BF43F0010301220220C4E95E
:102E5000021388F800202560FDF7D8FC0023294ADA
:102E60002948552107F060FAA9E6204B204E214C55
:102E70001B4AFF271F70002333602360012613685D
:102E8000C0E7DF7C9A7C8DF80C708DF80D205F7C9C
:102E90001A7C8DF80E708DF80F20039A9542C1D1DF
:102EA00093F8472093F846708DF80C2093F845204E
:102EB00093F844308DF80D708DF80E208DF80F309A
:102EC000039B9942AED1DAF8003031E71120DAF8ED
:102ED00000300A2B7FF673AE8BE60720F7E700BFC2
:102EE000682D0020642D0020802D0020510100203D
:102EF000A42D002000000020A82D002000000D00BF
:102F00007856341221280100842D002070B5ADF5CB
:102F1000007D0D46164669464FF4807201F0DEF9D9
:102F200020B19DF80030DF2B03D000200DF5007D8F
:102F300070BD01464FF48073684640AAFFF73AFD22
:102F4000030484B200D41CB920460DF5007D70BD89
:102F50002846334640A92246FFF706FD2046F4E7FF
:102F6000F8B50F461646104908221D46044608F0DB
:102F700097FB08B10020F8BD29460C4A04F108006F
:102F8000FFF7C4FF03040DD5B0F5004F0AD1394651
:102F9000F3682046984773690A209847044B01203C
:102FA0001870F8BD0120F8BDD0D10100E8D10100B2
:102FB0005001002008B5034B0846DB6811469847CE
:102FC000002008BD78C2010038B5084D2C6864B9EE
:102FD000074B08491B6803209847286028B1064919
:102FE000064A074B0C6014701C7038BD143000206A
:102FF00078C201000D3101000C3000201830002093
:103000001930002088B1094B1A6862B182420CD095
:1030100013681BB905E01A6822B113469842FAD129
:10302000704713460022186002607047103000207D
:1030300010B582B0044608F0E7FB40B1054BDB68F1
:1030400001930146204602B0BDE81040184702B087
:1030500010BD00BF78C201000FB400B583B004AA50
:10306000054852F8041B019200F0D6F803B05DF851
:1030700004EB04B0704700BF5401002070B501F0AC
:10308000B1F8037843B11D4E3468054644B928466B
:103090003F2101F0B9F898B970BD2468002CF6D032
:1030A0006168284601F0C4F80028F6D0E468002CD6
:1030B000F2D0284601F09AF82346BDE87040184740
:1030C0000F48FFF7C9FF34689CB10E4E6068037863
:1030D0002D2B0BD0FFF7ACFFA368756909201BB13E
:1030E000A847A068FFF7A4FF0A20A8472468002C7F
:1030F000ECD10548BDE87040FFF7AEBF10300020AE
:10310000F4D1010078C2010040D201002DE9F04164
:103110002A4B2B4C9E682B4FDFF8B88082B00121E0
:103120000DF10700B04701281DD122789DF8073026
:103130001AB100220A2B2270F1D00A2B3A7817D04C
:1031400024D90D2B12D07F2B22D1002AE7D11E4D7E
:103150002B68002BE3D0013B01210DF107002B6010
:10316000B0470128E1D002B0BDE8F081012323700F
:10317000D2B9154D154B29681B6808F8012013B109
:103180004046FFF77BFF00232B60C8E7002BEFD002
:10319000002AC4D10C4D2A68B2F5167F0BD2511CFF
:1031A00008F802302960BAE70948074DFFF754FFD5
:1031B00000233B70E7E701233B70B0E778C20100D2
:1031C00018300020193000200C300020143000206E
:1031D00088D20100B02D0020102970B50C4605469C
:1031E00013D90C4E01E0102C08D9D5E9003010227B
:1031F00031469847103C0028F5D070BD2246D5E9ED
:1032000000300449BDE8704018470029F6D108464F
:1032100070BD00BFA4D201002DE9F04F2DED028B4F
:103220009FB081468B4604924FF000089BF8003017
:10323000002B00F0D980252B08BF5D461BD05C46D3
:1032400003E0252B00F0D6802C466378651C002B0C
:10325000F7D15D4500F0C880A5EB0B065946324614
:10326000D9E900309847002840F066826378B0447E
:10327000002B00F0B9806A7805F1010B002A00F0FC
:10328000B3800021A2F12003102B1BD8DFE803F04C
:10329000171A1A141A1A1A1A1A1A1A111A0E1A1AAC
:1032A000090041F010011BF8012FEBE741F001018B
:1032B000F9E741F00601F6E741F00801F3E741F0D4
:1032C0000201F0E7A2F13103082B40F297802A2A8D
:1032D00000F0C48000242E2A00F0A0804FF0FF35BB
:1032E0006C2A00F0A880682A00F0AE80782A00F2EC
:1032F000FC81DFE812F07900FA01FA01FA01FA0123
:10330000FA01FA01FA01FA01FA01FA01FA01FA01E5
:10331000FA01FA01FA01FA01FA01FA01FA01FA01D5
:10332000FA01FA01FA01FA01FA01FA01FA01FA01C5
:10333000FA01FA01FA01FA01FA01FA01FA01FA01B5
:10334000CA01FA01FA01FA01FA01FA01FA01FA01D5
:10335000FA01FA01FA01FA01FA01FA01FA01FA0195
:10336000FA01FA01FA01FA01FA01FA01FA01FA0185
:10337000FA01FA01FA01FA01C201FA01FA01FA01AD
:10338000BA01B201AA01FA01FA01FA01FA01FA013D
:10339000FA01FA01FA01FA01FA01FA01FA01FA0155
:1033A000FA01FA01FA01A201FA01FA01FA01FA019D
:1033B000FA01FA01FA01FA019A01FA0192018A016D
:1033C00082014701E000FA018A01FA01FA01FA01DB
:1033D000FA01D700F201EA01FA01FA01E201FA0169
:1033E000DA01FA01FA01D20140461FB0BDEC028BAE
:1033F000BDE8F08F5D457FF42FAF3CE7002404EB80
:10340000840402EB44041BF8012FA2F13003092BC2
:10341000A4F13004F3D92E2A7FF460AF9BF8012089
:10342000A2F1300009280BF1010325D92A2A00F066
:10343000A5829B4652E79BF801206C2A2BD00BF10A
:10344000010B41F0600151E79BF80120682A00F070
:103450009F820BF1010B41F0400147E7049A146889
:1034600013460433002C9BF801200493B8BF41F0AD
:1034700001010BF1010B2EE7002505EB850502EBA1
:10348000450513F8012FA2F130000928A5F13005F8
:10349000F3D99B4624E79BF8022041F080010BF111
:1034A000020B23E70BF1010B049A13680432049218
:1034B000C3F80080BAE601F4E06341F4813243F4DA
:1034C00000730192B3F5806F0BF1010B66D000F22F
:1034D0001081B3F5007F00F07081B3F5407F00F0FC
:1034E0003E81B3F5807F7FF4A1AE002DC0F2498309
:1034F000019B059523F010030193019A02F0E0036C
:1035000012F400520E9200F07F82402B00F02685CC
:1035100000F28483002B00F05484202B40F0F984C7
:10352000049991F900200431D3170491002A73F112
:103530000001C0F25284CDE9082300230A93019BC5
:1035400003F4C053B3F5805F40F07A82DDE90823CD
:1035500013430DF1660A00F07285DDE90823554634
:10356000D00840EA437002F00701DE08303102461D
:10357000334605F8011D52EA0301F1D1AAEB050318
:10358000029369E201F4E06343F4007341F40072D2
:10359000B3F5806F01920BF1010B98D1049A134699
:1035A000176804330493002F00F0E8823E782EB1B0
:1035B0003E4616F8013F002BFBD1F61B002D02DB27
:1035C000AE4228BF2E46019BB4428CBFA41B0024F0
:1035D000D90740F109853946D9E900303246984784
:1035E000002840F0A98021464846B044FFF7F4FD8A
:1035F000002840F0A180A04418E601F4E06341F403
:10360000024243F4007301925CE701F4E06341F489
:10361000245243F48073019254E701F4E06341F4CF
:10362000A06243F4A06301924CE701F4E06341F42B
:10363000C13243F40073019244E701F4E06341F4C2
:10364000B24243F4807301923CE701F4E06341F439
:10365000A13243F40073019234E701F4E06341F4D2
:10366000844243F4007301922CE701F4E06341F4D7
:10367000424243F40073019224E701F4E06341F411
:10368000E13243F4007301921CE701F4E06341F47A
:10369000C06243F4C063019214E701F4E06341F4B3
:1036A000C85243F4807301920CE701F4E06341F4E3
:1036B000106243F48073019204E701F4E06341F483
:1036C000806243F480630192FCE601F4E06341F41C
:1036D000407243F440730192F4E601F4E06341F474
:1036E000885243F480730192ECE601F4E0630191A7
:1036F000E8E6B3F5C06F26D0B3F5E06F3FF4D4AE83
:10370000B3F5A06F7FF492AD049A13688DF8503032
:10371000134604330493019B012C38BF0124DB07BB
:1037200004F1FF3440F17884D9E90030012214A972
:103730009847002800F052824FF0FF301FB0BDECD8
:10374000028BBDE8F08FD9F80030A949D9F8040000
:10375000012298470028EFD108F1010866E5049995
:103760000B460A6804330493002A40F00D8246F6A3
:10377000286146F669422923ADF85E10ADF8602055
:103780008DF862300DF15E060525019BAC428CBFC1
:10379000641B0024DA0740F114843146D9E9003073
:1037A0002A4698470028C7D121464846A844FFF733
:1037B00013FD0028C0D1A04438E5049E073626F04A
:1037C000070696ED007B52EC171B8DED027B22F075
:1037D0000043039F079308368DED067A0496DDE9D2
:1037E0000601FE0F4FF0FF32824B059607F060FD99
:1037F00048B94FF0FF327F4BDDE9060107F03AFD93
:10380000002800F0CC80DDE9020102460B4607F0FB
:103810004FFD002840F09A8300220023DDE90201D9
:1038200007F01EFD48B1DDE9021202F100430C91E0
:103830000D939DED0C7B8DED027B262C68A3D3E9C7
:103840000023DDE9020128BF262407F01DFD002822
:1038500040F0CB82691C10A89DED020B40F0F68170
:1038600007F078F86448B0EE408AF0EE608A0021F4
:103870005DA3D3E900230DF1760ACDE90A01062103
:10388000CDF808A00E9151EC180B07F077FA41EC37
:10389000100B12A807F05EF8DDE912018DED080BA0
:1038A00007F034FD9DED080B06460F460022534BF2
:1038B00051EC100B07F0E8FC002800F05783DDE91D
:1038C0000A23013647F10007BB4208BFB24240F06D
:1038D0004D834B4BDDE91001002207F099F80E9B58
:1038E000CDE91001002B40F0C28307F00FFD064622
:1038F0000F4656EA0703029D13D0304639460A2286
:10390000002307F0EBFC30323046394605F8012D34
:1039100000230A2207F0E2FC06460F4656EA070398
:10392000EBD1029BAB424BD1302305F8013C059B08
:10393000013D002B47D02D2305F8013C691EAAEB61
:10394000010A5FFA8AFAA24580F00A81019AE7B279
:10395000A7EB0A06D20776B200F1078214AAC4F1D7
:1039600026041019019AD50640F1F580002B00F0CD
:10397000C78214AA013013553021EDE004989BF85A
:10398000022005680346043304930BF1020BA7E4FD
:103990009BF8022041F020010BF1020BA6E419492B
:1039A000019B5804019B0DF1730023F0100348BFE5
:1039B000033103220193054607F081FE0DF1760ADB
:1039C000059B002BB7D1019B03F00603022B00F0EF
:1039D000CA81062B40F037812B23ADE7AFF300807F
:1039E00000C84E676DC1AB430000000080842E41CB
:1039F000B4D30100FFFFEF7F40420F000000E03F23
:103A00000000F03F60D30100402B00F0D78200F2AD
:103A1000F180002B00F0CA81202B40F073820499C2
:103A20000A780023CDE908230B46043304930E9B48
:103A30000A93019B03F4C053B3F5805F3FF486AD56
:103A4000B3F5C05F00F06381B3F5006F00F03A8119
:103A50000DF166050023029302990598019A41F63B
:103A60000803814203EA020341F20802C0F0128116
:103A7000934200F06E810591002741F608029342BF
:103A800040F00581DDE90823134300F0008101992E
:103A9000BD4ABE4B11F4804F0CBF92469A46022697
:103AA0000E9B73B10A9B002B40F02D81019B03F00C
:103AB0000603022B00F04E82B54A062B04BF0126F6
:103AC0009246059B33449C428CBFE31A0023059326
