:040000031000293987
:020000040000FA
:10E000000000042039290100612901006329010071
:10E01000652901006729010069290100000000004D
:10E020000000000000000000000000006B2901005B
:10E030006D290100000000006F2901007129010015
:10E04000392F01007329010011F800007329010024
:10E05000B92F0100732901007529010073290100FE
:10E06000732901007329010073290100732901003C
:10E07000732901007329010073290100732901002C
:10E08000052D0100512C01007329010073290100A5
:10E09000732901007329010073290100732901000C
:10E0A00073290100732901007329010073290100FC
:10E0B0007329010073290100000000000000000026
:10E0C00073290100732901007329010073290100DC
:10E0D0007329010073290100732901002D460100F5
:10E0E0001D000100732901007329010000000000D8
:10E0F00000000000732901000000000073290100E6
:10E10000000000000000000000000000000000000F
:10E1100000000000000000000000000000000000FF
:10E1200000000000000000000000000000000000EF
:10E1300000000000000000000000000000000000DF
:10E1400000000000000000000000000000000000CF
:10E1500000000000000000000000000000000000BF
:10E1600000000000000000000000000000000000AF
:10E17000000000000000000000000000000000009F
:10E18000000000000000000000000000000000008F
:10E19000000000000000000000000000000000007F
:10E1A000000000000000000000000000000000006F
:10E1B000000000000000000000000000000000005F
:10E1C000000000000000000000000000000000004F
:10E1D000000000000000000000000000000000003F
:10E1E000000000000000000000000000000000002F
:10E1F000000000000000000000000000000000001F
:10E2000010B5054C237833B9044B13B10448AFF370
:10E2100000800123237010BDB00200200000000028
:10E22000786F010008B5034B1BB103490348AFF3F6
:10E23000008008BD00000000B4020020786F0100DB
:10E24000154B002B08BF134B9D46A3F5803A0021C8
:10E250008B460F461348144A121A00F063F80F4B0E
:10E26000002B00D098470E4B002B00D09847002081
:10E27000002104000D000D48002802D00C48AFF327
:10E28000008000F02BF82000290000F0D7FB00F000
:10E2900011F800BF0000080000000420000000008A
:10E2A00000000000B0020020381E00200000000026
:10E2B0000000000008B5074B044613B10021AFF37E
:10E2C0000080054B1868836A03B19847204600F028
:10E2D00031F800BF000000002065010070B50D4E50
:10E2E0000D4CA41BA4100025A54209D10B4E0C4CCB
:10E2F00008F00AF9A41BA4100025A54205D170BDA1
:10E3000056F8253098470135EEE756F825309847FE
:10E310000135F2E7A8020020A8020020A802002090
:10E32000AC02002002440346934200D1704703F838
:10E33000011BF9E7FEE700BF38B5064D2C69A04781
:10E34000421C05D06D69C0B2A847A047431CFAD152
:10E3500038BD00BF4867010030B5058883B004466A
:10E3600075B1732D07D1244B9A421FD0732301201E
:10E37000238003B030BD00230380032003B030BDF1
:10E3800003F084F81D4803F0C9F81D491D4803F047
:10E39000C5F81D4800F036FB2946174806F022FB59
:10E3A0001A4B1B491B6803209847DFE71046019270
:10E3B00006F036FB0028D9D0164D019A2B784BB9C0
:10E3C00001217D2002F06EF9019A70B1124803F02C
:10E3D000A5F8CBE7104606F00FFB104B08220121F1
:10E3E00041F2342002F0A8FAC0E7012310461921B7
:10E3F0002B7006F0F7FAB9E7D0020020346501006F
:10E40000506501005465010021E4000048670100E7
:10E4100039E30000CC020020646501002C65010096
:10E4200000F0C8B838B5074B1C69A047421C07D09C
:10E43000054DC1B2284603F071F8A047431CF8D13E
:10E4400038BD00BF306701007865010070B502F08B
:10E4500055F801460848094C03F060F8084BE66897
:10E460005D68284607F0BEFC01462846B047636950
:10E470000A20BDE87040184794650100306701002C
:10E48000B000002070B5074B074C5D68E668284671
:10E4900007F0A8FC01462846B04763690A20BDE89A
:10E4A00070401847C00000203067010010B5094BCC
:10E4B00009495A68B2B00346684607F06BFC074B3F
:10E4C0006846DC6807F08EFC01466846A04732B01B
:10E4D00010BD00BFA00000208C6501003067010066
:10E4E00010B5094904F036F960B1044607F07AFC2A
:10E4F000064B074A00F10801A4F10800BDE81040EE
:10E5000002F090BF10BD00BF7C650100F466010001
:10E510003067010010B5244982B0044604F0F6F8D3
:10E5200020B101F0B1FF58B302B010BD1F49204621
:10E5300004F0ECF830B101F0A7FF0028F4D001F0AE
:10E54000A1FFF1E7204604F0B5F820BB18492046AA
:10E5500004F000F90DF1060104F02EF900B3BDF846
:10E560000600A0F1C9039BB242F24662934217D85B
:10E5700001F08CFF642001F093FF01F081FFD3E7ED
:10E580004FF47A6001F082FF642001F089FF01F00E
:10E5900077FF02B010BD012002F0D2FF02B010BD23
:10E5A000022002F0CDFFBFE7806501008465010015
:10E5B000886501000D4B0E491B6810B50446032009
:10E5C000984702F063FF0B4802F07EFF0A4802F012
:10E5D0007BFF0A4802F078FF094802F075FF04B992
:10E5E00010BD0848BDE8104002F06EBF3067010062
:10E5F00025E40000B0000020A000002080000020E2
:10E6000090000020C000002038B54FF4FA744FF499
:10E610007A7000F0D3FD013CF9D1094B1C69A04789
:10E620000130FCD1074C084B08482568236006F0F0
:10E6300005FA0221064806F0D5F9256038BD00BF6D
:10E6400030670100741D0020D0000020F40200207B
:10E65000E00200202DE9F043A949AA4BAA4EAB4D98
:10E66000804603C98FB06F46944687E803000FCBFE
:10E670000AAC07C4238096E80F0002AC07C42370DD
:10E6800095E80F0006AC07C4B8F800202370AAB1C3
:10E69000532A0CD19E4B9C451DD09E4B9C4531D09E
:10E6A00053230120A8F800300FB0BDE8F083002309
:10E6B000A8F8003003200FB0BDE8F083964B9749CF
:10E6C0001B6803209847964B4FF480711860904860
:10E6D00006F088F9E4E7604606F0A2F90028DFD0EA
:10E6E0008F4A8D4B10685B6898478E4802F016FF82
:10E6F0008D4B1B680BB1002098470023A8F8003011
:10E700000220D8E7604606F08BF90028C8D0DFF871
:10E71000389299F800303BB3012B6BD0022B00F0FC
:10E720008B80032B00F0A080042B00F0B380052B1E
:10E73000B6D14FF0A04403234FF40025C4F84C3762
:10E740000120C4F80C5500F043FD754A724BC4F823
:10E7500008555B6810689847734B1B68002BCCD03A
:10E76000724A10789847C8E76B4B714ADE68714C63
:10E770004FF0A0410C23C2F818370325C1F85837D1
:10E78000C1F86437C2F804372A460AA9204607F0C0
:10E7900001FB204607F026FB01462046B0472A46EB
:10E7A00002A9204607F0F6FA204607F01BFB0135C8
:10E7B00001462046B047072DE6D1032206A95D4851
:10E7C00007F0E8FA5B4807F00DFB01465948B047EF
:10E7D0003946584807F0DEFA564807F003FB014671
:10E7E0005448B047012304214A4889F8003006F014
:10E7F000F9F855E74E4BD3F810355F060ED54FF0BC
:10E80000A043D3F81025560208D4D3F810359D0143
:10E8100004D4474BD3F810359C0751D5464802F035
:10E820007DFE424A3B48002105231170012189F8F1
:10E83000003006F0D7F833E73D4BD3F810355806D3
:10E8400010D44FF0A043D3F8103559020AD54FF039
:10E85000A043D3F810359A0104D4354BD3F81035C2
:10E860009B0773D53548DAE7314BD3F810355F068F
:10E870000ED44FF0A043D3F81025560208D4D3F895
:10E8800010359D0104D52A4BD3F810359C077DD552
:10E890002B48C4E7264BD3F8102550060ED44FF072
:10E8A000A042D2F81015490208D4D2F810259201DE
:10E8B00004D4D3F810359B0700F188802148AEE7D7
:10E8C00002A903221B4807F065FA134B1948DC68BC
:10E8D00007F088FA01461748A04706A90422154800
:10E8E00007F058FA134807F07DFA01461148A0478F
:10E8F00002230121074889F8003006F073F8CFE6BB
:10E90000A4660100AC660100BC660100CC66010093
:10E91000F4020020E00200203067010009E6000058
:10E92000080400201866010004030020DC00002019
:10E930000003005008030020346601005066010007
:10E940006C66010088660100F002002002A9042222
:10E95000294807F01FFA294B2748DC6807F042FADC
:10E9600001462548A04706A90522234807F012FAC8
:10E97000214807F037FA01461F48A0470323012129
:10E980001F4889F8003006F02DF889E602A9052213
:10E99000194807F0FFF9194B1748DC6807F022FA0D
:10E9A00001461548A04706A90622134807F0F2F9C8
:10E9B000114807F017FA01460F48A0470423012128
:10E9C0000F4889F8003006F00DF869E602A9062222
:10E9D000094807F0DFF9094B0748DC6807F002FA3D
:10E9E00001460548A04705230121054889F8003064
:10E9F00005F0F8FF54E600BF08030020306701006F
:10EA0000E002002038B50B4A4FF0A04403234FF436
:10EA100000251060C4F84C370120C4F80C5500F0F4
:10EA2000D7FBC4F8085500210348BDE8384006F07C
:10EA3000B7B800BF04030020D000002010B500F0DC
:10EA4000D9FB01F01BF8094805F03EFE06F0EAF894
:10EA5000044600F06BFA002CF8D172B606F034F9D7
:10EA600010B9BFF34F8F30BF62B6EFE724650100E6
:10EA70002DE9F041D0E902470546E41B4068944285
:10EA8000164638440DD8161B8846224607F081F8F2
:10EA900008EB04013246686807F07BF8EE60BDE8D9
:10EAA000F0813E4407F075F8EE60BDE8F08100BFEC
:10EAB0002DE9F8438846D0E90215064617464FF07F
:10EAC0000009336970689D4203F1FF3426BF03F1EA
:10EAD000FF335B18631BA1EB050428BF5B1BBC4223
:10EAE00028BF3C469C4228BF1C464146284422463B
:10EAF00007F04FF8B1682544A94208BF00253F1B25
:10EB0000A144A044F560DCD14846BDE8F88300BFCD
:10EB100038B5114C114BE3614FF400631048236288
:10EB2000102500230F4AA3620F496066A566636241
:10EB30002367E366E01D01230325E3626367A261A7
:10EB40002266C4E9045507F045F92046074907F055
:10EB500041F92023A37138BD881D00201C0400202A
:10EB60000C040020DC660100E8660100EC66010090
:10EB70002DE9F04FDFF8A89099F8003083B0804677
:10EB80008B469246002B47D04FEA480707EB080612
:10EB900009EBC606356FF36E9D421FD85C1B5445CA
:10EBA00028BF54461CB9204603B0BDE8F08F0026AC
:10EBB00007EB080309EBC3032246596E5846294464
:10EBC00006F0E7FF25443444002CECD0474409EB21
:10EBD000C70720463D6703B0BDE8F08FD6E919149A
:10EBE000641B544528BF5446224629445846019385
:10EBF00006F0CFFFB26E019B2544AA42AAEB040A9D
:10EC000014BF5B1B0025534528BF5346002BDBD0A8
:10EC1000A34426461C46CBE7FFF77AFFB4E700BFC4
:10EC2000881D002010B50B46EFF311844FF0200132
:10EC300081F311881946FFF79BFF84F3118810BDFB
:10EC400070B5204D00EB400305EBC3030130DC6AD7
:10EC500000EB4000012C05EBC0000E46154617D016
:10EC600008D3022C02D00024204670BDBDE87040BD
:10EC7000FFF71EBF9A6A596A8A421DD9013A521A91
:10EC80009542F1D831462A46FFF7F2FE2C46EBE7D3
:10EC90009A6A5C6AA2420AD9013A141BAC4228BFA4
:10ECA0002C4631462246FFF7E3FE204670BD1B6A24
:10ECB0001344013B1C1BF1E71B6A1344013B5A1A26
:10ECC000DEE700BF881D002030B50C4B1B7883B0F9
:10ECD0000D462BB9CDE90002FFF71AFFDDE900026E
:10ECE000EFF311844FF0200181F311882946FFF7DB
:10ECF000A7FF84F3118803B030BD00BF881D00203A
:10ED0000044B00EB400003EBC003D86E1B6FC01A2E
:10ED1000704700BF881D00200C4BDA6E1B6F9A42B3
:10ED200011D000B583B001220DF107010020FFF7DB
:10ED300079FF012804D19DF8070003B05DF804FBBA
:10ED40004FF0FF30F9E74FF0FF307047881D00208B
:10ED50002DE9F0410A460D46074601460020FFF71F
:10ED6000B3FF8542044610D8164E4CB93368012BC8
:10ED700001DC013333602046BDE8F081002CFAD07D
:10ED8000002333602046BDE8F08100F02BFA00F547
:10ED900000600C4E1FFA80F808E03368012BEDDCB0
:10EDA00000F020FAA0EB08000304DED52A1B391975
:10EDB0000020FFF789FF0444A542EED8002CD5D0EF
:10EDC000DEE700BF600C002009B908467047FFF776
:10EDD000BFBF00BF00B583B002AB012103F8010D36
:10EDE0001846FFF7B5FFA0F10100B0FA80F0400926
:10EDF00003B05DF804FB00BF38B5054600200C46A3
:10EE0000FFF77EFFA04228BF204600B938BD22464A
:10EE100029460020BDE83840FFF704BF10B50F4871
:10EE200003F060FD03280BD8DFE800F0020B020BB3
:10EE30000B4C237823B10B4805F0FEFC0023237014
:10EE400010BD07490B78002BFAD101240C70064A3B
:10EE500004481921BDE8104005F0C6BC400C002054
:10EE60001C0C0020200C0020A1EE000008B501467B
:10EE7000034803F025FDBDE80840FFF7CFBF00BF02
:10EE8000400C002010B50A460146044803F004FD7A
:10EE9000044608B1FFF7C2FF204610BD400C002019
:10EEA00008B50B4B1B788BB10A4BDA6E1B6F9A427D
:10EEB00004D10948BDE8084005F0A2BC074803F0AA
:10EEC0002BFD0548BDE8084005F09ABC08BD00BF11
:10EED0001C0C0020881D0020200C0020400C00206D
:10EEE000704700BF08B50949094803F01FFF48B93A
:10EEF000084803F055FF08B104F0F4FB064B01226B
:10EF00001A7008BD04F0EEFBF2E700BFE1EE00006E
:10EF10000C670100640C0020650C0020024B1B787C
:10EF200003B9704703F02EBF650C0020034B1B781C
:10EF300003B97047024B187803F056BF650C0020E8
:10EF4000640C0020034B186818B90348034A1044A6
:10EF500018607047680C00206C920000B8DF000059
:10EF6000F8B5294B294DD3F804452B68284A294F79
:10EF700016682949DFF8B8C0E31A23F07F43C3EBD2
:10EF8000431003EB80003044106010681668C6F32D
:10EF9000080616603E68400A06443E600F681F4E31
:10EFA000384408600A680F68ACFB020292094FF40B
:10EFB0007A7000FB1270086031681948194F0A44D2
:10EFC0003260026818491344036002683B6803EB2F
:10EFD00012133B60036803F00F03036022461032F4
:10EFE0000A40131B23F07F43012BF8D90123002192
:10EFF0000E482C6003F0DEFD05F018FD00B9F8BDE9
:10F00000BDE8F84005F0E8BC00100140700C00209D
:10F01000800C00207C0C0020880C0020840C002038
:10F02000780C0020740C0020F0FFFF00286701001E
:10F03000D34D621000B1704710B50446FFF790FF42
:10F04000014B1C7010BD00BF8C0C002070B500235C
:10F050000E4E0F4D3370184604F0C4F9D5F8044530
:10F060002834A4B204E0D5F804351B1B1B0405D5D5
:10F0700004F0FAF90028F6D001233370044BBDE800
:10F080007040D3F8043504F0DBB900BF6C0C0020ED
:10F090000010014070B52348234E244D244C2549CF
:10F0A000254A002382B033602B60236003600B602D
:10F0B000136004F041F9002830D104F08FF80020EB
:10F0C00004F05AF904F086F90028FBD01B4B1C4CC5
:10F0D0001C4A93E8030000230090ADF804101A487E
:10F0E0002370694603F016FD08B104F0FBFA174CD3
:10F0F0001749184A144801232360D1F804151160F8
:10F100001268103222F07F42002103F053FD0E48B6
:10F1100003F044FDFFF79AFF02B070BD04F0E2FA7D
:10F12000CBE700BF7C0C0020780C0020740C002082
:10F13000800C0020880C0020840C0020186701003F
:10F140008C0C002035F000002867010008100140F9
:10F1500000100140700C0020014B1868704700BF80
:10F16000740C002010B483B0EFF31083B3FA83F370
:10F170005B09019372B60D4B0D490E480E4AD3F848
:10F180000435096800681268019C04B162B65B1A14
:10F1900023F07F43C3EB431103EB8103134400EBE4
:10F1A000532003B05DF8044B704700BF00100140CE
:10F1B000700C00207C0C0020800C002020B1034B40
:10F1C000800143F001031847704700BF206701002A
:10F1D00080B220B1024B800143F001031847704711
:10F1E00020670100024BD3F8040580B2704700BFCE
:10F1F00000100140184B012210B5C3F8402501F062
:10F2000041F800F031F801F0FFF8144AD2F88830E4
:10F2100043F47003C2F88830BFF34F8FBFF36F8F92
:10F22000FFF738FFFFF75EFE05F0E2FC00210C4817
:10F2300005F0B6FC05F09EFAFFF770FE002005F021
:10F24000E9FD084B1C6800210220A047234600214D
:10F250000220BDE81040184700E0014000ED00E04A
:10F2600030010020F46601004FF080434FF0FF3181
:10F27000D3F80024C3F800140C490B784AB943F0C2
:10F28000010362F3410362F3820362F3C3030B7071
:10F290007047500803F0FE0360F34103900860F3E9
:10F2A000820362F3C3030B70704700BF900C002011
:10F2B000BFF34F8F0549064BCA6802F4E06213435F
:10F2C000CB60BFF34F8F00BFFDE700BF00ED00E054
:10F2D0000400FA05084A094B11681B68994208D0D6
:10F2E0001168136806480133C3F30803405C1360D8
:10F2F00070474FF0FF307047940E0020980E0020AA
:10F30000940C00202DE9F843224B234D1F682B68F5
:10F310002C68BB420E461DD9C4F50074A1422AD9FF
:10F320002968DFF8789022464944804606F031FC8F
:10F3300000232B605FB1361BB74228BF37464946D2
:10F3400008EB04003A4606F024FC2F603C442046BB
:10F35000BDE8F8833C1BFAD02B681049B44228BFA3
:10F3600034462246194406F014FC2B6823442B60D3
:10F370002046BDE8F8832B6808493246194406F058
:10F3800008FC2B683344C3F3080334462B60204643
:10F39000BDE8F883980E0020940E0020940C002005
:10F3A00010B5038804461BB1B42B05D1822907D0C0
:10F3B000B4232380012010BD00230380032010BD4F
:10F3C000014803F0A9FAF3E7A812002030B40B4972
:10F3D0000B4B0C4A0425C1F8805000244FF0FF303D
:10F3E0000221C3F80045C3F80C05C3F81405C2F8A0
:10F3F0002C17C2F8341730BC704700BF00E100E0A2
:10F400000020004000030050144A137803B310B4E6
:10F41000134B144900244FF480701470C3F8080390
:10F420000A784AB10122DA6002E0D3F820211AB941
:10F43000D3F85821002AF8D00B4B1B7801220A7010
:10F440001BB9074BD3F800351BB95DF8044B704767
:10F4500070475DF8044BFFF7B9BF00BFC912002029
:10F4600000200040A4120020C812002070B41249ED
:10F47000124B134A0320C1F82C074FF400650020FB
:10F480002B242D26C1F80855C3F80C454FF0EB7519
:10F49000C1F83407C024C3F814650421C3F86C050F
:10F4A0000820C3F8245582F80243C2F88011116085
:10F4B000C3F8000570BC70470003005000200040F6
:10F4C00000E100E008B50D4B0D4918680D4A0860D1
:10F4D0000D4B01211170D3F8003563B10A4B0B4875
:10F4E00000224FF480710270C3F82021C3F8582124
:10F4F000C3F8041308BDFFF7B9FFEFE7A01200201F
:10F500009C120020C912002000200040A4120020FC
:10F5100070B41D4A1D4913680C680133C3F3090315
:10F520009C422AD015681A4C60551A4D13602B78EE
:10F5300003F0FF00FBB908681368984220D0086800
:10F540001368984234BF13680B68134A38BF1B1AFC
:10F550004FF6FF7128BFC3F580634FF6FE76044473
:10F56000B34288BF0B460121C2F844450846C2F8A1
:10F5700048352970916070BC7047002070BC70479E
:10F58000012070BC704700BFA01200209C12002018
:10F590009C0E0020A4120020002000402DE9F0471E
:10F5A000002962D03B4EDFF8FC90D9F80070336838
:10F5B00035689F420C4680461DD8C5F58065A94236
:10F5C00057D93068DFF8D0A02A465044414606F0AB
:10F5D000E0FA0023012F33601FD9791E671B8F4289
:10F5E00028BF0F46504608EB05013A4606F0D1FA0F
:10F5F00037603D4411E07F1B012F48D9791E8C42B2
:10F600003368254828BF0C46224641461844254603
:10F6100006F0BFFA336823443360204A13782BBBCB
:10F62000D9F800103368994220D0D9F800403368E7
:10F6300019481B499C4236BF3368D9F800301B1B60
:10F64000204428BFC3F580634FF6FE764FF6FF7463
:10F65000B34288BF23460124C1F84405C1F84835A8
:10F6600014708C602846BDE8F0870D462846BDE83A
:10F67000F0873368084841461844224606F089FA64
:10F6800033682344C3F3090333602546C5E70025E7
:10F69000C3E700BFA01200209C0E0020A41200208F
:10F6A000002000409C120020124A134B10B510207D
:10F6B000002401211C70C2F808031346516002E0C7
:10F6C000D3F810211AB9D3F84421002AF8D00B4BF3
:10F6D0001B781BB9074BD3F8003523B90848BDE8A0
:10F6E000104005F07FBAFFF771FE0548BDE81040F5
:10F6F00005F078BA00200040C8120020C91200208E
:10F70000E000002038B5124C12492068124A086007
:10F71000124B01211170D3F80035B3B10F4B104AD1
:10F72000104800211025C3F81011C3F84411C3F884
:10F730000453246822440124C3F83425C3F838450F
:10F740001C60BDE8384005F02BBAFFF78FFEE5E7F7
:10F75000980E0020940E0020C812002000200040C7
:10F76000940C0020E000002008B5194803F0BAF816
:10F77000032808D8DFE800F01A021308FFF744FE58
:10F78000144B1B78E3B108BD124B1B78E3B1124B4D
:10F790001B78002BF7D1BDE80840FFF793BE0D4B57
:10F7A0001B78002BF3D0FFF77FFFF0E7094B1B78A6
:10F7B0001BB9BDE80840FFF727BEFFF775FFF8E764
:10F7C000BDE80840FFF79EBFFFF79CFFDFE700BFE3
:10F7D000A8120020C8120020C912002008B5014656
:10F7E000034803F06DF8BDE80840FFF7BDBF00BF58
:10F7F000A812002010B50A460146044803F04CF850
:10F80000044608B1FFF7B0FF204610BDA812002043
:10F8100038B52A4BD3F81021DAB1294A29480021FA
:10F82000C3F810111368284901330968C3F30803AA
:10F83000994218BF13601168244B204A0B440121E0
:10F84000C2F83435116005F069FA214B186805F0EB
:10F8500065FA1A4BD3F8202162B31E4A1E490020D4
:10F86000C3F82001D3F84C3514682344C3F30903CB
:10F87000136014680B689C421DD010680B68174C0D
:10F88000984234BF0B68136815490C4A38BF1B1ADD
:10F89000014428BFC3F580634FF6FF704FF6FE7535
:10F8A000AB4288BF03460120C2F84415C2F8483570
:10F8B0002070906038BD094B187038BD00200040A2
:10F8C000980E0020E0000020940E0020940C0020F0
:10F8D000CC1200209C120020A0120020A4120020B4
:10F8E0009C0E0020F8B5634D634E2B681F2B8BBF19
:10F8F00003F01F021A4660484FF0A04002F5E07284
:10F90000042140F82210142404E0FFF757FC013CC6
:10F910002B680FD01F2B8ABF32464FF0A04203F056
:10F920001F01D2F8102598BF1946CA40D7074FF0DB
:10F930000A00EAD51F2B29D94F4CD4F8100503F043
:10F940001F07F84010F0010000F084806A681F2A49
:10F950002BD84FF0A04002F5E071042640F821605A
:10F96000D0F8106526FA02F2D2072BD50246012004
:10F9700002241F2B42F8214078D903F01F033E4A8E
:10F9800003F5E073022142F82310F8BD4FF0A042C6
:10F99000D2F81045DC4014F001045DD1204603F597
:10F9A000E073022142F82310F8BD02F01F0101F5B7
:10F9B000E070314A042642F82060D2F81025CA408F
:10F9C000D0074CD407F5E072012606FA07F740F29B
:10F9D0000161C4F8087544F82210274F102401E093
:10F9E000013C35D01F2B8ABF3A464FF0A04203F0AE
:10F9F0001F0306FA03F3C2F80C350520FFF7DEFB00
:10FA00002B681F2B8ABF3A464FF0A04203F01F031A
:10FA100006FA03F3C2F808350420FFF7CFFB6A6843
:10FA20001F2A8ABF3B464FF0A04302F01F00D3F8C5
:10FA300010152B6898BF1046C140C907D0D50120CA
:10FA40001F2A0ED902F01F0101F5E0710A4A8FE763
:10FA50002046F5E73B4692E714461F4676E701202D
:10FA6000F2E702F5E0714FF0A04281E74FF0A042CB
:10FA700095E700BFEC0000200003005008B51449D2
:10FA80000A684B681F2A88BF02F01F0202F5E07265
:10FA90008CBF10484FF0A0401F2B88BF03F01F03FE
:10FAA0004FF0040140F8221003F5E0738CBF094ABF
:10FAB0004FF0A042042142F823101420FFF77EFBF0
:10FAC000FFF710FF044A054B107000221A7008BDA2
:10FAD000EC00002000030050D0120020D1120020C2
:10FAE000084A094B11681B68994208D011681368CD
:10FAF00006480133C3F30803405C136070474FF0BE
:10FB0000FF307047D4140020D8140020D4120020F5
:10FB10002DE9F843224B234D1F682B682C68BB420C
:10FB20000E461DD9C4F50074A1422AD92968DFF810
:10FB3000789022464944804606F02BF800232B603B
:10FB40005FB1361BB74228BF3746494608EB040071
:10FB50003A4606F01EF82F603C442046BDE8F88384
:10FB60003C1BFAD02B681049B44228BF34462246C9
:10FB7000194406F00EF82B6823442B602046BDE89C
:10FB8000F8832B6808493246194406F002F82B68BE
:10FB90003344C3F3080334462B602046BDE8F883A2
:10FBA000D8140020D4140020D412002010B50388EB
:10FBB00004461BB1B42B05D1822907D0B42323807E
:10FBC000012010BD00230380032010BD014802F076
:10FBD000A3FEF3E7E816002030B40C490C4B4FF0BD
:10FBE000A0424FF48075C1F8845000244FF0FF30DC
:10FBF0000221C3F80045C3F80C05C3F81405C2F888
:10FC00003C17C2F8381730BC704700BF00E100E075
:10FC100000800240144A137803B310B4134B144904
:10FC200000244FF480701470C3F808030A784AB1B6
:10FC30000122DA6002E0D3F820211AB9D3F8582162
:10FC4000002AF8D00B4B1B7801220A701BB9074B16
:10FC5000D3F800351BB95DF8044B704770475DF869
:10FC6000044BFFF7B9BF00BF091700200080024016
:10FC7000E41600200817002070B44FF0A041124B8A
:10FC8000124A0320C1F83C074FF4004500200F241E
:10FC90000E26C1F80855C3F80C454FF0EB75C1F8B6
:10FCA0003807C024C3F814654FF48071C3F86C059D
:10FCB0000820C3F8245582F82843C2F88411516003
:10FCC000C3F8000570BC70470080024000E100E00E
:10FCD00008B50D4B0D4918680D4A08600D4B012100
:10FCE0001170D3F8003563B10A4B0B4800224FF472
:10FCF00080710270C3F82021C3F85821C3F804139F
:10FD000008BDFFF7B9FFEFE7E0160020DC16002082
:10FD10000917002000800240E416002070B41D4A3C
:10FD20001D4913680C680133C3F308039C422AD0B1
:10FD300015681A4C60551A4D13602B7803F0FF00BC
:10FD4000FBB908681368984220D008681368984285
:10FD500034BF13680B68134A38BF1B1A4FF6FF7184
:10FD600028BFC3F500734FF6FE760444B34288BF44
:10FD70000B460121C2F844450846C2F848352970AF
:10FD8000916070BC7047002070BC7047012070BC4F
:10FD9000704700BFE0160020DC160020DC140020B5
:10FDA000E4160020008002402DE9F047002962D0CF
:10FDB0003B4EDFF8FC90D9F80070336835689F42FD
:10FDC0000C4680461DD8C5F50075A94257D9306844
:10FDD000DFF8D0A02A465044414605F0DAFE002361
:10FDE000012F33601FD9791E671B8F4228BF0F4632
:10FDF000504608EB05013A4605F0CBFE37603D441E
:10FE000011E07F1B012F48D9791E8C4233682548A9
:10FE100028BF0C46224641461844254605F0B9FE47
:10FE2000336823443360204A13782BBBD9F8001081
:10FE30003368994220D0D9F80040336819481B49EB
:10FE40009C4236BF3368D9F800301B1B204428BFC2
:10FE5000C3F500734FF6FE764FF6FF74B34288BFCA
:10FE600023460124C1F84405C1F8483514708C605C
:10FE70002846BDE8F0870D462846BDE8F087336880
:10FE8000084841461844224605F083FE336823445F
:10FE9000C3F3080333602546C5E70025C3E700BF69
:10FEA000E0160020DC140020E41600200080024050
:10FEB000DC160020124A134B10B51020002401213B
:10FEC0001C70C2F808031346516002E0D3F81021F9
:10FED0001AB9D3F84421002AF8D00B4B1B781BB970
:10FEE000074BD3F8003523B90848BDE8104004F0AB
:10FEF00079BEFFF771FE0548BDE8104004F072BE00
:10FF0000008002400817002009170020FC00002094
:10FF100038B5124C12492068124A0860124B012170
:10FF20001170D3F80035B3B10F4B104A10480021BF
:10FF30001025C3F81011C3F84411C3F80453246802
:10FF400022440124C3F83425C3F838451C60BDE8B9
:10FF5000384004F025BEFFF78FFEE5E7D8140020F7
:10FF6000D41400200817002000800240D412002082
:10FF7000FC00002008B5194802F0B4FC032808D89A
:10FF8000DFE800F01A021308FFF744FE144B1B7859
:10FF9000E3B108BD124B1B78E3B1124B1B78002B69
:10FFA000F7D1BDE80840FFF793BE0D4B1B78002B3F
:10FFB000F3D0FFF77FFFF0E7094B1B781BB9BDE8D3
:10FFC0000840FFF727BEFFF775FFF8E7BDE80840D8
:10FFD000FFF79EBFFFF79CFFDFE700BFE81600209A
:10FFE000081700200917002008B50146034802F051
:10FFF00067FCBDE80840FFF7BDBF00BFE816002062
:020000040001F9
:1000000010B50A460146044802F046FC044608B111
:10001000FFF7B0FF204610BDE816002038B52A4B88
:10002000D3F81021DAB1294A29480021C3F8101168
:100030001368284901330968C3F30803994218BFBC
:1000400013601168244B204A0B440121C2F8343557
:10005000116004F063FE214B186804F05FFE1A4B38
:10006000D3F8202162B31E4A1E490020C3F82001A4
:10007000D3F84C3514682344C3F3080313601468A1
:100080000B689C421DD010680B68174C984234BF17
:100090000B68136815490C4A38BF1B1A014428BF66
:1000A000C3F500734FF6FF704FF6FE75AB4288BF85
:1000B00003460120C2F84415C2F84835207090600C
:1000C00038BD094B187038BD00800240D81400209C
:1000D000FC000020D4140020D41200200C170020B3
:1000E000DC160020E0160020E4160020DC140020BE
:1000F000164BD3F8002512F0070226D170B41B2648
:10010000C3F808654FF0A041062407204FF00046D1
:10011000C3F80C45C3F81005FF24C3F824654FF05D
:100120000066C3F8C0450A4DC1F80C65032440269B
:10013000C1F86C47C1F80C65C1F81847C1F81C2715
:10014000C3F800052A7070BC70477047003000404B
:10015000101700200B4BD3F80025520711D04FF099
:10016000A04210B40221084C0020C3F80005C2F8D8
:100170006C17C2F81817C2F81C1720705DF8044BF2
:10018000704770470030004010170020F0B4274D32
:100190002C78D4B900B1D9B9BAB1B3B1244900208F
:1001A00002242C70C1F84405C1F84805C1F8342573
:1001B000C1F83835C1F810011D4B01220021C3F8E8
:1001C00004111A611046F0BC70470020F0BC704763
:1001D00004F0FF0600F06044B4F1005FF5D13AB1DD
:1001E00033B102F06044B4F1005F10D03046EDE767
:1001F0000F4B002201242C70C3F84405C3F84815A6
:10020000C3F83425C3F83825C3F82021D4E7084CB7
:1002100003272F70C4F84405C4F84815C4F83425E2
:10022000C4F83835C4F81861C6E700BF10170020BD
:100230000030004011490B78032B08D8DFE803F0A9
:10024000100217110E4AD2F82031002BFBD00C4AB5
:1002500001235361D2F80431002BFBD000230B7033
:100260007047074AD2F81831002BFBD0EFE7044A59
:10027000D2F81031002BFBD0E9E700BF10170020A7
:100280000030004008B5002003F0FAF828B18528B6
:1002900003D0BDE8084003F025BA08BD144B197817
:1002A000E1B130B4134B1B88F3B1134AB2FBF3F343
:1002B0009CB2124D124A1348D48003FB01F3A5FBF4
:1002C0000313C3F38F1343F40043012113805380BE
:1002D0009380C0F80015816030BC7047094B012243
:1002E0005A60C3F80015704702242346E1E700BFB7
:1002F0000A0100200801002040420F001F85EB5139
:100300001417002000C0014070B51C4C23789BBB23
:100310001B490A7822BB4FF0A0401A4B1A4E4FF4EB
:100320008055C0F80C5504200325C3F80C05C3F80C
:100330000425C3F810554FF47A75C3F81425C3F893
:100340000855C3F824050C250120C3F82C25C3F853
:100350002065C3F82825C3F80022C3F8605508704B
:10036000FFF79CFF0120FEF733FF4FF0A04203216F
:100370000123C2F83017237070BD00BF1117002091
:100380001217002000C0014014170020094B1A78F2
:1003900072B130B408494FF0A04402250022012078
:1003A000C4F830574860C1F800251A7030BC704757
:1003B000704700BF1117002000C00140014B1878A2
:1003C000704700BF11170020054B1A88824203D0E6
:1003D000044A1880137803B97047FFF75FBF00BF66
:1003E0000801002011170020054B1A78824203D023
:1003F000044A1870137803B97047FFF74FBF00BF66
:100400000A010020111700200E490B78CBB970B4F7
:100410000D4B0E4D0E4C0F480F4A104E2B442344EB
:100420001B1A9B1A03F6FF700D4A0E4D0E4C000B63
:100430009B1A3060120B01202B602260087070BC88
:100440007047704720170020846F0100B002002021
:10045000CC6F0100846F010010000020100100200B
:1004600000E000001C1700200C0100204FF080422B
:10047000D2F81C3523F007031843C2F81C05704757
:10048000FFF742BFFFF782BFFFF798BFC82842F2CD
:10049000107338BFC820984228BF1846FFF794BF92
:1004A000642828BF6420FFF79FBF00BFF0B54FF05E
:1004B000A04483B0104E01234FF40035A022B7684A
:1004C000C4F80C5519468DF806200DF106000DF103
:1004D0000702B847F668B04702A8FF2300F8033DBB
:1004E00001230DF107021946B847B0479DF80700F0
:1004F000C4F8085503B0F0BD60670100044B054A1D
:100500001878054B002814BF10461846704700BFE6
:100510002117002070670100786701002DE9F0477E
:100520004FF0A04682B01B4C4FF0050C01234FF456
:100530000037A568C6F80C7582468DF806C0894656
:10054000904619460DF107020DF10600A847E46830
:10055000A04702A801230DF10702194600F803ADD8
:10056000A847A04702A801230DF10702194600F889
:10057000049DA847A04702A801230DF107021946D0
:1005800000F8058DA847A047C6F8087502B0BDE879
:10059000F08700BF606701002DE9F0414FF0A046F1
:1005A00082B0164C01234FF400370322A568C6F829
:1005B0000C75194680468DF806200DF106000DF1E8
:1005C0000702A847E468A04702A801230DF107022B
:1005D000194600F8038DA847A04702A8FF2300F89A
:1005E000043D01230DF107021946A847A0479DF8D5
:1005F0000700C6F8087502B0BDE8F0816067010029
:1006000038B50022402104462C20FFF787FFFEF773
:10061000A9FD054604E0FEF7A5FD401BC8280DD83E
:100620002246E0210F20FFF779FF0E20FFF7B4FFED
:1006300000F0E0008442EED1002038BDFF2038BD3C
:100640002DE9F0434FF0A04683B0154C01234FF441
:1006500000370222A568C6F80C75814688468DF8D9
:10066000062019460DF107020DF10600A847E468BF
:10067000A04702A801230DF10702194600F8039DC7
:10068000A847A04702A801230DF10702194600F868
:10069000048DA847A047C6F8087503B0BDE8F083ED
:1006A000606701002DE9F047A04AA14E4FF0A04439
:1006B0004FF4003A4FF480134FF003080C2782B038
:1006C000C4F808A53568C4F84487C4F80835C4F8E8
:1006D0005087C2F8087781460F46A847B168C4F82A
:1006E0000CA50123C0220D468DF8062019460DF1F8
:1006F00007020DF10600A847F36898476420C4F884
:1007000008A5FEF75BFD8020FFF77AFF00286AD17D
:10071000884A01231370002F5FD1B9F1500F00F008
:10072000C48067D9B9F1C80F00F0B58040F2A0804D
:10073000B9F5FA7F00F09980B9F57A7F00F0B280C0
:10074000B9F1FA0F4BD10524B12501462A20FFF754
:1007500077FF29462920FFF773FF21462820FFF75E
:100760006FFF302420460021FFF76AFF04F11000DC
:10077000C0B20021FFF764FF04F120000134C0B2D1
:100780000021E4B2FFF75CFF3E2CEBD1002160209A
:10079000FFF756FF00217020FFF752FF00212C20A9
:1007A000FFF74EFF03212B20FFF74AFF642211467B
:1007B0006020FFF7B3FE602211467020FFF7AEFE07
:1007C0006420FEF7FBFC0020FFF71AFF002814BF8F
:1007D000FF20002002B0BDE8F087012F1BD0FF20D2
:1007E00002B0BDE8F087534B0022FF201A7002B020
:1007F000BDE8F087B9F1140F5FD041D9B9F1280FE6
:100800002FD0B9F1320F54D0B9F11F0FE7D1042422
:10081000A425072099E7B9F1500F6FD010D9B9F18D
:10082000C80F77D057D9B9F5FA7F5CD0B9F57A7F80
:1008300074D0B9F1FA0FD2D18524F125412084E793
:10084000B9F1140F5ED03CD9B9F1280F5ED0B9F1DF
:10085000320F4BD0B9F11F0FC1D18524F1250F20E4
:1008600073E740460724BF256FE7022490256CE715
:10087000B9F1640F0ED0B9F17D0FB0D1184662E71F
:10088000B9F1050F0AD0B9F10A0FA8D10724BF2585
:100890000F205AE718460624B42556E70724BF253B
:1008A0001F2052E7044680254FE718460724BF253E
:1008B0004BE740460624B42547E707242046BF25DA
:1008C00043E7B9F1050F15D0B9F10A0F87D1872495
:1008D000FF251F2039E7B9F1640F22D0B9F17D0F50
:1008E0007FF47DAF40468624F0252EE78724FA2545
:1008F00007202AE78724FF253F2026E74046872454
:10090000FF2522E78724FF250F201EE78724FF25E8
:1009100007201AE738468724FA2516E78224D025CF
:1009200013E740468724FA250FE700BF0003005075
:1009300060670100211700202DE9F04F1E460023BB
:100940005C1C074685B0884615460A20A4B2CBB188
:10095000FEF734FCFFF7AAFD00F05403542B09D036
:1009600010F0040217D010F010021FD010F0400257
:1009700000F0D280322C15D023465C1C0A20A4B291
:10098000002BE5D1FFF792FD00F05403542BF3D078
:1009900010F00402E7D104212C20FFF7BFFD322C18
:1009A00040F0ED80042005B0BDE8F08F08212C2038
:1009B000FFF7B4FD322CF5D04FF040094FF0410A5B
:1009C0004220B8F1010FFBB200F0B880FF085B01D4
:1009D00000228DF80C708DF80D30ADF80E206D4CA6
:1009E0004FF0A04201234FF40031C2F80C15D4F8A7
:1009F00008808DF807000DF10B0219460DF1070074
:100A0000C047E768B84703AC0DF1100B14F8013B81
:100A10008DF80830012319460DF10B0202A8C047DA
:100A2000B8475C45F2D104A8012319460DF10B0229
:100A300000F80A5DC047B847A5B1013D56FA85F5F3
:100A4000741E073614F8013F8DF80930012319464A
:100A50000DF10B020DF10900C047B847AC4201D0BF
:100A6000B442EFD14FF0A0444FF40035C4F808551C
:100A700003212D20FFF7E4FDBAF1410FC4F80C5516
:100A800000F08580BAF1510F7FD0BAF1310F0CBF61
:100A90008122002204A80123194600F8062D0DF139
:100AA0000B02C047B8474FF0A0434FF40032C3F8E1
:100AB000082500235C1C0A20A4B2002B53D0FEF7AB
:100AC0007DFB4846FFF768FD10F0080040D1322C4E
:100AD0007FF469AF002208213020FFF71FFD0022BC
:100AE00004212C20FFF71AFD002208214020FFF7E7
:100AF00015FD002208212C20FFF710FD00220821FF
:100B00005020FFF70BFD002210212C20FFF706FDDF
:100B1000052005B0BDE8F08F10212C20FFF7FEFC6A
:100B2000322C3FF43FAFB8F1010F4FF050094FF0B6
:100B3000510A4FF04400FBB27FF448AF3F0A4FF434
:100B400000628DF80E708DF80F30ADF80C2046E77E
:100B50002D20FFF721FD322CBCD023465C1C0A203F
:100B6000A4B2002BABD14846FFF716FD10F00800E9
:100B70003FF419AF2D20FFF70FFD2346EEE74FF0AE
:100B800030094FF0310A40201BE7842282E782229D
:100B900080E700BF60670100F0B4334B1A78FF2A8A
:100BA00008D1324B1A682AB1314B1B689A4294BF64
:100BB000022201222F490B681D46084605F8122B18
:100BC00092B32A4E32687AB329480D60046870687F
:100BD0005C74C4F30725D6E902171D74C4F30745F6
:100BE000C4F307649C73C0F3072458711C71C0F3ED
:100BF0000744C0F30760C1F307265A73DD73DC7046
:100C0000C1F30745C2F3072498705972C2F3074035
:100C1000C1F30761C2F307625F701E72DD719971E3
:100C20001C73D8729A721CE0134A1449126805604A
:100C3000891AC1F307250022C1F30744C1F30760F5
:100C400059731D73DC7298725A705A711A71DA7086
:100C50009A705A721A72DA719A715A741A74DA7333
:100C60009A73F0BC704700BF1501002000000020FF
:100C700064170020401700206817002000000D00B6
:100C800038B50C4D0C4C286821680430091A01F065
:100C90006DFC236829685870C0F3072003F8020B25
:100CA000581A021F92B2C2F30725CA708D702360D2
:100CB00080B238BD341700204017002038B5064CEC
:100CC000064905460722206804F063FF2368044AAA
:100CD000DD710833136038BD34170020A8670100A8
:100CE0004017002008B5044B1B6803B19847BDE8C6
:100CF0000840FEF7DDBA00BF3C17002008B52120F0
:100D0000FFF7DCFFFFF748FFBDE80840FFF7B8BF7B
:100D100010B50446EE20FFF7D1FF044A13681C709B
:100D200001331360BDE81040FFF7AABF4017002051
:100D300030B53D4C014683B0206800296BD0CB7B99
:100D40008D7B4A7B8DF804300B7B8DF805508DF838
:100D500006208DF80730019BC370C3F30725C3F34A
:100D60000742C3F3076385704270037091F8473000
:100D700091F8465091F845208DF8043091F84430B0
:100D80008DF805508DF806208DF80730019BC37152
:100D9000C3F30725C3F30742C3F3076385714271A9
:100DA0000371CD7C8A7C4B7C8DF804508DF8052036
:100DB0008DF806300B7C8DF80730019BC372C3F3AE
:100DC0000725C3F30742C3F30763857242720372B8
:100DD000CB7E8D7E4A7E8DF804300B7E8DF80550DB
:100DE0008DF806208DF80730019BC373C3F30725E8
:100DF000C3F307428573C3F3076300F11005427321
:100E000003731C3128462822256004F0F3FF236871
:100E10002833236005E03822FDF784FA236838334D
:100E2000236003B030BD00BF401700202DE9F04122
:100E3000054618461E460C46174604F0D3FFEB68DD
:100E40000146304698477FB10A4E274423786A69A5
:100E50001B09F05C904714F8013B6A6903F00F032B
:100E6000F05C9047BC42F1D16B690A20BDE8F041CB
:100E7000184700BF986901002DE9F04FDFF8208383
:100E800098F8004085B0002C40F0FB808946B749B7
:100E9000DFF810A3B64C0746002A0878226008BF86
:100EA0000023CAF80030002840F0D480B14D01235F
:100EB000B5F5007F0B7033D3AF4EB04B4FF40074D9
:100EC00005F5907B02E00434AC4229D82268B24296
:100ED000F9D1A279511E0129F5D8012A19460093AA
:100EE0004FF0040214BF5B4600232046019304F038
:100EF00041FE009B0028E6D1E17CA27C8DF80C101D
:100F00008DF80D20617C227C8DF80E108DF80F205D
:100F1000039A0199C2F1480222448A4201D0D2E7E1
:100F20000024974E974D3460FEF70CF8964C3368CA
:100F3000286000222260002B31D093F847208DF8E2
:100F40000C2093F8451093F8442093F846008DF850
:100F50000E108DF80F208DF80D00DA7CDDF80CB046
:100F6000997C8DF80C205A7C1B7C8DF80F308DF805
:100F70000E208DF80D100399042988BF04390091C3
:100F800001F06EFC00990246002001F06DFC01F0BA
:100F900081FC834517BF002328682868336070B33D
:100FA00090F847308DF80C3090F8461090F84520B6
:100FB00090F844308DF80D108DF80E208DF80F301C
:100FC000C37CDDF80CB0817C8DF80C30427C037C56
:100FD0008DF80F308DF80D108DF80E20039E042E25
:100FE00088BF043E01F03CFC31460246674801F0F0
:100FF0003BFC01F04FFC834564D000232B60644B25
:10100000266800221A602EB306F6FF7323F47F636E
:1010100023F00F035F4AD11AB14206D206F6FF73DE
:1010200023F47F6323F00F03D31A584D042E1D447D
:1010300088BF043E01F014FC31460246284601F008
:1010400013FC01F027FCA3688342534B0CBF2268BA
:1010500000221A60514CB9F1010F276026D93B4696
:101060007A7813F8021B8DF80D108DF80C20BDF85E
:101070000C202360B2F55F4F07D0DAF800300A2B5E
:101080001ED8002005B0BDE8F08FB9F1090F0DD9C9
:10109000FA78BB788DF80D308DF80C20BDF80C2057
:1010A000A9F10403381D9A42206029D0DAF80030F3
:1010B0000A2BE6D9012005B0BDE8F04FFFF728BEA6
:1010C0000220F8E72B682668002B98D0DA7C997C00
:1010D0008DF80C205A7C1B7C8DF80E208DF80D109D
:1010E0008DF80F30039B2A4A03F6FF7323F47F63C6
:1010F00023F00F031360002EACD0B3428AD883E7ED
:10110000A9F106052946A9F1020901F02FFA07EB1A
:10111000090217F8093052788DF80C208DF80D303F
:10112000BDF80C30984205D0DAF800300A2BA8D967
:101130000320C0E723681A46597812F8030B8DF88C
:101140000D0098788DF80C1001282260BDF80C1065
:1011500002D000F5004095E74BF6CE62914223D0D5
:10116000DAF800300A2B8CD90420A4E72C170020D1
:1011700034170020E0DE000046495300A467010058
:1011800028170020241700200000002000E00000A5
:101190006817002000000D006417002030170020A1
:1011A0006C17002038170020DA78191D122A2160E8
:1011B0000FD8112A50D252B3022A10D1042DDAF8D6
:1011C000003017D0DAF800300A2B7FF65AAF07202C
:1011D00071E7302A16D03F2AF0D0202A06D0DAF85C
:1011E00000300A2B7FF64DAF062064E70F2DDAF8AA
:1011F0000030E7D91B2B7FF644AF05B0BDE8F04FB8
:10120000FFF77CBD0C2DDAF80030DBD1F2E7042DBE
:10121000DAF80030D6D18D2B7FF633AF614C624DBA
:101220000120FFF74BFD2068FFF782FD2868FFF7DC
:101230007FFD226802B1D27A5C482B6801680A708F
:1012400003B1DB7A4B7002310160FFF7A5FC05B0FA
:10125000BDE8F04FFFF714BD102DB3D1DE799D79B5
:10126000587919798DF80C608DF80D508DF80F10A4
:101270008DF80E00D97A03989E7A5D7A8DF80C105D
:10128000197A8DF80D608DF80E50DE7B9D7B8DF800
:101290000F1003998DF80C608DF80D505E7B1D7B4F
:1012A0008DF80E608DF80F501033112A2360039DC6
:1012B0003DD03F4B3F4E404C3B4AFF271F70002321
:1012C000336023601368022673B1DF7B9A7B8DF84D
:1012D0000C708DF80D205F7B1A7B8DF80E708DF8E9
:1012E0000F20039A90422ED0472D58D9334A344BC1
:1012F00012689B1A9D424BD8324B606008440344ED
:101300002B4423F00103022E08BF43F00103012206
:101310000220C4E9021388F800202560FFF7A6F830
:101320000023294A2948552103F05EFAA9E6204BFB
:10133000204E214C1B4AFF271F700023336023607F
:1013400001261368C0E7DF7C9A7C8DF80C708DF85D
:101350000D205F7C1A7C8DF80E708DF80F20039A9B
:101360009542C1D193F8472093F846708DF80C2030
:1013700093F8452093F844308DF80D708DF80E20C9
:101380008DF80F30039B9942AED1DAF8003031E787
:101390001120DAF800300A2B7FF673AE8BE60720B7
:1013A000F7E700BF2817002024170020401700206F
:1013B000150100206417002000000020681700209D
:1013C00000000D0078563412E50C0100441700208F
:1013D00070B5ADF5007D0D46164669464FF4807236
:1013E00001F03AFA20B19DF80030DF2B03D0002045
:1013F0000DF5007D70BD01464FF48073684640AA2C
:10140000FFF73AFD030484B200D41CB920460DF561
:10141000007D70BD2846334640A92246FFF706FDF1
:101420002046F4E7F8B50F461646104908221D4637
:10143000044604F09FFB08B10020F8BD29460C4A81
:1014400004F10800FFF7C4FF03040DD5B0F5004F09
:101450000AD13946F3682046984773690A209847AD
:10146000044B01201870F8BD0120F8BD98670100F9
:10147000B06701001401002008B5034B0846DB6883
:1014800011469847002008BDF466010038B5084DA4
:101490002C6864B9074B08491B68032098472860EB
:1014A00028B10649064A074B0C6014701C7038BD01
:1014B000D4190020F4660100DD150100CC190020CC
:1014C000D8190020D919002088B1094B1A6862B1D7
:1014D00082420CD013681BB905E01A6822B113468A
:1014E0009842FAD170471346002218600260704794
:1014F000D019002010B582B0044604F073FC40B14E
:10150000054BDB6801930146204602B0BDE8104060
:10151000184702B010BD00BFF46601000FB400B55B
:1015200083B004AA054852F8041B019200F0DCF8CD
:1015300003B05DF804EB04B0704700BF1801002051
:1015400001460148FFF7EABF6C68010070B501F081
:10155000B7F8037843B11D4E3468054644B92846B0
:101560003F2101F0BFF898B970BD2468002CF6D077
:101570006168284601F0CAF80028F6D0E468002C1B
:10158000F2D0284601F0A0F82346BDE87040184785
:101590000F48FFF7C3FF34689CB10E4E60680378B4
:1015A0002D2B0BD0FFF7A6FFA368756909201BB18F
:1015B000A847A068FFF79EFF0A20A8472468002CD0
:1015C000ECD10548BDE87040FFF7A8BFD019002056
:1015D000BC670100F4660100086801002DE9F041D4
:1015E0002A4B2B4C9E682B4FDFF8B88082B001212C
:1015F0000DF10700B04701281DD122789DF8073072
:101600001AB100220A2B2270F1D00A2B3A7817D097
:1016100024D90D2B12D07F2B22D1002AE7D11E4DC9
:101620002B68002BE3D0013B01210DF107002B605B
:10163000B0470128E1D002B0BDE8F081012323705A
:10164000D2B9154D154B29681B6808F8012013B154
:101650004046FFF77BFF00232B60C8E7002BEFD04D
:10166000002AC4D10C4D2A68B2F5167F0BD2511C4A
:1016700008F802302960BAE70948074DFFF74EFF26
:1016800000233B70E7E701233B70B0E7F4660100FD
:10169000D8190020D9190020CC190020D419002015
:1016A0005068010070170020102970B50C460546DF
:1016B00013D90C4E01E0102C08D9D5E900301022C6
:1016C00031469847103C0028F5D070BD2246D5E938
:1016D00000300449BDE8704018470029F6D108469B
:1016E00070BD00BF886801002DE9F04F2DED028B21
:1016F0009FB081468B4604924FF000089BF8003063
:10170000002B00F0D980252B08BF5D461BD05C461E
:1017100003E0252B00F0D6802C466378651C002B57
:10172000F7D15D4500F0C880A5EB0B06594632465F
:10173000D9E900309847002840F066826378B044C9
:10174000002B00F0B9806A7805F1010B002A00F047
:10175000B3800021A2F12003102B1BD8DFE803F097
:10176000171A1A141A1A1A1A1A1A1A111A0E1A1AF7
:10177000090041F010011BF8012FEBE741F00101D6
:10178000F9E741F00601F6E741F00801F3E741F01F
:101790000201F0E7A2F13103082B40F297802A2AD8
:1017A00000F0C48000242E2A00F0A0804FF0FF3506
:1017B0006C2A00F0A880682A00F0AE80782A00F237
:1017C000FC81DFE812F07900FA01FA01FA01FA016E
:1017D000FA01FA01FA01FA01FA01FA01FA01FA0131
:1017E000FA01FA01FA01FA01FA01FA01FA01FA0121
:1017F000FA01FA01FA01FA01FA01FA01FA01FA0111
:10180000FA01FA01FA01FA01FA01FA01FA01FA0100
:10181000CA01FA01FA01FA01FA01FA01FA01FA0120
:10182000FA01FA01FA01FA01FA01FA01FA01FA01E0
:10183000FA01FA01FA01FA01FA01FA01FA01FA01D0
:10184000FA01FA01FA01FA01C201FA01FA01FA01F8
:10185000BA01B201AA01FA01FA01FA01FA01FA0188
:10186000FA01FA01FA01FA01FA01FA01FA01FA01A0
:10187000FA01FA01FA01A201FA01FA01FA01FA01E8
:10188000FA01FA01FA01FA019A01FA0192018A01B8
:1018900082014701E000FA018A01FA01FA01FA0126
:1018A000FA01D700F201EA01FA01FA01E201FA01B4
:1018B000DA01FA01FA01D20140461FB0BDEC028BF9
:1018C000BDE8F08F5D457FF42FAF3CE7002404EBCB
:1018D000840402EB44041BF8012FA2F13003092B0E
:1018E000A4F13004F3D92E2A7FF460AF9BF80120D5
:1018F000A2F1300009280BF1010325D92A2A00F0B2
:10190000A5829B4652E79BF801206C2A2BD00BF155
:10191000010B41F0600151E79BF80120682A00F0BB
:101920009F820BF1010B41F0400147E7049A1468D4
:1019300013460433002C9BF801200493B8BF41F0F8
:1019400001010BF1010B2EE7002505EB850502EBEC
:10195000450513F8012FA2F130000928A5F1300543
:10196000F3D99B4624E79BF8022041F080010BF15C
:10197000020B23E70BF1010B049A13680432049263
:10198000C3F80080BAE601F4E06341F4813243F425
:1019900000730192B3F5806F0BF1010B66D000F27A
:1019A0001081B3F5007F00F07081B3F5407F00F047
:1019B0003E81B3F5807F7FF4A1AE002DC0F2498354
:1019C000019B059523F010030193019A02F0E003B7
:1019D00012F400520E9200F07F82402B00F0268518
:1019E00000F28483002B00F05484202B40F0F98413
:1019F000049991F900200431D3170491002A73F15E
:101A00000001C0F25284CDE9082300230A93019B10
:101A100003F4C053B3F5805F40F07A82DDE9082318
:101A200013430DF1660A00F07285DDE9082355467F
:101A3000D00840EA437002F00701DE083031024668
:101A4000334605F8011D52EA0301F1D1AAEB050363
:101A5000029369E201F4E06343F4007341F400721D
:101A6000B3F5806F01920BF1010B98D1049A1346E4
:101A7000176804330493002F00F0E8823E782EB1FB
:101A80003E4616F8013F002BFBD1F61B002D02DB72
:101A9000AE4228BF2E46019BB4428CBFA41B00243B
:101AA000D90740F109853946D9E9003032469847CF
:101AB000002840F0A98021464846B044FFF7F4FDD5
:101AC000002840F0A180A04418E601F4E06341F44E
:101AD000024243F4007301925CE701F4E06341F4D5
:101AE000245243F48073019254E701F4E06341F41B
:101AF000A06243F4A06301924CE701F4E06341F477
:101B0000C13243F40073019244E701F4E06341F40D
:101B1000B24243F4807301923CE701F4E06341F484
:101B2000A13243F40073019234E701F4E06341F41D
:101B3000844243F4007301922CE701F4E06341F422
:101B4000424243F40073019224E701F4E06341F45C
:101B5000E13243F4007301921CE701F4E06341F4C5
:101B6000C06243F4C063019214E701F4E06341F4FE
:101B7000C85243F4807301920CE701F4E06341F42E
:101B8000106243F48073019204E701F4E06341F4CE
:101B9000806243F480630192FCE601F4E06341F467
:101BA000407243F440730192F4E601F4E06341F4BF
:101BB000885243F480730192ECE601F4E0630191F2
:101BC000E8E6B3F5C06F26D0B3F5E06F3FF4D4AECE
:101BD000B3F5A06F7FF492AD049A13688DF850307E
:101BE000134604330493019B012C38BF0124DB0707
:101BF00004F1FF3440F17884D9E90030012214A9BE
:101C00009847002800F052824FF0FF301FB0BDEC23
:101C1000028BBDE8F08FD9F80030A949D9F804004B
:101C2000012298470028EFD108F1010866E50499E0
:101C30000B460A6804330493002A40F00D8246F6EE
:101C4000286146F669422923ADF85E10ADF86020A0
:101C50008DF862300DF15E060525019BAC428CBF0C
:101C6000641B0024DA0740F114843146D9E90030BE
:101C70002A4698470028C7D121464846A844FFF77E
:101C800013FD0028C0D1A04438E5049E073626F095
:101C9000070696ED007B52EC171B8DED027B22F0C0
:101CA0000043039F079308368DED067A0496DDE91D
:101CB0000601FE0F4FF0FF32824B059603F05AFDEE
:101CC00048B94FF0FF327F4BDDE9060103F034FDE8
:101CD000002800F0CC80DDE9020102460B4603F04B
:101CE00049FD002840F09A8300220023DDE902012B
:101CF00003F018FD48B1DDE9021202F100430C9136
:101D00000D939DED0C7B8DED027B262C68A3D3E912
:101D10000023DDE9020128BF262403F017FD002877
:101D200040F0CB82691C10A89DED020B40F0F681BB
:101D300003F072F86448B0EE408AF0EE608A002149
:101D40005DA3D3E900230DF1760ACDE90A0106214E
:101D5000CDF808A00E9151EC180B03F071FA41EC8C
:101D6000100B12A803F058F8DDE912018DED080BF5
:101D700003F02EFD9DED080B06460F460022534B47
:101D800051EC100B03F0E2FC002800F05783DDE972
:101D90000A23013647F10007BB4208BFB24240F0B8
:101DA0004D834B4BDDE91001002203F093F80E9BAD
:101DB000CDE91001002B40F0C28303F009FD064677
:101DC0000F4656EA0703029D13D0304639460A22D1
:101DD000002303F0E5FC30323046394605F8012D8A
:101DE00000230A2203F0DCFC06460F4656EA0703EE
:101DF000EBD1029BAB424BD1302305F8013C059B54
:101E0000013D002B47D02D2305F8013C691EAAEBAC
:101E1000010A5FFA8AFAA24580F00A81019AE7B2C4
:101E2000A7EB0A06D20776B200F1078214AAC4F122
:101E300026041019019AD50640F1F580002B00F018
:101E4000C78214AA013013553021EDE004989BF8A5
:101E5000022005680346043304930BF1020BA7E448
:101E60009BF8022041F020010BF1020BA6E4194976
:101E7000019B5804019B0DF1730023F0100348BF30
:101E8000033103220193054603F083FE0DF1760A28
:101E9000059B002BB7D1019B03F00603022B00F03A
:101EA000CA81062B40F037812B23ADE7AFF30080CA
:101EB00000C84E676DC1AB430000000080842E4116
:101EC00094690100FFFFEF7F40420F000000E03FF8
:101ED0000000F03F40690100402B00F0D78200F283
:101EE000F180002B00F0CA81202B40F0738204990E
:101EF0000A780023CDE908230B46043304930E9B94
:101F00000A93019B03F4C053B3F5805F3FF486ADA1
:101F1000B3F5C05F00F06381B3F5006F00F03A8164
:101F20000DF166050023029302990598019A41F686
:101F30000803814203EA020341F20802C0F0128161
:101F4000934200F06E810591002741F6080293420A
:101F500040F00581DDE90823134300F00081019979
:101F6000BD4ABE4B11F4804F0CBF92469A460226E2
:101F70000E9B73B10A9B002B40F02D81019B03F057
:101F80000603022B00F04E82B54A062B04BF012641
:101F90009246059B33449C428CBFE31A0023059371
:101FA000019B13F00102019205D1DC0640F13B8157
:101FB000059B05921F44D9E900303EB15146324697
:101FC000984700287FF420AED9E90030029A102FFC
:101FD000904440F28482A34CBA461022214698478E
:101FE000AAF1100A00287FF40FAEBAF1100FD9E958
:101FF0000030F2D852469B49984700287FF404AE3F
:10200000D9E90030029A2946B044984700287FF465
:10201000FBAD019BB844002B40F0B480059B4344CA
:102020009846FFF76BBB20213246FCF77BF9BA4696
:1020300014ABCAF1260119445246D9E90030984739
:1020400000287FF4E1ADD044FFF758BB864F062649
:102050001CE501230593B8E40199844B844E11F4E7
:10206000804F0DF1630718BF1E463946002300E07C
:102070000146100940EA037002F00F0C1D090246E8
:102080002B4616F80C0001F8010C52EA030501F189
:10209000FF30EDD13D1A38D0023501467822302389
:1020A00001F8012C01F8023C8E1ED6E52146484677
:1020B00008F10108FFF7F8FA00287FF4A5ADA04465
:1020C000FFF71CBB602B00F0D980802B40F0828191
:1020D000049B073323F0070303F108020492D3E9BA
:1020E0000023CDE908230E9B0A930AE7602B00F03A
:1020F000D080802B40F075810499073121F00701D1
:10210000D1E900230831049178E43023023900F842
:10211000013C0325C2E72946059B78E602F07CFED8
:10212000122D2B46A8BF1223B0EE408AF0EE608A33
:102130000E93002D40F0FE8112A802F06DFE0022E9
:102140004C4B51EC100B03F001FB002840F04D818B
:102150000DF1760ACDF808A0DDE910012DE6002684
:10216000B24605E7059902989342A1EB00077FF478
:10217000ECAE002F08BF0127029B00263B44B2466D
:102180000593F5E605994846FFF78EFA00283FF4D7
:1021900045AF39E5DDE908670DF1660A56EA070340
:1021A00055463FF4BFAE304639460A22002303F0BD
:1021B000F7FA30323046394605F8012D00230A225D
:1021C00003F0EEFA06460F4656EA0703EBD1AAEBF8
:1021D00005030293A8E60126DFF89CA0D9E6019A40
:1021E000224B234E12F4804F18BF1E46DDE9082310
:1021F0000DF1660A52EA030155463FF493AE110908
:1022000002F00F0741EA037118090A460346F15D1F
:1022100005F8011D52EA0301F1D1AAEB050302936F
:1022200082E60127A8E705994846FFF73DFA00280E
:102230003FF4C1AEE8E42023E6E55246881B03F0F4
:10224000B3FCC6F1260014AB184432462021BA462E
:10225000FCF768F8ECE600BF7C69010078690100D2
:1022600088690100986801008C69010050690100CB
:10227000646901000000E03F80690100049A0E9942
:102280000A9113680432049219460022CDE908121B
:1022900037E604990A680B4604330493002A4FEA90
:1022A000E27373F10001BFF6AEAB524263EB43033E
:1022B000CDE9082301230A9323E6019DA44B05F4ED
:1022C00080450022DDE902010E9503F03FFA002867
:1022D00000F02181DDE902670023CDF820809A46D5
:1022E0000A94CDF83C909B489B499C4D122404E0F5
:1022F000DCB2012C67D075E9020102F06BFF3B46AE
:1023000032468046894603F02BFA631E0028EFD13F
:1023100042464B463046394603F0BCF8A244002200
:102320008B4B06460F465FFA8AFA03F00FFA002835
:10233000D9D1DDE90E39002BCDE9026751460CBF3A
:102340006522452243F230035FFA8AF60DF1760AE0
:10235000DDF820800A9C8DF87320ADF874300027DA
:10236000554699B1304639460A22002303F018FA3F
:1023700030323046394605F8012D00230A2203F099
:102380000FFA06460F4656EA0703EBD110A89DED5B
:10239000020B02F041FD06230E930DF1730302932D
:1023A000B0EE408AF0EE608A0E9A6D4B03EBC203EA
:1023B000D3E9002310461946CDE90A2302F00AFFAB
:1023C00002460B46C7E44FF00008DFF884919FE710
:1023D000302129E600230A9300220023CDE90823B7
:1023E0008FE500220023FFF70EBBDDE9120103F0A9
:1023F000EFF90E9A5A4B03EBC203D3E90023461CB4
:1024000041F10007BB420DF1760A08BFB242DDE997
:102410001001CDF808A07FF4D0ACC2E400235149EC
:10242000059325E5DFF840A10126B2E50499B1F94D
:1024300000200431D3170491FFF7E0BA0E9B029DF0
:102440001A46E81A3021FBF76DFF56EA070313D04E
:10245000304639460A22002303F0A2F930323046D2
:10246000394605F8012D00230A2203F099F90646A2
:102470000F4656EA0703EBD10E9B029ADB431A4440
:102480002E230292DDE91001137096E404990A8864
:102490002FE521464846FFF707F900287FF4B4AB43
:1024A0003146D9E900302A46984700287FF4ACAB82
:1024B000A844A044FFF722B921464846FFF7F4F8A4
:1024C00000287FF4A1AB3946D9E90030324698475D
:1024D00000287FF499ABB044A044FFF70FB9002F58
:1024E0003FF490ADBA4685E521464846FFF7DCF853
:1024F00000287FF489AB0122D9E9003014A9904467
:10250000984700287FF480ABA044FFF7F7B800237A
:102510005546029308E50E9B53B9652230238DF88A
:1025200073208DF874308DF875300DF1760A2DE733
:102530004522F3E70DF1760ACDF808A034E70E98AE
:10254000029B02463021181AFBF7ECFE94E700BF0D
:1025500000002440000064A7B3B6E00D3869010014
:10256000A8680100486901008469010030B410FACC
:1025700081F104468C424FF6FF7041F2210510D0E4
:1025800014F8013B80EA03239BB2082218044CBFD5
:1025900085EA43035B009BB2013A1846F6D18C42B0
:1025A000EED130BC704700BF38B5047864B1054641
:1025B00002E015F8014F3CB103F0B4FA2044407832
:1025C00010F00800F5D138BD012038BD70B50546C2
:1025D0002E4615F8014B03F0A5FA204443781B075B
:1025E000F6D4304670BD00BF38B5047805460CB946
:1025F000284638BD03F096FA044463781B07F7D4E5
:1026000015F8014F002CF5D1284638BDA0F1410343
:10261000052B9ABF3738C0B2FF2070472DE9F04133
:1026200022B190F80080B8F1000F03D100242046B9
:10263000BDE8F0811646851C4F1E00241CE0A0F169
:102640005703D9B215F8010CA0F13003DBB2092B06
:1026500005D9A0F16103052B25D85738C3B2013441
:10266000A4B243EA0113B44207F8013FDFD015F8E2
:10267000028BB8F1000FDAD003F054FA40444378EB
:102680001B07D4D415F8020CA0F13003D9B20929E4
:10269000D8D9A0F16103052BD1D9FFF7B7FF0F28D7
:1026A0000146CFD9C2E7FFF7B1FF0F280346D6D9BD
:1026B000BCE700BF08B1FFF777BF0120704700BF3C
:1026C00008B1FFF783BF704748B108B5FFF78CFF2B
:1026D00018B1BDE80840FFF779BF002008BD002011
:1026E000704700BF20B103788B4202D000207047B2
:1026F000704710B544780CB9012010BD03F012FAF0
:1027000020444078C0F3C00010BD00BFA8B170B530
:102710000D4681B104460846FFF746FF58B92678B2
:102720002A78234605E015F8012F13F8016F32B11E
:1027300016B1B242F7D0002070BD002070470EB92C
:10274000012070BD03F0EEF930444078C0F3C000C2
:1027500070BD00BF71B3F8B5044608460F46FFF7D9
:1027600023FF00BBFCB12046FFF730FF0646D0B187
:102770003046FFF719FFB0B932783B789A4214D14E
:1027800035463C4615F8012F14F8013F01309A42B6
:102790000146F7D00BB93D2A09D03046FFF794FF28
:1027A00006460028E4D10020F8BD0146F2E7481CA7
:1027B0003044F8BD0020704788B32DE9F843047811
:1027C000064614B90020BDE8F8830F4603F0AAF9C5
:1027D000204443781A07F5D43478302C03D116F806
:1027E000014F302CFBD0324606F10409002541F69A
:1027F00099184FF6FF71A4F13000C0B20928A4F176
:10280000610312D9052B20460BD803F08BF9204425
:1028100043781B07D6D53D800120BDE8F883002012
:102820007047FFF7F3FE092812D805EB85034545ED
:102830004FEA4303A1EB000C0AD89DB2654528443A
:1028400006DC914585B202D012F8014FD3E77479C6
:10285000002CE0D0D9E700BF08B1FFF7DFBE70471A
:102860004FF0FF30704700BF81B130B4441E084DB7
:102870002144104614F8013F4340DBB2A14255F811
:10288000233083EA1020F5D130BC704710467047E2
:10289000A8690100C043704781B110B400F1200461
:1028A000037833B10830A042FAD100205DF8044B20
:1028B0007047017042605DF8044B704708467047EE
:1028C00088420BD000F10803994207D000F11003B1
:1028D000994203D01830814200D0704700230B701A
:1028E000704700BF00F1080200F12801002012F833
:1028F000083C022B07D0032B07D0012B07D008324E
:102900008A42F4D17047012803D10320704702287E
:10291000FBD01846F3E700BF38B500F1080400F11A
:10292000280514F8083C1BB154F8043C03B198473F
:102930000834AC42F5D138BD0649074A074B9B1A0B
:1029400003DD043BC858D050FBDC00F0ADFDFBF7C5
:1029500077FC0000846F010010000020B00200200E
:10296000FEE7FEE7FEE7FEE7FEE7FEE7FEE7FEE73F
:10297000FEE7FEE72DE9F047002284B01646CDE9D8
:10298000022215465D4B5E4C5E48012204E0043392
:1029900083424FEA420211D019680129F7D1D4F8D5
:1029A00004131142F3D01D6019680091043383426F
:1029B00046EA020600994FEA4202EDD1524B1A68EC
:1029C000012A13D100221A601B6801934FF0A04224
:1029D000019BD2F820154D4B0291C2F82015D3F877
:1029E0002025039246F00046C3F8202516F0FF0F7D
:1029F0001AD0474F01250024A30003F180432E4243
:102A000003F5C0434FEA45050BD0D3F8100557F83E
:102A10002420D3F81015C0F30520C1F3014102B101
:102A200090470134082CE7D1002E02DB04B0BDE84A
:102A3000F087374DDFF8D48001274FF0A04695F995
:102A400054104B1C0DD0C9B204AB21F0C00003EBF5
:102A5000D00201F0070312F8082C07FA03F31A4218
:102A600010D1D6F820350293C6F82035D8F82025A5
:102A70000392C8F82025002BE1D1002ADFD104B051
:102A8000BDE8F0871F2887BF01F01F02C646024637
:102A90004FF0A04E0EEB820305EB000CD3F800A71D
:102AA000D3F800479CF924C024F44039C3F80097B8
:102AB000CAF30144022CD3F800A755F82C9014BF98
:102AC0004FF4003C4FF4403C07FA02F24CEA0A0C87
:102AD000C3F800C7CEF82025B9F1000FC1D089098D
:102AE000032901D1C847BCE7022C04D0032CB8D17C
:102AF0000229B6D1F6E70129B3D1F3E7006100401E
:102B000000600040206100407C61004000030050F4
:102B1000DC19002070B41D4D43791D4C45F823206D
:102B200003EB4303E35C6BBB8A7890F904305201FA
:102B3000002BD2B220DB03F1604303F5614383F83D
:102B4000002390F90430134E012503F01F025B09A6
:102B500005FA02F246F8232003680A88C3F808251C
:102B600043790879C97803EB4303E218E5545070C0
:102B70009170002070BC7047074D03F00F031D4497
:102B80002A76DEE7082070BC704700BF3C1A0020A0
:102B9000381A002000E100E0FCEC00E00368044A81
:102BA00001211960437903EB43030221D15470479B
:102BB000381A0020F0B44FF480350468234E8D405D
:102BC000C4F848530468C4F80853447904EB440437
:102BD000344482B0647822F07F42F4B1046801F595
:102BE000A87744F827200468D4F804C5ACEB0207A2
:102BF0006245427902EB4202164488BF07F1FF1793
:102C0000B27888BF07F57F4797421BDB6BB900207E
:102C1000C4F8445302B0F0BC7047046801F5A876CC
:102C200044F826200468002BF1D05031890089B285
:102C300000236350625803680192019AC3F8045359
:102C40000468E4E70D2002B0F0BC7047381A002099
:102C50002DE9F041284E294FDFF8A48084B00024EC
:102C60004FF48035D6F80423E3192A42E0B24FEA44
:102C700083034FF0000104F101040CD01A6852B133
:102C8000C6F84853C6F8085319601B680393D8F870
:102C90000030039A9847042C4FEA4505E2D1164BC1
:102CA000D3F80423D1070DD5D3F8002152B1002267
:102CB000C3F80021124AD3F800310293204613686A
:102CC000029A98470C4BD3F80423920710D5D3F8F7
:102CD00004216AB10022C3F80421D3F80421084B6F
:102CE0000192019A1B68052004B0BDE8F041184725
:102CF00004B0BDE8F08100BF001001405044001056
:102D00003C1A002010B5074C236882B03BB1064B3B
:102D10001B6898470023236023680193019B02B03E
:102D200010BD00BF00010140441A002070B5114BD6
:102D3000114A1C781160DCB9104E0278012119701B
:102D4000C6F80C25416805464FF47A720023C80383
:102D5000490C02F025FDC6F804052B7A084A5B01F0
:102D6000DBB24FF4803182F810331160204670BD21
:102D7000082070BD411A0020441A002000000140C4
:102D800000E100E0044B054901220220C3F80423BE
:102D90001A600870704700BF00000140411A00200F
:102DA00010B50446002000F0C7FC0D4B1A78072A26
:102DB00010D8501C0B4922701870D1F80805012357
:102DC00093400343C1F808350024002000F0BCFC08
:102DD000204610BD0424002000F0B6FC204610BDA3
:102DE000401A00200000014000F5C070024B034A69
:102DF00043F82020704700BF000001403546526E66
:102E0000104A1378DBB910B403780F494FF08044AF
:102E1000C3F34003C4F88035037803F00103C4F81A
:102E200078350B68DB0704D4C020012381F8000348
:102E30000B600123137000205DF8044B7047852060
:102E4000704700BF301E002000E100E010B54FF0D9
:102E5000804386B0D3F80443620705D5D3F8082130
:102E600003F58473002A4ED1A30603D52A4B1A68B2
:102E7000002A3FD1600603D5284B1A68002A2FD1BB
:102E8000210602D5264B1A680ABBE20502D5254B5E
:102E90001A6892B9A3050ED5234B1A685AB10022BD
:102EA0001A601A68214B0592059A1B68022006B029
:102EB000BDE81040184706B010BD00221A601B4A3A
:102EC0001B68049301201368049A9847E2E70020E6
:102ED0001860164A1B6803931368039A9847D4E74F
:102EE00000221A60124A1B68029301201368029A9A
:102EF0009847C5E7002018600D4A1B6801931368C6
:102F0000019A9847B6E700221A600A4A1B680093A4
:102F10001368009A9847A7E7140100401801004081
:102F20001C0100402001004024010040501A0020F4
:102F30004C1A0020481A002008B5FFF787FFBDE8AB
:102F4000084000F099B900BF0B7B0246032B1FD845
:102F5000DFE803F0262014028B68580326D48B6820
:102F60005B0315D44969D2F84C35994210D0002042
:102F70000621C2F80005C2F800157047D2F84C359A
:102F800008699842F3D14969D2F83C359942EED1AB
:102F9000012070470969D2F83C359942E7D1F7E73B
:102FA0000969D2F84C359942E1D1F1E7D2F84C35B4
:102FB00008699842DBD1D2E7F0B54FF040238DB0DD
:102FC000D3F824210AB30022C3F82421D3F8242102
:102FD0000592059AD3F80421BAB96A4C0222A16875
:102FE000C3F80813A260A268C3F80423D3F86021D1
:102FF000002A40F0A4804FF0402301221A625A6157
:10300000012384F82E300DB0F0BD4FF04025D5F8E7
:103010000431002B4ED000235A4CC5F80431266AE7
:10302000D5F8042104927006049A0BD494F82E204B
:1030300042B928462146FFF787FF266A80F0010043
:1030400084F82E0016F0040694F830701CD1DFF8D6
:1030500040C1BCE80F0007AD0FC54FF04023DCF8BE
:1030600000202A60C3F86061D3F860210292029ABE
:10307000C3F85C61D3F85C310393039B002F64D0E9
:1030800094F82E30002B60D14FF04022D2F8C43497
:10309000C2F8C434990734D501238DF818300FB91C
:1030A00084F82F70002E5ED1D4E9003106A898472D
:1030B0000DB0F0BD334CC5F84831D5F84821237B1D
:1030C0000192019A2BBB04F10C0EBEE80F000DF12A
:1030D0001C0CACE80F0094F83070236ADEF8002076
:1030E000CCF8002003F00406002FCDD1264A274B50
:1030F000C5F80072A760C5F808231022C3F8802124
:10310000C2E75A0717D4DB0732D503238DF81830EE
:10311000C5E74FF4007140F202221B4BC5F80012C4
:10312000A260C5F80833A368C5F804330123AB6077
:103130002B620DB0F0BD02238DF81830AFE7D3F845
:1031400000329D053FF55CAF55E74FF0402300226C
:103150000E490D48C3F80022A260C3F808031023EB
:10316000C1F8803190E794F82E30002B9CD19FE776
:1031700094F82E301BB104238DF818308FE78DF8AA
:1031800018308CE7541A002002029C0100E100E094
:10319000601A0020054A13792BB901211060537180
:1031A0001846117170478520704700BF881A0020AB
:1031B000084B1A68D20704D4C021012283F80013F7
:1031C0001A604FF08041044A0123C1F8183513708A
:1031D000704700BF00E100E0311E002010B4094B31
:1031E000094A0021196083B01B680193019C4FF0CC
:1031F000804102200123C1F80403136003B05DF88D
:10320000044B70470401004008000040074B0022B7
:103210001A6082B01B68019301994FF0804301222C
:10322000C3F804231A6002B0704700BF00010040D9
:1032300010B40E490E484FF0804201230024C2F81A
:10324000083383B00C600968019101990360D2F8DA
:103250000C3403F00113B3F1011FF8D0054B002229
:103260005A7103B05DF8044B704700BF0001004085
:1032700004000040881A002010B5154B1A6882B06F
:103280007AB10021134A19601B68507900934FF0FE
:1032900080410123009CC1F8083310B911685371B3
:1032A00088470D4B1A6882B100221A601B6801938F
:1032B0004FF080420221074B0198C2F808131B68A7
:1032C000012002B0BDE81040184702B010BD00BF99
:1032D00000010040881A00200401004050E8002F3F
:1032E00002EA010340E8003C9CF0000FF6D11046D2
:1032F000704700BF10B570B101280BD10D4C236988
:10330000A0703BB1D3E900230120226198472369D3
:10331000002BF7D110BD074CA36801226270002B6F
:10332000F8D0D3E900230020A2609847A368002BBF
:10333000F7D1EFE7901A002038B50C4C23789BB9F1
:103340000B486360A3602361E360FFF723FF05463A
:10335000FFF72EFF01232370064BD3F800340BB187
:103360000123A370284638BD8525F5E7901A002073
:10337000F53201000000014038B5154CA378054630
:1033800073B110B1436801209847002000F0D4F9D0
:10339000E3680133E3600020BDE8384000F0D4B9B1
:1033A00003F0FF0000F0C8F965B1226942B195420F
:1033B00008D0134601E09D4204D01B68002BFAD1CF
:1033C0002A602561E368002BE2D1FFF707FFDFE702
:1033D000901A00204FF08043D3F81804C0F3004047
:1033E000704700BF38B5154C6378054673B110B10E
:1033F000436800209847002000F09EF9636801337D
:1034000063600020BDE8384000F09EB903F0FF0083
:1034100000F092F965B1A26842B1954208D0134616
:1034200001E09D4204D01B68002BFAD12A60A56000
:103430006368002BE2D1FFF7E9FEDFE7901A002076
:1034400038B5084C002000F077F96368013B6360F1
:10345000656815B9FFF7ECFE65700020BDE83840DF
:1034600000F072B9901A00204FF08043D3F80C049A
:1034700000F00110A0F10110B0FA80F0400970478F
:1034800010B5074C23784BB9064B002808BF1846E7
:10349000FFF7B6FC08B90123237010BD852010BDCD
:1034A000A41A0020A86D010030B47E4B1B685C1C80
:1034B0002DD07D4A082B126800F0B080794B7A4AF3
:1034C0001B681268082B7ED0591C00F08A80764A4F
:1034D0001268082B78D0754AD2F8883043F470030C
:1034E000C2F88830BFF34F8FBFF36F8F4FF01023B8
:1034F000D3F80022002AC0F2A480D3F80432002BB3
:10350000C0F29F806A4B6B4A1A6030BC70476A4AAF
:103510006A4B12781B68082AC3F3031301D1032BEB
:103520007ED9664A644B12681B78C2F30312082BDB
:10353000C4D1032AC2D84FF08052614BD2F8041490
:10354000C3F82015D2F80814C3F82415D2F80C14C7
:10355000C3F82815D2F81014C3F82C15D2F8141497
:10356000C3F83015D2F81814C3F83415D2F81C1467
:10357000C3F84015D2F82014C3F84415D2F8241427
:10358000C3F84815D2F82814C3F84C15D2F82C14F7
:10359000C3F85015D2F83014C3F85415D2F83414C7
:1035A000C3F86015D2F83814C3F86415D2F83C1487
:1035B000C3F86815D2F84014C3F86C15D2F8442447
:1035C000C3F870257AE79AB1032A84D84FF0804374
:1035D000D3F80024D20744BF6FF00102C3F80024DF
:1035E00079E7364A344B12681B78C2F3031270E74E
:1035F000344C3549354D25603548364AFB24C1F8F1
:10360000184501681268344C21F00F0102F00F02D6
:103610000A434FF400710260216058E7032A0DD875
:10362000204B1B684FF080420021581CC2F80C113F
:10363000C2F81011C2F838153FF473AF1A4A126875
:1036400075E7264B0122C3F80425D3F80024002A8D
:10365000FBD04FF0102312222049C3F80022D1F8EA
:103660000034002BFBD04FF0102212211B4BC2F86C
:103670000412D3F80024002AFBD000221749C3F813
:103680000425D1F80034002BFBD0BFF34F8F07493E
:10369000134BCA6802F4E0621343CB60BFF34F8F51
:1036A00000BFFDE7300100103401001000ED00E024
:1036B000200100200090D003E00F00F0E80F00F0A0
:1036C00000C000408C56004000F0004048810300DC
:1036D000E40E0040580200104096024000E0014015
:1036E0000400FA0500B585B000230390194601AA2D
:1036F00044F20100CDE9013300F004F805B05DF8B3
:1037000004FB00BF72B6094B1B68DB0700D500BE87
:10371000BFF34F8F0649074BCA6802F4E0621343B8
:10372000CB60BFF34F8F00BFFDE700BFF0ED00E0BF
:1037300000ED00E00400FA0572B6024A1368013396
:1037400013607047A81A0020034A1368013B1360F6
:1037500003B962B6704700BFA81A002010B582B046
:1037600002A800230121064A0193064C00F8041D1B
:103770000549126823700B70904702B010BD00BF5E
:10378000D81B0020AC1A0020DC1B0020704700BFB3
:1037900000B583B00D4B0E4900228DF80420D3F8FC
:1037A0002025ADF80620D3F8C0040A4A096813683A
:1037B00000280CBF4FF480704FF00120034301A894
:1037C0001360884703B05DF804FB00BF007002403F
:1037D000D81B0020B41A002010B51C4B1B68082B06
:1037E00082B011D01A4B1B499A7B0020032A087023
:1037F00012D01C68BCB1184B01221A60BFF36F8F46
:10380000BFF34F8F02B010BD144B1B68032BE9D8D8
:10381000134B00221A60E5E76FF480311148FFF77F
:103820005DFD02B010BD6FF480310E48FFF756FD0C
:103830000D4B8DF8064006228DF807401B688DF869
:10384000042001A8984702B010BD00BF300100104D
:10385000B81A0020AD1A00204C700240340100104C
:103860001C7C0240B01A0020D81B002010B5224B4F
:10387000D3F80044C3F8004482B0BFF36F8FBFF3A6
:103880004F8FBFF36F8FBFF34F8FE1050BD5002331
:1038900002A802220193194B00F8042D184A1B6854
:1038A000012111709847A2050AD502A8002303221E
:1038B000019300F8042D114A114912680B709047CA
:1038C000630516D50E4B1A789AB10B4C0D480121A1
:1038D00000221A70C4F808150160BFF36F8FBFF3A0
:1038E0004F8F064B019202A8042100F8041D1B68AB
:1038F000984702B010BD00BF00700240D81B0020E6
:10390000AC1A002058700240F0B53C4A01261368FA
:1039100006FA01F52B431360030683B0044610D466
:10392000374B1B681D420AD1364B8DF80600062224
:103930001B688DF807608DF8042001A8984703B034
:10394000F0BD00F00F01304B33F8113003F180432C
:1039500003F51C331A68E2B100221A60BFF36F8FBF
:10396000BFF34F8F294B80281B682BD0082B05D124
:10397000274B1B68032B9CBF264B1A60264A274EF9
:103980000B01D0180027807B3770032812D0D35842
:1039900083B11B4B1B681D40D1D11A4B8DF80640DB
:1039A00006221B688DF807508DF8042001A898475F
:1039B00003B0F0BD012303FA01F1C9431048FFF73A
:1039C0008DFCE6E7082B11D0154B144993F89E2087
:1039D0000020032A087003D0D3F89030002BD8D1F0
:1039E0006FF001010648FFF779FCD2E7084B1B682E
:1039F000032B9CBF074B1A60E6E700BFB41A0020F8
:103A0000B01A0020D81B0020AC6D0100300100105E
:103A1000340100101C7C0240481B0020AD1A00201D
:103A2000B81A0020054B187810F0800F14BF002141
:103A3000102100F00F031944FFF766BFDC1B0020C4
:103A40002DE9F04FDFF82082DFF810B2D8F800300F
:103A5000DBF80040234087B079D013F0012479D0FF
:103A600094FAA4F4B4FA84F40F2C86BFA4F11007DE
:103A7000FFB244F080074FFA87FA07F00F05BAF15A
:103A8000000F4FEA0519C0F297806B4B072D03EB2F
:103A9000090600F2A48005F59473684A52F82330B1
:103AA0000193654B716853F80990B289019B04A892
:103AB000C8470121049B01FA04F4E1431BB1059BB3
:103AC000019A9A4260D8002849D05D4B1B68082BA8
