:0400000310002D0DAF
:020000040000FA
:10E00000008000200D2D0100352D0100372D01006D
:10E01000392D01003B2D01003D2D010000000000C5
:10E020000000000000000000000000003F2D010083
:10E03000412D010000000000432D0100452D01008D
:10E040003D330100472D010019F70000472D010065
:10E05000E13A010000000000492D0100000000002D
:10E06000472D0100472D0100472D0100472D0100DC
:10E07000472D0100472D0100472D0100472D0100CC
:10E08000D930010025300100472D0100472D010046
:10E09000472D0100472D0100472D0100472D0100AC
:10E0A000472D0100472D0100472D01000000000011
:10E0B0000000000000000000000000000000000060
:10E0C0000000000000000000000000000000000050
:10E0D0000000000000000000000000005955010091
:10E0E0000000000000000000000000000000000030
:10E0F0000000000000000000000000000000000020
:10E10000000000000000000000000000000000000F
:10E1100000000000000000000000000000000000FF
:10E1200000000000000000000000000000000000EF
:10E1300000000000000000000000000000000000DF
:10E1400000000000000000000000000000000000CF
:10E1500000000000000000000000000000000000BF
:10E1600000000000000000000000000000000000AF
:10E17000000000000000000000000000000000009F
:10E18000000000000000000000000000000000008F
:10E19000000000000000000000000000000000007F
:10E1A000000000000000000000000000000000006F
:10E1B000000000000000000000000000000000005F
:10E1C000000000000000000000000000000000004F
:10E1D000000000000000000000000000000000003F
:10E1E000000000000000000000000000000000002F
:10E1F000000000000000000000000000000000001F
:10E2000010B5054C237833B9044B13B10448AFF370
:10E2100000800123237010BDC00200200000000018
:10E2200034AF010008B5034B1BB103490348AFF3FA
:10E23000008008BD00000000C402002034AF0100CF
:10E24000154B002B08BF134B9D46A3F5803A0021C8
:10E250008B460F461348144A121A00F063F80F4B0E
:10E26000002B00D098470E4B002B00D09847002081
:10E27000002104000D000D48002802D00C48AFF327
:10E28000008000F02BF82000290000F063FB00F074
:10E2900011F800BF0000080000800020000000000E
:10E2A00000000000C0020020202600200000000026
:10E2B0000000000008B5074B044613B10021AFF37E
:10E2C0000080054B1868836A03B19847204600F028
:10E2D00031F800BF0000000044A3010070B50D4EEE
:10E2E0000D4CA41BA4100025A54209D10B4E0C4CCB
:10E2F0000CF01CF8A41BA4100025A54205D170BD8C
:10E3000056F8253098470135EEE756F825309847FE
:10E310000135F2E7B8020020B8020020B802002060
:10E32000BC02002002440346934200D1704703F828
:10E33000011BF9E7FEE700BF38B5064D2C69A04781
:10E34000421C05D06D69C0B2A847A047431CFAD152
:10E3500038BD00BF8CA5010010B5038804464BB141
:10E36000732B03D173232380012010BD002303806E
:10E37000032010BD03F01AFB104803F05FFB1049A7
:10E38000104803F05BFB02F0ADFB01460E4803F0C2
:10E3900055FB01F0FFFF01460C4803F04FFB02F074
:10E3A0004BFE0B4800F0BAFA0A4B0B491B680320DE
:10E3B0009847732323800120D7E700BF50A30100B3
:10E3C0006CA3010070A3010080A3010090A30100D1
:10E3D000DDE300008CA5010039E3000000F080B807
:10E3E00038B5074B1C69A047421C07D0054DC1B288
:10E3F000284603F023FBA047431CF8D138BD00BFDB
:10E4000030A50100A0A3010070B502F06BFB01462E
:10E410000B480C4C03F012FB01F0BCFF01460A480C
:10E4200003F00CFB094BE6685D6828460BF028FBFF
:10E4300001462846B04763690A20BDE87040184786
:10E4400080A3010030A5010090A30100A0000020DE
:10E4500070B5074B074C5D68E66828460BF010FB6B
:10E4600001462846B04763690A20BDE87040184756
:10E47000B000002030A5010010B5094B09495A68C9
:10E48000B2B0034668460BF0D3FA074B6846DC6827
:10E490000BF0F6FA01466846A04732B010BD00BF47
:10E4A00090000020A8A3010030A5010010B5094983
:10E4B00004F08CFB60B104460BF0E2FA064B074A0D
:10E4C00000F10801A4F10800BDE8104003F03ABAD9
:10E4D00010BD00BFA4A30100E8A4010030A5010005
:10E4E0000C4B0D491B6810B504460320984703F0F8
:10E4F0005DFA0A4803F078FA094803F075FA09480A
:10E5000003F072FA04B910BD0748BDE8104003F0EB
:10E510006BBA00BF30A50100E1E30000A0000020BD
:10E520009000002080000020B000002038B54FF49B
:10E53000FA744FF47A7000F0A9FD013CF9D1094B4F
:10E540001C69A0470130FCD1074C084B08482568DE
:10E5500023600AF03FF9022106480AF019F9256004
:10E5600038BD00BF30A5010074240020C000002089
:10E57000F0020020DC0200202DE9F043A749A84B5F
:10E58000A84EA94D804603C98FB06F46944687E8D0
:10E5900003000FCB0AAC07C4238096E80F0002AC3F
:10E5A00007C4237095E80F0006AC07C4B8F8002034
:10E5B0002370AAB1532A0CD19C4B9C451DD09C4B77
:10E5C0009C4531D053230120A8F800300FB0BDE89E
:10E5D000F0830023A8F8003003200FB0BDE8F083DB
:10E5E000944B95491B6803209847944B4FF48071D6
:10E5F00018608E480AF0CCF8E4E760460AF0DCF8D0
:10E600000028DFD08D4A8B4B10685B6898478C4898
:10E6100003F014FA8B4B1B680BB1002098470023C2
:10E62000A8F800300220D8E760460AF0C5F80028B4
:10E63000C8D0DFF82C9299F800303BB3012B6AD098
:10E64000022B00F08A80032B00F09D80042B00F049
:10E65000B080052BB6D14FF0A04403234FF0805576
:10E66000C4F870370120C4F80C5500F019FD734A46
:10E67000704BC4F808555B6810689847714B1B686D
:10E68000002BCCD0704A10789847C8E7694B6F4C84
:10E69000DE684FF0A0430C22C3F844270325C3F8DB
:10E6A0001827C3F80C27C3F874272A460AA920465E
:10E6B0000BF0BEF920460BF0E3F901462046B047C7
:10E6C0002A4602A920460BF0B3F920460BF0D8F9F0
:10E6D000013501462046B047072DE6D1032206A9A1
:10E6E0005A480BF0A5F959480BF0CAF901465748AA
:10E6F000B047394655480BF09BF954480BF0C0F928
:10E7000001465248B04701230421494889F80030A6
:10E710000AF03EF856E74FF0A043D3F810259703D0
:10E720000DD5D3F81025560609D4D3F810351D079A
:10E7300005D44FF0A043D3F810359C004ED5444883
:10E7400003F07CF9404A3A48002105231170012169
:10E7500089F800300AF01CF834E74FF0A043D3F8F2
:10E76000102590030DD4D3F81035590609D54FF074
:10E77000A043D3F81025120703D4D3F810359B001B
:10E7800070D53448DCE74FF0A043D3F810359F0331
:10E790000DD44FF0A043D3F81025560607D4D3F874
:10E7A0001025150703D5D3F810359C007AD52A48D3
:10E7B000C6E74FF0A043D3F8102590030CD4D3F84C
:10E7C0001025510608D4D3F81025120704D4D3F825
:10E7D00010359B0000F186802048B1E702A9032292
:10E7E0001A480BF025F9134B1848DC680BF048F970
:10E7F00001461648A04706A9042214480BF018F950
:10E8000012480BF03DF901461048A04702230121B0
:10E81000074889F8003009F0BBFFD3E698A401004F
:10E82000A0A40100B0A40100C0A40100F0020020D7
:10E83000DC02002030A501002DE5000004040020CA
:10E840000CA4010000030020CC00002004030020E1
:10E8500028A4010044A4010060A401007CA40100DC
:10E86000EC02002002A9042229480BF0E1F8294B10
:10E870002748DC680BF004F901462548A04706A9A3
:10E88000052223480BF0D4F821480BF0F9F8014693
:10E890001F48A047032301211F4889F8003009F0D1
:10E8A00077FF8FE602A9052219480BF0C1F8194B32
:10E8B0001748DC680BF0E4F801461548A04706A9A4
:10E8C000062213480BF0B4F811480BF0D9F80146B2
:10E8D0000F48A047042301210F4889F8003009F0B0
:10E8E00057FF6FE602A9062209480BF0A1F8094B71
:10E8F0000748DC680BF0C4F801460548A04705232B
:10E900000121054889F8003009F042FF5AE600BFAE
:10E910000403002030A50100DC02002038B50B4ABA
:10E920004FF0A04403234FF080551060C4F87037B7
:10E930000120C4F80C5500F0B3FBC4F808550021C1
:10E940000348BDE8384009F0FFBF00BF00030020C6
:10E95000C000002010B500F0B5FB01F057F802F040
:10E9600017FB094809F086FD0AF030F8044600F06C
:10E970006BFA002CF8D172B60AF07AF810B9BFF32E
:10E980004F8F30BF62B6EFE748A301002DE9F04199
:10E99000D0E902470546E41B4068944216463844D5
:10E9A0000DD8161B884622460AF0C5FF08EB040165
:10E9B000324668680AF0BFFFEE60BDE8F0813E4471
:10E9C0000AF0B9FFEE60BDE8F08100BF2DE9F84321
:10E9D0008846D0E90215064617464FF0000933690C
:10E9E00070689D4203F1FF3426BF03F1FF335B18CB
:10E9F000631BA1EB050428BF5B1BBC4228BF3C4640
:10EA00009C4228BF1C464146284422460AF093FFF8
:10EA1000B1682544A94208BF00253F1BA144A0447A
:10EA2000F560DCD14846BDE8F88300BF38B5114C2D
:10EA3000114BE3614FF4006310482362102500235B
:10EA40000F4AA3620F496066A56663622367E366A7
:10EA5000E01D01230325E3626367A2612266C4E926
:10EA600004550BF005F8204607490BF001F8202368
:10EA7000A37138BD88240020180400200804002059
:10EA8000D0A40100DCA40100E0A401002DE9F04FB6
:10EA9000DFF8A89099F8003083B080468B46924604
:10EAA000002B47D04FEA480707EB080609EBC606DC
:10EAB000356FF36E9D421FD85C1B544528BF5446EA
:10EAC0001CB9204603B0BDE8F08F002607EB080311
:10EAD00009EBC3032246596E584629440AF02BFF1E
:10EAE00025443444002CECD0474409EBC7072046AA
:10EAF0003D6703B0BDE8F08FD6E91914641B544597
:10EB000028BF544622462944584601930AF013FF71
:10EB1000B26E019B2544AA42AAEB040A14BF5B1BF8
:10EB20000025534528BF5346002BDBD0A34426467F
:10EB30001C46CBE7FFF77AFFB4E700BF882400202C
:10EB400010B50B46EFF311844FF0200181F31188CB
:10EB50001946FFF79BFF84F3118810BD70B5204D57
:10EB600000EB400305EBC3030130DC6A00EB40001F
:10EB7000012C05EBC0000E46154617D008D3022C19
:10EB800002D00024204670BDBDE87040FFF71EBFD4
:10EB90009A6A596A8A421DD9013A521A9542F1D8A5
:10EBA00031462A46FFF7F2FE2C46EBE79A6A5C6A8A
:10EBB000A2420AD9013A141BAC4228BF2C46314666
:10EBC0002246FFF7E3FE204670BD1B6A1344013B5B
:10EBD0001C1BF1E71B6A1344013B5A1ADEE700BF16
:10EBE0008824002030B50C4B1B7883B00D462BB920
:10EBF000CDE90002FFF71AFFDDE90002EFF311840F
:10EC00004FF0200181F311882946FFF7A7FF84F315
:10EC1000118803B030BD00BF88240020044B00EBF6
:10EC2000400003EBC003D86E1B6FC01A704700BFD3
:10EC3000882400200C4BDA6E1B6F9A4211D000B56D
:10EC400083B001220DF107010020FFF779FF0128B1
:10EC500004D19DF8070003B05DF804FB4FF0FF30CE
:10EC6000F9E74FF0FF307047882400202DE9F0418C
:10EC70000A460D46074601460020FFF7B3FF8542CE
:10EC8000044610D8164E4CB93368012B01DC013311
:10EC900033602046BDE8F081002CFAD000233360B9
:10ECA0002046BDE8F08100F005FA00F500600C4E4A
:10ECB0001FFA80F808E03368012BEDDC00F0FAF968
:10ECC000A0EB08000304DED52A1B39190020FFF74A
:10ECD00089FF0444A542EED8002CD5D0DEE700BF62
:10ECE0005C0C002009B908467047FFF7BFBF00BFA2
:10ECF00000B583B002AB012103F8010D1846FFF700
:10ED0000B5FFA0F10100B0FA80F0400903B05DF852
:10ED100004FB00BF38B5054600200C46FFF77EFF18
:10ED2000A04228BF204600B938BD2246294600200F
:10ED3000BDE83840FFF704BF10B50F4803F0BCFF33
:10ED400003280BD8DFE800F0020B020B0B4C2378F2
:10ED500023B10B4809F046FC0023237010BD07497E
:10ED60000B78002BFAD101240C70064A04481921B3
:10ED7000BDE8104009F00EBC3C0C0020180C00202F
:10ED80001C0C0020BDED000008B50146034803F04F
:10ED900081FFBDE80840FFF7CFBF00BF3C0C00205B
:10EDA00010B50A460146044803F062FF044608B164
:10EDB000FFF7C2FF204610BD3C0C002008B50B4BEE
:10EDC0001B788BB10A4BDA6E1B6F9A4204D109484B
:10EDD000BDE8084009F0EABB074803F087FF054893
:10EDE000BDE8084009F0E2BB08BD00BF180C0020D8
:10EDF000882400201C0C00203C0C0020704700BF21
:10EE000008B50949094804F07BF948B9084804F0F5
:10EE1000B1F908B105F020FA064B01221A7008BDBD
:10EE200005F01AFAF2E700BFFDED000000A50100B1
:10EE3000600C0020610C0020024B1B7803B9704766
:10EE400004F08AB9610C0020034B1B7803B97047AA
:10EE5000024B187804F0B2B9610C0020600C00205D
:10EE6000034B186818B90348034A104418607047E8
:10EE7000640C002038D20000B8DF0000F8B5294B40
:10EE8000294DD3F804452B68284A294F166829498B
:10EE9000DFF8B8C0E31A23F07F43C3EB431003EB62
:10EEA00080003044106010681668C6F308061660CB
:10EEB0003E68400A06443E600F681F4E38440860B2
:10EEC0000A680F68ACFB020292094FF47A7000FBEB
:10EED0001270086031681948194F0A44326002689C
:10EEE00018491344036002683B6803EB12133B604C
:10EEF000036803F00F030360224610320A40131B1D
:10EF000023F07F43012BF8D9012300210E482C6008
:10EF100004F03AF809F056FC00B9F8BDBDE8F84035
:10EF200009F030BC001001406C0C00207C0C00206B
:10EF3000780C0020840C0020800C0020740C002031
:10EF4000700C0020F0FFFF0028A50100D34D6210D7
:10EF500000B1704710B50446FFF790FF014B1C70DD
:10EF600010BD00BF880C002070B500230E4E0F4D61
:10EF70003370184604F0C8FFD5F804452834A4B20D
:10EF800004E0D5F804351B1B1B0405D505F03EF83D
:10EF90000028F6D001233370044BBDE87040D3F84D
:10EFA000043504F0DFBF00BF680C002000100140F2
:10EFB00070B52348234E244D244C2549254A00236F
:10EFC00082B033602B60236003600B60136004F039
:10EFD00043FF002830D104F095FE002004F05EFFCE
:10EFE00004F08AFF0028FBD01B4B1C4C1C4A93E802
:10EFF000030000230090ADF804101A4823706946FE
:10F0000003F072FF08B105F027F9174C1749184AA9
:10F01000144801232360D1F80415116012681032DE
:10F0200022F07F42002103F0AFFF0E4803F0A0FF63
:10F03000FFF79AFF02B070BD05F00EF9CBE700BFF5
:10F04000780C0020740C0020700C00207C0C002038
:10F05000840C0020800C00200CA50100880C0020EE
:10F0600051EF000028A501000810014000100140E8
:10F070006C0C0020014B1868704700BF700C00201A
:10F08000014B1868704700BF800C002020B1034B73
:10F09000800143F001031847704700BF20A501001D
:10F0A00080B220B1024B800143F001031847704742
:10F0B00020A50100024BD3F8040580B2704700BFC1
:10F0C0000010014070B5274B1C6814F0010421D1D9
:10F0D00001F078F800F052F801F0BCF8FFF768FF93
:10F0E000FFF78EFE09F058FC21461F4809F02CFC62
:10F0F00009F016FAFFF7A0FE204609F05BFD1B4B56
:10F100001D6821460220A84721462B460220BDE863
:10F1100070401847164B0122C3F80425D3F8002489
:10F12000002AFBD00F49124A0B6823F001030B6041
:10F13000D2F80034002BFBD000230D49C2F804356F
:10F14000D1F80034002BFBD0BFF34F8F09490A4B95
:10F15000CA6802F4E0621343CB60BFF34F8F00BF75
:10F16000FDE700BF0C12001040010020E8A40100E0
:10F1700000E0014000ED00E00400FA054FF080439C
:10F180004FF0FF31D3F80024C3F800140C490B787A
:10F190004AB943F0010362F3410362F3820362F36D
:10F1A000C3030B707047500803F0FE0360F3410384
:10F1B000900860F3820362F3C3030B70704700BFD3
:10F1C0008C0C0020BFF34F8F0549064BCA6802F430
:10F1D000E0621343CB60BFF34F8F00BFFDE700BF7A
:10F1E00000ED00E00400FA05084A094B11681B68AD
:10F1F000994208D01168136806480133C3F3080325
:10F20000405C136070474FF0FF307047900E002055
:10F21000940E0020900C00202DE9F843224B234D42
:10F220001F682B682C68BB420E461DD9C4F50074BC
:10F23000A1422AD92968DFF87890224649448046BD
:10F240000AF079FB00232B605FB1361BB74228BF61
:10F250003746494608EB04003A460AF06CFB2F603B
:10F260003C442046BDE8F8833C1BFAD02B6810498B
:10F27000B44228BF3446224619440AF05CFB2B688E
:10F2800023442B602046BDE8F8832B6808493246AA
:10F2900019440AF050FB2B683344C3F30803344687
:10F2A0002B602046BDE8F883940E0020900E0020CD
:10F2B000900C002010B5038804461BB1B42B05D177
:10F2C000822907D0B4232380012010BD00230380AE
:10F2D000032010BD014803F009FDF3E7A41200204C
:10F2E00030B40B490B4B4FF0A0420425C1F88050BD
:10F2F00000244FF0FF300221C3F80045C3F80C058D
:10F30000C3F81405C2F80817C2F8141730BC7047C8
:10F3100000E100E000200040134A1378FBB110B474
:10F32000124B134900244FF480701470C3F8080383
:10F330000A784AB10122DA6002E0D3F820211AB932
:10F34000D3F85821002AF8D00A4B1B7801220A7002
:10F350001BB9064BD3F8003513B910BC7047704782
:10F3600010BCFFF7BDBF00BFC51200200020004049
:10F37000A0120020C412002070B4124B124A4FF0A9
:10F38000A040042103240225C0F80847C0F808154E
:10F390000024C3F80C550525C0F814474FF0EB7650
:10F3A000C3F814550820C025C3F86C45C3F824657C
:10F3B00082F80253C2F880111160C3F8000570BCD6
:10F3C000704700BF0020004000E100E008B50D4B91
:10F3D0000D4918680D4A08600D4B01211170D3F8D2
:10F3E000003563B10A4B0B4800224FF48071027064
:10F3F000C3F82021C3F85821C3F8041308BDFFF750
:10F40000BBFFEFE79C12002098120020C5120020DD
:10F4100000200040A012002070B41D4A1D4913684E
:10F420000C680133C3F309039C422AD015681A4CB7
:10F4300060551A4D13602B7803F0FF00FBB9086884
:10F440001368984220D008681368984234BF136844
:10F450000B68134A38BF1B1A47F6FF7128BFC3F564
:10F46000806347F6FE760444B34288BF0B46012111
:10F47000C2F844450846C2F848352970916070BC0E
:10F480007047002070BC7047012070BC704700BFFF
:10F490009C12002098120020980E0020A01200203C
:10F4A000002000402DE9F047002962D03B4EDFF8F4
:10F4B000FC90D9F80070336835689F420C4680464E
:10F4C0001DD8C5F58065A94257D93068DFF8D0A0AE
:10F4D0002A46504441460AF02EFA0023012F336099
:10F4E0001FD9791E671B8F4228BF0F46504608EB75
:10F4F00005013A460AF01FFA37603D4411E07F1BD0
:10F50000012F48D9791E8C423368254828BF0C4604
:10F5100022464146184425460AF00DFA3368234432
:10F520003360204A13782BBBD9F800103368994216
:10F5300020D0D9F80040336819481B499C4236BF97
:10F540003368D9F800301B1B204428BFC3F5806303
:10F5500047F6FE7647F6FF74B34288BF2346012480
:10F56000C1F84405C1F8483514708C602846BDE8E0
:10F57000F0870D462846BDE8F087336808484146C5
:10F58000184422460AF0D7F933682344C3F3090329
:10F5900033602546C5E70025C3E700BF9C12002065
:10F5A000980E0020A0120020002000409812002099
:10F5B000124A134B10B51020002401211C70C2F810
:10F5C00008031346516002E0D3F810211AB9D3F8AA
:10F5D0004421002AF8D00B4B1B781BB9074BD3F8FA
:10F5E000003523B90848BDE8104009F0CFB9FFF74E
:10F5F00077FE0548BDE8104009F0C8B9002000407A
:10F60000C4120020C5120020D000002038B5124CD2
:10F6100012492068124A0860124B01211170D3F878
:10F620000035B3B10F4B104A104800211025C3F824
:10F630001011C3F84411C3F8045324682244012470
:10F64000C3F83425C3F838451C60BDE8384009F0DC
:10F650007BB9FFF791FEE5E7940E0020900E0020A5
:10F66000C412002000200040900C0020D000002098
:10F6700008B5194803F020FB032808D8DFE800F09C
:10F680001A021308FFF748FE144B1B78E3B108BDBC
:10F69000124B1B78E3B1124B1B78002BF7D1BDE85E
:10F6A0000840FFF793BE0D4B1B78002BF3D0FFF7FC
:10F6B0007FFFF0E7094B1B781BB9BDE80840FFF757
:10F6C0002BBEFFF775FFF8E7BDE80840FFF79EBFC8
:10F6D000FFF79CFFDFE700BFA4120020C412002048
:10F6E000C512002008B50146034803F0D3FABDE86F
:10F6F0000840FFF7BDBF00BFA412002010B50A46A6
:10F700000146044803F0B4FA044608B1FFF7B0FF1D
:10F71000204610BDA412002038B52A4BD3F8102182
:10F72000DAB1294A29480021C3F810111368284981
:10F7300001330968C3F30803994218BF13601168C5
:10F74000244B204A0B440121C2F83435116009F0E2
:10F75000B9F9214B186809F0B5F91A4BD3F82021F3
:10F7600062B31E4A1E490020C3F82001D3F84C356D
:10F7700014682344C3F30903136014680B689C42A4
:10F780001DD010680B68174C984234BF0B68136883
:10F7900015490C4A38BF1B1A014428BFC3F58063C2
:10F7A00047F6FF7047F6FE75AB4288BF034601205F
:10F7B000C2F84415C2F848352070906038BD094B36
:10F7C000187038BD00200040940E0020D0000020AA
:10F7D000900E0020900C0020C812002098120020EB
:10F7E0009C120020A0120020980E002010B5038863
:10F7F00004462BB140F23512934209D182290BD035
:10F800000D4B1B7823B140F235132380012010BD2E
:10F8100000232380032010BD084B1B68002BEFD072
:10F82000074A1178032902D110789847E8E7117840
:10F830000229E5D1F8E700BFD0120020CC12002049
:10F84000D2120020F8B5634D634E2B681F2B8BBF7F
:10F8500003F01F021A4660484FF0A04002F5E07224
:10F86000042140F82210142404E0FFF70FFC013CAF
:10F870002B680FD01F2B8ABF32464FF0A04203F0F7
:10F880001F01D2F8102598BF1946CA40D7074FF07C
:10F890000A00EAD51F2B29D94F4CD4F8100503F0E4
:10F8A0001F07F84010F0010000F084806A681F2AEA
:10F8B0002BD84FF0A04002F5E071042640F82160FB
:10F8C000D0F8106526FA02F2D2072BD502460120A5
:10F8D00002241F2B42F8214078D903F01F033E4A2F
:10F8E00003F5E073022142F82310F8BD4FF0A04267
:10F8F000D2F81045DC4014F001045DD1204603F538
:10F90000E073022142F82310F8BD02F01F0101F557
:10F91000E070314A042642F82060D2F81025CA402F
:10F92000D0074CD407F5E072012606FA07F740F23B
:10F930000161C4F8087544F82210274F102401E033
:10F94000013C35D01F2B8ABF3A464FF0A04203F04E
:10F950001F0306FA03F3C2F80C350520FFF796FBE8
:10F960002B681F2B8ABF3A464FF0A04203F01F03BB
:10F9700006FA03F3C2F808350420FFF787FB6A682C
:10F980001F2A8ABF3B464FF0A04302F01F00D3F866
:10F9900010152B6898BF1046C140C907D0D501206B
:10F9A0001F2A0ED902F01F0101F5E0710A4A8FE704
:10F9B0002046F5E73B4692E714461F4676E70120CE
:10F9C000F2E702F5E0714FF0A04281E74FF0A0426C
:10F9D00095E700BFE800002000030050064B1A78AE
:10F9E00042B102780548002A0CBF032202221A7095
:10F9F00009F068B8704700BFD2120020DC00002078
:10FA0000014B1878704700BFD212002008B5144986
:10FA10000A684B681F2A88BF02F01F0202F5E072D5
:10FA20008CBF10484FF0A0401F2B88BF03F01F036E
:10FA30004FF0040140F8221003F5E0738CBF094A2F
:10FA40004FF0A042042142F823101420FFF71EFBC0
:10FA5000FFF7F8FE044A054B107000221A7008BD2B
:10FA6000E800002000030050D1120020D212002034
:10FA70002DE9F0411A4B1B7823B1DFF8808098F80C
:10FA800000701FB100242046BDE8F0810E460546F7
:10FA9000FFF7D8FE04460028F4D0012D1149124A80
:10FAA00012480CBF4FF0C8654FF0CC753B468D60D7
:10FAB00003F084FC0028E5D10D4B0E4A1E600123A3
:10FAC000107088F800303EB10B4809F009F818B9F9
:10FAD0000146094808F038FF044803F043FDD2E727
:10FAE000D1120020E8000020DDF9000048A5010047
:10FAF000CC120020D2120020DC000020D012002006
:10FB000038B5104B1B7813B10F4C237803B938BDAF
:10FB10000E480F4D03F036FD0C4803F0C1FC0D4AB2
:10FB2000002328461370237008F0DAFF0028EED077
:10FB3000094B1B68AB42EAD02846BDE8384008F0C4
:10FB400025BF00BFD1120020D012002048A501001F
:10FB5000DC000020D21200207424002038B50446B6
:10FB6000FFF788FA0B4D044407E0BFF34F8F30BF17
:10FB7000FFF780FA201A002809DB2B78012BF4D03C
:10FB80002878A0F10300B0FA80F0400938BD0020C9
:10FB900038BD00BFD212002070B5154C247886B055
:10FBA000FCB1144C2478E4B1134C2578012D1BD002
:10FBB0008DF805000A980292CDE90301142201A9EB
:10FBC000012602250D48059326708DF8045009F092
:10FBD000B2FE002209490A4803F0F2FCB0FA80F4B0
:10FBE0006409204606B070BD0024204606B070BDF2
:10FBF000D1120020D0120020D2120020D4120020F6
:10FC000048A5010030B50F4C247883B09CB10E4C50
:10FC1000247884B10D4D2C78012C0FD01C46009413
:10FC2000134601240A46014609482C7003F060FE81
:10FC3000B0FA80F46409204603B030BD00242046A9
:10FC400003B030BDD1120020D0120020D21200200B
:10FC500048A5010010B50E4B84B01C788DF8070044
:10FC600014B9204604B010BD04AA012342F8043D93
:10FC70000DF10701074808F02FFB28B9039B1BB1C2
:10FC8000054808F01FFFECE70024204604B010BD33
:10FC90007C13002080A50100FC000020032906D869
:10FCA000DFE801F002140E080B4B01221A700B481A
:10FCB00008F008BF0A4B094801221A7008F002BF79
:10FCC000084B064801221A7008F0FCBE064B034898
:10FCD00001221A7008F0F6BE7A130020FC00002002
:10FCE00078130020791300207B1300200F4B1B7822
:10FCF000C3B110B582B002AA0D4C0E48012342F8E0
:10FD0000043D2146002308F025FB40B9019931B19B
:10FD1000084808F09BFB2368187802B010BD4FF02C
:10FD2000FF30FAE74FF0FF30704700BF7C13002030
:10FD30007413002074A501000E4B1B78BBB100B5F5
:10FD400083B00B460193014653B101AA0A4808F05B
:10FD5000C3FA08B9019B1BB9002003B05DF804FB8E
:10FD6000064808F0AFFE019803B05DF804FB1846A2
:10FD7000704700BF7C13002080A50100FC0000201C
:10FD80000C4B1B783BB100B583B0019129B90846F3
:10FD900003B05DF804FB18467047014601AA064807
:10FDA00008F016FB10B901990029F0D1002003B02A
:10FDB0005DF804FB7C13002074A5010010B508F069
:10FDC00087F9012801D906F01DF8094C204608F0F2
:10FDD00087FE30B1074B1B68A34202D0204608F0D3
:10FDE000D5FD002000F014FABDE8104005F0F4BF86
:10FDF000FC0000207424002038B5184C23783BB157
:10FE0000174808F06DFEE8B1BDE8384005F0E2BFE4
:10FE100003F0FF0508F062F9284605F047FFC8B96E
:10FE2000104B114A1846136005F0FAFF08B104F0B0
:10FE300013FA0E4A0A4802232370137008F050FE8A
:10FE40000028E1D10146064808F07EFDBDE83840B3
:10FE500005F0C0BF04F000FAE2E700BF9C170020E5
:10FE6000FC00002050A50100701300209D17002009
:10FE700008B50B4802F020FF50B1032800D908BD97
:10FE800005F096F80028FAD1BDE80840FFF7B4BFA6
:10FE900005F08EF80028F2D0BDE80840FFF78EBFCD
:10FEA000BC1B002008B50146034802F0F3FEBDE884
:10FEB0000840FFF7DDBF00BFBC1B002010B50A469D
:10FEC0000146044802F0D4FE044608B1FFF7D0FF13
:10FED000204610BDBC1B002070B582B00D4C02A99D
:10FEE0000023224641F8043D064601250A482560C4
:10FEF00008F090F922682AB13046019907F0C8FC51
:10FF000002B070BD054B06481D7008F0DBFD02B065
:10FF100070BD00BF9817002074A501007A1300205F
:10FF2000FC0000202DE9F04F0446008885B088B120
:10FF3000B0F5E37F08D182290FD04FF4E37301209D
:10FF4000238005B0BDE8F08F00230320238005B097
:10FF5000BDE8F08F00F042F9EFE7744D744E2A7857
:10FF600033789A421BD02B78013B042B17D8DFE85B
:10FF700003F0520342164E003378022B00F0CD807E
:10FF800005F020F808B105F03DFF2B78694ADBB297
:10FF900033700021042311602B7008F099F8664B30
:10FFA0001A78002A40F08880644E654B1A782AB18E
:10FFB00064486049002202701A700A60624F3B7800
:10FFC000002B31D1614B31681A783ABB0029B4D18A
:10FFD00004A900254FF4806741F8045D2B46574A79
:10FFE0005B48376008F0B6F90746002878D03560DE
:10FFF00004F032F9A1E704F0DBFF40B105F0EEFEBA
:020000040001F9
:1000000008F066F82B780522DBB233702A702B7863
:10001000DBB23370C3E704F0CBFFC0E700224C48EB
:100020001A7008F013FAD3E7424D4A4B2968D3F807
:1000300000904FF0000887F80080002967D14846FB
:1000400007F022FC1FFA80FCBCF1000F58D00DF124
:10005000100A002301944AF8043DDFF8D8B0DFF815
:10006000088164460EE0039907F012FC29684046B7
:1000700008F018F9002348462B6007F005FC84B20D
:10008000002C3CD000235A46514640462C6008F0D4
:10009000C1F82B6830481A46002BE4D101232F48C1
:1000A000019C3B7008F00EFD2D4B186808F00AFD0E
:1000B0002C4802F01BFE85E7224A25481F4E0121ED
:1000C000002511701D7008F097F8274808F094F883
:1000D000204A184B10681D603560FFF7FDFE64E78D
:1000E0003268002A3FF429AF03991B4807F0A8FBA8
:1000F00000283FF422AF376004F0AEF81DE7019C02
:100100002B68002BD0D14846FFF7E6FECCE7164817
:1001100008F0C8F8C5F8008091E704F049FF00280E
:100120003FF43BAF05F058FE37E700BF9C170020B7
:100130009D1700209817002079130020B81B00207D
:10014000781300207C1300207A1300207B130020FA
:1001500080A501007013002050A50100FC000020C4
:10016000DC1B0020BC1B002074A501000D4B1A787D
:100170006AB11A780C49D2B201280A7008D00CD39F
:10018000022801D103221A70084808F09BBC70476E
:10019000022206481A7008F095BC012203481A7022
:1001A00008F090BC9C1700209D170020FC00002048
:1001B00010B50446FFF7DAFF2046BDE8104000F016
:1001C00037B800BF08B5002003F02CFF28B1852800
:1001D00003D0BDE8084004F03FB808BD38B50A4C6C
:1001E0002378054623B10120A8401843207038BD6C
:1001F000064803F02BFF08B104F02EF82378012005
:10020000A8401843207038BDE01B0020A4A50100C1
:10021000064A137833B1012101FA00F023EA000302
:10022000137003B1704703F01FBF00BFE01B002035
:10023000012801D800F03ABF704700BF0120FFF746
:10024000CDBF00BF4FF08043D3F8380400F0010069
:10025000704700BF0E490B78CBB970B40D4B0E4DF3
:100260000E4C0F480F4A104E2B4423441B1A9B1A66
:1002700003F6FF700D4A0E4D0E4C000B9B1A3060BA
:10028000120B01202B602260087070BC7047704711
:10029000E81B002040AF0100C002002088AF010031
:1002A00040AF0100100000200C01002000E0000021
:1002B000E41B0020080100204FF08042D2F81C35DA
:1002C00023F007031843C2F81C05704730B50A4BEA
:1002D0000A4C83B0054600910344214601226A205E
:1002E0002570FFF759FC08B903B030BD0820FFF7AF
:1002F00035FC03B030BD00BF001C0020EC1B00200B
:1003000070B50B4C0B490546204600262A4600F8DE
:10031000016B09F010FB33466A1C21466A20FFF787
:1003200071FC00B970BD0820FFF718FC70BD00BF5C
:10033000EC1B0020001C002010B5124B00242146AD
:1003400001201C70FFF794FB00B910BD2046072167
:10035000FFF7BCFF18B9BDE81040FFF7D1BB0A4B4F
:100360000A4A1A604AF60201E0229A71998007202F
:10037000FFF7C6FF064B01221A70BDE81040FFF7D9
:10038000BFBB00BFFC1B0020001C0020406A8FFA8E
:10039000F41B0020044B054A1878054B002814BFB5
:1003A00010461846704700BFF41B0020A8A50100A6
:1003B000B0A50100704700BF014B1878704700BF1F
:1003C000FC1B0020154B1B780BB90020704710B5A3
:1003D000002182B004460120FFF74AFBC0B1104B58
:1003E000104A1A604AF60201E022012C99809A71A3
:1003F00011D0022C08BF00240720FFF781FF08B1AD
:10040000094B1C700190FFF77BFB019802B010BDF7
:10041000002002B010BD68225A70EDE7F41B0020E6
:10042000001C0020406A8FFAFC1B00202DE9F041DF
:100430002E4B1B781BB900273846BDE8F081002100
:100440000120FFF715FB0028F5D0DFF8AC80284E1F
:100450000023C8F800301024012501210020FFF7F7
:1004600035FF074620B3337805FA03F2C3F30113CF
:10047000032B02F00F0214D1D8F8003043F001032F
:10048000134218D11343013CC8F80030E5D1DB0614
:100490000AD5184C23788BB1FFF732FB3846BDE8FC
:1004A000F0810023C8F80030124B00221A70F3E7E5
:1004B000D8F80030EBE7C8F80030E8E70121052064
:1004C000FFF704FF0028E7D0094B5B7903F007032F
:1004D000013B052BE0D8DFE803F006060303030326
:1004E00002232370D8E701232370D5E7F41B0020F3
:1004F000001C0020071C0020F81B0020094B187866
:1005000070B1094B1B6853B9084B1878C0F3011040
:10051000012805D002280CBF0220002070470320CC
:10052000704700BFF41B0020F81B0020001C0020B7
:1005300008B5094B1B7803B908BD00210120FFF75E
:1005400097FA0028F8D007210020FFF7BFFEBDE88A
:100550000840FFF7D5BA00BFF41B0020074B1B680B
:1005600053B10138042807D8DFE800F00303030380
:100570000300034A12881A80704700BF601C0020E5
:10058000081C002070B5084C2346154603F8010BE3
:10059000184609F0D0F96A1C214600235520BDE811
:1005A0007040FFF72FBB00BF301C002010B510209B
:1005B000FFF7D4FA044610B14220FEF771FD204641
:1005C00010BD00BF084B1A786AB1084900200A78AC
:1005D0001870074B022A1B689CBF01320A7013B1C6
:1005E0006FF0010018477047841C0020581C002041
:1005F0005C1C002070B5164C237803B970BD05460D
:10060000FFF77EFA134807F0EDFF032D10D0124AD2
:100610001378022B9CBF01331370104B1B68002111
:100620002170002BEAD04FF0FF30BDE87040184732
:100630000B4A094B1078002119702170FFF78EFFCB
:10064000064B1B68002BD9D00846BDE87040184700
:10065000841C0020641C0020581C00205C1C00200E
:100660005A1C002070B5284B284E294D307082B09E
:1006700004462A601960BAB126490020FFF7F8F94C
:1006800070B1013C244B2549E4B255201A5D0A7033
:1006900002220092224B0122FFF77EFA0546E8B9BA
:1006A0000025284602B070BD11461046FFF7E0F95C
:1006B0000028F5D0631EDBB2174A1849D25C0A70D5
:1006C00002220092164B01225520FFF765FA88B9E5
:1006D0000025FFF715FA284602B070BD1149124AED
:1006E000124801240C700023102107F053FF284604
:1006F00002B070BD1020FFF731FA05460028E7D0A0
:100700002046FFF72BFFE4E7601C00205A1C002066
:100710005C1C0020F5050100B8A50100301C00207C
:10072000081C0020841C0020C5050100641C00205A
:100730001C4B1B780BB90020704710B584B00446E1
:10074000FFF75EF9012824D0174B1A78CAB90021A7
:100750000846FFF78DF988B1002C04A90CBF1223BD
:10076000112321F8023D02220020FFF70BFFA0B960
:100770000190FFF7C5F9019804B010BD002004B046
:1007800010BD002209481A7007F02CFFFFF7B8F9D6
:10079000DDE72020FFF7E2F9D6E71020FFF7DEF9CA
:1007A000E6E700BF591C0020841C0020641C0020C8
:1007B00070B584B004A90024054621F8024D2046F6
:1007C0000222FFF7DFFE10B9002004B070BDFFF772
:1007D000EDFE0028F8D00949094E0C700222009263
:1007E000334601225520FFF7D7F90028ECD0FFF758
:1007F000DDFE0028E8D033882B80E6E7301C00209F
:10080000081C00202DE9F04FAD4AAE4CAE4D002340
:100810008BB013701F46032600210846FFF728F906
:1008200020B9013EF8D10BB0BDE8F08F0AA94FF016
:10083000010821F8108D02220020FFF7A3FE18B155
:100840001020FFF78BF910B9FFF75AF9E9E74FF0DD
:1008500002094246CDF800909B4B9A4927705520DB
:10086000FFF79AF90028EFD01020FFF777F940F250
:1008700021430028E8D02A889A42E5D10AAE26F81A
:100880000E7D3046FFF794FF68B1BDF81A30990429
:1008900022D50AA94FF4004321F80A3D4A46002018
:1008A000FFF770FE28B9FFF72BF9884B01221A7069
:1008B000B9E7FFF77BFE0028F5D00AA94FF4004303
:1008C00021F80C3D02220020FFF75CFE0028EAD050
:1008D000FFF76CFE0028E6D03046FFF769FF0028DE
:1008E000E1D0BDF81A3013F40050DCD10AA913236B
:1008F00021F8083D0222FFF745FE70B90DF12408EA
:100900002023414602220020ADF82430FFF73AFEB2
:100910000028C8D0FFF74AFEC5E7FFF747FE0028CA
:10092000ECD0DFF8A491DFF89C8105264FF4FA772C
:100930004FF47A70FEF7B4FB013FF9D10223009324
:100940004FF0060C4B4601224146552084F800C06A
:10095000FFF722F910B9013EE8D1CFE7FFF726FEF5
:100960000028F8D02B88DA06F5D5594EDFF85891D3
:1009700003970DF1240802E0B668002E6CD077785A
:10098000039A3378D6F804A096F802B08DF81620B2
:1009900078098DF8250001220DF1160161208DF8EE
:1009A0002430FFF7EFFD0028E6D0FFF7FFFD002819
:1009B000E2D0022241463E20FFF7E4FD0028DBD0D2
:1009C000FFF7F4FD0028D7D0C820FEF769FB2023ED
:1009D00000934FF0400C4B4601223A4984F800C086
:1009E0005520FFF7D9F80028C6D0FFF7DFFD002813
:1009F000C2D007F01F072F4438465A46514608F028
:100A00008BFF0028B8D05A463846514608F093FF6D
:100A1000FF270022AB5C0132FF1A202AFFB2F9D176
:100A200049464020FFF7AEFD0028A5D0FFF7BEFDE8
:100A30000028A1D00AA9012201F8117D6020FFF74A
:100A4000A1FD002898D0FFF7B1FD002894D042F214
:100A50001070FEF725FB8FE70AA9422321F8063D17
:100A600030460222FFF78EFD00283FF449AFFFF722
:100A70009DFD00283FF444AFDFF84CA0DFF8449020
:100A800005264FF4FA774FF47A70FEF709FB013F21
:100A9000F9D10223009306275346012249465520E7
:100AA0002770FFF779F810B9013EEAD128E7FFF780
:100AB0007DFD0028F8D02B88DB06F5D420E700BFA9
:100AC000581C0020301C0020081C0020591C00204D
:100AD000C8A50100014B1878704700BF591C0020C1
:100AE000704700BF044B054A1878054B002814BF17
:100AF00010461846704700BF591C0020C0A50100D1
:100B0000B0A50100064B1B7813B1064B1B780BB147
:100B1000002070470A4601460120FFF7A3BD00BF31
:100B2000591C0020841C0020064B1B7813B1064B77
:100B30001B780BB1002070470A4601460220FFF7E0
:100B400091BD00BF591C0020841C0020064B1B785F
:100B500013B1064B1B780BB1002070470A460146C3
:100B60000320FFF77FBD00BF591C0020841C00201C
:100B7000064B1B7813B1064B1B780BB10020704756
:100B80000A4601460420FFF76DBD00BF591C002036
:100B9000841C0020064B1B7813B1064B1B780BB14D
:100BA000002070470A4601460520FFF75BBD00BFE5
:100BB000591C0020841C00200020FFF7B9BD00BF95
:100BC0002DE9F04F964EDFF8908283B0FFF72EFCB0
:100BD000357898F80090FFF791FC83B20193FFF706
:100BE00031FB002840F0918004460746DFF86CA2F4
:100BF0009AF80030002B7AD18A4B1B78022B53D9FC
:100C00000023894889498A4ADFF854B203801D4687
:100C10000B801380ABF80030FFF7CEFB2846854FE2
:100C2000FFF7D0FB3B78A342337816BF3C7000241B
:100C30001024AB4209D001238AF800303570FEF74A
:100C400019FA7D4B44F0010418607C4BBBF800207E
:100C5000188898F80010904244D049451A8044F012
:100C6000020403D088F8009044F00404744B224638
:100C70001978002007F006FFFFF75AFC3A78714C0C
:100C80007149724B256872482160002A08BF4FF4F1
:100C90002061019A1A8018BF4FF4007107F078FDA7
:100CA000256003B0BDE8F08F53B1DFF8B4B1FFF7B2
:100CB00083FB042DB3D8DFE805F0B0B03B312F0043
:100CC000594A3378128840F647594A458CBF4FF04D
:100CD00000094FF00109052BE7D8DFE803F0373FA3
:100CE000485F622B4945BDD1002CC5D0BEE7524BB1
:100CF000D3F800B0FEF7BEF9ABEB000010F5806F43
:100D000044BF00238AF8003076E7FFF755FB841EC6
:100D100018BF0124274669E7022080E7434FB7F94F
:100D2000000031284FF00305D4BF0020012076E7F2
:100D3000012074E7002F4BD0019B032B55D0FFF708
:100D40003BFB01250020DFF818B168E79AF8007036
:100D5000002FAAD1B2F5166FF1D2A6E7002FA4D0CA
:100D6000FFF72AFB02250120DFF8F4B057E7002F38
:100D7000E5D0DFF8ECB0BBF80030642B31D0019A3D
:100D80009AF80030032A38D0002B90D1274FB7F9BA
:100D90000030312B8BDCFFF70FFBC0E7002FCED0EC
:100DA00083E7019B032BCAD19AF80030002B7FF414
:100DB0007CAF264B1B88032B7FF477AFFEF760F9DF
:100DC000244BDFF89CB018600525FFF7F5FA26E7FD
:100DD000FFF7F2FA0125FFF7EFFADFF884B03846A3
:100DE0001DE7FFF7E9FA114F99E7FEF749F9194BAB
:100DF0001B68C31A3B2BA2D857E7002B7FF457AFD1
:100E0000124B1B88032B7FF452AFFEF739F9114BBD
:100E100005251860FFF7D0FA01E70020FFE600BFC4
:100E2000941C0020A41C0020901C00208A1C002080
:100E30008E1C00209E1C0020981C0020881C002076
:100E4000921C002074240020100100209C1C002013
:100E5000AC1C0020A01C00208C1C0020951C002035
:100E6000861C002010B5184B184C1B7800222270ED
:100E7000042B04D8DFE803F00F21151B0700BDE8A1
:100E80001040FFF79DBE12491248FFF783FE207005
:100E90000028F4D010BD0E490F48FFF733FE207034
:100EA000F6E70B490D48FFF751FE2070F0E70849BF
:100EB0000B48FFF75DFE2070EAE705490948FFF798
:100EC00033FE2070E4E700BFA81C0020A91C00200E
:100ED0005D0F01008E1C0020901C0020A61C00202D
:100EE000861C00208A1C002070B5038804465BB174
:100EF000B3F5B47F0DD182291DD088290DD0832967
:100F000002D1124807F066FC4FF4B473238001202D
:100F100070BD00230380032070BD0C4B9A42F3D1B7
:100F2000104607F049FC0028EED0094B00221A7049
:100F3000FFF798FFE8E7074D074B2E6803482B6043
:100F40001A2107F025FC2E60DEE700BFAC1C002054
:100F5000A81C00207424002010010020094B00224E
:100F60001A7038B1084A1378022B9CBF01331370F2
:100F7000FFF726BE054A0449137808700133137041
:100F8000FFF770BFA91C0020A41C0020A81C002093
:100F90001E481F491F4AF8B500231F4C03700B80E1
:100FA00013801E491E4A1F481F4F204E204D23808C
:100FB00001240B8014703B7033702B800380FEF78C
:100FC00059F81C4B1860FFF7B7F9FFF71BFCFFF748
:100FD00081FD00B1F8BD2046FFF7F4F90425FFF7C5
:100FE00079FD68B9FDF730FF4FF4FA744FF47A7069
:100FF000FEF74CF8013CF9D1FFF704FC013DEED1BE
:101000000020BDE8F840FFF7DDB900BF941C0020C8
:10101000901C00208A1C0020861C0020A61C00209A
:10102000951C00208E1C0020931C00209E1C00207C
:10103000881C0020981C002038B5174C237803B179
:1010400038BDFFF747FD00B3144D15492B7801203B
:10105000022208702270DBB1124807F041FD18B976
:101060000146104807F070FC0E4807F02BFDFFF713
:10107000E5F8FFF7E7F80C4B1870FFF79BF9FFF75F
:101080002FFDBDE83840FFF797BD0123237038BD21
:1010900007F052FC2870DFE7931C0020921C002010
:1010A000941C0020100100209E1C0020014807F025
:1010B00009BD00BF10010020F0B4334B1A78FF2A9D
:1010C00008D1324B1A682AB1314B1B689A4294BF3F
:1010D000022201222F490B681D46084605F8122BF3
:1010E00092B32A4E32687AB329480D60046870685A
:1010F0005C74C4F30725D6E902171D74C4F30745D1
:10110000C4F307649C73C0F3072458711C71C0F3C7
:101110000744C0F30760C1F307265A73DD73DC7020
:10112000C1F30745C2F3072498705972C2F3074010
:10113000C1F30761C2F307625F701E72DD719971BE
:101140001C73D8729A721CE0134A14491268056025
:10115000891AC1F307250022C1F30744C1F30760D0
:1011600059731D73DC7298725A705A711A71DA7061
:101170009A705A721A72DA719A715A741A74DA730E
:101180009A73F0BC704700BF1D01002000000020D2
:10119000FC1C0020D81C0020001D002000F00200D4
:1011A00038B50C4D0C4C286821680430091A01F040
:1011B0001FFC236829685870C0F3072003F8020B4E
:1011C000581A021F92B2C2F30725CA708D702360AD
:1011D00080B238BDCC1C0020D81C002038B5064C8D
:1011E000064905460722206808F0A5FB2368044A43
:1011F000DD710833136038BDCC1C002054A60100FB
:10120000D81C002008B5044B1B6803B19847BDE803
:101210000840FDF7D7BF00BFD41C002008B521202F
:10122000FFF7DCFFFFF748FFBDE80840FFF7B8BF56
:1012300010B50446EE20FFF7D1FF044A13681C7076
:1012400001331360BDE81040FFF7AABFD81C00208F
:1012500030B53D4C014683B0206800296BD0CB7B74
:101260008D7B4A7B8DF804300B7B8DF805508DF813
:1012700006208DF80730019BC370C3F30725C3F325
:101280000742C3F3076385704270037091F84730DB
:1012900091F8465091F845208DF8043091F844308B
:1012A0008DF805508DF806208DF80730019BC3712D
:1012B000C3F30725C3F30742C3F307638571427184
:1012C0000371CD7C8A7C4B7C8DF804508DF8052011
:1012D0008DF806300B7C8DF80730019BC372C3F389
:1012E0000725C3F30742C3F3076385724272037293
:1012F000CB7E8D7E4A7E8DF804300B7E8DF80550B6
:101300008DF806208DF80730019BC373C3F30725C2
:10131000C3F307428573C3F3076300F110054273FB
:1013200003731C3128462822256008F0B1FB23688E
:101330002833236005E03822FCF7F4FF23683833B4
:10134000236003B030BD00BFD81C00202DE9F04160
:10135000054618461E460C46174608F091FBEB68FA
:101360000146304698477FB10A4E274423786A6980
:101370001B09F05C904714F8013B6A6903F00F0306
:10138000F05C9047BC42F1D16B690A20BDE8F041A6
:10139000184700BF28A801002DE9F04FDFF820838F
:1013A00098F8004085B0002C40F0FB808946B74992
:1013B000DFF810A3B64C0746002A0878226008BF61
:1013C0000023CAF80030002840F0D480B14D01233A
:1013D000B5F5007F0B7033D3AF4EB04B4FF40074B4
:1013E00005F5907B02E00434AC4229D82268B24271
:1013F000F9D1A279511E0129F5D8012A1946009385
:101400004FF0040214BF5B4600232046019308F00E
:1014100083FA009B0028E6D1E17CA27C8DF80C10B9
:101420008DF80D20617C227C8DF80E108DF80F2038
:10143000039A0199C2F1480222448A4201D0D2E7BC
:101440000024974E974D3460FDF70AFD964C3368A3
:10145000286000222260002B31D093F847208DF8BD
:101460000C2093F8451093F8442093F846008DF82B
:101470000E108DF80F208DF80D00DA7CDDF80CB021
:10148000997C8DF80C205A7C1B7C8DF80F308DF8E0
:101490000E208DF80D100399042988BF043900919E
:1014A00001F0CAFB00990246002001F0C9FB01F0DF
:1014B000DDFB834517BF002328682868336070B3BD
:1014C00090F847308DF80C3090F8461090F8452091
:1014D00090F844308DF80D108DF80E208DF80F30F7
:1014E000C37CDDF80CB0817C8DF80C30427C037C31
:1014F0008DF80F308DF80D108DF80E20039E042E00
:1015000088BF043E01F098FB31460246674801F06F
:1015100097FB01F0ABFB834564D000232B60644B49
:10152000266800221A602EB306F6FF7323F47F6349
:1015300023F00F035F4AD11AB14206D206F6FF73B9
:1015400023F47F6323F00F03D31A584D042E1D4458
:1015500088BF043E01F070FB31460246284601F088
:101560006FFB01F083FBA3688342534B0CBF2268DF
:1015700000221A60514CB9F1010F276026D93B4671
:101580007A7813F8021B8DF80D108DF80C20BDF839
:101590000C202360B2F55F4F07D0DAF800300A2B39
:1015A0001ED8002005B0BDE8F08FB9F1090F0DD9A4
:1015B000FA78BB788DF80D308DF80C20BDF80C2032
:1015C000A9F10403381D9A42206029D0DAF80030CE
:1015D0000A2BE6D9012005B0BDE8F04FFFF728BE81
:1015E0000220F8E72B682668002B98D0DA7C997CDB
:1015F0008DF80C205A7C1B7C8DF80E208DF80D1078
:101600008DF80F30039B2A4A03F6FF7323F47F63A0
:1016100023F00F031360002EACD0B3428AD883E7C7
:10162000A9F106052946A9F1020901F0E1F907EB44
:10163000090217F8093052788DF80C208DF80D301A
:10164000BDF80C30984205D0DAF800300A2BA8D942
:101650000320C0E723681A46597812F8030B8DF867
:101660000D0098788DF80C1001282260BDF80C1040
:1016700002D000F5004095E74BF6C862914223D0B6
:10168000DAF800300A2B8CD90420A4E7C41C00200F
:10169000CC1C0020E0DE00004649530050A60100AB
:1016A000C01C0020BC1C00200000002000E0000046
:1016B000001D002000F00200FC1C0020C81C0020BF
:1016C000041D0020D01C0020DA78191D122A216088
:1016D0000FD8112A50D252B3022A10D1042DDAF8B1
:1016E000003017D0DAF800300A2B7FF65AAF072007
:1016F00071E7302A16D03F2AF0D0202A06D0DAF837
:1017000000300A2B7FF64DAF062064E70F2DDAF884
:101710000030E7D91B2B7FF644AF05B0BDE8F04F92
:10172000FFF77CBD0C2DDAF80030DBD1F2E7042D99
:10173000DAF80030D6D18D2B7FF633AF614C624D95
:101740000120FFF74BFD2068FFF782FD2868FFF7B7
:101750007FFD226802B1D27A5C482B6801680A706A
:1017600003B1DB7A4B7002310160FFF7A5FC05B0D5
:10177000BDE8F04FFFF714BD102DB3D1DE799D7990
:10178000587919798DF80C608DF80D508DF80F107F
:101790008DF80E00D97A03989E7A5D7A8DF80C1038
:1017A000197A8DF80D608DF80E50DE7B9D7B8DF8DB
:1017B0000F1003998DF80C608DF80D505E7B1D7B2A
:1017C0008DF80E608DF80F501033112A2360039DA1
:1017D0003DD03F4B3F4E404C3B4AFF271F700023FC
:1017E000336023601368022673B1DF7B9A7B8DF828
:1017F0000C708DF80D205F7B1A7B8DF80E708DF8C4
:101800000F20039A90422ED0472D58D9334A344B9B
:1018100012689B1A9D424BD8324B606008440344C7
:101820002B4423F00103022E08BF43F001030122E1
:101830000220C4E9021388F800202560FEF73CFD71
:101840000023294A2948552106F0A4FEA9E6204B89
:10185000204E214C1B4AFF271F700023336023605A
:1018600001261368C0E7DF7C9A7C8DF80C708DF838
:101870000D205F7C1A7C8DF80E708DF80F20039A76
:101880009542C1D193F8472093F846708DF80C200B
:1018900093F8452093F844308DF80D708DF80E20A4
:1018A0008DF80F30039B9942AED1DAF8003031E762
:1018B0001120DAF800300A2B7FF673AE8BE6072092
:1018C000F7E700BFC01C0020BC1C0020D81C002073
:1018D0001D010020FC1C002000000020001D002035
:1018E00000F002007856341205120100DC1C0020C2
:1018F00070B5ADF5007D0D46164669464FF4807211
:1019000001F096F920B19DF80030DF2B03D00020C4
:101910000DF5007D70BD01464FF48073684640AA06
:10192000FFF73AFD030484B200D41CB920460DF53C
:10193000007D70BD2846334640A92246FFF706FDCC
:101940002046F4E7F8B50F461646104908221D4612
:10195000044607F0E1FF08B10020F8BD29460C4A13
:1019600004F10800FFF7C4FF03040DD5B0F5004FE4
:101970000AD13946F3682046984773690A20984788
:10198000044B01201870F8BD0120F8BD44A60100E9
:101990005CA601001C01002008B5034B0846DB686B
:1019A00011469847002008BDE8A4010038B5084D4D
:1019B0002C6864B9074B08491B68032098472860C6
:1019C00028B10649064A074B0C6014701C7038BDDC
:1019D0006C1F0020E8A40100F11A0100641F002020
:1019E000701F0020711F002088B1094B1A6862B176
:1019F00082420CD013681BB905E01A6822B1134665
:101A00009842FAD17047134600221860026070476E
:101A1000681F002010B582B0044608F031F840B1CC
:101A2000054BDB6801930146204602B0BDE810403B
:101A3000184702B010BD00BFE8A401000FB400B504
:101A400083B004AA054852F8041B019200F0D8F8AC
:101A500003B05DF804EB04B0704700BF2001002024
:101A600070B501F069F8037843B11D4E346805463E
:101A700044B928463F2101F071F898B970BD246837
:101A8000002CF6D06168284601F07CF80028F6D0DA
:101A9000E468002CF2D0284601F052F82346BDE855
:101AA000704018470F48FFF7C9FF34689CB10E4ECD
:101AB000606803782D2B0BD0FFF7ACFFA368756926
:101AC00009201BB1A847A068FFF7A4FF0A20A84778
:101AD0002468002CECD10548BDE87040FFF7AEBF8C
:101AE000681F002068A60100E8A40100B4A6010058
:101AF0002DE9F0412A4B2B4C9E682B4FDFF8B88024
:101B000082B001210DF10700B04701281DD12278D4
:101B10009DF807301AB100220A2B2270F1D00A2B4F
:101B20003A7817D024D90D2B12D07F2B22D1002A3E
:101B3000E7D11E4D2B68002BE3D0013B01210DF1B5
:101B400007002B60B0470128E1D002B0BDE8F0816A
:101B500001232370D2B9154D154B29681B6808F86D
:101B6000012013B14046FFF77BFF00232B60C8E73D
:101B7000002BEFD0002AC4D10C4D2A68B2F5167F95
:101B80000BD2511C08F802302960BAE70948074D0A
:101B9000FFF754FF00233B70E7E701233B70B0E7FA
:101BA000E8A40100701F0020711F0020641F0020A6
:101BB0006C1F0020FCA60100081D0020102970B534
:101BC0000C46054613D90C4E01E0102C08D9D5E976
:101BD0000030102231469847103C0028F5D070BDE7
:101BE0002246D5E900300449BDE870401847002975
:101BF000F6D1084670BD00BF18A701000000000024
:101C00002DE9F04F99B00023834602920093884655
:101C100098F80030002B00F0DA80252B08BF4646EC
:101C20001DD0444603E0252B00F0D5803446637870
:101C3000661C002BF7D1464500F0C980A6EB0807CB
:101C400041463A46DBE90050A847002840F065824B
:101C5000009A63783A440092002B00F0B8807178C3
:101C6000731C002900F0B3800020A1F12002102A8B
:101C70001BD8DFE802F0171A1A141A1A1A1A1A1ABD
:101C80001A111A0E1A1A090040F0100013F8011F59
:101C9000EBE740F00100F9E740F00600F6E740F01E
:101CA0000800F3E740F00200F0E7A1F13102082A52
:101CB00040F295802A2900F0BD8000242E2900F0F2
:101CC0009E804FF0FF366C2900F0A580682900F057
:101CD000A980782900F2FA81DFE811F07900F80193
:101CE000F801F801F801F801F801F801F801F8012C
:101CF000F801F801F801F801F801F801F801F8011C
:101D0000F801F801F801F801F801F801F801F8010B
:101D1000F801F801F801F801F801F801F801F801FB
:101D2000F801F801F801C801F801F801F801F8011B
:101D3000F801F801F801F801F801F801F801F801DB
:101D4000F801F801F801F801F801F801F801F801CB
:101D5000F801F801F801F801F801F801F801C001F3
:101D6000F801F801F801B801B001A801F801F80183
:101D7000F801F801F801F801F801F801F801F8019B
:101D8000F801F801F801F801F801F801A001F801E3
:101D9000F801F801F801F801F801F801F8019801DB
:101DA000F8019001880180013E01D700F801880107
:101DB000F801F801F801F801CE00F001E801F8019E
:101DC000F801E001F801D801F801F801D00100980C
:101DD00019B0BDE8F08F46457FF430AF3FE70024EF
:101DE00004EB840401EB440413F8011FA1F1300259
:101DF000092AA4F13004F3D92E297FF462AF59786F
:101E0000A1F13005092D03F101021FD92A2900F0A3
:101E10007C82134655E759786C2928D0013340F06D
:101E2000600056E75978682900F07782013340F066
:101E300040004EE702990C680A460432002C59789B
:101E40000292B8BF40F00100013337E74FF00009BC
:101E500009EB890901EB490912F8011FA1F13003CF
:101E6000092BA9F13009F3D94E4613462BE799788F
:101E700040F0800002332CE703F10108029A136856
:101E800004320292009A1A60C2E600F4E06240F462
:101E9000813142F400720191B2F5806F03F10108C3
:101EA00066D000F21781B2F5007F00F06081B2F5D4
:101EB000407F00F04481B2F5807F7FF4A9AE002E10
:101EC000C0F22983019B23F010030193B146019ACC
:101ED00002F0E00312F40052089200F05982402B05
:101EE00000F0308500F25083002B00F01D84202B81
:101EF00040F0F984029991F900200431D31702913E
:101F0000002A73F10001C0F21B84CDE904230023F1
:101F10000693019B03F4C053B3F5805F40F05482F5
:101F2000DDE9042313430DF14E0A00F03385DDE9AA
:101F300004235546D00840EA437002F00701DE084A
:101F400030310246334605F8011D52EA0301F1D152
:101F5000AAEB0503039343E200F4E06242F400724B
:101F600040F40071B2F5806F019103F1010898D13E
:101F7000029A1346156804330293002D00F0C782BD
:101F80002B78002B00F0E984A94619F8013F002BBB
:101F9000FBD1A9EB0509002E02DBB14528BFB146F4
:101FA000019B4C458CBFA4EB09040024DA0740F1E7
:101FB000DA832946DBE900304A469847002840F09A
:101FC000AC80009B214658469944FFF7F7FD002856
:101FD00040F0A38004EB0903009319E600F4E062EB
:101FE00040F4024142F40072019155E700F4E062CE
:101FF00040F4245142F4807201914DE700F4E06214
:1020000040F4A06142F4A062019145E700F4E0626F
:1020100040F4C13142F4007201913DE700F4E06206
:1020200040F4B24142F48072019135E700F4E0627D
:1020300040F4A13142F4007201912DE700F4E06216
:1020400040F4844142F40072019125E700F4E0621B
:1020500040F4424142F4007201911DE700F4E06255
:1020600040F4E13142F40072019115E700F4E062BE
:1020700040F4C06142F4C06201910DE700F4E062F7
:1020800040F4C85142F48072019105E700F4E06227
:1020900040F4106142F480720191FDE600F4E062C8
:1020A00040F4806142F480620191F5E600F4E06260
:1020B00040F4407142F440720191EDE600F4E062B8
:1020C00040F4885142F480720191E5E600F4E06248
:1020D0000190E1E6B2F5C06F24D0B2F5E06F3FF4B5
:1020E000CDAEB2F5A06F7FF493AD029A13688DF870
:1020F0003830134604330293019B012C38BF01246E
:10210000DB0704F1FF3440F12B84DBE900300122CE
:102110000EA99847002800F02C824FF0FF3019B02C
:10212000BDE8F08FDBF800309349DBF804000122B2
:1021300098470028F1D1009B0133009368E502998C
:102140000B460A6804330293002A40F0E78146F602
:10215000286146F669422923ADF84610ADF84820BB
:102160008DF84A300DF146054FF0050918E7029B3E
:1021700003F1070C2CF0070CDCE900150CF1080743
:1021800025F0004903918A46084602974FF0FF3236
:10219000EF0F7A4B0897494607F0C6F948B9504601
:1021A00049464FF0FF32754B07F0A0F9002800F0C8
:1021B000B980039F2B463A463846294607F0B4F9C2
:1021C000002840F07283039829460022002307F07C
:1021D00083F908B105F10045262C0398294662A32E
:1021E000D3E9002328BF262407F08AF9002840F00D
:1021F000CC822946751C03980AAA40F0F28106F0A9
:10220000DBFCCDE904015E48002159A3D3E900239A
:102210000DF15E0ACDE906010621D1460391DDE903
:10222000040106F0E7FE0CAA06F0C6FCCDE90401A5
:10223000DDE90C0107F0A6F9002206460F46514BD6
:10224000DDE9040107F05CF9002800F05083DDE9C6
:102250000623013647F10007BB4208BFB24240F0F7
:102260004683494BDDE90A01002206F00DFD039B80
:10227000CDE90A01002B40F0A48307F083F906465C
:102280000F4656EA07034D4613D0304639460A2218
:10229000002307F05FF930323046394605F8012D4A
:1022A00000230A2207F056F906460F4656EA0703AE
:1022B000EBD1A94547D1302305F8013C089B013DEE
:1022C000002B43D02D2305F8013C691EAAEB010A1F
:1022D0005FFA8AFAA24580F00A81019AE7B2A7EB79
:1022E0000A06D00776B200F1FD810EAAC4F12604D9
:1022F0001019019AD10640F1F580002B00F0D98227
:102300000EAA013013553021EDE0029D99782E6818
:102310002A46043202920233D5E4997840F0200034
:102320000233D6E41949019B5E04019B0DF15B0069
:1023300023F0100348BF033103220193054607F041
:10234000FAFA0DF15E0A089B002BBBD1019B03F04A
:102350000603022B00F0D481062B40F03F812B2393
:10236000B1E700BFAFF3008000C84E676DC1AB435B
:102370000000000080842E4124A80100FFFFEF7FB1
:1023800040420F000000E03F0000F03FD0A70100F6
:10239000402B00F0D48200F20681002B00F0D8819F
:1023A000202B40F07B8202990A780023CDE9042398
:1023B0000B4604330293089B0693019B03F4C0531E
:1023C000B3F5805F3FF4ACADB3F5C05F00F05D8165
:1023D000B3F5006F00F035810DF14E050023039336
:1023E0000399019A41F60803494503EA020341F2C1
:1023F0000802C0F01581934200F0698189464FF0D0
:10240000000A41F60802934240F00781DDE9042307
:10241000134300F00281019ABA4BBB4E12F4804F75
:1024200018BF1E460227089B73B1069B002B40F085
:102430002981019B03F00603022B00F08B82B34A33
:10244000062B04BF01271646B944019B4C458CBF9F
:10245000A4EB09094FF0000913F00102019204D125
:10246000DB0640F13781CA449146DBE900303FB1D9
:1024700031463A46984700287FF44FAEDBE90030FA
:10248000009A0399BAF1100F0A44009240F27C823C
:102490009F4E5446102231469847103C00287FF446
:1024A0003CAE102CDBE90030F4D82246984998471E
:1024B00000287FF432AEDBE90030009C039A294605
:1024C0003C44984700287FF428AE019B5444002BDD
:1024D0003FF480AD49465846FFF770FB00283FF4B3
:1024E00079AD1AE620213246FBF71CFFBA460EAB47
:1024F000CAF1260119445246DBE90030984700280A
:102500007FF40BAE009B53440093FFF781BB814DDA
:102510004FF006093FE54FF00109D8E401997E4BE1
:102520007E4E11F4804F0DF14B0718BF1E46394601
:10253000002300E00146100940EA037002F00F0C8E
:102540001D0902462B4616F80C0001F8010C52EA50
:10255000030501F1FF30EDD13F1A38D007F1020930
:1025600001467822302301F8012C01F8023C8D1E2F
:1025700016E5009B2146584603F10109FFF71EFBB3
:1025800000283FF427ADC8E5602B00F0CD80802BFC
:1025900040F0A9810299073121F00701D1E9002318
:1025A00008310291ACE4602B00F0D280802B40F027
:1025B0007581029B073323F0070303F1080202929F
:1025C000D3E90023CDE90423089B0693F5E63023E5
:1025D000023900F8013C4FF00309C2E72946089B85
:1025E00074E606F0E9FA122E3346A8BF1223CDE9AD
:1025F00004010393002E40F0E0810CAA06F0DCFAFF
:102600000022474B06F07CFF002840F054810DF17A
:102610005E0AD146DDE90A012FE600273E4602E7C1
:1026200003999342A9EB010A7FF4EBAEBAF1000FD4
:1026300008BF4FF0010A039B00273E4603EB0A093F
:10264000F1E6DDE904670DF14E0A56EA0703554647
:102650003FF4C4AE304639460A22002306F07AFF22
:1026600030323046394605F8012D00230A2206F0A3
:1026700071FF06460F4656EA0703EBD1AAEB0503A6
:102680000393ADE60127274EDEE6019A224B234E47
:1026900012F4804F18BF1E46DDE904230DF14E0AE7
:1026A00052EA030155463FF499AE110902F00F07B3
:1026B00041EA037118090A460346F15D05F8011D58
:1026C00052EA0301F1D1AAEB0503039388E64FF028
:1026D000010AB0E749465846FFF770FA00283FF470
:1026E000C4AE1AE55246881B07F030F9C6F1260041
:1026F0000EAB184432462021BA46FBF713FEF6E62D
:102700002023E0E508A801000CA8010018A801009A
:1027100028A701001CA80100E0A70100F4A7010000
:102720000000E03F10A8010002990A680B4604333C
:102730000293002A4FEAE27373F10001BFF6E5ABA2
:10274000524263EB4303CDE904230123069334E6AD
:10275000029A0899069113680432029219460022DF
:10276000CDE9041229E621465846FFF727FA00284A
:102770007FF4D3AC2946DBE900304A46984700286D
:102780007FF4CBAC009B994424E4019E0398914BC9
:1027900006F4804629460022049606F0B1FE002881
:1027A00000F0FC80039F06940026CDF824B0A946D3
:1027B00089488A498A4D122404E0DCB2012C68D091
:1027C00075E9020106F0E0FB4B463A4682468B462D
:1027D00006F0A0FE631E0028EFD138464946524657
:1027E0005B4606F031FD264400227A4B07468946B7
:1027F000F6B206F085FE0028DAD1049B069CDDF8CF
:1028000024B00397002B0CBF6522452243F230030E
:102810008DF85B20ADF85C304D46F2B200230DF12F
:102820005E0AE6B1039F04942E46D14614461D4627
:10283000204629460A22002306F08CFE303220462C
:10284000294609F8012D00230A2206F083FE0446DA
:102850000D4654EA0503EBD1049C039735460398D3
:1028600029460AAA06F0A8F9CDE904010623039334
:102870000DF15B09039A5B4B03EBC203D3E9002321
:1028800010461946CDE9062306F07EFB02460B46AC
:10289000C5E44FF0000ADFF83CB19EE70023069341
:1028A00000220023CDE9042387E500234E49089345
:1028B00039E5302117E6DDE90C0106F063FE039AE5
:1028C000484B03EBC203D3E90023461C41F1000748
:1028D000BB420DF15E0A08BFB242DDE90A01D146F2
:1028E0007FF4CBACBDE400220023FFF70EBB039BBB
:1028F00030211A46A9EB0300FBF714FD56EA070343
:1029000014D04D46304639460A22002306F022FEF6
:1029100030323046394605F8012D00230A2206F0F0
:1029200019FE06460F4656EA0703EBD1039BDB432D
:1029300099442E23DDE90A0189F800309DE40299CB
:102940000A8832E50299B1F900200431D3170291C7
:10295000FFF7D6BA254E012776E59946FFF71BBB50
:1029600021465846FFF72AF900287FF4D6AB009D90
:102970000122DBE900300EA905EB02099847002887
:102980003FF428ABFFF7C9BBBAF1000F3FF495AD98
:1029900054468AE500235546039321E5049B53B929
:1029A000652230238DF85B208DF85C308DF85D302A
:1029B0000DF15E0A53E74522F3E70DF15E0AD146B9
:1029C00058E7039B30211A46A9EB0300FBF7AAFC4A
:1029D000ACE700BF00002440000064A7B3B6E00DE0
:1029E000C8A7010038A70100D8A7010014A801005A
:1029F00030B410FA81F104468C424FF6FF7041F278
:102A0000210510D014F8013B80EA03239BB2082271
:102A100018044CBF85EA43035B009BB2013A184699
:102A2000F6D18C42EED130BC704700BF38B5047887
:102A300064B1054602E015F8014F3CB106F04CFFC9
:102A40002044407810F00800F5D138BD012038BD91
:102A500070B505462E4615F8014B06F03DFF2044A3
:102A600043781B07F6D4304670BD00BF38B50478F4
:102A700005460CB9284638BD06F02EFF044463789D
:102A80001B07F7D415F8014F002CF5D1284638BDA7
:102A9000A0F14103052B9ABF3738C0B2FF20704721
:102AA0002DE9F04122B190F80080B8F1000F03D178
:102AB00000242046BDE8F0811646851C4F1E0024E8
:102AC0001CE0A0F15703D9B215F8010CA0F13003B6
:102AD000DBB2092B05D9A0F16103052B25D85738A6
:102AE000C3B20134A4B243EA0113B44207F8013F70
:102AF000DFD015F8028BB8F1000FDAD006F0ECFE4B
:102B0000404443781B07D4D415F8020CA0F13003DD
:102B1000D9B20929D8D9A0F16103052BD1D9FFF782
:102B2000B7FF0F280146CFD9C2E7FFF7B1FF0F2843
:102B30000346D6D9BCE700BF08B1FFF789BF70478D
:102B400048B108B5FFF792FF18B1BDE80840FFF79C
:102B50007FBF002008BD0020704700BF20B1037870
:102B60008B4202D000207047704710B544780CB9F2
:102B7000012010BD06F0B0FE20444078C0F3C00034
:102B800010BD00BFA8B170B50D4681B1044608461E
:102B9000FFF74CFF58B926782A78234605E015F848
:102BA000012F13F8016F32B116B1B242F7D00020F5
:102BB00070BD002070470EB9012070BD06F08CFE7C
:102BC00030444078C0F3C00070BD00BF71B3F8B5A9
:102BD000044608460F46FFF729FF00BBFCB120461C
:102BE000FFF736FF0646D0B13046FFF71FFFB0B9FA
:102BF00032783B789A4214D135463C4615F8012F7D
:102C000014F8013F01309A420146F7D00BB93D2A32
:102C100009D03046FFF794FF06460028E4D1002093
:102C2000F8BD0146F2E7481C3044F8BD002070476B
:102C300008B1FFF735BF70474FF0FF30704700BF56
:102C400081B130B4441E084D2144104614F8013FB0
:102C50004340DBB2A14255F8233083EA1020F5D17E
:102C600030BC70471046704738A80100C043704719
:102C700071B110B400F1200403782BB10830A042E8
:102C8000FAD1002010BC70470170426010BC704740
:102C90000846704788420BD000F10803994207D0DC
:102CA00000F11003994203D01830814200D07047E0
:102CB00000230B70704700BF00F1080200F12801EB
:102CC000002012F8083C022B07D0032B07D0012B61
:102CD00007D008328A42F4D17047012803D103207B
:102CE00070470228FBD01846F3E700BF38B500F163
:102CF000080400F1280514F8083C1BB154F8043C02
:102D000003B198470834AC42F5D138BD0649074AAB
:102D1000074B9B1A03DD043BC858D050FBDC01F085
:102D2000ABF9FBF78DFA000040AF01001000002066
:102D3000C0020020FEE7FEE7FEE7FEE7FEE7FEE753
:102D4000FEE7FEE7FEE7FEE72DE9F047002284B04C
:102D50001646CDE9022215465D4B5E4C5E480122C7
:102D600004E0043383424FEA420211D0196801297A
:102D7000F7D1D4F804131142F3D01D601968009103
:102D80000433834246EA020600994FEA4202EDD13B
:102D9000524B1A68012A13D100221A601B68019352
:102DA0004FF0A042019BD2F820154D4B0291C2F882
:102DB0002015D3F82025039246F00046C3F82025BD
:102DC00016F0FF0F1AD0474F01250024A30003F18E
:102DD00080432E4203F5C0434FEA45050BD0D3F89C
:102DE000100557F82420D3F81015C0F30420C1F3C0
:102DF000014102B190470134082CE7D1002E02DBDB
:102E000004B0BDE8F087374DDFF8D48001274FF0DC
:102E1000A04695F945104B1C0DD0C9B204AB21F06A
:102E2000C00003EBD00201F0070312F8082C07FAE8
:102E300003F31A4210D1D6F820350293C6F8203594
:102E4000D8F820250392C8F82025002BE1D1002ACC
:102E5000DFD104B0BDE8F0871F2887BF01F01F0253
:102E6000C64602464FF0A04E0EEB820305EB000C67
:102E7000D3F800A7D3F800479CF924C024F44039C4
:102E8000C3F80097CAF30144022CD3F800A755F801
:102E90002C9014BF4FF4003C4FF4403C07FA02F270
:102EA0004CEA0A0CC3F800C7CEF82025B9F1000F90
:102EB000C1D08909032901D1C847BCE7022C04D03D
:102EC000032CB8D10229B6D1F6E70129B3D1F3E733
:102ED0000061004000600040206100407C610040D3
:102EE00000030050741F002070B41D4D43791D4C29
:102EF00045F8232003EB4303E35C6BBB8A7890F92E
:102F000004305201002BD2B220DB03F1604303F501
:102F1000614383F8002390F90430134E012503F038
:102F20001F025B0905FA02F246F8232003680A88AB
:102F3000C3F8082543790879C97803EB4303E218FD
:102F4000E55450709170002070BC7047074D03F03D
:102F50000F031D442A76DEE7082070BC704700BFCF
:102F6000C41F0020C01F002000E100E0FCEC00E0D6
:102F70000368044A01211960437903EB43030221EA
:102F8000D1547047C01F0020F0B44FF4803504685E
:102F9000234E8D40C4F848530468C4F8085344795C
:102FA00004EB4404344482B0647822F07F42F4B1EC
:102FB000046801F5A87744F827200468D4F804C50C
:102FC000ACEB02076245427902EB4202164488BF2D
:102FD00007F1FF17B27888BF07F57F4797421BDBE1
:102FE0006BB90020C4F8445302B0F0BC70470468C9
:102FF00001F5A87644F826200468002BF1D0503162
:10300000890089B200236350625803680192019AD3
:10301000C3F804530468E4E70D2002B0F0BC704725
:10302000C01F00202DE9F041284E294FDFF8A48071
:1030300084B000244FF48035D6F80423E3192A42E3
:10304000E0B24FEA83034FF0000104F101040CD019
:103050001A6852B1C6F84853C6F8085319601B687D
:103060000393D8F80030039A9847042C4FEA45059B
:10307000E2D1164BD3F80423D1070DD5D3F80021A4
:1030800052B10022C3F80021124AD3F80031029352
:1030900020461368029A98470C4BD3F804239207F2
:1030A00010D5D3F804216AB10022C3F80421D3F863
:1030B0000421084B0192019A1B68052004B0BDE869
:1030C000F041184704B0BDE8F08100BF0010014096
:1030D00050440010C41F002010B5074C236882B074
:1030E0003BB1064B1B68984700232360236801937C
:1030F000019B02B010BD00BF00010140CC1F0020A9
:1031000070B5114B114A1C781160DCB9104E027871
:1031100001211970C6F80C25416805464FF47A72F2
:103120000023C803490C06F015FAC6F804052B7AEB
:10313000084A5B01DBB24FF4803182F81033116032
:10314000204670BD082070BDC91F0020CC1F002084
:103150000000014000E100E0044B0549012202208B
:10316000C3F804231A600870704700BF00000140D4
:10317000C91F002010B50446002001F097F80D4B40
:103180001A78072A10D8501C0B4922701870D1F8F1
:103190000805012393400343C1F8083500240020AB
:1031A00001F08CF8204610BD0424002001F086F8C0
:1031B000204610BDC81F00200000014000F5C0706F
:1031C000024B034A43F82020704700BF0000014033
:1031D0003546526E0C4A13789BB903780B494FF071
:1031E000804003F00103C0F878350B68DB0704D496
:1031F000C020012381F800030B600123137000201D
:1032000070478520704700BF3025002000E100E0B6
:10321000034B02680021196002B11A60704700BFB9
:10322000D81F00204FF080434FF46072C3F804238E
:10323000704700BF4FF080434FF46072C3F808231B
:10324000704700BF014B00221A607047D81F002052
:1032500010B54FF0804386B0D3F80443620705D51C
:10326000D3F8082103F58473002A4ED1A30603D5B1
:103270002A4B1A68002A3FD1600603D5284B1A68EA
:10328000002A2FD1210602D5264B1A680ABBE20577
:1032900002D5254B1A6892B9A3050ED5234B1A689F
:1032A0005AB100221A601A68214B0592059A1B68D0
:1032B000022006B0BDE81040184706B010BD00223D
:1032C0001A601B4A1B68049301201368049A9847EC
:1032D000E2E700201860164A1B6803931368039AFC
:1032E0009847D4E700221A60124A1B680293012013
:1032F0001368029A9847C5E7002018600D4A1B68BA
:1033000001931368019A9847B6E700221A600A4AA7
:103310001B6800931368009A9847A7E714010040C0
:10332000180100401C010040200100402401004021
:10333000D81F0020D41F0020D01F002008B5FFF7A1
:1033400087FFBDE8084000F025BD00BF0B7B0246AB
:10335000032B1FD8DFE803F0262014028B685803E4
:1033600026D48B685B0315D44969D2F84C35994251
:1033700010D000200621C2F80005C2F800157047E1
:10338000D2F84C3508699842F3D14969D2F83C35F6
:103390009942EED1012070470969D2F83C35994233
:1033A000E7D1F7E70969D2F84C359942E1D1F1E765
:1033B000D2F84C3508699842DBD1D2E7F0B40679EF
:1033C000334F342505FB06F57C1994F82DC0BCF16C
:1033D000000F54D17A51C4F808C0636084F82FC03C
:1033E00084F830C04B7B84F832300B681F2B86BFCB
:1033F00003F01F03274C4FF0A04403F5E07340F2A5
:103400000C6544F823504B681F2B86BF03F01F0345
:10341000204C4FF0A04403F5E07340F20C6544F8F3
:103420002350D1E900540368C3F80855C3F80C458C
:103430008C68C3F82445CAB102680B7B110B4AB2F1
:103440005B01002ADBB21DDB02F1604202F5614242
:1034500082F80033036810481B0B5AB2520903F07C
:103460001F03012101FA03F340F82230342303FB48
:103470000676012386F82D300020F0BC7047082026
:10348000F0BC7047054A01F00F010A441376E1E7EA
:10349000DC1F00200003005000E100E0FCEC00E035
:1034A000F0B402792B490368342404FB02F40C596C
:1034B000002C4CD01B0B5CB26409203403F01F03BA
:1034C0000125254E05FA03F346F8243004790368F4
:1034D000224F342505FB0414002605FB0215A660C7
:1034E000C3F8087395F83270D3F800524FF0010C0E
:1034F00025F4BC55C3F8005284F82DC0C3F800650C
:10350000EFB90368D3F808351F2B86BF03F01F03FC
:10351000134C4FF0A04403F5E073022544F8235008
:103520000368D3F80C351F2B86BF03F01F030C482C
:103530004FF0A04003F5E073022440F82340342309
:1035400003FB0212002382F82D30F0BC70471446B2
:10355000BEE700BFDC1F002000E100E002029C018A
:1035600000030050037906490268342000FB03136E
:103570000220062183F82D00C2F80015704700BF15
:10358000DC1F002010B40C4C027903680B49342076
:1035900000FB024200209060C3F80813D3F8001229
:1035A000012421F4BC51C3F8001282F82D40C3F865
:1035B000000510BC704700BFDC1F002002029C0108
:1035C0002DE9F047DFF8FCC290F804E004683425E8
:1035D00005FB0EC5002385F82E30CB6803F0604351
:1035E000B3F1005F8AB057D1B54BC4F8083395F8F2
:1035F0002F3003F0FF0A002B53D112F0140F0CBF31
:103600000123002385F82F30894616460F46B9E876
:103610000F0005F10C08A8E80F00C6F30013D9F855
:103620000020C8F800202E6285F830307B78C4F87E
:103630008835C4F804A1D4F804310393039BC4F87B
:1036400024A1D4F824310493049BC4F860A1D4F8D5
:1036500060310593059BC4F848A1D4F8483106931E
:10366000069B16F0010318BF0123C4F8503516F06D
:10367000020318BF0123C4F840353B78032B00F246
:103680003381DFE803F0763516023B6903F06043CF
:10369000B3F1005F00F0E680102528460AB0BDE8CF
:1036A000F087AB68C4F80433112528460AB0BDE89A
:1036B000F0877B68FA68C4F84425C4F848353B694C
:1036C00003F06042B2F1005FE6D13422B868C4F87A
:1036D00034354FF4845102FB0EC2C4F8380502237E
:1036E000C4F800120121936000250823216212E032
:1036F00034237968FA68C4F8342503FB0EC3C4F890
:1037000038154FF480520221C4F80022996001223A
:10371000002322621D46320704D43A78032A1CBFD4
:103720000122E250342303FB0EF30CEB03025CF89E
:103730000330002B37D0770744BF00239360760611
:1037400006D4342303FB0EC39A6842F002029A6047
:10375000342101FB0ECC2846DCF8083043F400731A
:10376000CCF80830DCF80830C4F804330AB0BDE8FF
:10377000F087FA687B68C4F84425C4F848353423D8
:10378000B10603FB0EC347BF4FF480714FF4802294
:103790004FF400710222C4F800129A6001232362E0
:1037A00000250823B7E70121D4F848213AB3D4F81B
:1037B00004212AB1C4F80431D4F804210792079AED
:1037C000D4F8242132B30122C4F82431D4F82401DE
:1037D00009900998D4F86071D4F80002002F39D00C
:1037E00000F48077800538D597B1C4F84831D4F813
:1037F00048210892089AD4F84821002AD7D1D4F851
:103800000421002AD6D1D4F824010028CCD0DBE74B
:10381000002AC9D03423D4F8C424C4F8C42403FB38
:103820000EC3002183F82F10002A4DD012F0010F93
:1038300018BF4FF4024548F2012308BF032512F0D8
:10384000020F18BF1D4648F2022312F0040F18BFE2
:103850001D4622E721626161A6E721626161002FB6
:10386000C3D1A1E74FF48073C4F80032FB687A68D3
:10387000C4F844350023C4F84825C4F85031D4F8BE
:10388000503102930123029A2362A360D4F850318D
:10389000002BFBD00025C4F85051D4F850210192E0
:1038A00034233A69B9680198C4F8442503FB0EC370
:1038B0004FF48022C4F848159A6008232BE700BF14
:1038C00002029C01DC1F002073063FF5E6AE0EEB02
:1038D0004E010EEB810120460CEB8101FFF736FD16
:1038E000002808BF0325D8E60823072513E700BFF3
:1038F0002DE9F04788B006799DF84050764F006872
:103900004FF0000C3424654504FB067402F060455A
:103910000CBFE0464FF02008B5F1005F84F82EC0E0
:1039200066D16E4DC0F8085394F82FC00CF0FF0517
:10393000BCF1000F60D106EB460C06EB8C0C4FEA95
:103940008C0C0CF10C0907EB090E4FF0010A84F8FE
:103950002FA007F80950CEE90135CEE903258EF8EE
:103960000110C0F88815C0F80451D0F80411019175
:103970000199C0F82451D0F8241102910299C0F89D
:103980006051D0F8601103910399C0F84851D0F804
:1039900048110491049984F83050C0F85055C4F887
:1039A0002080C0F84055C0F84425C0F84835B8F12B
:1039B000000F28D14FF400720223C0F80022A36048
:1039C0003423012203FB06F302628260F9583B4470
:1039D00051B39A6842F002029A609A6842F4007207
:1039E0009A609B68C0F80433002008B0BDE8F087F7
:1039F000102008B0BDE8F087A368C0F80433112098
:103A000008B0BDE8F0874FF480724FF48023C0F80F
:103A10000022A360D4E7026242612DB1C0F84811D0
:103A2000D0F848310693069BD0F848319BB3D0F8C4
:103A300004312BB1C0F80411D0F804310593059B73
:103A4000D0F824319BB10123C0F82411D0F82441CF
:103A50000794079CD0F86051D0F8004225B304F4D5
:103A60008075A405D7D5002DD8D1002BDCD0342308
:103A700003FB0676D0F8C434C0F8C434002286F8BC
:103A80002F20A3B907EB0C01FFF760FC00280CBF47
:103A900003200020ADE7D0F80431002BCAD1D0F8C4
:103AA0002441002CC0D0CFE702624261BCE713F092
:103AB000010F18BF4FF4024048F2012208BF032053
:103AC00013F0020F18BF104648F2022213F0040F41
