:0400000310007AA1CE
:020000040000FA
:10E0000000800020A17A0100C97A0100CB7A0100CA
:10E01000CD7A0100CF7A0100D17A01000000000022
:10E02000000000000000000000000000D37A0100A2
:10E03000D57A010000000000D77A0100D97A0100EA
:10E0400001850100DB7A0100B1040100DB7A0100E7
:10E05000A58C0100000000000D7F01000000000001
:10E06000DB7A0100DB7A0100DB7A0100DB7A010058
:10E07000DB7A0100DB7A0100DB7A0100DB7A010048
:10E080009D820100E9810100DB7A0100DB7A010059
:10E09000DB7A0100DB7A0100DB7A0100DB7A010028
:10E0A000DB7A0100DB7A0100DB7A0100000000006E
:10E0B0000000000000000000000000000000000060
:10E0C0000000000000000000000000000000000050
:10E0D00000000000000000000000000099A70100FF
:10E0E0000000000000000000000000000000000030
:10E0F0000000000000000000000000000000000020
:10E10000000000000000000000000000000000000F
:10E1100000000000000000000000000000000000FF
:10E1200000000000000000000000000000000000EF
:10E1300000000000000000000000000000000000DF
:10E1400000000000000000000000000000000000CF
:10E1500000000000000000000000000000000000BF
:10E1600000000000000000000000000000000000AF
:10E17000000000000000000000000000000000009F
:10E18000000000000000000000000000000000008F
:10E19000000000000000000000000000000000007F
:10E1A000000000000000000000000000000000006F
:10E1B000000000000000000000000000000000005F
:10E1C000000000000000000000000000000000004F
:10E1D000000000000000000000000000000000003F
:10E1E000000000000000000000000000000000002F
:10E1F000000000000000000000000000000000001F
:10E2000010B5054C237833B9044B13B10448AFF370
:10E2100000800123237010BD2003002000000000B7
:10E220000408020008B5034B1BB103490348AFF3D0
:10E23000008008BD00000000240300200408020044
:10E24000154B002B08BF134B9D46A3F5803A0021C8
:10E250008B460F461348144A121A00F063F80F4B0E
:10E26000002B00D098470E4B002B00D09847002081
:10E27000002104000D000D48002802D00C48AFF327
:10E28000008000F02BF82000290001F029FA00F0AE
:10E2900011F800BF0000080000800020000000000E
:10E2A00000000000200300201453002000000000A4
:10E2B0000000000008B5074B044613B10021AFF37E
:10E2C0000080054B1868836A03B19847204600F028
:10E2D00031F800BF00000000C4F5010070B50D4E1C
:10E2E0000D4CA41BA4100025A54209D10B4E0C4CCB
:10E2F00011F05CF9A41BA4100025A54205D170BD46
:10E3000056F8253098470135EEE756F825309847FE
:10E310000135F2E71803002018030020180300203D
:10E320001C03002002440346934200D1704703F8C7
:10E33000011BF9E7FEE700BF704700BF10B51448A6
:10E3400004F0C0FF01F098F812480FF06BFA124881
:10E3500005F0BAF8642141F2680001F055F914247F
:10E360004CF2503001F062FD013CF9D101F096F918
:10E3700004F09CFD04F0D8FC02F094FA04F07EFE58
:10E3800007F07CFF05F0BEFE01F024FCFCE700BFB7
:10E39000D0F50100980300200040FF0070B5774DD4
:10E3A0002C7807F0B1FF03781BB307F0FFFF60B1D3
:10E3B000734B187801F080F82C78092C12D0714E2C
:10E3C00009242C700023337070BD6F4B1B78F3B1A0
:10E3D0006B4B6C4E187801F06FF82C78082C02D03B
:10E3E0000824EEE7674E3378002BEAD10023337020
:10E3F00070BD664A137007F087FF0378002BD4D1F5
:10E4000007F090FF0028D0D101F050F8CDE707F0D9
:10E4100083FF60B1022001F049F8594B187801F0F0
:10E420004BF82C78032CDDD00324564EC9E707F0B7
:10E430006BFF0378BBB106F015F9012813D8022051
:10E4400001F034F807F060FF504C427823789A428C
:10E4500073D14B4B4B4E187801F02EF82B78042BD0
:10E4600079D00424ADE707F04FFF03786BB906F0CD
:10E47000F9F8022809D1424B187801F01DF82C78E0
:10E48000052CAFD005243F4E9BE707F03DFF0378F6
:10E49000B3B106F0E7F8022812D101F007F807F04F
:10E4A00033FF3A4C427823789A4256D1344B354E5A
:10E4B000187801F001F82B78062B5CD0062480E751
:10E4C00007F030FF68B9324A2D4B12781B78BAB981
:10E4D00003BB00F0F1FF2C78012C83D00124294EDE
:10E4E0006FE7012000F0E2FF254B187800F0E4FF11
:10E4F0002B78A34218D0092C224E3FF663AF60E779
:10E50000184600F0D9FF2C78072C3FF46BAF072496
:10E510001C4E56E7012000F0CFFF2C78022C3FF470
:10E5200061AF0224174E4CE7164E3378002B3FF4B0
:10E5300049AF092C3FF646AF43E707F0E5FE104A26
:10E540004378104E237010780123337000F0B4FF2D
:10E550002B78042B85D1042445E707F0D5FE084A23
:10E560004378084E237010780123337000F0A4FF25
:10E570002B78062BA2D1062435E700BF65030020C7
:10E58000500300203C03002094030020B803002027
:10E590007400002038B506F027FA857906F062F895
:10E5A000A0B19DB1012D04461ED0022D18D1012825
:10E5B00034D0022814D106F017FA447A06F014FA7F
:10E5C0002146027A032000F0A5FF09E006F00CFACC
:10E5D000447A06F009FA2146027A002000F09AFFF8
:10E5E000BDE83840FFF7DABE01280CD00228F7D189
:10E5F00006F0FAF9447A06F0F7F92146027A042087
:10E6000000F088FFECE706F0EFF9447A06F0ECF949
:10E610002146027A022000F07DFFE1E706F0E4F9EE
:10E62000457A06F0E1F92946027A204600F072FFA9
:10E63000D6E700BFFFF7AEBF08B504F05BFE05F0FC
:10E64000D3FD0A2005F0B6FDFFF7A4FFBDE80840A2
:10E6500000F0AABF10B52B4C637833B9636923442B
:10E660005B780BB96370636110BD2749601C10F0C3
:10E670000CFB40B3254B1B78013B072BEED801A2C6
:10E6800052F823F0DBE60000A5E600005DE600009E
:10E69000F1E60000CDE600005DE600005DE600006A
:10E6A000BFE600001A491B4810F0EFFA38B91A4BC0
:10E6B0001A7802B1187000F0D5FFFFF76FFE154809
:10E6C00005F0BCFCCAE704F0C5FEC7E713491148D2
:10E6D00010F0DBFA0028C1D0F1E710490D4810F026
:10E6E000D4FA0028EBD100F0BDFF00F069FFB5E7D8
:10E6F0000749084810F0C9FA0028AFD1012000F0FE
:10E70000D5FEABE768030020E0F5010065030020BB
:10E71000ECF501006903002050030020E4F501003E
:10E7200070B5048840F20446B44282B005464AD02F
:10E7300040F233439C4231D024B1002303800320B4
:10E7400002B070BD21462822A748FFF7EBFDA74B7A
:10E75000A749A84AA8481C70A84B0C7014701C70DC
:10E76000047000F069FE00F021FCA54806F04EFAA6
:10E77000A44806F051FAA44805F068FFA34805F044
:10E780006BFFA34805F072FBA24B22461868852157
:10E790000FF098FA01202E8002B070BD82290CD0B3
:10E7A0009D4B1B788B4233D09C4B1B788B4200F0E7
:10E7B0009E80882975D083296CD040F23343012094
:10E7C0002B8002B070BD852902D0012002B070BD3F
:10E7D00004F070FA04F072FB07F02AFD46F6FF50D1
:10E7E00007F06AFD8E4807F061FD8E4807F0D8FDFE
:10E7F00004F0FAFA00BB04F04FFE04F04BFB10B13A
:10E8000004F0F2FA80B104F005FC00F02BFFD4E72D
:10E81000D00633D491071ED1530707D504F03AFB35
:10E8200020B104F0E1FA08B9FFF788FD04F0F4FA2A
:10E8300028B900F069FEC0E704F024FEDDE704F02B
:10E84000D3FA002800F0928004F01CFB002800F0AE
:10E85000B8800420EDE7019207F09CFD0128019AA1
:10E86000DAD104F0D9FA019A002840F0B1804FF0D3
:10E87000FF30019207F072FD019ACDE7019200F09E
:10E88000F1FE04F0B1FA019A002872D004F0FAFD0A
:10E89000019ABFE764480FF0BDF864480EF0C2FF6C
:10E8A0008BE7614B9A4269D04F4C04F118039A42AE
:10E8B00075D05F4B9A4280D110460FF09DF800282A
:10E8C0003FF47BAF00F0D8FD58480EF0ABFF04F0EA
:10E8D000EDFA04F029FA01F0E5FF04F0CFFB07F0B0
:10E8E000CDFC05F00FFC00232B80022028E704F06C
:10E8F000E5FB3D4C18B3217800297FF45EAF6378C7
:10E9000001222270002B5AD063690F2B56DC9A1813
:10E91000991C2344A018214453265E706261002391
:10E920005F2242704B70FFF795FE6378002B3FF437
:10E9300044AF4FF400713F480FF04AF83DE72378A9
:10E94000002B3FF43AAF6369207023445A785F2A62
:10E9500004BF2E225A70FFF77DFE6378002B3FF430
:10E960002CAF662133480FF033F826E704F07CFA29
:10E970005FE7019204F090FD019A4BE710460FF01B
:10E980003BF800283FF419AF184B1B4A1B780021B5
:10E99000072B11707FF411AFFFF700FD0DE7104654
:10E9A0000FF02AF800283FF408AF2378A3B9636971
:10E9B0001C4400236370FFF74DFEFEE60B46022168
:10E9C000A7E704F01FFA00280CBF0320022030E75D
:10E9D00004F040FA019A4CE700F044FE6369002B12
:10E9E000E9DD4C22E254E6E76803002065030020DD
:10E9F0003C0300205003002074000020640300202A
:10EA000039E6000099ED000039E3000035E600002A
:10EA100039EA000048510020621D002024520020E5
:10EA200059EB000021EB0000540300209803002064
:10EA300040030020800300202DE9F0410378314D90
:10EA4000022B044695F8008026D02F4E3778BB4223
:10EA500005D0032B30D0032F46D0022F0AD04346D7
:10EA600053B12A4B01221A70FFF798FC23783370B8
:10EA7000BDE8F08100232B7025480EF0D3FE002066
:10EA800000F020FD2B78002BEBD1B8F1000FE8D17E
:10EA900023783370BDE8F081012000F013FDE378A6
:10EAA0001C4A1D490533A2FB0323DB0801220B602E
:10EAB0002A707BB9144ED4E7022000F003FD022136
:10EAC00000232970154A12484FF440710EF082FE5F
:10EAD0002B78C5E70023114A0D480B4E40F2B311C5
:10EAE0000EF078FE2B78BBE7384600F0EBFC0023F5
:10EAF0000A4A07482F704FF440710EF06BFE2B78D6
:10EB0000AEE700BF94030020510300203C03002027
:10EB100098030020CDCCCCCC9003002039ED000030
:10EB200010B5044605F0A8F900B110BD204606F066
:10EB300079F80028F9D10649204608F011FC002890
:10EB4000F3D021460348BDE8104005F04DBB00BF9F
:10EB5000F0F50100D8FA0100C20770B5044600F1D3
:10EB6000CB80A30700F1A480E60600F19B80650737
:10EB700069D4200777D4A10600F18680620600F1EF
:10EB80008B80230659D4E60543D4A5053AD4600505
:10EB900025D421051CD4A2040FD4630400D470BD75
:10EBA0004FF4804007F090FB04F0A4FB05F01CFB41
:10EBB0000A20BDE8704005F0FDBA4FF4005007F0A0
:10EBC00083FB07F0F3FB00F0F5FCFFF7E7FBE4E75E
:10EBD0004FF4006007F078FB07F0AAFBDBE74FF487
:10EBE000806007F071FB07F0ADFB0028D1D14A4DE2
:10EBF0004A4B2E684A482B604FF4C0710EF0E8FE75
:10EC00002E60C6E74FF4007007F05EFB07F096FB3E
:10EC1000BDE74FF4807007F057FB07F099FB00F059
:10EC2000BDFC00F0C1FC3F4B1B781BB1012BACD1EC
:10EC30003D4A1370FFF7B2FBA7E7802007F044FBC3
:10EC4000FFF7ACFB9FE7042007F03EFB07F050FB0B
:10EC5000344B1B781BB1012B8BD1334A1370FFF758
:10EC60009DFB200787D5082007F02EFB07F044FB0B
:10EC70002C4B1B78012B7FF47EAF2B4A1370FFF7D0
:10EC80008DFBA1067FF57AAF202007F01DFBFFF773
:10EC900085FB62067FF575AF402007F015FBFFF797
:10ECA0007DFB6EE7102007F00FFB07F029FB5EE706
:10ECB000022007F009FB07F06DFB00283FF454AF7A
:10ECC0001A4B1A78FAB907F065FB01287FF44CAFAC
:10ECD00007F06CFB00F06EFC04F09EF8C0B94FF03A
:10ECE000FF3007F03BFB124804F0ECFA0E4B012218
:10ECF0001A70FFF753FB37E7012007F0E5FA0D48DC
:10ED000005F0BAF82DE700221A7000F033F9DAE7BF
:10ED100004F0A0F8E5E700BF48510020780000208B
:10ED200040030020650300203C0300206403002012
:10ED300004F60100F8F50100124A1378012B0AD0FD
:10ED400008D3032B13D81049012000230870137037
:10ED5000FFF724BB704710B50C4C0B4922680B70B1
:10ED6000013A2260FFF71AFB23680BB910BD704708
:10ED70000023074A07484FF48071BDE810400EF0A9
:10ED800029BD00BF940300203C0300209003002015
:10ED900039ED000098030020704700BF08B507F068
:10EDA000F9FA18B9034B01221A7008BDBDE80840F2
:10EDB00000F0E0B86403002038B5054C054B256829
:10EDC0000548236000210EF003FE256038BD00BF1A
:10EDD00048510020780000204003002038B507F09B
:10EDE0007BFA441E451D14F8010F05F0AFF9AC4243
:10EDF000F9D138BD08B508F09BFA20B90120BDE86B
:10EE0000084005F003BABDE80840FFF7C7BF00BFE0
:10EE100010B5094908F02AFB60B104460FF047FF1E
:10EE2000064B074A00F10801A4F10800BDE81040B4
:10EE300004F0F2BF10BD00BF24F601002CFA01005F
:10EE4000D0F9010010B51349ADF5816D08F00EFB46
:10EE500078B102A94FF4007208F0B4FD0023014616
:10EE6000009382AA02A84FF4007306F073F80446D8
:10EE700010B90DF5816D10BD074805F0B5F92146B3
:10EE800082A805F077F90A2005F094F90DF5816D57
:10EE900010BD00BF24F6010018F60100014804F07F
:10EEA00011BA00BF8CF6010008B50A4805F09CF9BC
:10EEB000094805F099F9FFF791FF4BF6C86107483B
:10EEC00005F092F90A2005F075F9BDE8084003F055
:10EED000F7BF00BF54F6010068F601006CF60100B0
:10EEE00010B5044608F024FA08BB1A49204608F079
:10EEF00037FA88B91849204608F032FA60B917493C
:10EF0000204608F02DFAB8B1204608F01BFA144943
:10EF100008F026FAB0B910BD124804F0D3F9204623
:10EF200004F0D0F91048BDE8104004F0CBB901203E
:10EF3000BDE8104005F06AB921460C48BDE8104014
:10EF400005F052B90A4804F0BDF9BDE81040FFF7DA
:10EF500033BF00BF28F6010034F6010038F6010087
:10EF60003CF601002CF601007CFD010044F6010096
:10EF7000D0F5010010B50B4805F036F9FFF72EFF6C
:10EF800007F0AEF9044607F0AFF9214603464BF609
:10EF9000C862054805F028F90A20BDE8104005F0D0
:10EFA00009B900BF1CF7010028F7010008B505F0FA
:10EFB0008BF80A4805F0B4F8094805F0B1F809489B
:10EFC00005F0AEF8084805F0ABF8084805F0A8F8D9
:10EFD0000748BDE8084005F0A3B800BFD4000020F2
:10EFE000A4000020B4000020940000208400002031
:10EFF000C40000207C4A831E10B51070082B06D870
:10F00000DFE803F00925696D394A595D7600774BD1
:10F01000774A1A6010BD774B1B78022B00F0918065
:10F02000012B6FD0744B1B78032B00F09980042BBD
:10F03000F0D1724B724A1B781278002B40F0A680F8
:10F040006A4B002A40F0C3806E4A1A6010BD6A4BBA
:10F050001B78012B79D0022BDCD1684B684A1B78D6
:10F060001278002B40F09780604B002A40F0B2806D
:10F07000654A1A6010BD654B1B78042BCAD801A2E3
:10F0800052F823F00FF0000015F100000DF1000020
:10F090003BF1000033F100005D4A5E4910785E4BA1
:10F0A000524A002818BF0B46136000F0AFFE5B4BBE
:10F0B0000830186010BD4D4B594A1A6010BD594AAE
:10F0C0001378022B57D0032B16D0012BA2D1474B1C
:10F0D000554A1A6010BD454B544A1A6010BD434B47
:10F0E000534A1A6000F092FE524B1E30186010BD59
:10F0F0003E4B514A1A6010BD3C4B504919600023E9
:10F10000137010BD394B4E4A1A608BE7374B4D4A8E
:10F110001A6010BD4C4C00F079FE23689842334BC6
:10F120005BD24A4A1A6000F071FE494B3C301860CD
:10F1300010BD2E4B474A1A6010BD2C4B464A1A6030
:10F1400010BD2A4B454A1A606CE72C4B2C4A1B78A1
:10F150001278B3B9254B002A36D0414A1A6010BD47
:10F16000264B274A1B781278D3B9204B002A28D087
:10F17000334A1A6010BD1D4B3A49196000231370C1
:10F1800010BD1A4B8AB9384A1A6010BD174B7AB9AC
:10F19000364A1A6010BD154B6AB9354A1A6010BD5F
:10F1A000124B5AB9334A1A6010BD334A1A6010BD67
:10F1B000324A1A6010BD324A1A6010BD274A1A60DE
:10F1C00010BD304A1A6010BD2F4A1A6010BD2F4A78
:10F1D0001A6010BD2E4A1A6010BD2E4A1A6000F047
:10F1E00015FEF03020609EE701040020F0030020AF
:10F1F0001CF80100BA030020FD030020FE030020DC
:10F20000FF030020B8F8010008F90100C003002046
:10F21000BB0300208CF7010024F90100BC0300208F
:10F220000CF80100020400206CF9010010F9010043
:10F2300024F80100F803002044F801004CF9010013
:10F2400078F80100CCF70100C4030020DCF70100CE
:10F25000C8030020ACF70100A4F7010064F8010026
:10F26000D8F8010034F90100C0F80100A0F801004D
:10F27000F0F8010050F80100CCF80100A8F80100F6
:10F28000F8F801008CF80100E4F80100B0F8010082
:10F2900000F90100F4F70100294B1A78002A2CD15B
:10F2A000284B1B78991E012936D92749087840BB7D
:10F2B000264A1278002A31D110B5254C2278911EA9
:10F2C000022927D9012B35D0224B1B7843BB224B77
:10F2D0001B78D91E012923D9013B012B2CD91F4BA7
:10F2E0001B78FBB9012A0FD000F090FD1C4B1B6866
:10F2F00098422CBF0720002010BD00221A70042065
:10F3000070470A700820704700F080FD154B1B689D
:10F310009842E9D3062010BD092070470A207047A3
:10F32000022010BD00F072FD0F4B1B68984205D201
:10F330002278D7E7092010BD032010BD052010BD9D
:10F340000004002002040020CC030020FC03002065
:10F35000C0030020BA030020FD030020F4030020B6
:10F36000BC030020C8030020F803002010B51E4C89
:10F37000236833B3188800B910BD9B781B4A03F08B
:10F380000F0352F8230004F09FF823689B7813F0D2
:10F39000F00F18D100F056F92368DA7812F0010F57
:10F3A0004FF0A04217D10221C2F820171988104A45
:10F3B000104800230EF00EFA236804332360012066
:10F3C00010BD184610BD1B090B4A642132F82300FA
:10F3D00000F01AF9E0E703204FF48071C2F820072B
:10F3E000C2F80815E2E700BFF003002064F701004F
:10F3F000FDF30000D003002058F7010010B5FFF71F
:10F40000B5FF00B110BDFFF747FF084B1870FFF7BD
:10F41000F1FDFFF7ABFF0028F4D103460146044A93
:10F420000448BDE810400EF0D5B900BF010400202B
:10F43000FDF30000D003002010B50A4B1C7804B186
:10F4400010BD012220461A7004F03EF8064B074911
:10F450001960074A074823462146BDE810400EF0D0
:10F46000B9B900BFB9030020F00300201CF8010067
:10F47000FDF30000D00300200A4B1A7802B9704750
:10F4800010B5094800241C700EF0CCF9204604F099
:10F490001BF800F003F94FF0A0430222C3F8202725
:10F4A00010BD00BFB9030020D0030020014B18702D
:10F4B000704700BFBA030020014B1870704700BFAF
:10F4C000F40300200C4B1A78824203D00B4A1870C8
:10F4D000137803B9704710B5FFF7DEFE092800D096
:10F4E00010BDFFF787FD00231946054A0548BDE812
:10F4F00010400EF06FB900BF02040020B9030020D5
:10F50000FDF30000D0030020014B1870704700BFCE
:10F51000C003002070B51A4C23788342194B27D0C2
:10F52000194D1A4E2070307819702A7000B970BDCC
:10F53000174DFFF7B1FE2B7883420DD0821ED2B259
:10F54000012A02D9023B012B06D800232870194654
:10F55000104A11480EF03EF903F02EFC0028E6D0C8
:10F560002078003018BF0120BDE8704002F0BABC1E
:10F570001D788D42044DD4D12E789642D1D170BDE4
:10F58000FD030020FE030020FF030020B90300203C
:10F5900001040020FDF30000D0030020014B18708F
:10F5A000704700BFBB030020014B01221A70704757
:10F5B000CC030020014B1870704700BFFC030020F3
:10F5C000014B01221A707047000400200A4B0B4ABD
:10F5D0001B78002111700BB903F07CBD10B5084AEF
:10F5E000084B1478188803F077FD204603F07EFD61
:10F5F000BDE8104003F06CBD0404002003040020AB
:10F60000080400200604002038B50A4B0A4C0B4DB4
:10F610000B4A1B78208001242970147003B138BD77
:10F620000C4603F059FD204603F060FDBDE838406C
:10F6300003F04EBD0304002006040020080400204F
:10F6400004040020054B1A7822B1054A12780021E3
:10F65000197002B1704703F03DBD00BF04040020E3
:10F660000304002010B50A4B01224FF47A601A708F
:10F6700003F032FD642003F039FD03F029FD00237F
:10F68000044A05481921BDE810400EF0A3B800BF98
:10F6900003040020CDF500005C51002010B50D4C96
:10F6A0000D4B21781A7859B992B100220B481A7083
:10F6B0000EF0B8F800232370BDE8104003F00ABD37
:10F6C000002AF2D100232370BDE8104003F002BDF0
:10F6D00010BD00BF04040020030400205C51002082
:10F6E00010B500F0BBFB01F05DF803F08FFA09489C
:10F6F0000DF0E0FF0EF08AFA044600F06BFA002CE1
:10F70000F8D172B60EF0D4FA10B9BFF34F8F30BFF4
:10F7100062B6EFE7C8F501002DE9F041D0E90247F4
:10F720000546E41B40689442164638440DD8161B23
:10F73000884622460FF01FFA08EB0401324668683B
:10F740000FF019FAEE60BDE8F0813E440FF013FAB5
:10F75000EE60BDE8F08100BF2DE9F8438846D0E9AE
:10F760000215064617464FF00009336970689D423E
:10F7700003F1FF3426BF03F1FF335B18631BA1EBDA
:10F78000050428BF5B1BBC4228BF3C469C4228BFE7
:10F790001C464146284422460FF0EDF9B168254445
:10F7A000A94208BF00253F1BA144A044F560DCD15D
:10F7B0004846BDE8F88300BF38B5114C114BE361F2
:10F7C0004FF4006310482362102500230F4AA36200
:10F7D0000F496066A56663622367E366E01D012347
:10F7E0000325E3626367A2612266C4E904550FF052
:10F7F00056FA204607490FF052FA2023A37138BD6C
:10F800007C5100201C0400200C0400207CF9010025
:10F8100088F901008CF901002DE9F04FDFF8A8907C
:10F8200099F8003083B080468B469246002B47D033
:10F830004FEA480707EB080609EBC606356FF36E7B
:10F840009D421FD85C1B544528BF54461CB9204616
:10F8500003B0BDE8F08F002607EB080309EBC303F4
:10F860002246596E584629440FF085F92544344400
:10F87000002CECD0474409EBC70720463D6703B096
:10F88000BDE8F08FD6E91914641B544528BF5446CF
:10F8900022462944584601930FF06DF9B26E019B40
:10F8A0002544AA42AAEB040A14BF5B1B002553455A
:10F8B00028BF5346002BDBD0A34426461C46CBE78B
:10F8C000FFF77AFFB4E700BF7C51002010B50B466C
:10F8D000EFF311844FF0200181F311881946FFF7EF
:10F8E0009BFF84F3118810BD70B5204D00EB4003E1
:10F8F00005EBC3030130DC6A00EB4000012C05EB93
:10F90000C0000E46154617D008D3022C02D00024A2
:10F91000204670BDBDE87040FFF71EBF9A6A596A65
:10F920008A421DD9013A521A9542F1D831462A46E7
:10F93000FFF7F2FE2C46EBE79A6A5C6AA2420AD90C
:10F94000013A141BAC4228BF2C4631462246FFF731
:10F95000E3FE204670BD1B6A1344013B1C1BF1E70C
:10F960001B6A1344013B5A1ADEE700BF7C5100209A
:10F9700030B50C4B1B7883B00D462BB9CDE9000296
:10F98000FFF71AFFDDE90002EFF311844FF02001C9
:10F9900081F311882946FFF7A7FF84F3118803B08C
:10F9A00030BD00BF7C510020044B00EB400003EB56
:10F9B000C003D86E1B6FC01A704700BF7C51002077
:10F9C0000C4BDA6E1B6F9A4211D000B583B0012246
:10F9D0000DF107010020FFF779FF012804D19DF800
:10F9E000070003B05DF804FB4FF0FF30F9E74FF07C
:10F9F000FF3070477C5100202DE9F0410A460D464A
:10FA0000074601460020FFF7B3FF8542044610D8A1
:10FA1000164E4CB93368012B01DC013333602046AC
:10FA2000BDE8F081002CFAD0002333602046BDE809
:10FA3000F08100F005FA00F500600C4E1FFA80F826
:10FA400008E03368012BEDDC00F0FAF9A0EB0800C8
:10FA50000304DED52A1B39190020FFF789FF04446F
:10FA6000A542EED8002CD5D0DEE700BF600C002008
:10FA700009B908467047FFF7BFBF00BF00B583B0A4
:10FA800002AB012103F8010D1846FFF7B5FFA0F105
:10FA90000100B0FA80F0400903B05DF804FB00BF3C
:10FAA00038B5054600200C46FFF77EFFA04228BF70
:10FAB000204600B938BD224629460020BDE838401E
:10FAC000FFF704BF10B50F4807F0C0FF03280BD89D
:10FAD000DFE800F0020B020B0B4C237823B10B483C
:10FAE0000DF0A0FE0023237010BD07490B78002BFA
:10FAF000FAD101240C70064A04481921BDE81040CF
:10FB00000DF068BE400C00201C0C0020200C0020D2
:10FB100049FB000008B50146034807F085FFBDE832
:10FB20000840FFF7CFBF00BF400C002010B50A46C9
:10FB30000146044807F066FF044608B1FFF7C2FF1C
:10FB4000204610BD400C002008B50B4B1B788BB134
:10FB50000A4BDA6E1B6F9A4204D10948BDE808408F
:10FB60000DF044BE074807F08BFF0548BDE808408C
:10FB70000DF03CBE08BD00BF1C0C00207C510020D5
:10FB8000200C0020400C0020704700BF08B5094938
:10FB9000094808F097FB48B9084808F0CDFB08B1C0
:10FBA00009F07AFC064B01221A7008BD09F074FCBA
:10FBB000F2E700BF89FB0000ACF90100640C0020F3
:10FBC000650C0020024B1B7803B9704708F0A6BBF8
:10FBD000650C0020034B1B7803B97047024B187863
:10FBE00008F0CEBB650C0020640C0020034B1868A5
:10FBF00018B90348034A104418607047680C002085
:10FC0000682B0100B8DF0000F8B5294B294DD3F867
:10FC100004452B68284A294F16682949DFF8B8C0DF
:10FC2000E31A23F07F43C3EB431003EB800030441F
:10FC3000106010681668C6F3080616603E68400A31
:10FC400006443E600F681F4E384408600A680F681B
:10FC5000ACFB020292094FF47A7000FB127008604C
:10FC600031681948194F0A44326002681849134430
:10FC7000036002683B6803EB12133B60036803F008
:10FC80000F030360224610320A40131B23F07F4308
:10FC9000012BF8D9012300210E482C6008F056FAF8
:10FCA0000DF0B0FE00B9F8BDBDE8F8400DF08ABE19
:10FCB00000100140700C0020800C00207C0C002003
:10FCC000880C0020840C0020780C0020740C00208C
:10FCD000F0FFFF00C8F90100D34D621000B170477A
:10FCE00010B50446FFF790FF014B1C7010BD00BF1C
:10FCF0008C0C002070B500230E4E0F4D337018464B
:10FD000009F022FAD5F804452834A4B204E0D5F865
:10FD100004351B1B1B0405D509F098FA0028F6D002
:10FD200001233370044BBDE87040D3F8043509F06B
:10FD300039BA00BF6C0C00200010014070B5234898
:10FD4000234E244D244C2549254A002382B033609C
:10FD50002B60236003600B60136009F09DF900289D
:10FD600030D109F0B1F8002009F0B8F909F0E4F950
:10FD70000028FBD01B4B1C4C1C4A93E803000023BB
:10FD80000090ADF804101A482370694608F08EF907
:10FD900008B109F081FB174C1749184A1448012390
:10FDA0002360D1F8041511601268103222F07F42EE
:10FDB000002108F0CBF90E4808F0BCF9FFF79AFFD4
:10FDC00002B070BD09F068FBCBE700BF7C0C0020DF
:10FDD000780C0020740C0020800C0020880C00207F
:10FDE000840C0020B8F901008C0C0020DDFC000020
:10FDF000C8F901000810014000100140700C0020FB
:10FE0000014B1868704700BF740C0020014B186844
:10FE1000704700BF840C002020B1034B800143F0E9
:10FE200001031847704700BFC0F9010080B220B13C
:10FE3000024B800143F0010318477047C0F90100ED
:10FE4000024BD3F8040580B2704700BF0010014098
:10FE5000014B01221A7070476D0C002010B5274B22
:10FE60001C6814F0010482B021D101F07DF800F08B
:10FE700051F801F0D7FAFFF761FFFFF787FE0DF0A9
:10FE8000ABFE21461E480DF07FFE0DF069FCFFF72A
:10FE900099FE20460DF0AEFF01F0EAFD194B1B68FC
:10FEA00001932146022002B0BDE810401847164BCE
:10FEB0000122C3F80425D3F80024002AFBD00F49FF
:10FEC000114A0B6823F001030B60D2F80034002BB9
:10FED000FBD000230C49C2F80435D1F80034002BC4
:10FEE000FBD0BFF34F8F0949094BCA6802F4E062A7
:10FEF0001343CB60BFF34F8F00BFFDE70C12001020
:10FF0000A001002094F9010000E0014000ED00E0B4
:10FF10000400FA054FF080434FF0FF31D3F800247E
:10FF2000C3F800140C490B784AB943F0010362F39B
:10FF3000410362F3820362F3C3030B7070475008FE
:10FF400003F0FE0360F34103900860F3820362F361
:10FF5000C3030B70704700BF900C0020BFF34F8F9E
:10FF60000549064BCA6802F4E0621343CB60BFF355
:10FF70004F8F00BFFDE700BF00ED00E00400FA0571
:10FF8000084A094B11681B68994208D01168136828
:10FF900006480133C3F30803405C136070474FF019
:10FFA000FF307047940E0020980E0020940C002023
:10FFB0002DE9F843224B234D1F682B682C68BB4268
:10FFC0000E461DD9C4F50074A1422AD92968DFF86C
:10FFD00078902246494480460EF0CDFD00232B60E8
:10FFE0005FB1361BB74228BF3746494608EB0400CD
:10FFF0003A460EF0C0FD2F603C442046BDE8F88331
:020000040001F9
:100000003C1BFAD02B681049B44228BF3446224624
:1000100019440EF0B0FD2B6823442B602046BDE848
:10002000F8832B680849324619440EF0A4FD2B686A
:100030003344C3F3080334462B602046BDE8F883FD
:10004000980E0020940E0020940C002010B5038818
:1000500004461BB1B42B05D1822907D0B4232380D9
:10006000012010BD00230380032010BD014807F0CC
:1000700007FDF3E7A812002030B40B490B4B4FF0FB
:10008000A0420425C1F8805000244FF0FF30022127
:10009000C3F80045C3F80C05C3F81405C2F80817E7
:1000A000C2F8141730BC704700E100E000200040A7
:1000B000134A1378FBB110B4124B134900244FF4C8
:1000C00080701470C3F808030A784AB10122DA601C
:1000D00002E0D3F820211AB9D3F85821002AF8D029
:1000E0000A4B1B7801220A701BB9064BD3F8003566
:1000F00013B910BC7047704710BCFFF7BDBF00BFFD
:10010000C912002000200040A4120020C8120020C4
:1001100070B4124B124A4FF0A04004210324022570
:10012000C0F80847C0F808150024C3F80C55052589
:10013000C0F814474FF0EB76C3F814550820C025DB
:10014000C3F86C45C3F8246582F80253C2F88011E5
:100150001160C3F8000570BC704700BF002000406C
:1001600000E100E008B50D4B0D4918680D4A086024
:100170000D4B01211170D3F8003563B10A4B0B48C8
:1001800000224FF480710270C3F82021C3F8582177
:10019000C3F8041308BDFFF7BBFFEFE7A012002070
:1001A0009C120020C912002000200040A412002050
:1001B00070B41D4A1D4913680C680133C3F3090369
:1001C0009C422AD015681A4C60551A4D13602B7842
:1001D00003F0FF00FBB908681368984220D0086854
:1001E0001368984234BF13680B68134A38BF1B1A50
:1001F00047F6FF7128BFC3F5806347F6FE760444D7
:10020000B34288BF0B460121C2F844450846C2F8F4
:1002100048352970916070BC7047002070BC7047F1
:10022000012070BC704700BFA01200209C1200206B
:100230009C0E0020A4120020002000402DE9F04771
:10024000002962D03B4EDFF8FC90D9F8007033688B
:1002500035689F420C4680461DD8C5F58065A94289
:1002600057D93068DFF8D0A02A46504441460EF0F6
:1002700082FC0023012F33601FD9791E671B8F4238
:1002800028BF0F46504608EB05013A460EF073FCB6
:1002900037603D4411E07F1B012F48D9791E8C4205
:1002A0003368254828BF0C46224641461844254657
:1002B0000EF061FC336823443360204A13782BBB73
:1002C000D9F800103368994220D0D9F8004033683B
:1002D00019481B499C4236BF3368D9F800301B1BB4
:1002E000204428BFC3F5806347F6FE7647F6FF74C7
:1002F000B34288BF23460124C1F84405C1F84835FC
:1003000014708C602846BDE8F0870D462846BDE88D
:10031000F087336808484146184422460EF02BFC0B
:1003200033682344C3F3090333602546C5E700253A
:10033000C3E700BFA01200209C0E0020A4120020E2
:10034000002000409C120020124A134B10B51020D0
:10035000002401211C70C2F808031346516002E01A
:10036000D3F810211AB9D3F84421002AF8D00B4B46
:100370001B781BB9074BD3F8003523B90848BDE8F3
:1003800010400DF023BCFFF777FE0548BDE8104094
:100390000DF01CBC00200040C8120020C912002033
:1003A000E400002038B5124C12492068124A086057
:1003B000124B01211170D3F80035B3B10F4B104A25
:1003C000104800211025C3F81011C3F84411C3F8D8
:1003D0000453246822440124C3F83425C3F8384563
:1003E0001C60BDE838400DF0CFBBFFF791FEE5E79C
:1003F000980E0020940E0020C8120020002000401B
:10040000940C0020E400002008B5194807F01EFBFA
:10041000032808D8DFE800F01A021308FFF748FEA7
:10042000144B1B78E3B108BD124B1B78E3B1124BA0
:100430001B78002BF7D1BDE80840FFF793BE0D4BAA
:100440001B78002BF3D0FFF77FFFF0E7094B1B78F9
:100450001BB9BDE80840FFF72BBEFFF775FFF8E7B3
:10046000BDE80840FFF79EBFFFF79CFFDFE700BF36
:10047000A8120020C8120020C912002008B50146A9
:10048000034807F0D1FABDE80840FFF7BDBF00BF41
:10049000A812002010B50A460146044807F0B2FA37
:1004A000044608B1FFF7B0FF204610BDA812002097
:1004B00038B52A4BD3F81021DAB1294A294800214E
:1004C000C3F810111368284901330968C3F30803FE
:1004D000994218BF13601168244B204A0B44012134
:1004E000C2F8343511600DF00DFC214B18680DF089
:1004F00009FC1A4BD3F8202162B31E4A1E49002082
:10050000C3F82001D3F84C3514682344C3F309031E
:10051000136014680B689C421DD010680B68174C60
:10052000984234BF0B68136815490C4A38BF1B1A30
:10053000014428BFC3F5806347F6FF7047F6FE7598
:10054000AB4288BF03460120C2F84415C2F84835C3
:100550002070906038BD094B187038BD00200040F5
:10056000980E0020E4000020940E0020940C00203F
:10057000CC1200209C120020A0120020A412002007
:100580009C0E002010B5038804462BB140F23512B2
:10059000934209D182290BD00D4B1B7823B140F235
:1005A00035132380012010BD00232380032010BDBC
:1005B000084B1B68002BEFD0074A1178032902D1A2
:1005C00010789847E8E711780229E5D1F8E700BFED
:1005D000D4120020D0120020D6120020F8B5634DAE
:1005E000634E2B681F2B8BBF03F01F021A46604817
:1005F0004FF0A04002F5E072042140F822101424CC
:1006000004E0FFF709FC013C2B680FD01F2B8ABFC9
:1006100032464FF0A04203F01F01D2F8102598BFD8
:100620001946CA40D7074FF00A00EAD51F2B29D92F
:100630004F4CD4F8100503F01F07F84010F00100EC
:1006400000F084806A681F2A2BD84FF0A04002F582
:10065000E071042640F82160D0F8106526FA02F215
:10066000D2072BD50246012002241F2B42F821403D
:1006700078D903F01F033E4A03F5E073022142F8E4
:100680002310F8BD4FF0A042D2F81045DC4014F022
:1006900001045DD1204603F5E073022142F82310E6
:1006A000F8BD02F01F0101F5E070314A042642F85E
:1006B0002060D2F81025CA40D0074CD407F5E0726C
:1006C000012606FA07F740F20161C4F8087544F8FC
:1006D0002210274F102401E0013C35D01F2B8ABF88
:1006E0003A464FF0A04203F01F0306FA03F3C2F8A4
:1006F0000C350520FFF790FB2B681F2B8ABF3A466D
:100700004FF0A04203F01F0306FA03F3C2F80835C6
:100710000420FFF781FB6A681F2A8ABF3B464FF01F
:10072000A04302F01F00D3F810152B6898BF1046A5
:10073000C140C907D0D501201F2A0ED902F01F01E0
:1007400001F5E0710A4A8FE72046F5E73B4692E75C
:1007500014461F4676E70120F2E702F5E0714FF0FC
:10076000A04281E74FF0A04295E700BFFC000020C7
:1007700000030050064B1A7842B102780548002A5F
:100780000CBF032202221A700DF0BCBA704700BFE2
:10079000D6120020F0000020014B1878704700BFEF
:1007A000D612002008B514490A684B681F2A88BF72
:1007B00002F01F0202F5E0728CBF10484FF0A0401B
:1007C0001F2B88BF03F01F034FF0040140F82210D5
:1007D00003F5E0738CBF094A4FF0A042042142F8B0
:1007E00023101420FFF718FBFFF7F8FE044A054B0F
:1007F000107000221A7008BDFC0000200003005099
:10080000D5120020D6120020014B1878704700BF87
:10081000D51200202DE9F0411A4B1B7823B1DFF8E7
:10082000808098F800701FB100242046BDE8F08158
:100830000E460546FFF7D2FE04460028F4D0012DEF
:100840001149124A12480CBF4FF0C8654FF0CC75E1
:100850003B468D6007F094FE0028E5D10D4B0E4A13
:100860001E600123107088F800303EB10B480DF077
:1008700057FA18B9014609480DF086F9044807F0FF
:1008800053FFD2E7D5120020FC00002075070100BD
:10089000E8F90100D0120020D6120020F00000205C
:1008A000D412002038B5104B1B7813B10F4C2378AD
:1008B00003B938BD0E480F4D07F046FF0C4807F04E
:1008C000D1FE0D4A00232846137023700DF028FA3C
:1008D0000028EED0094B1B68AB42EAD02846BDE8A1
:1008E00038400DF073B900BFD5120020D41200209B
:1008F000E8F90100F0000020D61200204851002045
:1009000038B50446FFF77CFA0B4D044407E0BFF30B
:100910004F8F30BFFFF774FA201A002809DB2B78BD
:10092000012BF4D02878A0F10300B0FA80F0400940
:1009300038BD002038BD00BFD612002070B5154C60
:10094000247886B0FCB1144C2478E4B1134C25789B
:10095000012D1BD08DF805000A980292CDE9030104
:10096000142201A9012602250D48059326708DF851
:1009700004500EF000F9002209490A4807F002FF6E
:10098000B0FA80F46409204606B070BD0024204609
:1009900006B070BDD5120020D4120020D61200205F
:1009A000D8120020E8F9010030B50F4C247883B04C
:1009B0009CB10E4C247884B10D4D2C78012C0FD0B5
:1009C0001C460094134601240A46014609482C702F
:1009D00008F070F8B0FA80F46409204603B030BD26
:1009E0000024204603B030BDD5120020D4120020D0
:1009F000D6120020E8F9010010B50E4B84B01C7827
:100A00008DF8070014B9204604B010BD04AA0123D4
:100A100042F8043D0DF1070107480CF07DFD28B9AF
:100A2000039B1BB105480DF06DF9ECE7002420464F
:100A300004B010BD8013002020FA01001001002036
:100A4000032906D8DFE801F002140E080B4B01223F
:100A50001A700B480DF056B90A4B094801221A705A
:100A60000DF050B9084B064801221A700DF04AB932
:100A7000064B034801221A700DF044B97E13002082
:100A8000100100207C1300207D1300207F13002024
:100A90000F4B1B78C3B110B582B002AA0D4C0E48A3
:100AA000012342F8043D214600230CF073FD40B9B8
:100AB000019931B108480CF0E9FD2368187802B0BB
:100AC00010BD4FF0FF30FAE74FF0FF30704700BF26
:100AD000801300207813002014FA01000E4B1B78BD
:100AE000BBB100B583B00B460193014653B101AAD7
:100AF0000A480CF011FD08B9019B1BB9002003B096
:100B00005DF804FB06480DF0FDF8019803B05DF8B0
:100B100004FB1846704700BF8013002020FA010034
:100B2000100100200C4B1B783BB100B583B0019144
:100B300029B9084603B05DF804FB18467047014622
:100B400001AA06480CF064FD10B901990029F0D102
:100B5000002003B05DF804FB8013002014FA0100AC
:100B600010B50CF0D5FB012801D90AF06BFA094C3D
:100B700020460DF0D5F830B1074B1B68A34202D0D8
:100B800020460DF023F8002000F014FABDE81040D4
:100B90000AF042BA100100204851002038B5184C24
:100BA00023783BB117480DF0BBF8E8B1BDE83840F9
:100BB0000AF030BA03F0FF050CF0B0FB28460AF04B
:100BC00095F9C8B9104B114A184613600AF048FA53
:100BD00008B108F061FC0E4A0A4802232370137022
:100BE0000DF09EF80028E1D1014606480CF0CCFF3C
:100BF000BDE838400AF00EBA08F04EFCE2E700BF4C
:100C0000A017002010010020F0F90100741300204B
:100C1000A117002008B50B4806F018FF50B10328B3
:100C200000D908BD09F0E4FA0028FAD1BDE808406F
:100C3000FFF7B4BF09F0DCFA0028F2D0BDE80840A5
:100C4000FFF78EBFC01B002008B50146034806F021
:100C5000EBFEBDE80840FFF7DDBF00BFC01B002072
:100C600010B50A460146044806F0CCFE044608B119
:100C7000FFF7D0FF204610BDC01B002070B582B02A
:100C80000D4C02A90023224641F8043D06460125E9
:100C90000A4825600CF0DEFB22682AB13046019933
:100CA0000BF016FF02B070BD054B06481D700DF02D
:100CB00029F802B070BD00BF9C17002014FA010093
:100CC0007E130020100100202DE9F04F044600881B
:100CD00085B088B1B0F5E37F08D182290FD04FF4F9
:100CE000E3730120238005B0BDE8F08F00230320CB
:100CF000238005B0BDE8F08F00F042F9EFE7744DB6
:100D0000744E2A7833789A421BD02B78013B042BFF
:100D100017D8DFE803F0520342164E003378022B57
:100D200000F0CD8009F06EFA08B10AF08BF92B784B
:100D3000694ADBB233700021042311602B700CF080
:100D4000E7FA664B1A78002A40F08880644E654BBB
:100D50001A782AB164486049002202701A700A6049
:100D6000624F3B78002B31D1614B31681A783ABB26
:100D70000029B4D104A900254FF4806741F8045D2F
:100D80002B46574A5B4837600CF004FC07460028A6
:100D900078D0356008F080FBA1E709F029FA40B16E
:100DA0000AF03CF90CF0B4FA2B780522DBB2337070
:100DB0002A702B78DBB23370C3E709F019FAC0E769
:100DC00000224C481A700CF061FCD3E7424D4A4BAC
:100DD0002968D3F800904FF0000887F800800029B8
:100DE00067D148460BF070FE1FFA80FCBCF1000F83
:100DF00058D00DF1100A002301944AF8043DDFF8A1
:100E0000D8B0DFF8088164460EE003990BF060FE6D
:100E1000296840460CF066FB002348462B600BF027
:100E200053FE84B2002C3CD000235A465146404623
:100E30002C600CF00FFB2B6830481A46002BE4D1D5
:100E400001232F48019C3B700CF05CFF2D4B186870
:100E50000CF058FF2C4806F013FE85E7224A25487F
:100E60001F4E0121002511701D700CF0E5FA274876
:100E70000CF0E2FA204A184B10681D603560FFF74D
:100E8000FDFE64E73268002A3FF429AF03991B484E
:100E90000BF0F6FD00283FF422AF376008F0FCFAB3
:100EA0001DE7019C2B68002BD0D14846FFF7E6FEDA
:100EB000CCE716480CF016FBC5F8008091E709F066
:100EC00097F900283FF43BAF0AF0A6F837E700BFD8
:100ED000A0170020A11700209C1700207D130020E0
:100EE000BC1B00207C130020801300207E130020F8
:100EF0007F13002020FA010074130020F0F9010094
:100F000010010020E01B0020C01B002014FA01008B
:100F10000D4B1A786AB11A780C49D2B201280A70BE
:100F200008D00CD3022801D103221A7008480CF013
:100F3000E9BE7047022206481A700CF0E3BE012297
:100F400003481A700CF0DEBEA0170020A117002085
:100F50001001002010B50446FFF7DAFF2046BDE877
:100F6000104000F02FB900BF08B5002008F07AF952
:100F700028B1852803D0BDE8084008F08DBA08BD27
:100F800038B50A4C2378054623B10120A840184300
:100F9000207038BD064808F079F908B108F07CFAED
:100FA00023780120A8401843207038BDE41B00209E
:100FB00044FA0100064A137833B1012101FA00F026
:100FC00023EA0003137003B1704708F06DB900BF46
:100FD000E41B00202DE9F0436F4B1A78C0F307455E
:100FE000C0F30724C0B29D70DC701871002A68D06D
:100FF000691E621EC9B2D2B2FD2A88BFFD295E7881
:1010000034D9421ED2B2FD2A8CBF002201226ABB13
:1010100076B1624C62496348012565601F24C0F8BF
:101020000845C1F82025C1F82425C1F828255A70A3
:101030005D4A5E4E00210125907980B15818D7791C
:101040008478107A7FB384BB1F2886BF00F01F000E
:1010500034464FF0A04405FA00F0C4F80C05013105
:10106000032902F10302E7D1BDE8F0834B4AC2F83D
:101070004055C2F84445C2F8480586B948494C4D28
:10108000C1F820554B4C4748C1F82445A5F5A0654B
:10109000C1F828551F240121C0F804451160012220
:1010A0005A70BDE8F083002CCED11F2886BF00F017
:1010B0001F0034464FF0A04405FA00F0C4F80805BC
:1010C000CDE7394ADFF8E48002F109074FF0010E5D
:1010D0009179F9B1117A92F807C00E46BCF1000F70
:1010E0004BD01F2987BF01F01F0CC1468C464FF023
:1010F000A0490EFA0CFCC9F80CC540F2034C1F299C
:101100008ABF01F01F064FF0A041414606F5E07688
:1011100041F826C00332BA42DAD1224A264E274F7E
:10112000C2F81065C2F8147504360437C2F81865A1
:10113000C2F81C7504360437C2F82065C2F824755D
:1011400004365837C2F828651449C2F82C75DFF800
:1011500070C0C2F830650837C2F834C50126C2F83D
:101160001C7900220927C1F80865C1F81075C1F87B
:101170000425C1F84C251E703AE71F2987BF01F0EE
:101180001F0CC1468C464FF0A0490EFA0CFCC9F862
:1011900008C540F2036CB2E7E81B00200090004055
:1011A0000060004000F0014048FA010000030050D8
:1011B00003141100030E1100409100401060004024
:1011C00074600040012801D801F072BE704700BF72
:1011D0000120FFF7D5BE00BF0120FFF7EBBE00BF27
:1011E0004FF08043D3F8380400F00100704700BF8F
:1011F00070B41A4B1B78F3B1194A128842BB022112
:10120000184A01FB03F3A2FB03239B099AB21ABB02
:101210000123154A154D1648C2F84035154CC2F841
:101220004C154FF440660123C5F80465C0F82C4501
:10123000136070BC70470C4C0C490D4A01254FF4EB
:1012400040606560C1F80805C2F82C3570BC704775
:101250000949B1FBF2F1D3E71346DAE71E0100209A
:101260001C0100201F85EB510080004000F0014070
:10127000006000400304020040420F00F8B51B4C20
:1012800023788BBB1A490A7812BB4FF0A046194845
:10129000194D1A4B1027C6F80C75194EC0F8605539
:1012A000A5F50355C0F86865043DA6F50456C0F8D9
:1012B0006455C0F86C65012504260820DD60C3F87C
:1012C0000825C3F81065C3F80425C3F800020D70A3
:1012D000FFF78EFF0120FEF7A9FD4FF0A04203218A
:1012E0000123C2F810172370F8BD00BFED1B0020CA
:1012F000EE1B002000F001404081004000800040D3
:101300004C8100400C4B1A78A2B130B44FF0A0448D
:101310000A4A0B480B490225C4F8105701255560AD
:101320004FF440640022C0F80845C1F82C251A701B
:1013300030BC7047704700BFED1B002000800040AC
:1013400000F0014000600040054B1A88824203D043
:10135000044A1880137803B97047FFF749BF00BFEC
:101360001C010020ED1B0020054B1A78824203D09F
:10137000044A1870137803B97047FFF739BF00BFEC
:101380001E010020ED1B0020024B53F8203003B15A
:1013900018477047F01B0020F0B583B005460C4697
:1013A00017461E4606F004FC38B3012C05D0022C6B
:1013B00003D0032C0CBF032400249DF806308DF8C5
:1013C0000440003718BF012703F0FE0367F3410311
:1013D000DBB243F004030024094A8DF8063001A96A
:1013E00028468DF8054006F0EDFB08B108F054F8EA
:1013F000044B43F8256003B0F0BD06F06FFBD4E763
:1014000089130100F01B0020012106F073BC00BF0E
:1014100006F0ECBC024B002143F8201006F01EBD84
:10142000F01B00200E490B78CBB970B40D4B0E4D5C
:101430000E4C0F480F4A104E2B4423441B1A9B1A84
:1014400003F6FF700D4A0E4D0E4C000B9B1A3060D8
:10145000120B01202B602260087070BC704770472F
:10146000B41C0020100802002003002058080200CD
:1014700010080200100000202401002000E00000FD
:10148000B01C0020200100200048704700E003004D
:1014900008B50F4B1B68834218D83F2816D80003A5
:1014A00000F5805188420FD20268013200F1040336
:1014B00001D007E01346994203F1040204D91B68E6
:1014C0000133F7D007F09EFD002008BD012008BDC4
:1014D0002401002000B50B4B1A6883B0B0EB023F2B
:1014E00001910AD3084A904207D8012201A907F0C6
:1014F000A1FD002003B05DF804FB022003B05DF8FD
:1015000004FB00BF24010020FCFF03004FF08042D9
:10151000D2F81C3523F007031843C2F81C057047A6
:10152000013938B589B2051D044605EB8105204611
:101530000021FFF7CFFF043418B9AC42F7D10120E6
:1015400038BD002038BD00BF38B56FF07F439942E9
:101550000C46054603D0FF2910D0002038BD006896
:1015600003680133F9D1FFF7B5FF0028F5D12B68E7
:101570001868001BB0FA80F0400938BD0068FFF71A
:10158000A9FFB0FA80F0400938BD00BF30B40B7835
:10159000DB43DBB2082203F001045B080CB183F0EB
:1015A0001D03013A12F0FF02F5D18C780822634046
:1015B00003F00104013A5B0814B183F01D03DBB2B0
:1015C00012F0FF02F4D1CC780822634003F001044A
:1015D000013A5B0814B183F01D03DBB212F0FF0285
:1015E000F4D14D880468EA1C921001EB8202944207
:1015F0001AD2806820F003000444A24214D20C1DC9
:101600002544AC4210D014F8010B0822434003F0EB
:101610000100013A5B0810B183F01D03DBB212F048
:10162000FF02F4D1AC42EED14878C01AB0FA80F093
:10163000400930BC704700BF002838D070B58368BF
:10164000D0E900649A08013A23F003030546C46018
:1016500002611E44B4422146284615D223685A1C12
:1016600019D09BB1FFF792FF98B163882A690333C1
:101670009B10013304EB8304B442A2EB0303C5E9DE
:10168000034321462846E9D3012070BD0434EC60B1
:10169000E0E7002070BD043402E01B680133F8D19C
:1016A000A642234604F10404F7D80120EDE7002008
:1016B000704700BF2DE9F04F83B0FEF78BFA674B00
:1016C00067491868DFF89CA100220A600268FF2AB7
:1016D00000F09E80DAF80070D3F808C03968FF295E
:1016E00000F09E805FEA9C0E63D0002319461C46E2
:1016F0001D4601E050F82320AE00013A0332BA59EA
:1017000098BF013402F1FF3203F1010398BFA4B284
:1017100003329BB29CBF013189B273451D46E9D3A8
:101720008C4246D9DAF808C0DFF83081DFF834A1FE
:101730003846B0FBFCF0FFF7ABFEDAF80820DAF829
:10174000003022F003021A4493420CD2196801318E
:101750002CD1043302E00968013127D193421946A4
:1017600003F10403F7D3FEF735FAD8E90145DAF8B7
:101770000490D8F8002025F0030553199C420ED29E
:1017800027687B1E033306D8214640460192FFF7A7
:10179000FDFE019A90B9043453199C42F0D3FEF730
:1017A00019FA5046FFF748FF002844D103B0BDE8BE
:1017B000F08FDFF8B080DFF8A4A0BAE7B4F802B089
:1017C0000BF1030B4FEAAB0B0BF101030193261D49
:1017D0004FF0000B01E056F8047B48463946FFF70E
:1017E00079FE0BF1010B344609F104090028DDD123
:1017F000D8F80850019BD8F8002025F003055B4578
:1018000002EB0501B9D98E42E5D303B0BDE8F08FF4
:10181000DAF800703968013108D0D3F808C061E700
:10182000511C7FF45FAFD0469A4682E7384698460F
:10183000DAF808C07DE76FF07F415046FFF784FE7D
:101840000028B3D0D8F80830D8F80000B0FBF3F087
:10185000FFF71EFE024BC3F800A0A7E72C010020F3
:10186000B81C00204001002030B370B48468D0E977
:10187000005224F003042C440020944214D913682D
:101880005E1C11D093B15388167803339B1001333B
:1018900002EB83038E4208BF10469D4208D29C4251
:1018A00006D91A469442EAD870BC70470432E4E77D
:1018B0009C42E2D170BC7047704700BF38B5184DEC
:1018C00018482C680268236811686FF07F429342C1
:1018D0001DD091421AD001331BD1013119D1A86812
:1018E00020F0030121448C4209D2231D02E012683A
:1018F000013210D199421A4603F10403F7D86FF070
:101900007F410748FFF720FE18B1054838BD9942CE
:10191000FBD1002038BDB4FBF0F0FFF7B9FDEEE7D6
:101920002C0100204001002010B50A4C23680BB1A7
:10193000012010BDFFF7C2FF206018B1FFF77CFE49
:101940000028F5D1FFF7B6FE2068003018BF01204F
:1019500010BD00BFB81C0020424B98422DE9F04753
:101960006BD0414A904203D000242046BDE8F08766
:1019700098460746FF210068FFF7ACFD0028F3D129
:10198000D8F80850D8F8000025F003010144884237
:1019900016D20368013353D1031D1A4602E02468AE
:1019A00001344DD19142144602F10402F7D802E00D
:1019B00012680132D8D18B421A4603F10403F7D3DF
:1019C000D8F804504FF0000A5FFA8AF13846FFF762
:1019D0004BFFA0B1B0F8029009F103094FEAA90941
:1019E00009F10109061F0024284656F8041FFFF7D5
:1019F00071FD013404350028B6D1A145F4D80AF1AF
:101A0000010ABAF5807FDFD1184D002340462B60D4
:101A1000FFF712FE0028A7D06FF07F414046FFF786
:101A200093FD044600289FD03868BB68B0FBF3F0F4
:101A3000FFF72EFDC5F8008097E7DFF82C8098E7C8
:101A4000B0FBF5F0FFF724FDD8F80810D8F8000037
:101A500021F0030101448842B2D20368013383D1EB
:101A6000031DA8E72C01002040010020B81C002025
:101A700038B5FFF709FD0446FFF706FD124A134982
:101A8000134D146000F58053043300F58050043486
:101A9000C1E900035460FFF747FF2B7873B10D4B8A
:101AA000186858B183680268D0E9034123F0030342
:101AB00013441B1BA1EBA301994200D838BDFFF7CB
:101AC0004BFF00232B7038BD2C010020400100206B
:101AD00028010020B81C00202DE9F04F9E4F3B68E4
:101AE00087B0002B00F0D9801646002A00F0D58080
:101AF0008146D01C0C46801091084FF0000A013A34
:101B00000130890092B2DB68019055460291039240
:101B1000B0460093002D40F0CE80D7F800B0494683
:101B20005846FFF7A1FE0135EDB2824618B1438851
:101B3000434500F0DE80DBF80820DBF80030DBF8FE
:101B40000C0022F003021344019A1B1AB2EBA30FFC
:101B500016D9DBF810309A4200F29F80022D00F077
:101B60009C805846FFF7F8FE002800F09680D7F8D2
:101B700000B049465846FFF777FE8246DBF80C0076
:101B80006FEA0903DBB2082203F001015B0809B127
:101B900083F01D03013A12F0FF02F5D183EA080336
:101BA000DBB2082203F001015B0809B183F01D03D9
:101BB000013A12F0FF02F5D183EA1823082203F05C
:101BC00001015B0809B183F01D03013A12F0FF0225
:101BD000F5D104EB080C2146614510D011F8012B1A
:101BE0005340082203F00106013A5B0816B183F066
:101BF0001D03DBB212F0FF02F4D16145EED18DF886
:101C000014908DF81530ADF816800599FFF762FC39
:101C1000002846D13B68D3E903120431013AC3E9F5
:101C20000312029B04EB030B5C4510D03B68216858
:101C3000D868FFF74FFC0028F8D13B68D3E90312BE
:101C400004340431013A5C45C3E90312EED108F0D3
:101C50000303022B7AD0032B61D0012B74D0BAF18D
:101C6000000F0CD0BAF802400334A41001345046DF
:101C70002146FFF755FC3A6813692344136101209C
:101C800007B0BDE8F08FD7F800B0DBF80C30022DBC
:101C900003F10403CBF80C305AD1002007B0BDE8A3
:101CA000F08F3B68002BF8D0DB68DDF800A00093D4
:101CB000002D3FF432AF009BA3EB0A039B109AB2B6
:101CC0004FF6FF718A42DED00AF1040606EB820667
:101CD000D34601E05E45D6D058460021FFF7FAFB17
:101CE0000BF1040B0028F5D00020386007B0BDE8E8
:101CF000F08F21780379994200F104027FF41BAF41
:101D00000399234601EB040C06E013F8010F12F8C7
:101D1000011F88427FF40FAF9C45F6D1AFE7A3784F
:101D20001B04627843EA022321783A681943D06899
:101D3000FFF7D0FB0028B4D13B68D3E9031204318C
:101D4000013AC3E903128AE70023EDE70023E8E73D
:101D5000CDF800A0E3E600BFB81C002038B50F4B5B
:101D60001B68CBB10C46014618461546FFF77CFDB3
:101D7000034688B14088A84228BF284658B11D1D97
:101D8000421E611E033315FA82F413F8012F01F885
:101D9000012FA342F9D138BD184638BDB81C002028
:101DA00030B50A4B0A4C83B00546009103442146E6
:101DB00001226A202570FEF7C1FD08B903B030BDCD
:101DC0000820FEF79DFD03B030BD00BFD01C0020F1
:101DD000BC1C002070B50B4C0B4905462046002664
:101DE0002A4600F8016B0CF0C6FE33466A1C2146F9
:101DF0006A20FEF7D9FD00B970BD0820FEF780FD0E
:101E000070BD00BFBC1C0020D01C002010B5124BC0
:101E10000024214601201C70FEF7FCFC00B910BD17
:101E200020460721FFF7BCFF18B9BDE81040FEF7B8
:101E300039BD0A4B0A4A1A604AF60201E0229A7139
:101E400099800720FFF7C6FF064B01221A70BDE8F4
:101E50001040FEF727BD00BFCC1C0020D01C002086
:101E6000406A8FFAC41C0020704700BF704700BF53
:101E7000014B1878704700BFCC1C0020154B1B7815
:101E80000BB90020704710B5002182B00446012034
:101E9000FEF7C0FCC0B1104B104A1A604AF60201AE
:101EA000E022012C99809A7111D0022C08BF0024E5
:101EB0000720FFF78FFF08B1094B1C700190FEF758
:101EC000F1FC019802B010BD002002B010BD6822E4
:101ED0005A70EDE7C41C0020D01C0020406A8FFA25
:101EE000CC1C0020704700BF2DE9F0412E4B1B7821
:101EF0001BB900273846BDE8F08100210120FEF71C
:101F000089FC0028F5D0DFF8AC80284E0023C8F803
:101F100000301024012501210020FFF741FF074672
:101F200020B3337805FA03F2C3F30113032B02F055
:101F30000F0214D1D8F8003043F00103134218D136
:101F40001343013CC8F80030E5D1DB060AD5184C34
:101F500023788BB1FEF7A6FC3846BDE8F08100235C
:101F6000C8F80030124B00221A70F3E7D8F800309E
:101F7000EBE7C8F80030E8E701210520FFF710FF84
:101F80000028E7D0094B5B7903F00703013B052BE1
:101F9000E0D8DFE803F006060303030302232370FF
:101FA000D8E701232370D5E7C41C0020D01C0020F3
:101FB000D71C0020C81C00200D4B1868C3060ED586
:101FC0000C4B1B78012B11D0022B0CBF01234FF0BF
:101FD000004330F0110207D043F000407047002862
:101FE00018BF4FF000407047184670470223F0E7D3
:101FF000C81C0020D71C0020094B187870B1094B71
:102000001B6853B9084B1878C0F30110012805D09C
:1020100002280CBF0220002070470320704700BF39
:10202000C41C0020C81C0020D01C0020154B1B78AD
:102030000BB90020704700B583B0FEF7ADFB012857
:102040001CD0FEF72FFC00210120FEF7E3FB18B99E
:10205000002003B05DF804FB0B4B0C4A1A604BF6F2
:102060000201E02299809A710620FFF7B3FE0190E9
:10207000FEF718FC019803B05DF804FB2020FEF782
:102080003FFCDEE7C41C0020D01C0020006A8FFA51
:1020900008B5094B1B7803B908BD00210120FEF7E4
:1020A000B9FB0028F8D007210020FFF779FEBDE832
:1020B0000840FEF7F7BB00BFC41C002038B5214C18
:1020C000214B224A21782248002914BF1146194683
:1020D00002F08AF8237803B938BD1E4802F084F86C
:1020E0001D4B1B78012B29D024D3022B02D11B4876
:1020F00002F07AF81A481B4C02F076F81A4802F0FF
:1021000073F8207802F022F8A51D202002F052F882
:1021100014F8010F02F01AF8AC42F6D1134802F09D
:1021200063F8134B134A196812781348BDE8384016
:1021300002F05AB8114802F057F8DBE7104802F0F5
:1021400053F8D7E7C41C0020C4FA0100BCFA010010
:102150005CFA010064FA0100CC1C00207CFA01004A
:1021600080FA0100D01C002088FA010098FA0100D2
:10217000C81C0020D71C00209CFA01006CFA01004A
:1021800074FA0100074B1B6853B10138042807D8C3
:10219000DFE800F0030303030300034A12881A80F8
:1021A000704700BF301D0020D81C002070B5084CBF
:1021B0002346154603F8010B18460CF0DCFC6A1C9C
:1021C000214600235520BDE87040FEF7EDBB00BF5F
:1021D000001D002010B51020FEF792FB044610B140
:1021E0004220FDF723FE204610BD00BF084B1A78A1
:1021F0006AB1084900200A781870074B022A1B6848
:102200009CBF01320A7013B16FF00100184770478C
:10221000541D0020281D00202C1D002070B5164CD8
:10222000237803B970BD0546FEF73CFB13480BF05D
:10223000F9FA032D10D0124A1378022B9CBF0133F8
:102240001370104B1B6800212170002BEAD04FF057
:10225000FF30BDE8704018470B4A094B1078002149
:1022600019702170FFF78EFF064B1B68002BD9D029
:102270000846BDE870401847541D0020341D00205A
:10228000281D00202C1D00202A1D002070B5284B81
:10229000284E294D307082B004462A601960BAB1C8
:1022A00026490020FEF7B6FA70B1013C244B2549BF
:1022B000E4B255201A5D0A7002220092224B0122DC
:1022C000FEF73CFB0546E8B90025284602B070BD84
:1022D00011461046FEF79EFA0028F5D0631EDBB2C9
:1022E000174A1849D25C0A7002220092164B01224A
:1022F0005520FEF723FB88B90025FEF7D3FA2846C0
:1023000002B070BD1149124A124801240C7000231A
:1023100010210BF05FFA284602B070BD1020FEF7C6
:10232000EFFA05460028E7D02046FFF72BFFE4E749
:10233000301D00202A1D00202C1D00201D22010020
:10234000CCFA0100001D0020D81C0020541D0020E4
:10235000ED210100341D00201C4B1B780BB900201F
:10236000704710B584B00446FEF716FA012824D051
:10237000174B1A78CAB900210846FEF74BFA88B104
:10238000002C04A90CBF1223112321F8023D0222C4
:102390000020FFF70BFFA0B90190FEF783FA019828
:1023A00004B010BD002004B010BD002209481A700E
:1023B0000BF038FAFEF776FADDE72020FEF7A0FAF8
:1023C000D6E71020FEF79CFAE6E700BF291D0020A3
:1023D000541D0020341D002070B584B004A90024D1
:1023E000054621F8024D20460222FFF7DFFE10B914
:1023F000002004B070BDFFF7EDFE0028F8D00949B9
:10240000094E0C7002220092334601225520FEF73D
:1024100095FA0028ECD0FFF7DDFE0028E8D03388DD
:102420002B80E6E7001D0020D81C00202DE9F04F8E
:10243000AD4AAE4CAE4D00238BB013701F46032641
:1024400000210846FEF7E6F920B9013EF8D10BB0AD
:10245000BDE8F08F0AA94FF0010821F8108D022283
:102460000020FFF7A3FE18B11020FEF749FA10B9BB
:10247000FEF718FAE9E74FF002094246CDF800905E
:102480009B4B9A4927705520FEF758FA0028EFD049
:102490001020FEF735FA40F221430028E8D02A88C0
:1024A0009A42E5D10AAE26F80E7D3046FFF794FF3A
:1024B00068B1BDF81A30990422D50AA94FF4004337
:1024C00021F80A3D4A460020FFF770FE28B9FEF7C2
:1024D000E9F9884B01221A70B9E7FFF77BFE002863
:1024E000F5D00AA94FF4004321F80C3D0222002048
:1024F000FFF75CFE0028EAD0FFF76CFE0028E6D06C
:102500003046FFF769FF0028E1D0BDF81A3013F418
:102510000050DCD10AA9132321F8083D0222FFF75D
:1025200045FE70B90DF12408202341460222002007
:10253000ADF82430FFF73AFE0028C8D0FFF74AFE76
:10254000C5E7FFF747FE0028ECD0DFF8A491DFF8DD
:102550009C8105264FF4FA774FF47A70FDF766FCFC
:10256000013FF9D1022300934FF0060C4B460122A4
:102570004146552084F800C0FEF7E0F910B9013E4D
:10258000E8D1CFE7FFF726FE0028F8D02B88DA063F
:10259000F5D5594EDFF8589103970DF1240802E064
:1025A000B668002E6CD07778039A3378D6F804A0FA
:1025B00096F802B08DF8162078098DF825000122D2
:1025C0000DF1160161208DF82430FFF7EFFD002892
:1025D000E6D0FFF7FFFD0028E2D0022241463E2070
:1025E000FFF7E4FD0028DBD0FFF7F4FD0028D7D08B
:1025F000C820FDF71BFC202300934FF0400C4B46F6
:1026000001223A4984F800C05520FEF797F90028C6
:10261000C6D0FFF7DFFD0028C2D007F01F072F4408
:1026200038465A4651460CF097FA0028B8D05A4618
:10263000384651460CF09FFAFF270022AB5C01326E
:10264000FF1A202AFFB2F9D149464020FFF7AEFD1C
:102650000028A5D0FFF7BEFD0028A1D00AA90122BD
:1026600001F8117D6020FFF7A1FD002898D0FFF749
:10267000B1FD002894D042F21070FDF7D7FB8FE730
:102680000AA9422321F8063D30460222FFF78EFDBB
:1026900000283FF449AFFFF79DFD00283FF444AF09
:1026A000DFF84CA0DFF8449005264FF4FA774FF49A
:1026B0007A70FDF7BBFB013FF9D102230093062797
:1026C00053460122494655202770FEF737F910B9C5
:1026D000013EEAD128E7FFF77DFD0028F8D02B88DE
:1026E000DB06F5D420E700BF281D0020001D0020D8
:1026F000D81C0020291D0020F4FA0100014B187895
:10270000704700BF291D0020704700BF064B1A7894
:1027100002B9704710B5054800241C700BF082F810
:10272000034B1C6010BD00BF541D0020341D002051
:102730002C1D0020064B1B7813B1064B1B780BB1E8
:10274000002070470A4601460120FFF79FBD00BFE9
:10275000291D0020541D0020064B1B7813B1064B89
:102760001B780BB1002070470A4601460220FFF794
:102770008DBD00BF291D0020541D0020064B1B7875
:1027800013B1064B1B780BB1002070470A46014677
:102790000320FFF77BBD00BF291D0020541D002032
:1027A000064B1B7813B1064B1B780BB1002070470A
:1027B0000A4601460420FFF769BD00BF291D00201D
:1027C000541D0020064B1B7813B1064B1B780BB130
:1027D000002070470A4601460520FFF757BD00BF9D
:1027E000291D0020541D00200120FFF7B5BD00BFAA
:1027F0000020FFF7B1BD00BF10B50A4C0A4B0B4AD1
:1028000021780B48002914BF1146194601F0ECFC51
:10281000237803B910BD074B07481978BDE810406D
:1028200001F0E2BC291D0020C4FA0100ECFA01000D
:10283000D4FA0100281D0020DCFA01002DE9F04F38
:10284000964EDFF8908283B0FFF74EFB357898F80C
:102850000090FFF7D1FB83B20193FEF7C1FC002883
:1028600040F0918004460746DFF86CA29AF80030E9
:10287000002B7AD18A4B1B78022B53D9002389482D
:1028800089498A4ADFF854B203801D460B801380C1
:10289000ABF80030FFF7ECFA2846854FFFF7EEFA69
:1028A0003B78A342337816BF3C7000241024AB421F
:1028B00009D001238AF800303570FDF7A1FA7D4B6D
:1028C00044F0010418607C4BBBF80020188898F88D
:1028D0000010904244D049451A8044F0020403D0CD
:1028E00088F8009044F00404744B224619780020C4
:1028F0000BF0E8F9FFF7CCFB3A78714C7149724B59
:10290000256872482160002A08BF4FF42061019AAF
:102910001A8018BF4FF400710BF05AF8256003B00D
:10292000BDE8F08F53B1DFF8B4B1FFF7A1FA042D81
:10293000B3D8DFE805F0B0B03B312F00594A337807
:10294000128840F647594A458CBF4FF000094FF0B6
:102950000109052BE7D8DFE803F0373F485F622B1A
:102960004945BDD1002CC5D0BEE7524BD3F800B0CD
:10297000FDF746FAABEB000010F5806F44BF002373
:102980008AF8003076E7FFF773FA841E18BF012437
:10299000274669E7022080E7434FB7F90000312856
:1029A0004FF00305D4BF0020012076E7012074E733
:1029B000002F4BD0019B032B55D0FFF759FA01256F
:1029C0000020DFF818B168E79AF80070002FAAD14C
:1029D000B2F5166FF1D2A6E7002FA4D0FFF748FAA0
:1029E00002250120DFF8F4B057E7002FE5D0DFF82B
:1029F000ECB0BBF80030642B31D0019A9AF800306B
:102A0000032A38D0002B90D1274FB7F90030312B53
:102A10008BDCFFF72DFAC0E7002FCED083E7019BB8
:102A2000032BCAD19AF80030002B7FF47CAF264BE1
:102A30001B88032B7FF477AFFDF7E8F9244BDFF811
:102A40009CB018600525FFF713FA26E7FFF710FA88
:102A50000125FFF70DFADFF884B038461DE7FFF7D0
:102A600007FA114F99E7FDF7D1F9194B1B68C31A03
:102A70003B2BA2D857E7002B7FF457AF124B1B8894
:102A8000032B7FF452AFFDF7C1F9114B05251860F8
:102A9000FFF7EEF901E70020FFE600BF641D00200C
:102AA000741D0020601D00205A1D00205E1D0020A6
:102AB0006E1D0020681D0020581D0020621D002092
:102AC00048510020540100206C1D00207C1D002076
:102AD000701D00205C1D0020651D0020561D00207B
:102AE00010B5184B184C1B7800222270042B04D808
:102AF000DFE803F00F21151B0700BDE81040FFF7CA
:102B00009DBE12491248FFF75DFE20700028F4D0E8
:102B100010BD0E490F48FFF70DFE2070F6E70B4978
:102B20000D48FFF72BFE2070F0E708490B48FFF730
:102B300037FE2070EAE705490948FFF70DFE2070CF
:102B4000E4E700BF781D0020791D0020D92B01008B
:102B50005E1D0020601D0020761D0020561D0020F7
:102B60005A1D002070B5038804465BB1B3F5B47FED
:102B70000DD182291DD088290DD0832902D1124878
:102B80000AF048FF4FF4B4732380012070BD002386
:102B90000380032070BD0C4B9A42F3D110460AF01B
:102BA0002BFF0028EED0094B00221A70FFF798FF88
:102BB000E8E7074D074B2E6803482B601A210AF0FF
:102BC00007FF2E60DEE700BF7C1D0020781D00207F
:102BD0004851002054010020094B00221A7038B1DE
:102BE000084A1378022B9CBF01331370FFF726BEEF
:102BF000054A04491378087001331370FFF770BF5A
:102C0000791D0020741D0020781D00201E481F49DA
:102C10001F4AF8B500231F4C03700B8013801E4918
:102C20001E4A1F481F4F204E204D238001240B8039
:102C300014703B7033702B800380FDF7E1F81C4B60
:102C40001860FFF7E3F8FFF7F1FBFFF757FD00B15E
:102C5000F8BD2046FFF712F90425FFF74FFD68B9CC
:102C6000FCF7B8FF4FF4FA744FF47A70FDF7D4F81C
:102C7000013CF9D1FFF7DAFB013DEED10020BDE8C0
:102C8000F840FFF7FBB800BF641D0020601D002066
:102C90005A1D0020561D0020761D0020651D0020B5
:102CA0005E1D0020631D00206E1D0020581D0020A9
:102CB000681D002038B5174C237803B138BDFFF7E5
:102CC0001DFD00B3144D15492B7801200222087018
:102CD0002270DBB112480BF023F818B901461048F6
:102CE0000AF052FF0E480BF00DF8FEF771FAFEF7EE
:102CF00077FA0C4B1870FFF7B7F8FFF705FDBDE842
:102D00003840FFF775BD0123237038BD0AF034FF4A
:102D10002870DFE7631D0020621D0020641D002075
:102D2000540100206E1D002038B51D4C2378E3B1FE
:102D3000022B25D01B4D28460AF0F2FF30B11A4B6A
:102D40001B68AB4202D028460AF040FF174A184BD6
:102D5000107819780025257030B90120107029B13C
:102D600011220021197002E041B938BD1022114B27
:102D700000201978BDE838400AF0A4BF0122F0E72E
:102D8000084DFEF729FAFFF72FFDFFF76FF8FFF761
:102D9000BDFC28460AF0C4FF0028D7D0CFE700BF0B
:102DA000631D002054010020485100206E1D0020AA
:102DB000641D0020621D0020024B1878003018BFEF
:102DC00001207047631D0020044B1B78052B9ABF20
:102DD000034A52F823000348704700BF641D0020D7
:102DE00058FB010070FB0100044B1B78022B01D043
:102DF000FEF7F6B9024B1878704700BF631D00203C
:102E00006E1D0020034B1878A0F10200B0FA80F08C
:102E100040097047641D0020024B1878003018BF2D
:102E200001207047641D0020024B187808B1024B46
:102E300018887047631D0020601D0020034B187820
:102E400010B1034BB3F90000704700BF631D0020B1
:102E50005A1D0020024B187808B1024B18787047B1
:102E6000631D0020561D0020044B187828B1044B28
:102E7000188814288CBF002001207047631D002093
:102E8000561D002008B5FFF797F8014B184008BD04
:102E900003000080014B1878704700BF5C1D0020C4
:102EA000014B1878704700BF631D0020FFF7BEB8C4
:102EB00001480AF027BF00BF54010020704700BF3F
:102EC000F0B583B0FDF7A0FC60B31F4801F08CF9AA
:102ED000FFF7E6FF01282FD032D3022802D11B488A
:102EE00001F082F90A2001F065F9FFF76DFF044651
:102EF000FFF79AFF0546FFF7A1FF0646FFF7AAFF77
:102F00000746FFF7BFFF3346CDE900702A4621464A
:102F10000F4801F069F9FFF7D1F803B0BDE8F040C0
:102F2000FFF76ABC0B4801F05FF9074801F05CF954
:102F3000FFF7B6FF0128CFD1074801F055F9D1E7D7
:102F4000064801F051F9CDE7C4FB0100E8FB0100A0
:102F5000F8FB0100B0FB0100D8FB0100CCFB010035
:102F600010B5038804463BB1862B09D1822927D0AE
:102F7000882909D0832903D086232380012010BD0E
:102F800000232380032010BD1A4B9A42F4D110462F
:102F90000AF032FD0028EFD04FF0A043164AD3F8D4
:102FA000103511786FEA134303F001039942E3D01F
:102FB000124913700022097810460AF083FEDBE7FD
:102FC0000C480AF019FD80B14FF0A0430A4AD3F82B
:102FD000103512786FEA134303F001039A42CBD005
:102FE0000D2104480AF0F4FCC6E702480AF012FD7D
:102FF000EAE700BF901D00208D1D00202452002014
:1030000008B5FCF725FF0248BDE808400AF07ABE83
:1030100060010020144B1A7802BB10B5134C2278C3
:1030200001211970DAB1002111484FF0A0440AF0D3
:10303000ABFD0C230022C4F8403703210D4B1020B8
:10304000FEF7AAF91020FEF7DFF9D4F810350A4A86
:103050006FEA134303F00103137010BD70470AF0C9
:103060008BFD2070DFE700BF8C1D00202452002064
:1030700060010020013001008D1D002010B50C4CB6
:10308000237803B910BD1020FEF7C2F91020FEF717
:10309000C1F908480AF0B0FC28B107480AF096FDCB
:1030A0000023237010BD03480AF0B4FCF5E700BF0D
:1030B0008C1D0020901D002060010020024B18781C
:1030C00008B1024B187870478C1D00208D1D002020
:1030D000FEF7D4B8FEF716B9C82842F2107338BF0D
:1030E000C820984228BF1846FEF72EB9642828BF8A
:1030F0006420FEF739B900BFF0B5144F3B7883B0B8
:10310000BBB9134B134C9D68134E0AE09DF8072082
:1031100023880A2A03F101000DD08B420BD8F25408
:10312000208001210DF10700A847012840F2562117
:10313000ECD003B0F0BD0849084801220024CC546B
:103140003A700AF0DFFD03B0F0BD00BF2020002080
:10315000D0F9010010200020B81D00206C010020D3
:1031600008B5FCF775FE044B044801221A70BDE84F
:1031700008400AF0C7BD00BFA01D00206C01002060
:1031800008B5FCF765FE044B044801221A70BDE83F
:1031900008400AF0B7BD00BF212000206C010020CC
:1031A000F8B5038804463BB140F21715AB4208D18D
:1031B000822918D0882908D040F2171323800120D3
:1031C000F8BD002303800320F8BD2A4B9A42F3D1B7
:1031D00010460AF011FC0028EED04FF0A043402228
:1031E000C3F80825E8E7244B1A7842B100214FF0D4
:1031F000A0421970D2F81055C5F340750DB31F4B9E
:103200001A782AB11E4A12680021197002B190473B
:103210001C4D2B78002BCFD01B480BF048FD1B4BCF
:103220001B4A0146184800F097FD1A4B1B680BB16A
:1032300015489847184A002313802B70FFF75CFF4E
:10324000BAE74023154E124FC2F8083509480AF074
:10325000E1FB30687B6898470F4A3B68104915804E
:10326000032098470F4B30601B68002BC7D098474E
:10327000C5E700BFA81D002021200020A01D0020C0
:10328000A41D002020200020B81D00202CFA0100E1
:10329000D0F9010014200020102000201820002068
:1032A000F93001001C20002038B54FF0A0444FF049
:1032B0008055C4F80C550A20FCF7AEFDC4F808553B
:1032C00038BD00BF094B1A7802B9704710B5084BDA
:1032D00082B0DB68019304460BF0E9FC019B0146D8
:1032E000204602B0BDE81040184700BF1220002061
:1032F000D0F9010000487047B81D002070B52B4C74
:103300002378002B4BD12A4B2A491B68032098476E
:10331000294B1860002842D00123284823700AF066
:10332000FFFC00283CD0264E264D274A27484FF068
:10333000A0440023337013702B7003800C2140F2E3
:1033400003724FF0805540230226C4F8741764209E
:10335000C4F84417C4F80C67C4F80C55C4F87027B7
:10336000C4F80835C4F81827FCF760FD184B012293
:1033700003211D20FEF710F81D20FEF745F8154B20
:10338000012203211120FEF707F81120FEF73CF877
:10339000C4F80C550A20FCF73FFDC4F8085570BD71
:1033A000014606480AF0F0FBBDE700BF12200020EE
:1033B000D0F90100F9300100182000206C01002034
:1033C00021200020A01D002020200020102000200F
:1033D0008131010061310100164B1A784AB310B5F2
:1033E0001549164A164C0868526800211970904712
:1033F00020460AF095FC30B1124B1B68A34202D064
:1034000020460AF0E3FB1120FEF702F81120FEF738
:1034100001F81D20FDF7FCFF1D20FDF7FBFF4FF01D
:10342000A0430222C3F81827C3F87027C3F80C275B
:1034300010BD70471220002018200020D0F9010094
:103440006C01002048510020014B1878704700BFE4
:103450001220002038B54FF0A043074C0748402207
:10346000C3F80C252568064B23604FF480710AF0E1
:10347000AFFA256038BD00BF48510020A81D0020CC
:103480006C0100204FF0A04308210322C3F8081567
:10349000C3F80C27704700BF4FF0A0430222C3F8C7
:1034A0000C277047014B1860704700BF14200020A4
:1034B000014B1860704700BF1C200020014B1860B2
:1034C000704700BFA41D0020FDF784BDF0B4334B4E
:1034D0001A78FF2A08D1324B1A682AB1314B1B687F
:1034E0009A4294BF022201222F490B681D460846CA
:1034F00005F8122B92B32A4E32687AB329480D6030
:10350000046870685C74C4F30725D6E902171D745B
:10351000C4F30745C4F307649C73C0F307245871D0
:103520001C71C0F30744C0F30760C1F307265A7348
:10353000DD73DC70C1F30745C2F30724987059723C
:10354000C2F30740C1F30761C2F307625F701E72E6
:10355000DD7199711C73D8729A721CE0134A144978
:1035600012680560891AC1F307250022C1F30744D8
:10357000C1F3076059731D73DC7298725A705A71E7
:103580001A71DA709A705A721A72DA719A715A74E0
:103590001A74DA739A73F0BC704700BF7901002087
:1035A000000000206420002040200020682000202F
:1035B00000F0020038B50C4D0C4C2868216804302E
:1035C000091A03F011FE236829685870C0F3072018
:1035D00003F8020B581A021F92B2C2F30725CA70F1
:1035E0008D70236080B238BD342000204020002040
:1035F00038B5064C06490546072220680BF0BBFA91
:103600002368044ADD710833136038BD342000207C
:1036100064FC01004020002008B5044B1B6803B186
:103620009847BDE80840FCF799BC00BF3C2000204B
:1036300008B52120FFF7DCFFFFF748FFBDE8084091
:10364000FFF7B8BF10B50446EE20FFF7D1FF044ADC
:1036500013681C7001331360BDE81040FFF7AABF68
:103660004020002030B53D4C014683B02068002941
:103670006BD0CB7B8D7B4A7B8DF804300B7B8DF838
:1036800005508DF806208DF80730019BC370C3F3F9
:103690000725C3F30742C3F30763857042700370C5
:1036A00091F8473091F8465091F845208DF8043054
:1036B00091F844308DF805508DF806208DF80730CC
:1036C000019BC371C3F30725C3F30742C3F3076329
:1036D000857142710371CD7C8A7C4B7C8DF80450DE
:1036E0008DF805208DF806300B7C8DF80730019B96
:1036F000C372C3F30725C3F30742C3F3076385729D
:1037000042720372CB7E8D7E4A7E8DF804300B7E32
:103710008DF805508DF806208DF80730019BC37396
:10372000C3F30725C3F307428573C3F3076300F1AF
:103730001005427303731C312846282225600BF0C4
:10374000D0FA23682833236005E03822FAF7EAFD2F
:1037500023683833236003B030BD00BF4020002011
:103760002DE9F041054618461E460C4617460BF05B
:103770009EFAEB680146304698477FB10A4E2744CF
:1037800023786A691B09F05C904714F8013B6A6969
:1037900003F00F03F05C9047BC42F1D16B690A2043
:1037A000BDE8F041184700BF880002002DE9F04F46
:1037B000DFF8208398F8004085B0002C40F0FB80B3
:1037C0008946B749DFF810A3B64C0746002A0878A7
:1037D000226008BF0023CAF80030002840F0D480DF
:1037E000B14D0123B5F5007F0B7033D3AF4EB04B15
:1037F0004FF4007405F5907B02E00434AC4229D804
:103800002268B242F9D1A279511E0129F5D8012AC4
:10381000194600934FF0040214BF5B460023204674
:1038200001930BF099F9009B0028E6D1E17CA27C82
:103830008DF80C108DF80D20617C227C8DF80E1017
:103840008DF80F20039A0199C2F1480222448A425E
:1038500001D0D2E70024974E974D3460FCF7C6F9AB
:10386000964C3368286000222260002B31D093F8F8
:1038700047208DF80C2093F8451093F8442093F8D6
:1038800046008DF80E108DF80F208DF80D00DA7CB3
:10389000DDF80CB0997C8DF80C205A7C1B7C8DF8DF
:1038A0000F308DF80E208DF80D100399042988BF74
:1038B0000439009104F08AF800990246002004F0CF
:1038C00089F804F09DF8834517BF0023286828680D
:1038D000336070B390F847308DF80C3090F8461094
:1038E00090F8452090F844308DF80D108DF80E209A
:1038F0008DF80F30C37CDDF80CB0817C8DF80C3076
:10390000427C037C8DF80F308DF80D108DF80E2061
:10391000039E042E88BF043E04F058F83146024648
:10392000674804F057F804F06BF8834564D000232F
:103930002B60644B266800221A602EB306F6FF73D4
:1039400023F47F6323F00F035F4AD11AB14206D2FA
:1039500006F6FF7323F47F6323F00F03D31A584D49
:10396000042E1D4488BF043E04F030F83146024660
:10397000284604F02FF804F043F8A3688342534B21
:103980000CBF226800221A60514CB9F1010F276068
:1039900026D93B467A7813F8021B8DF80D108DF866
:1039A0000C20BDF80C202360B2F55F4F07D0DAF889
:1039B00000300A2B1ED8002005B0BDE8F08FB9F109
:1039C000090F0DD9FA78BB788DF80D308DF80C20E1
:1039D000BDF80C20A9F10403381D9A42206029D0BB
:1039E000DAF800300A2BE6D9012005B0BDE8F04F27
:1039F000FFF728BE0220F8E72B682668002B98D036
:103A0000DA7C997C8DF80C205A7C1B7C8DF80E207A
:103A10008DF80D108DF80F30039B2A4A03F6FF73C3
:103A200023F47F6323F00F031360002EACD0B34266
:103A30008AD883E7A9F106052946A9F1020903F00E
:103A4000D3FB07EB090217F8093052788DF80C20E8
:103A50008DF80D30BDF80C30984205D0DAF8003002
:103A60000A2BA8D90320C0E723681A46597812F810
:103A7000030B8DF80D0098788DF80C10012822604A
:103A8000BDF80C1002D000F5004095E74BF6C86277
:103A9000914223D0DAF800300A2B8CD90420A4E715
:103AA0002C20002034200020E0DE00004649530096
:103AB00060FC0100282000202420002000000020BD
:103AC00000E000006820002000F0020064200020D8
