:040000031000B2A98E
:020000040000FA
:10E0000000000420A9B20100D1B20100D3B2010086
:10E01000D5B20100D7B20100D9B201000000000062
:10E02000000000000000000000000000DBB2010062
:10E03000DDB2010000000000DFB20100E1B201002A
:10E04000D9BE0100E3B2010015170100E3B20100DF
:10E050007DC6010095AE0100EDB60100E3B20100FE
:10E06000E3B20100E3B20100E3B20100E3B2010058
:10E07000E3B20100E3B20100E3B20100E3B2010048
:10E0800065BC0100C9B90100E3B20100E3B20100BF
:10E09000E3B20100E3B20100E3B20100E3B2010028
:10E0A000E3B20100E3B20100E3B201000DBC0100E4
:10E0B000E3B20100E3B20100000000000000000034
:10E0C000E3B20100E3B20100E3B20100E3B20100F8
:10E0D000E3B20100E3B20100E3B201003DE501005B
:10E0E000891C0100E3B20100E3B20100000000005E
:10E0F00000000000E3B2010000000000E3B20100F4
:10E10000000000000000000000000000000000000F
:10E1100000000000000000000000000000000000FF
:10E1200000000000000000000000000000000000EF
:10E1300000000000000000000000000000000000DF
:10E1400000000000000000000000000000000000CF
:10E1500000000000000000000000000000000000BF
:10E1600000000000000000000000000000000000AF
:10E17000000000000000000000000000000000009F
:10E18000000000000000000000000000000000008F
:10E19000000000000000000000000000000000007F
:10E1A000000000000000000000000000000000006F
:10E1B000000000000000000000000000000000005F
:10E1C000000000000000000000000000000000004F
:10E1D000000000000000000000000000000000003F
:10E1E000000000000000000000000000000000002F
:10E1F000000000000000000000000000000000001F
:10E2000010B5054C237833B9044B13B10448AFF370
:10E2100000800123237010BD700300200000000067
:10E22000086E020008B5034B1BB103490348AFF366
:10E23000008008BD0000000074030020086E02008A
:10E24000154B002B08BF134B9D46A3F5803A0021C8
:10E250008B460F461348144A121A00F063F80F4B0E
:10E26000002B00D098470E4B002B00D09847002081
:10E27000002104000D000D48002802D00C48AFF327
:10E28000008000F02BF82000290002F07BFA00F05B
:10E2900011F800BF0000080000000420000000008A
:10E2A00000000000700300200C720020000000003D
:10E2B0000000000008B5074B044613B10021AFF37E
:10E2C0000080054B1868836A03B19847204600F028
:10E2D00031F800BF00000000E43A020070B50D4EB6
:10E2E0000D4CA41BA4100025A54209D10B4E0C4CCB
:10E2F00015F0ECFBA41BA4100025A54205D170BDB0
:10E3000056F8253098470135EEE756F825309847FE
:10E310000135F2E76803002068030020680300204D
:10E320006C03002002440346934200D1704703F877
:10E33000011BF9E7FEE700BF704700BF10B51848A2
:10E3400007F0F6FE01F05AF9164813F04FF902F003
:10E3500091FD02F037F906F0FBF806F031F91248AA
:10E3600007F0EEFF642141F2680002F09FF91424E7
:10E370004CF2503002F0AAFE013CF9D102F0E0F973
:10E3800007F0BAFC07F0F6FB03F0BEFB07F09CFDBC
:10E390000AF0EEFE08F01EFE02F06CFDFCE700BF86
:10E3A000F03C0200E80400200040FF0000B52D4BC7
:10E3B00093E80300ADF5037D4FF4FD720290ADF8D4
:10E3C0000C100DF10E000021FFF7ACFF0AF0FEFE6D
:10E3D0000C230DF10D0206210CF0CAFA002322498C
:10E3E0008DF8193002A814F0CBFE0AF001FF08B135
:10E3F000037863BB1D4902A814F0C2FE1C4902A8A1
:10E4000014F0BEFE0AF0F8FE08B1037823BB1749EA
:10E4100002A814F0B5FE174902A814F0B1FE0023BB
:10E420000093CDF803300AF0D1FE062201460DF12B
:10E43000010014F028FE684607F094FF02A802F0DD
:10E44000CBFC07F08DFF0DF5037D5DF804FB014665
:10E4500002A814F095FED1E7014602A814F090FE40
:10E46000D9E700BFE83A0200383D0200403D020013
:10E47000443D02003863020010B5044609280AD85A
:10E48000DFE800F00A0A0D1114171A1D200502F02A
:10E49000D9F8104B1C7010BD01F026FDF9E70E48AD
:10E4A00001F04CFFF5E701F055FFF2E701F07CFFCA
:10E4B000EFE702F01BF8ECE702F02CF8E9E701F0D7
:10E4C00061FDE6E7054A064B1168187802F076F818
:10E4D000DFE700BFB5040020A0030020E004002017
:10E4E000E404002070B5534D2C780AF08DFE0378BB
:10E4F000F3B10AF0E1FE98B14F4B504E1878092461
:10E5000001F09CF82B78A34204D1337813B900238F
:10E51000337070BD2046FFF7AFFF0023337070BD2E
:10E52000474B1B7893B1444B444E18780824E7E7D7
:10E53000444A13700AF068FE0378002BD9D10AF020
:10E5400071FE0028D5D101F073F8D2E70AF064FE1D
:10E5500038B1022001F06CF8374B384E187803249C
:10E56000CEE70AF051FE037893B108F0E3FF0128EB
:10E570000ED8022001F05CF80AF046FE314C4278D9
:10E5800023789A423FD12C4B2C4E18780424B7E7BD
:10E590000AF03AFE037843B908F0CCFF022804D110
:10E5A000254B264E18780524AAE70AF02DFE03789D
:10E5B0008BB108F0BFFF02280DD101F039F80AF045
:10E5C00023FE204C427823789A4227D11A4B1B4EC7
:10E5D0001878062494E70AF025FE50B91A4B164A1B
:10E5E0001B78107863B9002814BF02240124134E4D
:10E5F00086E7012001F01CF80F4B104E18787FE7DA
:10E600000E4E07247CE70AF0FFFD0C4E42780A4BC1
:10E610002270012232701878042471E70AF0F4FDA8
:10E62000064E4278044B227001223270187806247C
:10E6300066E700BFB5040020A00400208C03002082
:10E64000E4040020080500207400002038B509F01B
:10E6500033F9857908F06EFFA0B19DB1012D044614
:10E660001ED0022D18D1012834D0022814D109F06F
:10E6700023F9447A09F020F92146027A032001F0B7
:10E680000BF809E009F018F9447A09F015F9214668
:10E69000027A002001F000F8BDE83840FFF722BF01
:10E6A00001280CD00228F7D109F006F9447A09F0C4
:10E6B00003F92146027A042000F0EEFFECE709F0AE
:10E6C000FBF8447A09F0F8F82146027A022000F0BB
:10E6D000E3FFE1E709F0F0F8457A09F0EDF82946A3
:10E6E000027A204600F0D8FFD6E700BFFFF7AEBFA2
:10E6F00008B507F037FD08F0DFFC0A2008F0C2FC7F
:10E70000FFF7A4FF01F052FABDE8084001F00EB88F
:10E7100038B53D4C637833B9636923445B780BB9F2
:10E720006370636138BD3949601C14F045FD40B326
:10E73000374B1B78013B072BEED801A252F823F090
:10E74000AFE7000061E7000019E70000E5E700001F
:10E75000F9E7000019E7000089E700007BE7000007
:10E760002C492D4814F028FD38B92C4B1A7802B1E9
:10E77000187001F0C9FFFFF7B5FE274808F0C6FB87
:10E78000CAE707F0A3FDC7E72549234814F014FDA5
:10E7900005460028C0D107F0E7FD224B22481D7036
:10E7A00013F01CF801F0B0FFFFF79CFEB4E71C4922
:10E7B000194814F001FD0028DFD101F0A5FF00F099
:10E7C000C1FF05F0FBFE0028A6D0FFF7EFFD154BBB
:10E7D000154801224FF470511A7012F0DDFFFFF757
:10E7E00081FE99E70B490C4814F0E6FC002893D110
:10E7F000012000F01DFF8FE70949074814F0DCFCF9
:10E80000002889D0B9E700BFB8040020003D02000D
:10E81000B50400200C3D0200B9040020A004002033
:10E82000043D020074000020A404002070B5048898
:10E8300040F20446B44282B005464CD040F2334325
:10E840009C4233D024B100230380032002B070BD6A
:10E8500021462822AF48FFF765FDAF4AAF4BB049CC
:10E86000B04814701C70B04AB04B0C7014701C701F
:10E87000047000F0A3FE00F05BFCAD4809F02EF937
:10E88000AC4809F031F9AC4808F048FEAB4808F054
:10E890004BFEAB4808F04EFAAA4B22461868852179
:10E8A00013F0F4F801202E8002B070BD82290CD044
:10E8B000A54B1B788B4233D0A44B1B788B4200F0C6
:10E8C000AA80882977D083296ED040F23343012073
:10E8D0002B8002B070BD852902D0012002B070BD2E
:10E8E00007F00EF907F010FA0AF01CFC46F6FF508C
:10E8F0000AF05CFC96480AF053FC96480AF0D6FCF5
:10E9000007F098F900BB07F003FD07F0E9F910B133
:10E9100007F090F980B107F0A3FA01F0F5FED4E713
:10E92000D00635D491071ED1530707D507F0D8F983
:10E9300020B107F07FF908B9FFF700FD07F092F961
:10E9400028B900F0A3FEC0E707F0D8FCDDE707F028
:10E9500071F9002800F09E8007F0BAF9002800F055
:10E96000C6800420EDE7019201F08AF80AF098FCD5
:10E970000128019AD8D107F075F9019A002840F0D2
:10E98000BD804FF0FF3001920AF06EFC019ACBE798
:10E99000019201F0B9FE07F04DF9019A00287CD0F0
:10E9A00007F0ACFC019ABDE76B4812F017FF6B480B
:10E9B00012F01CFE89E7684B9A4273D0554C04F163
:10E9C00018039A4200F08180654B9A427FF47DAF34
:10E9D000104612F0F5FE00283FF477AF00F00EFE6F
:10E9E0005E4812F003FE02F045FA01F0FBFB05F071
:10E9F000AFFD05F0E5FD07F07FF907F0BBF803F088
:10EA000083F807F061FA0AF0B3FB08F0E3FA002399
:10EA10002B8002201AE707F077FA3E4C18B32178D2
:10EA200000297FF452AF637801222270002B5CD062
:10EA300063690F2B58DC9A18991C2344A0182144B1
:10EA400053265E70626100235F2242704B70FFF7B5
:10EA50005FFE6378002B3FF438AF4FF400714148FC
:10EA600012F09AFE31E72378002B3FF42EAF636952
:10EA7000207023445A785F2A04BF2E225A70FFF771
:10EA800047FE6378002B3FF420AF6621354812F033
:10EA900083FE1AE707F00EF953E7019207F038FCFE
:10EAA000019A3FE7104612F08BFE00283FF40DAFAD
:10EAB00007F05AFC184B194A1B780021072B1170DC
:10EAC0007FF403AFFFF70EFDFFE6104612F078FE6D
:10EAD00000283FF4FAAE2378A3B963691C440023ED
:10EAE0006370FFF715FEF0E60B460221A5E707F07D
:10EAF000AFF800280CBF0320022022E707F0D0F86F
:10EB0000019A40E701F000FE6369002BE9DD4C2229
:10EB1000E254E6E7B8040020B504002074000020A9
:10EB2000A00400208C030020A0030020B4040020D7
:10EB3000F1E600001DEF000039E30000EDE6000003
:10EB400069EB0000AC660020A43200201A7100209E
:10EB50008DEC000055EC0000A4040020E804002027
:10EB600090030020D00400202DE9F0410378324DBD
:10EB7000022B044695F8008028D0304E3778BB42EF
:10EB800005D0032B32D0032F48D0022F0AD04346A2
:10EB900053B12B4B01221A70FFF7A4FC237833707A
:10EBA000BDE8F08100232B70264812F01FFD0020E5
:10EBB00000F04AFD2B78002BEBD1B8F1000FE8D123
:10EBC00000F066FF23783370BDE8F081012000F08B
:10EBD0003BFDE3781C4A1D490533A2FB0323DB08F8
:10EBE00001220B602A707BB9144ED2E7022000F09C
:10EBF0002BFD022100232970154A12484FF4407161
:10EC000012F0CCFC2B78C3E70023114A0D480B4EC1
:10EC100040F2B31112F0C2FC2B78B9E7384600F08D
:10EC200013FD00230A4A07482F704FF4407112F079
:10EC3000B5FC2B78ACE700BFE4040020A104002061
:10EC40008C030020E8040020CDCCCCCCE0040020D4
:10EC5000BDEE000010B5044608F076F800B110BD16
:10EC6000204608F047FF0028F9D1064920460BF05E
:10EC700049FB0028F3D021460348BDE8104008F0C6
:10EC80001BBA00BF103D0200E8480200C20770B581
:10EC9000044600F1D980A30700F1B280E60600F136
:10ECA0009D8065076BD4200779D4A10600F1888088
:10ECB000620600F18D8023065BD4E60545D4A505E8
:10ECC0003CD4600527D421051CD4A2040FD46304CE
:10ECD00000D470BD4FF480400AF070FA07F042FA99
:10ECE00008F0EAF90A20BDE8704008F0CBB94FF40B
:10ECF00000500AF063FA0AF0DFFA00F01DFDFFF79A
:10ED0000F1FBE4E74FF400600AF058FA0AF090FAD9
:10ED100000F00CFFD9E74FF480600AF04FFA0AF0D8
:10ED200097FA0028CFD15B4D5B4B2E685B482B6078
:10ED30004FF4C07112F030FD2E60C4E74FF4007044
:10ED40000AF03CFA0AF080FABBE74FF480700AF050
:10ED500035FA0AF083FA00F0E3FC00F0E7FC504BD0
:10ED60001B781BB1012BAAD14E4A1370FFF7BAFBD7
:10ED7000A5E780200AF022FAFFF7B4FB9DE7042004
:10ED80000AF01CFA0AF034FA454B1B781BB1012B30
:10ED900089D1444A1370FFF7A5FB200785D50820C9
:10EDA0000AF00CFA0AF028FA3D4B1B78012B7FF48D
:10EDB0007CAF3C4A1370FFF795FBA1067FF578AF57
:10EDC00020200AF0FBF9FFF78DFB62067FF573AF99
:10EDD00040200AF0F3F9FFF785FB6CE710200AF0FA
:10EDE000EDF90AF00DFA054600283FF45AAF2E4E11
:10EDF0000146304614F0E0F968BBFFF773FB50E7BB
:10EE000002200AF0DBF90AF04BFA00283FF446AF83
:10EE1000264B1A789ABB0AF043FA01287FF43EAFDA
:10EE20000AF04AFA00F088FC06F01CFF78BB4FF0AD
:10EE3000FF300AF019FA1E4807F07AF9194B01223F
:10EE40001A70FFF74FFB29E701200AF0B7F91948BC
:10EE500007F07AFF1FE7FF222946304614F0D8F961
:10EE60003378002286F8FF2073B10D4B12491A78CF
:10EE70000123022A0B70C0D10A4A1370BDE7002299
:10EE80001A7000F039F9C6E70B4A1370B5E706F0BF
:10EE900007FFCEE7AC66002078000020900300203A
:10EEA000B50400208C030020A0030020B40400203F
:10EEB000243D0200183D0200A0040020124A1378ED
:10EEC000012B0AD008D3032B13D8104901200023AB
:10EED00008701370FFF706BB704710B50C4C0B4958
:10EEE00022680B70013A2260FFF7FCFA23680BB925
:10EEF00010BD70470023074A07484FF48071BDE8F2
:10EF0000104012F04BBB00BFE40400208C03002033
:10EF1000E0040020BDEE0000E8040020704700BFC0
:10EF200008B50AF0BDF918B9034B01221A7008BDE3
:10EF3000BDE8084000F0E0B8B404002038B5054C46
:10EF4000054B256805482360002112F025FC25604B
:10EF500038BD00BFAC660020780000209003002080
:10EF600038B50AF033F9441E451D14F8010F08F0B6
:10EF700055F8AC42F9D138BD08B50BF0ABF920B962
:10EF80000120BDE8084008F0A9B8BDE80840FFF737
:10EF9000C7BF00BF10B509490BF03AFA60B104468B
:10EFA00014F01CF9064B074A00F10801A4F108000F
:10EFB000BDE8104007F094BE10BD00BF703D0200D8
:10EFC0004C480200F047020010B51349ADF5816DC1
:10EFD0000BF01EFA78B102A94FF400720BF0C4FCDA
:10EFE00000230146009382AA02A84FF4007308F0A0
:10EFF0002BFF044610B90DF5816D10BD074808F0D0
:10F000005BF8214682A808F01DF80A2008F03AF8BB
:10F010000DF5816D10BD00BF703D0200643D020022
:10F02000014807F085B800BFD83D020008B50A487E
:10F0300008F042F8094808F03FF8FFF791FF43F65F
:10F040000D61074808F038F80A2008F01BF8BDE801
:10F05000084006F05BBE00BFA03D0200B43D0200C8
:10F06000B83D020010B504460BF034F908BB1A494C
:10F0700020460BF047F988B9184920460BF042F9B1
:10F0800060B9174920460BF03DF9B8B120460BF0A6
:10F090002BF914490BF036F9B0B910BD124807F03E
:10F0A00047F8204607F044F81048BDE8104007F044
:10F0B0003FB80120BDE8104008F010B821460C48C8
:10F0C000BDE8104007F0F8BF0A4807F031F8BDE886
:10F0D0001040FFF733BF00BF743D0200803D0200C7
:10F0E000843D0200883D0200783D02003863020042
:10F0F000903D0200F03C020010B50B4807F0DCFF29
:10F10000FFF72EFF0AF06CF804460AF06DF821466E
:10F11000034643F60D62054807F0CEFF0A20BDE81E
:10F12000104007F0AFBF00BF683E0200743E02000F
:10F1300008B507F031FF0A4807F05AFF094807F001
:10F1400057FF094807F054FF084807F051FF0848E7
:10F1500007F04EFF0748BDE8084007F049BF00BF71
:10F16000D4000020A4000020B4000020940000205F
:10F1700084000020C40000207C4A831E10B510705B
:10F18000082B06D8DFE803F00925696D394A595D77
:10F190007600774B774A1A6010BD774B1B78022BAD
:10F1A00000F09180012B6FD0744B1B78032B00F083
:10F1B0009980042BF0D1724B724A1B781278002B85
:10F1C00040F0A6806A4B002A40F0C3806E4A1A6065
:10F1D00010BD6A4B1B78012B79D0022BDCD1684B18
:10F1E000684A1B781278002B40F09780604B002A09
:10F1F00040F0B280654A1A6010BD654B1B78042B45
:10F20000CAD801A252F823F093F1000099F200004D
:10F2100091F20000BFF20000B7F200005D4A5E49C3
:10F2200010785E4B524A002818BF0B46136001F05D
:10F230003DFF5B4B0830186010BD4D4B594A1A60BA
:10F2400010BD594A1378022B57D0032B16D0012B2F
:10F25000A2D1474B554A1A6010BD454B544A1A601B
:10F2600010BD434B534A1A6001F020FF524B1E3031
:10F27000186010BD3E4B514A1A6010BD3C4B5049BE
:10F2800019600023137010BD394B4E4A1A608BE78A
:10F29000374B4D4A1A6010BD4C4C01F007FF2368F4
:10F2A0009842334B5BD24A4A1A6001F0FFFE494B49
:10F2B0003C30186010BD2E4B474A1A6010BD2C4BD5
:10F2C000464A1A6010BD2A4B454A1A606CE72C4B1F
:10F2D0002C4A1B781278B3B9254B002A36D0414A04
:10F2E0001A6010BD264B274A1B781278D3B9204BE1
:10F2F000002A28D0334A1A6010BD1D4B3A491960C4
:10F300000023137010BD1A4B8AB9384A1A6010BD19
:10F31000174B7AB9364A1A6010BD154B6AB9354A8F
:10F320001A6010BD124B5AB9334A1A6010BD334AE5
:10F330001A6010BD324A1A6010BD324A1A6010BD00
:10F34000274A1A6010BD304A1A6010BD2F4A1A6051
:10F3500010BD2F4A1A6010BD2E4A1A6010BD2E4AE9
:10F360001A6001F0A3FEF03020609EE751050020F6
:10F3700040050020683F02000A0500204D050020DE
:10F380004E0500204F0500200440020054400200BA
:10F39000100500200B050020D83E0200704002003E
:10F3A0000C050020583F020052050020B840020022
:10F3B0005C400200703F020048050020903F0200C0
:10F3C00098400200C43F0200183F020014050020CC
:10F3D000283F020018050020F83E0200F03E02001F
:10F3E000B03F020024400200804002000C400200B6
:10F3F000EC3F02003C4002009C3F0200184002002B
:10F40000F43F020044400200D83F020030400200B6
:10F41000FC3F02004C400200403F0200294B1A789A
:10F42000002A2CD1284B1B78991E012936D927494F
:10F43000087840BB264A1278002A31D110B5254CF5
:10F440002278911E022927D9012B35D0224B1B7817
:10F4500043BB224B1B78D91E012923D9013B012B29
:10F460002CD91F4B1B78FBB9012A0FD001F01EFECF
:10F470001C4B1B6898422CBF0720002010BD0022A7
:10F480001A70042070470A700820704701F00EFEC1
:10F49000154B1B689842E9D3062010BD0920704720
:10F4A0000A207047022010BD01F000FE0F4B1B68C0
:10F4B000984205D22278D7E7092010BD032010BD5D
:10F4C000052010BD50050020520500201C0500201D
:10F4D0004C050020100500200A0500204D050020E5
:10F4E000440500200C0500201805002048050020D8
:10F4F00010B51E4C236833B3188800B910BD9B7833
:10F500001B4A03F00F0352F8230006F019FF23688B
:10F510009B7813F0F00F18D101F0E6F82368DA7841
:10F5200012F0010F4FF0A04217D10221C2F8441788
:10F530001988104A1048002312F030F82368043369
:10F540002360012010BD184610BD1B090B4A642121
:10F5500032F8230001F0AAF8E0E703204FF400316D
:10F56000C2F84407C2F80C15E2E700BF40050020CE
:10F57000B03E020081F5000020050020A43E0200FC
:10F5800010B5FFF7B5FF00B110BDFFF747FF084BFF
:10F590001870FFF7F1FDFFF7ABFF0028F4D1034629
:10F5A0000146044A0448BDE8104011F0F7BF00BF0F
:10F5B0005105002081F500002005002010B50A4B00
:10F5C0001C7804B110BD012220461A7006F0B8FE66
:10F5D000064B07491960074A074823462146BDE8FC
:10F5E000104011F0DBBF00BF0905002040050020DE
:10F5F000683F020081F50000200500200A4B1A78C0
:10F6000002B9704710B5094800241C7011F0EEFFD4
:10F61000204606F095FE01F093F84FF0A043022239
:10F62000C3F8442710BD00BF0905002020050020B5
:10F63000014B1870704700BF0A050020014B18707D
:10F64000704700BF440500200C4B1A78824203D05B
:10F650000B4A1870137803B9704710B5FFF7DEFE38
:10F66000092800D010BDFFF787FD00231946054A81
:10F670000548BDE8104011F091BF00BF52050020C1
:10F680000905002081F5000020050020014B1870BD
:10F69000704700BF1005002070B51A4C23788342D4
:10F6A000194B27D0194D1A4E2070307819702A70D6
:10F6B00000B970BD174DFFF7B1FE2B7883420DD016
:10F6C000821ED2B2012A02D9023B012B06D80023A6
:10F6D00028701946104A114811F060FF06F092FA9E
:10F6E0000028E6D02078003018BF0120BDE8704027
:10F6F00003F0B6BF1D788D42044DD4D12E789642CA
:10F70000D1D170BD4D0500204E0500204F050020D1
:10F71000090500205105002081F50000200500208A
:10F72000014B1870704700BF0B050020014B0122F0
:10F730001A7070471C050020014B1870704700BFFD
:10F740004C050020014B01221A7070475005002023
:10F7500030B585B00146684605F064FA039C019D0A
:10F760000134294623469022002005F071FA291918
:10F77000002005B0BDE8304004F0A4BF2DE9F043FF
:10F7800087B0074604A8894604F0BEFF134BDFF894
:10F7900050805D68D8F80410DDE904646D00691AD2
:10F7A00004EB51014246304605F086FAD8F80000D5
:10F7B000C0F190022B46921B2146304404F0B6FF64
:10F7C000012005F00FF86846494605F02BFA2C4455
:10F7D0003846C7E9006407B0BDE8F083EC49020091
:10F7E000504302002DE9F04106F05AFA074606F0B0
:10F7F00039FA044606F06CFA054600F0030614B127
:10F80000002E00F0898000204B4FD7F800E0BEF1B9
:10F81000040F16D8DFF838C11CF80E3083420DD81B
:10F820000EF1010304E01CF80310814204D81346D2
:10F83000052B03F10102F6D13B6003E0BEF1000F9E
:10F8400014D073465A1E3D4911F802C0844538BF92
:10F850001A460CD3023B0B4404E013F801C960457F
:10F8600065D80A46511E002AF7D13A600022DFF817
:10F87000E480964598F8013050D0314A1470002B3E
:10F8800052D1304A0021772005F016FA3A68C2EBCF
:10F890008272920012F1140722D184B326B998F82B
:10F8A0000130C3B9BDE8F081274A284B15F0020F9B
:10F8B00018BF1346D3E90001C1F10901C0F11400DA
:10F8C000490840081A460231793005F0F5F998F8F0
:10F8D0000130002BE6D00120BDE8F04104F036BE37
:10F8E000002004F0C7FEC7F18D0009233A4602212B
:10F8F00004F07EFF022004F0BDFE002CCED10A23CE
:10F90000862202217E2005F067FA022386220A2140
:10F910007E2005F061FAC2E7B8B275E74BB1084B3B
:10F920001A78A242BED01C7004F012FEA9E73A6019
:10F930009DE7034B1C70A4E754050020C84002005B
:10F940005C05002088430200144402005C4502006C
:10F95000D04202006405002070B584B00546002442
:10F96000481E01A910F8013F1A090A2A34BF30269F
:10F970003726324403F00F030A2B0A5504F1020420
:10F9800034BF302637260A1933440C2C02F8013CC8
:10F99000E8D12246284613F076FB002320462B733D
:10F9A00004B070BD2DE9F043334C8BB0204600AF5E
:10F9B00004F02EFE002004F00FFF09F019FC10B136
:10F9C00003780546BBB90023C7E906333B6287F8D5
:10F9D000243009F0FBFB014607F11800FFF7BCFFDC
:10F9E00007F11801384605F01DF904F083FF2C37A4
:10F9F000BD46BDE8F08324689026B6FBF4F404F11C
:10FA0000080303F4FC73E846ADEB030D13F0E6FBCB
:10FA100004F10109814507D92846FFF799FEC5463B
:10FA20002C37BD46BDE8F083013C22462946684696
:10FA3000002513F028FB69460DF8045007F1180063
:10FA400005F0F0F87C6AD7F81C9007F1100004F07C
:10FA50005BFE0134D7E90401084A05F02DF932466E
:10FA600023464946284605F0F3F809EB04012846E9
:10FA700004F028FEC546D3E7EC490200E443020047
:10FA8000024B1B7803B97047FFF7ACBE640500203A
:10FA900070B5224C237803B970BD214D2E6807F054
:10FAA0004FF90378032B1ED0013B012B15D90023FE
:10FAB0002B606378FEB1002BEED004F049FD2A687C
:10FAC000DAB101213B2005F0F7F86378002BE3D091
:10FAD0000120BDE8704004F039BD4378002BE6D02A
:10FAE000104A2A6001E0104A2A609642637811D0D9
:10FAF000002BE6D0E1E7002BCED16378002BCBD0F2
:10FB0000002004F0B7FD0E231A2200213B2004F050
:10FB10006FFEDAE7002BD4D070BD00BF6405002073
:10FB200068050020B84502007C45020070B51C4CF9
:10FB3000237803B970BD1B4D2E6809F079FBA0B97D
:10FB400028606378CEB1002BF4D004F001FD2A6860
:10FB5000AAB10121652005F0AFF86378002BE9D048
:10FB60000120BDE8704004F0F1BC0F4A2A609642C3
:10FB7000637811D0002BECD0E7E7002BDAD1637863
:10FB8000002BD7D0002004F075FD0E230F2200219A
:10FB9000652004F02DFEE0E7002BCBD13246D8E7FC
:10FBA00064050020580500205844020038B51B4C5D
:10FBB00007F082FE2378C3B1194D0378296883B119
:10FBC000184A2A609142637824D08BB901215820C9
:10FBD00005F072F8637843B10120BDE8384004F0C5
:10FBE000B5BC2B60637809B93BB138BD002BFCD0A4
:10FBF00004F0AEFC2A68002AE8D16378002BF4D028
:10FC0000002004F037FD0E230A220021582004F0C2
:10FC1000EFFDDFE7002BE8D10A46D7E764050020B7
:10FC20006005002038450200134B70B5134C0025C9
:10FC30001D7004F09BFD04F0C5FC0123237065706A
:10FC4000FFF726FFFFF7B2FFFFF770FF23780BB136
:10FC5000FFF7C8FD0E228F21002005F0E5F80123F3
:10FC60000748637004F0D4FC712390220F21002018
:10FC7000BDE8704004F05ABD6C050020640500200A
:10FC8000EC49020070B586B005460C46FFF7CCFF84
:10FC9000012004F0A1FD0CB123780BB906B070BDB2
:10FCA000204613F09BFA154E154B522888BF1E466E
:10FCB000304604F0ADFC0121002004F0E1FC04A872
:10FCC00004F022FD6A687368DDE904019B1A01EB08
:10FCD00053012A4604F0F0FF2B683068013B0344CF
:10FCE0000021B3FBF0F300FB03F004F0C9FC214654
:10FCF000684604F097FF06B070BD00BFEC490200F3
:10FD0000545702002DE9F0436D4DDFF8D8912C686F
:10FD100099F80060C4F19004864285B00746884691
:10FD20004FEA54043BD0FFF77FFF002089F80070B2
:10FD300004F052FD012004F055FD2A4643212046DF
:10FD400004F0BAFF022F00F08E80032F03D0012FA2
:10FD50003ED003201EE05B48FFF7FAFC48234C220C
:10FD60002A21302005F038F848234D222A2131205D
:10FD700005F032F82A234C224821302005F02CF8D7
:10FD80002A234D224821312005F026F8BE420CBF1F
:10FD90000120032005B0BDE8F04304F0D7BB04F018
:10FDA000D7FBFFF741FF002089F8006004F014FD45
:10FDB000012004F017FD2A464321204604F07CFF71
:10FDC000022E50D0032EC6D0012E18BF0120E1D143
:10FDD0003D48FFF7BDFC3D4804F01AFC042100201B
:10FDE00004F04EFC002004F0FDFC6846384904F0A5
:10FDF00019FF14232F224621A01C04F097FC012098
:10FE000004F0F0FC334804F003FC06F099FF32499B
:10FE100043788278684604F005FF0325002403E058
:10FE20000A2C05F10E0519D00C231A466E2128461E
:10FE300004F0DEFCA04504F10104F1D8002004F038
:10FE400019FC0823A81C1A46702104F0D1FC0220DA
:10FE500004F010FC0A2C05F10E05E5D140F2E24059
:10FE600004F072FB92E71D48FFF772FC3721322045
:10FE700004F0BCFF14210C2004F0C8FF6FF01D013A
:10FE80000E2004F0C3FF3721332004F0AFFF14210C
:10FE90000C2004F0BBFF6FF01D010E2004F0B6FF34
:10FEA0000A4804F0B5FB002004F09CFC6C21002003
:10FEB00004F008FC0A49684604F0B4FE66E700BF97
:10FEC000F44502007C42020018420200945C0200E9
:10FED00028420200EC49020050420200584202004F
:10FEE000644202006C0500202DE9F04186B000AFAD
:10FEF000FFF79AFEFFF756FD09F07EF910B103787F
:10FF000004461BB91837BD46BDE8F0811B4D284695
:10FF100004F07EFB2B689025B5FBF3F505F1080393
:10FF200003F4FC736E462046ADEB030D13F056F957
:10FF300005F1010880451CD8013D2A462146684646
:10FF400013F0A1F8002369460DF80530384604F097
:10FF500069FE07F1100004F0D7FB094AD7E9040154
:10FF600004F0AAFE04F0C6FC1837B546BD46BDE84D
:10FF7000F0812146384604F055FEF3E7545702005D
:10FF8000C84302002DE9F04F95B0FFF74DFE8248BF
:10FF900004F03EFB0023CDE908330A938DF82C30A2
:10FFA00009F014F9014608A8FFF7D6FC9DF82030A7
:10FFB00002AD002B40F0EA80774E06A804F0A4FBC7
:10FFC0007468DDF81CB0234690225946002004F0E6
:10FFD000ADFB7249284604F025FE09F005F90190B1
:10FFE00013F0FCF836684FF0900967004FEA860A74
:10FFF000B9FBF6F8A8F10408404594BF23463B46F8
:020000040001F9
:1000000059464A4650469B4404F090FB01992846C5
:1000100004F008FE23464A465946002004F086FBB9
:100020005F49284604F0FEFD5E4813F0D7F84A46C3
:1000300080452CBF23463B46594650460BEB0308F0
:1000400004F074FB5749284604F0ECFD23464A4669
:100050004146002004F06AFB43F60D6252492846EF
:1000600004F0E0FD09F0B6F843F60D63984204D0C1
:1000700002464E49284604F0D5FD04EB080123460C
:100080009022002004F052FB09F0D8F8002861D03B
:100090000246474910A804F0C5FDC7F18007234672
:1000A00039469022002004F041FB07F005FC03785C
:1000B000002B63D100F0FAFF3E493F4A3F4BA1FBC2
:1000C000001EA2FB002CA3FB00384FEA5E1E4FEA85
:1000D000DC2C4FEA1848CEEB0E19E119CCEB0C1AC8
:1000E00008EB48072346A0EB890990220020AEEBDD
:1000F0008A0AACEBC70704F019FB3149284604F023
:1001000091FDB8F1000F2ED14FB33A462D49284644
:1001100004F088FD52462C49284604F083FD4A46E7
:1001200028462A4904F07EFDC6EBC6060021234678
:100130003246084604F0FAFA0CA8254904F072FD8C
:100140000F9B0D9932460133002004F081FD15B05C
:10015000BDE8F08F1F4910A804F064FD9DE7BAF1D7
:10016000000FD7D1DBE7424628461B4904F05AFD71
:100170003A461449284604F055FDCBE707F078FDD0
:1001800016490246284604F04DFD93E708AA284682
:10019000134904F047FD0FE7945C0200BC410200E4
:1001A000C0410200503D0200C4410200CC410200A7
:1001B000D441020089888888C5B3A29107452EC220
:1001C000EC410200FC410200044202000C42020029
:1001D00010420200DC410200F4410200E44102004E
:1001E000B44102002DE9F0434C4C4D4F8BB004F06C
:1001F000BDFA04F0E7F92046002504F009FA0120D1
:1002000004F0F0FACDE9065508958DF8245008F071
:10021000DDFF014606A8FFF79FFB04A804F074FA6F
:100220006668059C334621469022284604F07EFAF3
:1002300006A8FFF78DFA012004F0D4FA3346902285
:1002400004EB4601284604F071FA3649684604F08A
:10025000E9FC284604F0C6FA384604F0D9F97E686D
:10026000C6F18004334628462146902204F05EFA07
:10027000684643F60D622C4904F0D4FC08F0AAFF4E
:1002800043F60D63984204D002462849684604F0BC
:10029000C9FC08F0A9FF804612F0A0FF90253F6836
:1002A000B5FBF7F5043DA8428CBF4FEA4609B146BD
:1002B000A4EB0904334621469022002004F036FACC
:1002C000BF0068461A4904F0ADFC4B469022214617
:1002D000384604F02BFA4146684604F0A3FC154862
:1002E00012F07CFF854234BF75003546641B3346EF
:1002F00021469022002004F019FA68460E4904F0C5
:1003000091FC2B4621463846902204F00FFA6846AD
:10031000084904F087FC0BB0BDE8F083EC4902000B
:10032000945C02002C410200C4410200CC41020056
:10033000BC410200503D0200C041020010B504461D
:10034000FFF772FC21460248BDE81040FFF79ABC57
:100350004C44020010B586B0FFF766FC0E4CFFF768
:1003600021FB0E4804F054F90D4904A8FFF706FAE2
:10037000204604F04DF963685B00C3F180019022D0
:10038000002004F0D3F9012004F02CFA0549684656
:1003900004F048FC06B010BD945C0200EC49020079
:1003A000E0400200F44002002DE9F04F89B000AFB8
:1003B000FFF73AFC08F028FF4378032B7BD0044674
:1003C000FFF7F0FA414804F023F96378012B59D084
:1003D0003F49404A022B18BF114607F11000FFF7B2
:1003E000CDF97D6908F010FF00F11A06304612F0D1
:1003F000F5FE364B9024D3F804801A68B4FBF2F46F
:10040000621F90428EBF4FEA48094544C1464B46A1
:100410004FF0900229464FF0000088BF640004F0BE
:1004200085F9002004F0DEF9012004F0D5F9384602
:10043000294904F0F7FBE31C23F00703EA463046A2
:10044000ADEB030D12F0CAFEA4F1040B83451BD9DA
:100450003146384604F0E6FB434605EB090190229D
:10046000002004F063F9002004F0B6F908F0CCFE97
:100470001A498278384604F0D5FB2437D546BD4664
:10048000BDE8F08F1649A8E7063C2246314668468B
:1004900012F0F9FD002369460DF80430384604F0E7
:1004A000C1FB07F1180004F02FF90E4AD7E9060145
:1004B00004F002FCD0E708F0A7FE00F1E2010A48D0
:1004C000FFF7E0FB2437BD46BDE8F08FEC490200A2
:1004D0009C420200AC420200BC420200C442020044
:1004E0008C420200E44302007C43020000B583B06A
:1004F000FFF79AFBFFF756FA044804F089F804491D
:100500006846FFF73BF903B05DF804FBEC490200D5
:10051000A041020010B586B0FFF786FB1E4CFFF726
:1005200041FA1E4804F074F81D4904A8FFF726F9A3
:10053000204604F06DF8002004F054F96368059932
:100540009B009022002004F0F1F8002004F044F910
:100550006846144904F066FB08F056FE4378012B08
:1005600014D0022B0DD01049684604F05BFB68469E
:100570000E4904F057FB68460D4904F053FB06B0E2
:1005800010BD0C49684604F04DFBF0E70A49684687
:1005900004F048FBEBE700BF54570200EC490200AF
:1005A00038410200484102007C41020080410200C3
:1005B000904102006C4102005C41020008B1FFF76B
:1005C000A1BB704770B51C4D8AB004F0CFF803F0A2
:1005D000F9FF284604F01CF80024012004F002F979
:1005E000CDE9064408948DF8244008F0EFFD01465B
:1005F00006A8FFF7B1F904A804F086F86D68059E17
:100600002B4631462046902204F090F806A8FFF7CA
:100610009FF805F108016B0020463144902204F058
:1006200085F86846054904F0FDFA054A46213C2054
:1006300004F042FB0AB070BDEC490200D040020059
:100640002C45020000B585B0FFF7EEFA064B59685D
:100650000020C1F1400104F013F80449684604F099
:10066000E1FA05B05DF804FBEC4902001C41020010
:100670000A4B0B4A1B78002111700BB905F050BCD6
:1006800010B5084A084B1478188805F04BFC204632
:1006900005F052FCBDE8104005F040BC6E0500209E
:1006A0006D050020720500207005002038B50A4B4A
:1006B0000A4C0B4D0B4A1B782080012429701470C2
:1006C00003B138BD0C4605F02DFC204605F034FC86
:1006D000BDE8384005F022BC6D0500207005002003
:1006E000720500206E050020054B1A7822B1054ADC
:1006F00012780021197002B1704705F011BC00BFDB
:100700006E0500206D05002010B50A4B01224FF444
:100710007A601A7005F006FC642005F00DFC05F007
:10072000FDFB0023044A05481921BDE8104010F0E4
:1007300035BF00BF6D050020710601005067002025
:1007400010B50D4C0D4B21781A7859B992B1002291
:100750000B481A7010F04AFF00232370BDE81040C8
:1007600005F0DEBB002AF2D100232370BDE8104063
:1007700005F0D6BB10BD00BF6E0500206D05002042
:100780005067002010B505F0C7FC00F0B7FC01F081
:100790003BF905F061F904F015F8094810F06EFE18
:1007A00011F018F9044600F065FB002CF8D172B680
:1007B00011F062F910B9BFF34F8F30BF62B6EFE7A7
:1007C000E83C02002DE9F041D0E902470546E41B70
:1007D00040689442164638440DD8161B8846224677
:1007E00012F051FC08EB04013246686812F04BFC31
:1007F000EE60BDE8F0813E4412F045FCEE60BDE8DD
:10080000F08100BF2DE9F8438846D0E9021506467D
:1008100017464FF00009336970689D4203F1FF34B9
:1008200026BF03F1FF335B18631BA1EB050428BF50
:100830005B1BBC4228BF3C469C4228BF1C4641462D
:100840002844224612F01FFCB1682544A94208BF83
:1008500000253F1BA144A044F560DCD14846BDE81B
:10086000F88300BF38B5114C114BE3614FF40063BE
:1008700010482362102500230F4AA3620F496066C7
:10088000A56663622367E366E01D01230325E36237
:100890006367A2612266C4E9045512F097FC204602
:1008A000074912F093FC2023A37138BD7067002024
:1008B0008405002074050020904702009C47020038
:1008C000A04702002DE9F04FDFF8A89099F800301A
:1008D00083B080468B469246002B47D04FEA4807AC
:1008E00007EB080609EBC606356FF36E9D421FD86D
:1008F0005C1B544528BF54461CB9204603B0BDE8D4
:10090000F08F002607EB080309EBC3032246596E5C
:100910005846294412F0B7FB25443444002CECD04F
:10092000474409EBC70720463D6703B0BDE8F08F99
:10093000D6E91914641B544528BF5446224629445D
:100940005846019312F09FFBB26E019B2544AA42C8
:10095000AAEB040A14BF5B1B0025534528BF53466E
:10096000002BDBD0A34426461C46CBE7FFF77AFFDB
:10097000B4E700BF7067002010B50B46EFF3118499
:100980004FF0200181F311881946FFF79BFF84F394
:10099000118810BD70B5204D00EB400305EBC3037B
:1009A0000130DC6A00EB4000012C05EBC0000E4674
:1009B000154617D008D3022C02D00024204670BD63
:1009C000BDE87040FFF71EBF9A6A596A8A421DD976
:1009D000013A521A9542F1D831462A46FFF7F2FE03
:1009E0002C46EBE79A6A5C6AA2420AD9013A141BC8
:1009F000AC4228BF2C4631462246FFF7E3FE204694
:100A000070BD1B6A1344013B1C1BF1E71B6A1344B6
:100A1000013B5A1ADEE700BF7067002030B50C4B6F
:100A20001B7883B00D462BB9CDE90002FFF71AFF02
:100A3000DDE90002EFF311844FF0200181F311880A
:100A40002946FFF7A7FF84F3118803B030BD00BF2C
:100A500070670020044B00EB400003EBC003D86E2E
:100A60001B6FC01A704700BF706700200C4BDA6E16
:100A70001B6F9A4211D000B583B001220DF107011E
:100A80000020FFF779FF012804D19DF8070003B08B
:100A90005DF804FB4FF0FF30F9E74FF0FF3070478F
:100AA000706700202DE9F0410A460D4607460146D1
:100AB0000020FFF7B3FF8542044610D8164E4CB90C
:100AC0003368012B01DC013333602046BDE8F0813F
:100AD000002CFAD0002333602046BDE8F08100F0FE
:100AE000FFFA00F500600C4E1FFA80F808E033684A
:100AF000012BEDDC00F0F4FAA0EB08000304DED5D6
:100B00002A1B39190020FFF789FF0444A542EED8BB
:100B1000002CD5D0DEE700BFC80D002009B908467B
:100B20007047FFF7BFBF00BF00B583B002AB012124
:100B300003F8010D1846FFF7B5FFA0F10100B0FA68
:100B400080F0400903B05DF804FB00BF38B50546EE
:100B500000200C46FFF77EFFA04228BF204600B9C8
:100B600038BD224629460020BDE83840FFF704BFC3
:100B700010B50F4809F064FF03280BD8DFE800F038
:100B8000020B020B0B4C237823B10B4810F02EFD07
:100B90000023237010BD07490B78002BFAD10124E4
:100BA0000C70064A04481921BDE8104010F0F6BC4C
:100BB000A80D0020840D0020880D0020F50B0100F9
:100BC00008B50146034809F029FFBDE80840FFF7D2
:100BD000CFBF00BFA80D002010B50A46014604484B
:100BE00009F008FF044608B1FFF7C2FF204610BD18
:100BF000A80D002008B50B4B1B788BB10A4BDA6EA1
:100C00001B6F9A4204D10948BDE8084010F0D2BCDD
:100C1000074809F02FFF0548BDE8084010F0CABC9E
:100C200008BD00BF840D002070670020880D0020E3
:100C3000A80D002070B5234D234E2B78002290B0D4
:100C4000044632702BB111F03FFA08B110B070BDFC
:100C50002870204612F0C2FA82B2B2F5777F28BF20
:100C60004FF4777200230992184A8DF8143002214C
:100C70008DF829300B9304930692154B154A08946E
:100C80008DF81C1001240D920E9305AA01AB02A849
:100C90000AA98DF828408DF8304003940F920293F2
:100CA0000AF0C6FA0028D1D10B4A0C4940F2FA33B7
:100CB00002A813600AF07EFA0028C7D1347010B081
:100CC00070BD00BFCE110020D4110020C04702002B
:100CD0004DB20100606A0200D0110020D40D002046
:100CE000022910D0032908D0012900D07047134BE6
:100CF0001B68002BFAD000201847104B1B68002BF4
:100D0000F4D00220184710B40D4A0E49D2F803302F
:100D10000A481BBAC1F890355378147892781B02B0
:100D200043EA04431343C1F8943503681BB101201F
:100D30005DF8044B18475DF8044B7047D00D002058
:100D4000D81100200050004038B51A4C237883B9E0
:100D5000194D297871B1194D2B7823B91848FFF72F
:100D600069FF2B782BB1174B1748196811F0FEF863
:100D700040B138BD154811F0C7F80028F9D101235A
:100D80002B70E8E711F086F90028F2D1104A1149DA
:100D9000D2F8033001201BBA2070C1F89035537887
:100DA000107892781B0243EA00431343C1F894354C
:100DB00038BD00BFCE110020CC0D0020D411002082
:100DC000C4470200D0110020D40D0020E10C010026
:100DD000D81100200050004010B5064B1C78FFF7DA
:100DE00029FF054B1B7803B104B910BDBDE81040C5
:100DF000FFF7AABFCE110020D41100200146072220
:100E0000014812F040B900BFD811002010B5054CC0
:100E1000237803B910BD11F057F90028FAD12070DA
:100E200010BD00BFCE110020704700BF08B50949B2
:100E300009480AF02BFF48B908480AF061FF08B1D9
:100E40000CF006F8064B01221A7008BD0CF000F8F1
:100E5000F2E700BF290E0100CC470200DF1100209D
:100E6000E0110020024B1B7803B970470AF03ABF2B
:100E7000E0110020034B1B7803B97047024B187830
:100E80000AF062BFE0110020DF110020034B186858
:100E900018B90348034A104418607047E411002051
:100EA000BC910100B8DF0000F8B5294B294DD3F8FB
:100EB00004452B68284A294F16682949DFF8B8C02D
:100EC000E31A23F07F43C3EB431003EB800030446D
:100ED000106010681668C6F3080616603E68400A7F
:100EE00006443E600F681F4E384408600A680F6869
:100EF000ACFB020292094FF47A7000FB127008609A
:100F000031681948194F0A4432600268184913447D
:100F1000036002683B6803EB12133B60036803F055
:100F20000F030360224610320A40131B23F07F4355
:100F3000012BF8D9012300210E482C600AF0F6FCA1
:100F400010F044FC00B9F8BDBDE8F84010F01EBC3C
:100F500000100140EC110020FC110020F8110020CD
:100F60000412002000120020F4110020F0110020D3
:100F7000F0FFFF00E8470200D34D621000B1704758
:100F800010B50446FFF790FF014B1C7010BD00BF69
:100F90000812002070B500230E4E0F4D3370184616
:100FA0000BF0C0FDD5F804452834A4B204E0D5F810
:100FB00004351B1B1B0405D50BF0F6FD0028F6D0ED
:100FC00001233370044BBDE87040D3F804350BF0B7
:100FD000D7BD00BFE81100200010014070B52348C4
:100FE000234E244D244C2549254A002382B03360EA
:100FF0002B60236003600B6013600BF03DFD002845
:1010000030D10BF04DFC00200BF056FD0BF082FDB3
:101010000028FBD01B4B1C4C1C4A93E80300002308
:101020000090ADF804101A48237069460AF02EFCAF
:1010300008B10BF00DFF174C1749184A144801234B
:101040002360D1F8041511601268103222F07F423B
:1010500000210AF06BFC0E480AF05CFCFFF79AFFD7
:1010600002B070BD0BF0F4FECBE700BFF81100201A
:10107000F4110020F0110020FC11002004120020C7
:1010800000120020D8470200081200207D0F010046
:10109000E84702000810014000100140EC11002058
:1010A000014B1868704700BFF0110020014B186811
:1010B000704700BF0012002020B1034B800143F0B5
:1010C00001031847704700BFE047020080B220B11B
:1010D000024B800143F0010318477047E0470200CC
:1010E000024BD3F8040580B2704700BF00100140E6
:1010F000014B01221A707047E9110020174B0122A1
:1011000010B5C3F8402501F0ABF900F02FF801F05D
:10111000EFFC134AD2F8883043F47003C2F88830E9
:10112000BFF34F8FBFF36F8FFFF758FFFFF77EFEC0
:1011300010F036FC00210B4810F00AFC10F0F4F916
:10114000FFF790FE002010F03DFD01F0F7FF064B89
:1011500000211B680220BDE81040184700E0014054
:1011600000ED00E0F0010020A84702004FF08043AE
:101170004FF0FF31D3F80024C3F800140C490B786A
:101180004AB943F0010362F3410362F3820362F35D
:10119000C3030B707047500803F0FE0360F3410374
:1011A000900860F3820362F3C3030B70704700BFC3
:1011B0000C120020BFF34F8F0549064BCA6802F49A
:1011C000E0621343CB60BFF34F8F00BFFDE700BF6A
:1011D00000ED00E00400FA05084A094B11681B689D
:1011E000994208D01168136806480133C3F3080315
:1011F000405C136070474FF0FF30704710140020C0
:1012000014140020101200202DE9F843224B234D26
:101210001F682B682C68BB420E461DD9C4F50074AC
:10122000A1422AD92968DFF87890224649448046AD
:1012300011F029FF00232B605FB1361BB74228BF96
:101240003746494608EB04003A4611F01CFF2F6070
:101250003C442046BDE8F8833C1BFAD02B6810497B
:10126000B44228BF34462246194411F00CFF2B68C3
:1012700023442B602046BDE8F8832B68084932469A
:10128000194411F000FF2B683344C3F308033446BC
:101290002B602046BDE8F8831414002010140020B1
:1012A0001012002010B5038804461BB1B42B05D1E1
:1012B000822907D0B4232380012010BD002303809E
:1012C000032010BD014809F0D5FBF3E724180020E6
:1012D00030B40B490B4B0C4A0425C1F88050002454
:1012E0004FF0FF300221C3F80045C3F80C05C3F8E6
:1012F0001405C2F82C17C2F8341730BC704700BF71
:1013000000E100E00020004000030050144A137880
:1013100003B310B4134B144900244FF480701470BD
:10132000C3F808030A784AB10122DA6002E0D3F870
:1013300020211AB9D3F85821002AF8D00B4B1B787A
:1013400001220A701BB9074BD3F800351BB95DF8B1
:10135000044B704770475DF8044BFFF7B9BF00BFFF
:1013600045180020002000402018002044180020CC
:1013700070B41249124B134A0320C1F82C074FF4E2
:10138000006500202B242D26C1F80855C3F80C4514
:101390004FF0EB75C1F83407C024C3F8146504217D
:1013A000C3F86C050820C3F8245582F80243C2F83C
:1013B00080111160C3F8000570BC70470003005035
:1013C0000020004000E100E008B50D4B0D49186811
:1013D0000D4A08600D4B01211170D3F8003563B13F
:1013E0000A4B0B4800224FF480710270C3F8202191
:1013F000C3F85821C3F8041308BDFFF7B9FFEFE79E
:101400001C1800201818002045180020002000405B
:101410002018002070B41D4A1D4913680C68013360
:10142000C3F309039C422AD015681A4C60551A4D23
:1014300013602B7803F0FF00FBB90868136898422B
:1014400020D008681368984234BF13680B68134AA9
:1014500038BF1B1A4FF6FF7128BFC3F580634FF6E4
:10146000FE760444B34288BF0B460121C2F84445CE
:101470000846C2F848352970916070BC704700205A
:1014800070BC7047012070BC704700BF1C18002062
:1014900018180020181400202018002000200040F8
:1014A0002DE9F047002962D03B4EDFF8FC90D9F8D7
:1014B0000070336835689F420C4680461DD8C5F5DC
:1014C0008065A94257D93068DFF8D0A02A46504439
:1014D000414611F0D8FD0023012F33601FD9791E3A
:1014E000671B8F4228BF0F46504608EB05013A465E
:1014F00011F0C9FD37603D4411E07F1B012F48D931
:10150000791E8C423368254828BF0C462246414646
:101510001844254611F0B7FD336823443360204A50
:1015200013782BBBD9F800103368994220D0D9F832
:101530000040336819481B499C4236BF3368D9F8CC
:1015400000301B1B204428BFC3F580634FF6FE7696
:101550004FF6FF74B34288BF23460124C1F8440507
:10156000C1F8483514708C602846BDE8F0870D46F8
:101570002846BDE8F08733680848414618442246AB
:1015800011F081FD33682344C3F30903336025461A
:10159000C5E70025C3E700BF1C1800201814002071
:1015A000201800200020004018180020124A134B79
:1015B00010B51020002401211C70C2F80803134646
:1015C000516002E0D3F810211AB9D3F84421002A5F
:1015D000F8D00B4B1B781BB9074BD3F8003523B958
:1015E0000848BDE8104010F0D5B9FFF771FE054876
:1015F000BDE8104010F0CEB9002000404418002093
:1016000045180020E400002038B5124C124920682B
:10161000124A0860124B01211170D3F80035B3B1A2
:101620000F4B104A104800211025C3F81011C3F8C1
:101630004411C3F80453246822440124C3F8342518
:10164000C3F838451C60BDE8384010F081B9FFF799
:101650008FFEE5E714140020101400204418002029
:101660000020004010120020E400002008B51948B6
:1016700009F0E6F9032808D8DFE800F01A02130899
:10168000FFF744FE144B1B78E3B108BD124B1B78E7
:10169000E3B1124B1B78002BF7D1BDE80840FFF7F0
:1016A00093BE0D4B1B78002BF3D0FFF77FFFF0E7C5
:1016B000094B1B781BB9BDE80840FFF727BEFFF7B1
:1016C00075FFF8E7BDE80840FFF79EBFFFF79CFFF6
:1016D000DFE700BF24180020441800204518002030
:1016E00008B50146034809F099F9BDE80840FFF73D
:1016F000BDBF00BF2418002010B50A4601460448AB
:1017000009F078F9044608B1FFF7B0FF204610BD94
:101710002418002038B52A4BD3F81021DAB1294A11
:1017200029480021C3F810111368284901330968BA
:10173000C3F30803994218BF13601168244B204A71
:101740000B440121C2F83435116010F0BFF9214B70
:10175000186810F0BBF91A4BD3F8202162B31E4A67
:101760001E490020C3F82001D3F84C3514682344E7
:10177000C3F30903136014680B689C421DD0106802
:101780000B68174C984234BF0B68136815490C4A14
:1017900038BF1B1A014428BFC3F580634FF6FF70A2
:1017A0004FF6FE75AB4288BF03460120C2F84415D0
:1017B000C2F848352070906038BD094B187038BDAC
:1017C0000020004014140020E40000201014002029
:1017D0001012002048180020181800201C180020A3
:1017E000201800201814002010B5038804462BB1DF
:1017F00040F23512934209D182290BD00D4B1B7850
:1018000023B140F235132380012010BD0023238033
:10181000032010BD084B1B68002BEFD0074A11783E
:10182000032902D110789847E8E711780229E5D119
:10183000F8E700BF501800204C1800205218002074
:10184000F8B5634D634E2B681F2B8BBF03F01F024F
:101850001A4660484FF0A04002F5E072042140F8BB
:101860002210142404E0FFF727FC013C2B680FD062
:101870001F2B8ABF32464FF0A04203F01F01D2F85F
:10188000102598BF1946CA40D7074FF00A00EAD57D
:101890001F2B29D94F4CD4F8100503F01F07F8402F
:1018A00010F0010000F084806A681F2A2BD84FF0E6
:1018B000A04002F5E071042640F82160D0F81065E0
:1018C00026FA02F2D2072BD50246012002241F2B52
:1018D00042F8214078D903F01F033E4A03F5E07334
:1018E000022142F82310F8BD4FF0A042D2F8104573
:1018F000DC4014F001045DD1204603F5E0730221C1
:1019000042F82310F8BD02F01F0101F5E070314AE2
:10191000042642F82060D2F81025CA40D0074CD4E3
:1019200007F5E072012606FA07F740F20161C4F8F4
:10193000087544F82210274F102401E0013C35D0EF
:101940001F2B8ABF3A464FF0A04203F01F0306FA4E
:1019500003F3C2F80C350520FFF7AEFB2B681F2BF5
:101960008ABF3A464FF0A04203F01F0306FA03F382
:10197000C2F808350420FFF79FFB6A681F2A8ABF58
:101980003B464FF0A04302F01F00D3F810152B6820
:1019900098BF1046C140C907D0D501201F2A0ED9D3
:1019A00002F01F0101F5E0710A4A8FE72046F5E7D2
:1019B0003B4692E714461F4676E70120F2E702F520
:1019C000E0714FF0A04281E74FF0A04295E700BFE1
:1019D000FC00002000030050064B1A7842B1027848
:1019E0000548002A0CBF032202221A7010F06EB8BC
:1019F000704700BF52180020F0000020014B1878FB
:101A0000704700BF5218002008B514490A684B6897
:101A10001F2A88BF02F01F0202F5E0728CBF104837
:101A20004FF0A0401F2B88BF03F01F034FF00401AD
:101A300040F8221003F5E0738CBF094A4FF0A04232
:101A4000042142F823101420FFF736FBFFF7F8FEBD
:101A5000044A054B107000221A7008BDFC000020DB
:101A6000000300505118002052180020014B187834
:101A7000704700BF511800202DE9F0411A4B1B7828
:101A800023B1DFF8808098F800701FB10024204651
:101A9000BDE8F0810E460546FFF7D2FE0446002859
:101AA000F4D0012D1149124A12480CBF4FF0C865FD
:101AB0004FF0CC753B468D600AF04EFA0028E5D118
:101AC0000D4B0E4A1E600123107088F800303EB1A5
:101AD0000B4810F009F818B9014609480FF038FF13
:101AE00004480AF00DFBD2E751180020FC0000204A
:101AF000D9190100084802004C1800205218002093
:101B0000F00000205018002038B5104B1B7813B19E
:101B10000F4C237803B938BD0E480F4D0AF000FB77
:101B20000C480AF08BFA0D4A0023284613702370E4
:101B30000FF0DAFF0028EED0094B1B68AB42EAD069
:101B40002846BDE838400FF025BF00BF51180020DF
:101B50005018002008480200F00000205218002011
:101B6000AC66002038B50446FFF79AFA0B4D0444E2
:101B700007E0BFF34F8F30BFFFF792FA201A00281B
:101B800009DB2B78012BF4D02878A0F10300B0FA00
:101B900080F0400938BD002038BD00BF5218002039
:101BA00070B5154C247886B0FCB1144C2478E4B19F
:101BB000134C2578012D1BD08DF805000A98029250
:101BC000CDE90301142201A9012602250D48059340
:101BD00026708DF8045011F056FA002209490A487F
:101BE0000AF0BCFAB0FA80F46409204606B070BD71
:101BF0000024204606B070BD511800205018002067
:101C000052180020541800200848020030B50F4C2C
:101C1000247883B09CB10E4C247884B10D4D2C787F
:101C2000012C0FD01C460094134601240A4601469D
:101C300009482C700AF02AFCB0FA80F464092046A6
:101C400003B030BD0024204603B030BD5118002041
:101C500050180020521800200848020010B50388D0
:101C600004461BB1B42B05D1822907D0B4232380AD
:101C7000012010BD00230380032010BD014808F09F
:101C8000F9FEF3E77C1C002038B52A4BD3F810216D
:101C9000DAB1294A29480021C3F8101113682849EC
:101CA00001330968C3F30803994218BF1360116830
:101CB000244B204A0B440121C2F8343511600FF047
:101CC00005FF214B18680FF001FF1A4BD3F82021B4
:101CD00062B31E4A1E490020C3F82001D3F84C35D8
:101CE00014682344C3F30803136014680B689C4210
:101CF0001DD010680B68174C984234BF0B681368EE
:101D000015490C4A38BF1B1A014428BFC3F500739C
:101D10004FF6FF704FF6FE75AB4288BF03460120B9
:101D2000C2F84415C2F848352070906038BD094BA0
:101D3000187038BD008002406C1A00200C01002091
:101D4000681A0020681800209C1C0020701C0020CD
:101D5000741C0020781C0020701A002010B50E4B57
:101D600084B01C788DF8070014B9204604B010BD6B
:101D700004AA012342F8043D0DF1070107480FF0C2
:101D8000AFFA28B9039B1BB105480FF09FFEECE7A3
:101D90000024204604B010BD341D0020404802003D
:101DA0001C010020032906D8DFE801F002140E0808
:101DB0000B4B01221A700B480FF088BE0A4B0948E2
:101DC00001221A700FF082BE084B064801221A70D9
:101DD0000FF07CBE064B034801221A700FF076BE4E
:101DE000321D00201C010020301D0020311D00206C
:101DF000331D00200F4B1B78C3B110B582B002AA6F
:101E00000D4C0E48012342F8043D214600230FF0FB
:101E1000A5FA40B9019931B108480FF01BFB2368BE
:101E2000187802B010BD4FF0FF30FAE74FF0FF30E6
:101E3000704700BF341D00202C1D002034480200D4
:101E40000E4B1B78BBB100B583B00B460193014626
:101E500053B101AA0A480FF043FA08B9019B1BB914
:101E6000002003B05DF804FB06480FF02FFE019838
:101E700003B05DF804FB1846704700BF341D002016
:101E8000404802001C0100200C4B1B783BB100B500
:101E900083B0019129B9084603B05DF804FB1846E8
:101EA0007047014601AA06480FF096FA10B9019949
:101EB0000029F0D1002003B05DF804FB341D0020A0
:101EC0003448020010B50FF007F9012801D90CF0D1
:101ED0009DFF094C20460FF007FE30B1074B1B68F1
:101EE000A34202D020460FF055FD002000F0DEFA9C
:101EF000BDE810400CF074BF1C010020AC6600204F
:101F000038B5184C23783BB117480FF0EDFDE8B118
:101F1000BDE838400CF062BF03F0FF050FF0E2F8B7
:101F200028460CF0C7FEC8B9104B114A184613607A
:101F30000CF07AFF08B10AF08BFF0E4A0A48022320
:101F4000237013700FF0D0FD0028E1D10146064840
:101F50000FF0FEFCBDE838400CF040BF0AF078FFFF
:101F6000E2E700BF542100201C01002010480200BD
:101F7000281D00205521002008B50B4808F060FD01
:101F800050B1032800D908BD0BF0E6FF0028FAD1B4
:101F9000BDE80840FFF7B4BF0BF0DEFF0028F2D029
:101FA000BDE80840FFF78EBF7425002008B5014644
:101FB000034808F033FDBDE80840FFF7DDBF00BF70
:101FC0007425002010B50A460146044808F012FDA9
:101FD000044608B1FFF7D0FF204610BD742500204D
:101FE00070B582B00D4C02A90023224641F8043D91
:101FF000064601250A4825600FF010F922682AB12B
:10200000304601990EF048FC02B070BD054B064801
:102010001D700FF05BFD02B070BD00BF50210020AD
:1020200034480200321D00201C0100202DE9F04F31
:102030000446008885B088B1B0F5E37F08D18229D5
:102040000FD04FF4E3730120238005B0BDE8F08F7B
:1020500000230320238005B0BDE8F08F00F00CFAC8
:10206000EFE7744D744E2A7833789A421BD02B7860
:10207000013B042B17D8DFE803F0520342164E0051
:102080003378022B00F0CD800BF070FF08B10CF01C
:10209000BDFE2B78694ADBB2337000210423116046
:1020A0002B700FF019F8664B1A78002A40F08880E0
:1020B000644E654B1A782AB1644860490022027068
:1020C0001A700A60624F3B78002B31D1614B316846
:1020D0001A783ABB0029B4D104A900254FF48067CF
:1020E00041F8045D2B46574A5B4837600FF036F9DC
:1020F0000746002878D035600AF0AAFEA1E70BF069
:102100002BFF40B10CF06EFE0EF0E6FF2B7805229F
:10211000DBB233702A702B78DBB23370C3E70BF07D
:102120001BFFC0E700224C481A700FF093F9D3E769
:10213000424D4A4B2968D3F800904FF0000887F8C9
:102140000080002967D148460EF0A2FB1FFA80FCF0
:10215000BCF1000F58D00DF1100A002301944AF889
:10216000043DDFF8D8B0DFF8088164460EE003993B
:102170000EF092FB296840460FF098F8002348467D
:102180002B600EF085FB84B2002C3CD000235A4615
:10219000514640462C600FF041F82B6830481A46F3
:1021A000002BE4D101232F48019C3B700FF08EFCE3
:1021B0002D4B18680FF08AFC2C4808F05BFC85E773
:1021C000224A25481F4E0121002511701D700FF075
:1021D00017F827480FF014F8204A184B10681D60B4
:1021E0003560FFF7FDFE64E73268002A3FF429AF4F
:1021F00003991B480EF028FB00283FF422AF3760FC
:102200000AF026FE1DE7019C2B68002BD0D1484622
:10221000FFF7E6FECCE716480FF048F8C5F8008057
:1022200091E70BF099FE00283FF43BAF0CF0D8FD8E
:1022300037E700BF54210020552100205021002005
:10224000311D002070250020301D0020341D00208D
:10225000321D0020331D002040480200281D0020B0
:10226000104802001C010020942500207425002045
:10227000344802000D4B1A786AB11A780C49D2B270
:1022800001280A7008D00CD3022801D103221A7049
:1022900008480FF01BBC7047022206481A700FF066
:1022A00015BC012203481A700FF010BC5421002005
:1022B000552100201C010020164BD3F8002512F0F8
:1022C000070226D170B41B26C3F808654FF0A04161
:1022D000062407204FF00046C3F80C45C3F810054C
:1022E000FF24C3F824654FF00066C3F8C0450A4DCB
:1022F000C1F80C6503244026C1F86C47C1F80C6591
:10230000C1F81847C1F81C27C3F800052A7070BC33
:102310007047704700300040982500200B4BD3F8E1
:102320000025520711D04FF0A04210B40221084CF2
:102330000020C3F80005C2F86C17C2F81817C2F8DD
:102340001C1720705DF8044B704770470030004048
:1023500098250020F0B4274D2C78D4B900B1D9B914
:10236000BAB1B3B12449002002242C70C1F844054D
:10237000C1F84805C1F83425C1F83835C1F8100155
:102380001D4B01220021C3F804111A611046F0BC54
:1023900070470020F0BC704704F0FF0600F0604476
:1023A000B4F1005FF5D13AB133B102F06044B4F159
:1023B000005F10D03046EDE70F4B002201242C7057
:1023C000C3F84405C3F84815C3F83425C3F83825C5
:1023D000C3F82021D4E7084C03272F70C4F8440524
:1023E000C4F84815C4F83425C4F83835C4F8186161
:1023F000C6E700BF982500200030004011490B7847
:10240000032B08D8DFE803F0100217110E4AD2F8A8
:102410002031002BFBD00C4A01235361D2F8043148
:10242000002BFBD000230B707047074AD2F81831FD
:10243000002BFBD0EFE7044AD2F81031002BFBD081
:10244000E9E700BF982500200030004010B50446A1
:10245000FFF710FF2046BDE8104000F013B900BFA1
:1024600008B500200AF0ACFB28B1852803D0BDE8F0
:1024700008400AF0EDBC08BD38B50A4C2378054683
:1024800023B10120A8401843207038BD06480AF047
:10249000ABFB08B10AF0DCFC23780120A84018430C
:1024A000207038BD9925002074480200064A137830
:1024B00033B1012101FA00F023EA0003137003B1E4
:1024C00070470AF09FBB00BF99250020F0B568490E
:1024D0000B780871020C000A8A70C870002B5ED05D
:1024E000644B002518462A4604798E1803300132C1
:1024F00034B1B478013CE4B2FD2C98BF45F001053D
:10250000042AF1D14E78D5B15B4C00201A790D1810
:1025100002B1AA785D790130033315B1C2F1FF022F
:1025200092B2042824F8022BF0D11EB9534B012299
:10253000C3F80025514A012393604B70F0BD1EB1D2
:102540004E4AC2F800554D704D4E002201251879B3
:1025500080B188185C79807894B198B198791F28F7
:1025600086BF00F01F0034464FF0A04405FA00F08B
:10257000C4F808050132042A03F10303E7D1F0BDD2
:102580000028EBD098791F2886BF00F01F00344642
:102590004FF0A04405FA00F0C4F80C05EAE7354A0C
:1025A000DFF8DCC002F10C05134601271879E8B109
:1025B00098795E790446002E4BD01F2887BF00F023
:1025C0001F06E64606464FF0A04E07FA06F6CEF87E
:1025D0000C6540F203461F288ABF00F01F044FF02D
:1025E000A040604604F5E07440F824600333AB4239
:1025F000DCD1224E00234FF00047107903F5AC7573
:1026000020B3907946F825000133042B02F1030230
:10261000F3D11A4A184D0724C2F80C4500200224B1
:10262000C2F80405C2F81045FF24C2F81405C2F828
:1026300008450124C2F82435C2F82C05C2F82055FB
:10264000C2F82805C2F800020C7049E746F8257068
:10265000DAE71F2887BF00F01F06E64606464FF060
:10266000A04E07FA06F6CEF8086540F20366B2E718
:102670009C25002078480200A2250020001002407E
:1026800000030050012801D803F038BB704700BF99
:102690000120FFF7F1BE00BF0120FFF707BF00BF19
:1026A0004FF08043D3F8380400F00100704700BFBA
:1026B000144B1978E1B130B4134B1B88F3B1134AB2
:1026C000B2FBF3F39CB2124D124A1348D48003FBC1
:1026D00001F3A5FB0313C3F38F1343F4004301215C
:1026E000138053809380C0F80015816030BC704720
:1026F000094B01225A60C3F8001570470224234693
:10270000E1E700BF2A0100202801002040420F001D
:102710001F85EB51AC25002000C0014070B51A4C5C
:10272000237883BB19490A7812BB1948194B1A4EF2
:102730008025C0F80C5504200325C3F80C05C3F808
:102740000425C3F810554FF47A75C3F81425C3F85F
:102750000855C3F8240527250120C3F82C25C3F804
:102760002065C3F82825C3F80022C3F86055087017
:10277000FFF79EFF0120FEF7A9FC054A0321012374
:10278000C2F81C17237070BDAA250020AB250020BD
:102790000003005000C00140AC250020084B1A780F
:1027A0006AB130B40749084C022500220120C4F860
:1027B0001C574860C1F800251A7030BC704770473C
:1027C000AA25002000C0014000030050054B1A88D4
:1027D000824203D0044A1880137803B97047FFF788
:1027E00067BF00BF28010020AA250020054B1A78EA
:1027F000824203D0044A1870137803B97047FFF778
:1028000057BF00BF2A010020AA25002030B4114B79
:1028100011480024C3F838474FF0A04203214FF479
:1028200080654FF48074C3F80855C3F8281708254D
:10283000C3F808454FF08054C3F82017C2F80C5570
:10284000C2F80C17C2F80C45C2F87017006830BC0B
:10285000004700BF000300506448020008B5094B60
:102860005B689847084A4FF0A0410223C1F87037CF
:10287000C1F80C37C2F82037C2F82837C2F8383709
:1028800008BD00BF6448020000030050F0B51A4CB8
:102890001A4F85B0702173224FF4806500238DF8A4
:1028A00009008DF808108DF80420BE68C4F80C5596
:1028B0001A46022102A8B047A8B1FF68B847022013
:1028C000C4F80855FEF7F8FBC4F80C55022303AA18
:1028D000012101A8B04730B1B847C4F808559DF8A8
:1028E0000D0005B0F0BD044B4FF48062FF20C3F82B
:1028F000082505B0F0BD00BF000300506448020089
:10290000F0B583B0184C194F8DF801007222702079
:102910004FF4806500238DF805108DF800008DF8C8
:102920000420BE68C4F80C551A4602216846B04718
:1029300098B1FF68B8470220C4F80855FEF7BCFB01
:102940000023C4F80C551A46022101A8B04720B153
:10295000B847C4F8085503B0F0BD034B4FF480628C
:10296000C3F8082503B0F0BD00030050644802001E
:102970002DE9F04383B01A4C1A4F8DF805007026EC
:1029800072204FF4806500238DF804608DF80300F9
:1029900088469146BE68C4F80C551A46022101A823
:1029A000B047A0B1FF68B8470023C4F808551A46DD
:1029B000C4F80C5501210DF10300B04738B1B847F8
:1029C0000023494640461A46B04700B1B847044B79
:1029D0004FF48062C3F8082503B0BDE8F08300BF60
:1029E00000030050644802004FF0A0430822C3F8DF
:1029F000082570474FF0A0430822C3F80C25704704
:102A0000024B4FF48072C3F80C257047000300504E
:102A1000024B4FF48072C3F8082570470003005042
:102A20004FF0A0434FF08052C3F80C25704700BF11
:102A30004FF0A0434FF08052C3F80825704700BF05
:102A4000024BD3F81005C0F38030704700030050EC
:102A500016207047024B53F8203003B118477047D7
:102A6000B4250020F0B583B005460C4617461E4637
:102A700008F08CFC38B3012C05D0022C03D0032CB9
:102A80000CBF032400249DF806308DF80440003765
:102A900018BF012703F0FE0367F34103DBB243F0E5
:102AA00004030024094A8DF8063001A928468DF850
:102AB000054008F075FC08B10AF0CAF9044B43F868
:102AC000256003B0F0BD08F00DFCD4E7552A0100E5
:102AD000B4250020012108F0FBBC00BF08F074BD44
:102AE000024B002143F8201008F0A8BDB4250020B7
:102AF0000E490B78CBB970B40D4B0E4D0E4C0F48F0
:102B00000F4A104E2B4423441B1A9B1A03F6FF70E6
:102B10000D4A0E4D0E4C000B9B1A3060120B01201B
:102B20002B602260087070BC7047704778260020C8
:102B3000146E0200700300205C6E0200146E02002E
:102B4000100000203001002000E00000742600206A
:102B50002C0100200048704700E00F0008B50F4B23
:102B60001B68834218D8FF2816D8000300F580514F
:102B700088420FD20268013200F1040301D007E05D
:102B80001346994203F1040204D91B680133F7D0BC
:102B900009F006FF002008BD012008BD300100201B
:102BA00000B50B4B1A6883B0B0EB023F01910AD31A
:102BB000084A904207D8012201A909F009FF002024
:102BC00003B05DF804FB022003B05DF804FB00BF16
:102BD00030010020FCFF0F004FF08042D2F81C357E
:102BE00023F007031843C2F81C057047013938B5B4
:102BF00089B2051D044605EB810520460021FFF73B
:102C0000CFFF043418B9AC42F7D1012038BD002001
:102C100038BD00BF38B56FF07F4399420C4605467A
:102C200003D0FF2910D0002038BD006803680133AD
:102C3000F9D1FFF7B5FF0028F5D12B681868001B04
:102C4000B0FA80F0400938BD0068FFF7A9FFB0FA7C
:102C500080F0400938BD00BF30B40B78DB43DBB2F5
:102C6000082203F001045B080CB183F01D03013A54
:102C700012F0FF02F5D18C780822634003F00104C2
:102C8000013A5B0814B183F01D03DBB212F0FF02BE
:102C9000F4D1CC780822634003F00104013A5B08C8
:102CA00014B183F01D03DBB212F0FF02F4D14D88A2
:102CB0000468EA1C921001EB820294421AD28068E6
:102CC00020F003000444A24214D20C1D2544AC425F
:102CD00010D014F8010B0822434003F00100013A20
:102CE0005B0810B183F01D03DBB212F0FF02F4D1D8
:102CF000AC42EED14878C01AB0FA80F0400930BC3E
:102D0000704700BF002838D070B58368D0E90064F0
:102D10009A08013A23F003030546C46002611E4489
:102D2000B4422146284615D223685A1C19D09BB1BB
:102D3000FFF792FF98B163882A6903339B10013330
:102D400004EB8304B442A2EB0303C5E90343214629
:102D50002846E9D3012070BD0434EC60E0E7002090
:102D600070BD043402E01B680133F8D1A64223464B
:102D700004F10404F7D80120EDE70020704700BFFC
:102D80002DE9F04F83B0FEF775F8674B6749186877
:102D9000DFF89CA100220A600268FF2A00F09E80F2
:102DA000DAF80070D3F808C03968FF2900F09E8077
:102DB0005FEA9C0E63D0002319461C461D4601E0C5
:102DC00050F82320AE00013A0332BA5998BF0134BB
:102DD00002F1FF3203F1010398BFA4B203329BB2A8
:102DE0009CBF013189B273451D46E9D38C4246D957
:102DF000DAF808C0DFF83081DFF834A13846B0FBDC
:102E0000FCF0FFF7ABFEDAF80820DAF8003022F029
:102E100003021A4493420CD2196801312CD10433B5
:102E200002E00968013127D19342194603F10403F6
:102E3000F7D3FEF71FF8D8E90145DAF80490D8F87F
:102E4000002025F0030553199C420ED227687B1EF3
:102E5000033306D8214640460192FFF7FDFE019A52
:102E600090B9043453199C42F0D3FEF703F850464E
:102E7000FFF748FF002844D103B0BDE8F08FDFF82A
:102E8000B080DFF8A4A0BAE7B4F802B00BF1030BEE
:102E90004FEAAB0B0BF101030193261D4FF0000B22
:102EA00001E056F8047B48463946FFF779FE0BF1FE
:102EB000010B344609F104090028DDD1D8F8085087
:102EC000019BD8F8002025F003055B4502EB0501C6
:102ED000B9D98E42E5D303B0BDE8F08FDAF80070BF
:102EE0003968013108D0D3F808C061E7511C7FF47C
:102EF0005FAFD0469A4682E738469846DAF808C06F
:102F00007DE76FF07F415046FFF784FE0028B3D085
:102F1000D8F80830D8F80000B0FBF3F0FFF71EFE39
:102F2000024BC3F800A0A7E7380100207C26002050
:102F30004C01002030B370B48468D0E9005224F012
:102F400003042C440020944214D913685E1C11D051
:102F500093B15388167803339B10013302EB83033C
:102F60008E4208BF10469D4208D29C4206D91A469E
:102F70009442EAD870BC70470432E4E79C42E2D144
:102F800070BC7047704700BF38B5184D18482C68A2
:102F90000268236811686FF07F4293421DD091420E
:102FA0001AD001331BD1013119D1A86820F00301D7
:102FB00021448C4209D2231D02E01268013210D153
:102FC00099421A4603F10403F7D86FF07F4107488E
:102FD000FFF720FE18B1054838BD9942FBD100200B
:102FE00038BDB4FBF0F0FFF7B9FDEEE73801002083
:102FF0004C01002010B50A4C23680BB1012010BD14
:10300000FFF7C2FF206018B1FFF77CFE0028F5D162
:10301000FFF7B6FE2068003018BF012010BD00BFCA
:103020007C260020424B98422DE9F0476BD0414A64
:10303000904203D000242046BDE8F087984607461A
:10304000FF210068FFF7ACFD0028F3D1D8F8085045
:10305000D8F8000025F003010144884216D2036825
:10306000013353D1031D1A4602E0246801344DD1C7
:103070009142144602F10402F7D802E012680132CC
:10308000D8D18B421A4603F10403F7D3D8F8045081
:103090004FF0000A5FFA8AF13846FFF74BFFA0B104
:1030A000B0F8029009F103094FEAA90909F10109F1
:1030B000061F0024284656F8041FFFF771FD01344F
:1030C00004350028B6D1A145F4D80AF1010ABAF5B1
:1030D000807FDFD1184D002340462B60FFF712FEA2
:1030E0000028A7D06FF07F414046FFF793FD0446CC
:1030F00000289FD03868BB68B0FBF3F0FFF72EFDC7
:10310000C5F8008097E7DFF82C8098E7B0FBF5F072
:10311000FFF724FDD8F80810D8F8000021F00301CB
:1031200001448842B2D20368013383D1031DA8E76A
:10313000380100204C0100207C26002038B5FFF724
:1031400009FD0446FFF706FD124A1349134D1460AA
:1031500000F58053043300F580500434C1E90003C6
:103160005460FFF747FF2B7873B10D4B186858B1C7
:1031700083680268D0E9034123F0030313441B1B57
:10318000A1EBA301994200D838BDFFF74BFF002304
:103190002B7038BD380100204C0100203401002084
:1031A0007C2600202DE9F04F9E4F3B6887B0002B16
:1031B00000F0D9801646002A00F0D5808146D01C48
:1031C0000C46801091084FF0000A013A0130890046
:1031D00092B2DB680190554602910392B04600938B
:1031E000002D40F0CE80D7F800B049465846FFF792
:1031F000A1FE0135EDB2824618B14388434500F087
:10320000DE80DBF80820DBF80030DBF80C0022F071
:1032100003021344019A1B1AB2EBA30F16D9DBF871
:1032200010309A4200F29F80022D00F09C80584698
:10323000FFF7F8FE002800F09680D7F800B0494666
:103240005846FFF777FE8246DBF80C006FEA090369
:10325000DBB2082203F001015B0809B183F01D0312
:10326000013A12F0FF02F5D183EA0803DBB208222B
:1032700003F001015B0809B183F01D03013A12F06C
:10328000FF02F5D183EA1823082203F001015B084D
:1032900009B183F01D03013A12F0FF02F5D104EBEE
:1032A000080C2146614510D011F8012B534008222B
:1032B00003F00106013A5B0816B183F01D03DBB28F
:1032C00012F0FF02F4D16145EED18DF814908DF823
:1032D0001530ADF816800599FFF762FC002846D13D
:1032E0003B68D3E903120431013AC3E90312029B9C
:1032F00004EB030B5C4510D03B682168D868FFF7EE
:103300004FFC0028F8D13B68D3E9031204340431A0
:10331000013A5C45C3E90312EED108F00303022B26
:103320007AD0032B61D0012B74D0BAF1000F0CD0EE
:10333000BAF802400334A410013450462146FFF786
:1033400055FC3A68136923441361012007B0BDE8B6
:10335000F08FD7F800B0DBF80C30022D03F1040336
:10336000CBF80C305AD1002007B0BDE8F08F3B6895
:10337000002BF8D0DB68DDF800A00093002D3FF4AF
:1033800032AF009BA3EB0A039B109AB24FF6FF717A
:103390008A42DED00AF1040606EB8206D34601E03B
:1033A0005E45D6D058460021FFF7FAFB0BF1040B1F
:1033B0000028F5D00020386007B0BDE8F08F2178F4
:1033C0000379994200F104027FF41BAF039923466D
:1033D00001EB040C06E013F8010F12F8011F8842FC
:1033E0007FF40FAF9C45F6D1AFE7A3781B0462785A
:1033F00043EA022321783A681943D068FFF7D0FBEB
:103400000028B4D13B68D3E903120431013AC3E97F
:1034100003128AE70023EDE70023E8E7CDF800A0D8
:10342000E3E600BF7C26002038B50F4B1B68CBB10C
:103430000C46014618461546FFF77CFD034688B149
:103440004088A84228BF284658B11D1D421E611E53
:10345000033315FA82F413F8012F01F8012FA34268
:10346000F9D138BD184638BD7C26002002F046BC94
:1034700030B50A4B0A4C83B00546009103442146FF
:1034800001226B202570FEF78BFB08B903B030BD1D
:103490000820FEF767FB03B030BD00BF9026002078
:1034A0008026002038B50A4C0A492046002508220B
:1034B00000F8015B0FF0E7FD2B46214609226B2047
:1034C000FEF7A4FB00B938BD0820FEF74BFB38BD62
:1034D000802600209026002038B51648164D4FF063
:1034E000A04300220C2102240270C3F8101701200F
:1034F000C3F814271146C5F81047C3F85447FEF720
:10350000BBFA00B938BD01210A20FFF7B1FF20B195
:103510000A4B9C7A6409012C03D0BDE83840FEF7C1
:10352000F3BA0749074AC3E90012FFF7BBFF064B8E
:103530001C70F2E78D26002000030050902600202A
:10354000324B7D00B21C734B8C26002038B50A4CE0
:103550000A4B01220321052000252570FFF782FA7E
:103560000520FFF7B7FA06494FF0A0420223C1F841
:103570001037C2F8543738BD8E2600206D34010054
:103580000003005008B50520FFF7A8FA0520FFF753
:10359000A7FA04494FF0A0420223C1F81037C2F83D
:1035A000543708BD00030050014B1878704700BF26
:1035B0008D26002038B5002105460120FEF75CFA73
:1035C00098B1214B2149224A012DC3E9001219D09B
:1035D00028D3022D0CD0FFF765FF044608B11D4B20
:1035E0001D70FEF791FA204638BD0446204638BDCE
:1035F0004FF0A041184AC1F854571278DAB96B223B
:103600005A70E8E715494FF0A0420220C1F81007B0
:103610004FF4001403205B21C2F80C45C2F8540794
:103620005970D8E70D494FF0A0420223C1F8103776
:10363000C2F85437CFE7094A10200321C2F8080521
:10364000C2F81017DBE700BF90260020324B7D0048
:10365000B21C734B8D2600208E26002000030050E4
:103660000B4B0C4A1B7810701BB10B4B1B78022BB9
:1036700000D0704718B9094AC2F810377047074B95
:1036800010210322C3F80815C3F81027704700BFA4
:103690008C2600208E2600208D260020000300505E
:1036A00000B5002183B00120FEF7E6F910B903B0A0
:1036B0005DF804FB01210820FFF7DAFE30B9019024
:1036C000FEF722FA019803B05DF804FB01210920FE
:1036D000FFF7CEFEF3E700BF094B5A7A5AB91B7ABF
:1036E000C3F301134BB1022B03D9032B05D10220E5
:1036F000704701207047032070470020704700BFCB
:1037000090260020064B5B7ADA0754BFC3F34000D3
:10371000022013F0FC0F18BF40F00040704700BFBC
:1037200090260020134B1B780BB90020704700B582
:1037300083B0FEF763F9012818D0FEF7E5F9002100
:103740000120FEF799F918B9002003B05DF804FBD9
:10375000094B0A490A4AC3E90012FFF7A3FE019088
:10376000FEF7D2F9019803B05DF804FB2020FEF7C4
:10377000F9F9E2E78C26002090260020324B7D00EC
:10378000B20C736B08B500210120FEF775F900B982
:1037900008BD09210020FFF76BFE18B9BDE80840FD
:1037A000FEF7B2B901210920FFF762FEBDE808402B
:1037B000FEF7AAB938B5214C214B224A217822487C
:1037C000002914BF1146194603F076FC1F4803F088
:1037D00073FC1F4B1B78012B2CD027D3022B05D059
:1037E0001C4803F069FC23784BB938BD1A4803F034
:1037F00063FC184803F060FC2378002BF5D0174CCD
:10380000174803F059FC207803F008FC04F10A057E
:10381000202003F037FC14F8010F03F0FFFBAC424B
:10382000F6D11048BDE8384003F046BC0E4803F01E
:1038300043FCD5E70D4803F03FFCD1E78C26002080
:10384000D4480200CC4802008C4802009448020090
:103850008D260020B0480200AC48020090260020CF
:10386000B8480200C84802009C480200A448020070
:10387000074B1B6853B10138042807D8DFE800F074
:10388000030303030300034A12881A80704700BF32
:10389000F42600209C26002070B5084C23461546CF
:1038A00003F8010B18460FF0EEFB6A1C21460023BB
:1038B0005520BDE87040FEF7A9B900BFC42600201E
:1038C00010B51020FEF74EF9044610B14220FDF766
:1038D000FDFB204610BD00BF084B1A786AB10849AD
:1038E00000200A781870074B022A1B689CBF01321F
:1038F0000A7013B16FF001001847704718270020B5
:10390000EC260020F026002070B5164C237803B971
:1039100070BD0546FEF7F8F813480DF067FE032D5D
:1039200010D0124A1378022B9CBF01331370104B36
:103930001B6800212170002BEAD04FF0FF30BDE85A
:10394000704018470B4A094B1078002119702170FC
:10395000FFF78EFF064B1B68002BD9D00846BDE849
:103960007040184718270020F8260020EC26002079
:10397000F0260020EE26002070B5284B284E294D59
:10398000307082B004462A601960BAB1264900201E
:10399000FEF772F870B1013C244B2549E4B2552082
:1039A0001A5D0A7002220092224B0122FEF7F8F8FB
:1039B0000546E8B90025284602B070BD11461046FC
:1039C000FEF75AF80028F5D0631EDBB2174A1849F3
:1039D000D25C0A7002220092164B01225520FEF79B
:1039E000DFF888B90025FEF78FF8284602B070BDD1
:1039F0001149124A124801240C70002310210DF0C5
:103A0000CDFD284602B070BD1020FEF7ABF805468C
:103A10000028E7D02046FFF72BFFE4E7F42600203C
:103A2000EE260020F026002009390100DC480200C3
:103A3000C42600209C26002018270020D938010029
:103A4000F82600201C4B1B780BB90020704710B5DE
:103A500084B00446FDF7D2FF012824D0174B1A7812
:103A6000CAB900210846FEF707F888B1002C04A95E
:103A70000CBF1223112321F8023D02220020FFF780
:103A80000BFFA0B90190FEF73FF8019804B010BDFC
:103A9000002004B010BD002209481A700DF0A6FDE8
:103AA000FEF732F8DDE72020FEF75CF8D6E71020BD
:103AB000FEF758F8E6E700BFED26002018270020A3
:103AC000F826002070B584B004A90024054621F82A
