:040000031000ADB18B
:020000040000FA
:10E0000000000420B1AD0100D9AD0100DBAD01007D
:10E01000DDAD0100DFAD0100E1AD01000000000059
:10E02000000000000000000000000000E3AD01005F
:10E03000E5AD010000000000E7AD0100E9AD010021
:10E04000E9B80100EBAD010039070100EBAD0100BB
:10E0500069B90100EBAD0100C5B20100EBAD0100F3
:10E06000EBAD0100EBAD0100EBAD0100EBAD01004C
:10E07000EBAD0100EBAD0100EBAD0100EBAD01003C
:10E08000B5B6010001B60100EBAD0100EBAD01003A
:10E09000EBAD0100EBAD0100EBAD0100EBAD01001C
:10E0A000EBAD0100EBAD0100EBAD0100EBAD01000C
:10E0B000EBAD0100EBAD010000000000000000002E
:10E0C000EBAD0100EBAD0100EBAD0100EBAD0100EC
:10E0D000EBAD0100EBAD0100EBAD010089D101001A
:10E0E000450F0100EBAD0100EBAD010000000000A9
:10E0F00000000000EBAD010000000000EBAD0100EE
:10E10000000000000000000000000000000000000F
:10E1100000000000000000000000000000000000FF
:10E1200000000000000000000000000000000000EF
:10E1300000000000000000000000000000000000DF
:10E1400000000000000000000000000000000000CF
:10E1500000000000000000000000000000000000BF
:10E1600000000000000000000000000000000000AF
:10E17000000000000000000000000000000000009F
:10E18000000000000000000000000000000000008F
:10E19000000000000000000000000000000000007F
:10E1A000000000000000000000000000000000006F
:10E1B000000000000000000000000000000000005F
:10E1C000000000000000000000000000000000004F
:10E1D000000000000000000000000000000000003F
:10E1E000000000000000000000000000000000002F
:10E1F000000000000000000000000000000000001F
:10E2000010B5054C237833B9044B13B10448AFF370
:10E2100000800123237010BD280A002000000000A8
:10E22000C014020008B5034B1BB103490348AFF308
:10E23000008008BD000000002C0A0020C01402006D
:10E24000154B002B08BF134B9D46A3F5803A0021C8
:10E250008B460F461348144A121A00F063F80F4B0E
:10E26000002B00D098470E4B002B00D09847002081
:10E27000002104000D000D48002802D00C48AFF327
:10E28000008000F02BF82000290001F03BFB00F09B
:10E2900011F800BF0000080000000420000000008A
:10E2A00000000000280A0020D0CF0020000000005D
:10E2B0000000000008B5074B044613B10021AFF37E
:10E2C0000080054B1868836A03B19847204600F028
:10E2D00031F800BF00000000F0F8010070B50D4EED
:10E2E0000D4CA41BA4100025A54209D10B4E0C4CCB
:10E2F00011F0F2FAA41BA4100025A54205D170BDAF
:10E3000056F8253098470135EEE756F825309847FE
:10E310000135F2E71C0A00201C0A00201C0A00201C
:10E32000200A002002440346934200D1704703F8BC
:10E33000011BF9E7FEE700BF38B50488B4F5CD7FCF
:10E3400005463AD0B4F5DB7F2DD01CB10023038005
:10E35000032038BD2A4B2B481C700AF02DFC01F01D
:10E360000DF900F027FB07F0D9F807F0F3F826487D
:10E3700007F050F900F04EFE24480AF007F8244850
:10E380000AF00AF8234809F091FC234809F094FCAC
:10E39000224B2246186885210FF04EFA4FF4CD73B8
:10E3A0002B80012038BD82291DD01D4B9A421FD0E1
:10E3B0004FF4DB732B80012038BD852901D001206B
:10E3C00038BD184807F0E0FF09F0A2FA47F23F70A5
:10E3D00009F0E2FA144809F0D9FA144809F02AFBC6
:10E3E00007F0E4FAE4E702210D480FF0A9F8DFE7AF
:10E3F00010460FF0C3F80028DAD000F0B1FCD7E7E0
:10E40000550A0020ADE40000D1E4000089E40000DA
:10E410001DE5000031E40000A9E40000E0CE00208A
:10E42000440A002019E7000049E50000E5E4000087
:10E4300000F03CBD10B509F007FE847909F042FCFC
:10E4400028B124B1012C10D0022C05D010BD002021
:10E45000BDE8104000F016BB0128F9D00228F5D124
:10E460000320BDE8104000F00DBB012806D00228B3
:10E47000ECD10420BDE8104000F004BB0220BDE850
:10E48000104000F0FFBA00BF08B500F0D5FC07F05F
:10E49000D9F908F0FBF80A2008F0DEF8FFF7CAFF08
:10E4A000BDE8084000F020BBFFF7C4BF08B501F08D
:10E4B00003F809F099FA037823B10120BDE8084078
:10E4C00000F0B8BA0AF084FBBDE8084000F0B2BA28
:10E4D00001480FF0D1B900BF74000020002000F007
:10E4E000AFBA00BF10B5044607F058FF00B110BD29
:10E4F000204609F057FF0028F9D1064920460CF0C4
:10E500008FF80028F3D021460348BDE8104008F0FA
:10E51000BDB800BFFCF8010004F9010000F0C6BC62
:10E5200008B500F06FFA074807F072F941F2883039
:10E5300001F0C0FD09F012FA08F056F8BDE80840F5
:10E5400001F046BE2CF90100C20738B5044600F1BF
:10E550009A80A3077ED4650571D4A0055CD4A1067A
:10E560004CD4E20539D4630731D4250729D4E00619
:10E5700021D4610413D4E2040CD4A30400D438BD24
:10E580004FF4005009F010FA09F05AFABDE838408B
:10E5900000F0B0BA4FF4805009F006FAEDE74FF4FE
:10E5A000804009F001FA07F04DF908F06FF80A20F1
:10E5B00008F052F8DFE7102009F0F6F900F034FB1C
:10E5C000D7E7082009F0F0F900F01CFBCFE70420A2
:10E5D00009F0EAF900F004FBC7E74FF4807009F096
:10E5E000E3F909F013FA00F079FA00F07DFA0AF085
:10E5F0009BF809F00BFA0AF0A9FAB4E7202009F019
:10E60000D3F900F06DFB09F0EFF90378002B45D04A
:10E61000012000F00FFAA4E74FF4007009F0C4F9EC
:10E6200000F0D2FF00F012FB09F0E6F9054600F019
:10E630008DFFAA8AD5E900010AF070FA8FE74FF43E
:10E64000806009F0B1F909F0DBF9002885D1FFF706
:10E6500067FF82E7022009F0A7F909F0E5F9002831
:10E660003FF479AF114B1A78DAB909F0DDF90128D6
:10E670007FF471AF00F0A4FA0D4807F0C9F80D4817
:10E6800007F08CFE67E7012009F08EF909F0D8F950
:10E6900000F030FA074807F081FE5AE70AF098FACE
:10E6A000B7E700221A7000F0E3FEDEE7550A00200B
:10E6B00014F9010008F9010038B50278062A054668
:10E6C0001AD0124C23789A4207D0072A07D0072B7A
:10E6D00019D0002000F0B4F92B78237038BD022047
:10E6E00000F0AEF900230A4A0A484FF440710EF0D8
:10E6F00029FE2B78237038BD0120044C00F0A0F9CE
:10E700002B78237038BD0320EAE700BF540A0020AD
:10E71000DDE40000580A002008B5FFF7CDFFBDE892
:10E72000084000F005BB00BF08B509F07DF918B935
:10E73000034B01221A7008BDBDE8084000F098BEE6
:10E74000550A002010B5144C236813B3188800B97B
:10E7500010BD9B78114A03F00F0352F8230007F015
:10E7600041F923680E489A7812F0100F4FF0A0423A
:10E770004FF480510CBFC2F80C15C2F80815198867
:10E78000084A00230EF0DEFD2368033323600120D6
:10E7900010BD184610BD00BFA40A00203CF90100BE
:10E7A000840A002079E9000008B5354B1870092863
:10E7B00006D8DFE800F00505192A3438415009155C
:10E7C000304B314A1A6008BD304B1B78022B52D0B7
:10E7D000032B4CD0012BF6D12A4B2D4A1A6008BDD1
:10E7E000284B2C4A1A6008BD2B4B1B78012B02D1F9
:10E7F000244B2A4A1A602A4B1B78032B2FD0042B58
:10E80000E1D1204B274A1A6008BD254B1B78012B0C
:10E8100029D0022BD7D11B4B234A1A6008BD194BB4
:10E82000224A1A6008BD174B214A1A6001F010FCF9
:10E83000204B1E30186008BD1F4A20491078204B1D
:10E84000104A002808BF0B46136001F001FC1D4B65
:10E850000830186008BD0B4B1B4A1A6008BD094BF5
:10E860001A4A1A6008BD074B194A1A6008BD054BC1
:10E87000184A1A6008BD034B174A1A6008BD00BF4A
:10E88000B30A0020A40A002090F90100B40A002075
:10E890002CFA0100B0F90100790A002064F90100A6
:10E8A000B10A0020CCF90100E0F90100E8F901000B
:10E8B00098F90100AC0A00207A0A0020F4F901005E
:10E8C00070F901007C0A002084F90100BCF9010004
:10E8D000D4F9010014FA010000FA010008B51D4A3C
:10E8E0001D4B1278187800211970FAB91B4B197852
:10E8F000C9B91B4B1B7833BB1A4B1B78C3B91A4BD6
:10E900001B78DA1E012A13D9013B012B1FD9E0B96C
:10E91000164B1B7873B101F09BFB154B1B6898429B
:10E9200008D3052008BD1A70072008BD092008BDBE
:10E93000022008BD01F08CFB0E4B1B6898422CBFD7
:10E940000620002008BD082008BD042008BD0320C3
:10E9500008BD00BFB00A0020B20A0020800A0020D3
:10E96000B40A0020790A0020B10A0020A80A002079
:10E97000AC0A00207C0A002010B5FFF7E3FE00B1CE
:10E9800010BDFFF7ABFF084B1870FFF70DFFFFF747
:10E99000D9FE0028F4D103460146044A0448BDE8E4
:10E9A00010400EF0CFBC00BFB30A002079E9000090
:10E9B000840A002010B50E4B1C7804B110BD012252
:10E9C00020461A7007F00EF80A4B0B4919600B4AE3
:10E9D0000B48234621460EF0B5FC4FF0A0434FF400
:10E9E00080510322C3F80C15C3F8302710BD00BFB7
:10E9F000780A0020A40A002090F9010079E90000BB
:10EA0000840A0020094B1A7802B9704710B50848EB
:10EA100000241C700EF0BEFC204606F0E3FF4FF011
:10EA2000A0430222C3F8302710BD00BF780A00209F
:10EA3000840A0020014B1870704700BF790A00203B
:10EA40000C4B1A78824203D00B4A1870137803B922
:10EA5000704710B5FFF742FF082800D010BDFFF740
:10EA6000A3FE00231946054A0548BDE810400EF0F4
:10EA700069BC00BFB40A0020780A002079E90000D0
:10EA8000840A0020104B1A78824203D00F4A187073
:10EA9000137803B9704770B50D4DFFF71FFF2B7842
:10EAA0008342044606D0821ED2B2012A03D9023B19
:10EAB000012B00D970BD00232C701946054A064869
:10EAC000BDE870400EF03EBCB10A0020780A00207C
:10EAD000B30A002079E90000840A0020014B187075
:10EAE000704700BF7A0A0020014B01221A7070475C
:10EAF000800A0020014B1870704700BFB00A002048
:10EB000038B52C4C00230022C4E9002309F03AFC5C
:10EB10000378012B30D1D4E9002342F020001946BC
:10EB2000C4E9000108F060FF837833B1D4E9002321
:10EB300042F004001946C4E9000107F02BFC0178FB
:10EB400011F0FB0FD4E9002305D0052923D00629B5
:10EB500026D0072929D0184DD5E90001994208BFD0
:10EB6000904206D0154B1B68DB6A0122DA76D4E9A5
:10EB70000023C5E9002338BD09F004FC0378022B0B
:10EB8000D4E900230CBF42F0300042F010001946D7
:10EB9000C4E90001C6E742F00102C4E90023DAE754
:10EBA00042F00202C4E90023D5E742F00302C4E9BF
:10EBB0000023D0E7D8030020C00A0020D01E002088
:10EBC00008B508F0F9FE054A431E053013F8011F89
:10EBD00002F8011F8342F9D108BD00BFCF01002018
:10EBE00010B5074CFE2200212046FFF79BFB08F0E2
:10EBF000EFFEFD2201462046BDE8104010F0C7BAE6
:10EC0000D601002010B5074CFE2200212046FFF758
:10EC100089FB08F0E1FEFD2201462046BDE81040D8
:10EC200010F0B5BAD402002010B5074CFE22002126
:10EC30002046FFF777FB08F0D3FEFD220146204671
:10EC4000BDE8104010F0A3BA3304002038B508F036
:10EC5000D3FE204C0368C4F820334368C4F824333F
:10EC60008368C4F82833838AA4F82C33054600F05F
:10EC7000E3FDA4F8300300F0E5FD51EC100B0FF0BC
:10EC800005FF84F82E032B68134AD91782FB030370
:10EC9000C1EB6313A4F812336B6882FB0312DB171A
:10ECA000C3EB6213A4F81433AB8AA4F8163300F054
:10ECB000C3FD84F8180300F0C5FD51EC100B0FF0F4
:10ECC000E5FE064B84F819031B681B6B0122DA76FC
:10ECD00038BD00BFD00000201F85EB51D01E0020A2
:10ECE00038B508F081FEC51C0446294616220D4899
:10ECF00010F0CCF800B938BD29461622094810F0AA
:10ED0000D4F8094BA178094A83F863142178126872
:10ED100083F86214536B0122DA76BDE83840FFF7BE
:10ED2000EFBE00BF34050020D0000020D01E002020
:10ED300008B507F02FFB0378072B06D00622002129
:10ED40000648BDE80840FFF7EDBA07F023FB0622AE
:10ED5000011DBDE80840014810F0A7B84A05002091
:10ED600070B584B0002401A806222F49ADF80840F0
:10ED7000019410F08BF838B12B4807F0F1FB2146D5
:10ED800006222948FFF7CEFA07222849284810F022
:10ED90007DF890B3274B93F8611393F85F6393F872
:10EDA0005E5393F860430022481ECDE9012203928E
:10EDB00059284FF001028DF807608DF805508DF845
:10EDC00006408DF80B201AD893F85D23ADF80E108D
:10EDD000012A1ED0022A93F8623304BF01228DF863
:10EDE0000420012B1CD0022B1AD001A809F030F905
:10EDF00007220E490E4810F058F804B070BDB4292F
:10EE0000E2D04FF4B472ADF80E2093F85D23012ADE
:10EE1000E0D193F862330222012B8DF80420E2D175
:10EE20008DF80A30E1E700BF500500202C040020D7
:10EE3000B80A0020D000002008B509F005F90278D2
:10EE4000174B22B1022A27D0012A02D1022283F8CD
:10EE50005D23427883F85E23C27883F85F2382784B
:10EE600083F8602342895A2A05D9B42A03D0B2F51F
:10EE7000B47F02D1002283F861238279022A02D072
:10EE8000012A00D00AB983F86223072205490648FF
:10EE9000BDE8084010F009B8012283F85D23D8E7E7
:10EEA000D00000202C040020B80A00202DE9F84FE3
:10EEB000FFF726FE09F066FA534B0024C3E900442D
:10EEC0000278012A00F09380022A7FD02646274646
:10EED000417A4E4A090146EA010A47EAE17BC3E961
:10EEE00000AB90F8038012684FEA18454FEA0844D7
:10EEF0004AEA04064BEA0507C3E9006790F8048074
:10EF00004FEA18254FEA086444EA060845EA07096B
:10EF1000C3E9008990F805B04FF0000A48EA0A04F6
:10EF200049EA0B05C3E9004590F806804FEA082737
:10EF300047EA05094AEA0408C3E90089C6793504A5
:10EF400048EA0A0849EA0509C3E90089067A310650
:10EF500041EA09054AEA0804C3E90045926A2C4BD4
:10EF60000121D176027883F84123427AA3F8422323
:10EF7000C27883F84423027983F84523427983F8E1
:10EF80004623827983F84723C27983F84823027A9B
:10EF900083F8492390F90A2083F84A234278E2B99A
:10EFA00082781AB1012A01D0022A01D183F84B23B9
:10EFB000028BA3F84C23C269C3F85023026AC3F83A
:10EFC0005423426AC3F85823BDE8F88F0221002277
:10EFD0000E46196017465A607AE7012AE8D182780E
:10EFE00052B1012A0CD0022AE2D10522DEE701212A
:10EFF0000E46196027466BE7032283F84B23D7E7B9
:10F00000042283F84B23D3E708040020D01E0020FD
:10F01000D000002010B50A4CFE2220460021FFF748
:10F0200081F904F1FE00FE220021FFF77BF904F2D2
:10F030005D20FE220021BDE81040FFF773B900BF3C
:10F04000D601002010B5134C1348216807F01EFBB1
:10F050002368042B1DD8DFE803F0080D1217030006
:10F060000E48BDE8104007F011BB0D48BDE8104048
:10F0700007F00CBB0B48BDE8104007F007BB0A487F
:10F08000BDE8104007F002BB0848BDE8104007F09B
:10F09000FDBA10BDC80A0020B0020200FC02020046
:10F0A000C0020200C8020200D4020200E80202000C
:10F0B00008B50BF09DFA20B90120BDE8084007F023
:10F0C000F7BABDE80840FFF72FBB00BF01490BF0BE
:10F0D0002DBB00BF4803020010B509490BF026FB09
:10F0E00060B1044610F039F8064B074A00F10801F8
:10F0F000A4F10800BDE8104007F01CB910BD00BF26
:10F1000048030200F8060200E0060200014806F08B
:10F110007FBB00BFCC03020030B50A4C0A4825462D
:10F1200085B055F8171BD4E9012302952569A48AF7
:10F13000CDE9004507F0AAFA044B00221A7005B089
:10F1400030BD00BFF4CE00201C030200CC0A00201A
:10F15000F0B587B0054609F04FFF064628460BF08C
:10F1600047FA58B109F042FF044609F071FE214602
:10F170000246684807F08AFA07B0F0BD04466649BF
:10F1800028460BF04DFA002866D028460BF03AFAD4
:10F19000624905460BF0CAFA05A90BF039FC0028B4
:10F1A00076D15F4928460BF0C1FA0DF116010BF03C
:10F1B0002FFC002873D0BDF81640002C6FD009F04A
:10F1C00015FF013C84426AD2BDF8163003EB83037D
:10F1D00006EB0316B6F1500561D0AB8E95F83710EB
:10F1E0006A8E029195F836100191298E00914D4852
:10F1F000194607F04BFA95F837307BB14A4E05F1C6
:10F2000037046178304607F041FAA4F1360395F8E7
:10F2100037205B1B9A4204F10104F2D895F849208B
:10F2200095F84810414807F031FA95F849307BB11C
:10F230003F4F2E460024726855F83410384607F0C8
:10F2400025FA95F849300134A34206F10806F2D8B0
:10F25000384807F01BFA8FE7374928460BF02CFA9D
:10F2600060B9354928460BF061FA0DF116010BF033
:10F270001FFC08B39DF81630042B15D9FFF7E2FEEA
:10F2800007B0F0BDBDF81430AA8E9A42A6D0013462
:10F2900009F0ACFEA042354606F15006F2D82748E8
:10F2A00007F0F4F907B0F0BD254A0CBF012000209B
:10F2B000136009F087FCE1E7224928460BF0FCF9CE
:10F2C00028B1214B01221A70FFF726FF54E71F498E
:10F2D00028460BF0F1F988B11D4807F0D7F909F07D
:10F2E0008FFE08F081FB1B4A01781B4B1B4800294D
:10F2F0000CBF1146194607F0C9F93DE728461849E1
:10F300000BF0DAF900283FF437AF164807F0BEF9E2
:10F3100032E700BFD8030200F00302009C0B02009A
:10F32000F4030200F80302001404020010040200B7
:10F330001C04020028040200440402002C04020001
:10F34000C80A002048040200CC0A00204C04020035
:10F3500054040200D40302004C0602005C040200C4
:10F360006C0402007004020010B582B004460BF079
:10F370003FF980BB324920460BF052F900BB3149BE
:10F3800020460BF04DF958BB2F4920460BF048F9A9
:10F39000B0B92E4920460BF043F978B320460BF064
:10F3A00031F904460BF024F968B306F001F904467C
:10F3B00006F02AF921460246254807F067F908E0D9
:10F3C000244806F025FA204606F022FA224806F0E4
:10F3D0001FFA02B010BD012007F06AF902B010BD9B
:10F3E00020460BF00FF91D490BF01AF90028F0D058
:10F3F0001B4806F00DFAFFF793F8EAE72146194893
:10F4000007F044F9E5E7184920460BF08FF90DF1B4
:10F4100006010BF04DFB18B19DF8060006F0A2F8AE
:10F42000124920460BF082F90DF107010BF040FB69
:10F430000028BAD09DF8070006F0C0F8B5E700BF75
:10F440004C03020058030200640302006803020038
:10F450007003020050030200180302005C03020064
:10F460002CF90100880302009C0B02006C030200CF
:10F4700038B50F4807F00AF908F09EFA441E451DFA
:10F4800014F8010F07F0D4F8AC42F9D108F098FA5B
:10F49000044608F099FA214603464BF6CE62054829
:10F4A00007F0F4F80A20BDE8384007F0D5B800BFEF
:10F4B000500602005C0602002DE9F8431C4C25684A
:10F4C0001DB310B3022D1E4617468946804628D02C
:10F4D000B9F1000F14BF3123302398F83620B8F863
:10F4E0003410144807F0D2F82368042B0FD03EB133
:10F4F0001149124B1248022E18BF194607F0C6F8E0
:10F500000A20BDE8F84307F0A7B8BDE8F883002F4C
:10F5100014BF312130210B4807F0B8F8002EEFD08E
:10F52000E6E7094B1B78002BD2D0FFF7F5FDCFE7BC
:10F53000C80A0020A4030200980302009C030200F2
:10F54000C4030200BC030200CC0A0020014608B537
:10F550002C2207480FF0A9FC064B074A1B68012123
:10F56000022B117000D808BDBDE80840FFF7D4BDDC
:10F57000F4CE0020C80A0020CC0A002008B507F00D
:10F5800015F80A4807F03EF8094807F03BF8094823
:10F5900007F038F8084807F035F8084807F032F85F
:10F5A0000748BDE8084007F02DB800BF000800205C
:10F5B000E0070020D0070020C0070020100800202E
:10F5C000F0070020000000002DE9F04F2DED028B28
:10F5D0008F4E904D85B008F00FFA337804466BB922
:10F5E0008D4F23682B60636822696B6001233A604A
:10F5F000337005B0BDEC028BBDE8F08FD0F8008011
:10F600002868D4F804A0A8EB00000EF025FF41EC18
:10F61000100B0EF0B5F96868B0EE408AF0EE608A23
:10F62000A0EB0A000EF018FF41EC100B0EF0A8F949
:10F630002968B0EE401AF0EE601A884500F08A8022
:10F640006B689A451BD040F38D80884540F3A780B6
:10F65000B0EE481AF0EE681A0EF0F4F9002251EC00
:10F66000100B6E4B0EF062FF67A3D3E900230FF07F
:10F6700087F80FF00BFAD5E9001B80B204E0D346FF
:10F680008845B4BFB4200020654B634F22691880C1
:10F6900088453B684046A8BF0846D31A8845ACBF9A
:10F6A000C0EB0800C0EB010001930EF0D5FEDA4577
:10F6B0005246A8BF5A4680461046DA45ACBFC0EB5A
:10F6C0000A00C0EB0B0089460EF0C6FE4246824699
:10F6D0008B464B46404649460EF028FF5246804630
:10F6E00089465B46504659460EF020FF02460B46BF
:10F6F000404649460EF064FD41EC100B0EF0A4F9B3
:10F700000198DFF830818DED020B0EF095FE9DED36
:10F71000020B02460B4651EC100B0FF031F80022A1
:10F72000404B0FF02DF800223F4B0EF0FFFE002261
:10F730003D4B0EF0FBFE00223C4B0EF0F7FED8E9ED
:10F7400000230EF03DFD0022394B0FF019F8C8E9F7
:10F75000000146E7D5F804B0DA45414650D01BDB3E
:10F760005A2091E7884532DCB0EE481AF0EE681A6C
:10F770000EF068F9002251EC100B284B0EF0D6FE6B
:10F7800021A3D3E900230EF0FBFF0FF07FF9B43083
:10F7900080B2D5E9001B77E74FF4877074E7B0EECD
:10F7A000480AF0EE680A0EF04DF9002251EC100BF9
:10F7B0001A4B0EF0BBFE14A3D3E900230EF0E0FFBA
:10F7C0000FF064F95A3080B2D5E9001B5CE7B0EE67
:10F7D000480AF0EE680A0EF035F9002251EC100BE1
:10F7E0000E4B0EF0A3FE08A3D3E900230EF0C8FFD2
:10F7F0000FF04CF900F5877080B2D5E9001B43E7A4
:10F80000002041E7AFF30080182D4454FB2109404C
:10F81000DC0A0020D00A0020E00A002000806640B8
:10F82000E40A002000408F4000004E4000002240CB
:10F8300000002440E80A0020014B1888704700BFF0
:10F84000E40A0020014B93ED000B7047E80A00200A
:10F850001B4A022330B4C2F80435D2F80034002B1E
:10F86000FBD0184B164C1D68C2F80855D4F800346C
:10F87000002BFBD00023124AC4F80435D2F8003420
:10F88000002BFBD001230E4CC2F80435D4F8003411
:10F89000002BFBD06FEA00406FEA104040EA0120E5
:10F8A000074A2860D2F80034002BFBD0002304491B
:10F8B000C2F80435D1F80034002BFBD030BC7047BF
:10F8C00000E0014020080020014B1B6818787047B9
:10F8D00020080020014B1B68587870472008002042
:10F8E000BFF34F8F0549064BCA6802F4E062134329
:10F8F000CB60BFF34F8F00BFFDE700BF00ED00E01E
:10F900000400FA0510B505F077FF00F0F5FB01F0F3
:10F9100049F809480DF086FC0DF032FF044600F06E
:10F920006BFA002CF8D172B60DF07CFF10B9BFF362
:10F930004F8F30BF62B6EFE7F4F801002DE9F041D8
:10F94000D0E902470546E41B406894421646384415
:10F950000DD8161B884622460FF0A7FA08EB0401C3
:10F96000324668680FF0A1FAEE60BDE8F0813E44CF
:10F970000FF09BFAEE60BDE8F08100BF2DE9F8437F
:10F980008846D0E90215064617464FF0000933694C
:10F9900070689D4203F1FF3426BF03F1FF335B180B
:10F9A000631BA1EB050428BF5B1BBC4228BF3C4680
:10F9B0009C4228BF1C464146284422460FF075FA57
:10F9C000B1682544A94208BF00253F1BA144A044BB
:10F9D000F560DCD14846BDE8F88300BF38B5114C6E
:10F9E000114BE3614FF4006310482362102500239C
:10F9F0000F4AA3620F496066A56663622367E366E8
:10FA0000E01D01230325E3626367A2612266C4E966
:10FA100004550FF09AFB204607490FF096FB202370
:10FA2000A37138BD20CF0020000B0020F00A002079
:10FA30008806020094060200980602002DE9F04FA5
:10FA4000DFF8A89099F8003083B080468B46924644
:10FA5000002B47D04FEA480707EB080609EBC6061C
:10FA6000356FF36E9D421FD85C1B544528BF54462A
:10FA70001CB9204603B0BDE8F08F002607EB080351
:10FA800009EBC3032246596E584629440FF00DFA7C
:10FA900025443444002CECD0474409EBC7072046EA
:10FAA0003D6703B0BDE8F08FD6E91914641B5445D7
:10FAB00028BF544622462944584601930FF0F5F9D1
:10FAC000B26E019B2544AA42AAEB040A14BF5B1B39
:10FAD0000025534528BF5346002BDBD0A3442646C0
:10FAE0001C46CBE7FFF77AFFB4E700BF20CF00202A
:10FAF00010B50B46EFF311844FF0200181F311880C
:10FB00001946FFF79BFF84F3118810BD70B5204D97
:10FB100000EB400305EBC3030130DC6A00EB40005F
:10FB2000012C05EBC0000E46154617D008D3022C59
:10FB300002D00024204670BDBDE87040FFF71EBF14
:10FB40009A6A596A8A421DD9013A521A9542F1D8E5
:10FB500031462A46FFF7F2FE2C46EBE79A6A5C6ACA
:10FB6000A2420AD9013A141BAC4228BF2C463146A6
:10FB70002246FFF7E3FE204670BD1B6A1344013B9B
:10FB80001C1BF1E71B6A1344013B5A1ADEE700BF56
:10FB900020CF002030B50C4B1B7883B00D462BB91D
:10FBA000CDE90002FFF71AFFDDE90002EFF311844F
:10FBB0004FF0200181F311882946FFF7A7FF84F356
:10FBC000118803B030BD00BF20CF0020044B00EBF4
:10FBD000400003EBC003D86E1B6FC01A704700BF14
:10FBE00020CF00200C4BDA6E1B6F9A4211D000B56B
:10FBF00083B001220DF107010020FFF779FF0128F2
:10FC000004D19DF8070003B05DF804FB4FF0FF300E
:10FC1000F9E74FF0FF30704720CF00202DE9F04189
:10FC20000A460D46074601460020FFF7B3FF85420E
:10FC3000044610D8164E4CB93368012B01DC013351
:10FC400033602046BDE8F081002CFAD000233360F9
:10FC50002046BDE8F08100F041FA00F500600C4E4E
:10FC60001FFA80F808E03368012BEDDC00F036FA6B
:10FC7000A0EB08000304DED52A1B39190020FFF78A
:10FC800089FF0444A542EED8002CD5D0DEE700BFA2
:10FC90004413002009B908467047FFF7BFBF00BFF3
:10FCA00000B583B002AB012103F8010D1846FFF740
:10FCB000B5FFA0F10100B0FA80F0400903B05DF893
:10FCC00004FB00BF38B5054600200C46FFF77EFF59
:10FCD000A04228BF204600B938BD22462946002050
:10FCE000BDE83840FFF704BF10B50F480BF036F8F9
:10FCF00003280BD8DFE800F0020B020B0B4C237833
:10FD000023B10B480DF046FB0023237010BD0749BB
:10FD10000B78002BFAD101240C70064A04481921F3
:10FD2000BDE810400DF00EBB24130020001300208E
:10FD3000041300206DFD000008B5014603480AF0D9
:10FD4000FBFFBDE80840FFF7CFBF00BF2413002032
:10FD500010B50A46014604480AF0DAFF044608B125
:10FD6000FFF7C2FF204610BD2413002008B50B4B3F
:10FD70001B788BB10A4BDA6E1B6F9A4204D109488B
:10FD8000BDE808400DF0EABA07480BF001F8054855
:10FD9000BDE808400DF0E2BA08BD00BF0013002026
:10FDA00020CF00200413002024130020704700BF40
:10FDB00008B5094909480BF091FC48B908480BF00F
:10FDC000C7FC08B10CF03CFA064B01221A7008BDC2
:10FDD0000CF036FAF2E700BFADFD0000B8060200F5
:10FDE0004813002049130020024B1B7803B97047C9
:10FDF0000BF0A0BC49130020034B1B7803B97047DC
:10FE0000024B18780BF0C8BC49130020481300209F
:10FE1000034B186818B90348034A10441860704728
:10FE20004C130020283F0100B8DF0000F8B5294B33
:10FE3000294DD3F804452B68284A294F16682949CB
:10FE4000DFF8B8C0E31A23F07F43C3EB431003EBA2
:10FE500080003044106010681668C6F3080616600B
:10FE60003E68400A06443E600F681F4E38440860F2
:10FE70000A680F68ACFB020292094FF47A7000FB2B
:10FE80001270086031681948194F0A4432600268DC
:10FE900018491344036002683B6803EB12133B608C
:10FEA000036803F00F030360224610320A40131B5D
:10FEB00023F07F43012BF8D9012300210E482C6049
:10FEC0000BF050FB0DF060FB00B9F8BDBDE8F84049
:10FED0000DF030BB001001405413002064130020CB
:10FEE000601300206C130020681300205C130020B6
:10FEF00058130020F0FFFF00D8060200D34D621017
:10FF000000B1704710B50446FFF790FF014B1C701D
:10FF100010BD00BF7013002070B500230E4E0F4DB2
:10FF2000337018460CF00CF8D5F804452834A4B208
:10FF300004E0D5F804351B1B1B0405D50CF042F872
:10FF40000028F6D001233370044BBDE87040D3F88D
:10FF500004350CF023B800BF5013002000100140FE
:10FF600070B52348234E244D244C2549254A0023AF
:10FF700082B033602B60236003600B6013600BF072
:10FF80005DFF002830D10BF051FE00200BF082FF06
:10FF90000BF0CEFF0028FBD01B4B1C4C1C4A93E8F7
:10FFA000030000230090ADF804101A48237069463E
:10FFB0000BF058FA08B10CF043F9174C1749184ADE
:10FFC000144801232360D1F804151160126810321F
:10FFD00022F07F4200210BF0C5FA0E480BF0AAFA7E
:10FFE000FFF79AFF02B070BD0CF02AF9CBE700BF13
:10FFF000601300205C1300205813002064130020BD
:020000040001F9
:100000006C13002068130020C40602007013002047
:1000100001FF0000D8060200081001400010014056
:100020005413002010B5064C20460BF08FFA2046E2
:100030000BF05CFA0BF05CFFBDE810400BF01EBF4C
:10004000D8060200014B1868704700BF5813002003
:10005000014B1868704700BF6813002010B483B0CC
:10006000EFF31083B3FA83F35B09019372B60D4B80
:100070000D490E480E4AD3F8043509680068126825
:10008000019C04B162B65B1A23F07F43C3EB4311BA
:1000900003EB8103134400EB532003B05DF8044BE2
:1000A000704700BF0010014054130020601300206F
:1000B0006413002020B1034B800143F00103184773
:1000C000704700BFD006020080B220B1024B800111
:1000D00043F0010318477047D0060200024BD3F8E3
:1000E000040580B2704700BF00100140014B01229F
:1000F0001A70704751130020164B012210B5C3F837
:10010000402501F053F800F02DF801F085F9124A6E
:10011000D2F8883043F47003C2F88830BFF34F8FB1
:10012000BFF36F8FFFF71CFFFFF742FE0DF00EFBD2
:1001300000210A480DF0E2FA0DF0CAF8FFF754FE6C
:1001400000200DF01BFC064B00211B680220BDE8BF
:100150001040184700E0014000ED00E0A00800203A
:10016000A00602004FF080434FF0FF31D3F8002487
:10017000C3F800140C490B784AB943F0010362F349
:10018000410362F3820362F3C3030B7070475008AC
:1001900003F0FE0360F34103900860F3820362F30F
:1001A000C3030B70704700BF74130020BFF34F8F61
:1001B0000549064BCA6802F4E0621343CB60BFF303
:1001C0004F8F00BFFDE700BF00ED00E00400FA051F
:1001D00008B50AF05FFE68B9FFF724FF72B64FF06A
:1001E00080430122C3F80025D3F80035BFF34F8FB9
:1001F00030BFFBE70BF038F8EEE700BF084A094BC9
:1002000011681B68994208D01168136806480133C9
:10021000C3F30803405C136070474FF0FF30704732
:10022000781500207C150020781300202DE9F84374
:10023000224B234D1F682B682C68BB420E461DD9EC
:10024000C4F50074A1422AD92968DFF878902246C3
:10025000494480460EF029FE00232B605FB1361B17
:10026000B74228BF3746494608EB04003A460EF02D
:100270001CFE2F603C442046BDE8F8833C1BFAD0AE
:100280002B681049B44228BF3446224619440EF068
:100290000CFE2B6823442B602046BDE8F8832B68B6
:1002A0000849324619440EF000FE2B683344C3F36C
:1002B000080334462B602046BDE8F8837C150020F7
:1002C000781500207813002010B5038804461BB170
:1002D000B42B05D1822907D0B4232380012010BD7F
:1002E00000230380032010BD01480AF051FDF3E70D
:1002F0008C19002030B40B490B4B0C4A0425C1F873
:10030000805000244FF0FF300221C3F80045C3F8AD
:100310000C05C3F81405C2F82C17C2F8341730BC0A
:10032000704700BF00E100E00020004000030050E3
:10033000144A137803B310B4134B144900244FF438
:1003400080701470C3F808030A784AB10122DA6099
:1003500002E0D3F820211AB9D3F85821002AF8D0A6
:100360000B4B1B7801220A701BB9074BD3F80035E1
:100370001BB95DF8044B704770475DF8044BFFF7FD
:10038000B9BF00BFAD19002000200040881900202F
:10039000AC19002070B41249124B134A0320C1F863
:1003A0002C074FF4006500202B242D26C1F808559A
:1003B000C3F80C454FF0EB75C1F83407C024C3F8FF
:1003C00014650421C3F86C050820C3F8245582F88D
:1003D0000243C2F880111160C3F8000570BC704779
:1003E000000300500020004000E100E008B50D4B84
:1003F0000D4918680D4A08600D4B01211170D3F8A2
:10040000003563B10A4B0B4800224FF48071027033
:10041000C3F82021C3F85821C3F8041308BDFFF71F
:10042000B9FFEFE78419002080190020AD190020E2
:10043000002000408819002070B41D4A1D4913682F
:100440000C680133C3F309039C422AD015681A4C87
:1004500060551A4D13602B7803F0FF00FBB9086854
:100460001368984220D008681368984234BF136814
:100470000B68134A38BF1B1A4FF6FF7128BFC3F52C
:1004800080634FF6FE760444B34288BF0B460121D9
:10049000C2F844450846C2F848352970916070BCDE
:1004A0007047002070BC7047012070BC704700BFCF
:1004B0008419002080190020801500208819002050
:1004C000002000402DE9F047002962D03B4EDFF8C4
:1004D000FC90D9F80070336835689F420C4680461E
:1004E0001DD8C5F58065A94257D93068DFF8D0A07E
:1004F0002A46504441460EF0D8FC0023012F3360B9
:100500001FD9791E671B8F4228BF0F46504608EB44
:1005100005013A460EF0C9FC37603D4411E07F1BEF
:10052000012F48D9791E8C423368254828BF0C46D4
:1005300022464146184425460EF0B7FC3368234452
:100540003360204A13782BBBD9F8001033689942E6
:1005500020D0D9F80040336819481B499C4236BF67
:100560003368D9F800301B1B204428BFC3F58063D3
:100570004FF6FE764FF6FF74B34288BF2346012440
:10058000C1F84405C1F8483514708C602846BDE8B0
:10059000F0870D462846BDE8F08733680848414695
:1005A000184422460EF081FC33682344C3F3090348
:1005B00033602546C5E70025C3E700BF8419002046
:1005C000801500208819002000200040801900209C
:1005D000124A134B10B51020002401211C70C2F8E0
:1005E00008031346516002E0D3F810211AB9D3F87A
:1005F0004421002AF8D00B4B1B781BB9074BD3F8CA
:10060000003523B90848BDE810400DF099B8FFF750
:1006100071FE0548BDE810400DF092B80020004082
:10062000AC190020AD1900202408002038B5124C68
:1006300012492068124A0860124B01211170D3F848
:100640000035B3B10F4B104A104800211025C3F8F4
:100650001011C3F84411C3F8045324682244012440
:10066000C3F83425C3F838451C60BDE838400DF0A8
:1006700045B8FFF78FFEE5E77C15002078150020D0
:10068000AC1900200020004078130020240800202E
:1006900008B519480AF062FB032808D8DFE800F023
:1006A0001A021308FFF744FE144B1B78E3B108BD90
:1006B000124B1B78E3B1124B1B78002BF7D1BDE82E
:1006C0000840FFF793BE0D4B1B78002BF3D0FFF7CC
:1006D0007FFFF0E7094B1B781BB9BDE80840FFF727
:1006E00027BEFFF775FFF8E7BDE80840FFF79EBF9C
:1006F000FFF79CFFDFE700BF8C190020AC1900203A
:10070000AD19002008B5014603480AF015FBBDE805
:100710000840FFF7BDBF00BF8C19002010B50A4686
:10072000014604480AF0F4FA044608B1FFF7B0FFA6
:10073000204610BD8C19002038B52A4BD3F8102163
:10074000DAB1294A29480021C3F810111368284951
:1007500001330968C3F30803994218BF1360116895
:10076000244B204A0B440121C2F8343511600DF0AE
:1007700083F8214B18680DF07FF81A4BD3F820212D
:1007800062B31E4A1E490020C3F82001D3F84C353D
:1007900014682344C3F30903136014680B689C4274
:1007A0001DD010680B68174C984234BF0B68136853
:1007B00015490C4A38BF1B1A014428BFC3F5806392
:1007C0004FF6FF704FF6FE75AB4288BF034601201F
:1007D000C2F84415C2F848352070906038BD094B06
:1007E000187038BD002000407C150020240800202F
:1007F0007815002078130020B019002080190020FF
:10080000841900208819002080150020F8B5634D58
:10081000634E2B681F2B8BBF03F01F021A466048E4
:100820004FF0A04002F5E072042140F82210142499
:1008300004E0FFF73FFC013C2B680FD01F2B8ABF61
:1008400032464FF0A04203F01F01D2F8102598BFA6
:100850001946CA40D7074FF00A00EAD51F2B29D9FD
:100860004F4CD4F8100503F01F07F84010F00100BA
:1008700000F084806A681F2A2BD84FF0A04002F550
:10088000E071042640F82160D0F8106526FA02F2E3
:10089000D2072BD50246012002241F2B42F821400B
:1008A00078D903F01F033E4A03F5E073022142F8B2
:1008B0002310F8BD4FF0A042D2F81045DC4014F0F0
:1008C00001045DD1204603F5E073022142F82310B4
:1008D000F8BD02F01F0101F5E070314A042642F82C
:1008E0002060D2F81025CA40D0074CD407F5E0723A
:1008F000012606FA07F740F20161C4F8087544F8CA
:100900002210274F102401E0013C35D01F2B8ABF55
:100910003A464FF0A04203F01F0306FA03F3C2F871
:100920000C350520FFF7C6FB2B681F2B8ABF3A4604
:100930004FF0A04203F01F0306FA03F3C2F8083594
:100940000420FFF7B7FB6A681F2A8ABF3B464FF0B7
:10095000A04302F01F00D3F810152B6898BF104673
:10096000C140C907D0D501201F2A0ED902F01F01AE
:1009700001F5E0710A4A8FE72046F5E73B4692E72A
:1009800014461F4676E70120F2E702F5E0714FF0CA
:10099000A04281E74FF0A04295E700BF3008002059
:1009A0000003005008B514490A684B681F2A88BF25
:1009B00002F01F0202F5E0728CBF10484FF0A04019
:1009C0001F2B88BF03F01F034FF0040140F82210D3
:1009D00003F5E0738CBF094A4FF0A042042142F8AE
:1009E00023101420FFF766FBFFF710FF044A054BA6
:1009F000107000221A7008BD30080020000300505B
:100A0000B4190020B5190020084A094B11681B6869
:100A1000994208D01168136806480133C3F30803EC
:100A2000405C136070474FF0FF307047B81B0020E8
:100A3000BC1B0020B81900202DE9F843224B234DA0
:100A40001F682B682C68BB420E461DD9C4F5007484
:100A5000A1422AD92968DFF8789022464944804685
:100A60000EF023FA00232B605FB1361BB74228BF7C
:100A70003746494608EB04003A460EF016FA2F6056
:100A80003C442046BDE8F8833C1BFAD02B68104953
:100A9000B44228BF3446224619440EF006FA2B68A9
:100AA00023442B602046BDE8F8832B680849324672
:100AB00019440EF0FAF92B683344C3F308033446A3
:100AC0002B602046BDE8F883BC1B0020B81B00202B
:100AD000B819002010B5038804461BB1B42B05D10A
:100AE000822907D0B4232380012010BD0023038076
:100AF000032010BD01480AF04BF9F3E7CC1D00209C
:100B000030B40C490C4B4FF0A0424FF48075C1F843
:100B1000845000244FF0FF300221C3F80045C3F891
:100B20000C05C3F81405C2F83C17C2F8381730BCDE
:100B3000704700BF00E100E000800240144A1378D3
:100B400003B310B4134B144900244FF48070147095
:100B5000C3F808030A784AB10122DA6002E0D3F848
:100B600020211AB9D3F85821002AF8D00B4B1B7852
:100B700001220A701BB9074BD3F800351BB95DF889
:100B8000044B704770475DF8044BFFF7B9BF00BFD7
:100B9000ED1D002000800240C81D0020EC1D00203B
:100BA00070B44FF0A041124B124A0320C1F83C0729
:100BB0004FF4004500200F240E26C1F80855C3F855
:100BC0000C454FF0EB75C1F83807C024C3F8146525
:100BD0004FF48071C3F86C050820C3F8245582F8DF
:100BE0002843C2F884115160C3F8000570BC7047F7
:100BF0000080024000E100E008B50D4B0D49186887
:100C00000D4A08600D4B01211170D3F8003563B116
:100C10000A4B0B4800224FF480710270C3F8202168
:100C2000C3F85821C3F8041308BDFFF7B9FFEFE775
:100C3000C41D0020C01D0020ED1D002000800240CA
:100C4000C81D002070B41D4A1D4913680C6801338B
:100C5000C3F308039C422AD015681A4C60551A4DFC
:100C600013602B7803F0FF00FBB908681368984203
:100C700020D008681368984234BF13680B68134A81
:100C800038BF1B1A4FF6FF7128BFC3F500734FF62C
:100C9000FE760444B34288BF0B460121C2F84445A6
:100CA0000846C2F848352970916070BC7047002032
:100CB00070BC7047012070BC704700BFC41D00208D
:100CC000C01D0020C01B0020C81D00200080024065
:100CD0002DE9F047002962D03B4EDFF8FC90D9F8AF
:100CE0000070336835689F420C4680461DD8C5F5B4
:100CF0000075A94257D93068DFF8D0A02A46504481
:100D000041460EF0D2F80023012F33601FD9791E1F
:100D1000671B8F4228BF0F46504608EB05013A4635
:100D20000EF0C3F837603D4411E07F1B012F48D916
:100D3000791E8C423368254828BF0C46224641461E
:100D4000184425460EF0B1F8336823443360204A36
:100D500013782BBBD9F800103368994220D0D9F80A
:100D60000040336819481B499C4236BF3368D9F8A4
:100D700000301B1B204428BFC3F500734FF6FE76DE
:100D80004FF6FF74B34288BF23460124C1F84405DF
:100D9000C1F8483514708C602846BDE8F0870D46D0
:100DA0002846BDE8F0873368084841461844224683
:100DB0000EF07BF833682344C3F308033360254601
:100DC000C5E70025C3E700BFC41D0020C01B0020ED
:100DD000C81D002000800240C01D0020124A134B95
:100DE00010B51020002401211C70C2F8080313461E
:100DF000516002E0D3F810211AB9D3F84421002A37
:100E0000F8D00B4B1B781BB9074BD3F8003523B92F
:100E10000848BDE810400CF093BCFFF771FE054890
:100E2000BDE810400CF08CBC00800240EC1D00209E
:100E3000ED1D00204008002038B5124C12492068F2
:100E4000124A0860124B01211170D3F80035B3B17A
:100E50000F4B104A104800211025C3F81011C3F899
:100E60004411C3F80453246822440124C3F83425F0
:100E7000C3F838451C60BDE838400CF03FBCFFF7B4
:100E80008FFEE5E7BC1B0020B81B0020EC1D0020F6
:100E900000800240B81900204008002008B5194819
:100EA00009F05CFF032808D8DFE800F01A021308F5
:100EB000FFF744FE144B1B78E3B108BD124B1B78BF
:100EC000E3B1124B1B78002BF7D1BDE80840FFF7C8
:100ED00093BE0D4B1B78002BF3D0FFF77FFFF0E79D
:100EE000094B1B781BB9BDE80840FFF727BEFFF789
:100EF00075FFF8E7BDE80840FFF79EBFFFF79CFFCE
:100F0000DFE700BFCC1D0020EC1D0020ED1D002000
:100F100008B50146034809F00FFFBDE80840FFF798
:100F2000BDBF00BFCC1D002010B50A4601460448D5
:100F300009F0EEFE044608B1FFF7B0FF204610BDF1
:100F4000CC1D002038B52A4BD3F81021DAB1294A3C
:100F500029480021C3F81011136828490133096892
:100F6000C3F30803994218BF13601168244B204A49
:100F70000B440121C2F8343511600CF07DFC214B8B
:100F800018680CF079FC1A4BD3F8202162B31E4A82
:100F90001E490020C3F82001D3F84C3514682344BF
:100FA000C3F30803136014680B689C421DD01068DB
:100FB0000B68174C984234BF0B68136815490C4AEC
:100FC00038BF1B1A014428BFC3F500734FF6FF70EA
:100FD0004FF6FE75AB4288BF03460120C2F84415A8
:100FE000C2F848352070906038BD094B187038BD84
:100FF00000800240BC1B002040080020B81B0020DD
:10100000B8190020F01D0020C01D0020C41D0020C4
:10101000C81D0020C01B0020164BD3F8002512F07D
:10102000070226D170B41B26C3F808654FF0A04113
:10103000062407204FF00046C3F80C45C3F81005FE
:10104000FF24C3F824654FF00066C3F8C0450A4D7D
:10105000C1F80C6503244026C1F86C47C1F80C6543
:10106000C1F81847C1F81C27C3F800052A7070BCE6
:101070007047704700300040F41D00200B4BD3F840
:101080000025520711D04FF0A04210B40221084CA5
:101090000020C3F80005C2F86C17C2F81817C2F890
:1010A0001C1720705DF8044B7047704700300040FB
:1010B000F41D0020F0B4274D2C78D4B900B1D9B973
:1010C000BAB1B3B12449002002242C70C1F8440500
:1010D000C1F84805C1F83425C1F83835C1F8100108
:1010E0001D4B01220021C3F804111A611046F0BC07
:1010F00070470020F0BC704704F0FF0600F0604429
:10110000B4F1005FF5D13AB133B102F06044B4F10B
:10111000005F10D03046EDE70F4B002201242C7009
:10112000C3F84405C3F84815C3F83425C3F8382577
:10113000C3F82021D4E7084C03272F70C4F84405D6
:10114000C4F84815C4F83425C4F83835C4F8186113
:10115000C6E700BFF41D00200030004011490B78A5
:10116000032B08D8DFE803F0100217110E4AD2F85B
:101170002031002BFBD00C4A01235361D2F80431FB
:10118000002BFBD000230B707047074AD2F81831B0
:10119000002BFBD0EFE7044AD2F81031002BFBD034
:1011A000E9E700BFF41D00200030004008B5002032
:1011B0000AF014FF28B1852803D0BDE808400BF0E1
:1011C0003FB808BDF0B568490B780871020C000AF9
:1011D0008A70C870002B5ED0644B002518462A46E2
:1011E00004798E180330013234B1B478013CE4B292
:1011F000FD2C98BF45F00105042AF1D14E78D5B1F8
:101200005B4C00201A790D1802B1AA785D79013083
:10121000033315B1C2F1FF0292B2042824F8022B65
:10122000F0D11EB9534B0122C3F80025514A0123C6
:1012300093604B70F0BD1EB14E4AC2F800554D7020
:101240004D4E00220125187980B188185C7980788C
:1012500094B198B198791F2886BF00F01F003446DA
:101260004FF0A04405FA00F0C4F808050132042A42
:1012700003F10303E7D1F0BD0028EBD098791F28D4
:1012800086BF00F01F0034464FF0A04405FA00F07E
:10129000C4F80C05EAE7354ADFF8DCC002F10C05BA
:1012A000134601271879E8B198795E790446002E33
:1012B0004BD01F2887BF00F01F06E64606464FF0BA
:1012C000A04E07FA06F6CEF80C6540F203461F283A
:1012D0008ABF00F01F044FF0A040604604F5E074A0
:1012E00040F824600333AB42DCD1224E00234FF0A0
:1012F0000047107903F5AC7520B3907946F82500C6
:101300000133042B02F10302F3D11A4A184D0724CA
:10131000C2F80C4500200224C2F80405C2F81045AA
:10132000FF24C2F81405C2F808450124C2F8243588
:10133000C2F82C05C2F82055C2F82805C2F80002F0
:101340000C7049E746F82570DAE71F2887BF00F0E0
:101350001F06E64606464FF0A04E07FA06F6CEF800
:10136000086540F20366B2E7F81D0020200702007E
:10137000FE1D00200010024000030050024B53F8F5
:10138000203003B118477047081E0020F0B583B025
:1013900005460C4617461E4609F07CFD38B3012C65
:1013A00005D0022C03D0032C0CBF032400249DF88D
:1013B00006308DF80440003718BF012703F0FE0304
:1013C00067F34103DBB243F004030024094A8DF8BC
:1013D000063001A928468DF8054009F09FFD08B1A7
:1013E0000AF02EFF044B43F8256003B0F0BD09F06E
:1013F000FDFCD4E77D130100081E0020012109F047
:1014000025BE00BF09F09EBE024B002143F820100C
:1014100009F0D2BE081E00200E490B78CBB970B47B
:101420000D4B0E4D0E4C0F480F4A104E2B442344CB
:101430001B1A9B1A03F6FF700D4A0E4D0E4C000B43
:101440009B1A3060120B01202B602260087070BC68
:1014500070477047CC1E0020CC140200240A0020E4
:1014600014150200CC1402001000002050080020C7
:1014700000E00000C81E00204C0800200048704713
:1014800000E00D00004870470000020008B50F4B57
:101490001B68834218D8FF2816D8000300F5805136
:1014A00088420FD20268013200F1040301D007E044
:1014B0001346994203F1040204D91B680133F7D0A3
:1014C0000AF050FC002008BD012008BD5008002093
:1014D000531EB3F5805F44D22DE9F041404B1B68A9
:1014E000B0EB033FADF5806D054635D31318B3F56A
:1014F000801F144630D810F0030C0E4633D18B07F2
:1015000054D06F46B4F5806F14D931464FF48062E1
:1015100038460DF0CAFCA4F5806428464FF480726A
:1015200039460AF037FCB4F5806F06F5806605F59C
:101530008065EAD8A308314655F8232047F82320D0
:10154000384622460DF0B1FCE21C28469208394686
:101550000AF020FC002000E001200DF5806DBDE8C0
:10156000F081012070470CF1030820F0030590443E
:101570006F464FEA98082B683B60B8F5807F07EB11
:101580000C001BD9CCF5806842460DF08EFCA4EB14
:10159000080428464FF48072394646440AF0FAFBA4
:1015A00005F58065002CADD10220D6E712F00307C7
:1015B000A7D192080AF0EEFB3846CEE705EB880487
:1015C00008F1FF3354F8044C47F823400DF06DFC4C
:1015D0002846424639460AF0DDFB0020BDE700BF41
:1015E0005008002008B58B18B3F5801F01D90120E1
:1015F00008BD0DF05AFC002008BD00BF4FF080422E
:10160000D2F81C3523F007031843C2F81C057047B5
:1016100038B5274D03F046F92B68186803F086F9B2
:101620002B68D86B0DF018FC224B18680DF014FCD9
:101630002B68986B0DF010FC0024A21D2B68013460
:1016400053F822000DF008FC042CF6D1002404F11C
:101650000A022B68013453F822000DF0FDFB042C24
:10166000F5D12B6858690DF0F7FB2B6818690DF060
:10167000F3FB2B68D8680DF0EFFB2B6898680DF032
:10168000EBFB0D4B18680DF0E7FB2B6858680DF06D
:10169000E3FB0A4B18680DF0DFFB094B18680DF0EF
:1016A000DBFB2B6818680DF0D7FB00232B6038BDDF
:1016B000D01E00201C1F0020201F0020181F00200B
:1016C000141F00202DE9F04F8C4B8DB01B680A9140
:1016D00006469346002B00F09B80DFF82C82884F53
:1016E000DFF82892DFF828A21868D8F80020B0FAAE
:1016F00080F46409002A00F089803A68002A00F02A
:1017000082805A68002A58D0D9F80020002A5AD07E
:101710009A68002A5CD0DA68002A5ED01A69002A2A
:1017200060D05A69002A62D003F1180103F128023F
:101730009C4651F8043B002B3CD08A42F9D16346C9
:101740000CF1380C52F8041B002930D09445F9D123
:101750009A6B002A54D0DAF80020002A4DD0DB6BB7
:10176000002B47D0002C40F0F1818474304603F008
:1017700099F89DF92830002B40F3EB815F4BD8F8A6
:1017800000201B6818683B6800930923CDE9013BE2
:1017900031460C2303F088F88346002800F0BA8015
:1017A0003046FFF735FF58460DB0BDE8F08F0134E5
:1017B000A4B2CBE70134A4B2BFE7D9F800200134CA
:1017C000A4B2002AA4D19A680134A4B2002AA2D1FA
:1017D000DA680134A4B2002AA0D11A690134A4B293
:1017E000002A9ED15A690134A4B2002A9CD1013446
:1017F000A4B299E70134A4B2B4E70134A4B2AEE7CD
:101800000134A4B2A7E70134A4B27AE7013474E743
:101810003A4D3C4C0B93202101202C600DF0F8FA3E
:101820000C21206008460DF0F3FADFF8DC80344F1D
:10183000C8F80000102109200DF0EAFA7C21386078
:1018400001202C68DFF8C4900DF0E2FA0C216060F2
:1018500042200DF0DDFA6C21C9F8000001202C684F
:101860000DF0D6FA1821A06001202C680DF0D0FAF6
:101870002021E06001202C680DF0CAFA3821206197
:101880000120D5F800A00DF0C3FA0B9BCAF8140094
:101890001C46B246194B5C2101201E680DF0B8FAB7
:1018A000A31D0134042C46F82300F3D10024134B6C
:1018B000542101201E680DF0ABFA04F10A03013433
:1018C000042C46F82300F2D10C4D18212B680B9301
:1018D00001200DF09DFA0B9B0821986320460DF026
:1018E00097FA5646DFF828A02C68CAF800005C2159
:1018F00001200DF08DFA2B68E063F5E6D01E002084
:10190000181F0020D41E0020141F0020201F0020BC
:101910001C1F0020964BD9F800701B689549D3E92D
:101920000020079205920A9A039742270623CDE9E1
:101930000117114604920893069300944FF49053B4
:1019400002F5B06201F5C06101F074F88346002829
:101950007FF426AF864BBDF82870D3F800C0864BC5
:10196000DCF8045007F1800E4FF00108DCE90201B9
:10197000CDE9058E4FF00809DCF800200492A3F1B0
:10198000080E4FF00A0CCDE901E32A463833CDF8B2
:101990000C90CDF800C000F091FD834600287FF444
:1019A000FFAE734B0A9A1B6807F5E067D3E9031093
:1019B0001B68039300930597CDF81090CDE901447F
:1019C0004FF4FA7300F0AEF9834600287FF4E8AED6
:1019D000674B6A4FD3F800C0DCF81030DCF8140015
:1019E000DCE90121DCF800C0CDF814C0CDF80CC052
:1019F00097F860C0CDF808C00694CDF81080FD6857
:101A00000195BD68009500F043FC834600287FF4F3
:101A1000C7AE07F1A403B14607F174081E46544B44
:101A20001FFA84FCD3F800E00CF10207A01DBFB23E
:101A3000DEF814505EF82000DEE901210CF5B05B01
:101A400009970CF5A05CDEF8003008931FFA8CFCB7
:101A50001FFA8BFBCDE904860023CDE906CB3F02BC
:101A60000393BFB20A9B01930297DEF810700097B0
:101A70002B4602F0CFFA013408F10C082436002876
:101A80006DD1042CCBD1DFF800814E4608F1500314
:101A9000D34699460546B246354BACB2D3F800E082
:101AA000A61C05F10A00B6B2DEF810305EF8200080
:101AB000DEE901210896DEF8007007974FEA042C52
:101AC00000270CF5C076029704F5D05C0A9F04F558
:101AD000C0541FFA8CFCB6B2A4B2CDE90389CDE99B
:101AE0000076CDE9054C02F0F3FA013508F114084F
:101AF00009F12409002837D1042DCDD11C4BDBF886
:101B000000C01C681E4BA06B4FF0080ED4E90121E9
:101B1000CDF80CE024680294CDE900C502F014FE73
:101B20005646834600287FF43BAE114B154A186891
:101B3000D0E900310724C06B01930294009402F0B5
:101B40005FFD834600283FF42EAE29E66FF0010BBF
:101B500029E63046FFF75CFD6FF00B0B23E683466A
:101B60004846FFF755FD1EE68346564618E600BF79
:101B7000D01E002038FA0100DC00002060050020A3
:101B80009805002004010020940600202DE9F04172
:101B9000064600699046274A077813887F2F18BFAA
:101BA000053F0B4418BFB7FA87F79BB214BF7F09F4
:101BB0000127312B84B00D4636D81380B8F1000FC1
:101BC00006D0B8F80030322B84BF3223A8F800309A
:101BD0007068CDF800802A4639464FF47A7301F0D8
:101BE00025F9154CF068A38E05EB850252003946A5
:101BF00092B200F021FD1149D4F814320979B4F8F9
:101C000048203069CDF808806134CDE900142946B8
:101C100000F048F92A4604463946B06B02F0D0FD80
:101C2000204604B0BDE8F081323B138000F0C0F8DC
:101C3000C4E700BF241F002060050020D000002062
:101C400070B50F4B05461A69406900F0A3FB0128E7
:101C500013D002280CD0002605F11804283554F8BA
:101C6000040B314602F05AFBAC42F8D1304670BD4D
:101C7000286802F0C7FE0026EEE70646ECE700BF44
:101C8000600500202DE9F84306468946904600F19C
:101C9000280500F1380755F8044BE37E4BB1716914
:101CA000204643464A4602F073FBAF42F3D1BDE8FB
:101CB000F883204602F086FAE07655F8044CEEE709
:101CC0000B79022B00D070478B798BB94B79027856
:101CD000802B23D010D8012B18D0022B01D1042344
:101CE00003708369002BEED000788242EBD0184756
:101CF000827A9A42EAD07047812B04D0822BF0D1AD
:101D000001234372704702234372704703691B68C3
:101D10001B78002BD7D105230370E2E77F230370E4
:101D2000DFE700BF2DE9F04F85B0DDF838C0BDF822
:101D30003CE0BDF840A0119EBDF84870BDF84C8055
:101D400088B381B3BCF1000F2DD066B304460025E3
:101D5000E3814FF001094FF6FF7360464FF07F4B70
:101D6000DFF848C0A2722161A38171462560A56198
:101D7000C4F804B0A4F808905246CDF808C040F268
:101D8000FF73CDE9005402F0D3FD66614246CDE910
:101D90000095394630462B4602F0E2FDE0612846C8
:101DA00005B0BDE8F08F4FF0FF35F8E7C11C01002A
:101DB000437801335BB2002BC8BFFF2343708378A5
:101DC00001335BB2032BC8BFFC238370C37801339C
:101DD0005BB2032BC8BFEC23C370037901335BB242
:101DE000042B47D0682B43D013F1640F2ED003711E
:101DF000437901335BB2042B2FD00FDC13F16E0F4C
:101E000044D013F1640F0ED16423437183790133FD
:101E10005BB2042B0DD1982383717047682B32D0AD
:101E2000722B00D1EC234371837901335BB2042B15
:101E3000F1D015DC13F16E0F2BD013F1640F1CD011
:101E400013F1780F12D178238371704764230371E3
:101E5000437901335BB2042BCFD198234371E3E77D
:101E6000722B19D07C2B0BD0682B18D08371704744
:101E7000EC23BCE798230371BAE7642383717047AE
:101E8000EC23837170478E234371CDE76E2343713A
:101E9000CAE76E23837170478423837170478E2352
:101EA000837170472DE9F8430446808927789DF8AF
:101EB0002080099D014489B29946A181164692B1BC
:101EC000914241D30022E369A2815F71E1696069B7
:101ED00002F05CFD2378002B6FD1E389B34262D21C
:101EE000F31AA38161E04FB9E369A7815F71E169EA
:101EF000606902F04BFD2378002B54D02369072141
:101F0000D86800F02DFC00286BD02378052B4FF00B
:101F1000010973D07F2B74D0042B41D02369122187
:101F2000D86800F01DFC002852D00123237215B19F
:101F30002378052B16D0A3691BB12078B84200D0B6
:101F40009847607ABDE8F883002F00F0D3800A9BA1
:101F5000002BD3D0A3890A9AF31A12889BB29A4213
:101F6000CCD932E0B9F1000F4ED0AB7813F0FD0FB1
:101F70004AD148F010086B78002B68D0022B0CD0A7
:101F800023691221D86800F0EBFB002800F09E8046
:101F90002B78002B5BD0022B3CD10423237039E03B
:101FA000E378E371BAE70023A38119F0040F0CBFB3
:101FB00005237F232370002EA0D00A9B002B9DD0E9
:101FC000A389B34228BF0023C5D30A9A138095E79B
:101FD00023691821D86800F0C3FB78B363792372B2
:101FE000A5E723690621D86800F0BAFB237810F131
:101FF000000918BF4FF00109052B8BD10123E371B4
:102000008CE7A378E37189E7B8F1000F93D018F05B
:10201000100FB0D118F0010F04D0EB78002B33D1A2
:102020007F23237018F0200F14D02B798BBB7F23D4
:10203000237018F0800F15D1A6817CE723691B213E
:10204000D86800F08DFB90B1237923726FE77F236E
:102050002370DFE718F0800F04D12378052B3FF4BD
:102060006AAFE9E76B79CBB97F232370E4E7236993
:102070001C21D86800F074FB0028E5D1B9F1000FED
:1020800011D0E378237252E7022B04BF042323709C
:10209000C8E7022BDED104232370CAE7022BDCD170
:1020A00004232370C8E723690121D86800F058FB96
:1020B0000028E6D1B8F1000F19D094F90230002BB6
:1020C000B4BF01234FF0FF33237230E723691B2194
:1020D000D86800F045FB00287FF45AAF23691C2123
:1020E000D86800F03DFB00287FF452AF92E7FF2351
:1020F00023721CE7E369A781E7E600BF91B130B422
:10210000441E094D2144104614F8013F83EA102370
:10211000000235F8132080B2A14280EA0200F3D118
:1021200030BC7047104670473407020030B5C37D9D
:1021300083B0C3B90568EC68CCB943681B78012B40
:1021400019D0F02B17D82B75003318BF01236A89DB
:10215000A98EE86ACDE90034234602F001FC286329
:10216000204603B030BD0024204603B030BD044CEF
:10217000204603B030BD034C204603B030BD00BF45
:10218000220000083000090638B50446406825687A
:1021900000F0B6FBE37D63B9EB6863B1430803EB82
:1021A0004303834238BF4FF0FF33E8602B610023C5
:1021B000EB61002038BD08B12B76EFE72861F6E728
:1021C00030B5044685B04068256800F099FBE37D92
:1021D000D3B983002DD410F0804318D0297A59BB8D
:1021E0002B7DC0F30A026A8113B12976E9610123CC
:1021F000A98EE86A00930023019302F0B1FB01234A
:102200006A8928632B7206E0002005B030BDC0F358
:102210000A026A812B720024084B298D686A029396
:102220000195009440F2FF7302F082FB204605B056
:1022300030BD034805B030BD0248E6E74922010041
:10224000300009062200000843681B78052B02D0E5
:102250007F2B00D07047027D0B791AB983B9012317
:10226000837507E0012B0FD043F400730384837D53
:10227000002BEFD0C37DB3FA83F35B09C3757047BE
:1022800043F480730384F2E74A7902768375F1E7B9
:102290002DE9F04F85B0DDE90E5C9DF84060119F9F
:1022A000BDF848A0DDF84C80BDF85090002866D0FD
:1022B000002964D0002A62D0002B60D0002F5ED0AD
:1022C000B8F1000F5BD04FEA5C0404EB44046445B2
:1022D000C5F3807EC5F30A0538BF4FF0FF34458152
:1022E000934600250122C0F80CC080F808E0C0E940
:1022F000001304610675044642754762A0F828A0E1
:102300008575C575C5610576058403461D4A41F28C
:1023100005015846CDE9005500F062FB23461A4AF4
:1023200041F206015846CDE9005500F059FB5846E8
:102330002346164A41F21901CDE9005500F050FB41
:10234000134B628900955146CDE90143384640F26E
:10235000FF7302F0EDFA761B18BF01266289C4F8FC
:102360002C80A4F8349049464046CDE900652B46C0
:1023700002F0F6FA2063284605B0BDE8F08F4FF072
:10238000FF35F8E7C1210100892101002D2101005D
:102390004922010030B543681B78052B83B0044601
:1023A00010D07F2B0ED000258575238C3BB148F2D1
:1023B00040221921206800F0F5F8002323842846E4
:1023C00003B030BDE369A57D19448B4238BFE1619C
:1023D0001DB10023E361A3750125217AE36801B3F0
:1023E000FBB1E16999421CD3237E217D206B0192D0
:1023F0000133DBB29942E17D2376B1FA81F138BF36
:1024000001234FEA51114FF0000538BF2376E175E3
:10241000E5614371D4E90B0102F0B8FAE368019A6F
:102420000125CAB1E169914216D9617D002291422C
:1024300018BF02256275002BB7D0E3692269934269
:10244000B3D962681278052AAFD14FF4014218213E
:10245000206800F0A7F8A8E701226275EBE700BF4B
:10246000C37DD0E90021807D3BB1537A50B1084A49
:10247000834234BF10460020704728B9087828B935
:10248000507270470B70704702487047024870479F
:1024900024000008020001063000090638B5044691
:1024A0004068256800F02CFAE37D2BB129780246BC
:1024B0001144606800F038FA002038BD2DE9F04F73
:1024C00083B09DF830C09DF83CA0109EBDF84470CC
:1024D000BDF8488000285ED000295CD0002A5AD080
:1024E000002B58D0BCF1050F55D90D9C002C52D0B3
:1024F0000E9C002C4FD0002E4DD003604FF0000EEC
:1025000000F105090D9B80F804C000F1550BA0F8FF
:1025100064E0C0F868E0C0E916B9C0F860900B60EC
:102520000E9B81F809E074467546A1F80AE0C86080
:102530004B6081F808A003681D550134E3B2634580
:10254000F9D314468A460B468146144A41F20301E8
:102550002046CDE9005500F043FA04F1600320461F
:102560000F4A41F21401CDE9005500F039FA082371
:10257000CAF81060424601953946C6F81C903046AC
:102580000093002302F0ECF90023CAF81400184667
:1025900003B0BDE8F08F4FF0FF33F8E7612401008E
:1025A0009D24010070B584B00093ADF80620A8B159
:1025B0000379CA08934213D9056801F0070401237F
:1025C000A340AC5CDBB21C4208D109B12343AB543D
:1025D00090F8646046B1022380F8643004B070BDA6
:1025E00080F8651004B070BD04460D4602A80DF1D8
:1025F000060100F0A7F9694603A88DF80A608DF876
:102600000B5000F0A5F9082202A9E06D00F06AF96C
:10261000D4E9162308339342226EE36504BF631D99
:10262000E3659A4204BF012384F86430A36E002B53
:10263000D4D09847D2E700BF2DE9F0410446D0E955
:10264000035082B01E460F46904602F04FFA95F8AE
:102650006530002B6AD12A6853799178003318BF0E
:10266000012300295FD1D278002A5CD121680A7841
:1026700022F0110213430B706389B3423CBF9844AC
:10268000A4F80A80002F4BD063695B7B002B47D1F5
:102690006389B34244D3D5E91723934250D02268CB
:1026A00012789A706069296E0530082200F01AF9D4
:1026B00004220DEB0200296E00F014F92B6EAA6DB6
:1026C000083393422B6604BF6B1D2B660023638186
:1026D00095F8642085F86430022A3AD06268DAB14D
:1026E000617A237A8B4230D84B1E13F0FF0311D04E
:1026F000881E03F18041C0B2023903F18043091AF8
:10270000013B89009B00D018D2584260043B99429B
:102710006268F8D1019B1360D4E9040102F036F934
:1027200002B0BDE8F08143F010039FE74FF4C242CE
:1027300028212846FFF736FF002385F865308AE711
:1027400095F86420002AAAD1EAE70131C9B2617282
:10275000CAE728464FF480522021FFF723FFBDE748
:1027600080B10279CB089A420BD9026801F00701C7
:10277000D25C012303FA01F10A4214BF184600207B
:1027800070470020704700BF30B44368C17D1A789D
:102790009C785D7882B08DF80020DA788DF803207F
:1027A0008DF801508DF80240009C026869B1817D6E
:1027B00059B112782244C2F30724C2F30740C2F38E
:1027C00007611A705C709870D970002002B030BC3C
:1027D000704700BF30B4034680209A6F50719A6FE3
:1027E000B3F850009071B3F85020986F120AC2717C
:1027F0009A6F93F8520010729A6FC1F30725C1F3D4
:102800000744C1F3076051729572D47210730022AD
:1028100083F8612083F86C20D3E91D0130BC02F0FD
:10282000B5B800BF0B79082B00D0704790F86C301A
:10283000002BFAD130B490F861404A79152C15D0AC
:1028400002708B794370CB7983700B7AC3704B7AAB
:1028500003718B7A4371CB7A83710B7BC371012334
:1028600080F86C30036F4BB330BC184790F862406F
:102870000270651C02F07F02AA42A0F864301FD0EB
:10288000A2421BD0D4B11622012380F8612080F827
:102890006C30E7E71622012380F8612080F86C3065
:1028A00090F90030002BEEDB90F8622090F8663053
:1028B0009A42E8D290F86C30002BD3D130BC7047EC
:1028C000038F80F862208A1D0D315C1C0487046C24
:1028D00012F8015BE554038F1F2BDBD89142F4D132
:1028E000DEE700BF52B1013A11FA82F20138013934
:1028F00011F8013F00F8013F9142F9D1704700BF44
:1029000010B483B0047841788278C3788DF80040A1
:102910008DF801108DF802208DF80330009803B077
:102920005DF8044B704700BF10B4C1F30742C1F318
:102930000724C1F30763447001708270C3705DF8AF
:10294000044B70470B7803704B784370704700BF9F
:102950000B7803704B7843708B788370CB78C3709F
:10296000704700BF00B10167704700BF70B4028EAE
:10297000C66A501E82B282B3531003EB430498B26E
:1029800036F82440A14219D000250DE0013883B16A
:1029900082B2AB185B10954203EB430498B209D2A4
:1029A00036F824408C4209D0A142EFD3013085B2E1
:1029B000EFE71A46954203D04FF6FF7070BC7047A0
:1029C00005EB450306EB830630884FF6FF7388421C
:1029D0000CBF2846184670BC70471546F4E700BF88
:1029E000F8B517461E460546FFF7C0FF4FF6FF73C2
:1029F0009842069C9DF81C200FD0E96A6B6B00EB97
:102A00004000800001441D1889781F506E6014B189
:102A10000AB1914202D00023AB60F8BD0023AC6044
:102A200001311A4600E0AC68E25401338B42FAD11E
:102A3000F8BD00BF2DE9F04F85B00E9DBDF840B048
:102A4000119E9DF848C0DDF84C80BDF850A0159F40
:102A5000BDF8589000287AD0B8F1000F77D0002F39
:102A600075D0002D3DD0002480F82840EE6AC66263
:102A70002C8E04866D6B45634FF0000BB3F5905FB1
:102A8000044615460E4680F860C080F861B080F8B4
:102A90006CB0C0F870B047D0002E04DB002D02DB14
:102AA000B2B2AEB201E0002632460025294B0293B5
:102AB000514640F2FF7301944046009501F038FF03
:102AC0004FF0080C676732460195494638462B4659
:102AD000CDF800C001F044FFA067284605B0BDE86E
:102AE000F08F4FF0010E0F9CC462A0F830B0466327
:102AF00080F828E0BBF1000FBED00BF1FF34A4B288
:102B000004EB4404A400AE4601E0466B0C3546F8E5
:102B100005E0466B2E44A542C6F804E0466B2E4401
:102B2000C6F808E0F1D1A7E71946FFF71FFF4FF6F7
:102B3000FF739842B0D000EB4000626B0649800002
:102B40001318115004F16002C3E9012BA4E74FF000
:102B5000FF35C2E725280100892701004FF6FF73E2
:102B6000994210D0C36A01EB410103EB81018B78DC
:102B70001BB98B6893B1C88870478B882BB1002A2A
:102B8000F7D1012070470020704712B28B6853F8CC
:102B9000321003EBC20209B1D08870472020704781
:102BA0004FF6FF73994216D030B401EB4101C46A6D
:102BB000890063189D7898885DB170B1615A41F2BF
:102BC000030399420FD022B920F0180080B240F0E0
:102BD000040030BC7047002070479B6803EBC202C2
:102BE00030BC90887047002AF3D140F00800F0E72D
:102BF00010B44FF6FF73C06A01EB4104994200EB39
:102C000084001BD083788BB183882BB9836853F8F9
:102C100032005DF8044B704762B1836883B1C188AC
:102C20005DF8044B501E01FB0030704780685DF872
:102C3000044B704702305DF8044B70470020E8E712
:102C40001846E6E72DE9F04780F85220A0F850102A
:102C500004469046FFF78AFE4FF6FF73984260875E
:102C600052D000EB4006E36AB600334405469A783A
:102C7000424504D29B6813B12548BDE8F08742461F
:102C800029462046FFF7B4FF676B60640023E363C7
:102C9000814604F108033FB33E4420467168C4E90D
:102CA0000F132946FFF75AFF2946A4F84800824629
:102CB00042462046FFF774FFA4F84A00B76847442D
:102CC000B9F1000F14BF51460021002340F2011258
:102CD000BAF1210FE764A165A4F85420E3650D481B
:102CE00038BF1846BDE8F087236429462046FFF721
:102CF00035FF4246A4F84800824629462046FFF7A1
:102D00004FFFA4F84A00DBE70348BDE8F08700BFA7
:102D1000110009064700040600000206B0F84A3018
:102D20005B0733D570B5466B26B1438F03EB430386
:102D300006EB8306436C23B3B0F84820541EA4B2BC
:102D40004AB1026C01341C44013A13F8015B02F8E9
:102D5000015FA342F9D1012380F8533033680D4657
:102D60000446ABB13C30984750B9B4F848305BB139
:102D7000AB4209D8E26D00201344E36584F85400A7
:102D800070BD3368002BE6D1034870BD034870471F
:102D9000B0F84830EEE700BF470004060100010626
:102DA000F8B5B0F84A301B0737D5D0E910658DB3B8
:102DB000B0F848308B4232D1426B00230F460446B4
:102DC00080F8533042B1438F03EB430352F8233072
:102DD00013B13C309847E0B9B4F84810E26D236D68
:102DE0000A4423F07F43E26541F20302002193424B
:102DF00084F854100CD05DB17B1E9BB247B10133F7
:102E00003344013D16F8012B05F8012FB342F9D1E7
:102E10000020F8BDA0F84810CEE70248F8BD0248EF
:102E2000F8BD00BF02000106100007062DE9F041C1
:102E300090F8615082B01DB990F86C40002C56D0CB
:102E4000002946D01646826F1F46537B044603F086
:102E5000FF01002B4FD0B0F86420BA4241D3152DAA
:102E600040F0188394F86230002B00F01383A26FB7
:102E7000537B03F0FF010D46002B40F00B83A22390
:102E80005371A36F94F862209A71636C002284F8E6
:102E90006220002B00F0D782238FC3F120039BB266
:102EA00040F27932934240F25A847F23A26F84F831
:102EB0006630D371002D40F0DE83238F1F2B00F28C
:102EC000E282152384F86130002384F86C30A16F0E
:102ED000EFE080F8611080F86C10084602B0BDE8A1
:102EE000F081324492B29742A0F86420B7D9002012
:102EF00002B0BDE8F08190F86C30002B44D090F81F
:102F00000080262D4FEA581818BFA0F8641000233F
:102F10001372A26FD371A26F9371A26F5371A26FDC
:102F20001373A26FD372A26F9372A26F537294F84D
:102F30006C1019B12278802A00F09C8494F86150BA
:102F40008DBB08F1FF33012B40F2E782B8F1060F89
:102F500053D0B8F1050F40F07D84A1786378E27812
:102F600043EA01212046FFF76DFE30B920212046BB
:102F7000FFF7D4FE002800F0258301462046FFF726
:102F800029FC4FF0FF30A9E7262D00F01683B0F89A
:102F9000642097427FF663AF324492B2BA42A0F8FF
:102FA0006420A4D35BE7B4F86420BA42BFF457AFFF
:102FB000324492B2BA42A4F86420BFF450AFA5F1F3
:102FC0001103162B00F25F82DFE813F0C4029E01AA
:102FD0005D023200EB01A2026A015D025D025D0248
:102FE0005D025D025D025D025D025D0220030B0178
:102FF0005D02FC0153018B007E00A1786378E278CA
:1030000043EA01212046FFF71DFE0028B5D1B4F8A0
:103010004A301B0740F18983B4F864309F4240F284
:10302000E18233449BB29F42A4F8643040F2DA82DA
:10303000237803F0E103C02B40F00C84A36FA4229B
:103040005A71A36F62789A71A36FA278DA71A36F35
:10305000E2781A72A26F042384F8663053722378E0
:10306000C3F38001002284F867109907A4F8682050
:1030700015D5A279E379207961798DF806208DF84C
:1030800004008DF805108DF80730019BB4F8482036
:10309000A365934203D0636C002B40F00B840023A4
:1030A0001522A16F238784F8623084F86C3084F88D
:1030B0006120606F01F06AFC94F86110081C18BF71
:1030C000012002B0BDE8F081237803F0E103A12BD9
:1030D00040F0C083002184F8611084F86C10084629
:1030E000FCE6002900F0FE83237803F0E303A22B23
:1030F00040F0B083607894F862308342C0F0EA8395
:1031000094F86B3023B194F86630834200F08783E3
:10311000C0EBC000B4F8482080B290420BD2034606
:10312000216C1A1A92B2CD5C8D540133B4F8482048
:103130009BB29A42F4D8A178666C84F86610101A93
:1031400085B2C1EBC103A4F848502A461846002EA8
:1031500000F01883904206D994F85530002B00F007
:10316000A18394F866100023238784F8623084F8E2
:103170006B3084F86C30002931D0B4F84820D61A6E
:10318000B6B2072E4FF0000128BF07269A42A4F8D6
:1031900064100DD0012101E0238F0131A26F206C5A
:1031A0005D1C25870A44C35C53718BB29E42F3D8E1
:1031B00094F86230A26F0133DBB284F8623053714D
:1031C000228FB4F848309A4200F01283A16F606FEA
:1031D00001F0DCFB089B13B1089A00231380012047
:1031E0007CE6237803F0E002602A40F0338394F811
:1031F0006220C3F300139A4240F03483218FB4F865
:1032000048506D1AADB2072D00F27082676C002F26
:1032100000F04781002D00F00083C5F107077F0013
:10322000218F7FB2012201E0218F0132A36F206C38
:103230004E1C26871344415C597193B2AB42F3D3C1
:1032400094F862300BB147F01007A36F5F7194F8E8
:103250006230218FB4F84820B3FA83F35B099142BE
:1032600084F8623000F05282A16F002384F86C3041
:103270001FE7237803F0E303A32B40F0EB8294F8DD
:10328000662000232621238784F8623084F86B307F
:1032900084F86C3084F86110002AA0D0238F6CE78A
:1032A000237803F0E102C12A40F0D482218F94F800
:1032B0006720C3F38203C91A89B2218792B1B4F897
:1032C0006820206CFEF71AFFA37862788DF804203E
:1032D0008DF80530BDF80430A4F86800834240F052
:1032E000F182218F012384F855302046FFF758FDE5
:1032F00000287FF442AEA36FA1225A71A16F84F817
:10330000610084F86C00D4E6237813F0E00F40F0FD
:10331000A18294F86210C3F30012914240F0A2829D
:103320006FEA5303218FB4F8482003F007054B19C7
:1033300093420FDD636C002B40F0AC8284F8553073
:103340002046FFF72DFD00287FF417AE20232087AD
:10335000A4F848306DB1A21C6B1E12FA83F3621CF4
:10336000218F206C4D1C258712F8015B4554934238
:10337000F6D12378D80700F1E08194F86220A36F9A
:10338000002A0CBF202230225A7194F86230A16FBB
:10339000B3FA83F35B09002284F8623084F86C206E
:1033A00087E60023E81A18BF012084F86C3095E501
:1033B0009F4240F2178133449BB29F42A4F864308D
:1033C00040F21081A36F62789A71A36FA278DA71CC
:1033D000A36FE2781A72227812F0040340F0898118
:1033E00084F86730A4F86830237984F8663092074F
:1033F00040F030825AB2002A40F35482B4F8482098
:10340000C3EBC303934204D994F85530002B00F06A
:103410004982A36DA26F002B00F06581C3F30725DD
:10342000C3F30740C3F3076153729572D0721173EF
:10343000A36FC6225A712522002384F8612084F8E4
:103440006C30A16F35E6218FD9B1002D40F0068197
:1034500094F867303BB1B4F86820206CFEF74EFE5C
:10346000218FA4F86800002384F855302046FFF728
:1034700097FC0146002840F0428220232087A4F8D0
:103480004830042312E52046BA49FFF7A3F94FF06C
:10349000FF3023E52046B849FFF79CF94FF0FF3095
:1034A0001CE5072D3FF4BEAE94F85530002B7FF499
:1034B000B1AE0DB908E0218F226C1144C95CD15422
:1034C00001339AB29542F6D8236C618F94F852205A
:1034D0002B4423642046FFF741FB401BA4F848001F
:1034E00020212046FFF71AFC0146002840F0078201
:1034F000B4F84830226C20872B449BB2072BA2EBF8
:103500000502A4F8483028BF07231D46226481E63F
:1035100094F90010A26FCD0FB1E4A1786378E2783E
:1035200043EA01212046FFF78DFB00287FF425ADFB
:10353000B8F1010F59D1B4F84A301B0740F1F580BA
:10354000B4F864309F424DD933449BB29F42A4F8F3
:10355000643047D9A36F60225A71A36F62789A7161
:10356000A36FA278DA71A36FE2781A7223789F07AB
:1035700040F19E80DE0748BFC3F38101236C2279AE
:1035800058BFB4F848101A70236C62795A70236CD3
:10359000A2799A70236CE279DA7044BFC1F1040118
:1035A00089B22046FFF7FCFB00287FF4E6AC84F8E4
:1035B000610084F86C00A16F7BE590F800804FEA11
:1035C0005818A4E46379B4F848209A42B4F86430F7
:1035D0003FF6EEAE9F4205D933449BB29F42A4F81A
:1035E000643013D894F8615039E420212046FFF765
:1035F00095FB00287FF4C1ACB4F864309F42F1D948
:1036000033449BB2BB42A4F86430EBD2A36F627820
:103610009A71A36FA278DA71A36FE2781A72B4F884
:103620004820042A2BD85AB10023A26F216C1A44D7
:10363000C95C51720133B4F848209BB29A42F4D865
:10364000C2F104039B00A26F43F0430353710023B4
:10365000A16F84F8613084F86C302AE5C1F1200351
:1036600040F279329BB29342A26F40F20B817F23EA
:1036700084F86630D371172384F8613024E4A36D95
:1036800000222221228784F8622084F86110002B16
:1036900060D0A26FC3F30725C3F30740C3F30761EC
:1036A00053729572D0721173A36F41225A710BE459
:1036B000DD0715D5A279E379207961798DF80620A7
:1036C0008DF804008DF805108DF80730019BB4F8D3
:1036D0004820A365934203D0636C002B40F0EA803E
:1036E00000231222DDE4C4235371A4E6002707253A
:1036F00098E50123002284F86730B4F84810206C64
:10370000FEF7FCFC2278A4F868006DE694F85530CA
:10371000A16F002B3FF4A9AD4B7943F001034B712E
:103720000023A16F84F861309FE520461349FFF71D
:1037300051F84FF0FF30FFF7D1BB012384F855302B
:10374000218F2046FFF72CFB00287FF416AC84F86D
:10375000610012E6A36F40225A71FFF7B5BB084A19
:10376000A2FB03129B1A02EB5303C3F38703FFF779
:103770009DBB00BF470004060000040502000106CF
:10378000254992249D42BFF4EEAC94F85530002BAD
:103790007FF4E7AC236C618F94F852202B442364B0
:1037A0002046FFF7DBF9401BA4F848002021204603
:1037B000FFF7B4FA0146002840F0A18094F8673082
:1037C00043B1B4F86820B4F84810206CFEF796FCBA
:1037D000A4F86800B4F84820236C94F866102A44D2
:1037E00092B25B1BA4F848202364C1EBC100B1E492
:1037F00094F85530A16F002B3FF4E9AC4B7963F09E
:103800007F034B7194F86220A16F84F86A600123F2
:1038100084F8662084F86B30D9E40E2710E594F81C
:103820006A30A26FC3F107039B0063F03E0353713C
:1038300094F8673033B1A36F94F868209A7194F8C4
:103840006920DA712722002384F8612084F86C3023
:10385000A16F2EE420462D49FEF7BCFF4FF0FF304C
:10386000FFF73CBB20462A49FEF7B4FF4FF0FF307C
:10387000FFF734BB84F8613084F86C304FF0FF30D0
:10388000FFF72CBB0721B3FBF1F3DBB284F8663002
:10389000D371F0E620461F49FEF79CFF4FF0FF3042
:1038A000FFF71CBB20461C49FEF794FF4FF0FF308A
:1038B000FFF714BB20461949FEF78CFF4FF0FF308D
:1038C000FFF70CBB20461649FEF784FF4FF0FF3090
:1038D000FFF704BB20461349FEF77CFF4FF0FF3093
:1038E000FFF7FCBA94F8662094F862309A423FF4ED
:1038F00076AC94F86B30002B7FF471ACCEE42046AC
:10390000FEF768FF4FF0FF30FFF7E8BA010004054B
:103910000000030512000706020004051000070658
:1039200004000405030004052DE9F84FCDB26C072F
:103930000A9E6BD13478ED082C44E4B2082C347024
:1039400013D80F0C072FC1F30724B9B210D87CB9D4
:10395000012F62D902295FD005295DD0032967D0E4
:1039600006290CBF0224042457E03248BDE8F88F32
:103970001F4692468146FEF7F9FF4FF6FF739842C5
:10398000804646D0D9F82C3000EB400203EB82038E
:103990009B78A3423DD3014622464846FFF700F9F3
:1039A0005FFA80FBBAF1000F2CD10BF01803182B33
:1039B0002CD1224641464846FFF7D0F8C0B2854296
:1039C00024D822460C9C4FEADB134146484623701C
:1039D000FFF70EF91BF0400F386011D033785D1BF4
:1039E0009D420DDA0B9B1B78012101FA05F213436E
:1039F0000B9ADBB21370013532782DB29542F4DBAD
:103A00000020B3E70BF02403242BD2D00A48BDE8F2
:103A1000F88F0A48BDE8F88F0124AC42F6D31AB9F2
:103A2000074919601046A1E7064A1A6000209DE781
:103A30000224F2E7420004064100040600000206E8
:103A4000281F00202C1F00202DE9F04F87B00022F6
:103A5000054606698DF811200C46002946D04C1EFB
:103A6000A3B2301D144600EB830A91460DF1130BEF
:103A70008DF8129056F8047F6868CDF808B00DF103
:103A8000120301930DF111030093394605AB002297
:103A9000FFF74AFFC0B9224623B29DF81140A24267
:103AA0000ADA0599013308321BB2A34245F8221005
:103AB0001A4601F10101F5DB5645D9D107463846D2
:103AC000EC7707B0BDE8F08FB846434607464FF4A1
